{
	"contracts/BancoDePuntosBasico.sol": {
		"BancoDePuntosBasico": {
			"abi": [
				{
					"inputs": [],
					"stateMutability": "nonpayable",
					"type": "constructor"
				},
				{
					"anonymous": false,
					"inputs": [
						{
							"indexed": true,
							"internalType": "address",
							"name": "usuario",
							"type": "address"
						},
						{
							"indexed": false,
							"internalType": "uint256",
							"name": "monto",
							"type": "uint256"
						},
						{
							"indexed": false,
							"internalType": "uint256",
							"name": "timestamp",
							"type": "uint256"
						}
					],
					"name": "BonusOtorgado",
					"type": "event"
				},
				{
					"anonymous": false,
					"inputs": [
						{
							"indexed": true,
							"internalType": "address",
							"name": "usuario",
							"type": "address"
						},
						{
							"indexed": false,
							"internalType": "uint256",
							"name": "monto",
							"type": "uint256"
						},
						{
							"indexed": false,
							"internalType": "uint256",
							"name": "timestamp",
							"type": "uint256"
						}
					],
					"name": "Depositado",
					"type": "event"
				},
				{
					"anonymous": false,
					"inputs": [
						{
							"indexed": true,
							"internalType": "address",
							"name": "usuario",
							"type": "address"
						},
						{
							"indexed": false,
							"internalType": "uint256",
							"name": "monto",
							"type": "uint256"
						},
						{
							"indexed": false,
							"internalType": "uint256",
							"name": "timestamp",
							"type": "uint256"
						}
					],
					"name": "Penalizado",
					"type": "event"
				},
				{
					"anonymous": false,
					"inputs": [
						{
							"indexed": true,
							"internalType": "address",
							"name": "usuario",
							"type": "address"
						},
						{
							"indexed": false,
							"internalType": "uint256",
							"name": "monto",
							"type": "uint256"
						},
						{
							"indexed": false,
							"internalType": "uint256",
							"name": "timestamp",
							"type": "uint256"
						}
					],
					"name": "Retirado",
					"type": "event"
				},
				{
					"inputs": [],
					"name": "bloqueCreacion",
					"outputs": [
						{
							"internalType": "uint256",
							"name": "",
							"type": "uint256"
						}
					],
					"stateMutability": "view",
					"type": "function"
				},
				{
					"inputs": [],
					"name": "bloqueDeCreacion",
					"outputs": [
						{
							"internalType": "uint256",
							"name": "",
							"type": "uint256"
						}
					],
					"stateMutability": "view",
					"type": "function"
				},
				{
					"inputs": [],
					"name": "bonus",
					"outputs": [],
					"stateMutability": "nonpayable",
					"type": "function"
				},
				{
					"inputs": [
						{
							"internalType": "uint256",
							"name": "monto",
							"type": "uint256"
						}
					],
					"name": "depositar",
					"outputs": [],
					"stateMutability": "nonpayable",
					"type": "function"
				},
				{
					"inputs": [],
					"name": "owner",
					"outputs": [
						{
							"internalType": "address",
							"name": "",
							"type": "address"
						}
					],
					"stateMutability": "view",
					"type": "function"
				},
				{
					"inputs": [],
					"name": "penalizacion",
					"outputs": [],
					"stateMutability": "nonpayable",
					"type": "function"
				},
				{
					"inputs": [
						{
							"internalType": "uint256",
							"name": "monto",
							"type": "uint256"
						}
					],
					"name": "retirar",
					"outputs": [],
					"stateMutability": "nonpayable",
					"type": "function"
				},
				{
					"inputs": [
						{
							"internalType": "address",
							"name": "usuario",
							"type": "address"
						}
					],
					"name": "saldoDe",
					"outputs": [
						{
							"internalType": "uint256",
							"name": "",
							"type": "uint256"
						}
					],
					"stateMutability": "view",
					"type": "function"
				},
				{
					"inputs": [
						{
							"internalType": "address",
							"name": "usuario",
							"type": "address"
						}
					],
					"name": "ultimaFechaOp",
					"outputs": [
						{
							"internalType": "uint256",
							"name": "",
							"type": "uint256"
						}
					],
					"stateMutability": "view",
					"type": "function"
				}
			],
			"devdoc": {
				"kind": "dev",
				"methods": {},
				"title": "BancoDePuntosBasico Demuestra: - Variables de estado (globales del contrato): owner, bloqueCreacion, balances, ultimaOperacion - Variables globales EVM: msg.sender, block.timestamp, block.number - Variables locales: usadas en depositar/retirar para cálculos temporales - mapping: balances por address, ultimaOperacion por address",
				"version": 1
			},
			"evm": {
				"assembly": "    /* \"contracts/BancoDePuntosBasico.sol\":433:3459  contract BancoDePuntosBasico {... */\n  mstore(0x40, 0x80)\n    /* \"contracts/BancoDePuntosBasico.sol\":1110:1286  constructor() {... */\n  callvalue\n  dup1\n  iszero\n  tag_1\n  jumpi\n  revert(0x00, 0x00)\ntag_1:\n  pop\n    /* \"contracts/BancoDePuntosBasico.sol\":1143:1153  msg.sender */\n  caller\n    /* \"contracts/BancoDePuntosBasico.sol\":1135:1140  owner */\n  0x00\n  0x00\n    /* \"contracts/BancoDePuntosBasico.sol\":1135:1153  owner = msg.sender */\n  0x0100\n  exp\n  dup2\n  sload\n  dup2\n  0xffffffffffffffffffffffffffffffffffffffff\n  mul\n  not\n  and\n  swap1\n  dup4\n  0xffffffffffffffffffffffffffffffffffffffff\n  and\n  mul\n  or\n  swap1\n  sstore\n  pop\n    /* \"contracts/BancoDePuntosBasico.sol\":1222:1234  block.number */\n  number\n    /* \"contracts/BancoDePuntosBasico.sol\":1205:1219  bloqueCreacion */\n  0x01\n    /* \"contracts/BancoDePuntosBasico.sol\":1205:1234  bloqueCreacion = block.number */\n  dup2\n  swap1\n  sstore\n  pop\n    /* \"contracts/BancoDePuntosBasico.sol\":433:3459  contract BancoDePuntosBasico {... */\n  dataSize(sub_0)\n  dup1\n  dataOffset(sub_0)\n  0x00\n  codecopy\n  0x00\n  return\nstop\n\nsub_0: assembly {\n        /* \"contracts/BancoDePuntosBasico.sol\":433:3459  contract BancoDePuntosBasico {... */\n      mstore(0x40, 0x80)\n      callvalue\n      dup1\n      iszero\n      tag_1\n      jumpi\n      revert(0x00, 0x00)\n    tag_1:\n      pop\n      jumpi(tag_2, lt(calldatasize, 0x04))\n      shr(0xe0, calldataload(0x00))\n      dup1\n      0x8da5cb5b\n      gt\n      tag_12\n      jumpi\n      dup1\n      0x8da5cb5b\n      eq\n      tag_7\n      jumpi\n      dup1\n      0xbc50f389\n      eq\n      tag_8\n      jumpi\n      dup1\n      0xc53b628e\n      eq\n      tag_9\n      jumpi\n      dup1\n      0xd5ca6228\n      eq\n      tag_10\n      jumpi\n      dup1\n      0xe8b1298f\n      eq\n      tag_11\n      jumpi\n      jump(tag_2)\n    tag_12:\n      dup1\n      0x01d3e580\n      eq\n      tag_3\n      jumpi\n      dup1\n      0x226d07b6\n      eq\n      tag_4\n      jumpi\n      dup1\n      0x6baf38ca\n      eq\n      tag_5\n      jumpi\n      dup1\n      0x75b4d78c\n      eq\n      tag_6\n      jumpi\n    tag_2:\n      revert(0x00, 0x00)\n        /* \"contracts/BancoDePuntosBasico.sol\":3356:3456  function bloqueDeCreacion() external view returns (uint256) {... */\n    tag_3:\n      tag_13\n      tag_14\n      jump\t// in\n    tag_13:\n      mload(0x40)\n      tag_15\n      swap2\n      swap1\n      tag_16\n      jump\t// in\n    tag_15:\n      mload(0x40)\n      dup1\n      swap2\n      sub\n      swap1\n      return\n        /* \"contracts/BancoDePuntosBasico.sol\":2648:3076  function penalizacion() external {... */\n    tag_4:\n      tag_17\n      tag_18\n      jump\t// in\n    tag_17:\n      stop\n        /* \"contracts/BancoDePuntosBasico.sol\":3109:3218  function saldoDe(address usuario) external view returns (uint256) {... */\n    tag_5:\n      tag_19\n      0x04\n      dup1\n      calldatasize\n      sub\n      dup2\n      add\n      swap1\n      tag_20\n      swap2\n      swap1\n      tag_21\n      jump\t// in\n    tag_20:\n      tag_22\n      jump\t// in\n    tag_19:\n      mload(0x40)\n      tag_23\n      swap2\n      swap1\n      tag_16\n      jump\t// in\n    tag_23:\n      mload(0x40)\n      dup1\n      swap2\n      sub\n      swap1\n      return\n        /* \"contracts/BancoDePuntosBasico.sol\":2310:2551  function bonus() external {... */\n    tag_6:\n      tag_24\n      tag_25\n      jump\t// in\n    tag_24:\n      stop\n        /* \"contracts/BancoDePuntosBasico.sol\":528:548  address public owner */\n    tag_7:\n      tag_26\n      tag_27\n      jump\t// in\n    tag_26:\n      mload(0x40)\n      tag_28\n      swap2\n      swap1\n      tag_29\n      jump\t// in\n    tag_28:\n      mload(0x40)\n      dup1\n      swap2\n      sub\n      swap1\n      return\n        /* \"contracts/BancoDePuntosBasico.sol\":555:584  uint256 public bloqueCreacion */\n    tag_8:\n      tag_30\n      tag_31\n      jump\t// in\n    tag_30:\n      mload(0x40)\n      tag_32\n      swap2\n      swap1\n      tag_16\n      jump\t// in\n    tag_32:\n      mload(0x40)\n      dup1\n      swap2\n      sub\n      swap1\n      return\n        /* \"contracts/BancoDePuntosBasico.sol\":3226:3348  function ultimaFechaOp(address usuario) external view returns (uint256) {... */\n    tag_9:\n      tag_33\n      0x04\n      dup1\n      calldatasize\n      sub\n      dup2\n      add\n      swap1\n      tag_34\n      swap2\n      swap1\n      tag_21\n      jump\t// in\n    tag_34:\n      tag_35\n      jump\t// in\n    tag_33:\n      mload(0x40)\n      tag_36\n      swap2\n      swap1\n      tag_16\n      jump\t// in\n    tag_36:\n      mload(0x40)\n      dup1\n      swap2\n      sub\n      swap1\n      return\n        /* \"contracts/BancoDePuntosBasico.sol\":1372:1702  function depositar(uint256 monto) external {... */\n    tag_10:\n      tag_37\n      0x04\n      dup1\n      calldatasize\n      sub\n      dup2\n      add\n      swap1\n      tag_38\n      swap2\n      swap1\n      tag_39\n      jump\t// in\n    tag_38:\n      tag_40\n      jump\t// in\n    tag_37:\n      stop\n        /* \"contracts/BancoDePuntosBasico.sol\":1791:2223  function retirar(uint256 monto) external {... */\n    tag_11:\n      tag_41\n      0x04\n      dup1\n      calldatasize\n      sub\n      dup2\n      add\n      swap1\n      tag_42\n      swap2\n      swap1\n      tag_39\n      jump\t// in\n    tag_42:\n      tag_43\n      jump\t// in\n    tag_41:\n      stop\n        /* \"contracts/BancoDePuntosBasico.sol\":3356:3456  function bloqueDeCreacion() external view returns (uint256) {... */\n    tag_14:\n        /* \"contracts/BancoDePuntosBasico.sol\":3407:3414  uint256 */\n      0x00\n        /* \"contracts/BancoDePuntosBasico.sol\":3434:3448  bloqueCreacion */\n      sload(0x01)\n        /* \"contracts/BancoDePuntosBasico.sol\":3427:3448  return bloqueCreacion */\n      swap1\n      pop\n        /* \"contracts/BancoDePuntosBasico.sol\":3356:3456  function bloqueDeCreacion() external view returns (uint256) {... */\n      swap1\n      jump\t// out\n        /* \"contracts/BancoDePuntosBasico.sol\":2648:3076  function penalizacion() external {... */\n    tag_18:\n        /* \"contracts/BancoDePuntosBasico.sol\":2692:2717  uint256 montoPenalizacion */\n      0x00\n        /* \"contracts/BancoDePuntosBasico.sol\":2720:2722  20 */\n      0x14\n        /* \"contracts/BancoDePuntosBasico.sol\":2692:2722  uint256 montoPenalizacion = 20 */\n      swap1\n      pop\n        /* \"contracts/BancoDePuntosBasico.sol\":2733:2752  uint256 saldoPrevio */\n      0x00\n        /* \"contracts/BancoDePuntosBasico.sol\":2755:2763  balances */\n      0x02\n        /* \"contracts/BancoDePuntosBasico.sol\":2755:2775  balances[msg.sender] */\n      0x00\n        /* \"contracts/BancoDePuntosBasico.sol\":2764:2774  msg.sender */\n      caller\n        /* \"contracts/BancoDePuntosBasico.sol\":2755:2775  balances[msg.sender] */\n      0xffffffffffffffffffffffffffffffffffffffff\n      and\n      0xffffffffffffffffffffffffffffffffffffffff\n      and\n      dup2\n      mstore\n      0x20\n      add\n      swap1\n      dup2\n      mstore\n      0x20\n      add\n      0x00\n      keccak256\n      sload\n        /* \"contracts/BancoDePuntosBasico.sol\":2733:2775  uint256 saldoPrevio = balances[msg.sender] */\n      swap1\n      pop\n        /* \"contracts/BancoDePuntosBasico.sol\":2811:2828  montoPenalizacion */\n      dup2\n        /* \"contracts/BancoDePuntosBasico.sol\":2796:2807  saldoPrevio */\n      dup2\n        /* \"contracts/BancoDePuntosBasico.sol\":2796:2828  saldoPrevio >= montoPenalizacion */\n      lt\n      iszero\n        /* \"contracts/BancoDePuntosBasico.sol\":2788:2869  require(saldoPrevio >= montoPenalizacion, \"saldo insuficiente para penalizacion\") */\n      tag_46\n      jumpi\n      mload(0x40)\n      0x08c379a000000000000000000000000000000000000000000000000000000000\n      dup2\n      mstore\n      0x04\n      add\n      tag_47\n      swap1\n      tag_48\n      jump\t// in\n    tag_47:\n      mload(0x40)\n      dup1\n      swap2\n      sub\n      swap1\n      revert\n    tag_46:\n        /* \"contracts/BancoDePuntosBasico.sol\":2919:2936  montoPenalizacion */\n      dup2\n        /* \"contracts/BancoDePuntosBasico.sol\":2905:2916  saldoPrevio */\n      dup2\n        /* \"contracts/BancoDePuntosBasico.sol\":2905:2936  saldoPrevio - montoPenalizacion */\n      tag_49\n      swap2\n      swap1\n      tag_50\n      jump\t// in\n    tag_49:\n        /* \"contracts/BancoDePuntosBasico.sol\":2882:2890  balances */\n      0x02\n        /* \"contracts/BancoDePuntosBasico.sol\":2882:2902  balances[msg.sender] */\n      0x00\n        /* \"contracts/BancoDePuntosBasico.sol\":2891:2901  msg.sender */\n      caller\n        /* \"contracts/BancoDePuntosBasico.sol\":2882:2902  balances[msg.sender] */\n      0xffffffffffffffffffffffffffffffffffffffff\n      and\n      0xffffffffffffffffffffffffffffffffffffffff\n      and\n      dup2\n      mstore\n      0x20\n      add\n      swap1\n      dup2\n      mstore\n      0x20\n      add\n      0x00\n      keccak256\n        /* \"contracts/BancoDePuntosBasico.sol\":2882:2936  balances[msg.sender] = saldoPrevio - montoPenalizacion */\n      dup2\n      swap1\n      sstore\n      pop\n        /* \"contracts/BancoDePuntosBasico.sol\":2977:2992  block.timestamp */\n      timestamp\n        /* \"contracts/BancoDePuntosBasico.sol\":2947:2962  ultimaOperacion */\n      0x03\n        /* \"contracts/BancoDePuntosBasico.sol\":2947:2974  ultimaOperacion[msg.sender] */\n      0x00\n        /* \"contracts/BancoDePuntosBasico.sol\":2963:2973  msg.sender */\n      caller\n        /* \"contracts/BancoDePuntosBasico.sol\":2947:2974  ultimaOperacion[msg.sender] */\n      0xffffffffffffffffffffffffffffffffffffffff\n      and\n      0xffffffffffffffffffffffffffffffffffffffff\n      and\n      dup2\n      mstore\n      0x20\n      add\n      swap1\n      dup2\n      mstore\n      0x20\n      add\n      0x00\n      keccak256\n        /* \"contracts/BancoDePuntosBasico.sol\":2947:2992  ultimaOperacion[msg.sender] = block.timestamp */\n      dup2\n      swap1\n      sstore\n      pop\n        /* \"contracts/BancoDePuntosBasico.sol\":3021:3031  msg.sender */\n      caller\n        /* \"contracts/BancoDePuntosBasico.sol\":3010:3068  Penalizado(msg.sender, montoPenalizacion, block.timestamp) */\n      0xffffffffffffffffffffffffffffffffffffffff\n      and\n      0xa149a0eb7c3069c88c3ad8bb0c69c063163678ab805ff088f377e2eed5b65e12\n        /* \"contracts/BancoDePuntosBasico.sol\":3033:3050  montoPenalizacion */\n      dup4\n        /* \"contracts/BancoDePuntosBasico.sol\":3052:3067  block.timestamp */\n      timestamp\n        /* \"contracts/BancoDePuntosBasico.sol\":3010:3068  Penalizado(msg.sender, montoPenalizacion, block.timestamp) */\n      mload(0x40)\n      tag_51\n      swap3\n      swap2\n      swap1\n      tag_52\n      jump\t// in\n    tag_51:\n      mload(0x40)\n      dup1\n      swap2\n      sub\n      swap1\n      log2\n        /* \"contracts/BancoDePuntosBasico.sol\":2681:3076  {... */\n      pop\n      pop\n        /* \"contracts/BancoDePuntosBasico.sol\":2648:3076  function penalizacion() external {... */\n      jump\t// out\n        /* \"contracts/BancoDePuntosBasico.sol\":3109:3218  function saldoDe(address usuario) external view returns (uint256) {... */\n    tag_22:\n        /* \"contracts/BancoDePuntosBasico.sol\":3166:3173  uint256 */\n      0x00\n        /* \"contracts/BancoDePuntosBasico.sol\":3193:3201  balances */\n      0x02\n        /* \"contracts/BancoDePuntosBasico.sol\":3193:3210  balances[usuario] */\n      0x00\n        /* \"contracts/BancoDePuntosBasico.sol\":3202:3209  usuario */\n      dup4\n        /* \"contracts/BancoDePuntosBasico.sol\":3193:3210  balances[usuario] */\n      0xffffffffffffffffffffffffffffffffffffffff\n      and\n      0xffffffffffffffffffffffffffffffffffffffff\n      and\n      dup2\n      mstore\n      0x20\n      add\n      swap1\n      dup2\n      mstore\n      0x20\n      add\n      0x00\n      keccak256\n      sload\n        /* \"contracts/BancoDePuntosBasico.sol\":3186:3210  return balances[usuario] */\n      swap1\n      pop\n        /* \"contracts/BancoDePuntosBasico.sol\":3109:3218  function saldoDe(address usuario) external view returns (uint256) {... */\n      swap2\n      swap1\n      pop\n      jump\t// out\n        /* \"contracts/BancoDePuntosBasico.sol\":2310:2551  function bonus() external {... */\n    tag_25:\n        /* \"contracts/BancoDePuntosBasico.sol\":2347:2365  uint256 montoBonus */\n      0x00\n        /* \"contracts/BancoDePuntosBasico.sol\":2368:2370  20 */\n      0x14\n        /* \"contracts/BancoDePuntosBasico.sol\":2347:2370  uint256 montoBonus = 20 */\n      swap1\n      pop\n        /* \"contracts/BancoDePuntosBasico.sol\":2405:2415  montoBonus */\n      dup1\n        /* \"contracts/BancoDePuntosBasico.sol\":2381:2389  balances */\n      0x02\n        /* \"contracts/BancoDePuntosBasico.sol\":2381:2401  balances[msg.sender] */\n      0x00\n        /* \"contracts/BancoDePuntosBasico.sol\":2390:2400  msg.sender */\n      caller\n        /* \"contracts/BancoDePuntosBasico.sol\":2381:2401  balances[msg.sender] */\n      0xffffffffffffffffffffffffffffffffffffffff\n      and\n      0xffffffffffffffffffffffffffffffffffffffff\n      and\n      dup2\n      mstore\n      0x20\n      add\n      swap1\n      dup2\n      mstore\n      0x20\n      add\n      0x00\n      keccak256\n      0x00\n        /* \"contracts/BancoDePuntosBasico.sol\":2381:2415  balances[msg.sender] += montoBonus */\n      dup3\n      dup3\n      sload\n      tag_55\n      swap2\n      swap1\n      tag_56\n      jump\t// in\n    tag_55:\n      swap3\n      pop\n      pop\n      dup2\n      swap1\n      sstore\n      pop\n        /* \"contracts/BancoDePuntosBasico.sol\":2456:2471  block.timestamp */\n      timestamp\n        /* \"contracts/BancoDePuntosBasico.sol\":2426:2441  ultimaOperacion */\n      0x03\n        /* \"contracts/BancoDePuntosBasico.sol\":2426:2453  ultimaOperacion[msg.sender] */\n      0x00\n        /* \"contracts/BancoDePuntosBasico.sol\":2442:2452  msg.sender */\n      caller\n        /* \"contracts/BancoDePuntosBasico.sol\":2426:2453  ultimaOperacion[msg.sender] */\n      0xffffffffffffffffffffffffffffffffffffffff\n      and\n      0xffffffffffffffffffffffffffffffffffffffff\n      and\n      dup2\n      mstore\n      0x20\n      add\n      swap1\n      dup2\n      mstore\n      0x20\n      add\n      0x00\n      keccak256\n        /* \"contracts/BancoDePuntosBasico.sol\":2426:2471  ultimaOperacion[msg.sender] = block.timestamp */\n      dup2\n      swap1\n      sstore\n      pop\n        /* \"contracts/BancoDePuntosBasico.sol\":2503:2513  msg.sender */\n      caller\n        /* \"contracts/BancoDePuntosBasico.sol\":2489:2543  BonusOtorgado(msg.sender, montoBonus, block.timestamp) */\n      0xffffffffffffffffffffffffffffffffffffffff\n      and\n      0xfbc2cd1261639cd6e5507854332535089a6d779811754542bd97913eb360d8fb\n        /* \"contracts/BancoDePuntosBasico.sol\":2515:2525  montoBonus */\n      dup3\n        /* \"contracts/BancoDePuntosBasico.sol\":2527:2542  block.timestamp */\n      timestamp\n        /* \"contracts/BancoDePuntosBasico.sol\":2489:2543  BonusOtorgado(msg.sender, montoBonus, block.timestamp) */\n      mload(0x40)\n      tag_57\n      swap3\n      swap2\n      swap1\n      tag_52\n      jump\t// in\n    tag_57:\n      mload(0x40)\n      dup1\n      swap2\n      sub\n      swap1\n      log2\n        /* \"contracts/BancoDePuntosBasico.sol\":2336:2551  {... */\n      pop\n        /* \"contracts/BancoDePuntosBasico.sol\":2310:2551  function bonus() external {... */\n      jump\t// out\n        /* \"contracts/BancoDePuntosBasico.sol\":528:548  address public owner */\n    tag_27:\n      0x00\n      0x00\n      swap1\n      sload\n      swap1\n      0x0100\n      exp\n      swap1\n      div\n      0xffffffffffffffffffffffffffffffffffffffff\n      and\n      dup2\n      jump\t// out\n        /* \"contracts/BancoDePuntosBasico.sol\":555:584  uint256 public bloqueCreacion */\n    tag_31:\n      sload(0x01)\n      dup2\n      jump\t// out\n        /* \"contracts/BancoDePuntosBasico.sol\":3226:3348  function ultimaFechaOp(address usuario) external view returns (uint256) {... */\n    tag_35:\n        /* \"contracts/BancoDePuntosBasico.sol\":3289:3296  uint256 */\n      0x00\n        /* \"contracts/BancoDePuntosBasico.sol\":3316:3331  ultimaOperacion */\n      0x03\n        /* \"contracts/BancoDePuntosBasico.sol\":3316:3340  ultimaOperacion[usuario] */\n      0x00\n        /* \"contracts/BancoDePuntosBasico.sol\":3332:3339  usuario */\n      dup4\n        /* \"contracts/BancoDePuntosBasico.sol\":3316:3340  ultimaOperacion[usuario] */\n      0xffffffffffffffffffffffffffffffffffffffff\n      and\n      0xffffffffffffffffffffffffffffffffffffffff\n      and\n      dup2\n      mstore\n      0x20\n      add\n      swap1\n      dup2\n      mstore\n      0x20\n      add\n      0x00\n      keccak256\n      sload\n        /* \"contracts/BancoDePuntosBasico.sol\":3309:3340  return ultimaOperacion[usuario] */\n      swap1\n      pop\n        /* \"contracts/BancoDePuntosBasico.sol\":3226:3348  function ultimaFechaOp(address usuario) external view returns (uint256) {... */\n      swap2\n      swap1\n      pop\n      jump\t// out\n        /* \"contracts/BancoDePuntosBasico.sol\":1372:1702  function depositar(uint256 monto) external {... */\n    tag_40:\n        /* \"contracts/BancoDePuntosBasico.sol\":1442:1443  0 */\n      0x00\n        /* \"contracts/BancoDePuntosBasico.sol\":1434:1439  monto */\n      dup2\n        /* \"contracts/BancoDePuntosBasico.sol\":1434:1443  monto > 0 */\n      gt\n        /* \"contracts/BancoDePuntosBasico.sol\":1426:1466  require(monto > 0, \"monto debe ser > 0\") */\n      tag_60\n      jumpi\n      mload(0x40)\n      0x08c379a000000000000000000000000000000000000000000000000000000000\n      dup2\n      mstore\n      0x04\n      add\n      tag_61\n      swap1\n      tag_62\n      jump\t// in\n    tag_61:\n      mload(0x40)\n      dup1\n      swap2\n      sub\n      swap1\n      revert\n    tag_60:\n        /* \"contracts/BancoDePuntosBasico.sol\":1479:1497  uint256 nuevoSaldo */\n      0x00\n        /* \"contracts/BancoDePuntosBasico.sol\":1523:1528  monto */\n      dup2\n        /* \"contracts/BancoDePuntosBasico.sol\":1500:1508  balances */\n      0x02\n        /* \"contracts/BancoDePuntosBasico.sol\":1500:1520  balances[msg.sender] */\n      0x00\n        /* \"contracts/BancoDePuntosBasico.sol\":1509:1519  msg.sender */\n      caller\n        /* \"contracts/BancoDePuntosBasico.sol\":1500:1520  balances[msg.sender] */\n      0xffffffffffffffffffffffffffffffffffffffff\n      and\n      0xffffffffffffffffffffffffffffffffffffffff\n      and\n      dup2\n      mstore\n      0x20\n      add\n      swap1\n      dup2\n      mstore\n      0x20\n      add\n      0x00\n      keccak256\n      sload\n        /* \"contracts/BancoDePuntosBasico.sol\":1500:1528  balances[msg.sender] + monto */\n      tag_63\n      swap2\n      swap1\n      tag_56\n      jump\t// in\n    tag_63:\n        /* \"contracts/BancoDePuntosBasico.sol\":1479:1528  uint256 nuevoSaldo = balances[msg.sender] + monto */\n      swap1\n      pop\n        /* \"contracts/BancoDePuntosBasico.sol\":1562:1572  nuevoSaldo */\n      dup1\n        /* \"contracts/BancoDePuntosBasico.sol\":1539:1547  balances */\n      0x02\n        /* \"contracts/BancoDePuntosBasico.sol\":1539:1559  balances[msg.sender] */\n      0x00\n        /* \"contracts/BancoDePuntosBasico.sol\":1548:1558  msg.sender */\n      caller\n        /* \"contracts/BancoDePuntosBasico.sol\":1539:1559  balances[msg.sender] */\n      0xffffffffffffffffffffffffffffffffffffffff\n      and\n      0xffffffffffffffffffffffffffffffffffffffff\n      and\n      dup2\n      mstore\n      0x20\n      add\n      swap1\n      dup2\n      mstore\n      0x20\n      add\n      0x00\n      keccak256\n        /* \"contracts/BancoDePuntosBasico.sol\":1539:1572  balances[msg.sender] = nuevoSaldo */\n      dup2\n      swap1\n      sstore\n      pop\n        /* \"contracts/BancoDePuntosBasico.sol\":1615:1630  block.timestamp */\n      timestamp\n        /* \"contracts/BancoDePuntosBasico.sol\":1585:1600  ultimaOperacion */\n      0x03\n        /* \"contracts/BancoDePuntosBasico.sol\":1585:1612  ultimaOperacion[msg.sender] */\n      0x00\n        /* \"contracts/BancoDePuntosBasico.sol\":1601:1611  msg.sender */\n      caller\n        /* \"contracts/BancoDePuntosBasico.sol\":1585:1612  ultimaOperacion[msg.sender] */\n      0xffffffffffffffffffffffffffffffffffffffff\n      and\n      0xffffffffffffffffffffffffffffffffffffffff\n      and\n      dup2\n      mstore\n      0x20\n      add\n      swap1\n      dup2\n      mstore\n      0x20\n      add\n      0x00\n      keccak256\n        /* \"contracts/BancoDePuntosBasico.sol\":1585:1630  ultimaOperacion[msg.sender] = block.timestamp */\n      dup2\n      swap1\n      sstore\n      pop\n        /* \"contracts/BancoDePuntosBasico.sol\":1659:1669  msg.sender */\n      caller\n        /* \"contracts/BancoDePuntosBasico.sol\":1648:1694  Depositado(msg.sender, monto, block.timestamp) */\n      0xffffffffffffffffffffffffffffffffffffffff\n      and\n      0xea84ab1b96a4df052463c82c30614a8f1e466190b2cba7bf294b6fb8a77b9b20\n        /* \"contracts/BancoDePuntosBasico.sol\":1671:1676  monto */\n      dup4\n        /* \"contracts/BancoDePuntosBasico.sol\":1678:1693  block.timestamp */\n      timestamp\n        /* \"contracts/BancoDePuntosBasico.sol\":1648:1694  Depositado(msg.sender, monto, block.timestamp) */\n      mload(0x40)\n      tag_64\n      swap3\n      swap2\n      swap1\n      tag_52\n      jump\t// in\n    tag_64:\n      mload(0x40)\n      dup1\n      swap2\n      sub\n      swap1\n      log2\n        /* \"contracts/BancoDePuntosBasico.sol\":1415:1702  {... */\n      pop\n        /* \"contracts/BancoDePuntosBasico.sol\":1372:1702  function depositar(uint256 monto) external {... */\n      pop\n      jump\t// out\n        /* \"contracts/BancoDePuntosBasico.sol\":1791:2223  function retirar(uint256 monto) external {... */\n    tag_43:\n        /* \"contracts/BancoDePuntosBasico.sol\":1859:1860  0 */\n      0x00\n        /* \"contracts/BancoDePuntosBasico.sol\":1851:1856  monto */\n      dup2\n        /* \"contracts/BancoDePuntosBasico.sol\":1851:1860  monto > 0 */\n      gt\n        /* \"contracts/BancoDePuntosBasico.sol\":1843:1883  require(monto > 0, \"monto debe ser > 0\") */\n      tag_66\n      jumpi\n      mload(0x40)\n      0x08c379a000000000000000000000000000000000000000000000000000000000\n      dup2\n      mstore\n      0x04\n      add\n      tag_67\n      swap1\n      tag_62\n      jump\t// in\n    tag_67:\n      mload(0x40)\n      dup1\n      swap2\n      sub\n      swap1\n      revert\n    tag_66:\n        /* \"contracts/BancoDePuntosBasico.sol\":1896:1915  uint256 saldoPrevio */\n      0x00\n        /* \"contracts/BancoDePuntosBasico.sol\":1918:1926  balances */\n      0x02\n        /* \"contracts/BancoDePuntosBasico.sol\":1918:1938  balances[msg.sender] */\n      0x00\n        /* \"contracts/BancoDePuntosBasico.sol\":1927:1937  msg.sender */\n      caller\n        /* \"contracts/BancoDePuntosBasico.sol\":1918:1938  balances[msg.sender] */\n      0xffffffffffffffffffffffffffffffffffffffff\n      and\n      0xffffffffffffffffffffffffffffffffffffffff\n      and\n      dup2\n      mstore\n      0x20\n      add\n      swap1\n      dup2\n      mstore\n      0x20\n      add\n      0x00\n      keccak256\n      sload\n        /* \"contracts/BancoDePuntosBasico.sol\":1896:1938  uint256 saldoPrevio = balances[msg.sender] */\n      swap1\n      pop\n        /* \"contracts/BancoDePuntosBasico.sol\":1972:1977  monto */\n      dup2\n        /* \"contracts/BancoDePuntosBasico.sol\":1957:1968  saldoPrevio */\n      dup2\n        /* \"contracts/BancoDePuntosBasico.sol\":1957:1977  saldoPrevio >= monto */\n      lt\n      iszero\n        /* \"contracts/BancoDePuntosBasico.sol\":1949:2000  require(saldoPrevio >= monto, \"saldo insuficiente\") */\n      tag_68\n      jumpi\n      mload(0x40)\n      0x08c379a000000000000000000000000000000000000000000000000000000000\n      dup2\n      mstore\n      0x04\n      add\n      tag_69\n      swap1\n      tag_70\n      jump\t// in\n    tag_69:\n      mload(0x40)\n      dup1\n      swap2\n      sub\n      swap1\n      revert\n    tag_68:\n        /* \"contracts/BancoDePuntosBasico.sol\":2013:2031  uint256 nuevoSaldo */\n      0x00\n        /* \"contracts/BancoDePuntosBasico.sol\":2048:2053  monto */\n      dup3\n        /* \"contracts/BancoDePuntosBasico.sol\":2034:2045  saldoPrevio */\n      dup3\n        /* \"contracts/BancoDePuntosBasico.sol\":2034:2053  saldoPrevio - monto */\n      tag_71\n      swap2\n      swap1\n      tag_50\n      jump\t// in\n    tag_71:\n        /* \"contracts/BancoDePuntosBasico.sol\":2013:2053  uint256 nuevoSaldo = saldoPrevio - monto */\n      swap1\n      pop\n        /* \"contracts/BancoDePuntosBasico.sol\":2087:2097  nuevoSaldo */\n      dup1\n        /* \"contracts/BancoDePuntosBasico.sol\":2064:2072  balances */\n      0x02\n        /* \"contracts/BancoDePuntosBasico.sol\":2064:2084  balances[msg.sender] */\n      0x00\n        /* \"contracts/BancoDePuntosBasico.sol\":2073:2083  msg.sender */\n      caller\n        /* \"contracts/BancoDePuntosBasico.sol\":2064:2084  balances[msg.sender] */\n      0xffffffffffffffffffffffffffffffffffffffff\n      and\n      0xffffffffffffffffffffffffffffffffffffffff\n      and\n      dup2\n      mstore\n      0x20\n      add\n      swap1\n      dup2\n      mstore\n      0x20\n      add\n      0x00\n      keccak256\n        /* \"contracts/BancoDePuntosBasico.sol\":2064:2097  balances[msg.sender] = nuevoSaldo */\n      dup2\n      swap1\n      sstore\n      pop\n        /* \"contracts/BancoDePuntosBasico.sol\":2140:2155  block.timestamp */\n      timestamp\n        /* \"contracts/BancoDePuntosBasico.sol\":2110:2125  ultimaOperacion */\n      0x03\n        /* \"contracts/BancoDePuntosBasico.sol\":2110:2137  ultimaOperacion[msg.sender] */\n      0x00\n        /* \"contracts/BancoDePuntosBasico.sol\":2126:2136  msg.sender */\n      caller\n        /* \"contracts/BancoDePuntosBasico.sol\":2110:2137  ultimaOperacion[msg.sender] */\n      0xffffffffffffffffffffffffffffffffffffffff\n      and\n      0xffffffffffffffffffffffffffffffffffffffff\n      and\n      dup2\n      mstore\n      0x20\n      add\n      swap1\n      dup2\n      mstore\n      0x20\n      add\n      0x00\n      keccak256\n        /* \"contracts/BancoDePuntosBasico.sol\":2110:2155  ultimaOperacion[msg.sender] = block.timestamp */\n      dup2\n      swap1\n      sstore\n      pop\n        /* \"contracts/BancoDePuntosBasico.sol\":2180:2190  msg.sender */\n      caller\n        /* \"contracts/BancoDePuntosBasico.sol\":2171:2215  Retirado(msg.sender, monto, block.timestamp) */\n      0xffffffffffffffffffffffffffffffffffffffff\n      and\n      0xea4739a01bb01fe29fa71e248c4c05b41fa8dc1a1c62b9afe577470d1d2d2c27\n        /* \"contracts/BancoDePuntosBasico.sol\":2192:2197  monto */\n      dup5\n        /* \"contracts/BancoDePuntosBasico.sol\":2199:2214  block.timestamp */\n      timestamp\n        /* \"contracts/BancoDePuntosBasico.sol\":2171:2215  Retirado(msg.sender, monto, block.timestamp) */\n      mload(0x40)\n      tag_72\n      swap3\n      swap2\n      swap1\n      tag_52\n      jump\t// in\n    tag_72:\n      mload(0x40)\n      dup1\n      swap2\n      sub\n      swap1\n      log2\n        /* \"contracts/BancoDePuntosBasico.sol\":1832:2223  {... */\n      pop\n      pop\n        /* \"contracts/BancoDePuntosBasico.sol\":1791:2223  function retirar(uint256 monto) external {... */\n      pop\n      jump\t// out\n        /* \"#utility.yul\":7:84   */\n    tag_73:\n        /* \"#utility.yul\":44:51   */\n      0x00\n        /* \"#utility.yul\":73:78   */\n      dup2\n        /* \"#utility.yul\":62:78   */\n      swap1\n      pop\n        /* \"#utility.yul\":7:84   */\n      swap2\n      swap1\n      pop\n      jump\t// out\n        /* \"#utility.yul\":90:208   */\n    tag_74:\n        /* \"#utility.yul\":177:201   */\n      tag_96\n        /* \"#utility.yul\":195:200   */\n      dup2\n        /* \"#utility.yul\":177:201   */\n      tag_73\n      jump\t// in\n    tag_96:\n        /* \"#utility.yul\":172:175   */\n      dup3\n        /* \"#utility.yul\":165:202   */\n      mstore\n        /* \"#utility.yul\":90:208   */\n      pop\n      pop\n      jump\t// out\n        /* \"#utility.yul\":214:436   */\n    tag_16:\n        /* \"#utility.yul\":307:311   */\n      0x00\n        /* \"#utility.yul\":345:347   */\n      0x20\n        /* \"#utility.yul\":334:343   */\n      dup3\n        /* \"#utility.yul\":330:348   */\n      add\n        /* \"#utility.yul\":322:348   */\n      swap1\n      pop\n        /* \"#utility.yul\":358:429   */\n      tag_98\n        /* \"#utility.yul\":426:427   */\n      0x00\n        /* \"#utility.yul\":415:424   */\n      dup4\n        /* \"#utility.yul\":411:428   */\n      add\n        /* \"#utility.yul\":402:408   */\n      dup5\n        /* \"#utility.yul\":358:429   */\n      tag_74\n      jump\t// in\n    tag_98:\n        /* \"#utility.yul\":214:436   */\n      swap3\n      swap2\n      pop\n      pop\n      jump\t// out\n        /* \"#utility.yul\":523:640   */\n    tag_76:\n        /* \"#utility.yul\":632:633   */\n      0x00\n        /* \"#utility.yul\":629:630   */\n      0x00\n        /* \"#utility.yul\":622:634   */\n      revert\n        /* \"#utility.yul\":769:895   */\n    tag_78:\n        /* \"#utility.yul\":806:813   */\n      0x00\n        /* \"#utility.yul\":846:888   */\n      0xffffffffffffffffffffffffffffffffffffffff\n        /* \"#utility.yul\":839:844   */\n      dup3\n        /* \"#utility.yul\":835:889   */\n      and\n        /* \"#utility.yul\":824:889   */\n      swap1\n      pop\n        /* \"#utility.yul\":769:895   */\n      swap2\n      swap1\n      pop\n      jump\t// out\n        /* \"#utility.yul\":901:997   */\n    tag_79:\n        /* \"#utility.yul\":938:945   */\n      0x00\n        /* \"#utility.yul\":967:991   */\n      tag_104\n        /* \"#utility.yul\":985:990   */\n      dup3\n        /* \"#utility.yul\":967:991   */\n      tag_78\n      jump\t// in\n    tag_104:\n        /* \"#utility.yul\":956:991   */\n      swap1\n      pop\n        /* \"#utility.yul\":901:997   */\n      swap2\n      swap1\n      pop\n      jump\t// out\n        /* \"#utility.yul\":1003:1125   */\n    tag_80:\n        /* \"#utility.yul\":1076:1100   */\n      tag_106\n        /* \"#utility.yul\":1094:1099   */\n      dup2\n        /* \"#utility.yul\":1076:1100   */\n      tag_79\n      jump\t// in\n    tag_106:\n        /* \"#utility.yul\":1069:1074   */\n      dup2\n        /* \"#utility.yul\":1066:1101   */\n      eq\n        /* \"#utility.yul\":1056:1119   */\n      tag_107\n      jumpi\n        /* \"#utility.yul\":1115:1116   */\n      0x00\n        /* \"#utility.yul\":1112:1113   */\n      0x00\n        /* \"#utility.yul\":1105:1117   */\n      revert\n        /* \"#utility.yul\":1056:1119   */\n    tag_107:\n        /* \"#utility.yul\":1003:1125   */\n      pop\n      jump\t// out\n        /* \"#utility.yul\":1131:1270   */\n    tag_81:\n        /* \"#utility.yul\":1177:1182   */\n      0x00\n        /* \"#utility.yul\":1215:1221   */\n      dup2\n        /* \"#utility.yul\":1202:1222   */\n      calldataload\n        /* \"#utility.yul\":1193:1222   */\n      swap1\n      pop\n        /* \"#utility.yul\":1231:1264   */\n      tag_109\n        /* \"#utility.yul\":1258:1263   */\n      dup2\n        /* \"#utility.yul\":1231:1264   */\n      tag_80\n      jump\t// in\n    tag_109:\n        /* \"#utility.yul\":1131:1270   */\n      swap3\n      swap2\n      pop\n      pop\n      jump\t// out\n        /* \"#utility.yul\":1276:1605   */\n    tag_21:\n        /* \"#utility.yul\":1335:1341   */\n      0x00\n        /* \"#utility.yul\":1384:1386   */\n      0x20\n        /* \"#utility.yul\":1372:1381   */\n      dup3\n        /* \"#utility.yul\":1363:1370   */\n      dup5\n        /* \"#utility.yul\":1359:1382   */\n      sub\n        /* \"#utility.yul\":1355:1387   */\n      slt\n        /* \"#utility.yul\":1352:1471   */\n      iszero\n      tag_111\n      jumpi\n        /* \"#utility.yul\":1390:1469   */\n      tag_112\n      tag_76\n      jump\t// in\n    tag_112:\n        /* \"#utility.yul\":1352:1471   */\n    tag_111:\n        /* \"#utility.yul\":1510:1511   */\n      0x00\n        /* \"#utility.yul\":1535:1588   */\n      tag_113\n        /* \"#utility.yul\":1580:1587   */\n      dup5\n        /* \"#utility.yul\":1571:1577   */\n      dup3\n        /* \"#utility.yul\":1560:1569   */\n      dup6\n        /* \"#utility.yul\":1556:1578   */\n      add\n        /* \"#utility.yul\":1535:1588   */\n      tag_81\n      jump\t// in\n    tag_113:\n        /* \"#utility.yul\":1525:1588   */\n      swap2\n      pop\n        /* \"#utility.yul\":1481:1598   */\n      pop\n        /* \"#utility.yul\":1276:1605   */\n      swap3\n      swap2\n      pop\n      pop\n      jump\t// out\n        /* \"#utility.yul\":1611:1729   */\n    tag_82:\n        /* \"#utility.yul\":1698:1722   */\n      tag_115\n        /* \"#utility.yul\":1716:1721   */\n      dup2\n        /* \"#utility.yul\":1698:1722   */\n      tag_79\n      jump\t// in\n    tag_115:\n        /* \"#utility.yul\":1693:1696   */\n      dup3\n        /* \"#utility.yul\":1686:1723   */\n      mstore\n        /* \"#utility.yul\":1611:1729   */\n      pop\n      pop\n      jump\t// out\n        /* \"#utility.yul\":1735:1957   */\n    tag_29:\n        /* \"#utility.yul\":1828:1832   */\n      0x00\n        /* \"#utility.yul\":1866:1868   */\n      0x20\n        /* \"#utility.yul\":1855:1864   */\n      dup3\n        /* \"#utility.yul\":1851:1869   */\n      add\n        /* \"#utility.yul\":1843:1869   */\n      swap1\n      pop\n        /* \"#utility.yul\":1879:1950   */\n      tag_117\n        /* \"#utility.yul\":1947:1948   */\n      0x00\n        /* \"#utility.yul\":1936:1945   */\n      dup4\n        /* \"#utility.yul\":1932:1949   */\n      add\n        /* \"#utility.yul\":1923:1929   */\n      dup5\n        /* \"#utility.yul\":1879:1950   */\n      tag_82\n      jump\t// in\n    tag_117:\n        /* \"#utility.yul\":1735:1957   */\n      swap3\n      swap2\n      pop\n      pop\n      jump\t// out\n        /* \"#utility.yul\":1963:2085   */\n    tag_83:\n        /* \"#utility.yul\":2036:2060   */\n      tag_119\n        /* \"#utility.yul\":2054:2059   */\n      dup2\n        /* \"#utility.yul\":2036:2060   */\n      tag_73\n      jump\t// in\n    tag_119:\n        /* \"#utility.yul\":2029:2034   */\n      dup2\n        /* \"#utility.yul\":2026:2061   */\n      eq\n        /* \"#utility.yul\":2016:2079   */\n      tag_120\n      jumpi\n        /* \"#utility.yul\":2075:2076   */\n      0x00\n        /* \"#utility.yul\":2072:2073   */\n      0x00\n        /* \"#utility.yul\":2065:2077   */\n      revert\n        /* \"#utility.yul\":2016:2079   */\n    tag_120:\n        /* \"#utility.yul\":1963:2085   */\n      pop\n      jump\t// out\n        /* \"#utility.yul\":2091:2230   */\n    tag_84:\n        /* \"#utility.yul\":2137:2142   */\n      0x00\n        /* \"#utility.yul\":2175:2181   */\n      dup2\n        /* \"#utility.yul\":2162:2182   */\n      calldataload\n        /* \"#utility.yul\":2153:2182   */\n      swap1\n      pop\n        /* \"#utility.yul\":2191:2224   */\n      tag_122\n        /* \"#utility.yul\":2218:2223   */\n      dup2\n        /* \"#utility.yul\":2191:2224   */\n      tag_83\n      jump\t// in\n    tag_122:\n        /* \"#utility.yul\":2091:2230   */\n      swap3\n      swap2\n      pop\n      pop\n      jump\t// out\n        /* \"#utility.yul\":2236:2565   */\n    tag_39:\n        /* \"#utility.yul\":2295:2301   */\n      0x00\n        /* \"#utility.yul\":2344:2346   */\n      0x20\n        /* \"#utility.yul\":2332:2341   */\n      dup3\n        /* \"#utility.yul\":2323:2330   */\n      dup5\n        /* \"#utility.yul\":2319:2342   */\n      sub\n        /* \"#utility.yul\":2315:2347   */\n      slt\n        /* \"#utility.yul\":2312:2431   */\n      iszero\n      tag_124\n      jumpi\n        /* \"#utility.yul\":2350:2429   */\n      tag_125\n      tag_76\n      jump\t// in\n    tag_125:\n        /* \"#utility.yul\":2312:2431   */\n    tag_124:\n        /* \"#utility.yul\":2470:2471   */\n      0x00\n        /* \"#utility.yul\":2495:2548   */\n      tag_126\n        /* \"#utility.yul\":2540:2547   */\n      dup5\n        /* \"#utility.yul\":2531:2537   */\n      dup3\n        /* \"#utility.yul\":2520:2529   */\n      dup6\n        /* \"#utility.yul\":2516:2538   */\n      add\n        /* \"#utility.yul\":2495:2548   */\n      tag_84\n      jump\t// in\n    tag_126:\n        /* \"#utility.yul\":2485:2548   */\n      swap2\n      pop\n        /* \"#utility.yul\":2441:2558   */\n      pop\n        /* \"#utility.yul\":2236:2565   */\n      swap3\n      swap2\n      pop\n      pop\n      jump\t// out\n        /* \"#utility.yul\":2571:2740   */\n    tag_85:\n        /* \"#utility.yul\":2655:2666   */\n      0x00\n        /* \"#utility.yul\":2689:2695   */\n      dup3\n        /* \"#utility.yul\":2684:2687   */\n      dup3\n        /* \"#utility.yul\":2677:2696   */\n      mstore\n        /* \"#utility.yul\":2729:2733   */\n      0x20\n        /* \"#utility.yul\":2724:2727   */\n      dup3\n        /* \"#utility.yul\":2720:2734   */\n      add\n        /* \"#utility.yul\":2705:2734   */\n      swap1\n      pop\n        /* \"#utility.yul\":2571:2740   */\n      swap3\n      swap2\n      pop\n      pop\n      jump\t// out\n        /* \"#utility.yul\":2746:2969   */\n    tag_86:\n        /* \"#utility.yul\":2886:2920   */\n      0x73616c646f20696e737566696369656e746520706172612070656e616c697a61\n        /* \"#utility.yul\":2882:2883   */\n      0x00\n        /* \"#utility.yul\":2874:2880   */\n      dup3\n        /* \"#utility.yul\":2870:2884   */\n      add\n        /* \"#utility.yul\":2863:2921   */\n      mstore\n        /* \"#utility.yul\":2955:2961   */\n      0x63696f6e00000000000000000000000000000000000000000000000000000000\n        /* \"#utility.yul\":2950:2952   */\n      0x20\n        /* \"#utility.yul\":2942:2948   */\n      dup3\n        /* \"#utility.yul\":2938:2953   */\n      add\n        /* \"#utility.yul\":2931:2962   */\n      mstore\n        /* \"#utility.yul\":2746:2969   */\n      pop\n      jump\t// out\n        /* \"#utility.yul\":2975:3341   */\n    tag_87:\n        /* \"#utility.yul\":3117:3120   */\n      0x00\n        /* \"#utility.yul\":3138:3205   */\n      tag_130\n        /* \"#utility.yul\":3202:3204   */\n      0x24\n        /* \"#utility.yul\":3197:3200   */\n      dup4\n        /* \"#utility.yul\":3138:3205   */\n      tag_85\n      jump\t// in\n    tag_130:\n        /* \"#utility.yul\":3131:3205   */\n      swap2\n      pop\n        /* \"#utility.yul\":3214:3307   */\n      tag_131\n        /* \"#utility.yul\":3303:3306   */\n      dup3\n        /* \"#utility.yul\":3214:3307   */\n      tag_86\n      jump\t// in\n    tag_131:\n        /* \"#utility.yul\":3332:3334   */\n      0x40\n        /* \"#utility.yul\":3327:3330   */\n      dup3\n        /* \"#utility.yul\":3323:3335   */\n      add\n        /* \"#utility.yul\":3316:3335   */\n      swap1\n      pop\n        /* \"#utility.yul\":2975:3341   */\n      swap2\n      swap1\n      pop\n      jump\t// out\n        /* \"#utility.yul\":3347:3766   */\n    tag_48:\n        /* \"#utility.yul\":3513:3517   */\n      0x00\n        /* \"#utility.yul\":3551:3553   */\n      0x20\n        /* \"#utility.yul\":3540:3549   */\n      dup3\n        /* \"#utility.yul\":3536:3554   */\n      add\n        /* \"#utility.yul\":3528:3554   */\n      swap1\n      pop\n        /* \"#utility.yul\":3600:3609   */\n      dup2\n        /* \"#utility.yul\":3594:3598   */\n      dup2\n        /* \"#utility.yul\":3590:3610   */\n      sub\n        /* \"#utility.yul\":3586:3587   */\n      0x00\n        /* \"#utility.yul\":3575:3584   */\n      dup4\n        /* \"#utility.yul\":3571:3588   */\n      add\n        /* \"#utility.yul\":3564:3611   */\n      mstore\n        /* \"#utility.yul\":3628:3759   */\n      tag_133\n        /* \"#utility.yul\":3754:3758   */\n      dup2\n        /* \"#utility.yul\":3628:3759   */\n      tag_87\n      jump\t// in\n    tag_133:\n        /* \"#utility.yul\":3620:3759   */\n      swap1\n      pop\n        /* \"#utility.yul\":3347:3766   */\n      swap2\n      swap1\n      pop\n      jump\t// out\n        /* \"#utility.yul\":3772:3952   */\n    tag_88:\n        /* \"#utility.yul\":3820:3897   */\n      0x4e487b7100000000000000000000000000000000000000000000000000000000\n        /* \"#utility.yul\":3817:3818   */\n      0x00\n        /* \"#utility.yul\":3810:3898   */\n      mstore\n        /* \"#utility.yul\":3917:3921   */\n      0x11\n        /* \"#utility.yul\":3914:3915   */\n      0x04\n        /* \"#utility.yul\":3907:3922   */\n      mstore\n        /* \"#utility.yul\":3941:3945   */\n      0x24\n        /* \"#utility.yul\":3938:3939   */\n      0x00\n        /* \"#utility.yul\":3931:3946   */\n      revert\n        /* \"#utility.yul\":3958:4152   */\n    tag_50:\n        /* \"#utility.yul\":3998:4002   */\n      0x00\n        /* \"#utility.yul\":4018:4038   */\n      tag_136\n        /* \"#utility.yul\":4036:4037   */\n      dup3\n        /* \"#utility.yul\":4018:4038   */\n      tag_73\n      jump\t// in\n    tag_136:\n        /* \"#utility.yul\":4013:4038   */\n      swap2\n      pop\n        /* \"#utility.yul\":4052:4072   */\n      tag_137\n        /* \"#utility.yul\":4070:4071   */\n      dup4\n        /* \"#utility.yul\":4052:4072   */\n      tag_73\n      jump\t// in\n    tag_137:\n        /* \"#utility.yul\":4047:4072   */\n      swap3\n      pop\n        /* \"#utility.yul\":4096:4097   */\n      dup3\n        /* \"#utility.yul\":4093:4094   */\n      dup3\n        /* \"#utility.yul\":4089:4098   */\n      sub\n        /* \"#utility.yul\":4081:4098   */\n      swap1\n      pop\n        /* \"#utility.yul\":4120:4121   */\n      dup2\n        /* \"#utility.yul\":4114:4118   */\n      dup2\n        /* \"#utility.yul\":4111:4122   */\n      gt\n        /* \"#utility.yul\":4108:4145   */\n      iszero\n      tag_138\n      jumpi\n        /* \"#utility.yul\":4125:4143   */\n      tag_139\n      tag_88\n      jump\t// in\n    tag_139:\n        /* \"#utility.yul\":4108:4145   */\n    tag_138:\n        /* \"#utility.yul\":3958:4152   */\n      swap3\n      swap2\n      pop\n      pop\n      jump\t// out\n        /* \"#utility.yul\":4158:4490   */\n    tag_52:\n        /* \"#utility.yul\":4279:4283   */\n      0x00\n        /* \"#utility.yul\":4317:4319   */\n      0x40\n        /* \"#utility.yul\":4306:4315   */\n      dup3\n        /* \"#utility.yul\":4302:4320   */\n      add\n        /* \"#utility.yul\":4294:4320   */\n      swap1\n      pop\n        /* \"#utility.yul\":4330:4401   */\n      tag_141\n        /* \"#utility.yul\":4398:4399   */\n      0x00\n        /* \"#utility.yul\":4387:4396   */\n      dup4\n        /* \"#utility.yul\":4383:4400   */\n      add\n        /* \"#utility.yul\":4374:4380   */\n      dup6\n        /* \"#utility.yul\":4330:4401   */\n      tag_74\n      jump\t// in\n    tag_141:\n        /* \"#utility.yul\":4411:4483   */\n      tag_142\n        /* \"#utility.yul\":4479:4481   */\n      0x20\n        /* \"#utility.yul\":4468:4477   */\n      dup4\n        /* \"#utility.yul\":4464:4482   */\n      add\n        /* \"#utility.yul\":4455:4461   */\n      dup5\n        /* \"#utility.yul\":4411:4483   */\n      tag_74\n      jump\t// in\n    tag_142:\n        /* \"#utility.yul\":4158:4490   */\n      swap4\n      swap3\n      pop\n      pop\n      pop\n      jump\t// out\n        /* \"#utility.yul\":4496:4687   */\n    tag_56:\n        /* \"#utility.yul\":4536:4539   */\n      0x00\n        /* \"#utility.yul\":4555:4575   */\n      tag_144\n        /* \"#utility.yul\":4573:4574   */\n      dup3\n        /* \"#utility.yul\":4555:4575   */\n      tag_73\n      jump\t// in\n    tag_144:\n        /* \"#utility.yul\":4550:4575   */\n      swap2\n      pop\n        /* \"#utility.yul\":4589:4609   */\n      tag_145\n        /* \"#utility.yul\":4607:4608   */\n      dup4\n        /* \"#utility.yul\":4589:4609   */\n      tag_73\n      jump\t// in\n    tag_145:\n        /* \"#utility.yul\":4584:4609   */\n      swap3\n      pop\n        /* \"#utility.yul\":4632:4633   */\n      dup3\n        /* \"#utility.yul\":4629:4630   */\n      dup3\n        /* \"#utility.yul\":4625:4634   */\n      add\n        /* \"#utility.yul\":4618:4634   */\n      swap1\n      pop\n        /* \"#utility.yul\":4653:4656   */\n      dup1\n        /* \"#utility.yul\":4650:4651   */\n      dup3\n        /* \"#utility.yul\":4647:4657   */\n      gt\n        /* \"#utility.yul\":4644:4680   */\n      iszero\n      tag_146\n      jumpi\n        /* \"#utility.yul\":4660:4678   */\n      tag_147\n      tag_88\n      jump\t// in\n    tag_147:\n        /* \"#utility.yul\":4644:4680   */\n    tag_146:\n        /* \"#utility.yul\":4496:4687   */\n      swap3\n      swap2\n      pop\n      pop\n      jump\t// out\n        /* \"#utility.yul\":4693:4861   */\n    tag_89:\n        /* \"#utility.yul\":4833:4853   */\n      0x6d6f6e746f206465626520736572203e20300000000000000000000000000000\n        /* \"#utility.yul\":4829:4830   */\n      0x00\n        /* \"#utility.yul\":4821:4827   */\n      dup3\n        /* \"#utility.yul\":4817:4831   */\n      add\n        /* \"#utility.yul\":4810:4854   */\n      mstore\n        /* \"#utility.yul\":4693:4861   */\n      pop\n      jump\t// out\n        /* \"#utility.yul\":4867:5233   */\n    tag_90:\n        /* \"#utility.yul\":5009:5012   */\n      0x00\n        /* \"#utility.yul\":5030:5097   */\n      tag_150\n        /* \"#utility.yul\":5094:5096   */\n      0x12\n        /* \"#utility.yul\":5089:5092   */\n      dup4\n        /* \"#utility.yul\":5030:5097   */\n      tag_85\n      jump\t// in\n    tag_150:\n        /* \"#utility.yul\":5023:5097   */\n      swap2\n      pop\n        /* \"#utility.yul\":5106:5199   */\n      tag_151\n        /* \"#utility.yul\":5195:5198   */\n      dup3\n        /* \"#utility.yul\":5106:5199   */\n      tag_89\n      jump\t// in\n    tag_151:\n        /* \"#utility.yul\":5224:5226   */\n      0x20\n        /* \"#utility.yul\":5219:5222   */\n      dup3\n        /* \"#utility.yul\":5215:5227   */\n      add\n        /* \"#utility.yul\":5208:5227   */\n      swap1\n      pop\n        /* \"#utility.yul\":4867:5233   */\n      swap2\n      swap1\n      pop\n      jump\t// out\n        /* \"#utility.yul\":5239:5658   */\n    tag_62:\n        /* \"#utility.yul\":5405:5409   */\n      0x00\n        /* \"#utility.yul\":5443:5445   */\n      0x20\n        /* \"#utility.yul\":5432:5441   */\n      dup3\n        /* \"#utility.yul\":5428:5446   */\n      add\n        /* \"#utility.yul\":5420:5446   */\n      swap1\n      pop\n        /* \"#utility.yul\":5492:5501   */\n      dup2\n        /* \"#utility.yul\":5486:5490   */\n      dup2\n        /* \"#utility.yul\":5482:5502   */\n      sub\n        /* \"#utility.yul\":5478:5479   */\n      0x00\n        /* \"#utility.yul\":5467:5476   */\n      dup4\n        /* \"#utility.yul\":5463:5480   */\n      add\n        /* \"#utility.yul\":5456:5503   */\n      mstore\n        /* \"#utility.yul\":5520:5651   */\n      tag_153\n        /* \"#utility.yul\":5646:5650   */\n      dup2\n        /* \"#utility.yul\":5520:5651   */\n      tag_90\n      jump\t// in\n    tag_153:\n        /* \"#utility.yul\":5512:5651   */\n      swap1\n      pop\n        /* \"#utility.yul\":5239:5658   */\n      swap2\n      swap1\n      pop\n      jump\t// out\n        /* \"#utility.yul\":5664:5832   */\n    tag_91:\n        /* \"#utility.yul\":5804:5824   */\n      0x73616c646f20696e737566696369656e74650000000000000000000000000000\n        /* \"#utility.yul\":5800:5801   */\n      0x00\n        /* \"#utility.yul\":5792:5798   */\n      dup3\n        /* \"#utility.yul\":5788:5802   */\n      add\n        /* \"#utility.yul\":5781:5825   */\n      mstore\n        /* \"#utility.yul\":5664:5832   */\n      pop\n      jump\t// out\n        /* \"#utility.yul\":5838:6204   */\n    tag_92:\n        /* \"#utility.yul\":5980:5983   */\n      0x00\n        /* \"#utility.yul\":6001:6068   */\n      tag_156\n        /* \"#utility.yul\":6065:6067   */\n      0x12\n        /* \"#utility.yul\":6060:6063   */\n      dup4\n        /* \"#utility.yul\":6001:6068   */\n      tag_85\n      jump\t// in\n    tag_156:\n        /* \"#utility.yul\":5994:6068   */\n      swap2\n      pop\n        /* \"#utility.yul\":6077:6170   */\n      tag_157\n        /* \"#utility.yul\":6166:6169   */\n      dup3\n        /* \"#utility.yul\":6077:6170   */\n      tag_91\n      jump\t// in\n    tag_157:\n        /* \"#utility.yul\":6195:6197   */\n      0x20\n        /* \"#utility.yul\":6190:6193   */\n      dup3\n        /* \"#utility.yul\":6186:6198   */\n      add\n        /* \"#utility.yul\":6179:6198   */\n      swap1\n      pop\n        /* \"#utility.yul\":5838:6204   */\n      swap2\n      swap1\n      pop\n      jump\t// out\n        /* \"#utility.yul\":6210:6629   */\n    tag_70:\n        /* \"#utility.yul\":6376:6380   */\n      0x00\n        /* \"#utility.yul\":6414:6416   */\n      0x20\n        /* \"#utility.yul\":6403:6412   */\n      dup3\n        /* \"#utility.yul\":6399:6417   */\n      add\n        /* \"#utility.yul\":6391:6417   */\n      swap1\n      pop\n        /* \"#utility.yul\":6463:6472   */\n      dup2\n        /* \"#utility.yul\":6457:6461   */\n      dup2\n        /* \"#utility.yul\":6453:6473   */\n      sub\n        /* \"#utility.yul\":6449:6450   */\n      0x00\n        /* \"#utility.yul\":6438:6447   */\n      dup4\n        /* \"#utility.yul\":6434:6451   */\n      add\n        /* \"#utility.yul\":6427:6474   */\n      mstore\n        /* \"#utility.yul\":6491:6622   */\n      tag_159\n        /* \"#utility.yul\":6617:6621   */\n      dup2\n        /* \"#utility.yul\":6491:6622   */\n      tag_92\n      jump\t// in\n    tag_159:\n        /* \"#utility.yul\":6483:6622   */\n      swap1\n      pop\n        /* \"#utility.yul\":6210:6629   */\n      swap2\n      swap1\n      pop\n      jump\t// out\n\n    auxdata: 0xa2646970667358221220b126c91a54cb5a4dfe3cfe7343e4e7e7eb5df97c9854d0e8686c6c74be1cc64a64736f6c634300081e0033\n}\n",
				"bytecode": {
					"linkReferences": {},
					"object": "6080604052348015600e575f5ffd5b50335f5f6101000a81548173ffffffffffffffffffffffffffffffffffffffff021916908373ffffffffffffffffffffffffffffffffffffffff16021790555043600181905550610b5c806100625f395ff3fe608060405234801561000f575f5ffd5b5060043610610091575f3560e01c80638da5cb5b116100645780638da5cb5b146100f7578063bc50f38914610115578063c53b628e14610133578063d5ca622814610163578063e8b1298f1461017f57610091565b806301d3e58014610095578063226d07b6146100b35780636baf38ca146100bd57806375b4d78c146100ed575b5f5ffd5b61009d61019b565b6040516100aa91906107df565b60405180910390f35b6100bb6101a4565b005b6100d760048036038101906100d29190610856565b610310565b6040516100e491906107df565b60405180910390f35b6100f5610356565b005b6100ff610443565b60405161010c9190610890565b60405180910390f35b61011d610467565b60405161012a91906107df565b60405180910390f35b61014d60048036038101906101489190610856565b61046d565b60405161015a91906107df565b60405180910390f35b61017d600480360381019061017891906108d3565b6104b3565b005b610199600480360381019061019491906108d3565b610619565b005b5f600154905090565b5f601490505f60025f3373ffffffffffffffffffffffffffffffffffffffff1673ffffffffffffffffffffffffffffffffffffffff1681526020019081526020015f205490508181101561022d576040517f08c379a00000000000000000000000000000000000000000000000000000000081526004016102249061097e565b60405180910390fd5b818161023991906109c9565b60025f3373ffffffffffffffffffffffffffffffffffffffff1673ffffffffffffffffffffffffffffffffffffffff1681526020019081526020015f20819055504260035f3373ffffffffffffffffffffffffffffffffffffffff1673ffffffffffffffffffffffffffffffffffffffff1681526020019081526020015f20819055503373ffffffffffffffffffffffffffffffffffffffff167fa149a0eb7c3069c88c3ad8bb0c69c063163678ab805ff088f377e2eed5b65e1283426040516103049291906109fc565b60405180910390a25050565b5f60025f8373ffffffffffffffffffffffffffffffffffffffff1673ffffffffffffffffffffffffffffffffffffffff1681526020019081526020015f20549050919050565b5f601490508060025f3373ffffffffffffffffffffffffffffffffffffffff1673ffffffffffffffffffffffffffffffffffffffff1681526020019081526020015f205f8282546103a79190610a23565b925050819055504260035f3373ffffffffffffffffffffffffffffffffffffffff1673ffffffffffffffffffffffffffffffffffffffff1681526020019081526020015f20819055503373ffffffffffffffffffffffffffffffffffffffff167ffbc2cd1261639cd6e5507854332535089a6d779811754542bd97913eb360d8fb82426040516104389291906109fc565b60405180910390a250565b5f5f9054906101000a900473ffffffffffffffffffffffffffffffffffffffff1681565b60015481565b5f60035f8373ffffffffffffffffffffffffffffffffffffffff1673ffffffffffffffffffffffffffffffffffffffff1681526020019081526020015f20549050919050565b5f81116104f5576040517f08c379a00000000000000000000000000000000000000000000000000000000081526004016104ec90610aa0565b60405180910390fd5b5f8160025f3373ffffffffffffffffffffffffffffffffffffffff1673ffffffffffffffffffffffffffffffffffffffff1681526020019081526020015f205461053f9190610a23565b90508060025f3373ffffffffffffffffffffffffffffffffffffffff1673ffffffffffffffffffffffffffffffffffffffff1681526020019081526020015f20819055504260035f3373ffffffffffffffffffffffffffffffffffffffff1673ffffffffffffffffffffffffffffffffffffffff1681526020019081526020015f20819055503373ffffffffffffffffffffffffffffffffffffffff167fea84ab1b96a4df052463c82c30614a8f1e466190b2cba7bf294b6fb8a77b9b20834260405161060d9291906109fc565b60405180910390a25050565b5f811161065b576040517f08c379a000000000000000000000000000000000000000000000000000000000815260040161065290610aa0565b60405180910390fd5b5f60025f3373ffffffffffffffffffffffffffffffffffffffff1673ffffffffffffffffffffffffffffffffffffffff1681526020019081526020015f20549050818110156106df576040517f08c379a00000000000000000000000000000000000000000000000000000000081526004016106d690610b08565b60405180910390fd5b5f82826106ec91906109c9565b90508060025f3373ffffffffffffffffffffffffffffffffffffffff1673ffffffffffffffffffffffffffffffffffffffff1681526020019081526020015f20819055504260035f3373ffffffffffffffffffffffffffffffffffffffff1673ffffffffffffffffffffffffffffffffffffffff1681526020019081526020015f20819055503373ffffffffffffffffffffffffffffffffffffffff167fea4739a01bb01fe29fa71e248c4c05b41fa8dc1a1c62b9afe577470d1d2d2c2784426040516107ba9291906109fc565b60405180910390a2505050565b5f819050919050565b6107d9816107c7565b82525050565b5f6020820190506107f25f8301846107d0565b92915050565b5f5ffd5b5f73ffffffffffffffffffffffffffffffffffffffff82169050919050565b5f610825826107fc565b9050919050565b6108358161081b565b811461083f575f5ffd5b50565b5f813590506108508161082c565b92915050565b5f6020828403121561086b5761086a6107f8565b5b5f61087884828501610842565b91505092915050565b61088a8161081b565b82525050565b5f6020820190506108a35f830184610881565b92915050565b6108b2816107c7565b81146108bc575f5ffd5b50565b5f813590506108cd816108a9565b92915050565b5f602082840312156108e8576108e76107f8565b5b5f6108f5848285016108bf565b91505092915050565b5f82825260208201905092915050565b7f73616c646f20696e737566696369656e746520706172612070656e616c697a615f8201527f63696f6e00000000000000000000000000000000000000000000000000000000602082015250565b5f6109686024836108fe565b91506109738261090e565b604082019050919050565b5f6020820190508181035f8301526109958161095c565b9050919050565b7f4e487b71000000000000000000000000000000000000000000000000000000005f52601160045260245ffd5b5f6109d3826107c7565b91506109de836107c7565b92508282039050818111156109f6576109f561099c565b5b92915050565b5f604082019050610a0f5f8301856107d0565b610a1c60208301846107d0565b9392505050565b5f610a2d826107c7565b9150610a38836107c7565b9250828201905080821115610a5057610a4f61099c565b5b92915050565b7f6d6f6e746f206465626520736572203e203000000000000000000000000000005f82015250565b5f610a8a6012836108fe565b9150610a9582610a56565b602082019050919050565b5f6020820190508181035f830152610ab781610a7e565b9050919050565b7f73616c646f20696e737566696369656e746500000000000000000000000000005f82015250565b5f610af26012836108fe565b9150610afd82610abe565b602082019050919050565b5f6020820190508181035f830152610b1f81610ae6565b905091905056fea2646970667358221220b126c91a54cb5a4dfe3cfe7343e4e7e7eb5df97c9854d0e8686c6c74be1cc64a64736f6c634300081e0033",
					"opcodes": "PUSH1 0x80 PUSH1 0x40 MSTORE CALLVALUE DUP1 ISZERO PUSH1 0xE JUMPI PUSH0 PUSH0 REVERT JUMPDEST POP CALLER PUSH0 PUSH0 PUSH2 0x100 EXP DUP2 SLOAD DUP2 PUSH20 0xFFFFFFFFFFFFFFFFFFFFFFFFFFFFFFFFFFFFFFFF MUL NOT AND SWAP1 DUP4 PUSH20 0xFFFFFFFFFFFFFFFFFFFFFFFFFFFFFFFFFFFFFFFF AND MUL OR SWAP1 SSTORE POP NUMBER PUSH1 0x1 DUP2 SWAP1 SSTORE POP PUSH2 0xB5C DUP1 PUSH2 0x62 PUSH0 CODECOPY PUSH0 RETURN INVALID PUSH1 0x80 PUSH1 0x40 MSTORE CALLVALUE DUP1 ISZERO PUSH2 0xF JUMPI PUSH0 PUSH0 REVERT JUMPDEST POP PUSH1 0x4 CALLDATASIZE LT PUSH2 0x91 JUMPI PUSH0 CALLDATALOAD PUSH1 0xE0 SHR DUP1 PUSH4 0x8DA5CB5B GT PUSH2 0x64 JUMPI DUP1 PUSH4 0x8DA5CB5B EQ PUSH2 0xF7 JUMPI DUP1 PUSH4 0xBC50F389 EQ PUSH2 0x115 JUMPI DUP1 PUSH4 0xC53B628E EQ PUSH2 0x133 JUMPI DUP1 PUSH4 0xD5CA6228 EQ PUSH2 0x163 JUMPI DUP1 PUSH4 0xE8B1298F EQ PUSH2 0x17F JUMPI PUSH2 0x91 JUMP JUMPDEST DUP1 PUSH4 0x1D3E580 EQ PUSH2 0x95 JUMPI DUP1 PUSH4 0x226D07B6 EQ PUSH2 0xB3 JUMPI DUP1 PUSH4 0x6BAF38CA EQ PUSH2 0xBD JUMPI DUP1 PUSH4 0x75B4D78C EQ PUSH2 0xED JUMPI JUMPDEST PUSH0 PUSH0 REVERT JUMPDEST PUSH2 0x9D PUSH2 0x19B JUMP JUMPDEST PUSH1 0x40 MLOAD PUSH2 0xAA SWAP2 SWAP1 PUSH2 0x7DF JUMP JUMPDEST PUSH1 0x40 MLOAD DUP1 SWAP2 SUB SWAP1 RETURN JUMPDEST PUSH2 0xBB PUSH2 0x1A4 JUMP JUMPDEST STOP JUMPDEST PUSH2 0xD7 PUSH1 0x4 DUP1 CALLDATASIZE SUB DUP2 ADD SWAP1 PUSH2 0xD2 SWAP2 SWAP1 PUSH2 0x856 JUMP JUMPDEST PUSH2 0x310 JUMP JUMPDEST PUSH1 0x40 MLOAD PUSH2 0xE4 SWAP2 SWAP1 PUSH2 0x7DF JUMP JUMPDEST PUSH1 0x40 MLOAD DUP1 SWAP2 SUB SWAP1 RETURN JUMPDEST PUSH2 0xF5 PUSH2 0x356 JUMP JUMPDEST STOP JUMPDEST PUSH2 0xFF PUSH2 0x443 JUMP JUMPDEST PUSH1 0x40 MLOAD PUSH2 0x10C SWAP2 SWAP1 PUSH2 0x890 JUMP JUMPDEST PUSH1 0x40 MLOAD DUP1 SWAP2 SUB SWAP1 RETURN JUMPDEST PUSH2 0x11D PUSH2 0x467 JUMP JUMPDEST PUSH1 0x40 MLOAD PUSH2 0x12A SWAP2 SWAP1 PUSH2 0x7DF JUMP JUMPDEST PUSH1 0x40 MLOAD DUP1 SWAP2 SUB SWAP1 RETURN JUMPDEST PUSH2 0x14D PUSH1 0x4 DUP1 CALLDATASIZE SUB DUP2 ADD SWAP1 PUSH2 0x148 SWAP2 SWAP1 PUSH2 0x856 JUMP JUMPDEST PUSH2 0x46D JUMP JUMPDEST PUSH1 0x40 MLOAD PUSH2 0x15A SWAP2 SWAP1 PUSH2 0x7DF JUMP JUMPDEST PUSH1 0x40 MLOAD DUP1 SWAP2 SUB SWAP1 RETURN JUMPDEST PUSH2 0x17D PUSH1 0x4 DUP1 CALLDATASIZE SUB DUP2 ADD SWAP1 PUSH2 0x178 SWAP2 SWAP1 PUSH2 0x8D3 JUMP JUMPDEST PUSH2 0x4B3 JUMP JUMPDEST STOP JUMPDEST PUSH2 0x199 PUSH1 0x4 DUP1 CALLDATASIZE SUB DUP2 ADD SWAP1 PUSH2 0x194 SWAP2 SWAP1 PUSH2 0x8D3 JUMP JUMPDEST PUSH2 0x619 JUMP JUMPDEST STOP JUMPDEST PUSH0 PUSH1 0x1 SLOAD SWAP1 POP SWAP1 JUMP JUMPDEST PUSH0 PUSH1 0x14 SWAP1 POP PUSH0 PUSH1 0x2 PUSH0 CALLER PUSH20 0xFFFFFFFFFFFFFFFFFFFFFFFFFFFFFFFFFFFFFFFF AND PUSH20 0xFFFFFFFFFFFFFFFFFFFFFFFFFFFFFFFFFFFFFFFF AND DUP2 MSTORE PUSH1 0x20 ADD SWAP1 DUP2 MSTORE PUSH1 0x20 ADD PUSH0 KECCAK256 SLOAD SWAP1 POP DUP2 DUP2 LT ISZERO PUSH2 0x22D JUMPI PUSH1 0x40 MLOAD PUSH32 0x8C379A000000000000000000000000000000000000000000000000000000000 DUP2 MSTORE PUSH1 0x4 ADD PUSH2 0x224 SWAP1 PUSH2 0x97E JUMP JUMPDEST PUSH1 0x40 MLOAD DUP1 SWAP2 SUB SWAP1 REVERT JUMPDEST DUP2 DUP2 PUSH2 0x239 SWAP2 SWAP1 PUSH2 0x9C9 JUMP JUMPDEST PUSH1 0x2 PUSH0 CALLER PUSH20 0xFFFFFFFFFFFFFFFFFFFFFFFFFFFFFFFFFFFFFFFF AND PUSH20 0xFFFFFFFFFFFFFFFFFFFFFFFFFFFFFFFFFFFFFFFF AND DUP2 MSTORE PUSH1 0x20 ADD SWAP1 DUP2 MSTORE PUSH1 0x20 ADD PUSH0 KECCAK256 DUP2 SWAP1 SSTORE POP TIMESTAMP PUSH1 0x3 PUSH0 CALLER PUSH20 0xFFFFFFFFFFFFFFFFFFFFFFFFFFFFFFFFFFFFFFFF AND PUSH20 0xFFFFFFFFFFFFFFFFFFFFFFFFFFFFFFFFFFFFFFFF AND DUP2 MSTORE PUSH1 0x20 ADD SWAP1 DUP2 MSTORE PUSH1 0x20 ADD PUSH0 KECCAK256 DUP2 SWAP1 SSTORE POP CALLER PUSH20 0xFFFFFFFFFFFFFFFFFFFFFFFFFFFFFFFFFFFFFFFF AND PUSH32 0xA149A0EB7C3069C88C3AD8BB0C69C063163678AB805FF088F377E2EED5B65E12 DUP4 TIMESTAMP PUSH1 0x40 MLOAD PUSH2 0x304 SWAP3 SWAP2 SWAP1 PUSH2 0x9FC JUMP JUMPDEST PUSH1 0x40 MLOAD DUP1 SWAP2 SUB SWAP1 LOG2 POP POP JUMP JUMPDEST PUSH0 PUSH1 0x2 PUSH0 DUP4 PUSH20 0xFFFFFFFFFFFFFFFFFFFFFFFFFFFFFFFFFFFFFFFF AND PUSH20 0xFFFFFFFFFFFFFFFFFFFFFFFFFFFFFFFFFFFFFFFF AND DUP2 MSTORE PUSH1 0x20 ADD SWAP1 DUP2 MSTORE PUSH1 0x20 ADD PUSH0 KECCAK256 SLOAD SWAP1 POP SWAP2 SWAP1 POP JUMP JUMPDEST PUSH0 PUSH1 0x14 SWAP1 POP DUP1 PUSH1 0x2 PUSH0 CALLER PUSH20 0xFFFFFFFFFFFFFFFFFFFFFFFFFFFFFFFFFFFFFFFF AND PUSH20 0xFFFFFFFFFFFFFFFFFFFFFFFFFFFFFFFFFFFFFFFF AND DUP2 MSTORE PUSH1 0x20 ADD SWAP1 DUP2 MSTORE PUSH1 0x20 ADD PUSH0 KECCAK256 PUSH0 DUP3 DUP3 SLOAD PUSH2 0x3A7 SWAP2 SWAP1 PUSH2 0xA23 JUMP JUMPDEST SWAP3 POP POP DUP2 SWAP1 SSTORE POP TIMESTAMP PUSH1 0x3 PUSH0 CALLER PUSH20 0xFFFFFFFFFFFFFFFFFFFFFFFFFFFFFFFFFFFFFFFF AND PUSH20 0xFFFFFFFFFFFFFFFFFFFFFFFFFFFFFFFFFFFFFFFF AND DUP2 MSTORE PUSH1 0x20 ADD SWAP1 DUP2 MSTORE PUSH1 0x20 ADD PUSH0 KECCAK256 DUP2 SWAP1 SSTORE POP CALLER PUSH20 0xFFFFFFFFFFFFFFFFFFFFFFFFFFFFFFFFFFFFFFFF AND PUSH32 0xFBC2CD1261639CD6E5507854332535089A6D779811754542BD97913EB360D8FB DUP3 TIMESTAMP PUSH1 0x40 MLOAD PUSH2 0x438 SWAP3 SWAP2 SWAP1 PUSH2 0x9FC JUMP JUMPDEST PUSH1 0x40 MLOAD DUP1 SWAP2 SUB SWAP1 LOG2 POP JUMP JUMPDEST PUSH0 PUSH0 SWAP1 SLOAD SWAP1 PUSH2 0x100 EXP SWAP1 DIV PUSH20 0xFFFFFFFFFFFFFFFFFFFFFFFFFFFFFFFFFFFFFFFF AND DUP2 JUMP JUMPDEST PUSH1 0x1 SLOAD DUP2 JUMP JUMPDEST PUSH0 PUSH1 0x3 PUSH0 DUP4 PUSH20 0xFFFFFFFFFFFFFFFFFFFFFFFFFFFFFFFFFFFFFFFF AND PUSH20 0xFFFFFFFFFFFFFFFFFFFFFFFFFFFFFFFFFFFFFFFF AND DUP2 MSTORE PUSH1 0x20 ADD SWAP1 DUP2 MSTORE PUSH1 0x20 ADD PUSH0 KECCAK256 SLOAD SWAP1 POP SWAP2 SWAP1 POP JUMP JUMPDEST PUSH0 DUP2 GT PUSH2 0x4F5 JUMPI PUSH1 0x40 MLOAD PUSH32 0x8C379A000000000000000000000000000000000000000000000000000000000 DUP2 MSTORE PUSH1 0x4 ADD PUSH2 0x4EC SWAP1 PUSH2 0xAA0 JUMP JUMPDEST PUSH1 0x40 MLOAD DUP1 SWAP2 SUB SWAP1 REVERT JUMPDEST PUSH0 DUP2 PUSH1 0x2 PUSH0 CALLER PUSH20 0xFFFFFFFFFFFFFFFFFFFFFFFFFFFFFFFFFFFFFFFF AND PUSH20 0xFFFFFFFFFFFFFFFFFFFFFFFFFFFFFFFFFFFFFFFF AND DUP2 MSTORE PUSH1 0x20 ADD SWAP1 DUP2 MSTORE PUSH1 0x20 ADD PUSH0 KECCAK256 SLOAD PUSH2 0x53F SWAP2 SWAP1 PUSH2 0xA23 JUMP JUMPDEST SWAP1 POP DUP1 PUSH1 0x2 PUSH0 CALLER PUSH20 0xFFFFFFFFFFFFFFFFFFFFFFFFFFFFFFFFFFFFFFFF AND PUSH20 0xFFFFFFFFFFFFFFFFFFFFFFFFFFFFFFFFFFFFFFFF AND DUP2 MSTORE PUSH1 0x20 ADD SWAP1 DUP2 MSTORE PUSH1 0x20 ADD PUSH0 KECCAK256 DUP2 SWAP1 SSTORE POP TIMESTAMP PUSH1 0x3 PUSH0 CALLER PUSH20 0xFFFFFFFFFFFFFFFFFFFFFFFFFFFFFFFFFFFFFFFF AND PUSH20 0xFFFFFFFFFFFFFFFFFFFFFFFFFFFFFFFFFFFFFFFF AND DUP2 MSTORE PUSH1 0x20 ADD SWAP1 DUP2 MSTORE PUSH1 0x20 ADD PUSH0 KECCAK256 DUP2 SWAP1 SSTORE POP CALLER PUSH20 0xFFFFFFFFFFFFFFFFFFFFFFFFFFFFFFFFFFFFFFFF AND PUSH32 0xEA84AB1B96A4DF052463C82C30614A8F1E466190B2CBA7BF294B6FB8A77B9B20 DUP4 TIMESTAMP PUSH1 0x40 MLOAD PUSH2 0x60D SWAP3 SWAP2 SWAP1 PUSH2 0x9FC JUMP JUMPDEST PUSH1 0x40 MLOAD DUP1 SWAP2 SUB SWAP1 LOG2 POP POP JUMP JUMPDEST PUSH0 DUP2 GT PUSH2 0x65B JUMPI PUSH1 0x40 MLOAD PUSH32 0x8C379A000000000000000000000000000000000000000000000000000000000 DUP2 MSTORE PUSH1 0x4 ADD PUSH2 0x652 SWAP1 PUSH2 0xAA0 JUMP JUMPDEST PUSH1 0x40 MLOAD DUP1 SWAP2 SUB SWAP1 REVERT JUMPDEST PUSH0 PUSH1 0x2 PUSH0 CALLER PUSH20 0xFFFFFFFFFFFFFFFFFFFFFFFFFFFFFFFFFFFFFFFF AND PUSH20 0xFFFFFFFFFFFFFFFFFFFFFFFFFFFFFFFFFFFFFFFF AND DUP2 MSTORE PUSH1 0x20 ADD SWAP1 DUP2 MSTORE PUSH1 0x20 ADD PUSH0 KECCAK256 SLOAD SWAP1 POP DUP2 DUP2 LT ISZERO PUSH2 0x6DF JUMPI PUSH1 0x40 MLOAD PUSH32 0x8C379A000000000000000000000000000000000000000000000000000000000 DUP2 MSTORE PUSH1 0x4 ADD PUSH2 0x6D6 SWAP1 PUSH2 0xB08 JUMP JUMPDEST PUSH1 0x40 MLOAD DUP1 SWAP2 SUB SWAP1 REVERT JUMPDEST PUSH0 DUP3 DUP3 PUSH2 0x6EC SWAP2 SWAP1 PUSH2 0x9C9 JUMP JUMPDEST SWAP1 POP DUP1 PUSH1 0x2 PUSH0 CALLER PUSH20 0xFFFFFFFFFFFFFFFFFFFFFFFFFFFFFFFFFFFFFFFF AND PUSH20 0xFFFFFFFFFFFFFFFFFFFFFFFFFFFFFFFFFFFFFFFF AND DUP2 MSTORE PUSH1 0x20 ADD SWAP1 DUP2 MSTORE PUSH1 0x20 ADD PUSH0 KECCAK256 DUP2 SWAP1 SSTORE POP TIMESTAMP PUSH1 0x3 PUSH0 CALLER PUSH20 0xFFFFFFFFFFFFFFFFFFFFFFFFFFFFFFFFFFFFFFFF AND PUSH20 0xFFFFFFFFFFFFFFFFFFFFFFFFFFFFFFFFFFFFFFFF AND DUP2 MSTORE PUSH1 0x20 ADD SWAP1 DUP2 MSTORE PUSH1 0x20 ADD PUSH0 KECCAK256 DUP2 SWAP1 SSTORE POP CALLER PUSH20 0xFFFFFFFFFFFFFFFFFFFFFFFFFFFFFFFFFFFFFFFF AND PUSH32 0xEA4739A01BB01FE29FA71E248C4C05B41FA8DC1A1C62B9AFE577470D1D2D2C27 DUP5 TIMESTAMP PUSH1 0x40 MLOAD PUSH2 0x7BA SWAP3 SWAP2 SWAP1 PUSH2 0x9FC JUMP JUMPDEST PUSH1 0x40 MLOAD DUP1 SWAP2 SUB SWAP1 LOG2 POP POP POP JUMP JUMPDEST PUSH0 DUP2 SWAP1 POP SWAP2 SWAP1 POP JUMP JUMPDEST PUSH2 0x7D9 DUP2 PUSH2 0x7C7 JUMP JUMPDEST DUP3 MSTORE POP POP JUMP JUMPDEST PUSH0 PUSH1 0x20 DUP3 ADD SWAP1 POP PUSH2 0x7F2 PUSH0 DUP4 ADD DUP5 PUSH2 0x7D0 JUMP JUMPDEST SWAP3 SWAP2 POP POP JUMP JUMPDEST PUSH0 PUSH0 REVERT JUMPDEST PUSH0 PUSH20 0xFFFFFFFFFFFFFFFFFFFFFFFFFFFFFFFFFFFFFFFF DUP3 AND SWAP1 POP SWAP2 SWAP1 POP JUMP JUMPDEST PUSH0 PUSH2 0x825 DUP3 PUSH2 0x7FC JUMP JUMPDEST SWAP1 POP SWAP2 SWAP1 POP JUMP JUMPDEST PUSH2 0x835 DUP2 PUSH2 0x81B JUMP JUMPDEST DUP2 EQ PUSH2 0x83F JUMPI PUSH0 PUSH0 REVERT JUMPDEST POP JUMP JUMPDEST PUSH0 DUP2 CALLDATALOAD SWAP1 POP PUSH2 0x850 DUP2 PUSH2 0x82C JUMP JUMPDEST SWAP3 SWAP2 POP POP JUMP JUMPDEST PUSH0 PUSH1 0x20 DUP3 DUP5 SUB SLT ISZERO PUSH2 0x86B JUMPI PUSH2 0x86A PUSH2 0x7F8 JUMP JUMPDEST JUMPDEST PUSH0 PUSH2 0x878 DUP5 DUP3 DUP6 ADD PUSH2 0x842 JUMP JUMPDEST SWAP2 POP POP SWAP3 SWAP2 POP POP JUMP JUMPDEST PUSH2 0x88A DUP2 PUSH2 0x81B JUMP JUMPDEST DUP3 MSTORE POP POP JUMP JUMPDEST PUSH0 PUSH1 0x20 DUP3 ADD SWAP1 POP PUSH2 0x8A3 PUSH0 DUP4 ADD DUP5 PUSH2 0x881 JUMP JUMPDEST SWAP3 SWAP2 POP POP JUMP JUMPDEST PUSH2 0x8B2 DUP2 PUSH2 0x7C7 JUMP JUMPDEST DUP2 EQ PUSH2 0x8BC JUMPI PUSH0 PUSH0 REVERT JUMPDEST POP JUMP JUMPDEST PUSH0 DUP2 CALLDATALOAD SWAP1 POP PUSH2 0x8CD DUP2 PUSH2 0x8A9 JUMP JUMPDEST SWAP3 SWAP2 POP POP JUMP JUMPDEST PUSH0 PUSH1 0x20 DUP3 DUP5 SUB SLT ISZERO PUSH2 0x8E8 JUMPI PUSH2 0x8E7 PUSH2 0x7F8 JUMP JUMPDEST JUMPDEST PUSH0 PUSH2 0x8F5 DUP5 DUP3 DUP6 ADD PUSH2 0x8BF JUMP JUMPDEST SWAP2 POP POP SWAP3 SWAP2 POP POP JUMP JUMPDEST PUSH0 DUP3 DUP3 MSTORE PUSH1 0x20 DUP3 ADD SWAP1 POP SWAP3 SWAP2 POP POP JUMP JUMPDEST PUSH32 0x73616C646F20696E737566696369656E746520706172612070656E616C697A61 PUSH0 DUP3 ADD MSTORE PUSH32 0x63696F6E00000000000000000000000000000000000000000000000000000000 PUSH1 0x20 DUP3 ADD MSTORE POP JUMP JUMPDEST PUSH0 PUSH2 0x968 PUSH1 0x24 DUP4 PUSH2 0x8FE JUMP JUMPDEST SWAP2 POP PUSH2 0x973 DUP3 PUSH2 0x90E JUMP JUMPDEST PUSH1 0x40 DUP3 ADD SWAP1 POP SWAP2 SWAP1 POP JUMP JUMPDEST PUSH0 PUSH1 0x20 DUP3 ADD SWAP1 POP DUP2 DUP2 SUB PUSH0 DUP4 ADD MSTORE PUSH2 0x995 DUP2 PUSH2 0x95C JUMP JUMPDEST SWAP1 POP SWAP2 SWAP1 POP JUMP JUMPDEST PUSH32 0x4E487B7100000000000000000000000000000000000000000000000000000000 PUSH0 MSTORE PUSH1 0x11 PUSH1 0x4 MSTORE PUSH1 0x24 PUSH0 REVERT JUMPDEST PUSH0 PUSH2 0x9D3 DUP3 PUSH2 0x7C7 JUMP JUMPDEST SWAP2 POP PUSH2 0x9DE DUP4 PUSH2 0x7C7 JUMP JUMPDEST SWAP3 POP DUP3 DUP3 SUB SWAP1 POP DUP2 DUP2 GT ISZERO PUSH2 0x9F6 JUMPI PUSH2 0x9F5 PUSH2 0x99C JUMP JUMPDEST JUMPDEST SWAP3 SWAP2 POP POP JUMP JUMPDEST PUSH0 PUSH1 0x40 DUP3 ADD SWAP1 POP PUSH2 0xA0F PUSH0 DUP4 ADD DUP6 PUSH2 0x7D0 JUMP JUMPDEST PUSH2 0xA1C PUSH1 0x20 DUP4 ADD DUP5 PUSH2 0x7D0 JUMP JUMPDEST SWAP4 SWAP3 POP POP POP JUMP JUMPDEST PUSH0 PUSH2 0xA2D DUP3 PUSH2 0x7C7 JUMP JUMPDEST SWAP2 POP PUSH2 0xA38 DUP4 PUSH2 0x7C7 JUMP JUMPDEST SWAP3 POP DUP3 DUP3 ADD SWAP1 POP DUP1 DUP3 GT ISZERO PUSH2 0xA50 JUMPI PUSH2 0xA4F PUSH2 0x99C JUMP JUMPDEST JUMPDEST SWAP3 SWAP2 POP POP JUMP JUMPDEST PUSH32 0x6D6F6E746F206465626520736572203E20300000000000000000000000000000 PUSH0 DUP3 ADD MSTORE POP JUMP JUMPDEST PUSH0 PUSH2 0xA8A PUSH1 0x12 DUP4 PUSH2 0x8FE JUMP JUMPDEST SWAP2 POP PUSH2 0xA95 DUP3 PUSH2 0xA56 JUMP JUMPDEST PUSH1 0x20 DUP3 ADD SWAP1 POP SWAP2 SWAP1 POP JUMP JUMPDEST PUSH0 PUSH1 0x20 DUP3 ADD SWAP1 POP DUP2 DUP2 SUB PUSH0 DUP4 ADD MSTORE PUSH2 0xAB7 DUP2 PUSH2 0xA7E JUMP JUMPDEST SWAP1 POP SWAP2 SWAP1 POP JUMP JUMPDEST PUSH32 0x73616C646F20696E737566696369656E74650000000000000000000000000000 PUSH0 DUP3 ADD MSTORE POP JUMP JUMPDEST PUSH0 PUSH2 0xAF2 PUSH1 0x12 DUP4 PUSH2 0x8FE JUMP JUMPDEST SWAP2 POP PUSH2 0xAFD DUP3 PUSH2 0xABE JUMP JUMPDEST PUSH1 0x20 DUP3 ADD SWAP1 POP SWAP2 SWAP1 POP JUMP JUMPDEST PUSH0 PUSH1 0x20 DUP3 ADD SWAP1 POP DUP2 DUP2 SUB PUSH0 DUP4 ADD MSTORE PUSH2 0xB1F DUP2 PUSH2 0xAE6 JUMP JUMPDEST SWAP1 POP SWAP2 SWAP1 POP JUMP INVALID LOG2 PUSH5 0x6970667358 0x22 SLT KECCAK256 0xB1 0x26 0xC9 BYTE SLOAD 0xCB GAS 0x4D INVALID EXTCODECOPY INVALID PUSH20 0x43E4E7E7EB5DF97C9854D0E8686C6C74BE1CC64A PUSH5 0x736F6C6343 STOP ADDMOD 0x1E STOP CALLER "
				},
				"gasEstimates": {
					"creation": {
						"codeDepositCost": "581600",
						"executionCost": "46988",
						"totalCost": "628588"
					},
					"external": {
						"bloqueCreacion()": "2447",
						"bloqueDeCreacion()": "2433",
						"bonus()": "infinite",
						"depositar(uint256)": "infinite",
						"owner()": "2507",
						"penalizacion()": "infinite",
						"retirar(uint256)": "infinite",
						"saldoDe(address)": "2874",
						"ultimaFechaOp(address)": "2873"
					}
				},
				"methodIdentifiers": {
					"bloqueCreacion()": "bc50f389",
					"bloqueDeCreacion()": "01d3e580",
					"bonus()": "75b4d78c",
					"depositar(uint256)": "d5ca6228",
					"owner()": "8da5cb5b",
					"penalizacion()": "226d07b6",
					"retirar(uint256)": "e8b1298f",
					"saldoDe(address)": "6baf38ca",
					"ultimaFechaOp(address)": "c53b628e"
				}
			},
			"storageLayout": {
				"storage": [
					{
						"astId": 4,
						"contract": "contracts/BancoDePuntosBasico.sol:BancoDePuntosBasico",
						"label": "owner",
						"offset": 0,
						"slot": "0",
						"type": "t_address"
					},
					{
						"astId": 6,
						"contract": "contracts/BancoDePuntosBasico.sol:BancoDePuntosBasico",
						"label": "bloqueCreacion",
						"offset": 0,
						"slot": "1",
						"type": "t_uint256"
					},
					{
						"astId": 10,
						"contract": "contracts/BancoDePuntosBasico.sol:BancoDePuntosBasico",
						"label": "balances",
						"offset": 0,
						"slot": "2",
						"type": "t_mapping(t_address,t_uint256)"
					},
					{
						"astId": 14,
						"contract": "contracts/BancoDePuntosBasico.sol:BancoDePuntosBasico",
						"label": "ultimaOperacion",
						"offset": 0,
						"slot": "3",
						"type": "t_mapping(t_address,t_uint256)"
					}
				],
				"types": {
					"t_address": {
						"encoding": "inplace",
						"label": "address",
						"numberOfBytes": "20"
					},
					"t_mapping(t_address,t_uint256)": {
						"encoding": "mapping",
						"key": "t_address",
						"label": "mapping(address => uint256)",
						"numberOfBytes": "32",
						"value": "t_uint256"
					},
					"t_uint256": {
						"encoding": "inplace",
						"label": "uint256",
						"numberOfBytes": "32"
					}
				}
			},
			"userdoc": {
				"kind": "user",
				"methods": {
					"bonus()": {
						"notice": "Otorga un bono fijo de 20 unidades al usuario que lo ejecuta."
					},
					"depositar(uint256)": {
						"notice": "Suma puntos al saldo del remitente."
					},
					"penalizacion()": {
						"notice": "Aplica una penalización fija de 20 unidades al usuario que lo ejecuta."
					},
					"retirar(uint256)": {
						"notice": "Resta puntos del saldo del remitente si hay fondos suficientes."
					}
				},
				"version": 1
			}
		}
	}
}