{
	"contracts/GestorDeTareas.sol": {
		"GestorDeTareas": {
			"abi": [
				{
					"anonymous": false,
					"inputs": [
						{
							"indexed": true,
							"internalType": "uint256",
							"name": "idx",
							"type": "uint256"
						},
						{
							"indexed": false,
							"internalType": "enum GestorDeTareas.Estado",
							"name": "nuevo",
							"type": "uint8"
						}
					],
					"name": "EstadoCambiado",
					"type": "event"
				},
				{
					"anonymous": false,
					"inputs": [
						{
							"indexed": true,
							"internalType": "uint256",
							"name": "idx",
							"type": "uint256"
						},
						{
							"indexed": false,
							"internalType": "string",
							"name": "tag",
							"type": "string"
						}
					],
					"name": "EtiquetaAgregada",
					"type": "event"
				},
				{
					"anonymous": false,
					"inputs": [
						{
							"indexed": true,
							"internalType": "uint256",
							"name": "idx",
							"type": "uint256"
						},
						{
							"indexed": false,
							"internalType": "uint256",
							"name": "cantidad",
							"type": "uint256"
						}
					],
					"name": "ResponsablesAsignados",
					"type": "event"
				},
				{
					"anonymous": false,
					"inputs": [
						{
							"indexed": true,
							"internalType": "uint256",
							"name": "idx",
							"type": "uint256"
						},
						{
							"indexed": false,
							"internalType": "uint256",
							"name": "id",
							"type": "uint256"
						},
						{
							"indexed": false,
							"internalType": "string",
							"name": "titulo",
							"type": "string"
						},
						{
							"indexed": false,
							"internalType": "enum GestorDeTareas.Prioridad",
							"name": "prio",
							"type": "uint8"
						}
					],
					"name": "TareaCreada",
					"type": "event"
				},
				{
					"inputs": [
						{
							"internalType": "uint256",
							"name": "idx",
							"type": "uint256"
						},
						{
							"internalType": "string",
							"name": "tag",
							"type": "string"
						}
					],
					"name": "agregarEtiqueta",
					"outputs": [],
					"stateMutability": "nonpayable",
					"type": "function"
				},
				{
					"inputs": [
						{
							"internalType": "uint256",
							"name": "idx",
							"type": "uint256"
						},
						{
							"internalType": "address[]",
							"name": "rs",
							"type": "address[]"
						}
					],
					"name": "asignarResponsables",
					"outputs": [],
					"stateMutability": "nonpayable",
					"type": "function"
				},
				{
					"inputs": [
						{
							"internalType": "uint256",
							"name": "idx",
							"type": "uint256"
						}
					],
					"name": "borrar",
					"outputs": [],
					"stateMutability": "nonpayable",
					"type": "function"
				},
				{
					"inputs": [
						{
							"internalType": "uint256",
							"name": "idx",
							"type": "uint256"
						},
						{
							"internalType": "enum GestorDeTareas.Estado",
							"name": "nuevo",
							"type": "uint8"
						}
					],
					"name": "cambiarEstado",
					"outputs": [],
					"stateMutability": "nonpayable",
					"type": "function"
				},
				{
					"inputs": [
						{
							"internalType": "string",
							"name": "titulo",
							"type": "string"
						},
						{
							"internalType": "enum GestorDeTareas.Prioridad",
							"name": "prio",
							"type": "uint8"
						}
					],
					"name": "crearTarea",
					"outputs": [
						{
							"internalType": "uint256",
							"name": "idx",
							"type": "uint256"
						}
					],
					"stateMutability": "nonpayable",
					"type": "function"
				},
				{
					"inputs": [],
					"name": "eliminarUltima",
					"outputs": [],
					"stateMutability": "nonpayable",
					"type": "function"
				},
				{
					"inputs": [
						{
							"internalType": "uint256",
							"name": "idx",
							"type": "uint256"
						}
					],
					"name": "etiquetasDe",
					"outputs": [
						{
							"internalType": "string[]",
							"name": "",
							"type": "string[]"
						}
					],
					"stateMutability": "view",
					"type": "function"
				},
				{
					"inputs": [],
					"name": "getTop3",
					"outputs": [
						{
							"internalType": "uint256[3]",
							"name": "",
							"type": "uint256[3]"
						}
					],
					"stateMutability": "view",
					"type": "function"
				},
				{
					"inputs": [
						{
							"internalType": "enum GestorDeTareas.Estado",
							"name": "e",
							"type": "uint8"
						}
					],
					"name": "listarIdsPorEstado",
					"outputs": [
						{
							"internalType": "uint256[]",
							"name": "",
							"type": "uint256[]"
						}
					],
					"stateMutability": "view",
					"type": "function"
				},
				{
					"inputs": [
						{
							"internalType": "uint256",
							"name": "idx",
							"type": "uint256"
						}
					],
					"name": "responsablesDe",
					"outputs": [
						{
							"internalType": "address[]",
							"name": "",
							"type": "address[]"
						}
					],
					"stateMutability": "view",
					"type": "function"
				},
				{
					"inputs": [
						{
							"internalType": "uint256[3]",
							"name": "nuevos",
							"type": "uint256[3]"
						}
					],
					"name": "setTop3",
					"outputs": [],
					"stateMutability": "nonpayable",
					"type": "function"
				},
				{
					"inputs": [
						{
							"internalType": "uint256",
							"name": "",
							"type": "uint256"
						}
					],
					"name": "tareas",
					"outputs": [
						{
							"internalType": "uint256",
							"name": "id",
							"type": "uint256"
						},
						{
							"internalType": "string",
							"name": "titulo",
							"type": "string"
						},
						{
							"internalType": "enum GestorDeTareas.Prioridad",
							"name": "prioridad",
							"type": "uint8"
						},
						{
							"internalType": "enum GestorDeTareas.Estado",
							"name": "estado",
							"type": "uint8"
						},
						{
							"internalType": "address",
							"name": "creador",
							"type": "address"
						}
					],
					"stateMutability": "view",
					"type": "function"
				},
				{
					"inputs": [
						{
							"internalType": "uint256",
							"name": "",
							"type": "uint256"
						}
					],
					"name": "top3",
					"outputs": [
						{
							"internalType": "uint256",
							"name": "",
							"type": "uint256"
						}
					],
					"stateMutability": "view",
					"type": "function"
				},
				{
					"inputs": [],
					"name": "totalTareas",
					"outputs": [
						{
							"internalType": "uint256",
							"name": "",
							"type": "uint256"
						}
					],
					"stateMutability": "view",
					"type": "function"
				},
				{
					"inputs": [
						{
							"internalType": "uint256",
							"name": "idx",
							"type": "uint256"
						}
					],
					"name": "verTarea",
					"outputs": [
						{
							"internalType": "uint256",
							"name": "id",
							"type": "uint256"
						},
						{
							"internalType": "string",
							"name": "titulo",
							"type": "string"
						},
						{
							"internalType": "enum GestorDeTareas.Prioridad",
							"name": "prio",
							"type": "uint8"
						},
						{
							"internalType": "enum GestorDeTareas.Estado",
							"name": "estado",
							"type": "uint8"
						},
						{
							"internalType": "address",
							"name": "creador",
							"type": "address"
						},
						{
							"internalType": "uint256",
							"name": "responsablesCount",
							"type": "uint256"
						},
						{
							"internalType": "uint256",
							"name": "etiquetasCount",
							"type": "uint256"
						}
					],
					"stateMutability": "view",
					"type": "function"
				}
			],
			"devdoc": {
				"kind": "dev",
				"methods": {},
				"title": "GestorDeTareas - Demo de structs, enums y arrays",
				"version": 1
			},
			"evm": {
				"assembly": "    /* \"contracts/GestorDeTareas.sol\":122:4797  contract GestorDeTareas {... */\n  mstore(0x40, 0x80)\n    /* \"contracts/GestorDeTareas.sol\":857:858  1 */\n  0x01\n    /* \"contracts/GestorDeTareas.sol\":832:858  uint256 private nextId = 1 */\n  0x04\n  sstore\n    /* \"contracts/GestorDeTareas.sol\":122:4797  contract GestorDeTareas {... */\n  callvalue\n  dup1\n  iszero\n  tag_1\n  jumpi\n  revert(0x00, 0x00)\ntag_1:\n  pop\n  dataSize(sub_0)\n  dup1\n  dataOffset(sub_0)\n  0x00\n  codecopy\n  0x00\n  return\nstop\n\nsub_0: assembly {\n        /* \"contracts/GestorDeTareas.sol\":122:4797  contract GestorDeTareas {... */\n      mstore(0x40, 0x80)\n      callvalue\n      dup1\n      iszero\n      tag_1\n      jumpi\n      revert(0x00, 0x00)\n    tag_1:\n      pop\n      jumpi(tag_2, lt(calldatasize, 0x04))\n      shr(0xe0, calldataload(0x00))\n      dup1\n      0x68015829\n      gt\n      tag_18\n      jumpi\n      dup1\n      0xc9bf5b15\n      gt\n      tag_19\n      jumpi\n      dup1\n      0xc9bf5b15\n      eq\n      tag_14\n      jumpi\n      dup1\n      0xd65c4d25\n      eq\n      tag_15\n      jumpi\n      dup1\n      0xda7acaf6\n      eq\n      tag_16\n      jumpi\n      dup1\n      0xebf90187\n      eq\n      tag_17\n      jumpi\n      jump(tag_2)\n    tag_19:\n      dup1\n      0x68015829\n      eq\n      tag_10\n      jumpi\n      dup1\n      0x792ce98f\n      eq\n      tag_11\n      jumpi\n      dup1\n      0x9eb2a09e\n      eq\n      tag_12\n      jumpi\n      dup1\n      0xaff66e21\n      eq\n      tag_13\n      jumpi\n      jump(tag_2)\n    tag_18:\n      dup1\n      0x46a8ec51\n      gt\n      tag_20\n      jumpi\n      dup1\n      0x46a8ec51\n      eq\n      tag_6\n      jumpi\n      dup1\n      0x52154ba9\n      eq\n      tag_7\n      jumpi\n      dup1\n      0x53439cac\n      eq\n      tag_8\n      jumpi\n      dup1\n      0x5cc12424\n      eq\n      tag_9\n      jumpi\n      jump(tag_2)\n    tag_20:\n      dup1\n      0x2b44869b\n      eq\n      tag_3\n      jumpi\n      dup1\n      0x352cba35\n      eq\n      tag_4\n      jumpi\n      dup1\n      0x4061a5bf\n      eq\n      tag_5\n      jumpi\n    tag_2:\n      revert(0x00, 0x00)\n        /* \"contracts/GestorDeTareas.sol\":2665:3217  function listarIdsPorEstado(Estado e) external view returns (uint[] memory) {... */\n    tag_3:\n      tag_21\n      0x04\n      dup1\n      calldatasize\n      sub\n      dup2\n      add\n      swap1\n      tag_22\n      swap2\n      swap1\n      tag_23\n      jump\t// in\n    tag_22:\n      tag_24\n      jump\t// in\n    tag_21:\n      mload(0x40)\n      tag_25\n      swap2\n      swap1\n      tag_26\n      jump\t// in\n    tag_25:\n      mload(0x40)\n      dup1\n      swap2\n      sub\n      swap1\n      return\n        /* \"contracts/GestorDeTareas.sol\":1795:1993  function cambiarEstado(uint idx, Estado nuevo) external {... */\n    tag_4:\n      tag_27\n      0x04\n      dup1\n      calldatasize\n      sub\n      dup2\n      add\n      swap1\n      tag_28\n      swap2\n      swap1\n      tag_29\n      jump\t// in\n    tag_28:\n      tag_30\n      jump\t// in\n    tag_27:\n      stop\n        /* \"contracts/GestorDeTareas.sol\":3375:3463  function getTop3() external view returns (uint[3] memory) {... */\n    tag_5:\n      tag_31\n      tag_32\n      jump\t// in\n    tag_31:\n      mload(0x40)\n      tag_33\n      swap2\n      swap1\n      tag_34\n      jump\t// in\n    tag_33:\n      mload(0x40)\n      dup1\n      swap2\n      sub\n      swap1\n      return\n        /* \"contracts/GestorDeTareas.sol\":3495:3634  function eliminarUltima() external {... */\n    tag_6:\n      tag_35\n      tag_36\n      jump\t// in\n    tag_35:\n      stop\n        /* \"contracts/GestorDeTareas.sol\":682:703  Tarea[] public tareas */\n    tag_7:\n      tag_37\n      0x04\n      dup1\n      calldatasize\n      sub\n      dup2\n      add\n      swap1\n      tag_38\n      swap2\n      swap1\n      tag_39\n      jump\t// in\n    tag_38:\n      tag_40\n      jump\t// in\n    tag_37:\n      mload(0x40)\n      tag_41\n      swap6\n      swap5\n      swap4\n      swap3\n      swap2\n      swap1\n      tag_42\n      jump\t// in\n    tag_41:\n      mload(0x40)\n      dup1\n      swap2\n      sub\n      swap1\n      return\n        /* \"contracts/GestorDeTareas.sol\":3257:3369  function setTop3(uint[3] calldata nuevos) external {... */\n    tag_8:\n      tag_43\n      0x04\n      dup1\n      calldatasize\n      sub\n      dup2\n      add\n      swap1\n      tag_44\n      swap2\n      swap1\n      tag_45\n      jump\t// in\n    tag_44:\n      tag_46\n      jump\t// in\n    tag_43:\n      stop\n        /* \"contracts/GestorDeTareas.sol\":4522:4695  function etiquetasDe(uint idx) external view returns (string[] memory) {... */\n    tag_9:\n      tag_47\n      0x04\n      dup1\n      calldatasize\n      sub\n      dup2\n      add\n      swap1\n      tag_48\n      swap2\n      swap1\n      tag_39\n      jump\t// in\n    tag_48:\n      tag_49\n      jump\t// in\n    tag_47:\n      mload(0x40)\n      tag_50\n      swap2\n      swap1\n      tag_51\n      jump\t// in\n    tag_50:\n      mload(0x40)\n      dup1\n      swap2\n      sub\n      swap1\n      return\n        /* \"contracts/GestorDeTareas.sol\":3867:4326  function verTarea(uint idx) external view returns (... */\n    tag_10:\n      tag_52\n      0x04\n      dup1\n      calldatasize\n      sub\n      dup2\n      add\n      swap1\n      tag_53\n      swap2\n      swap1\n      tag_39\n      jump\t// in\n    tag_53:\n      tag_54\n      jump\t// in\n    tag_52:\n      mload(0x40)\n      tag_55\n      swap8\n      swap7\n      swap6\n      swap5\n      swap4\n      swap3\n      swap2\n      swap1\n      tag_56\n      jump\t// in\n    tag_55:\n      mload(0x40)\n      dup1\n      swap2\n      sub\n      swap1\n      return\n        /* \"contracts/GestorDeTareas.sol\":2365:2577  function agregarEtiqueta(uint idx, string calldata tag) external {... */\n    tag_11:\n      tag_57\n      0x04\n      dup1\n      calldatasize\n      sub\n      dup2\n      add\n      swap1\n      tag_58\n      swap2\n      swap1\n      tag_59\n      jump\t// in\n    tag_58:\n      tag_60\n      jump\t// in\n    tag_57:\n      stop\n        /* \"contracts/GestorDeTareas.sol\":4703:4794  function totalTareas() external view returns (uint) {... */\n    tag_12:\n      tag_61\n      tag_62\n      jump\t// in\n    tag_61:\n      mload(0x40)\n      tag_63\n      swap2\n      swap1\n      tag_64\n      jump\t// in\n    tag_63:\n      mload(0x40)\n      dup1\n      swap2\n      sub\n      swap1\n      return\n        /* \"contracts/GestorDeTareas.sol\":2053:2314  function asignarResponsables(uint idx, address[] calldata rs) external {... */\n    tag_13:\n      tag_65\n      0x04\n      dup1\n      calldatasize\n      sub\n      dup2\n      add\n      swap1\n      tag_66\n      swap2\n      swap1\n      tag_67\n      jump\t// in\n    tag_66:\n      tag_68\n      jump\t// in\n    tag_65:\n      stop\n        /* \"contracts/GestorDeTareas.sol\":749:768  uint[3] public top3 */\n    tag_14:\n      tag_69\n      0x04\n      dup1\n      calldatasize\n      sub\n      dup2\n      add\n      swap1\n      tag_70\n      swap2\n      swap1\n      tag_39\n      jump\t// in\n    tag_70:\n      tag_71\n      jump\t// in\n    tag_69:\n      mload(0x40)\n      tag_72\n      swap2\n      swap1\n      tag_64\n      jump\t// in\n    tag_72:\n      mload(0x40)\n      dup1\n      swap2\n      sub\n      swap1\n      return\n        /* \"contracts/GestorDeTareas.sol\":4334:4514  function responsablesDe(uint idx) external view returns (address[] memory) {... */\n    tag_15:\n      tag_73\n      0x04\n      dup1\n      calldatasize\n      sub\n      dup2\n      add\n      swap1\n      tag_74\n      swap2\n      swap1\n      tag_39\n      jump\t// in\n    tag_74:\n      tag_75\n      jump\t// in\n    tag_73:\n      mload(0x40)\n      tag_76\n      swap2\n      swap1\n      tag_77\n      jump\t// in\n    tag_76:\n      mload(0x40)\n      dup1\n      swap2\n      sub\n      swap1\n      return\n        /* \"contracts/GestorDeTareas.sol\":1252:1750  function crearTarea(string calldata titulo, Prioridad prio) external returns (uint idx) {... */\n    tag_16:\n      tag_78\n      0x04\n      dup1\n      calldatasize\n      sub\n      dup2\n      add\n      swap1\n      tag_79\n      swap2\n      swap1\n      tag_80\n      jump\t// in\n    tag_79:\n      tag_81\n      jump\t// in\n    tag_78:\n      mload(0x40)\n      tag_82\n      swap2\n      swap1\n      tag_64\n      jump\t// in\n    tag_82:\n      mload(0x40)\n      dup1\n      swap2\n      sub\n      swap1\n      return\n        /* \"contracts/GestorDeTareas.sol\":3640:3811  function borrar(uint idx) external {... */\n    tag_17:\n      tag_83\n      0x04\n      dup1\n      calldatasize\n      sub\n      dup2\n      add\n      swap1\n      tag_84\n      swap2\n      swap1\n      tag_39\n      jump\t// in\n    tag_84:\n      tag_85\n      jump\t// in\n    tag_83:\n      stop\n        /* \"contracts/GestorDeTareas.sol\":2665:3217  function listarIdsPorEstado(Estado e) external view returns (uint[] memory) {... */\n    tag_24:\n        /* \"contracts/GestorDeTareas.sol\":2726:2739  uint[] memory */\n      0x60\n        /* \"contracts/GestorDeTareas.sol\":2787:2793  uint n */\n      0x00\n        /* \"contracts/GestorDeTareas.sol\":2796:2797  0 */\n      0x00\n        /* \"contracts/GestorDeTareas.sol\":2787:2797  uint n = 0 */\n      swap1\n      pop\n        /* \"contracts/GestorDeTareas.sol\":2813:2819  uint i */\n      0x00\n        /* \"contracts/GestorDeTareas.sol\":2822:2823  0 */\n      0x00\n        /* \"contracts/GestorDeTareas.sol\":2813:2823  uint i = 0 */\n      swap1\n      pop\n        /* \"contracts/GestorDeTareas.sol\":2808:2906  for (uint i = 0; i < tareas.length; i++) {... */\n    tag_87:\n        /* \"contracts/GestorDeTareas.sol\":2829:2835  tareas */\n      0x00\n        /* \"contracts/GestorDeTareas.sol\":2829:2842  tareas.length */\n      dup1\n      sload\n      swap1\n      pop\n        /* \"contracts/GestorDeTareas.sol\":2825:2826  i */\n      dup2\n        /* \"contracts/GestorDeTareas.sol\":2825:2842  i < tareas.length */\n      lt\n        /* \"contracts/GestorDeTareas.sol\":2808:2906  for (uint i = 0; i < tareas.length; i++) {... */\n      iszero\n      tag_88\n      jumpi\n        /* \"contracts/GestorDeTareas.sol\":2888:2889  e */\n      dup4\n        /* \"contracts/GestorDeTareas.sol\":2868:2889  tareas[i].estado == e */\n      0x03\n      dup2\n      gt\n      iszero\n      tag_90\n      jumpi\n      tag_91\n      tag_92\n      jump\t// in\n    tag_91:\n    tag_90:\n        /* \"contracts/GestorDeTareas.sol\":2868:2874  tareas */\n      0x00\n        /* \"contracts/GestorDeTareas.sol\":2875:2876  i */\n      dup3\n        /* \"contracts/GestorDeTareas.sol\":2868:2877  tareas[i] */\n      dup2\n      sload\n      dup2\n      lt\n      tag_93\n      jumpi\n      tag_94\n      tag_95\n      jump\t// in\n    tag_94:\n    tag_93:\n      swap1\n      0x00\n      mstore\n      keccak256(0x00, 0x20)\n      swap1\n      0x05\n      mul\n      add\n        /* \"contracts/GestorDeTareas.sol\":2868:2884  tareas[i].estado */\n      0x02\n      add\n      0x01\n      swap1\n      sload\n      swap1\n      0x0100\n      exp\n      swap1\n      div\n      0xff\n      and\n        /* \"contracts/GestorDeTareas.sol\":2868:2889  tareas[i].estado == e */\n      0x03\n      dup2\n      gt\n      iszero\n      tag_97\n      jumpi\n      tag_98\n      tag_92\n      jump\t// in\n    tag_98:\n    tag_97:\n      sub\n        /* \"contracts/GestorDeTareas.sol\":2864:2894  if (tareas[i].estado == e) n++ */\n      tag_99\n      jumpi\n        /* \"contracts/GestorDeTareas.sol\":2891:2894  n++ */\n      dup2\n      dup1\n      tag_100\n      swap1\n      tag_101\n      jump\t// in\n    tag_100:\n      swap3\n      pop\n      pop\n        /* \"contracts/GestorDeTareas.sol\":2864:2894  if (tareas[i].estado == e) n++ */\n    tag_99:\n        /* \"contracts/GestorDeTareas.sol\":2844:2847  i++ */\n      dup1\n      dup1\n      0x01\n      add\n      swap2\n      pop\n      pop\n        /* \"contracts/GestorDeTareas.sol\":2808:2906  for (uint i = 0; i < tareas.length; i++) {... */\n      jump(tag_87)\n    tag_88:\n      pop\n        /* \"contracts/GestorDeTareas.sol\":2951:2972  uint[] memory indices */\n      0x00\n        /* \"contracts/GestorDeTareas.sol\":2986:2987  n */\n      dup2\n        /* \"contracts/GestorDeTareas.sol\":2975:2988  new uint[](n) */\n      0xffffffffffffffff\n      dup2\n      gt\n      iszero\n      tag_102\n      jumpi\n      tag_103\n      tag_104\n      jump\t// in\n    tag_103:\n    tag_102:\n      mload(0x40)\n      swap1\n      dup1\n      dup3\n      mstore\n      dup1\n      0x20\n      mul\n      0x20\n      add\n      dup3\n      add\n      0x40\n      mstore\n      dup1\n      iszero\n      tag_105\n      jumpi\n      dup2\n      0x20\n      add\n      0x20\n      dup3\n      mul\n      dup1\n      calldatasize\n      dup4\n      calldatacopy\n      dup1\n      dup3\n      add\n      swap2\n      pop\n      pop\n      swap1\n      pop\n    tag_105:\n      pop\n        /* \"contracts/GestorDeTareas.sol\":2951:2988  uint[] memory indices = new uint[](n) */\n      swap1\n      pop\n        /* \"contracts/GestorDeTareas.sol\":2999:3005  uint k */\n      0x00\n        /* \"contracts/GestorDeTareas.sol\":3008:3009  0 */\n      0x00\n        /* \"contracts/GestorDeTareas.sol\":2999:3009  uint k = 0 */\n      swap1\n      pop\n        /* \"contracts/GestorDeTareas.sol\":3025:3031  uint i */\n      0x00\n        /* \"contracts/GestorDeTareas.sol\":3034:3035  0 */\n      0x00\n        /* \"contracts/GestorDeTareas.sol\":3025:3035  uint i = 0 */\n      swap1\n      pop\n        /* \"contracts/GestorDeTareas.sol\":3020:3185  for (uint i = 0; i < tareas.length; i++) {... */\n    tag_106:\n        /* \"contracts/GestorDeTareas.sol\":3041:3047  tareas */\n      0x00\n        /* \"contracts/GestorDeTareas.sol\":3041:3054  tareas.length */\n      dup1\n      sload\n      swap1\n      pop\n        /* \"contracts/GestorDeTareas.sol\":3037:3038  i */\n      dup2\n        /* \"contracts/GestorDeTareas.sol\":3037:3054  i < tareas.length */\n      lt\n        /* \"contracts/GestorDeTareas.sol\":3020:3185  for (uint i = 0; i < tareas.length; i++) {... */\n      iszero\n      tag_107\n      jumpi\n        /* \"contracts/GestorDeTareas.sol\":3100:3101  e */\n      dup6\n        /* \"contracts/GestorDeTareas.sol\":3080:3101  tareas[i].estado == e */\n      0x03\n      dup2\n      gt\n      iszero\n      tag_109\n      jumpi\n      tag_110\n      tag_92\n      jump\t// in\n    tag_110:\n    tag_109:\n        /* \"contracts/GestorDeTareas.sol\":3080:3086  tareas */\n      0x00\n        /* \"contracts/GestorDeTareas.sol\":3087:3088  i */\n      dup3\n        /* \"contracts/GestorDeTareas.sol\":3080:3089  tareas[i] */\n      dup2\n      sload\n      dup2\n      lt\n      tag_111\n      jumpi\n      tag_112\n      tag_95\n      jump\t// in\n    tag_112:\n    tag_111:\n      swap1\n      0x00\n      mstore\n      keccak256(0x00, 0x20)\n      swap1\n      0x05\n      mul\n      add\n        /* \"contracts/GestorDeTareas.sol\":3080:3096  tareas[i].estado */\n      0x02\n      add\n      0x01\n      swap1\n      sload\n      swap1\n      0x0100\n      exp\n      swap1\n      div\n      0xff\n      and\n        /* \"contracts/GestorDeTareas.sol\":3080:3101  tareas[i].estado == e */\n      0x03\n      dup2\n      gt\n      iszero\n      tag_114\n      jumpi\n      tag_115\n      tag_92\n      jump\t// in\n    tag_115:\n    tag_114:\n      sub\n        /* \"contracts/GestorDeTareas.sol\":3076:3174  if (tareas[i].estado == e) {... */\n      tag_116\n      jumpi\n        /* \"contracts/GestorDeTareas.sol\":3135:3136  i */\n      dup1\n        /* \"contracts/GestorDeTareas.sol\":3122:3129  indices */\n      dup4\n        /* \"contracts/GestorDeTareas.sol\":3130:3131  k */\n      dup4\n        /* \"contracts/GestorDeTareas.sol\":3122:3132  indices[k] */\n      dup2\n      mload\n      dup2\n      lt\n      tag_117\n      jumpi\n      tag_118\n      tag_95\n      jump\t// in\n    tag_118:\n    tag_117:\n      0x20\n      mul\n      0x20\n      add\n      add\n        /* \"contracts/GestorDeTareas.sol\":3122:3136  indices[k] = i */\n      dup2\n      dup2\n      mstore\n      pop\n      pop\n        /* \"contracts/GestorDeTareas.sol\":3155:3158  k++ */\n      dup2\n      dup1\n      tag_119\n      swap1\n      tag_101\n      jump\t// in\n    tag_119:\n      swap3\n      pop\n      pop\n        /* \"contracts/GestorDeTareas.sol\":3076:3174  if (tareas[i].estado == e) {... */\n    tag_116:\n        /* \"contracts/GestorDeTareas.sol\":3056:3059  i++ */\n      dup1\n      dup1\n      0x01\n      add\n      swap2\n      pop\n      pop\n        /* \"contracts/GestorDeTareas.sol\":3020:3185  for (uint i = 0; i < tareas.length; i++) {... */\n      jump(tag_106)\n    tag_107:\n      pop\n        /* \"contracts/GestorDeTareas.sol\":3202:3209  indices */\n      dup2\n        /* \"contracts/GestorDeTareas.sol\":3195:3209  return indices */\n      swap4\n      pop\n      pop\n      pop\n      pop\n        /* \"contracts/GestorDeTareas.sol\":2665:3217  function listarIdsPorEstado(Estado e) external view returns (uint[] memory) {... */\n      swap2\n      swap1\n      pop\n      jump\t// out\n        /* \"contracts/GestorDeTareas.sol\":1795:1993  function cambiarEstado(uint idx, Estado nuevo) external {... */\n    tag_30:\n        /* \"contracts/GestorDeTareas.sol\":1876:1882  tareas */\n      0x00\n        /* \"contracts/GestorDeTareas.sol\":1876:1889  tareas.length */\n      dup1\n      sload\n      swap1\n      pop\n        /* \"contracts/GestorDeTareas.sol\":1870:1873  idx */\n      dup3\n        /* \"contracts/GestorDeTareas.sol\":1870:1889  idx < tareas.length */\n      lt\n        /* \"contracts/GestorDeTareas.sol\":1862:1906  require(idx < tareas.length, \"idx invalido\") */\n      tag_121\n      jumpi\n      mload(0x40)\n      0x08c379a000000000000000000000000000000000000000000000000000000000\n      dup2\n      mstore\n      0x04\n      add\n      tag_122\n      swap1\n      tag_123\n      jump\t// in\n    tag_122:\n      mload(0x40)\n      dup1\n      swap2\n      sub\n      swap1\n      revert\n    tag_121:\n        /* \"contracts/GestorDeTareas.sol\":1938:1943  nuevo */\n      dup1\n        /* \"contracts/GestorDeTareas.sol\":1917:1923  tareas */\n      0x00\n        /* \"contracts/GestorDeTareas.sol\":1924:1927  idx */\n      dup4\n        /* \"contracts/GestorDeTareas.sol\":1917:1928  tareas[idx] */\n      dup2\n      sload\n      dup2\n      lt\n      tag_124\n      jumpi\n      tag_125\n      tag_95\n      jump\t// in\n    tag_125:\n    tag_124:\n      swap1\n      0x00\n      mstore\n      keccak256(0x00, 0x20)\n      swap1\n      0x05\n      mul\n      add\n        /* \"contracts/GestorDeTareas.sol\":1917:1935  tareas[idx].estado */\n      0x02\n      add\n      0x01\n        /* \"contracts/GestorDeTareas.sol\":1917:1943  tareas[idx].estado = nuevo */\n      0x0100\n      exp\n      dup2\n      sload\n      dup2\n      0xff\n      mul\n      not\n      and\n      swap1\n      dup4\n      0x03\n      dup2\n      gt\n      iszero\n      tag_127\n      jumpi\n      tag_128\n      tag_92\n      jump\t// in\n    tag_128:\n    tag_127:\n      mul\n      or\n      swap1\n      sstore\n      pop\n        /* \"contracts/GestorDeTareas.sol\":1974:1977  idx */\n      dup2\n        /* \"contracts/GestorDeTareas.sol\":1959:1985  EstadoCambiado(idx, nuevo) */\n      0xbc38d284bd0c98be555b32fb56e3a5c0a385f6565212459cfa0074394571d01b\n        /* \"contracts/GestorDeTareas.sol\":1979:1984  nuevo */\n      dup3\n        /* \"contracts/GestorDeTareas.sol\":1959:1985  EstadoCambiado(idx, nuevo) */\n      mload(0x40)\n      tag_129\n      swap2\n      swap1\n      tag_130\n      jump\t// in\n    tag_129:\n      mload(0x40)\n      dup1\n      swap2\n      sub\n      swap1\n      log2\n        /* \"contracts/GestorDeTareas.sol\":1795:1993  function cambiarEstado(uint idx, Estado nuevo) external {... */\n      pop\n      pop\n      jump\t// out\n        /* \"contracts/GestorDeTareas.sol\":3375:3463  function getTop3() external view returns (uint[3] memory) {... */\n    tag_32:\n        /* \"contracts/GestorDeTareas.sol\":3417:3431  uint[3] memory */\n      tag_131\n      tag_132\n      jump\t// in\n    tag_131:\n        /* \"contracts/GestorDeTareas.sol\":3451:3455  top3 */\n      0x01\n        /* \"contracts/GestorDeTareas.sol\":3444:3455  return top3 */\n      0x03\n      dup1\n      0x20\n      mul\n      mload(0x40)\n      swap1\n      dup2\n      add\n      0x40\n      mstore\n      dup1\n      swap3\n      swap2\n      swap1\n      dup3\n      0x03\n      dup1\n      iszero\n      tag_134\n      jumpi\n      0x20\n      mul\n      dup3\n      add\n      swap2\n    tag_135:\n      dup2\n      sload\n      dup2\n      mstore\n      0x20\n      add\n      swap1\n      0x01\n      add\n      swap1\n      dup1\n      dup4\n      gt\n      tag_135\n      jumpi\n    tag_134:\n      pop\n      pop\n      pop\n      pop\n      pop\n      swap1\n      pop\n        /* \"contracts/GestorDeTareas.sol\":3375:3463  function getTop3() external view returns (uint[3] memory) {... */\n      swap1\n      jump\t// out\n        /* \"contracts/GestorDeTareas.sol\":3495:3634  function eliminarUltima() external {... */\n    tag_36:\n        /* \"contracts/GestorDeTareas.sol\":3565:3566  0 */\n      0x00\n        /* \"contracts/GestorDeTareas.sol\":3549:3555  tareas */\n      0x00\n        /* \"contracts/GestorDeTareas.sol\":3549:3562  tareas.length */\n      dup1\n      sload\n      swap1\n      pop\n        /* \"contracts/GestorDeTareas.sol\":3549:3566  tareas.length > 0 */\n      gt\n        /* \"contracts/GestorDeTareas.sol\":3541:3581  require(tareas.length > 0, \"sin tareas\") */\n      tag_137\n      jumpi\n      mload(0x40)\n      0x08c379a000000000000000000000000000000000000000000000000000000000\n      dup2\n      mstore\n      0x04\n      add\n      tag_138\n      swap1\n      tag_139\n      jump\t// in\n    tag_138:\n      mload(0x40)\n      dup1\n      swap2\n      sub\n      swap1\n      revert\n    tag_137:\n        /* \"contracts/GestorDeTareas.sol\":3592:3598  tareas */\n      0x00\n        /* \"contracts/GestorDeTareas.sol\":3592:3604  tareas.pop() */\n      dup1\n      sload\n      dup1\n      tag_140\n      jumpi\n      tag_141\n      tag_142\n      jump\t// in\n    tag_141:\n    tag_140:\n      0x01\n      swap1\n      sub\n      dup2\n      dup2\n      swap1\n      0x00\n      mstore\n      keccak256(0x00, 0x20)\n      swap1\n      0x05\n      mul\n      add\n      0x00\n      0x00\n      dup3\n      add\n      0x00\n      swap1\n      sstore\n      0x01\n      dup3\n      add\n      0x00\n      tag_144\n      swap2\n      swap1\n      tag_145\n      jump\t// in\n    tag_144:\n      0x02\n      dup3\n      add\n      exp(0x0100, 0x00)\n      dup2\n      sload\n      swap1\n      0xff\n      mul\n      not\n      and\n      swap1\n      sstore\n      0x02\n      dup3\n      add\n      exp(0x0100, 0x01)\n      dup2\n      sload\n      swap1\n      0xff\n      mul\n      not\n      and\n      swap1\n      sstore\n      0x02\n      dup3\n      add\n      exp(0x0100, 0x02)\n      dup2\n      sload\n      swap1\n      0xffffffffffffffffffffffffffffffffffffffff\n      mul\n      not\n      and\n      swap1\n      sstore\n      0x03\n      dup3\n      add\n      0x00\n      tag_146\n      swap2\n      swap1\n      tag_147\n      jump\t// in\n    tag_146:\n      0x04\n      dup3\n      add\n      0x00\n      tag_148\n      swap2\n      swap1\n      tag_149\n      jump\t// in\n    tag_148:\n      pop\n      pop\n      swap1\n      sstore\n        /* \"contracts/GestorDeTareas.sol\":3495:3634  function eliminarUltima() external {... */\n      jump\t// out\n        /* \"contracts/GestorDeTareas.sol\":682:703  Tarea[] public tareas */\n    tag_40:\n      0x00\n      dup2\n      dup2\n      sload\n      dup2\n      lt\n      tag_150\n      jumpi\n      0x00\n      dup1\n      revert\n    tag_150:\n      swap1\n      0x00\n      mstore\n      keccak256(0x00, 0x20)\n      swap1\n      0x05\n      mul\n      add\n      0x00\n      swap2\n      pop\n      swap1\n      pop\n      dup1\n      0x00\n      add\n      sload\n      swap1\n      dup1\n      0x01\n      add\n      dup1\n      sload\n      tag_152\n      swap1\n      tag_153\n      jump\t// in\n    tag_152:\n      dup1\n      0x1f\n      add\n      0x20\n      dup1\n      swap2\n      div\n      mul\n      0x20\n      add\n      mload(0x40)\n      swap1\n      dup2\n      add\n      0x40\n      mstore\n      dup1\n      swap3\n      swap2\n      swap1\n      dup2\n      dup2\n      mstore\n      0x20\n      add\n      dup3\n      dup1\n      sload\n      tag_154\n      swap1\n      tag_153\n      jump\t// in\n    tag_154:\n      dup1\n      iszero\n      tag_155\n      jumpi\n      dup1\n      0x1f\n      lt\n      tag_156\n      jumpi\n      0x0100\n      dup1\n      dup4\n      sload\n      div\n      mul\n      dup4\n      mstore\n      swap2\n      0x20\n      add\n      swap2\n      jump(tag_155)\n    tag_156:\n      dup3\n      add\n      swap2\n      swap1\n      0x00\n      mstore\n      keccak256(0x00, 0x20)\n      swap1\n    tag_157:\n      dup2\n      sload\n      dup2\n      mstore\n      swap1\n      0x01\n      add\n      swap1\n      0x20\n      add\n      dup1\n      dup4\n      gt\n      tag_157\n      jumpi\n      dup3\n      swap1\n      sub\n      0x1f\n      and\n      dup3\n      add\n      swap2\n    tag_155:\n      pop\n      pop\n      pop\n      pop\n      pop\n      swap1\n      dup1\n      0x02\n      add\n      0x00\n      swap1\n      sload\n      swap1\n      0x0100\n      exp\n      swap1\n      div\n      0xff\n      and\n      swap1\n      dup1\n      0x02\n      add\n      0x01\n      swap1\n      sload\n      swap1\n      0x0100\n      exp\n      swap1\n      div\n      0xff\n      and\n      swap1\n      dup1\n      0x02\n      add\n      0x02\n      swap1\n      sload\n      swap1\n      0x0100\n      exp\n      swap1\n      div\n      0xffffffffffffffffffffffffffffffffffffffff\n      and\n      swap1\n      pop\n      dup6\n      jump\t// out\n        /* \"contracts/GestorDeTareas.sol\":3257:3369  function setTop3(uint[3] calldata nuevos) external {... */\n    tag_46:\n        /* \"contracts/GestorDeTareas.sol\":3326:3332  nuevos */\n      dup1\n        /* \"contracts/GestorDeTareas.sol\":3319:3323  top3 */\n      0x01\n        /* \"contracts/GestorDeTareas.sol\":3319:3332  top3 = nuevos */\n      swap1\n      0x03\n      tag_159\n      swap3\n      swap2\n      swap1\n      tag_160\n      jump\t// in\n    tag_159:\n      pop\n        /* \"contracts/GestorDeTareas.sol\":3257:3369  function setTop3(uint[3] calldata nuevos) external {... */\n      pop\n      jump\t// out\n        /* \"contracts/GestorDeTareas.sol\":4522:4695  function etiquetasDe(uint idx) external view returns (string[] memory) {... */\n    tag_49:\n        /* \"contracts/GestorDeTareas.sol\":4576:4591  string[] memory */\n      0x60\n        /* \"contracts/GestorDeTareas.sol\":4618:4624  tareas */\n      0x00\n        /* \"contracts/GestorDeTareas.sol\":4618:4631  tareas.length */\n      dup1\n      sload\n      swap1\n      pop\n        /* \"contracts/GestorDeTareas.sol\":4612:4615  idx */\n      dup3\n        /* \"contracts/GestorDeTareas.sol\":4612:4631  idx < tareas.length */\n      lt\n        /* \"contracts/GestorDeTareas.sol\":4604:4648  require(idx < tareas.length, \"idx invalido\") */\n      tag_162\n      jumpi\n      mload(0x40)\n      0x08c379a000000000000000000000000000000000000000000000000000000000\n      dup2\n      mstore\n      0x04\n      add\n      tag_163\n      swap1\n      tag_123\n      jump\t// in\n    tag_163:\n      mload(0x40)\n      dup1\n      swap2\n      sub\n      swap1\n      revert\n    tag_162:\n        /* \"contracts/GestorDeTareas.sol\":4666:4672  tareas */\n      0x00\n        /* \"contracts/GestorDeTareas.sol\":4673:4676  idx */\n      dup3\n        /* \"contracts/GestorDeTareas.sol\":4666:4677  tareas[idx] */\n      dup2\n      sload\n      dup2\n      lt\n      tag_164\n      jumpi\n      tag_165\n      tag_95\n      jump\t// in\n    tag_165:\n    tag_164:\n      swap1\n      0x00\n      mstore\n      keccak256(0x00, 0x20)\n      swap1\n      0x05\n      mul\n      add\n        /* \"contracts/GestorDeTareas.sol\":4666:4687  tareas[idx].etiquetas */\n      0x04\n      add\n        /* \"contracts/GestorDeTareas.sol\":4659:4687  return tareas[idx].etiquetas */\n      dup1\n      sload\n      dup1\n      0x20\n      mul\n      0x20\n      add\n      mload(0x40)\n      swap1\n      dup2\n      add\n      0x40\n      mstore\n      dup1\n      swap3\n      swap2\n      swap1\n      dup2\n      dup2\n      mstore\n      0x20\n      add\n      0x00\n      swap1\n    tag_167:\n      dup3\n      dup3\n      lt\n      iszero\n      tag_168\n      jumpi\n      dup4\n      dup3\n      swap1\n      0x00\n      mstore\n      keccak256(0x00, 0x20)\n      add\n      dup1\n      sload\n      tag_170\n      swap1\n      tag_153\n      jump\t// in\n    tag_170:\n      dup1\n      0x1f\n      add\n      0x20\n      dup1\n      swap2\n      div\n      mul\n      0x20\n      add\n      mload(0x40)\n      swap1\n      dup2\n      add\n      0x40\n      mstore\n      dup1\n      swap3\n      swap2\n      swap1\n      dup2\n      dup2\n      mstore\n      0x20\n      add\n      dup3\n      dup1\n      sload\n      tag_171\n      swap1\n      tag_153\n      jump\t// in\n    tag_171:\n      dup1\n      iszero\n      tag_172\n      jumpi\n      dup1\n      0x1f\n      lt\n      tag_173\n      jumpi\n      0x0100\n      dup1\n      dup4\n      sload\n      div\n      mul\n      dup4\n      mstore\n      swap2\n      0x20\n      add\n      swap2\n      jump(tag_172)\n    tag_173:\n      dup3\n      add\n      swap2\n      swap1\n      0x00\n      mstore\n      keccak256(0x00, 0x20)\n      swap1\n    tag_174:\n      dup2\n      sload\n      dup2\n      mstore\n      swap1\n      0x01\n      add\n      swap1\n      0x20\n      add\n      dup1\n      dup4\n      gt\n      tag_174\n      jumpi\n      dup3\n      swap1\n      sub\n      0x1f\n      and\n      dup3\n      add\n      swap2\n    tag_172:\n      pop\n      pop\n      pop\n      pop\n      pop\n      dup2\n      mstore\n      0x20\n      add\n      swap1\n      0x01\n      add\n      swap1\n      jump(tag_167)\n    tag_168:\n      pop\n      pop\n      pop\n      pop\n      swap1\n      pop\n        /* \"contracts/GestorDeTareas.sol\":4522:4695  function etiquetasDe(uint idx) external view returns (string[] memory) {... */\n      swap2\n      swap1\n      pop\n      jump\t// out\n        /* \"contracts/GestorDeTareas.sol\":3867:4326  function verTarea(uint idx) external view returns (... */\n    tag_54:\n        /* \"contracts/GestorDeTareas.sol\":3928:3935  uint id */\n      0x00\n        /* \"contracts/GestorDeTareas.sol\":3946:3966  string memory titulo */\n      0x60\n        /* \"contracts/GestorDeTareas.sol\":3977:3991  Prioridad prio */\n      0x00\n        /* \"contracts/GestorDeTareas.sol\":4002:4015  Estado estado */\n      0x00\n        /* \"contracts/GestorDeTareas.sol\":4026:4041  address creador */\n      0x00\n        /* \"contracts/GestorDeTareas.sol\":4052:4074  uint responsablesCount */\n      0x00\n        /* \"contracts/GestorDeTareas.sol\":4085:4104  uint etiquetasCount */\n      0x00\n        /* \"contracts/GestorDeTareas.sol\":4137:4143  tareas */\n      0x00\n        /* \"contracts/GestorDeTareas.sol\":4137:4150  tareas.length */\n      dup1\n      sload\n      swap1\n      pop\n        /* \"contracts/GestorDeTareas.sol\":4131:4134  idx */\n      dup9\n        /* \"contracts/GestorDeTareas.sol\":4131:4150  idx < tareas.length */\n      lt\n        /* \"contracts/GestorDeTareas.sol\":4123:4167  require(idx < tareas.length, \"idx invalido\") */\n      tag_176\n      jumpi\n      mload(0x40)\n      0x08c379a000000000000000000000000000000000000000000000000000000000\n      dup2\n      mstore\n      0x04\n      add\n      tag_177\n      swap1\n      tag_123\n      jump\t// in\n    tag_177:\n      mload(0x40)\n      dup1\n      swap2\n      sub\n      swap1\n      revert\n    tag_176:\n        /* \"contracts/GestorDeTareas.sol\":4178:4193  Tarea storage t */\n      0x00\n        /* \"contracts/GestorDeTareas.sol\":4196:4202  tareas */\n      0x00\n        /* \"contracts/GestorDeTareas.sol\":4203:4206  idx */\n      dup10\n        /* \"contracts/GestorDeTareas.sol\":4196:4207  tareas[idx] */\n      dup2\n      sload\n      dup2\n      lt\n      tag_178\n      jumpi\n      tag_179\n      tag_95\n      jump\t// in\n    tag_179:\n    tag_178:\n      swap1\n      0x00\n      mstore\n      keccak256(0x00, 0x20)\n      swap1\n      0x05\n      mul\n      add\n        /* \"contracts/GestorDeTareas.sol\":4178:4207  Tarea storage t = tareas[idx] */\n      swap1\n      pop\n        /* \"contracts/GestorDeTareas.sol\":4226:4227  t */\n      dup1\n        /* \"contracts/GestorDeTareas.sol\":4226:4230  t.id */\n      0x00\n      add\n      sload\n        /* \"contracts/GestorDeTareas.sol\":4232:4233  t */\n      dup2\n        /* \"contracts/GestorDeTareas.sol\":4232:4240  t.titulo */\n      0x01\n      add\n        /* \"contracts/GestorDeTareas.sol\":4242:4243  t */\n      dup3\n        /* \"contracts/GestorDeTareas.sol\":4242:4253  t.prioridad */\n      0x02\n      add\n      0x00\n      swap1\n      sload\n      swap1\n      0x0100\n      exp\n      swap1\n      div\n      0xff\n      and\n        /* \"contracts/GestorDeTareas.sol\":4255:4256  t */\n      dup4\n        /* \"contracts/GestorDeTareas.sol\":4255:4263  t.estado */\n      0x02\n      add\n      0x01\n      swap1\n      sload\n      swap1\n      0x0100\n      exp\n      swap1\n      div\n      0xff\n      and\n        /* \"contracts/GestorDeTareas.sol\":4265:4266  t */\n      dup5\n        /* \"contracts/GestorDeTareas.sol\":4265:4274  t.creador */\n      0x02\n      add\n      0x02\n      swap1\n      sload\n      swap1\n      0x0100\n      exp\n      swap1\n      div\n      0xffffffffffffffffffffffffffffffffffffffff\n      and\n        /* \"contracts/GestorDeTareas.sol\":4276:4277  t */\n      dup6\n        /* \"contracts/GestorDeTareas.sol\":4276:4290  t.responsables */\n      0x03\n      add\n        /* \"contracts/GestorDeTareas.sol\":4276:4297  t.responsables.length */\n      dup1\n      sload\n      swap1\n      pop\n        /* \"contracts/GestorDeTareas.sol\":4299:4300  t */\n      dup7\n        /* \"contracts/GestorDeTareas.sol\":4299:4310  t.etiquetas */\n      0x04\n      add\n        /* \"contracts/GestorDeTareas.sol\":4299:4317  t.etiquetas.length */\n      dup1\n      sload\n      swap1\n      pop\n        /* \"contracts/GestorDeTareas.sol\":4218:4318  return (t.id, t.titulo, t.prioridad, t.estado, t.creador, t.responsables.length, t.etiquetas.length) */\n      dup6\n      dup1\n      sload\n      tag_181\n      swap1\n      tag_153\n      jump\t// in\n    tag_181:\n      dup1\n      0x1f\n      add\n      0x20\n      dup1\n      swap2\n      div\n      mul\n      0x20\n      add\n      mload(0x40)\n      swap1\n      dup2\n      add\n      0x40\n      mstore\n      dup1\n      swap3\n      swap2\n      swap1\n      dup2\n      dup2\n      mstore\n      0x20\n      add\n      dup3\n      dup1\n      sload\n      tag_182\n      swap1\n      tag_153\n      jump\t// in\n    tag_182:\n      dup1\n      iszero\n      tag_183\n      jumpi\n      dup1\n      0x1f\n      lt\n      tag_184\n      jumpi\n      0x0100\n      dup1\n      dup4\n      sload\n      div\n      mul\n      dup4\n      mstore\n      swap2\n      0x20\n      add\n      swap2\n      jump(tag_183)\n    tag_184:\n      dup3\n      add\n      swap2\n      swap1\n      0x00\n      mstore\n      keccak256(0x00, 0x20)\n      swap1\n    tag_185:\n      dup2\n      sload\n      dup2\n      mstore\n      swap1\n      0x01\n      add\n      swap1\n      0x20\n      add\n      dup1\n      dup4\n      gt\n      tag_185\n      jumpi\n      dup3\n      swap1\n      sub\n      0x1f\n      and\n      dup3\n      add\n      swap2\n    tag_183:\n      pop\n      pop\n      pop\n      pop\n      pop\n      swap6\n      pop\n      swap8\n      pop\n      swap8\n      pop\n      swap8\n      pop\n      swap8\n      pop\n      swap8\n      pop\n      swap8\n      pop\n      swap8\n      pop\n      pop\n        /* \"contracts/GestorDeTareas.sol\":3867:4326  function verTarea(uint idx) external view returns (... */\n      swap2\n      swap4\n      swap6\n      swap8\n      swap1\n      swap3\n      swap5\n      swap7\n      pop\n      jump\t// out\n        /* \"contracts/GestorDeTareas.sol\":2365:2577  function agregarEtiqueta(uint idx, string calldata tag) external {... */\n    tag_60:\n        /* \"contracts/GestorDeTareas.sol\":2455:2461  tareas */\n      0x00\n        /* \"contracts/GestorDeTareas.sol\":2455:2468  tareas.length */\n      dup1\n      sload\n      swap1\n      pop\n        /* \"contracts/GestorDeTareas.sol\":2449:2452  idx */\n      dup4\n        /* \"contracts/GestorDeTareas.sol\":2449:2468  idx < tareas.length */\n      lt\n        /* \"contracts/GestorDeTareas.sol\":2441:2485  require(idx < tareas.length, \"idx invalido\") */\n      tag_187\n      jumpi\n      mload(0x40)\n      0x08c379a000000000000000000000000000000000000000000000000000000000\n      dup2\n      mstore\n      0x04\n      add\n      tag_188\n      swap1\n      tag_123\n      jump\t// in\n    tag_188:\n      mload(0x40)\n      dup1\n      swap2\n      sub\n      swap1\n      revert\n    tag_187:\n        /* \"contracts/GestorDeTareas.sol\":2496:2502  tareas */\n      0x00\n        /* \"contracts/GestorDeTareas.sol\":2503:2506  idx */\n      dup4\n        /* \"contracts/GestorDeTareas.sol\":2496:2507  tareas[idx] */\n      dup2\n      sload\n      dup2\n      lt\n      tag_189\n      jumpi\n      tag_190\n      tag_95\n      jump\t// in\n    tag_190:\n    tag_189:\n      swap1\n      0x00\n      mstore\n      keccak256(0x00, 0x20)\n      swap1\n      0x05\n      mul\n      add\n        /* \"contracts/GestorDeTareas.sol\":2496:2517  tareas[idx].etiquetas */\n      0x04\n      add\n        /* \"contracts/GestorDeTareas.sol\":2523:2526  tag */\n      dup3\n      dup3\n        /* \"contracts/GestorDeTareas.sol\":2496:2527  tareas[idx].etiquetas.push(tag) */\n      swap1\n      swap2\n      dup1\n      0x01\n      dup2\n      sload\n      add\n      dup1\n      dup3\n      sstore\n      dup1\n      swap2\n      pop\n      pop\n      0x01\n      swap1\n      sub\n      swap1\n      0x00\n      mstore\n      keccak256(0x00, 0x20)\n      add\n      0x00\n      swap1\n      swap2\n      swap3\n      swap1\n      swap2\n      swap3\n      swap1\n      swap2\n      swap3\n      swap1\n      swap2\n      swap3\n      pop\n      swap2\n      dup3\n      tag_193\n      swap3\n      swap2\n      swap1\n      tag_194\n      jump\t// in\n    tag_193:\n      pop\n        /* \"contracts/GestorDeTareas.sol\":2560:2563  idx */\n      dup3\n        /* \"contracts/GestorDeTareas.sol\":2543:2569  EtiquetaAgregada(idx, tag) */\n      0x34d506b3469a68b41269f288ebff47e5bd8f74dfd8927a0d5646e33418a56117\n        /* \"contracts/GestorDeTareas.sol\":2565:2568  tag */\n      dup4\n      dup4\n        /* \"contracts/GestorDeTareas.sol\":2543:2569  EtiquetaAgregada(idx, tag) */\n      mload(0x40)\n      tag_195\n      swap3\n      swap2\n      swap1\n      tag_196\n      jump\t// in\n    tag_195:\n      mload(0x40)\n      dup1\n      swap2\n      sub\n      swap1\n      log2\n        /* \"contracts/GestorDeTareas.sol\":2365:2577  function agregarEtiqueta(uint idx, string calldata tag) external {... */\n      pop\n      pop\n      pop\n      jump\t// out\n        /* \"contracts/GestorDeTareas.sol\":4703:4794  function totalTareas() external view returns (uint) {... */\n    tag_62:\n        /* \"contracts/GestorDeTareas.sol\":4749:4753  uint */\n      0x00\n        /* \"contracts/GestorDeTareas.sol\":4773:4779  tareas */\n      0x00\n        /* \"contracts/GestorDeTareas.sol\":4773:4786  tareas.length */\n      dup1\n      sload\n      swap1\n      pop\n        /* \"contracts/GestorDeTareas.sol\":4766:4786  return tareas.length */\n      swap1\n      pop\n        /* \"contracts/GestorDeTareas.sol\":4703:4794  function totalTareas() external view returns (uint) {... */\n      swap1\n      jump\t// out\n        /* \"contracts/GestorDeTareas.sol\":2053:2314  function asignarResponsables(uint idx, address[] calldata rs) external {... */\n    tag_68:\n        /* \"contracts/GestorDeTareas.sol\":2149:2155  tareas */\n      0x00\n        /* \"contracts/GestorDeTareas.sol\":2149:2162  tareas.length */\n      dup1\n      sload\n      swap1\n      pop\n        /* \"contracts/GestorDeTareas.sol\":2143:2146  idx */\n      dup4\n        /* \"contracts/GestorDeTareas.sol\":2143:2162  idx < tareas.length */\n      lt\n        /* \"contracts/GestorDeTareas.sol\":2135:2179  require(idx < tareas.length, \"idx invalido\") */\n      tag_199\n      jumpi\n      mload(0x40)\n      0x08c379a000000000000000000000000000000000000000000000000000000000\n      dup2\n      mstore\n      0x04\n      add\n      tag_200\n      swap1\n      tag_123\n      jump\t// in\n    tag_200:\n      mload(0x40)\n      dup1\n      swap2\n      sub\n      swap1\n      revert\n    tag_199:\n        /* \"contracts/GestorDeTareas.sol\":2217:2219  rs */\n      dup2\n      dup2\n        /* \"contracts/GestorDeTareas.sol\":2190:2196  tareas */\n      0x00\n        /* \"contracts/GestorDeTareas.sol\":2197:2200  idx */\n      dup6\n        /* \"contracts/GestorDeTareas.sol\":2190:2201  tareas[idx] */\n      dup2\n      sload\n      dup2\n      lt\n      tag_201\n      jumpi\n      tag_202\n      tag_95\n      jump\t// in\n    tag_202:\n    tag_201:\n      swap1\n      0x00\n      mstore\n      keccak256(0x00, 0x20)\n      swap1\n      0x05\n      mul\n      add\n        /* \"contracts/GestorDeTareas.sol\":2190:2214  tareas[idx].responsables */\n      0x03\n      add\n        /* \"contracts/GestorDeTareas.sol\":2190:2219  tareas[idx].responsables = rs */\n      swap2\n      swap1\n      tag_204\n      swap3\n      swap2\n      swap1\n      tag_205\n      jump\t// in\n    tag_204:\n      pop\n        /* \"contracts/GestorDeTareas.sol\":2291:2294  idx */\n      dup3\n        /* \"contracts/GestorDeTareas.sol\":2269:2306  ResponsablesAsignados(idx, rs.length) */\n      0xbb336ca598a8744d73fa12993a20f8f8b055165ca45a2876d68ab71206e72f88\n        /* \"contracts/GestorDeTareas.sol\":2296:2298  rs */\n      dup4\n      dup4\n        /* \"contracts/GestorDeTareas.sol\":2296:2305  rs.length */\n      swap1\n      pop\n        /* \"contracts/GestorDeTareas.sol\":2269:2306  ResponsablesAsignados(idx, rs.length) */\n      mload(0x40)\n      tag_206\n      swap2\n      swap1\n      tag_64\n      jump\t// in\n    tag_206:\n      mload(0x40)\n      dup1\n      swap2\n      sub\n      swap1\n      log2\n        /* \"contracts/GestorDeTareas.sol\":2053:2314  function asignarResponsables(uint idx, address[] calldata rs) external {... */\n      pop\n      pop\n      pop\n      jump\t// out\n        /* \"contracts/GestorDeTareas.sol\":749:768  uint[3] public top3 */\n    tag_71:\n      0x01\n      dup2\n      0x03\n      dup2\n      lt\n      tag_207\n      jumpi\n      0x00\n      dup1\n      revert\n    tag_207:\n      add\n      0x00\n      swap2\n      pop\n      swap1\n      pop\n      sload\n      dup2\n      jump\t// out\n        /* \"contracts/GestorDeTareas.sol\":4334:4514  function responsablesDe(uint idx) external view returns (address[] memory) {... */\n    tag_75:\n        /* \"contracts/GestorDeTareas.sol\":4391:4407  address[] memory */\n      0x60\n        /* \"contracts/GestorDeTareas.sol\":4434:4440  tareas */\n      0x00\n        /* \"contracts/GestorDeTareas.sol\":4434:4447  tareas.length */\n      dup1\n      sload\n      swap1\n      pop\n        /* \"contracts/GestorDeTareas.sol\":4428:4431  idx */\n      dup3\n        /* \"contracts/GestorDeTareas.sol\":4428:4447  idx < tareas.length */\n      lt\n        /* \"contracts/GestorDeTareas.sol\":4420:4464  require(idx < tareas.length, \"idx invalido\") */\n      tag_210\n      jumpi\n      mload(0x40)\n      0x08c379a000000000000000000000000000000000000000000000000000000000\n      dup2\n      mstore\n      0x04\n      add\n      tag_211\n      swap1\n      tag_123\n      jump\t// in\n    tag_211:\n      mload(0x40)\n      dup1\n      swap2\n      sub\n      swap1\n      revert\n    tag_210:\n        /* \"contracts/GestorDeTareas.sol\":4482:4488  tareas */\n      0x00\n        /* \"contracts/GestorDeTareas.sol\":4489:4492  idx */\n      dup3\n        /* \"contracts/GestorDeTareas.sol\":4482:4493  tareas[idx] */\n      dup2\n      sload\n      dup2\n      lt\n      tag_212\n      jumpi\n      tag_213\n      tag_95\n      jump\t// in\n    tag_213:\n    tag_212:\n      swap1\n      0x00\n      mstore\n      keccak256(0x00, 0x20)\n      swap1\n      0x05\n      mul\n      add\n        /* \"contracts/GestorDeTareas.sol\":4482:4506  tareas[idx].responsables */\n      0x03\n      add\n        /* \"contracts/GestorDeTareas.sol\":4475:4506  return tareas[idx].responsables */\n      dup1\n      sload\n      dup1\n      0x20\n      mul\n      0x20\n      add\n      mload(0x40)\n      swap1\n      dup2\n      add\n      0x40\n      mstore\n      dup1\n      swap3\n      swap2\n      swap1\n      dup2\n      dup2\n      mstore\n      0x20\n      add\n      dup3\n      dup1\n      sload\n      dup1\n      iszero\n      tag_215\n      jumpi\n      0x20\n      mul\n      dup3\n      add\n      swap2\n      swap1\n      0x00\n      mstore\n      keccak256(0x00, 0x20)\n      swap1\n    tag_216:\n      dup2\n      0x00\n      swap1\n      sload\n      swap1\n      0x0100\n      exp\n      swap1\n      div\n      0xffffffffffffffffffffffffffffffffffffffff\n      and\n      0xffffffffffffffffffffffffffffffffffffffff\n      and\n      dup2\n      mstore\n      0x20\n      add\n      swap1\n      0x01\n      add\n      swap1\n      dup1\n      dup4\n      gt\n      tag_216\n      jumpi\n    tag_215:\n      pop\n      pop\n      pop\n      pop\n      pop\n      swap1\n      pop\n        /* \"contracts/GestorDeTareas.sol\":4334:4514  function responsablesDe(uint idx) external view returns (address[] memory) {... */\n      swap2\n      swap1\n      pop\n      jump\t// out\n        /* \"contracts/GestorDeTareas.sol\":1252:1750  function crearTarea(string calldata titulo, Prioridad prio) external returns (uint idx) {... */\n    tag_81:\n        /* \"contracts/GestorDeTareas.sol\":1330:1338  uint idx */\n      0x00\n        /* \"contracts/GestorDeTareas.sol\":1351:1365  Tarea memory t */\n      0x00\n        /* \"contracts/GestorDeTareas.sol\":1368:1631  Tarea({... */\n      mload(0x40)\n      dup1\n      0xe0\n      add\n      0x40\n      mstore\n      dup1\n        /* \"contracts/GestorDeTareas.sol\":1393:1399  nextId */\n      0x04\n      0x00\n        /* \"contracts/GestorDeTareas.sol\":1393:1401  nextId++ */\n      dup2\n      sload\n      dup1\n      swap3\n      swap2\n      swap1\n      tag_218\n      swap1\n      tag_101\n      jump\t// in\n    tag_218:\n      swap2\n      swap1\n      pop\n      sstore\n        /* \"contracts/GestorDeTareas.sol\":1368:1631  Tarea({... */\n      dup2\n      mstore\n      0x20\n      add\n        /* \"contracts/GestorDeTareas.sol\":1424:1430  titulo */\n      dup7\n      dup7\n        /* \"contracts/GestorDeTareas.sol\":1368:1631  Tarea({... */\n      dup1\n      dup1\n      0x1f\n      add\n      0x20\n      dup1\n      swap2\n      div\n      mul\n      0x20\n      add\n      mload(0x40)\n      swap1\n      dup2\n      add\n      0x40\n      mstore\n      dup1\n      swap4\n      swap3\n      swap2\n      swap1\n      dup2\n      dup2\n      mstore\n      0x20\n      add\n      dup4\n      dup4\n      dup1\n      dup3\n      dup5\n      calldatacopy\n      0x00\n      dup2\n      dup5\n      add\n      mstore\n      not(0x1f)\n      0x1f\n      dup3\n      add\n      and\n      swap1\n      pop\n      dup1\n      dup4\n      add\n      swap3\n      pop\n      pop\n      pop\n      pop\n      pop\n      pop\n      pop\n      dup2\n      mstore\n      0x20\n      add\n        /* \"contracts/GestorDeTareas.sol\":1456:1460  prio */\n      dup5\n        /* \"contracts/GestorDeTareas.sol\":1368:1631  Tarea({... */\n      0x03\n      dup2\n      gt\n      iszero\n      tag_219\n      jumpi\n      tag_220\n      tag_92\n      jump\t// in\n    tag_220:\n    tag_219:\n      dup2\n      mstore\n      0x20\n      add\n        /* \"contracts/GestorDeTareas.sol\":1483:1499  Estado.Pendiente */\n      0x00\n        /* \"contracts/GestorDeTareas.sol\":1368:1631  Tarea({... */\n      0x03\n      dup2\n      gt\n      iszero\n      tag_221\n      jumpi\n      tag_222\n      tag_92\n      jump\t// in\n    tag_222:\n    tag_221:\n      dup2\n      mstore\n      0x20\n      add\n        /* \"contracts/GestorDeTareas.sol\":1523:1533  msg.sender */\n      caller\n        /* \"contracts/GestorDeTareas.sol\":1368:1631  Tarea({... */\n      0xffffffffffffffffffffffffffffffffffffffff\n      and\n      dup2\n      mstore\n      0x20\n      add\n        /* \"contracts/GestorDeTareas.sol\":1576:1577  0 */\n      0x00\n        /* \"contracts/GestorDeTareas.sol\":1562:1578  new address[](0) */\n      0xffffffffffffffff\n      dup2\n      gt\n      iszero\n      tag_223\n      jumpi\n      tag_224\n      tag_104\n      jump\t// in\n    tag_224:\n    tag_223:\n      mload(0x40)\n      swap1\n      dup1\n      dup3\n      mstore\n      dup1\n      0x20\n      mul\n      0x20\n      add\n      dup3\n      add\n      0x40\n      mstore\n      dup1\n      iszero\n      tag_225\n      jumpi\n      dup2\n      0x20\n      add\n      0x20\n      dup3\n      mul\n      dup1\n      calldatasize\n      dup4\n      calldatacopy\n      dup1\n      dup3\n      add\n      swap2\n      pop\n      pop\n      swap1\n      pop\n    tag_225:\n      pop\n        /* \"contracts/GestorDeTareas.sol\":1368:1631  Tarea({... */\n      dup2\n      mstore\n      0x20\n      add\n        /* \"contracts/GestorDeTareas.sol\":1617:1618  0 */\n      0x00\n        /* \"contracts/GestorDeTareas.sol\":1604:1619  new string[](0) */\n      0xffffffffffffffff\n      dup2\n      gt\n      iszero\n      tag_226\n      jumpi\n      tag_227\n      tag_104\n      jump\t// in\n    tag_227:\n    tag_226:\n      mload(0x40)\n      swap1\n      dup1\n      dup3\n      mstore\n      dup1\n      0x20\n      mul\n      0x20\n      add\n      dup3\n      add\n      0x40\n      mstore\n      dup1\n      iszero\n      tag_228\n      jumpi\n      dup2\n      0x20\n      add\n    tag_229:\n      0x60\n      dup2\n      mstore\n      0x20\n      add\n      swap1\n      0x01\n      swap1\n      sub\n      swap1\n      dup2\n      tag_229\n      jumpi\n      swap1\n      pop\n    tag_228:\n      pop\n        /* \"contracts/GestorDeTareas.sol\":1368:1631  Tarea({... */\n      dup2\n      mstore\n      pop\n        /* \"contracts/GestorDeTareas.sol\":1351:1631  Tarea memory t = Tarea({... */\n      swap1\n      pop\n        /* \"contracts/GestorDeTareas.sol\":1642:1648  tareas */\n      0x00\n        /* \"contracts/GestorDeTareas.sol\":1654:1655  t */\n      dup2\n        /* \"contracts/GestorDeTareas.sol\":1642:1656  tareas.push(t) */\n      swap1\n      dup1\n      0x01\n      dup2\n      sload\n      add\n      dup1\n      dup3\n      sstore\n      dup1\n      swap2\n      pop\n      pop\n      0x01\n      swap1\n      sub\n      swap1\n      0x00\n      mstore\n      keccak256(0x00, 0x20)\n      swap1\n      0x05\n      mul\n      add\n      0x00\n      swap1\n      swap2\n      swap1\n      swap2\n      swap1\n      swap2\n      pop\n      0x00\n      dup3\n      add\n      mload\n      dup2\n      0x00\n      add\n      sstore\n      0x20\n      dup3\n      add\n      mload\n      dup2\n      0x01\n      add\n      swap1\n      dup2\n      tag_231\n      swap2\n      swap1\n      tag_232\n      jump\t// in\n    tag_231:\n      pop\n      0x40\n      dup3\n      add\n      mload\n      dup2\n      0x02\n      add\n      exp(0x0100, 0x00)\n      dup2\n      sload\n      dup2\n      0xff\n      mul\n      not\n      and\n      swap1\n      dup4\n      0x03\n      dup2\n      gt\n      iszero\n      tag_233\n      jumpi\n      tag_234\n      tag_92\n      jump\t// in\n    tag_234:\n    tag_233:\n      mul\n      or\n      swap1\n      sstore\n      pop\n      0x60\n      dup3\n      add\n      mload\n      dup2\n      0x02\n      add\n      exp(0x0100, 0x01)\n      dup2\n      sload\n      dup2\n      0xff\n      mul\n      not\n      and\n      swap1\n      dup4\n      0x03\n      dup2\n      gt\n      iszero\n      tag_235\n      jumpi\n      tag_236\n      tag_92\n      jump\t// in\n    tag_236:\n    tag_235:\n      mul\n      or\n      swap1\n      sstore\n      pop\n      0x80\n      dup3\n      add\n      mload\n      dup2\n      0x02\n      add\n      exp(0x0100, 0x02)\n      dup2\n      sload\n      dup2\n      0xffffffffffffffffffffffffffffffffffffffff\n      mul\n      not\n      and\n      swap1\n      dup4\n      0xffffffffffffffffffffffffffffffffffffffff\n      and\n      mul\n      or\n      swap1\n      sstore\n      pop\n      0xa0\n      dup3\n      add\n      mload\n      dup2\n      0x03\n      add\n      swap1\n      dup1\n      mload\n      swap1\n      0x20\n      add\n      swap1\n      tag_237\n      swap3\n      swap2\n      swap1\n      tag_238\n      jump\t// in\n    tag_237:\n      pop\n      0xc0\n      dup3\n      add\n      mload\n      dup2\n      0x04\n      add\n      swap1\n      dup1\n      mload\n      swap1\n      0x20\n      add\n      swap1\n      tag_239\n      swap3\n      swap2\n      swap1\n      tag_240\n      jump\t// in\n    tag_239:\n      pop\n      pop\n      pop\n        /* \"contracts/GestorDeTareas.sol\":1689:1690  1 */\n      0x01\n        /* \"contracts/GestorDeTareas.sol\":1673:1679  tareas */\n      0x00\n        /* \"contracts/GestorDeTareas.sol\":1673:1686  tareas.length */\n      dup1\n      sload\n      swap1\n      pop\n        /* \"contracts/GestorDeTareas.sol\":1673:1690  tareas.length - 1 */\n      tag_241\n      swap2\n      swap1\n      tag_242\n      jump\t// in\n    tag_241:\n        /* \"contracts/GestorDeTareas.sol\":1667:1690  idx = tareas.length - 1 */\n      swap2\n      pop\n        /* \"contracts/GestorDeTareas.sol\":1718:1721  idx */\n      dup2\n        /* \"contracts/GestorDeTareas.sol\":1706:1742  TareaCreada(idx, t.id, titulo, prio) */\n      0x8ff9a332a7752fd6bc1edf2506e125b6b53b6d1d2049dffba743455be4f91ebd\n        /* \"contracts/GestorDeTareas.sol\":1723:1724  t */\n      dup3\n        /* \"contracts/GestorDeTareas.sol\":1723:1727  t.id */\n      0x00\n      add\n      mload\n        /* \"contracts/GestorDeTareas.sol\":1729:1735  titulo */\n      dup8\n      dup8\n        /* \"contracts/GestorDeTareas.sol\":1737:1741  prio */\n      dup8\n        /* \"contracts/GestorDeTareas.sol\":1706:1742  TareaCreada(idx, t.id, titulo, prio) */\n      mload(0x40)\n      tag_243\n      swap5\n      swap4\n      swap3\n      swap2\n      swap1\n      tag_244\n      jump\t// in\n    tag_243:\n      mload(0x40)\n      dup1\n      swap2\n      sub\n      swap1\n      log2\n        /* \"contracts/GestorDeTareas.sol\":1340:1750  {... */\n      pop\n        /* \"contracts/GestorDeTareas.sol\":1252:1750  function crearTarea(string calldata titulo, Prioridad prio) external returns (uint idx) {... */\n      swap4\n      swap3\n      pop\n      pop\n      pop\n      jump\t// out\n        /* \"contracts/GestorDeTareas.sol\":3640:3811  function borrar(uint idx) external {... */\n    tag_85:\n        /* \"contracts/GestorDeTareas.sol\":3700:3706  tareas */\n      0x00\n        /* \"contracts/GestorDeTareas.sol\":3700:3713  tareas.length */\n      dup1\n      sload\n      swap1\n      pop\n        /* \"contracts/GestorDeTareas.sol\":3694:3697  idx */\n      dup2\n        /* \"contracts/GestorDeTareas.sol\":3694:3713  idx < tareas.length */\n      lt\n        /* \"contracts/GestorDeTareas.sol\":3686:3730  require(idx < tareas.length, \"idx invalido\") */\n      tag_246\n      jumpi\n      mload(0x40)\n      0x08c379a000000000000000000000000000000000000000000000000000000000\n      dup2\n      mstore\n      0x04\n      add\n      tag_247\n      swap1\n      tag_123\n      jump\t// in\n    tag_247:\n      mload(0x40)\n      dup1\n      swap2\n      sub\n      swap1\n      revert\n    tag_246:\n        /* \"contracts/GestorDeTareas.sol\":3748:3754  tareas */\n      0x00\n        /* \"contracts/GestorDeTareas.sol\":3755:3758  idx */\n      dup2\n        /* \"contracts/GestorDeTareas.sol\":3748:3759  tareas[idx] */\n      dup2\n      sload\n      dup2\n      lt\n      tag_248\n      jumpi\n      tag_249\n      tag_95\n      jump\t// in\n    tag_249:\n    tag_248:\n      swap1\n      0x00\n      mstore\n      keccak256(0x00, 0x20)\n      swap1\n      0x05\n      mul\n      add\n      0x00\n        /* \"contracts/GestorDeTareas.sol\":3741:3759  delete tareas[idx] */\n      0x00\n      dup3\n      add\n      0x00\n      swap1\n      sstore\n      0x01\n      dup3\n      add\n      0x00\n      tag_251\n      swap2\n      swap1\n      tag_145\n      jump\t// in\n    tag_251:\n      0x02\n      dup3\n      add\n      exp(0x0100, 0x00)\n      dup2\n      sload\n      swap1\n      0xff\n      mul\n      not\n      and\n      swap1\n      sstore\n      0x02\n      dup3\n      add\n      exp(0x0100, 0x01)\n      dup2\n      sload\n      swap1\n      0xff\n      mul\n      not\n      and\n      swap1\n      sstore\n      0x02\n      dup3\n      add\n      exp(0x0100, 0x02)\n      dup2\n      sload\n      swap1\n      0xffffffffffffffffffffffffffffffffffffffff\n      mul\n      not\n      and\n      swap1\n      sstore\n      0x03\n      dup3\n      add\n      0x00\n      tag_252\n      swap2\n      swap1\n      tag_147\n      jump\t// in\n    tag_252:\n      0x04\n      dup3\n      add\n      0x00\n      tag_253\n      swap2\n      swap1\n      tag_149\n      jump\t// in\n    tag_253:\n      pop\n      pop\n        /* \"contracts/GestorDeTareas.sol\":3640:3811  function borrar(uint idx) external {... */\n      pop\n      jump\t// out\n    tag_132:\n      mload(0x40)\n      dup1\n      0x60\n      add\n      0x40\n      mstore\n      dup1\n      0x03\n      swap1\n      0x20\n      dup3\n      mul\n      dup1\n      calldatasize\n      dup4\n      calldatacopy\n      dup1\n      dup3\n      add\n      swap2\n      pop\n      pop\n      swap1\n      pop\n      pop\n      swap1\n      jump\t// out\n    tag_145:\n      pop\n      dup1\n      sload\n      tag_254\n      swap1\n      tag_153\n      jump\t// in\n    tag_254:\n      0x00\n      dup3\n      sstore\n      dup1\n      0x1f\n      lt\n      tag_256\n      jumpi\n      pop\n      jump(tag_255)\n    tag_256:\n      0x1f\n      add\n      0x20\n      swap1\n      div\n      swap1\n      0x00\n      mstore\n      keccak256(0x00, 0x20)\n      swap1\n      dup2\n      add\n      swap1\n      tag_257\n      swap2\n      swap1\n      tag_258\n      jump\t// in\n    tag_257:\n    tag_255:\n      pop\n      jump\t// out\n    tag_147:\n      pop\n      dup1\n      sload\n      0x00\n      dup3\n      sstore\n      swap1\n      0x00\n      mstore\n      keccak256(0x00, 0x20)\n      swap1\n      dup2\n      add\n      swap1\n      tag_260\n      swap2\n      swap1\n      tag_258\n      jump\t// in\n    tag_260:\n      pop\n      jump\t// out\n    tag_149:\n      pop\n      dup1\n      sload\n      0x00\n      dup3\n      sstore\n      swap1\n      0x00\n      mstore\n      keccak256(0x00, 0x20)\n      swap1\n      dup2\n      add\n      swap1\n      tag_262\n      swap2\n      swap1\n      tag_263\n      jump\t// in\n    tag_262:\n      pop\n      jump\t// out\n    tag_160:\n      dup3\n      0x03\n      dup2\n      add\n      swap3\n      dup3\n      iszero\n      tag_264\n      jumpi\n      swap2\n      0x20\n      mul\n      dup3\n      add\n    tag_265:\n      dup3\n      dup2\n      gt\n      iszero\n      tag_266\n      jumpi\n      dup3\n      calldataload\n      dup3\n      sstore\n      swap2\n      0x20\n      add\n      swap2\n      swap1\n      0x01\n      add\n      swap1\n      jump(tag_265)\n    tag_266:\n    tag_264:\n      pop\n      swap1\n      pop\n      tag_267\n      swap2\n      swap1\n      tag_258\n      jump\t// in\n    tag_267:\n      pop\n      swap1\n      jump\t// out\n    tag_205:\n      dup3\n      dup1\n      sload\n      dup3\n      dup3\n      sstore\n      swap1\n      0x00\n      mstore\n      keccak256(0x00, 0x20)\n      swap1\n      dup2\n      add\n      swap3\n      dup3\n      iszero\n      tag_268\n      jumpi\n      swap2\n      0x20\n      mul\n      dup3\n      add\n    tag_269:\n      dup3\n      dup2\n      gt\n      iszero\n      tag_270\n      jumpi\n      dup3\n      calldataload\n      0xffffffffffffffffffffffffffffffffffffffff\n      and\n      dup3\n      exp(0x0100, 0x00)\n      dup2\n      sload\n      dup2\n      0xffffffffffffffffffffffffffffffffffffffff\n      mul\n      not\n      and\n      swap1\n      dup4\n      0xffffffffffffffffffffffffffffffffffffffff\n      and\n      mul\n      or\n      swap1\n      sstore\n      pop\n      swap2\n      0x20\n      add\n      swap2\n      swap1\n      0x01\n      add\n      swap1\n      jump(tag_269)\n    tag_270:\n    tag_268:\n      pop\n      swap1\n      pop\n      tag_271\n      swap2\n      swap1\n      tag_258\n      jump\t// in\n    tag_271:\n      pop\n      swap1\n      jump\t// out\n    tag_238:\n      dup3\n      dup1\n      sload\n      dup3\n      dup3\n      sstore\n      swap1\n      0x00\n      mstore\n      keccak256(0x00, 0x20)\n      swap1\n      dup2\n      add\n      swap3\n      dup3\n      iszero\n      tag_272\n      jumpi\n      swap2\n      0x20\n      mul\n      dup3\n      add\n    tag_273:\n      dup3\n      dup2\n      gt\n      iszero\n      tag_274\n      jumpi\n      dup3\n      mload\n      dup3\n      exp(0x0100, 0x00)\n      dup2\n      sload\n      dup2\n      0xffffffffffffffffffffffffffffffffffffffff\n      mul\n      not\n      and\n      swap1\n      dup4\n      0xffffffffffffffffffffffffffffffffffffffff\n      and\n      mul\n      or\n      swap1\n      sstore\n      pop\n      swap2\n      0x20\n      add\n      swap2\n      swap1\n      0x01\n      add\n      swap1\n      jump(tag_273)\n    tag_274:\n    tag_272:\n      pop\n      swap1\n      pop\n      tag_275\n      swap2\n      swap1\n      tag_258\n      jump\t// in\n    tag_275:\n      pop\n      swap1\n      jump\t// out\n    tag_240:\n      dup3\n      dup1\n      sload\n      dup3\n      dup3\n      sstore\n      swap1\n      0x00\n      mstore\n      keccak256(0x00, 0x20)\n      swap1\n      dup2\n      add\n      swap3\n      dup3\n      iszero\n      tag_276\n      jumpi\n      swap2\n      0x20\n      mul\n      dup3\n      add\n    tag_277:\n      dup3\n      dup2\n      gt\n      iszero\n      tag_278\n      jumpi\n      dup3\n      mload\n      dup3\n      swap1\n      dup2\n      tag_279\n      swap2\n      swap1\n      tag_232\n      jump\t// in\n    tag_279:\n      pop\n      swap2\n      0x20\n      add\n      swap2\n      swap1\n      0x01\n      add\n      swap1\n      jump(tag_277)\n    tag_278:\n    tag_276:\n      pop\n      swap1\n      pop\n      tag_280\n      swap2\n      swap1\n      tag_263\n      jump\t// in\n    tag_280:\n      pop\n      swap1\n      jump\t// out\n    tag_258:\n    tag_281:\n      dup1\n      dup3\n      gt\n      iszero\n      tag_282\n      jumpi\n      0x00\n      dup2\n      0x00\n      swap1\n      sstore\n      pop\n      0x01\n      add\n      jump(tag_281)\n    tag_282:\n      pop\n      swap1\n      jump\t// out\n    tag_263:\n    tag_283:\n      dup1\n      dup3\n      gt\n      iszero\n      tag_284\n      jumpi\n      0x00\n      dup2\n      dup2\n      tag_285\n      swap2\n      swap1\n      tag_145\n      jump\t// in\n    tag_285:\n      pop\n      0x01\n      add\n      jump(tag_283)\n    tag_284:\n      pop\n      swap1\n      jump\t// out\n        /* \"#utility.yul\":88:205   */\n    tag_287:\n        /* \"#utility.yul\":197:198   */\n      0x00\n        /* \"#utility.yul\":194:195   */\n      0x00\n        /* \"#utility.yul\":187:199   */\n      revert\n        /* \"#utility.yul\":211:328   */\n    tag_288:\n        /* \"#utility.yul\":320:321   */\n      0x00\n        /* \"#utility.yul\":317:318   */\n      0x00\n        /* \"#utility.yul\":310:322   */\n      revert\n        /* \"#utility.yul\":334:441   */\n    tag_289:\n        /* \"#utility.yul\":415:416   */\n      0x04\n        /* \"#utility.yul\":408:413   */\n      dup2\n        /* \"#utility.yul\":405:417   */\n      lt\n        /* \"#utility.yul\":395:435   */\n      tag_375\n      jumpi\n        /* \"#utility.yul\":431:432   */\n      0x00\n        /* \"#utility.yul\":428:429   */\n      0x00\n        /* \"#utility.yul\":421:433   */\n      revert\n        /* \"#utility.yul\":395:435   */\n    tag_375:\n        /* \"#utility.yul\":334:441   */\n      pop\n      jump\t// out\n        /* \"#utility.yul\":447:602   */\n    tag_290:\n        /* \"#utility.yul\":501:506   */\n      0x00\n        /* \"#utility.yul\":539:545   */\n      dup2\n        /* \"#utility.yul\":526:546   */\n      calldataload\n        /* \"#utility.yul\":517:546   */\n      swap1\n      pop\n        /* \"#utility.yul\":555:596   */\n      tag_377\n        /* \"#utility.yul\":590:595   */\n      dup2\n        /* \"#utility.yul\":555:596   */\n      tag_289\n      jump\t// in\n    tag_377:\n        /* \"#utility.yul\":447:602   */\n      swap3\n      swap2\n      pop\n      pop\n      jump\t// out\n        /* \"#utility.yul\":608:953   */\n    tag_23:\n        /* \"#utility.yul\":675:681   */\n      0x00\n        /* \"#utility.yul\":724:726   */\n      0x20\n        /* \"#utility.yul\":712:721   */\n      dup3\n        /* \"#utility.yul\":703:710   */\n      dup5\n        /* \"#utility.yul\":699:722   */\n      sub\n        /* \"#utility.yul\":695:727   */\n      slt\n        /* \"#utility.yul\":692:811   */\n      iszero\n      tag_379\n      jumpi\n        /* \"#utility.yul\":730:809   */\n      tag_380\n      tag_287\n      jump\t// in\n    tag_380:\n        /* \"#utility.yul\":692:811   */\n    tag_379:\n        /* \"#utility.yul\":850:851   */\n      0x00\n        /* \"#utility.yul\":875:936   */\n      tag_381\n        /* \"#utility.yul\":928:935   */\n      dup5\n        /* \"#utility.yul\":919:925   */\n      dup3\n        /* \"#utility.yul\":908:917   */\n      dup6\n        /* \"#utility.yul\":904:926   */\n      add\n        /* \"#utility.yul\":875:936   */\n      tag_290\n      jump\t// in\n    tag_381:\n        /* \"#utility.yul\":865:936   */\n      swap2\n      pop\n        /* \"#utility.yul\":821:946   */\n      pop\n        /* \"#utility.yul\":608:953   */\n      swap3\n      swap2\n      pop\n      pop\n      jump\t// out\n        /* \"#utility.yul\":959:1073   */\n    tag_291:\n        /* \"#utility.yul\":1026:1032   */\n      0x00\n        /* \"#utility.yul\":1060:1065   */\n      dup2\n        /* \"#utility.yul\":1054:1066   */\n      mload\n        /* \"#utility.yul\":1044:1066   */\n      swap1\n      pop\n        /* \"#utility.yul\":959:1073   */\n      swap2\n      swap1\n      pop\n      jump\t// out\n        /* \"#utility.yul\":1079:1263   */\n    tag_292:\n        /* \"#utility.yul\":1178:1189   */\n      0x00\n        /* \"#utility.yul\":1212:1218   */\n      dup3\n        /* \"#utility.yul\":1207:1210   */\n      dup3\n        /* \"#utility.yul\":1200:1219   */\n      mstore\n        /* \"#utility.yul\":1252:1256   */\n      0x20\n        /* \"#utility.yul\":1247:1250   */\n      dup3\n        /* \"#utility.yul\":1243:1257   */\n      add\n        /* \"#utility.yul\":1228:1257   */\n      swap1\n      pop\n        /* \"#utility.yul\":1079:1263   */\n      swap3\n      swap2\n      pop\n      pop\n      jump\t// out\n        /* \"#utility.yul\":1269:1401   */\n    tag_293:\n        /* \"#utility.yul\":1336:1340   */\n      0x00\n        /* \"#utility.yul\":1359:1362   */\n      dup2\n        /* \"#utility.yul\":1351:1362   */\n      swap1\n      pop\n        /* \"#utility.yul\":1389:1393   */\n      0x20\n        /* \"#utility.yul\":1384:1387   */\n      dup3\n        /* \"#utility.yul\":1380:1394   */\n      add\n        /* \"#utility.yul\":1372:1394   */\n      swap1\n      pop\n        /* \"#utility.yul\":1269:1401   */\n      swap2\n      swap1\n      pop\n      jump\t// out\n        /* \"#utility.yul\":1407:1484   */\n    tag_294:\n        /* \"#utility.yul\":1444:1451   */\n      0x00\n        /* \"#utility.yul\":1473:1478   */\n      dup2\n        /* \"#utility.yul\":1462:1478   */\n      swap1\n      pop\n        /* \"#utility.yul\":1407:1484   */\n      swap2\n      swap1\n      pop\n      jump\t// out\n        /* \"#utility.yul\":1490:1598   */\n    tag_295:\n        /* \"#utility.yul\":1567:1591   */\n      tag_387\n        /* \"#utility.yul\":1585:1590   */\n      dup2\n        /* \"#utility.yul\":1567:1591   */\n      tag_294\n      jump\t// in\n    tag_387:\n        /* \"#utility.yul\":1562:1565   */\n      dup3\n        /* \"#utility.yul\":1555:1592   */\n      mstore\n        /* \"#utility.yul\":1490:1598   */\n      pop\n      pop\n      jump\t// out\n        /* \"#utility.yul\":1604:1783   */\n    tag_296:\n        /* \"#utility.yul\":1673:1683   */\n      0x00\n        /* \"#utility.yul\":1694:1740   */\n      tag_389\n        /* \"#utility.yul\":1736:1739   */\n      dup4\n        /* \"#utility.yul\":1728:1734   */\n      dup4\n        /* \"#utility.yul\":1694:1740   */\n      tag_295\n      jump\t// in\n    tag_389:\n        /* \"#utility.yul\":1772:1776   */\n      0x20\n        /* \"#utility.yul\":1767:1770   */\n      dup4\n        /* \"#utility.yul\":1763:1777   */\n      add\n        /* \"#utility.yul\":1749:1777   */\n      swap1\n      pop\n        /* \"#utility.yul\":1604:1783   */\n      swap3\n      swap2\n      pop\n      pop\n      jump\t// out\n        /* \"#utility.yul\":1789:1902   */\n    tag_297:\n        /* \"#utility.yul\":1859:1863   */\n      0x00\n        /* \"#utility.yul\":1891:1895   */\n      0x20\n        /* \"#utility.yul\":1886:1889   */\n      dup3\n        /* \"#utility.yul\":1882:1896   */\n      add\n        /* \"#utility.yul\":1874:1896   */\n      swap1\n      pop\n        /* \"#utility.yul\":1789:1902   */\n      swap2\n      swap1\n      pop\n      jump\t// out\n        /* \"#utility.yul\":1938:2670   */\n    tag_298:\n        /* \"#utility.yul\":2057:2060   */\n      0x00\n        /* \"#utility.yul\":2086:2140   */\n      tag_392\n        /* \"#utility.yul\":2134:2139   */\n      dup3\n        /* \"#utility.yul\":2086:2140   */\n      tag_291\n      jump\t// in\n    tag_392:\n        /* \"#utility.yul\":2156:2242   */\n      tag_393\n        /* \"#utility.yul\":2235:2241   */\n      dup2\n        /* \"#utility.yul\":2230:2233   */\n      dup6\n        /* \"#utility.yul\":2156:2242   */\n      tag_292\n      jump\t// in\n    tag_393:\n        /* \"#utility.yul\":2149:2242   */\n      swap4\n      pop\n        /* \"#utility.yul\":2266:2322   */\n      tag_394\n        /* \"#utility.yul\":2316:2321   */\n      dup4\n        /* \"#utility.yul\":2266:2322   */\n      tag_293\n      jump\t// in\n    tag_394:\n        /* \"#utility.yul\":2345:2352   */\n      dup1\n        /* \"#utility.yul\":2376:2377   */\n      0x00\n        /* \"#utility.yul\":2361:2645   */\n    tag_395:\n        /* \"#utility.yul\":2386:2392   */\n      dup4\n        /* \"#utility.yul\":2383:2384   */\n      dup2\n        /* \"#utility.yul\":2380:2393   */\n      lt\n        /* \"#utility.yul\":2361:2645   */\n      iszero\n      tag_397\n      jumpi\n        /* \"#utility.yul\":2462:2468   */\n      dup2\n        /* \"#utility.yul\":2456:2469   */\n      mload\n        /* \"#utility.yul\":2489:2552   */\n      tag_398\n        /* \"#utility.yul\":2548:2551   */\n      dup9\n        /* \"#utility.yul\":2533:2546   */\n      dup3\n        /* \"#utility.yul\":2489:2552   */\n      tag_296\n      jump\t// in\n    tag_398:\n        /* \"#utility.yul\":2482:2552   */\n      swap8\n      pop\n        /* \"#utility.yul\":2575:2635   */\n      tag_399\n        /* \"#utility.yul\":2628:2634   */\n      dup4\n        /* \"#utility.yul\":2575:2635   */\n      tag_297\n      jump\t// in\n    tag_399:\n        /* \"#utility.yul\":2565:2635   */\n      swap3\n      pop\n        /* \"#utility.yul\":2421:2645   */\n      pop\n        /* \"#utility.yul\":2408:2409   */\n      0x01\n        /* \"#utility.yul\":2405:2406   */\n      dup2\n        /* \"#utility.yul\":2401:2410   */\n      add\n        /* \"#utility.yul\":2396:2410   */\n      swap1\n      pop\n        /* \"#utility.yul\":2361:2645   */\n      jump(tag_395)\n    tag_397:\n        /* \"#utility.yul\":2365:2379   */\n      pop\n        /* \"#utility.yul\":2661:2664   */\n      dup6\n        /* \"#utility.yul\":2654:2664   */\n      swap4\n      pop\n        /* \"#utility.yul\":2062:2670   */\n      pop\n      pop\n      pop\n        /* \"#utility.yul\":1938:2670   */\n      swap3\n      swap2\n      pop\n      pop\n      jump\t// out\n        /* \"#utility.yul\":2676:3049   */\n    tag_26:\n        /* \"#utility.yul\":2819:2823   */\n      0x00\n        /* \"#utility.yul\":2857:2859   */\n      0x20\n        /* \"#utility.yul\":2846:2855   */\n      dup3\n        /* \"#utility.yul\":2842:2860   */\n      add\n        /* \"#utility.yul\":2834:2860   */\n      swap1\n      pop\n        /* \"#utility.yul\":2906:2915   */\n      dup2\n        /* \"#utility.yul\":2900:2904   */\n      dup2\n        /* \"#utility.yul\":2896:2916   */\n      sub\n        /* \"#utility.yul\":2892:2893   */\n      0x00\n        /* \"#utility.yul\":2881:2890   */\n      dup4\n        /* \"#utility.yul\":2877:2894   */\n      add\n        /* \"#utility.yul\":2870:2917   */\n      mstore\n        /* \"#utility.yul\":2934:3042   */\n      tag_401\n        /* \"#utility.yul\":3037:3041   */\n      dup2\n        /* \"#utility.yul\":3028:3034   */\n      dup5\n        /* \"#utility.yul\":2934:3042   */\n      tag_298\n      jump\t// in\n    tag_401:\n        /* \"#utility.yul\":2926:3042   */\n      swap1\n      pop\n        /* \"#utility.yul\":2676:3049   */\n      swap3\n      swap2\n      pop\n      pop\n      jump\t// out\n        /* \"#utility.yul\":3055:3177   */\n    tag_299:\n        /* \"#utility.yul\":3128:3152   */\n      tag_403\n        /* \"#utility.yul\":3146:3151   */\n      dup2\n        /* \"#utility.yul\":3128:3152   */\n      tag_294\n      jump\t// in\n    tag_403:\n        /* \"#utility.yul\":3121:3126   */\n      dup2\n        /* \"#utility.yul\":3118:3153   */\n      eq\n        /* \"#utility.yul\":3108:3171   */\n      tag_404\n      jumpi\n        /* \"#utility.yul\":3167:3168   */\n      0x00\n        /* \"#utility.yul\":3164:3165   */\n      0x00\n        /* \"#utility.yul\":3157:3169   */\n      revert\n        /* \"#utility.yul\":3108:3171   */\n    tag_404:\n        /* \"#utility.yul\":3055:3177   */\n      pop\n      jump\t// out\n        /* \"#utility.yul\":3183:3322   */\n    tag_300:\n        /* \"#utility.yul\":3229:3234   */\n      0x00\n        /* \"#utility.yul\":3267:3273   */\n      dup2\n        /* \"#utility.yul\":3254:3274   */\n      calldataload\n        /* \"#utility.yul\":3245:3274   */\n      swap1\n      pop\n        /* \"#utility.yul\":3283:3316   */\n      tag_406\n        /* \"#utility.yul\":3310:3315   */\n      dup2\n        /* \"#utility.yul\":3283:3316   */\n      tag_299\n      jump\t// in\n    tag_406:\n        /* \"#utility.yul\":3183:3322   */\n      swap3\n      swap2\n      pop\n      pop\n      jump\t// out\n        /* \"#utility.yul\":3328:3818   */\n    tag_29:\n        /* \"#utility.yul\":3404:3410   */\n      0x00\n        /* \"#utility.yul\":3412:3418   */\n      0x00\n        /* \"#utility.yul\":3461:3463   */\n      0x40\n        /* \"#utility.yul\":3449:3458   */\n      dup4\n        /* \"#utility.yul\":3440:3447   */\n      dup6\n        /* \"#utility.yul\":3436:3459   */\n      sub\n        /* \"#utility.yul\":3432:3464   */\n      slt\n        /* \"#utility.yul\":3429:3548   */\n      iszero\n      tag_408\n      jumpi\n        /* \"#utility.yul\":3467:3546   */\n      tag_409\n      tag_287\n      jump\t// in\n    tag_409:\n        /* \"#utility.yul\":3429:3548   */\n    tag_408:\n        /* \"#utility.yul\":3587:3588   */\n      0x00\n        /* \"#utility.yul\":3612:3665   */\n      tag_410\n        /* \"#utility.yul\":3657:3664   */\n      dup6\n        /* \"#utility.yul\":3648:3654   */\n      dup3\n        /* \"#utility.yul\":3637:3646   */\n      dup7\n        /* \"#utility.yul\":3633:3655   */\n      add\n        /* \"#utility.yul\":3612:3665   */\n      tag_300\n      jump\t// in\n    tag_410:\n        /* \"#utility.yul\":3602:3665   */\n      swap3\n      pop\n        /* \"#utility.yul\":3558:3675   */\n      pop\n        /* \"#utility.yul\":3714:3716   */\n      0x20\n        /* \"#utility.yul\":3740:3801   */\n      tag_411\n        /* \"#utility.yul\":3793:3800   */\n      dup6\n        /* \"#utility.yul\":3784:3790   */\n      dup3\n        /* \"#utility.yul\":3773:3782   */\n      dup7\n        /* \"#utility.yul\":3769:3791   */\n      add\n        /* \"#utility.yul\":3740:3801   */\n      tag_290\n      jump\t// in\n    tag_411:\n        /* \"#utility.yul\":3730:3801   */\n      swap2\n      pop\n        /* \"#utility.yul\":3685:3811   */\n      pop\n        /* \"#utility.yul\":3328:3818   */\n      swap3\n      pop\n      swap3\n      swap1\n      pop\n      jump\t// out\n        /* \"#utility.yul\":3824:3928   */\n    tag_301:\n        /* \"#utility.yul\":3889:3895   */\n      0x00\n        /* \"#utility.yul\":3917:3921   */\n      0x03\n        /* \"#utility.yul\":3907:3921   */\n      swap1\n      pop\n        /* \"#utility.yul\":3824:3928   */\n      swap2\n      swap1\n      pop\n      jump\t// out\n        /* \"#utility.yul\":3934:4077   */\n    tag_302:\n        /* \"#utility.yul\":4031:4042   */\n      0x00\n        /* \"#utility.yul\":4068:4071   */\n      dup2\n        /* \"#utility.yul\":4053:4071   */\n      swap1\n      pop\n        /* \"#utility.yul\":3934:4077   */\n      swap3\n      swap2\n      pop\n      pop\n      jump\t// out\n        /* \"#utility.yul\":4083:4181   */\n    tag_303:\n        /* \"#utility.yul\":4148:4152   */\n      0x00\n        /* \"#utility.yul\":4171:4174   */\n      dup2\n        /* \"#utility.yul\":4163:4174   */\n      swap1\n      pop\n        /* \"#utility.yul\":4083:4181   */\n      swap2\n      swap1\n      pop\n      jump\t// out\n        /* \"#utility.yul\":4187:4298   */\n    tag_304:\n        /* \"#utility.yul\":4255:4259   */\n      0x00\n        /* \"#utility.yul\":4287:4291   */\n      0x20\n        /* \"#utility.yul\":4282:4285   */\n      dup3\n        /* \"#utility.yul\":4278:4292   */\n      add\n        /* \"#utility.yul\":4270:4292   */\n      swap1\n      pop\n        /* \"#utility.yul\":4187:4298   */\n      swap2\n      swap1\n      pop\n      jump\t// out\n        /* \"#utility.yul\":4336:5030   */\n    tag_305:\n        /* \"#utility.yul\":4472:4524   */\n      tag_417\n        /* \"#utility.yul\":4518:4523   */\n      dup2\n        /* \"#utility.yul\":4472:4524   */\n      tag_301\n      jump\t// in\n    tag_417:\n        /* \"#utility.yul\":4540:4624   */\n      tag_418\n        /* \"#utility.yul\":4617:4623   */\n      dup2\n        /* \"#utility.yul\":4612:4615   */\n      dup5\n        /* \"#utility.yul\":4540:4624   */\n      tag_302\n      jump\t// in\n    tag_418:\n        /* \"#utility.yul\":4533:4624   */\n      swap3\n      pop\n        /* \"#utility.yul\":4648:4702   */\n      tag_419\n        /* \"#utility.yul\":4696:4701   */\n      dup3\n        /* \"#utility.yul\":4648:4702   */\n      tag_303\n      jump\t// in\n    tag_419:\n        /* \"#utility.yul\":4725:4732   */\n      dup1\n        /* \"#utility.yul\":4756:4757   */\n      0x00\n        /* \"#utility.yul\":4741:5023   */\n    tag_420:\n        /* \"#utility.yul\":4766:4772   */\n      dup4\n        /* \"#utility.yul\":4763:4764   */\n      dup2\n        /* \"#utility.yul\":4760:4773   */\n      lt\n        /* \"#utility.yul\":4741:5023   */\n      iszero\n      tag_422\n      jumpi\n        /* \"#utility.yul\":4842:4848   */\n      dup2\n        /* \"#utility.yul\":4836:4849   */\n      mload\n        /* \"#utility.yul\":4869:4932   */\n      tag_423\n        /* \"#utility.yul\":4928:4931   */\n      dup8\n        /* \"#utility.yul\":4913:4926   */\n      dup3\n        /* \"#utility.yul\":4869:4932   */\n      tag_296\n      jump\t// in\n    tag_423:\n        /* \"#utility.yul\":4862:4932   */\n      swap7\n      pop\n        /* \"#utility.yul\":4955:5013   */\n      tag_424\n        /* \"#utility.yul\":5006:5012   */\n      dup4\n        /* \"#utility.yul\":4955:5013   */\n      tag_304\n      jump\t// in\n    tag_424:\n        /* \"#utility.yul\":4945:5013   */\n      swap3\n      pop\n        /* \"#utility.yul\":4801:5023   */\n      pop\n        /* \"#utility.yul\":4788:4789   */\n      0x01\n        /* \"#utility.yul\":4785:4786   */\n      dup2\n        /* \"#utility.yul\":4781:4790   */\n      add\n        /* \"#utility.yul\":4776:4790   */\n      swap1\n      pop\n        /* \"#utility.yul\":4741:5023   */\n      jump(tag_420)\n    tag_422:\n        /* \"#utility.yul\":4745:4759   */\n      pop\n        /* \"#utility.yul\":4448:5030   */\n      pop\n      pop\n      pop\n        /* \"#utility.yul\":4336:5030   */\n      pop\n      pop\n      jump\t// out\n        /* \"#utility.yul\":5036:5350   */\n    tag_34:\n        /* \"#utility.yul\":5175:5179   */\n      0x00\n        /* \"#utility.yul\":5213:5215   */\n      0x60\n        /* \"#utility.yul\":5202:5211   */\n      dup3\n        /* \"#utility.yul\":5198:5216   */\n      add\n        /* \"#utility.yul\":5190:5216   */\n      swap1\n      pop\n        /* \"#utility.yul\":5226:5343   */\n      tag_426\n        /* \"#utility.yul\":5340:5341   */\n      0x00\n        /* \"#utility.yul\":5329:5338   */\n      dup4\n        /* \"#utility.yul\":5325:5342   */\n      add\n        /* \"#utility.yul\":5316:5322   */\n      dup5\n        /* \"#utility.yul\":5226:5343   */\n      tag_305\n      jump\t// in\n    tag_426:\n        /* \"#utility.yul\":5036:5350   */\n      swap3\n      swap2\n      pop\n      pop\n      jump\t// out\n        /* \"#utility.yul\":5356:5685   */\n    tag_39:\n        /* \"#utility.yul\":5415:5421   */\n      0x00\n        /* \"#utility.yul\":5464:5466   */\n      0x20\n        /* \"#utility.yul\":5452:5461   */\n      dup3\n        /* \"#utility.yul\":5443:5450   */\n      dup5\n        /* \"#utility.yul\":5439:5462   */\n      sub\n        /* \"#utility.yul\":5435:5467   */\n      slt\n        /* \"#utility.yul\":5432:5551   */\n      iszero\n      tag_428\n      jumpi\n        /* \"#utility.yul\":5470:5549   */\n      tag_429\n      tag_287\n      jump\t// in\n    tag_429:\n        /* \"#utility.yul\":5432:5551   */\n    tag_428:\n        /* \"#utility.yul\":5590:5591   */\n      0x00\n        /* \"#utility.yul\":5615:5668   */\n      tag_430\n        /* \"#utility.yul\":5660:5667   */\n      dup5\n        /* \"#utility.yul\":5651:5657   */\n      dup3\n        /* \"#utility.yul\":5640:5649   */\n      dup6\n        /* \"#utility.yul\":5636:5658   */\n      add\n        /* \"#utility.yul\":5615:5668   */\n      tag_300\n      jump\t// in\n    tag_430:\n        /* \"#utility.yul\":5605:5668   */\n      swap2\n      pop\n        /* \"#utility.yul\":5561:5678   */\n      pop\n        /* \"#utility.yul\":5356:5685   */\n      swap3\n      swap2\n      pop\n      pop\n      jump\t// out\n        /* \"#utility.yul\":5691:5809   */\n    tag_306:\n        /* \"#utility.yul\":5778:5802   */\n      tag_432\n        /* \"#utility.yul\":5796:5801   */\n      dup2\n        /* \"#utility.yul\":5778:5802   */\n      tag_294\n      jump\t// in\n    tag_432:\n        /* \"#utility.yul\":5773:5776   */\n      dup3\n        /* \"#utility.yul\":5766:5803   */\n      mstore\n        /* \"#utility.yul\":5691:5809   */\n      pop\n      pop\n      jump\t// out\n        /* \"#utility.yul\":5815:5914   */\n    tag_307:\n        /* \"#utility.yul\":5867:5873   */\n      0x00\n        /* \"#utility.yul\":5901:5906   */\n      dup2\n        /* \"#utility.yul\":5895:5907   */\n      mload\n        /* \"#utility.yul\":5885:5907   */\n      swap1\n      pop\n        /* \"#utility.yul\":5815:5914   */\n      swap2\n      swap1\n      pop\n      jump\t// out\n        /* \"#utility.yul\":5920:6089   */\n    tag_308:\n        /* \"#utility.yul\":6004:6015   */\n      0x00\n        /* \"#utility.yul\":6038:6044   */\n      dup3\n        /* \"#utility.yul\":6033:6036   */\n      dup3\n        /* \"#utility.yul\":6026:6045   */\n      mstore\n        /* \"#utility.yul\":6078:6082   */\n      0x20\n        /* \"#utility.yul\":6073:6076   */\n      dup3\n        /* \"#utility.yul\":6069:6083   */\n      add\n        /* \"#utility.yul\":6054:6083   */\n      swap1\n      pop\n        /* \"#utility.yul\":5920:6089   */\n      swap3\n      swap2\n      pop\n      pop\n      jump\t// out\n        /* \"#utility.yul\":6095:6234   */\n    tag_309:\n        /* \"#utility.yul\":6184:6190   */\n      dup3\n        /* \"#utility.yul\":6179:6182   */\n      dup2\n        /* \"#utility.yul\":6174:6177   */\n      dup4\n        /* \"#utility.yul\":6168:6191   */\n      mcopy\n        /* \"#utility.yul\":6225:6226   */\n      0x00\n        /* \"#utility.yul\":6216:6222   */\n      dup4\n        /* \"#utility.yul\":6211:6214   */\n      dup4\n        /* \"#utility.yul\":6207:6223   */\n      add\n        /* \"#utility.yul\":6200:6227   */\n      mstore\n        /* \"#utility.yul\":6095:6234   */\n      pop\n      pop\n      pop\n      jump\t// out\n        /* \"#utility.yul\":6240:6342   */\n    tag_310:\n        /* \"#utility.yul\":6281:6287   */\n      0x00\n        /* \"#utility.yul\":6332:6334   */\n      0x1f\n        /* \"#utility.yul\":6328:6335   */\n      not\n        /* \"#utility.yul\":6323:6325   */\n      0x1f\n        /* \"#utility.yul\":6316:6321   */\n      dup4\n        /* \"#utility.yul\":6312:6326   */\n      add\n        /* \"#utility.yul\":6308:6336   */\n      and\n        /* \"#utility.yul\":6298:6336   */\n      swap1\n      pop\n        /* \"#utility.yul\":6240:6342   */\n      swap2\n      swap1\n      pop\n      jump\t// out\n        /* \"#utility.yul\":6348:6725   */\n    tag_311:\n        /* \"#utility.yul\":6436:6439   */\n      0x00\n        /* \"#utility.yul\":6464:6503   */\n      tag_438\n        /* \"#utility.yul\":6497:6502   */\n      dup3\n        /* \"#utility.yul\":6464:6503   */\n      tag_307\n      jump\t// in\n    tag_438:\n        /* \"#utility.yul\":6519:6590   */\n      tag_439\n        /* \"#utility.yul\":6583:6589   */\n      dup2\n        /* \"#utility.yul\":6578:6581   */\n      dup6\n        /* \"#utility.yul\":6519:6590   */\n      tag_308\n      jump\t// in\n    tag_439:\n        /* \"#utility.yul\":6512:6590   */\n      swap4\n      pop\n        /* \"#utility.yul\":6599:6664   */\n      tag_440\n        /* \"#utility.yul\":6657:6663   */\n      dup2\n        /* \"#utility.yul\":6652:6655   */\n      dup6\n        /* \"#utility.yul\":6645:6649   */\n      0x20\n        /* \"#utility.yul\":6638:6643   */\n      dup7\n        /* \"#utility.yul\":6634:6650   */\n      add\n        /* \"#utility.yul\":6599:6664   */\n      tag_309\n      jump\t// in\n    tag_440:\n        /* \"#utility.yul\":6689:6718   */\n      tag_441\n        /* \"#utility.yul\":6711:6717   */\n      dup2\n        /* \"#utility.yul\":6689:6718   */\n      tag_310\n      jump\t// in\n    tag_441:\n        /* \"#utility.yul\":6684:6687   */\n      dup5\n        /* \"#utility.yul\":6680:6719   */\n      add\n        /* \"#utility.yul\":6673:6719   */\n      swap2\n      pop\n        /* \"#utility.yul\":6440:6725   */\n      pop\n        /* \"#utility.yul\":6348:6725   */\n      swap3\n      swap2\n      pop\n      pop\n      jump\t// out\n        /* \"#utility.yul\":6731:6911   */\n    tag_92:\n        /* \"#utility.yul\":6779:6856   */\n      0x4e487b7100000000000000000000000000000000000000000000000000000000\n        /* \"#utility.yul\":6776:6777   */\n      0x00\n        /* \"#utility.yul\":6769:6857   */\n      mstore\n        /* \"#utility.yul\":6876:6880   */\n      0x21\n        /* \"#utility.yul\":6873:6874   */\n      0x04\n        /* \"#utility.yul\":6866:6881   */\n      mstore\n        /* \"#utility.yul\":6900:6904   */\n      0x24\n        /* \"#utility.yul\":6897:6898   */\n      0x00\n        /* \"#utility.yul\":6890:6905   */\n      revert\n        /* \"#utility.yul\":6917:7034   */\n    tag_312:\n        /* \"#utility.yul\":7002:7003   */\n      0x04\n        /* \"#utility.yul\":6995:7000   */\n      dup2\n        /* \"#utility.yul\":6992:7004   */\n      lt\n        /* \"#utility.yul\":6982:7028   */\n      tag_444\n      jumpi\n        /* \"#utility.yul\":7008:7026   */\n      tag_445\n      tag_92\n      jump\t// in\n    tag_445:\n        /* \"#utility.yul\":6982:7028   */\n    tag_444:\n        /* \"#utility.yul\":6917:7034   */\n      pop\n      jump\t// out\n        /* \"#utility.yul\":7040:7175   */\n    tag_313:\n        /* \"#utility.yul\":7089:7096   */\n      0x00\n        /* \"#utility.yul\":7118:7123   */\n      dup2\n        /* \"#utility.yul\":7107:7123   */\n      swap1\n      pop\n        /* \"#utility.yul\":7124:7169   */\n      tag_447\n        /* \"#utility.yul\":7163:7168   */\n      dup3\n        /* \"#utility.yul\":7124:7169   */\n      tag_312\n      jump\t// in\n    tag_447:\n        /* \"#utility.yul\":7040:7175   */\n      swap2\n      swap1\n      pop\n      jump\t// out\n        /* \"#utility.yul\":7181:7316   */\n    tag_314:\n        /* \"#utility.yul\":7241:7250   */\n      0x00\n        /* \"#utility.yul\":7274:7310   */\n      tag_449\n        /* \"#utility.yul\":7304:7309   */\n      dup3\n        /* \"#utility.yul\":7274:7310   */\n      tag_313\n      jump\t// in\n    tag_449:\n        /* \"#utility.yul\":7261:7310   */\n      swap1\n      pop\n        /* \"#utility.yul\":7181:7316   */\n      swap2\n      swap1\n      pop\n      jump\t// out\n        /* \"#utility.yul\":7322:7473   */\n    tag_315:\n        /* \"#utility.yul\":7419:7466   */\n      tag_451\n        /* \"#utility.yul\":7460:7465   */\n      dup2\n        /* \"#utility.yul\":7419:7466   */\n      tag_314\n      jump\t// in\n    tag_451:\n        /* \"#utility.yul\":7414:7417   */\n      dup3\n        /* \"#utility.yul\":7407:7467   */\n      mstore\n        /* \"#utility.yul\":7322:7473   */\n      pop\n      pop\n      jump\t// out\n        /* \"#utility.yul\":7479:7592   */\n    tag_316:\n        /* \"#utility.yul\":7560:7561   */\n      0x04\n        /* \"#utility.yul\":7553:7558   */\n      dup2\n        /* \"#utility.yul\":7550:7562   */\n      lt\n        /* \"#utility.yul\":7540:7586   */\n      tag_453\n      jumpi\n        /* \"#utility.yul\":7566:7584   */\n      tag_454\n      tag_92\n      jump\t// in\n    tag_454:\n        /* \"#utility.yul\":7540:7586   */\n    tag_453:\n        /* \"#utility.yul\":7479:7592   */\n      pop\n      jump\t// out\n        /* \"#utility.yul\":7598:7725   */\n    tag_317:\n        /* \"#utility.yul\":7643:7650   */\n      0x00\n        /* \"#utility.yul\":7672:7677   */\n      dup2\n        /* \"#utility.yul\":7661:7677   */\n      swap1\n      pop\n        /* \"#utility.yul\":7678:7719   */\n      tag_456\n        /* \"#utility.yul\":7713:7718   */\n      dup3\n        /* \"#utility.yul\":7678:7719   */\n      tag_316\n      jump\t// in\n    tag_456:\n        /* \"#utility.yul\":7598:7725   */\n      swap2\n      swap1\n      pop\n      jump\t// out\n        /* \"#utility.yul\":7731:7858   */\n    tag_318:\n        /* \"#utility.yul\":7787:7796   */\n      0x00\n        /* \"#utility.yul\":7820:7852   */\n      tag_458\n        /* \"#utility.yul\":7846:7851   */\n      dup3\n        /* \"#utility.yul\":7820:7852   */\n      tag_317\n      jump\t// in\n    tag_458:\n        /* \"#utility.yul\":7807:7852   */\n      swap1\n      pop\n        /* \"#utility.yul\":7731:7858   */\n      swap2\n      swap1\n      pop\n      jump\t// out\n        /* \"#utility.yul\":7864:8007   */\n    tag_319:\n        /* \"#utility.yul\":7957:8000   */\n      tag_460\n        /* \"#utility.yul\":7994:7999   */\n      dup2\n        /* \"#utility.yul\":7957:8000   */\n      tag_318\n      jump\t// in\n    tag_460:\n        /* \"#utility.yul\":7952:7955   */\n      dup3\n        /* \"#utility.yul\":7945:8001   */\n      mstore\n        /* \"#utility.yul\":7864:8007   */\n      pop\n      pop\n      jump\t// out\n        /* \"#utility.yul\":8013:8139   */\n    tag_320:\n        /* \"#utility.yul\":8050:8057   */\n      0x00\n        /* \"#utility.yul\":8090:8132   */\n      0xffffffffffffffffffffffffffffffffffffffff\n        /* \"#utility.yul\":8083:8088   */\n      dup3\n        /* \"#utility.yul\":8079:8133   */\n      and\n        /* \"#utility.yul\":8068:8133   */\n      swap1\n      pop\n        /* \"#utility.yul\":8013:8139   */\n      swap2\n      swap1\n      pop\n      jump\t// out\n        /* \"#utility.yul\":8145:8241   */\n    tag_321:\n        /* \"#utility.yul\":8182:8189   */\n      0x00\n        /* \"#utility.yul\":8211:8235   */\n      tag_463\n        /* \"#utility.yul\":8229:8234   */\n      dup3\n        /* \"#utility.yul\":8211:8235   */\n      tag_320\n      jump\t// in\n    tag_463:\n        /* \"#utility.yul\":8200:8235   */\n      swap1\n      pop\n        /* \"#utility.yul\":8145:8241   */\n      swap2\n      swap1\n      pop\n      jump\t// out\n        /* \"#utility.yul\":8247:8365   */\n    tag_322:\n        /* \"#utility.yul\":8334:8358   */\n      tag_465\n        /* \"#utility.yul\":8352:8357   */\n      dup2\n        /* \"#utility.yul\":8334:8358   */\n      tag_321\n      jump\t// in\n    tag_465:\n        /* \"#utility.yul\":8329:8332   */\n      dup3\n        /* \"#utility.yul\":8322:8359   */\n      mstore\n        /* \"#utility.yul\":8247:8365   */\n      pop\n      pop\n      jump\t// out\n        /* \"#utility.yul\":8371:9158   */\n    tag_42:\n        /* \"#utility.yul\":8612:8616   */\n      0x00\n        /* \"#utility.yul\":8650:8653   */\n      0xa0\n        /* \"#utility.yul\":8639:8648   */\n      dup3\n        /* \"#utility.yul\":8635:8654   */\n      add\n        /* \"#utility.yul\":8627:8654   */\n      swap1\n      pop\n        /* \"#utility.yul\":8664:8735   */\n      tag_467\n        /* \"#utility.yul\":8732:8733   */\n      0x00\n        /* \"#utility.yul\":8721:8730   */\n      dup4\n        /* \"#utility.yul\":8717:8734   */\n      add\n        /* \"#utility.yul\":8708:8714   */\n      dup9\n        /* \"#utility.yul\":8664:8735   */\n      tag_306\n      jump\t// in\n    tag_467:\n        /* \"#utility.yul\":8782:8791   */\n      dup2\n        /* \"#utility.yul\":8776:8780   */\n      dup2\n        /* \"#utility.yul\":8772:8792   */\n      sub\n        /* \"#utility.yul\":8767:8769   */\n      0x20\n        /* \"#utility.yul\":8756:8765   */\n      dup4\n        /* \"#utility.yul\":8752:8770   */\n      add\n        /* \"#utility.yul\":8745:8793   */\n      mstore\n        /* \"#utility.yul\":8810:8888   */\n      tag_468\n        /* \"#utility.yul\":8883:8887   */\n      dup2\n        /* \"#utility.yul\":8874:8880   */\n      dup8\n        /* \"#utility.yul\":8810:8888   */\n      tag_311\n      jump\t// in\n    tag_468:\n        /* \"#utility.yul\":8802:8888   */\n      swap1\n      pop\n        /* \"#utility.yul\":8898:8980   */\n      tag_469\n        /* \"#utility.yul\":8976:8978   */\n      0x40\n        /* \"#utility.yul\":8965:8974   */\n      dup4\n        /* \"#utility.yul\":8961:8979   */\n      add\n        /* \"#utility.yul\":8952:8958   */\n      dup7\n        /* \"#utility.yul\":8898:8980   */\n      tag_315\n      jump\t// in\n    tag_469:\n        /* \"#utility.yul\":8990:9068   */\n      tag_470\n        /* \"#utility.yul\":9064:9066   */\n      0x60\n        /* \"#utility.yul\":9053:9062   */\n      dup4\n        /* \"#utility.yul\":9049:9067   */\n      add\n        /* \"#utility.yul\":9040:9046   */\n      dup6\n        /* \"#utility.yul\":8990:9068   */\n      tag_319\n      jump\t// in\n    tag_470:\n        /* \"#utility.yul\":9078:9151   */\n      tag_471\n        /* \"#utility.yul\":9146:9149   */\n      0x80\n        /* \"#utility.yul\":9135:9144   */\n      dup4\n        /* \"#utility.yul\":9131:9150   */\n      add\n        /* \"#utility.yul\":9122:9128   */\n      dup5\n        /* \"#utility.yul\":9078:9151   */\n      tag_322\n      jump\t// in\n    tag_471:\n        /* \"#utility.yul\":8371:9158   */\n      swap7\n      swap6\n      pop\n      pop\n      pop\n      pop\n      pop\n      pop\n      jump\t// out\n        /* \"#utility.yul\":9164:9281   */\n    tag_323:\n        /* \"#utility.yul\":9273:9274   */\n      0x00\n        /* \"#utility.yul\":9270:9271   */\n      0x00\n        /* \"#utility.yul\":9263:9275   */\n      revert\n        /* \"#utility.yul\":9305:9554   */\n    tag_324:\n        /* \"#utility.yul\":9376:9384   */\n      0x00\n        /* \"#utility.yul\":9407:9413   */\n      dup2\n        /* \"#utility.yul\":9395:9413   */\n      swap1\n      pop\n        /* \"#utility.yul\":9460:9463   */\n      dup3\n        /* \"#utility.yul\":9452:9456   */\n      0x20\n        /* \"#utility.yul\":9446:9450   */\n      0x03\n        /* \"#utility.yul\":9442:9457   */\n      mul\n        /* \"#utility.yul\":9432:9440   */\n      dup3\n        /* \"#utility.yul\":9428:9458   */\n      add\n        /* \"#utility.yul\":9425:9464   */\n      gt\n        /* \"#utility.yul\":9422:9548   */\n      iszero\n      tag_474\n      jumpi\n        /* \"#utility.yul\":9467:9546   */\n      tag_475\n      tag_323\n      jump\t// in\n    tag_475:\n        /* \"#utility.yul\":9422:9548   */\n    tag_474:\n        /* \"#utility.yul\":9305:9554   */\n      swap3\n      swap2\n      pop\n      pop\n      jump\t// out\n        /* \"#utility.yul\":9560:9939   */\n    tag_45:\n        /* \"#utility.yul\":9644:9650   */\n      0x00\n        /* \"#utility.yul\":9693:9695   */\n      0x60\n        /* \"#utility.yul\":9681:9690   */\n      dup3\n        /* \"#utility.yul\":9672:9679   */\n      dup5\n        /* \"#utility.yul\":9668:9691   */\n      sub\n        /* \"#utility.yul\":9664:9696   */\n      slt\n        /* \"#utility.yul\":9661:9780   */\n      iszero\n      tag_477\n      jumpi\n        /* \"#utility.yul\":9699:9778   */\n      tag_478\n      tag_287\n      jump\t// in\n    tag_478:\n        /* \"#utility.yul\":9661:9780   */\n    tag_477:\n        /* \"#utility.yul\":9819:9820   */\n      0x00\n        /* \"#utility.yul\":9844:9922   */\n      tag_479\n        /* \"#utility.yul\":9914:9921   */\n      dup5\n        /* \"#utility.yul\":9905:9911   */\n      dup3\n        /* \"#utility.yul\":9894:9903   */\n      dup6\n        /* \"#utility.yul\":9890:9912   */\n      add\n        /* \"#utility.yul\":9844:9922   */\n      tag_324\n      jump\t// in\n    tag_479:\n        /* \"#utility.yul\":9834:9922   */\n      swap2\n      pop\n        /* \"#utility.yul\":9790:9932   */\n      pop\n        /* \"#utility.yul\":9560:9939   */\n      swap3\n      swap2\n      pop\n      pop\n      jump\t// out\n        /* \"#utility.yul\":9945:10069   */\n    tag_325:\n        /* \"#utility.yul\":10022:10028   */\n      0x00\n        /* \"#utility.yul\":10056:10061   */\n      dup2\n        /* \"#utility.yul\":10050:10062   */\n      mload\n        /* \"#utility.yul\":10040:10062   */\n      swap1\n      pop\n        /* \"#utility.yul\":9945:10069   */\n      swap2\n      swap1\n      pop\n      jump\t// out\n        /* \"#utility.yul\":10075:10269   */\n    tag_326:\n        /* \"#utility.yul\":10184:10195   */\n      0x00\n        /* \"#utility.yul\":10218:10224   */\n      dup3\n        /* \"#utility.yul\":10213:10216   */\n      dup3\n        /* \"#utility.yul\":10206:10225   */\n      mstore\n        /* \"#utility.yul\":10258:10262   */\n      0x20\n        /* \"#utility.yul\":10253:10256   */\n      dup3\n        /* \"#utility.yul\":10249:10263   */\n      add\n        /* \"#utility.yul\":10234:10263   */\n      swap1\n      pop\n        /* \"#utility.yul\":10075:10269   */\n      swap3\n      swap2\n      pop\n      pop\n      jump\t// out\n        /* \"#utility.yul\":10275:10417   */\n    tag_327:\n        /* \"#utility.yul\":10352:10356   */\n      0x00\n        /* \"#utility.yul\":10375:10378   */\n      dup2\n        /* \"#utility.yul\":10367:10378   */\n      swap1\n      pop\n        /* \"#utility.yul\":10405:10409   */\n      0x20\n        /* \"#utility.yul\":10400:10403   */\n      dup3\n        /* \"#utility.yul\":10396:10410   */\n      add\n        /* \"#utility.yul\":10388:10410   */\n      swap1\n      pop\n        /* \"#utility.yul\":10275:10417   */\n      swap2\n      swap1\n      pop\n      jump\t// out\n        /* \"#utility.yul\":10423:10582   */\n    tag_328:\n        /* \"#utility.yul\":10497:10508   */\n      0x00\n        /* \"#utility.yul\":10531:10537   */\n      dup3\n        /* \"#utility.yul\":10526:10529   */\n      dup3\n        /* \"#utility.yul\":10519:10538   */\n      mstore\n        /* \"#utility.yul\":10571:10575   */\n      0x20\n        /* \"#utility.yul\":10566:10569   */\n      dup3\n        /* \"#utility.yul\":10562:10576   */\n      add\n        /* \"#utility.yul\":10547:10576   */\n      swap1\n      pop\n        /* \"#utility.yul\":10423:10582   */\n      swap3\n      swap2\n      pop\n      pop\n      jump\t// out\n        /* \"#utility.yul\":10588:10945   */\n    tag_329:\n        /* \"#utility.yul\":10666:10669   */\n      0x00\n        /* \"#utility.yul\":10694:10733   */\n      tag_485\n        /* \"#utility.yul\":10727:10732   */\n      dup3\n        /* \"#utility.yul\":10694:10733   */\n      tag_307\n      jump\t// in\n    tag_485:\n        /* \"#utility.yul\":10749:10810   */\n      tag_486\n        /* \"#utility.yul\":10803:10809   */\n      dup2\n        /* \"#utility.yul\":10798:10801   */\n      dup6\n        /* \"#utility.yul\":10749:10810   */\n      tag_328\n      jump\t// in\n    tag_486:\n        /* \"#utility.yul\":10742:10810   */\n      swap4\n      pop\n        /* \"#utility.yul\":10819:10884   */\n      tag_487\n        /* \"#utility.yul\":10877:10883   */\n      dup2\n        /* \"#utility.yul\":10872:10875   */\n      dup6\n        /* \"#utility.yul\":10865:10869   */\n      0x20\n        /* \"#utility.yul\":10858:10863   */\n      dup7\n        /* \"#utility.yul\":10854:10870   */\n      add\n        /* \"#utility.yul\":10819:10884   */\n      tag_309\n      jump\t// in\n    tag_487:\n        /* \"#utility.yul\":10909:10938   */\n      tag_488\n        /* \"#utility.yul\":10931:10937   */\n      dup2\n        /* \"#utility.yul\":10909:10938   */\n      tag_310\n      jump\t// in\n    tag_488:\n        /* \"#utility.yul\":10904:10907   */\n      dup5\n        /* \"#utility.yul\":10900:10939   */\n      add\n        /* \"#utility.yul\":10893:10939   */\n      swap2\n      pop\n        /* \"#utility.yul\":10670:10945   */\n      pop\n        /* \"#utility.yul\":10588:10945   */\n      swap3\n      swap2\n      pop\n      pop\n      jump\t// out\n        /* \"#utility.yul\":10951:11147   */\n    tag_330:\n        /* \"#utility.yul\":11040:11050   */\n      0x00\n        /* \"#utility.yul\":11075:11141   */\n      tag_490\n        /* \"#utility.yul\":11137:11140   */\n      dup4\n        /* \"#utility.yul\":11129:11135   */\n      dup4\n        /* \"#utility.yul\":11075:11141   */\n      tag_329\n      jump\t// in\n    tag_490:\n        /* \"#utility.yul\":11061:11141   */\n      swap1\n      pop\n        /* \"#utility.yul\":10951:11147   */\n      swap3\n      swap2\n      pop\n      pop\n      jump\t// out\n        /* \"#utility.yul\":11153:11276   */\n    tag_331:\n        /* \"#utility.yul\":11233:11237   */\n      0x00\n        /* \"#utility.yul\":11265:11269   */\n      0x20\n        /* \"#utility.yul\":11260:11263   */\n      dup3\n        /* \"#utility.yul\":11256:11270   */\n      add\n        /* \"#utility.yul\":11248:11270   */\n      swap1\n      pop\n        /* \"#utility.yul\":11153:11276   */\n      swap2\n      swap1\n      pop\n      jump\t// out\n        /* \"#utility.yul\":11310:12301   */\n    tag_332:\n        /* \"#utility.yul\":11449:11452   */\n      0x00\n        /* \"#utility.yul\":11478:11542   */\n      tag_493\n        /* \"#utility.yul\":11536:11541   */\n      dup3\n        /* \"#utility.yul\":11478:11542   */\n      tag_325\n      jump\t// in\n    tag_493:\n        /* \"#utility.yul\":11558:11654   */\n      tag_494\n        /* \"#utility.yul\":11647:11653   */\n      dup2\n        /* \"#utility.yul\":11642:11645   */\n      dup6\n        /* \"#utility.yul\":11558:11654   */\n      tag_326\n      jump\t// in\n    tag_494:\n        /* \"#utility.yul\":11551:11654   */\n      swap4\n      pop\n        /* \"#utility.yul\":11680:11683   */\n      dup4\n        /* \"#utility.yul\":11725:11729   */\n      0x20\n        /* \"#utility.yul\":11717:11723   */\n      dup3\n        /* \"#utility.yul\":11713:11730   */\n      mul\n        /* \"#utility.yul\":11708:11711   */\n      dup6\n        /* \"#utility.yul\":11704:11731   */\n      add\n        /* \"#utility.yul\":11755:11821   */\n      tag_495\n        /* \"#utility.yul\":11815:11820   */\n      dup6\n        /* \"#utility.yul\":11755:11821   */\n      tag_327\n      jump\t// in\n    tag_495:\n        /* \"#utility.yul\":11844:11851   */\n      dup1\n        /* \"#utility.yul\":11875:11876   */\n      0x00\n        /* \"#utility.yul\":11860:12256   */\n    tag_496:\n        /* \"#utility.yul\":11885:11891   */\n      dup6\n        /* \"#utility.yul\":11882:11883   */\n      dup2\n        /* \"#utility.yul\":11879:11892   */\n      lt\n        /* \"#utility.yul\":11860:12256   */\n      iszero\n      tag_498\n      jumpi\n        /* \"#utility.yul\":11956:11965   */\n      dup5\n        /* \"#utility.yul\":11950:11954   */\n      dup5\n        /* \"#utility.yul\":11946:11966   */\n      sub\n        /* \"#utility.yul\":11941:11944   */\n      dup10\n        /* \"#utility.yul\":11934:11967   */\n      mstore\n        /* \"#utility.yul\":12007:12013   */\n      dup2\n        /* \"#utility.yul\":12001:12014   */\n      mload\n        /* \"#utility.yul\":12035:12119   */\n      tag_499\n        /* \"#utility.yul\":12114:12118   */\n      dup6\n        /* \"#utility.yul\":12099:12112   */\n      dup3\n        /* \"#utility.yul\":12035:12119   */\n      tag_330\n      jump\t// in\n    tag_499:\n        /* \"#utility.yul\":12027:12119   */\n      swap5\n      pop\n        /* \"#utility.yul\":12142:12212   */\n      tag_500\n        /* \"#utility.yul\":12205:12211   */\n      dup4\n        /* \"#utility.yul\":12142:12212   */\n      tag_331\n      jump\t// in\n    tag_500:\n        /* \"#utility.yul\":12132:12212   */\n      swap3\n      pop\n        /* \"#utility.yul\":12241:12245   */\n      0x20\n        /* \"#utility.yul\":12236:12239   */\n      dup11\n        /* \"#utility.yul\":12232:12246   */\n      add\n        /* \"#utility.yul\":12225:12246   */\n      swap10\n      pop\n        /* \"#utility.yul\":11920:12256   */\n      pop\n        /* \"#utility.yul\":11907:11908   */\n      0x01\n        /* \"#utility.yul\":11904:11905   */\n      dup2\n        /* \"#utility.yul\":11900:11909   */\n      add\n        /* \"#utility.yul\":11895:11909   */\n      swap1\n      pop\n        /* \"#utility.yul\":11860:12256   */\n      jump(tag_496)\n    tag_498:\n        /* \"#utility.yul\":11864:11878   */\n      pop\n        /* \"#utility.yul\":12272:12276   */\n      dup3\n        /* \"#utility.yul\":12265:12276   */\n      swap8\n      pop\n        /* \"#utility.yul\":12292:12295   */\n      dup8\n        /* \"#utility.yul\":12285:12295   */\n      swap6\n      pop\n        /* \"#utility.yul\":11454:12301   */\n      pop\n      pop\n      pop\n      pop\n      pop\n        /* \"#utility.yul\":11310:12301   */\n      swap3\n      swap2\n      pop\n      pop\n      jump\t// out\n        /* \"#utility.yul\":12307:12720   */\n    tag_51:\n        /* \"#utility.yul\":12470:12474   */\n      0x00\n        /* \"#utility.yul\":12508:12510   */\n      0x20\n        /* \"#utility.yul\":12497:12506   */\n      dup3\n        /* \"#utility.yul\":12493:12511   */\n      add\n        /* \"#utility.yul\":12485:12511   */\n      swap1\n      pop\n        /* \"#utility.yul\":12557:12566   */\n      dup2\n        /* \"#utility.yul\":12551:12555   */\n      dup2\n        /* \"#utility.yul\":12547:12567   */\n      sub\n        /* \"#utility.yul\":12543:12544   */\n      0x00\n        /* \"#utility.yul\":12532:12541   */\n      dup4\n        /* \"#utility.yul\":12528:12545   */\n      add\n        /* \"#utility.yul\":12521:12568   */\n      mstore\n        /* \"#utility.yul\":12585:12713   */\n      tag_502\n        /* \"#utility.yul\":12708:12712   */\n      dup2\n        /* \"#utility.yul\":12699:12705   */\n      dup5\n        /* \"#utility.yul\":12585:12713   */\n      tag_332\n      jump\t// in\n    tag_502:\n        /* \"#utility.yul\":12577:12713   */\n      swap1\n      pop\n        /* \"#utility.yul\":12307:12720   */\n      swap3\n      swap2\n      pop\n      pop\n      jump\t// out\n        /* \"#utility.yul\":12726:13735   */\n    tag_56:\n        /* \"#utility.yul\":13023:13027   */\n      0x00\n        /* \"#utility.yul\":13061:13064   */\n      0xe0\n        /* \"#utility.yul\":13050:13059   */\n      dup3\n        /* \"#utility.yul\":13046:13065   */\n      add\n        /* \"#utility.yul\":13038:13065   */\n      swap1\n      pop\n        /* \"#utility.yul\":13075:13146   */\n      tag_504\n        /* \"#utility.yul\":13143:13144   */\n      0x00\n        /* \"#utility.yul\":13132:13141   */\n      dup4\n        /* \"#utility.yul\":13128:13145   */\n      add\n        /* \"#utility.yul\":13119:13125   */\n      dup11\n        /* \"#utility.yul\":13075:13146   */\n      tag_306\n      jump\t// in\n    tag_504:\n        /* \"#utility.yul\":13193:13202   */\n      dup2\n        /* \"#utility.yul\":13187:13191   */\n      dup2\n        /* \"#utility.yul\":13183:13203   */\n      sub\n        /* \"#utility.yul\":13178:13180   */\n      0x20\n        /* \"#utility.yul\":13167:13176   */\n      dup4\n        /* \"#utility.yul\":13163:13181   */\n      add\n        /* \"#utility.yul\":13156:13204   */\n      mstore\n        /* \"#utility.yul\":13221:13299   */\n      tag_505\n        /* \"#utility.yul\":13294:13298   */\n      dup2\n        /* \"#utility.yul\":13285:13291   */\n      dup10\n        /* \"#utility.yul\":13221:13299   */\n      tag_311\n      jump\t// in\n    tag_505:\n        /* \"#utility.yul\":13213:13299   */\n      swap1\n      pop\n        /* \"#utility.yul\":13309:13391   */\n      tag_506\n        /* \"#utility.yul\":13387:13389   */\n      0x40\n        /* \"#utility.yul\":13376:13385   */\n      dup4\n        /* \"#utility.yul\":13372:13390   */\n      add\n        /* \"#utility.yul\":13363:13369   */\n      dup9\n        /* \"#utility.yul\":13309:13391   */\n      tag_315\n      jump\t// in\n    tag_506:\n        /* \"#utility.yul\":13401:13479   */\n      tag_507\n        /* \"#utility.yul\":13475:13477   */\n      0x60\n        /* \"#utility.yul\":13464:13473   */\n      dup4\n        /* \"#utility.yul\":13460:13478   */\n      add\n        /* \"#utility.yul\":13451:13457   */\n      dup8\n        /* \"#utility.yul\":13401:13479   */\n      tag_319\n      jump\t// in\n    tag_507:\n        /* \"#utility.yul\":13489:13562   */\n      tag_508\n        /* \"#utility.yul\":13557:13560   */\n      0x80\n        /* \"#utility.yul\":13546:13555   */\n      dup4\n        /* \"#utility.yul\":13542:13561   */\n      add\n        /* \"#utility.yul\":13533:13539   */\n      dup7\n        /* \"#utility.yul\":13489:13562   */\n      tag_322\n      jump\t// in\n    tag_508:\n        /* \"#utility.yul\":13572:13645   */\n      tag_509\n        /* \"#utility.yul\":13640:13643   */\n      0xa0\n        /* \"#utility.yul\":13629:13638   */\n      dup4\n        /* \"#utility.yul\":13625:13644   */\n      add\n        /* \"#utility.yul\":13616:13622   */\n      dup6\n        /* \"#utility.yul\":13572:13645   */\n      tag_306\n      jump\t// in\n    tag_509:\n        /* \"#utility.yul\":13655:13728   */\n      tag_510\n        /* \"#utility.yul\":13723:13726   */\n      0xc0\n        /* \"#utility.yul\":13712:13721   */\n      dup4\n        /* \"#utility.yul\":13708:13727   */\n      add\n        /* \"#utility.yul\":13699:13705   */\n      dup5\n        /* \"#utility.yul\":13655:13728   */\n      tag_306\n      jump\t// in\n    tag_510:\n        /* \"#utility.yul\":12726:13735   */\n      swap9\n      swap8\n      pop\n      pop\n      pop\n      pop\n      pop\n      pop\n      pop\n      pop\n      jump\t// out\n        /* \"#utility.yul\":13741:13858   */\n    tag_333:\n        /* \"#utility.yul\":13850:13851   */\n      0x00\n        /* \"#utility.yul\":13847:13848   */\n      0x00\n        /* \"#utility.yul\":13840:13852   */\n      revert\n        /* \"#utility.yul\":13864:13981   */\n    tag_334:\n        /* \"#utility.yul\":13973:13974   */\n      0x00\n        /* \"#utility.yul\":13970:13971   */\n      0x00\n        /* \"#utility.yul\":13963:13975   */\n      revert\n        /* \"#utility.yul\":14001:14554   */\n    tag_335:\n        /* \"#utility.yul\":14059:14067   */\n      0x00\n        /* \"#utility.yul\":14069:14075   */\n      0x00\n        /* \"#utility.yul\":14119:14122   */\n      dup4\n        /* \"#utility.yul\":14112:14116   */\n      0x1f\n        /* \"#utility.yul\":14104:14110   */\n      dup5\n        /* \"#utility.yul\":14100:14117   */\n      add\n        /* \"#utility.yul\":14096:14123   */\n      slt\n        /* \"#utility.yul\":14086:14208   */\n      tag_514\n      jumpi\n        /* \"#utility.yul\":14127:14206   */\n      tag_515\n      tag_333\n      jump\t// in\n    tag_515:\n        /* \"#utility.yul\":14086:14208   */\n    tag_514:\n        /* \"#utility.yul\":14240:14246   */\n      dup3\n        /* \"#utility.yul\":14227:14247   */\n      calldataload\n        /* \"#utility.yul\":14217:14247   */\n      swap1\n      pop\n        /* \"#utility.yul\":14270:14288   */\n      0xffffffffffffffff\n        /* \"#utility.yul\":14262:14268   */\n      dup2\n        /* \"#utility.yul\":14259:14289   */\n      gt\n        /* \"#utility.yul\":14256:14373   */\n      iszero\n      tag_516\n      jumpi\n        /* \"#utility.yul\":14292:14371   */\n      tag_517\n      tag_334\n      jump\t// in\n    tag_517:\n        /* \"#utility.yul\":14256:14373   */\n    tag_516:\n        /* \"#utility.yul\":14406:14410   */\n      0x20\n        /* \"#utility.yul\":14398:14404   */\n      dup4\n        /* \"#utility.yul\":14394:14411   */\n      add\n        /* \"#utility.yul\":14382:14411   */\n      swap2\n      pop\n        /* \"#utility.yul\":14460:14463   */\n      dup4\n        /* \"#utility.yul\":14452:14456   */\n      0x01\n        /* \"#utility.yul\":14444:14450   */\n      dup3\n        /* \"#utility.yul\":14440:14457   */\n      mul\n        /* \"#utility.yul\":14430:14438   */\n      dup4\n        /* \"#utility.yul\":14426:14458   */\n      add\n        /* \"#utility.yul\":14423:14464   */\n      gt\n        /* \"#utility.yul\":14420:14548   */\n      iszero\n      tag_518\n      jumpi\n        /* \"#utility.yul\":14467:14546   */\n      tag_519\n      tag_323\n      jump\t// in\n    tag_519:\n        /* \"#utility.yul\":14420:14548   */\n    tag_518:\n        /* \"#utility.yul\":14001:14554   */\n      swap3\n      pop\n      swap3\n      swap1\n      pop\n      jump\t// out\n        /* \"#utility.yul\":14560:15234   */\n    tag_59:\n        /* \"#utility.yul\":14640:14646   */\n      0x00\n        /* \"#utility.yul\":14648:14654   */\n      0x00\n        /* \"#utility.yul\":14656:14662   */\n      0x00\n        /* \"#utility.yul\":14705:14707   */\n      0x40\n        /* \"#utility.yul\":14693:14702   */\n      dup5\n        /* \"#utility.yul\":14684:14691   */\n      dup7\n        /* \"#utility.yul\":14680:14703   */\n      sub\n        /* \"#utility.yul\":14676:14708   */\n      slt\n        /* \"#utility.yul\":14673:14792   */\n      iszero\n      tag_521\n      jumpi\n        /* \"#utility.yul\":14711:14790   */\n      tag_522\n      tag_287\n      jump\t// in\n    tag_522:\n        /* \"#utility.yul\":14673:14792   */\n    tag_521:\n        /* \"#utility.yul\":14831:14832   */\n      0x00\n        /* \"#utility.yul\":14856:14909   */\n      tag_523\n        /* \"#utility.yul\":14901:14908   */\n      dup7\n        /* \"#utility.yul\":14892:14898   */\n      dup3\n        /* \"#utility.yul\":14881:14890   */\n      dup8\n        /* \"#utility.yul\":14877:14899   */\n      add\n        /* \"#utility.yul\":14856:14909   */\n      tag_300\n      jump\t// in\n    tag_523:\n        /* \"#utility.yul\":14846:14909   */\n      swap4\n      pop\n        /* \"#utility.yul\":14802:14919   */\n      pop\n        /* \"#utility.yul\":14986:14988   */\n      0x20\n        /* \"#utility.yul\":14975:14984   */\n      dup5\n        /* \"#utility.yul\":14971:14989   */\n      add\n        /* \"#utility.yul\":14958:14990   */\n      calldataload\n        /* \"#utility.yul\":15017:15035   */\n      0xffffffffffffffff\n        /* \"#utility.yul\":15009:15015   */\n      dup2\n        /* \"#utility.yul\":15006:15036   */\n      gt\n        /* \"#utility.yul\":15003:15120   */\n      iszero\n      tag_524\n      jumpi\n        /* \"#utility.yul\":15039:15118   */\n      tag_525\n      tag_288\n      jump\t// in\n    tag_525:\n        /* \"#utility.yul\":15003:15120   */\n    tag_524:\n        /* \"#utility.yul\":15152:15217   */\n      tag_526\n        /* \"#utility.yul\":15209:15216   */\n      dup7\n        /* \"#utility.yul\":15200:15206   */\n      dup3\n        /* \"#utility.yul\":15189:15198   */\n      dup8\n        /* \"#utility.yul\":15185:15207   */\n      add\n        /* \"#utility.yul\":15152:15217   */\n      tag_335\n      jump\t// in\n    tag_526:\n        /* \"#utility.yul\":15134:15217   */\n      swap3\n      pop\n      swap3\n      pop\n        /* \"#utility.yul\":14929:15227   */\n      pop\n        /* \"#utility.yul\":14560:15234   */\n      swap3\n      pop\n      swap3\n      pop\n      swap3\n      jump\t// out\n        /* \"#utility.yul\":15240:15462   */\n    tag_64:\n        /* \"#utility.yul\":15333:15337   */\n      0x00\n        /* \"#utility.yul\":15371:15373   */\n      0x20\n        /* \"#utility.yul\":15360:15369   */\n      dup3\n        /* \"#utility.yul\":15356:15374   */\n      add\n        /* \"#utility.yul\":15348:15374   */\n      swap1\n      pop\n        /* \"#utility.yul\":15384:15455   */\n      tag_528\n        /* \"#utility.yul\":15452:15453   */\n      0x00\n        /* \"#utility.yul\":15441:15450   */\n      dup4\n        /* \"#utility.yul\":15437:15454   */\n      add\n        /* \"#utility.yul\":15428:15434   */\n      dup5\n        /* \"#utility.yul\":15384:15455   */\n      tag_306\n      jump\t// in\n    tag_528:\n        /* \"#utility.yul\":15240:15462   */\n      swap3\n      swap2\n      pop\n      pop\n      jump\t// out\n        /* \"#utility.yul\":15485:16053   */\n    tag_336:\n        /* \"#utility.yul\":15558:15566   */\n      0x00\n        /* \"#utility.yul\":15568:15574   */\n      0x00\n        /* \"#utility.yul\":15618:15621   */\n      dup4\n        /* \"#utility.yul\":15611:15615   */\n      0x1f\n        /* \"#utility.yul\":15603:15609   */\n      dup5\n        /* \"#utility.yul\":15599:15616   */\n      add\n        /* \"#utility.yul\":15595:15622   */\n      slt\n        /* \"#utility.yul\":15585:15707   */\n      tag_530\n      jumpi\n        /* \"#utility.yul\":15626:15705   */\n      tag_531\n      tag_333\n      jump\t// in\n    tag_531:\n        /* \"#utility.yul\":15585:15707   */\n    tag_530:\n        /* \"#utility.yul\":15739:15745   */\n      dup3\n        /* \"#utility.yul\":15726:15746   */\n      calldataload\n        /* \"#utility.yul\":15716:15746   */\n      swap1\n      pop\n        /* \"#utility.yul\":15769:15787   */\n      0xffffffffffffffff\n        /* \"#utility.yul\":15761:15767   */\n      dup2\n        /* \"#utility.yul\":15758:15788   */\n      gt\n        /* \"#utility.yul\":15755:15872   */\n      iszero\n      tag_532\n      jumpi\n        /* \"#utility.yul\":15791:15870   */\n      tag_533\n      tag_334\n      jump\t// in\n    tag_533:\n        /* \"#utility.yul\":15755:15872   */\n    tag_532:\n        /* \"#utility.yul\":15905:15909   */\n      0x20\n        /* \"#utility.yul\":15897:15903   */\n      dup4\n        /* \"#utility.yul\":15893:15910   */\n      add\n        /* \"#utility.yul\":15881:15910   */\n      swap2\n      pop\n        /* \"#utility.yul\":15959:15962   */\n      dup4\n        /* \"#utility.yul\":15951:15955   */\n      0x20\n        /* \"#utility.yul\":15943:15949   */\n      dup3\n        /* \"#utility.yul\":15939:15956   */\n      mul\n        /* \"#utility.yul\":15929:15937   */\n      dup4\n        /* \"#utility.yul\":15925:15957   */\n      add\n        /* \"#utility.yul\":15922:15963   */\n      gt\n        /* \"#utility.yul\":15919:16047   */\n      iszero\n      tag_534\n      jumpi\n        /* \"#utility.yul\":15966:16045   */\n      tag_535\n      tag_323\n      jump\t// in\n    tag_535:\n        /* \"#utility.yul\":15919:16047   */\n    tag_534:\n        /* \"#utility.yul\":15485:16053   */\n      swap3\n      pop\n      swap3\n      swap1\n      pop\n      jump\t// out\n        /* \"#utility.yul\":16059:16763   */\n    tag_67:\n        /* \"#utility.yul\":16154:16160   */\n      0x00\n        /* \"#utility.yul\":16162:16168   */\n      0x00\n        /* \"#utility.yul\":16170:16176   */\n      0x00\n        /* \"#utility.yul\":16219:16221   */\n      0x40\n        /* \"#utility.yul\":16207:16216   */\n      dup5\n        /* \"#utility.yul\":16198:16205   */\n      dup7\n        /* \"#utility.yul\":16194:16217   */\n      sub\n        /* \"#utility.yul\":16190:16222   */\n      slt\n        /* \"#utility.yul\":16187:16306   */\n      iszero\n      tag_537\n      jumpi\n        /* \"#utility.yul\":16225:16304   */\n      tag_538\n      tag_287\n      jump\t// in\n    tag_538:\n        /* \"#utility.yul\":16187:16306   */\n    tag_537:\n        /* \"#utility.yul\":16345:16346   */\n      0x00\n        /* \"#utility.yul\":16370:16423   */\n      tag_539\n        /* \"#utility.yul\":16415:16422   */\n      dup7\n        /* \"#utility.yul\":16406:16412   */\n      dup3\n        /* \"#utility.yul\":16395:16404   */\n      dup8\n        /* \"#utility.yul\":16391:16413   */\n      add\n        /* \"#utility.yul\":16370:16423   */\n      tag_300\n      jump\t// in\n    tag_539:\n        /* \"#utility.yul\":16360:16423   */\n      swap4\n      pop\n        /* \"#utility.yul\":16316:16433   */\n      pop\n        /* \"#utility.yul\":16500:16502   */\n      0x20\n        /* \"#utility.yul\":16489:16498   */\n      dup5\n        /* \"#utility.yul\":16485:16503   */\n      add\n        /* \"#utility.yul\":16472:16504   */\n      calldataload\n        /* \"#utility.yul\":16531:16549   */\n      0xffffffffffffffff\n        /* \"#utility.yul\":16523:16529   */\n      dup2\n        /* \"#utility.yul\":16520:16550   */\n      gt\n        /* \"#utility.yul\":16517:16634   */\n      iszero\n      tag_540\n      jumpi\n        /* \"#utility.yul\":16553:16632   */\n      tag_541\n      tag_288\n      jump\t// in\n    tag_541:\n        /* \"#utility.yul\":16517:16634   */\n    tag_540:\n        /* \"#utility.yul\":16666:16746   */\n      tag_542\n        /* \"#utility.yul\":16738:16745   */\n      dup7\n        /* \"#utility.yul\":16729:16735   */\n      dup3\n        /* \"#utility.yul\":16718:16727   */\n      dup8\n        /* \"#utility.yul\":16714:16736   */\n      add\n        /* \"#utility.yul\":16666:16746   */\n      tag_336\n      jump\t// in\n    tag_542:\n        /* \"#utility.yul\":16648:16746   */\n      swap3\n      pop\n      swap3\n      pop\n        /* \"#utility.yul\":16443:16756   */\n      pop\n        /* \"#utility.yul\":16059:16763   */\n      swap3\n      pop\n      swap3\n      pop\n      swap3\n      jump\t// out\n        /* \"#utility.yul\":16769:16883   */\n    tag_337:\n        /* \"#utility.yul\":16836:16842   */\n      0x00\n        /* \"#utility.yul\":16870:16875   */\n      dup2\n        /* \"#utility.yul\":16864:16876   */\n      mload\n        /* \"#utility.yul\":16854:16876   */\n      swap1\n      pop\n        /* \"#utility.yul\":16769:16883   */\n      swap2\n      swap1\n      pop\n      jump\t// out\n        /* \"#utility.yul\":16889:17073   */\n    tag_338:\n        /* \"#utility.yul\":16988:16999   */\n      0x00\n        /* \"#utility.yul\":17022:17028   */\n      dup3\n        /* \"#utility.yul\":17017:17020   */\n      dup3\n        /* \"#utility.yul\":17010:17029   */\n      mstore\n        /* \"#utility.yul\":17062:17066   */\n      0x20\n        /* \"#utility.yul\":17057:17060   */\n      dup3\n        /* \"#utility.yul\":17053:17067   */\n      add\n        /* \"#utility.yul\":17038:17067   */\n      swap1\n      pop\n        /* \"#utility.yul\":16889:17073   */\n      swap3\n      swap2\n      pop\n      pop\n      jump\t// out\n        /* \"#utility.yul\":17079:17211   */\n    tag_339:\n        /* \"#utility.yul\":17146:17150   */\n      0x00\n        /* \"#utility.yul\":17169:17172   */\n      dup2\n        /* \"#utility.yul\":17161:17172   */\n      swap1\n      pop\n        /* \"#utility.yul\":17199:17203   */\n      0x20\n        /* \"#utility.yul\":17194:17197   */\n      dup3\n        /* \"#utility.yul\":17190:17204   */\n      add\n        /* \"#utility.yul\":17182:17204   */\n      swap1\n      pop\n        /* \"#utility.yul\":17079:17211   */\n      swap2\n      swap1\n      pop\n      jump\t// out\n        /* \"#utility.yul\":17217:17325   */\n    tag_340:\n        /* \"#utility.yul\":17294:17318   */\n      tag_547\n        /* \"#utility.yul\":17312:17317   */\n      dup2\n        /* \"#utility.yul\":17294:17318   */\n      tag_321\n      jump\t// in\n    tag_547:\n        /* \"#utility.yul\":17289:17292   */\n      dup3\n        /* \"#utility.yul\":17282:17319   */\n      mstore\n        /* \"#utility.yul\":17217:17325   */\n      pop\n      pop\n      jump\t// out\n        /* \"#utility.yul\":17331:17510   */\n    tag_341:\n        /* \"#utility.yul\":17400:17410   */\n      0x00\n        /* \"#utility.yul\":17421:17467   */\n      tag_549\n        /* \"#utility.yul\":17463:17466   */\n      dup4\n        /* \"#utility.yul\":17455:17461   */\n      dup4\n        /* \"#utility.yul\":17421:17467   */\n      tag_340\n      jump\t// in\n    tag_549:\n        /* \"#utility.yul\":17499:17503   */\n      0x20\n        /* \"#utility.yul\":17494:17497   */\n      dup4\n        /* \"#utility.yul\":17490:17504   */\n      add\n        /* \"#utility.yul\":17476:17504   */\n      swap1\n      pop\n        /* \"#utility.yul\":17331:17510   */\n      swap3\n      swap2\n      pop\n      pop\n      jump\t// out\n        /* \"#utility.yul\":17516:17629   */\n    tag_342:\n        /* \"#utility.yul\":17586:17590   */\n      0x00\n        /* \"#utility.yul\":17618:17622   */\n      0x20\n        /* \"#utility.yul\":17613:17616   */\n      dup3\n        /* \"#utility.yul\":17609:17623   */\n      add\n        /* \"#utility.yul\":17601:17623   */\n      swap1\n      pop\n        /* \"#utility.yul\":17516:17629   */\n      swap2\n      swap1\n      pop\n      jump\t// out\n        /* \"#utility.yul\":17665:18397   */\n    tag_343:\n        /* \"#utility.yul\":17784:17787   */\n      0x00\n        /* \"#utility.yul\":17813:17867   */\n      tag_552\n        /* \"#utility.yul\":17861:17866   */\n      dup3\n        /* \"#utility.yul\":17813:17867   */\n      tag_337\n      jump\t// in\n    tag_552:\n        /* \"#utility.yul\":17883:17969   */\n      tag_553\n        /* \"#utility.yul\":17962:17968   */\n      dup2\n        /* \"#utility.yul\":17957:17960   */\n      dup6\n        /* \"#utility.yul\":17883:17969   */\n      tag_338\n      jump\t// in\n    tag_553:\n        /* \"#utility.yul\":17876:17969   */\n      swap4\n      pop\n        /* \"#utility.yul\":17993:18049   */\n      tag_554\n        /* \"#utility.yul\":18043:18048   */\n      dup4\n        /* \"#utility.yul\":17993:18049   */\n      tag_339\n      jump\t// in\n    tag_554:\n        /* \"#utility.yul\":18072:18079   */\n      dup1\n        /* \"#utility.yul\":18103:18104   */\n      0x00\n        /* \"#utility.yul\":18088:18372   */\n    tag_555:\n        /* \"#utility.yul\":18113:18119   */\n      dup4\n        /* \"#utility.yul\":18110:18111   */\n      dup2\n        /* \"#utility.yul\":18107:18120   */\n      lt\n        /* \"#utility.yul\":18088:18372   */\n      iszero\n      tag_557\n      jumpi\n        /* \"#utility.yul\":18189:18195   */\n      dup2\n        /* \"#utility.yul\":18183:18196   */\n      mload\n        /* \"#utility.yul\":18216:18279   */\n      tag_558\n        /* \"#utility.yul\":18275:18278   */\n      dup9\n        /* \"#utility.yul\":18260:18273   */\n      dup3\n        /* \"#utility.yul\":18216:18279   */\n      tag_341\n      jump\t// in\n    tag_558:\n        /* \"#utility.yul\":18209:18279   */\n      swap8\n      pop\n        /* \"#utility.yul\":18302:18362   */\n      tag_559\n        /* \"#utility.yul\":18355:18361   */\n      dup4\n        /* \"#utility.yul\":18302:18362   */\n      tag_342\n      jump\t// in\n    tag_559:\n        /* \"#utility.yul\":18292:18362   */\n      swap3\n      pop\n        /* \"#utility.yul\":18148:18372   */\n      pop\n        /* \"#utility.yul\":18135:18136   */\n      0x01\n        /* \"#utility.yul\":18132:18133   */\n      dup2\n        /* \"#utility.yul\":18128:18137   */\n      add\n        /* \"#utility.yul\":18123:18137   */\n      swap1\n      pop\n        /* \"#utility.yul\":18088:18372   */\n      jump(tag_555)\n    tag_557:\n        /* \"#utility.yul\":18092:18106   */\n      pop\n        /* \"#utility.yul\":18388:18391   */\n      dup6\n        /* \"#utility.yul\":18381:18391   */\n      swap4\n      pop\n        /* \"#utility.yul\":17789:18397   */\n      pop\n      pop\n      pop\n        /* \"#utility.yul\":17665:18397   */\n      swap3\n      swap2\n      pop\n      pop\n      jump\t// out\n        /* \"#utility.yul\":18403:18776   */\n    tag_77:\n        /* \"#utility.yul\":18546:18550   */\n      0x00\n        /* \"#utility.yul\":18584:18586   */\n      0x20\n        /* \"#utility.yul\":18573:18582   */\n      dup3\n        /* \"#utility.yul\":18569:18587   */\n      add\n        /* \"#utility.yul\":18561:18587   */\n      swap1\n      pop\n        /* \"#utility.yul\":18633:18642   */\n      dup2\n        /* \"#utility.yul\":18627:18631   */\n      dup2\n        /* \"#utility.yul\":18623:18643   */\n      sub\n        /* \"#utility.yul\":18619:18620   */\n      0x00\n        /* \"#utility.yul\":18608:18617   */\n      dup4\n        /* \"#utility.yul\":18604:18621   */\n      add\n        /* \"#utility.yul\":18597:18644   */\n      mstore\n        /* \"#utility.yul\":18661:18769   */\n      tag_561\n        /* \"#utility.yul\":18764:18768   */\n      dup2\n        /* \"#utility.yul\":18755:18761   */\n      dup5\n        /* \"#utility.yul\":18661:18769   */\n      tag_343\n      jump\t// in\n    tag_561:\n        /* \"#utility.yul\":18653:18769   */\n      swap1\n      pop\n        /* \"#utility.yul\":18403:18776   */\n      swap3\n      swap2\n      pop\n      pop\n      jump\t// out\n        /* \"#utility.yul\":18782:18893   */\n    tag_344:\n        /* \"#utility.yul\":18867:18868   */\n      0x04\n        /* \"#utility.yul\":18860:18865   */\n      dup2\n        /* \"#utility.yul\":18857:18869   */\n      lt\n        /* \"#utility.yul\":18847:18887   */\n      tag_563\n      jumpi\n        /* \"#utility.yul\":18883:18884   */\n      0x00\n        /* \"#utility.yul\":18880:18881   */\n      0x00\n        /* \"#utility.yul\":18873:18885   */\n      revert\n        /* \"#utility.yul\":18847:18887   */\n    tag_563:\n        /* \"#utility.yul\":18782:18893   */\n      pop\n      jump\t// out\n        /* \"#utility.yul\":18899:19062   */\n    tag_345:\n        /* \"#utility.yul\":18957:18962   */\n      0x00\n        /* \"#utility.yul\":18995:19001   */\n      dup2\n        /* \"#utility.yul\":18982:19002   */\n      calldataload\n        /* \"#utility.yul\":18973:19002   */\n      swap1\n      pop\n        /* \"#utility.yul\":19011:19056   */\n      tag_565\n        /* \"#utility.yul\":19050:19055   */\n      dup2\n        /* \"#utility.yul\":19011:19056   */\n      tag_344\n      jump\t// in\n    tag_565:\n        /* \"#utility.yul\":18899:19062   */\n      swap3\n      swap2\n      pop\n      pop\n      jump\t// out\n        /* \"#utility.yul\":19068:19766   */\n    tag_80:\n        /* \"#utility.yul\":19160:19166   */\n      0x00\n        /* \"#utility.yul\":19168:19174   */\n      0x00\n        /* \"#utility.yul\":19176:19182   */\n      0x00\n        /* \"#utility.yul\":19225:19227   */\n      0x40\n        /* \"#utility.yul\":19213:19222   */\n      dup5\n        /* \"#utility.yul\":19204:19211   */\n      dup7\n        /* \"#utility.yul\":19200:19223   */\n      sub\n        /* \"#utility.yul\":19196:19228   */\n      slt\n        /* \"#utility.yul\":19193:19312   */\n      iszero\n      tag_567\n      jumpi\n        /* \"#utility.yul\":19231:19310   */\n      tag_568\n      tag_287\n      jump\t// in\n    tag_568:\n        /* \"#utility.yul\":19193:19312   */\n    tag_567:\n        /* \"#utility.yul\":19379:19380   */\n      0x00\n        /* \"#utility.yul\":19368:19377   */\n      dup5\n        /* \"#utility.yul\":19364:19381   */\n      add\n        /* \"#utility.yul\":19351:19382   */\n      calldataload\n        /* \"#utility.yul\":19409:19427   */\n      0xffffffffffffffff\n        /* \"#utility.yul\":19401:19407   */\n      dup2\n        /* \"#utility.yul\":19398:19428   */\n      gt\n        /* \"#utility.yul\":19395:19512   */\n      iszero\n      tag_569\n      jumpi\n        /* \"#utility.yul\":19431:19510   */\n      tag_570\n      tag_288\n      jump\t// in\n    tag_570:\n        /* \"#utility.yul\":19395:19512   */\n    tag_569:\n        /* \"#utility.yul\":19544:19609   */\n      tag_571\n        /* \"#utility.yul\":19601:19608   */\n      dup7\n        /* \"#utility.yul\":19592:19598   */\n      dup3\n        /* \"#utility.yul\":19581:19590   */\n      dup8\n        /* \"#utility.yul\":19577:19599   */\n      add\n        /* \"#utility.yul\":19544:19609   */\n      tag_335\n      jump\t// in\n    tag_571:\n        /* \"#utility.yul\":19526:19609   */\n      swap4\n      pop\n      swap4\n      pop\n        /* \"#utility.yul\":19322:19619   */\n      pop\n        /* \"#utility.yul\":19658:19660   */\n      0x20\n        /* \"#utility.yul\":19684:19749   */\n      tag_572\n        /* \"#utility.yul\":19741:19748   */\n      dup7\n        /* \"#utility.yul\":19732:19738   */\n      dup3\n        /* \"#utility.yul\":19721:19730   */\n      dup8\n        /* \"#utility.yul\":19717:19739   */\n      add\n        /* \"#utility.yul\":19684:19749   */\n      tag_345\n      jump\t// in\n    tag_572:\n        /* \"#utility.yul\":19674:19749   */\n      swap2\n      pop\n        /* \"#utility.yul\":19629:19759   */\n      pop\n        /* \"#utility.yul\":19068:19766   */\n      swap3\n      pop\n      swap3\n      pop\n      swap3\n      jump\t// out\n        /* \"#utility.yul\":19772:19952   */\n    tag_95:\n        /* \"#utility.yul\":19820:19897   */\n      0x4e487b7100000000000000000000000000000000000000000000000000000000\n        /* \"#utility.yul\":19817:19818   */\n      0x00\n        /* \"#utility.yul\":19810:19898   */\n      mstore\n        /* \"#utility.yul\":19917:19921   */\n      0x32\n        /* \"#utility.yul\":19914:19915   */\n      0x04\n        /* \"#utility.yul\":19907:19922   */\n      mstore\n        /* \"#utility.yul\":19941:19945   */\n      0x24\n        /* \"#utility.yul\":19938:19939   */\n      0x00\n        /* \"#utility.yul\":19931:19946   */\n      revert\n        /* \"#utility.yul\":19958:20138   */\n    tag_346:\n        /* \"#utility.yul\":20006:20083   */\n      0x4e487b7100000000000000000000000000000000000000000000000000000000\n        /* \"#utility.yul\":20003:20004   */\n      0x00\n        /* \"#utility.yul\":19996:20084   */\n      mstore\n        /* \"#utility.yul\":20103:20107   */\n      0x11\n        /* \"#utility.yul\":20100:20101   */\n      0x04\n        /* \"#utility.yul\":20093:20108   */\n      mstore\n        /* \"#utility.yul\":20127:20131   */\n      0x24\n        /* \"#utility.yul\":20124:20125   */\n      0x00\n        /* \"#utility.yul\":20117:20132   */\n      revert\n        /* \"#utility.yul\":20144:20377   */\n    tag_101:\n        /* \"#utility.yul\":20183:20186   */\n      0x00\n        /* \"#utility.yul\":20206:20230   */\n      tag_576\n        /* \"#utility.yul\":20224:20229   */\n      dup3\n        /* \"#utility.yul\":20206:20230   */\n      tag_294\n      jump\t// in\n    tag_576:\n        /* \"#utility.yul\":20197:20230   */\n      swap2\n      pop\n        /* \"#utility.yul\":20252:20318   */\n      0xffffffffffffffffffffffffffffffffffffffffffffffffffffffffffffffff\n        /* \"#utility.yul\":20245:20250   */\n      dup3\n        /* \"#utility.yul\":20242:20319   */\n      sub\n        /* \"#utility.yul\":20239:20342   */\n      tag_577\n      jumpi\n        /* \"#utility.yul\":20322:20340   */\n      tag_578\n      tag_346\n      jump\t// in\n    tag_578:\n        /* \"#utility.yul\":20239:20342   */\n    tag_577:\n        /* \"#utility.yul\":20369:20370   */\n      0x01\n        /* \"#utility.yul\":20362:20367   */\n      dup3\n        /* \"#utility.yul\":20358:20371   */\n      add\n        /* \"#utility.yul\":20351:20371   */\n      swap1\n      pop\n        /* \"#utility.yul\":20144:20377   */\n      swap2\n      swap1\n      pop\n      jump\t// out\n        /* \"#utility.yul\":20383:20563   */\n    tag_104:\n        /* \"#utility.yul\":20431:20508   */\n      0x4e487b7100000000000000000000000000000000000000000000000000000000\n        /* \"#utility.yul\":20428:20429   */\n      0x00\n        /* \"#utility.yul\":20421:20509   */\n      mstore\n        /* \"#utility.yul\":20528:20532   */\n      0x41\n        /* \"#utility.yul\":20525:20526   */\n      0x04\n        /* \"#utility.yul\":20518:20533   */\n      mstore\n        /* \"#utility.yul\":20552:20556   */\n      0x24\n        /* \"#utility.yul\":20549:20550   */\n      0x00\n        /* \"#utility.yul\":20542:20557   */\n      revert\n        /* \"#utility.yul\":20569:20731   */\n    tag_347:\n        /* \"#utility.yul\":20709:20723   */\n      0x69647820696e76616c69646f0000000000000000000000000000000000000000\n        /* \"#utility.yul\":20705:20706   */\n      0x00\n        /* \"#utility.yul\":20697:20703   */\n      dup3\n        /* \"#utility.yul\":20693:20707   */\n      add\n        /* \"#utility.yul\":20686:20724   */\n      mstore\n        /* \"#utility.yul\":20569:20731   */\n      pop\n      jump\t// out\n        /* \"#utility.yul\":20737:21103   */\n    tag_348:\n        /* \"#utility.yul\":20879:20882   */\n      0x00\n        /* \"#utility.yul\":20900:20967   */\n      tag_582\n        /* \"#utility.yul\":20964:20966   */\n      0x0c\n        /* \"#utility.yul\":20959:20962   */\n      dup4\n        /* \"#utility.yul\":20900:20967   */\n      tag_308\n      jump\t// in\n    tag_582:\n        /* \"#utility.yul\":20893:20967   */\n      swap2\n      pop\n        /* \"#utility.yul\":20976:21069   */\n      tag_583\n        /* \"#utility.yul\":21065:21068   */\n      dup3\n        /* \"#utility.yul\":20976:21069   */\n      tag_347\n      jump\t// in\n    tag_583:\n        /* \"#utility.yul\":21094:21096   */\n      0x20\n        /* \"#utility.yul\":21089:21092   */\n      dup3\n        /* \"#utility.yul\":21085:21097   */\n      add\n        /* \"#utility.yul\":21078:21097   */\n      swap1\n      pop\n        /* \"#utility.yul\":20737:21103   */\n      swap2\n      swap1\n      pop\n      jump\t// out\n        /* \"#utility.yul\":21109:21528   */\n    tag_123:\n        /* \"#utility.yul\":21275:21279   */\n      0x00\n        /* \"#utility.yul\":21313:21315   */\n      0x20\n        /* \"#utility.yul\":21302:21311   */\n      dup3\n        /* \"#utility.yul\":21298:21316   */\n      add\n        /* \"#utility.yul\":21290:21316   */\n      swap1\n      pop\n        /* \"#utility.yul\":21362:21371   */\n      dup2\n        /* \"#utility.yul\":21356:21360   */\n      dup2\n        /* \"#utility.yul\":21352:21372   */\n      sub\n        /* \"#utility.yul\":21348:21349   */\n      0x00\n        /* \"#utility.yul\":21337:21346   */\n      dup4\n        /* \"#utility.yul\":21333:21350   */\n      add\n        /* \"#utility.yul\":21326:21373   */\n      mstore\n        /* \"#utility.yul\":21390:21521   */\n      tag_585\n        /* \"#utility.yul\":21516:21520   */\n      dup2\n        /* \"#utility.yul\":21390:21521   */\n      tag_348\n      jump\t// in\n    tag_585:\n        /* \"#utility.yul\":21382:21521   */\n      swap1\n      pop\n        /* \"#utility.yul\":21109:21528   */\n      swap2\n      swap1\n      pop\n      jump\t// out\n        /* \"#utility.yul\":21534:21768   */\n    tag_130:\n        /* \"#utility.yul\":21633:21637   */\n      0x00\n        /* \"#utility.yul\":21671:21673   */\n      0x20\n        /* \"#utility.yul\":21660:21669   */\n      dup3\n        /* \"#utility.yul\":21656:21674   */\n      add\n        /* \"#utility.yul\":21648:21674   */\n      swap1\n      pop\n        /* \"#utility.yul\":21684:21761   */\n      tag_587\n        /* \"#utility.yul\":21758:21759   */\n      0x00\n        /* \"#utility.yul\":21747:21756   */\n      dup4\n        /* \"#utility.yul\":21743:21760   */\n      add\n        /* \"#utility.yul\":21734:21740   */\n      dup5\n        /* \"#utility.yul\":21684:21761   */\n      tag_319\n      jump\t// in\n    tag_587:\n        /* \"#utility.yul\":21534:21768   */\n      swap3\n      swap2\n      pop\n      pop\n      jump\t// out\n        /* \"#utility.yul\":21774:21934   */\n    tag_349:\n        /* \"#utility.yul\":21914:21926   */\n      0x73696e2074617265617300000000000000000000000000000000000000000000\n        /* \"#utility.yul\":21910:21911   */\n      0x00\n        /* \"#utility.yul\":21902:21908   */\n      dup3\n        /* \"#utility.yul\":21898:21912   */\n      add\n        /* \"#utility.yul\":21891:21927   */\n      mstore\n        /* \"#utility.yul\":21774:21934   */\n      pop\n      jump\t// out\n        /* \"#utility.yul\":21940:22306   */\n    tag_350:\n        /* \"#utility.yul\":22082:22085   */\n      0x00\n        /* \"#utility.yul\":22103:22170   */\n      tag_590\n        /* \"#utility.yul\":22167:22169   */\n      0x0a\n        /* \"#utility.yul\":22162:22165   */\n      dup4\n        /* \"#utility.yul\":22103:22170   */\n      tag_308\n      jump\t// in\n    tag_590:\n        /* \"#utility.yul\":22096:22170   */\n      swap2\n      pop\n        /* \"#utility.yul\":22179:22272   */\n      tag_591\n        /* \"#utility.yul\":22268:22271   */\n      dup3\n        /* \"#utility.yul\":22179:22272   */\n      tag_349\n      jump\t// in\n    tag_591:\n        /* \"#utility.yul\":22297:22299   */\n      0x20\n        /* \"#utility.yul\":22292:22295   */\n      dup3\n        /* \"#utility.yul\":22288:22300   */\n      add\n        /* \"#utility.yul\":22281:22300   */\n      swap1\n      pop\n        /* \"#utility.yul\":21940:22306   */\n      swap2\n      swap1\n      pop\n      jump\t// out\n        /* \"#utility.yul\":22312:22731   */\n    tag_139:\n        /* \"#utility.yul\":22478:22482   */\n      0x00\n        /* \"#utility.yul\":22516:22518   */\n      0x20\n        /* \"#utility.yul\":22505:22514   */\n      dup3\n        /* \"#utility.yul\":22501:22519   */\n      add\n        /* \"#utility.yul\":22493:22519   */\n      swap1\n      pop\n        /* \"#utility.yul\":22565:22574   */\n      dup2\n        /* \"#utility.yul\":22559:22563   */\n      dup2\n        /* \"#utility.yul\":22555:22575   */\n      sub\n        /* \"#utility.yul\":22551:22552   */\n      0x00\n        /* \"#utility.yul\":22540:22549   */\n      dup4\n        /* \"#utility.yul\":22536:22553   */\n      add\n        /* \"#utility.yul\":22529:22576   */\n      mstore\n        /* \"#utility.yul\":22593:22724   */\n      tag_593\n        /* \"#utility.yul\":22719:22723   */\n      dup2\n        /* \"#utility.yul\":22593:22724   */\n      tag_350\n      jump\t// in\n    tag_593:\n        /* \"#utility.yul\":22585:22724   */\n      swap1\n      pop\n        /* \"#utility.yul\":22312:22731   */\n      swap2\n      swap1\n      pop\n      jump\t// out\n        /* \"#utility.yul\":22737:22917   */\n    tag_142:\n        /* \"#utility.yul\":22785:22862   */\n      0x4e487b7100000000000000000000000000000000000000000000000000000000\n        /* \"#utility.yul\":22782:22783   */\n      0x00\n        /* \"#utility.yul\":22775:22863   */\n      mstore\n        /* \"#utility.yul\":22882:22886   */\n      0x31\n        /* \"#utility.yul\":22879:22880   */\n      0x04\n        /* \"#utility.yul\":22872:22887   */\n      mstore\n        /* \"#utility.yul\":22906:22910   */\n      0x24\n        /* \"#utility.yul\":22903:22904   */\n      0x00\n        /* \"#utility.yul\":22896:22911   */\n      revert\n        /* \"#utility.yul\":22923:23103   */\n    tag_351:\n        /* \"#utility.yul\":22971:23048   */\n      0x4e487b7100000000000000000000000000000000000000000000000000000000\n        /* \"#utility.yul\":22968:22969   */\n      0x00\n        /* \"#utility.yul\":22961:23049   */\n      mstore\n        /* \"#utility.yul\":23068:23072   */\n      0x22\n        /* \"#utility.yul\":23065:23066   */\n      0x04\n        /* \"#utility.yul\":23058:23073   */\n      mstore\n        /* \"#utility.yul\":23092:23096   */\n      0x24\n        /* \"#utility.yul\":23089:23090   */\n      0x00\n        /* \"#utility.yul\":23082:23097   */\n      revert\n        /* \"#utility.yul\":23109:23429   */\n    tag_153:\n        /* \"#utility.yul\":23153:23159   */\n      0x00\n        /* \"#utility.yul\":23190:23191   */\n      0x02\n        /* \"#utility.yul\":23184:23188   */\n      dup3\n        /* \"#utility.yul\":23180:23192   */\n      div\n        /* \"#utility.yul\":23170:23192   */\n      swap1\n      pop\n        /* \"#utility.yul\":23237:23238   */\n      0x01\n        /* \"#utility.yul\":23231:23235   */\n      dup3\n        /* \"#utility.yul\":23227:23239   */\n      and\n        /* \"#utility.yul\":23258:23276   */\n      dup1\n        /* \"#utility.yul\":23248:23329   */\n      tag_597\n      jumpi\n        /* \"#utility.yul\":23314:23318   */\n      0x7f\n        /* \"#utility.yul\":23306:23312   */\n      dup3\n        /* \"#utility.yul\":23302:23319   */\n      and\n        /* \"#utility.yul\":23292:23319   */\n      swap2\n      pop\n        /* \"#utility.yul\":23248:23329   */\n    tag_597:\n        /* \"#utility.yul\":23376:23378   */\n      0x20\n        /* \"#utility.yul\":23368:23374   */\n      dup3\n        /* \"#utility.yul\":23365:23379   */\n      lt\n        /* \"#utility.yul\":23345:23363   */\n      dup2\n        /* \"#utility.yul\":23342:23380   */\n      sub\n        /* \"#utility.yul\":23339:23423   */\n      tag_598\n      jumpi\n        /* \"#utility.yul\":23395:23413   */\n      tag_599\n      tag_351\n      jump\t// in\n    tag_599:\n        /* \"#utility.yul\":23339:23423   */\n    tag_598:\n        /* \"#utility.yul\":23160:23429   */\n      pop\n        /* \"#utility.yul\":23109:23429   */\n      swap2\n      swap1\n      pop\n      jump\t// out\n        /* \"#utility.yul\":23435:23532   */\n    tag_352:\n        /* \"#utility.yul\":23494:23500   */\n      0x00\n        /* \"#utility.yul\":23522:23525   */\n      dup3\n        /* \"#utility.yul\":23512:23525   */\n      swap1\n      pop\n        /* \"#utility.yul\":23435:23532   */\n      swap3\n      swap2\n      pop\n      pop\n      jump\t// out\n        /* \"#utility.yul\":23538:23679   */\n    tag_353:\n        /* \"#utility.yul\":23587:23591   */\n      0x00\n        /* \"#utility.yul\":23610:23613   */\n      dup2\n        /* \"#utility.yul\":23602:23613   */\n      swap1\n      pop\n        /* \"#utility.yul\":23633:23636   */\n      dup2\n        /* \"#utility.yul\":23630:23631   */\n      0x00\n        /* \"#utility.yul\":23623:23637   */\n      mstore\n        /* \"#utility.yul\":23667:23671   */\n      0x20\n        /* \"#utility.yul\":23664:23665   */\n      0x00\n        /* \"#utility.yul\":23654:23672   */\n      keccak256\n        /* \"#utility.yul\":23646:23672   */\n      swap1\n      pop\n        /* \"#utility.yul\":23538:23679   */\n      swap2\n      swap1\n      pop\n      jump\t// out\n        /* \"#utility.yul\":23685:23778   */\n    tag_354:\n        /* \"#utility.yul\":23722:23728   */\n      0x00\n        /* \"#utility.yul\":23769:23771   */\n      0x20\n        /* \"#utility.yul\":23764:23766   */\n      0x1f\n        /* \"#utility.yul\":23757:23762   */\n      dup4\n        /* \"#utility.yul\":23753:23767   */\n      add\n        /* \"#utility.yul\":23749:23772   */\n      div\n        /* \"#utility.yul\":23739:23772   */\n      swap1\n      pop\n        /* \"#utility.yul\":23685:23778   */\n      swap2\n      swap1\n      pop\n      jump\t// out\n        /* \"#utility.yul\":23784:23891   */\n    tag_355:\n        /* \"#utility.yul\":23828:23836   */\n      0x00\n        /* \"#utility.yul\":23878:23883   */\n      dup3\n        /* \"#utility.yul\":23872:23876   */\n      dup3\n        /* \"#utility.yul\":23868:23884   */\n      shl\n        /* \"#utility.yul\":23847:23884   */\n      swap1\n      pop\n        /* \"#utility.yul\":23784:23891   */\n      swap3\n      swap2\n      pop\n      pop\n      jump\t// out\n        /* \"#utility.yul\":23897:24290   */\n    tag_356:\n        /* \"#utility.yul\":23966:23972   */\n      0x00\n        /* \"#utility.yul\":24016:24017   */\n      0x08\n        /* \"#utility.yul\":24004:24014   */\n      dup4\n        /* \"#utility.yul\":24000:24018   */\n      mul\n        /* \"#utility.yul\":24039:24136   */\n      tag_605\n        /* \"#utility.yul\":24069:24135   */\n      0xffffffffffffffffffffffffffffffffffffffffffffffffffffffffffffffff\n        /* \"#utility.yul\":24058:24067   */\n      dup3\n        /* \"#utility.yul\":24039:24136   */\n      tag_355\n      jump\t// in\n    tag_605:\n        /* \"#utility.yul\":24157:24196   */\n      tag_606\n        /* \"#utility.yul\":24187:24195   */\n      dup7\n        /* \"#utility.yul\":24176:24185   */\n      dup4\n        /* \"#utility.yul\":24157:24196   */\n      tag_355\n      jump\t// in\n    tag_606:\n        /* \"#utility.yul\":24145:24196   */\n      swap6\n      pop\n        /* \"#utility.yul\":24229:24233   */\n      dup1\n        /* \"#utility.yul\":24225:24234   */\n      not\n        /* \"#utility.yul\":24218:24223   */\n      dup5\n        /* \"#utility.yul\":24214:24235   */\n      and\n        /* \"#utility.yul\":24205:24235   */\n      swap4\n      pop\n        /* \"#utility.yul\":24278:24282   */\n      dup1\n        /* \"#utility.yul\":24268:24276   */\n      dup7\n        /* \"#utility.yul\":24264:24283   */\n      and\n        /* \"#utility.yul\":24257:24262   */\n      dup5\n        /* \"#utility.yul\":24254:24284   */\n      or\n        /* \"#utility.yul\":24244:24284   */\n      swap3\n      pop\n        /* \"#utility.yul\":23973:24290   */\n      pop\n      pop\n        /* \"#utility.yul\":23897:24290   */\n      swap4\n      swap3\n      pop\n      pop\n      pop\n      jump\t// out\n        /* \"#utility.yul\":24296:24356   */\n    tag_357:\n        /* \"#utility.yul\":24324:24327   */\n      0x00\n        /* \"#utility.yul\":24345:24350   */\n      dup2\n        /* \"#utility.yul\":24338:24350   */\n      swap1\n      pop\n        /* \"#utility.yul\":24296:24356   */\n      swap2\n      swap1\n      pop\n      jump\t// out\n        /* \"#utility.yul\":24362:24504   */\n    tag_358:\n        /* \"#utility.yul\":24412:24421   */\n      0x00\n        /* \"#utility.yul\":24445:24498   */\n      tag_609\n        /* \"#utility.yul\":24463:24497   */\n      tag_610\n        /* \"#utility.yul\":24472:24496   */\n      tag_611\n        /* \"#utility.yul\":24490:24495   */\n      dup5\n        /* \"#utility.yul\":24472:24496   */\n      tag_294\n      jump\t// in\n    tag_611:\n        /* \"#utility.yul\":24463:24497   */\n      tag_357\n      jump\t// in\n    tag_610:\n        /* \"#utility.yul\":24445:24498   */\n      tag_294\n      jump\t// in\n    tag_609:\n        /* \"#utility.yul\":24432:24498   */\n      swap1\n      pop\n        /* \"#utility.yul\":24362:24504   */\n      swap2\n      swap1\n      pop\n      jump\t// out\n        /* \"#utility.yul\":24510:24585   */\n    tag_359:\n        /* \"#utility.yul\":24553:24556   */\n      0x00\n        /* \"#utility.yul\":24574:24579   */\n      dup2\n        /* \"#utility.yul\":24567:24579   */\n      swap1\n      pop\n        /* \"#utility.yul\":24510:24585   */\n      swap2\n      swap1\n      pop\n      jump\t// out\n        /* \"#utility.yul\":24591:24860   */\n    tag_360:\n        /* \"#utility.yul\":24701:24740   */\n      tag_614\n        /* \"#utility.yul\":24732:24739   */\n      dup4\n        /* \"#utility.yul\":24701:24740   */\n      tag_358\n      jump\t// in\n    tag_614:\n        /* \"#utility.yul\":24762:24853   */\n      tag_615\n        /* \"#utility.yul\":24811:24852   */\n      tag_616\n        /* \"#utility.yul\":24835:24851   */\n      dup3\n        /* \"#utility.yul\":24811:24852   */\n      tag_359\n      jump\t// in\n    tag_616:\n        /* \"#utility.yul\":24803:24809   */\n      dup5\n        /* \"#utility.yul\":24796:24800   */\n      dup5\n        /* \"#utility.yul\":24790:24801   */\n      sload\n        /* \"#utility.yul\":24762:24853   */\n      tag_356\n      jump\t// in\n    tag_615:\n        /* \"#utility.yul\":24756:24760   */\n      dup3\n        /* \"#utility.yul\":24749:24854   */\n      sstore\n        /* \"#utility.yul\":24667:24860   */\n      pop\n        /* \"#utility.yul\":24591:24860   */\n      pop\n      pop\n      pop\n      jump\t// out\n        /* \"#utility.yul\":24866:24939   */\n    tag_361:\n        /* \"#utility.yul\":24911:24914   */\n      0x00\n        /* \"#utility.yul\":24932:24933   */\n      0x00\n        /* \"#utility.yul\":24925:24933   */\n      swap1\n      pop\n        /* \"#utility.yul\":24866:24939   */\n      swap1\n      jump\t// out\n        /* \"#utility.yul\":24945:25134   */\n    tag_362:\n        /* \"#utility.yul\":25022:25054   */\n      tag_619\n      tag_361\n      jump\t// in\n    tag_619:\n        /* \"#utility.yul\":25063:25128   */\n      tag_620\n        /* \"#utility.yul\":25121:25127   */\n      dup2\n        /* \"#utility.yul\":25113:25119   */\n      dup5\n        /* \"#utility.yul\":25107:25111   */\n      dup5\n        /* \"#utility.yul\":25063:25128   */\n      tag_360\n      jump\t// in\n    tag_620:\n        /* \"#utility.yul\":24998:25134   */\n      pop\n        /* \"#utility.yul\":24945:25134   */\n      pop\n      pop\n      jump\t// out\n        /* \"#utility.yul\":25140:25326   */\n    tag_363:\n        /* \"#utility.yul\":25200:25320   */\n    tag_622:\n        /* \"#utility.yul\":25217:25220   */\n      dup2\n        /* \"#utility.yul\":25210:25215   */\n      dup2\n        /* \"#utility.yul\":25207:25221   */\n      lt\n        /* \"#utility.yul\":25200:25320   */\n      iszero\n      tag_624\n      jumpi\n        /* \"#utility.yul\":25271:25310   */\n      tag_625\n        /* \"#utility.yul\":25308:25309   */\n      0x00\n        /* \"#utility.yul\":25301:25306   */\n      dup3\n        /* \"#utility.yul\":25271:25310   */\n      tag_362\n      jump\t// in\n    tag_625:\n        /* \"#utility.yul\":25244:25245   */\n      0x01\n        /* \"#utility.yul\":25237:25242   */\n      dup2\n        /* \"#utility.yul\":25233:25246   */\n      add\n        /* \"#utility.yul\":25224:25246   */\n      swap1\n      pop\n        /* \"#utility.yul\":25200:25320   */\n      jump(tag_622)\n    tag_624:\n        /* \"#utility.yul\":25140:25326   */\n      pop\n      pop\n      jump\t// out\n        /* \"#utility.yul\":25332:25875   */\n    tag_364:\n        /* \"#utility.yul\":25433:25435   */\n      0x1f\n        /* \"#utility.yul\":25428:25431   */\n      dup3\n        /* \"#utility.yul\":25425:25436   */\n      gt\n        /* \"#utility.yul\":25422:25868   */\n      iszero\n      tag_627\n      jumpi\n        /* \"#utility.yul\":25467:25505   */\n      tag_628\n        /* \"#utility.yul\":25499:25504   */\n      dup2\n        /* \"#utility.yul\":25467:25505   */\n      tag_353\n      jump\t// in\n    tag_628:\n        /* \"#utility.yul\":25551:25580   */\n      tag_629\n        /* \"#utility.yul\":25569:25579   */\n      dup5\n        /* \"#utility.yul\":25551:25580   */\n      tag_354\n      jump\t// in\n    tag_629:\n        /* \"#utility.yul\":25541:25549   */\n      dup2\n        /* \"#utility.yul\":25537:25581   */\n      add\n        /* \"#utility.yul\":25734:25736   */\n      0x20\n        /* \"#utility.yul\":25722:25732   */\n      dup6\n        /* \"#utility.yul\":25719:25737   */\n      lt\n        /* \"#utility.yul\":25716:25765   */\n      iszero\n      tag_630\n      jumpi\n        /* \"#utility.yul\":25755:25763   */\n      dup2\n        /* \"#utility.yul\":25740:25763   */\n      swap1\n      pop\n        /* \"#utility.yul\":25716:25765   */\n    tag_630:\n        /* \"#utility.yul\":25778:25858   */\n      tag_631\n        /* \"#utility.yul\":25834:25856   */\n      tag_632\n        /* \"#utility.yul\":25852:25855   */\n      dup6\n        /* \"#utility.yul\":25834:25856   */\n      tag_354\n      jump\t// in\n    tag_632:\n        /* \"#utility.yul\":25824:25832   */\n      dup4\n        /* \"#utility.yul\":25820:25857   */\n      add\n        /* \"#utility.yul\":25807:25818   */\n      dup3\n        /* \"#utility.yul\":25778:25858   */\n      tag_363\n      jump\t// in\n    tag_631:\n        /* \"#utility.yul\":25437:25868   */\n      pop\n      pop\n        /* \"#utility.yul\":25422:25868   */\n    tag_627:\n        /* \"#utility.yul\":25332:25875   */\n      pop\n      pop\n      pop\n      jump\t// out\n        /* \"#utility.yul\":25881:25998   */\n    tag_365:\n        /* \"#utility.yul\":25935:25943   */\n      0x00\n        /* \"#utility.yul\":25985:25990   */\n      dup3\n        /* \"#utility.yul\":25979:25983   */\n      dup3\n        /* \"#utility.yul\":25975:25991   */\n      shr\n        /* \"#utility.yul\":25954:25991   */\n      swap1\n      pop\n        /* \"#utility.yul\":25881:25998   */\n      swap3\n      swap2\n      pop\n      pop\n      jump\t// out\n        /* \"#utility.yul\":26004:26173   */\n    tag_366:\n        /* \"#utility.yul\":26048:26054   */\n      0x00\n        /* \"#utility.yul\":26081:26132   */\n      tag_635\n        /* \"#utility.yul\":26129:26130   */\n      0x00\n        /* \"#utility.yul\":26125:26131   */\n      not\n        /* \"#utility.yul\":26117:26122   */\n      dup5\n        /* \"#utility.yul\":26114:26115   */\n      0x08\n        /* \"#utility.yul\":26110:26123   */\n      mul\n        /* \"#utility.yul\":26081:26132   */\n      tag_365\n      jump\t// in\n    tag_635:\n        /* \"#utility.yul\":26077:26133   */\n      not\n        /* \"#utility.yul\":26162:26166   */\n      dup1\n        /* \"#utility.yul\":26156:26160   */\n      dup4\n        /* \"#utility.yul\":26152:26167   */\n      and\n        /* \"#utility.yul\":26142:26167   */\n      swap2\n      pop\n        /* \"#utility.yul\":26055:26173   */\n      pop\n        /* \"#utility.yul\":26004:26173   */\n      swap3\n      swap2\n      pop\n      pop\n      jump\t// out\n        /* \"#utility.yul\":26178:26473   */\n    tag_367:\n        /* \"#utility.yul\":26254:26258   */\n      0x00\n        /* \"#utility.yul\":26400:26429   */\n      tag_637\n        /* \"#utility.yul\":26425:26428   */\n      dup4\n        /* \"#utility.yul\":26419:26423   */\n      dup4\n        /* \"#utility.yul\":26400:26429   */\n      tag_366\n      jump\t// in\n    tag_637:\n        /* \"#utility.yul\":26392:26429   */\n      swap2\n      pop\n        /* \"#utility.yul\":26462:26465   */\n      dup3\n        /* \"#utility.yul\":26459:26460   */\n      0x02\n        /* \"#utility.yul\":26455:26466   */\n      mul\n        /* \"#utility.yul\":26449:26453   */\n      dup3\n        /* \"#utility.yul\":26446:26467   */\n      or\n        /* \"#utility.yul\":26438:26467   */\n      swap1\n      pop\n        /* \"#utility.yul\":26178:26473   */\n      swap3\n      swap2\n      pop\n      pop\n      jump\t// out\n        /* \"#utility.yul\":26478:27881   */\n    tag_194:\n        /* \"#utility.yul\":26602:26646   */\n      tag_639\n        /* \"#utility.yul\":26642:26645   */\n      dup4\n        /* \"#utility.yul\":26637:26640   */\n      dup4\n        /* \"#utility.yul\":26602:26646   */\n      tag_352\n      jump\t// in\n    tag_639:\n        /* \"#utility.yul\":26711:26729   */\n      0xffffffffffffffff\n        /* \"#utility.yul\":26703:26709   */\n      dup2\n        /* \"#utility.yul\":26700:26730   */\n      gt\n        /* \"#utility.yul\":26697:26753   */\n      iszero\n      tag_640\n      jumpi\n        /* \"#utility.yul\":26733:26751   */\n      tag_641\n      tag_104\n      jump\t// in\n    tag_641:\n        /* \"#utility.yul\":26697:26753   */\n    tag_640:\n        /* \"#utility.yul\":26777:26815   */\n      tag_642\n        /* \"#utility.yul\":26809:26813   */\n      dup3\n        /* \"#utility.yul\":26803:26814   */\n      sload\n        /* \"#utility.yul\":26777:26815   */\n      tag_153\n      jump\t// in\n    tag_642:\n        /* \"#utility.yul\":26862:26929   */\n      tag_643\n        /* \"#utility.yul\":26922:26928   */\n      dup3\n        /* \"#utility.yul\":26914:26920   */\n      dup3\n        /* \"#utility.yul\":26908:26912   */\n      dup6\n        /* \"#utility.yul\":26862:26929   */\n      tag_364\n      jump\t// in\n    tag_643:\n        /* \"#utility.yul\":26956:26957   */\n      0x00\n        /* \"#utility.yul\":26985:26987   */\n      0x1f\n        /* \"#utility.yul\":26977:26983   */\n      dup4\n        /* \"#utility.yul\":26974:26988   */\n      gt\n        /* \"#utility.yul\":27002:27003   */\n      0x01\n        /* \"#utility.yul\":26997:27629   */\n      dup2\n      eq\n      tag_645\n      jumpi\n        /* \"#utility.yul\":27673:27674   */\n      0x00\n        /* \"#utility.yul\":27690:27696   */\n      dup5\n        /* \"#utility.yul\":27687:27771   */\n      iszero\n      tag_646\n      jumpi\n        /* \"#utility.yul\":27746:27755   */\n      dup3\n        /* \"#utility.yul\":27741:27744   */\n      dup8\n        /* \"#utility.yul\":27737:27756   */\n      add\n        /* \"#utility.yul\":27724:27757   */\n      calldataload\n        /* \"#utility.yul\":27715:27757   */\n      swap1\n      pop\n        /* \"#utility.yul\":27687:27771   */\n    tag_646:\n        /* \"#utility.yul\":27797:27864   */\n      tag_647\n        /* \"#utility.yul\":27857:27863   */\n      dup6\n        /* \"#utility.yul\":27850:27855   */\n      dup3\n        /* \"#utility.yul\":27797:27864   */\n      tag_367\n      jump\t// in\n    tag_647:\n        /* \"#utility.yul\":27791:27795   */\n      dup7\n        /* \"#utility.yul\":27784:27865   */\n      sstore\n        /* \"#utility.yul\":27646:27875   */\n      pop\n        /* \"#utility.yul\":26967:27875   */\n      jump(tag_644)\n        /* \"#utility.yul\":26997:27629   */\n    tag_645:\n        /* \"#utility.yul\":27049:27053   */\n      0x1f\n        /* \"#utility.yul\":27045:27054   */\n      not\n        /* \"#utility.yul\":27037:27043   */\n      dup5\n        /* \"#utility.yul\":27033:27055   */\n      and\n        /* \"#utility.yul\":27083:27120   */\n      tag_648\n        /* \"#utility.yul\":27115:27119   */\n      dup7\n        /* \"#utility.yul\":27083:27120   */\n      tag_353\n      jump\t// in\n    tag_648:\n        /* \"#utility.yul\":27142:27143   */\n      0x00\n        /* \"#utility.yul\":27156:27371   */\n    tag_649:\n        /* \"#utility.yul\":27170:27177   */\n      dup3\n        /* \"#utility.yul\":27167:27168   */\n      dup2\n        /* \"#utility.yul\":27164:27178   */\n      lt\n        /* \"#utility.yul\":27156:27371   */\n      iszero\n      tag_651\n      jumpi\n        /* \"#utility.yul\":27256:27265   */\n      dup5\n        /* \"#utility.yul\":27251:27254   */\n      dup10\n        /* \"#utility.yul\":27247:27266   */\n      add\n        /* \"#utility.yul\":27234:27267   */\n      calldataload\n        /* \"#utility.yul\":27226:27232   */\n      dup3\n        /* \"#utility.yul\":27219:27268   */\n      sstore\n        /* \"#utility.yul\":27307:27308   */\n      0x01\n        /* \"#utility.yul\":27299:27305   */\n      dup3\n        /* \"#utility.yul\":27295:27309   */\n      add\n        /* \"#utility.yul\":27285:27309   */\n      swap2\n      pop\n        /* \"#utility.yul\":27354:27356   */\n      0x20\n        /* \"#utility.yul\":27343:27352   */\n      dup6\n        /* \"#utility.yul\":27339:27357   */\n      add\n        /* \"#utility.yul\":27326:27357   */\n      swap5\n      pop\n        /* \"#utility.yul\":27193:27197   */\n      0x20\n        /* \"#utility.yul\":27190:27191   */\n      dup2\n        /* \"#utility.yul\":27186:27198   */\n      add\n        /* \"#utility.yul\":27181:27198   */\n      swap1\n      pop\n        /* \"#utility.yul\":27156:27371   */\n      jump(tag_649)\n    tag_651:\n        /* \"#utility.yul\":27399:27405   */\n      dup7\n        /* \"#utility.yul\":27390:27397   */\n      dup4\n        /* \"#utility.yul\":27387:27406   */\n      lt\n        /* \"#utility.yul\":27384:27570   */\n      iszero\n      tag_652\n      jumpi\n        /* \"#utility.yul\":27464:27473   */\n      dup5\n        /* \"#utility.yul\":27459:27462   */\n      dup10\n        /* \"#utility.yul\":27455:27474   */\n      add\n        /* \"#utility.yul\":27442:27475   */\n      calldataload\n        /* \"#utility.yul\":27507:27555   */\n      tag_653\n        /* \"#utility.yul\":27549:27553   */\n      0x1f\n        /* \"#utility.yul\":27541:27547   */\n      dup10\n        /* \"#utility.yul\":27537:27554   */\n      and\n        /* \"#utility.yul\":27526:27535   */\n      dup3\n        /* \"#utility.yul\":27507:27555   */\n      tag_366\n      jump\t// in\n    tag_653:\n        /* \"#utility.yul\":27499:27505   */\n      dup4\n        /* \"#utility.yul\":27492:27556   */\n      sstore\n        /* \"#utility.yul\":27407:27570   */\n      pop\n        /* \"#utility.yul\":27384:27570   */\n    tag_652:\n        /* \"#utility.yul\":27616:27617   */\n      0x01\n        /* \"#utility.yul\":27612:27613   */\n      0x02\n        /* \"#utility.yul\":27604:27610   */\n      dup9\n        /* \"#utility.yul\":27600:27614   */\n      mul\n        /* \"#utility.yul\":27596:27618   */\n      add\n        /* \"#utility.yul\":27590:27594   */\n      dup9\n        /* \"#utility.yul\":27583:27619   */\n      sstore\n        /* \"#utility.yul\":27004:27629   */\n      pop\n      pop\n      pop\n        /* \"#utility.yul\":26967:27875   */\n    tag_644:\n      pop\n        /* \"#utility.yul\":26577:27881   */\n      pop\n      pop\n      pop\n        /* \"#utility.yul\":26478:27881   */\n      pop\n      pop\n      pop\n      jump\t// out\n        /* \"#utility.yul\":27887:28035   */\n    tag_368:\n        /* \"#utility.yul\":27985:27991   */\n      dup3\n        /* \"#utility.yul\":27980:27983   */\n      dup2\n        /* \"#utility.yul\":27975:27978   */\n      dup4\n        /* \"#utility.yul\":27962:27992   */\n      calldatacopy\n        /* \"#utility.yul\":28026:28027   */\n      0x00\n        /* \"#utility.yul\":28017:28023   */\n      dup4\n        /* \"#utility.yul\":28012:28015   */\n      dup4\n        /* \"#utility.yul\":28008:28024   */\n      add\n        /* \"#utility.yul\":28001:28028   */\n      mstore\n        /* \"#utility.yul\":27887:28035   */\n      pop\n      pop\n      pop\n      jump\t// out\n        /* \"#utility.yul\":28065:28382   */\n    tag_369:\n        /* \"#utility.yul\":28163:28166   */\n      0x00\n        /* \"#utility.yul\":28184:28255   */\n      tag_656\n        /* \"#utility.yul\":28248:28254   */\n      dup4\n        /* \"#utility.yul\":28243:28246   */\n      dup6\n        /* \"#utility.yul\":28184:28255   */\n      tag_308\n      jump\t// in\n    tag_656:\n        /* \"#utility.yul\":28177:28255   */\n      swap4\n      pop\n        /* \"#utility.yul\":28265:28321   */\n      tag_657\n        /* \"#utility.yul\":28314:28320   */\n      dup4\n        /* \"#utility.yul\":28309:28312   */\n      dup6\n        /* \"#utility.yul\":28302:28307   */\n      dup5\n        /* \"#utility.yul\":28265:28321   */\n      tag_368\n      jump\t// in\n    tag_657:\n        /* \"#utility.yul\":28346:28375   */\n      tag_658\n        /* \"#utility.yul\":28368:28374   */\n      dup4\n        /* \"#utility.yul\":28346:28375   */\n      tag_310\n      jump\t// in\n    tag_658:\n        /* \"#utility.yul\":28341:28344   */\n      dup5\n        /* \"#utility.yul\":28337:28376   */\n      add\n        /* \"#utility.yul\":28330:28376   */\n      swap1\n      pop\n        /* \"#utility.yul\":28065:28382   */\n      swap4\n      swap3\n      pop\n      pop\n      pop\n      jump\t// out\n        /* \"#utility.yul\":28388:28721   */\n    tag_196:\n        /* \"#utility.yul\":28511:28515   */\n      0x00\n        /* \"#utility.yul\":28549:28551   */\n      0x20\n        /* \"#utility.yul\":28538:28547   */\n      dup3\n        /* \"#utility.yul\":28534:28552   */\n      add\n        /* \"#utility.yul\":28526:28552   */\n      swap1\n      pop\n        /* \"#utility.yul\":28598:28607   */\n      dup2\n        /* \"#utility.yul\":28592:28596   */\n      dup2\n        /* \"#utility.yul\":28588:28608   */\n      sub\n        /* \"#utility.yul\":28584:28585   */\n      0x00\n        /* \"#utility.yul\":28573:28582   */\n      dup4\n        /* \"#utility.yul\":28569:28586   */\n      add\n        /* \"#utility.yul\":28562:28609   */\n      mstore\n        /* \"#utility.yul\":28626:28714   */\n      tag_660\n        /* \"#utility.yul\":28709:28713   */\n      dup2\n        /* \"#utility.yul\":28700:28706   */\n      dup5\n        /* \"#utility.yul\":28692:28698   */\n      dup7\n        /* \"#utility.yul\":28626:28714   */\n      tag_369\n      jump\t// in\n    tag_660:\n        /* \"#utility.yul\":28618:28714   */\n      swap1\n      pop\n        /* \"#utility.yul\":28388:28721   */\n      swap4\n      swap3\n      pop\n      pop\n      pop\n      jump\t// out\n        /* \"#utility.yul\":28727:30122   */\n    tag_232:\n        /* \"#utility.yul\":28844:28881   */\n      tag_662\n        /* \"#utility.yul\":28877:28880   */\n      dup3\n        /* \"#utility.yul\":28844:28881   */\n      tag_307\n      jump\t// in\n    tag_662:\n        /* \"#utility.yul\":28946:28964   */\n      0xffffffffffffffff\n        /* \"#utility.yul\":28938:28944   */\n      dup2\n        /* \"#utility.yul\":28935:28965   */\n      gt\n        /* \"#utility.yul\":28932:28988   */\n      iszero\n      tag_663\n      jumpi\n        /* \"#utility.yul\":28968:28986   */\n      tag_664\n      tag_104\n      jump\t// in\n    tag_664:\n        /* \"#utility.yul\":28932:28988   */\n    tag_663:\n        /* \"#utility.yul\":29012:29050   */\n      tag_665\n        /* \"#utility.yul\":29044:29048   */\n      dup3\n        /* \"#utility.yul\":29038:29049   */\n      sload\n        /* \"#utility.yul\":29012:29050   */\n      tag_153\n      jump\t// in\n    tag_665:\n        /* \"#utility.yul\":29097:29164   */\n      tag_666\n        /* \"#utility.yul\":29157:29163   */\n      dup3\n        /* \"#utility.yul\":29149:29155   */\n      dup3\n        /* \"#utility.yul\":29143:29147   */\n      dup6\n        /* \"#utility.yul\":29097:29164   */\n      tag_364\n      jump\t// in\n    tag_666:\n        /* \"#utility.yul\":29191:29192   */\n      0x00\n        /* \"#utility.yul\":29215:29219   */\n      0x20\n        /* \"#utility.yul\":29202:29219   */\n      swap1\n      pop\n        /* \"#utility.yul\":29247:29249   */\n      0x1f\n        /* \"#utility.yul\":29239:29245   */\n      dup4\n        /* \"#utility.yul\":29236:29250   */\n      gt\n        /* \"#utility.yul\":29264:29265   */\n      0x01\n        /* \"#utility.yul\":29259:29877   */\n      dup2\n      eq\n      tag_668\n      jumpi\n        /* \"#utility.yul\":29921:29922   */\n      0x00\n        /* \"#utility.yul\":29938:29944   */\n      dup5\n        /* \"#utility.yul\":29935:30012   */\n      iszero\n      tag_669\n      jumpi\n        /* \"#utility.yul\":29987:29996   */\n      dup3\n        /* \"#utility.yul\":29982:29985   */\n      dup8\n        /* \"#utility.yul\":29978:29997   */\n      add\n        /* \"#utility.yul\":29972:29998   */\n      mload\n        /* \"#utility.yul\":29963:29998   */\n      swap1\n      pop\n        /* \"#utility.yul\":29935:30012   */\n    tag_669:\n        /* \"#utility.yul\":30038:30105   */\n      tag_670\n        /* \"#utility.yul\":30098:30104   */\n      dup6\n        /* \"#utility.yul\":30091:30096   */\n      dup3\n        /* \"#utility.yul\":30038:30105   */\n      tag_367\n      jump\t// in\n    tag_670:\n        /* \"#utility.yul\":30032:30036   */\n      dup7\n        /* \"#utility.yul\":30025:30106   */\n      sstore\n        /* \"#utility.yul\":29894:30116   */\n      pop\n        /* \"#utility.yul\":29229:30116   */\n      jump(tag_667)\n        /* \"#utility.yul\":29259:29877   */\n    tag_668:\n        /* \"#utility.yul\":29311:29315   */\n      0x1f\n        /* \"#utility.yul\":29307:29316   */\n      not\n        /* \"#utility.yul\":29299:29305   */\n      dup5\n        /* \"#utility.yul\":29295:29317   */\n      and\n        /* \"#utility.yul\":29345:29382   */\n      tag_671\n        /* \"#utility.yul\":29377:29381   */\n      dup7\n        /* \"#utility.yul\":29345:29382   */\n      tag_353\n      jump\t// in\n    tag_671:\n        /* \"#utility.yul\":29404:29405   */\n      0x00\n        /* \"#utility.yul\":29418:29626   */\n    tag_672:\n        /* \"#utility.yul\":29432:29439   */\n      dup3\n        /* \"#utility.yul\":29429:29430   */\n      dup2\n        /* \"#utility.yul\":29426:29440   */\n      lt\n        /* \"#utility.yul\":29418:29626   */\n      iszero\n      tag_674\n      jumpi\n        /* \"#utility.yul\":29511:29520   */\n      dup5\n        /* \"#utility.yul\":29506:29509   */\n      dup10\n        /* \"#utility.yul\":29502:29521   */\n      add\n        /* \"#utility.yul\":29496:29522   */\n      mload\n        /* \"#utility.yul\":29488:29494   */\n      dup3\n        /* \"#utility.yul\":29481:29523   */\n      sstore\n        /* \"#utility.yul\":29562:29563   */\n      0x01\n        /* \"#utility.yul\":29554:29560   */\n      dup3\n        /* \"#utility.yul\":29550:29564   */\n      add\n        /* \"#utility.yul\":29540:29564   */\n      swap2\n      pop\n        /* \"#utility.yul\":29609:29611   */\n      0x20\n        /* \"#utility.yul\":29598:29607   */\n      dup6\n        /* \"#utility.yul\":29594:29612   */\n      add\n        /* \"#utility.yul\":29581:29612   */\n      swap5\n      pop\n        /* \"#utility.yul\":29455:29459   */\n      0x20\n        /* \"#utility.yul\":29452:29453   */\n      dup2\n        /* \"#utility.yul\":29448:29460   */\n      add\n        /* \"#utility.yul\":29443:29460   */\n      swap1\n      pop\n        /* \"#utility.yul\":29418:29626   */\n      jump(tag_672)\n    tag_674:\n        /* \"#utility.yul\":29654:29660   */\n      dup7\n        /* \"#utility.yul\":29645:29652   */\n      dup4\n        /* \"#utility.yul\":29642:29661   */\n      lt\n        /* \"#utility.yul\":29639:29818   */\n      iszero\n      tag_675\n      jumpi\n        /* \"#utility.yul\":29712:29721   */\n      dup5\n        /* \"#utility.yul\":29707:29710   */\n      dup10\n        /* \"#utility.yul\":29703:29722   */\n      add\n        /* \"#utility.yul\":29697:29723   */\n      mload\n        /* \"#utility.yul\":29755:29803   */\n      tag_676\n        /* \"#utility.yul\":29797:29801   */\n      0x1f\n        /* \"#utility.yul\":29789:29795   */\n      dup10\n        /* \"#utility.yul\":29785:29802   */\n      and\n        /* \"#utility.yul\":29774:29783   */\n      dup3\n        /* \"#utility.yul\":29755:29803   */\n      tag_366\n      jump\t// in\n    tag_676:\n        /* \"#utility.yul\":29747:29753   */\n      dup4\n        /* \"#utility.yul\":29740:29804   */\n      sstore\n        /* \"#utility.yul\":29662:29818   */\n      pop\n        /* \"#utility.yul\":29639:29818   */\n    tag_675:\n        /* \"#utility.yul\":29864:29865   */\n      0x01\n        /* \"#utility.yul\":29860:29861   */\n      0x02\n        /* \"#utility.yul\":29852:29858   */\n      dup9\n        /* \"#utility.yul\":29848:29862   */\n      mul\n        /* \"#utility.yul\":29844:29866   */\n      add\n        /* \"#utility.yul\":29838:29842   */\n      dup9\n        /* \"#utility.yul\":29831:29867   */\n      sstore\n        /* \"#utility.yul\":29266:29877   */\n      pop\n      pop\n      pop\n        /* \"#utility.yul\":29229:30116   */\n    tag_667:\n      pop\n        /* \"#utility.yul\":28819:30122   */\n      pop\n      pop\n      pop\n        /* \"#utility.yul\":28727:30122   */\n      pop\n      pop\n      jump\t// out\n        /* \"#utility.yul\":30128:30322   */\n    tag_242:\n        /* \"#utility.yul\":30168:30172   */\n      0x00\n        /* \"#utility.yul\":30188:30208   */\n      tag_678\n        /* \"#utility.yul\":30206:30207   */\n      dup3\n        /* \"#utility.yul\":30188:30208   */\n      tag_294\n      jump\t// in\n    tag_678:\n        /* \"#utility.yul\":30183:30208   */\n      swap2\n      pop\n        /* \"#utility.yul\":30222:30242   */\n      tag_679\n        /* \"#utility.yul\":30240:30241   */\n      dup4\n        /* \"#utility.yul\":30222:30242   */\n      tag_294\n      jump\t// in\n    tag_679:\n        /* \"#utility.yul\":30217:30242   */\n      swap3\n      pop\n        /* \"#utility.yul\":30266:30267   */\n      dup3\n        /* \"#utility.yul\":30263:30264   */\n      dup3\n        /* \"#utility.yul\":30259:30268   */\n      sub\n        /* \"#utility.yul\":30251:30268   */\n      swap1\n      pop\n        /* \"#utility.yul\":30290:30291   */\n      dup2\n        /* \"#utility.yul\":30284:30288   */\n      dup2\n        /* \"#utility.yul\":30281:30292   */\n      gt\n        /* \"#utility.yul\":30278:30315   */\n      iszero\n      tag_680\n      jumpi\n        /* \"#utility.yul\":30295:30313   */\n      tag_681\n      tag_346\n      jump\t// in\n    tag_681:\n        /* \"#utility.yul\":30278:30315   */\n    tag_680:\n        /* \"#utility.yul\":30128:30322   */\n      swap3\n      swap2\n      pop\n      pop\n      jump\t// out\n        /* \"#utility.yul\":30328:30901   */\n    tag_244:\n        /* \"#utility.yul\":30517:30521   */\n      0x00\n        /* \"#utility.yul\":30555:30557   */\n      0x60\n        /* \"#utility.yul\":30544:30553   */\n      dup3\n        /* \"#utility.yul\":30540:30558   */\n      add\n        /* \"#utility.yul\":30532:30558   */\n      swap1\n      pop\n        /* \"#utility.yul\":30568:30639   */\n      tag_683\n        /* \"#utility.yul\":30636:30637   */\n      0x00\n        /* \"#utility.yul\":30625:30634   */\n      dup4\n        /* \"#utility.yul\":30621:30638   */\n      add\n        /* \"#utility.yul\":30612:30618   */\n      dup8\n        /* \"#utility.yul\":30568:30639   */\n      tag_306\n      jump\t// in\n    tag_683:\n        /* \"#utility.yul\":30686:30695   */\n      dup2\n        /* \"#utility.yul\":30680:30684   */\n      dup2\n        /* \"#utility.yul\":30676:30696   */\n      sub\n        /* \"#utility.yul\":30671:30673   */\n      0x20\n        /* \"#utility.yul\":30660:30669   */\n      dup4\n        /* \"#utility.yul\":30656:30674   */\n      add\n        /* \"#utility.yul\":30649:30697   */\n      mstore\n        /* \"#utility.yul\":30714:30802   */\n      tag_684\n        /* \"#utility.yul\":30797:30801   */\n      dup2\n        /* \"#utility.yul\":30788:30794   */\n      dup6\n        /* \"#utility.yul\":30780:30786   */\n      dup8\n        /* \"#utility.yul\":30714:30802   */\n      tag_369\n      jump\t// in\n    tag_684:\n        /* \"#utility.yul\":30706:30802   */\n      swap1\n      pop\n        /* \"#utility.yul\":30812:30894   */\n      tag_685\n        /* \"#utility.yul\":30890:30892   */\n      0x40\n        /* \"#utility.yul\":30879:30888   */\n      dup4\n        /* \"#utility.yul\":30875:30893   */\n      add\n        /* \"#utility.yul\":30866:30872   */\n      dup5\n        /* \"#utility.yul\":30812:30894   */\n      tag_315\n      jump\t// in\n    tag_685:\n        /* \"#utility.yul\":30328:30901   */\n      swap6\n      swap5\n      pop\n      pop\n      pop\n      pop\n      pop\n      jump\t// out\n\n    auxdata: 0xa2646970667358221220ff1f448849af4292ac72e2976ca25cbd8c3bff84ff371e502311eb5b8077e94a64736f6c634300081e0033\n}\n",
				"bytecode": {
					"linkReferences": {},
					"object": "608060405260016004553480156013575f5ffd5b5061230e806100215f395ff3fe608060405234801561000f575f5ffd5b50600436106100f3575f3560e01c80636801582911610095578063c9bf5b1511610064578063c9bf5b1514610277578063d65c4d25146102a7578063da7acaf6146102d7578063ebf9018714610307576100f3565b806368015829146101eb578063792ce98f146102215780639eb2a09e1461023d578063aff66e211461025b576100f3565b806346a8ec51116100d157806346a8ec511461016157806352154ba91461016b57806353439cac1461019f5780635cc12424146101bb576100f3565b80632b44869b146100f7578063352cba35146101275780634061a5bf14610143575b5f5ffd5b610111600480360381019061010c91906113bc565b610323565b60405161011e91906114a7565b60405180910390f35b610141600480360381019061013c91906114f1565b6104b4565b005b61014b610580565b60405161015891906115ae565b60405180910390f35b6101696105cb565b005b610185600480360381019061018091906115c7565b6106bc565b604051610196959493929190611769565b60405180910390f35b6101b960048036038101906101b491906117e6565b6107bb565b005b6101d560048036038101906101d091906115c7565b6107d0565b6040516101e29190611914565b60405180910390f35b610205600480360381019061020091906115c7565b61090c565b6040516102189796959493929190611934565b60405180910390f35b61023b60048036038101906102369190611a05565b610a80565b005b610245610b60565b6040516102529190611a62565b60405180910390f35b61027560048036038101906102709190611ad0565b610b6b565b005b610291600480360381019061028c91906115c7565b610c23565b60405161029e9190611a62565b60405180910390f35b6102c160048036038101906102bc91906115c7565b610c3c565b6040516102ce9190611be4565b60405180910390f35b6102f160048036038101906102ec9190611c27565b610d2f565b6040516102fe9190611a62565b60405180910390f35b610321600480360381019061031c91906115c7565b611011565b005b60605f5f90505f5f90505b5f805490508110156103b05783600381111561034d5761034c611671565b5b5f82815481106103605761035f611c84565b5b905f5260205f20906005020160020160019054906101000a900460ff16600381111561038f5761038e611671565b5b036103a357818061039f90611cde565b9250505b808060010191505061032e565b505f8167ffffffffffffffff8111156103cc576103cb611d25565b5b6040519080825280602002602001820160405280156103fa5781602001602082028036833780820191505090505b5090505f5f90505f5f90505b5f805490508110156104a85785600381111561042557610424611671565b5b5f828154811061043857610437611c84565b5b905f5260205f20906005020160020160019054906101000a900460ff16600381111561046757610466611671565b5b0361049b57808383815181106104805761047f611c84565b5b602002602001018181525050818061049790611cde565b9250505b8080600101915050610406565b50819350505050919050565b5f8054905082106104fa576040517f08c379a00000000000000000000000000000000000000000000000000000000081526004016104f190611d9c565b60405180910390fd5b805f838154811061050e5761050d611c84565b5b905f5260205f20906005020160020160016101000a81548160ff0219169083600381111561053f5761053e611671565b5b0217905550817fbc38d284bd0c98be555b32fb56e3a5c0a385f6565212459cfa0074394571d01b826040516105749190611dba565b60405180910390a25050565b6105886110fd565b60016003806020026040519081016040528092919082600380156105c1576020028201915b8154815260200190600101908083116105ad575b5050505050905090565b5f5f8054905011610611576040517f08c379a000000000000000000000000000000000000000000000000000000000815260040161060890611e1d565b60405180910390fd5b5f80548061062257610621611e3b565b5b600190038181905f5260205f2090600502015f5f82015f9055600182015f61064a919061111f565b600282015f6101000a81549060ff02191690556002820160016101000a81549060ff02191690556002820160026101000a81549073ffffffffffffffffffffffffffffffffffffffff0219169055600382015f6106a7919061115c565b600482015f6106b6919061117a565b50509055565b5f81815481106106ca575f80fd5b905f5260205f2090600502015f91509050805f0154908060010180546106ef90611e95565b80601f016020809104026020016040519081016040528092919081815260200182805461071b90611e95565b80156107665780601f1061073d57610100808354040283529160200191610766565b820191905f5260205f20905b81548152906001019060200180831161074957829003601f168201915b505050505090806002015f9054906101000a900460ff16908060020160019054906101000a900460ff16908060020160029054906101000a900473ffffffffffffffffffffffffffffffffffffffff16905085565b8060019060036107cc929190611198565b5050565b60605f805490508210610818576040517f08c379a000000000000000000000000000000000000000000000000000000000815260040161080f90611d9c565b60405180910390fd5b5f828154811061082b5761082a611c84565b5b905f5260205f209060050201600401805480602002602001604051908101604052809291908181526020015f905b82821015610901578382905f5260205f2001805461087690611e95565b80601f01602080910402602001604051908101604052809291908181526020018280546108a290611e95565b80156108ed5780601f106108c4576101008083540402835291602001916108ed565b820191905f5260205f20905b8154815290600101906020018083116108d057829003601f168201915b505050505081526020019060010190610859565b505050509050919050565b5f60605f5f5f5f5f5f80549050881061095a576040517f08c379a000000000000000000000000000000000000000000000000000000000815260040161095190611d9c565b60405180910390fd5b5f5f898154811061096e5761096d611c84565b5b905f5260205f2090600502019050805f015481600101826002015f9054906101000a900460ff168360020160019054906101000a900460ff168460020160029054906101000a900473ffffffffffffffffffffffffffffffffffffffff16856003018054905086600401805490508580546109e890611e95565b80601f0160208091040260200160405190810160405280929190818152602001828054610a1490611e95565b8015610a5f5780601f10610a3657610100808354040283529160200191610a5f565b820191905f5260205f20905b815481529060010190602001808311610a4257829003601f168201915b50505050509550975097509750975097509750975050919395979092949650565b5f805490508310610ac6576040517f08c379a0000000000000000000000000000000000000000000000000000000008152600401610abd90611d9c565b60405180910390fd5b5f8381548110610ad957610ad8611c84565b5b905f5260205f209060050201600401828290918060018154018082558091505060019003905f5260205f20015f909192909192909192909192509182610b2092919061206f565b50827f34d506b3469a68b41269f288ebff47e5bd8f74dfd8927a0d5646e33418a561178383604051610b53929190612176565b60405180910390a2505050565b5f5f80549050905090565b5f805490508310610bb1576040517f08c379a0000000000000000000000000000000000000000000000000000000008152600401610ba890611d9c565b60405180910390fd5b81815f8581548110610bc657610bc5611c84565b5b905f5260205f2090600502016003019190610be29291906111d8565b50827fbb336ca598a8744d73fa12993a20f8f8b055165ca45a2876d68ab71206e72f8883839050604051610c169190611a62565b60405180910390a2505050565b60018160038110610c32575f80fd5b015f915090505481565b60605f805490508210610c84576040517f08c379a0000000000000000000000000000000000000000000000000000000008152600401610c7b90611d9c565b60405180910390fd5b5f8281548110610c9757610c96611c84565b5b905f5260205f209060050201600301805480602002602001604051908101604052809291908181526020018280548015610d2357602002820191905f5260205f20905b815f9054906101000a900473ffffffffffffffffffffffffffffffffffffffff1673ffffffffffffffffffffffffffffffffffffffff1681526020019060010190808311610cda575b50505050509050919050565b5f5f6040518060e0016040528060045f815480929190610d4e90611cde565b91905055815260200186868080601f0160208091040260200160405190810160405280939291908181526020018383808284375f81840152601f19601f820116905080830192505050505050508152602001846003811115610db357610db2611671565b5b81526020015f6003811115610dcb57610dca611671565b5b81526020013373ffffffffffffffffffffffffffffffffffffffff1681526020015f67ffffffffffffffff811115610e0657610e05611d25565b5b604051908082528060200260200182016040528015610e345781602001602082028036833780820191505090505b5081526020015f67ffffffffffffffff811115610e5457610e53611d25565b5b604051908082528060200260200182016040528015610e8757816020015b6060815260200190600190039081610e725790505b5081525090505f81908060018154018082558091505060019003905f5260205f2090600502015f909190919091505f820151815f01556020820151816001019081610ed29190612198565b506040820151816002015f6101000a81548160ff02191690836003811115610efd57610efc611671565b5b021790555060608201518160020160016101000a81548160ff02191690836003811115610f2d57610f2c611671565b5b021790555060808201518160020160026101000a81548173ffffffffffffffffffffffffffffffffffffffff021916908373ffffffffffffffffffffffffffffffffffffffff16021790555060a0820151816003019080519060200190610f95929190611275565b5060c0820151816004019080519060200190610fb29291906112fc565b50505060015f80549050610fc69190612267565b9150817f8ff9a332a7752fd6bc1edf2506e125b6b53b6d1d2049dffba743455be4f91ebd825f0151878787604051611001949392919061229a565b60405180910390a2509392505050565b5f805490508110611057576040517f08c379a000000000000000000000000000000000000000000000000000000000815260040161104e90611d9c565b60405180910390fd5b5f818154811061106a57611069611c84565b5b905f5260205f2090600502015f5f82015f9055600182015f61108c919061111f565b600282015f6101000a81549060ff02191690556002820160016101000a81549060ff02191690556002820160026101000a81549073ffffffffffffffffffffffffffffffffffffffff0219169055600382015f6110e9919061115c565b600482015f6110f8919061117a565b505050565b6040518060600160405280600390602082028036833780820191505090505090565b50805461112b90611e95565b5f825580601f1061113c5750611159565b601f0160209004905f5260205f20908101906111589190611353565b5b50565b5080545f8255905f5260205f20908101906111779190611353565b50565b5080545f8255905f5260205f2090810190611195919061136e565b50565b82600381019282156111c7579160200282015b828111156111c65782358255916020019190600101906111ab565b5b5090506111d49190611353565b5090565b828054828255905f5260205f20908101928215611264579160200282015b8281111561126357823573ffffffffffffffffffffffffffffffffffffffff16825f6101000a81548173ffffffffffffffffffffffffffffffffffffffff021916908373ffffffffffffffffffffffffffffffffffffffff160217905550916020019190600101906111f6565b5b5090506112719190611353565b5090565b828054828255905f5260205f209081019282156112eb579160200282015b828111156112ea578251825f6101000a81548173ffffffffffffffffffffffffffffffffffffffff021916908373ffffffffffffffffffffffffffffffffffffffff16021790555091602001919060010190611293565b5b5090506112f89190611353565b5090565b828054828255905f5260205f20908101928215611342579160200282015b828111156113415782518290816113319190612198565b509160200191906001019061131a565b5b50905061134f919061136e565b5090565b5b8082111561136a575f815f905550600101611354565b5090565b5b8082111561138d575f8181611384919061111f565b5060010161136f565b5090565b5f5ffd5b5f5ffd5b600481106113a5575f5ffd5b50565b5f813590506113b681611399565b92915050565b5f602082840312156113d1576113d0611391565b5b5f6113de848285016113a8565b91505092915050565b5f81519050919050565b5f82825260208201905092915050565b5f819050602082019050919050565b5f819050919050565b61142281611410565b82525050565b5f6114338383611419565b60208301905092915050565b5f602082019050919050565b5f611455826113e7565b61145f81856113f1565b935061146a83611401565b805f5b8381101561149a5781516114818882611428565b975061148c8361143f565b92505060018101905061146d565b5085935050505092915050565b5f6020820190508181035f8301526114bf818461144b565b905092915050565b6114d081611410565b81146114da575f5ffd5b50565b5f813590506114eb816114c7565b92915050565b5f5f6040838503121561150757611506611391565b5b5f611514858286016114dd565b9250506020611525858286016113a8565b9150509250929050565b5f60039050919050565b5f81905092915050565b5f819050919050565b5f602082019050919050565b6115618161152f565b61156b8184611539565b925061157682611543565b805f5b838110156115a657815161158d8782611428565b96506115988361154c565b925050600181019050611579565b505050505050565b5f6060820190506115c15f830184611558565b92915050565b5f602082840312156115dc576115db611391565b5b5f6115e9848285016114dd565b91505092915050565b6115fb81611410565b82525050565b5f81519050919050565b5f82825260208201905092915050565b8281835e5f83830152505050565b5f601f19601f8301169050919050565b5f61164382611601565b61164d818561160b565b935061165d81856020860161161b565b61166681611629565b840191505092915050565b7f4e487b71000000000000000000000000000000000000000000000000000000005f52602160045260245ffd5b600481106116af576116ae611671565b5b50565b5f8190506116bf8261169e565b919050565b5f6116ce826116b2565b9050919050565b6116de816116c4565b82525050565b600481106116f5576116f4611671565b5b50565b5f819050611705826116e4565b919050565b5f611714826116f8565b9050919050565b6117248161170a565b82525050565b5f73ffffffffffffffffffffffffffffffffffffffff82169050919050565b5f6117538261172a565b9050919050565b61176381611749565b82525050565b5f60a08201905061177c5f8301886115f2565b818103602083015261178e8187611639565b905061179d60408301866116d5565b6117aa606083018561171b565b6117b7608083018461175a565b9695505050505050565b5f5ffd5b5f819050826020600302820111156117e0576117df6117c1565b5b92915050565b5f606082840312156117fb576117fa611391565b5b5f611808848285016117c5565b91505092915050565b5f81519050919050565b5f82825260208201905092915050565b5f819050602082019050919050565b5f82825260208201905092915050565b5f61185482611601565b61185e818561183a565b935061186e81856020860161161b565b61187781611629565b840191505092915050565b5f61188d838361184a565b905092915050565b5f602082019050919050565b5f6118ab82611811565b6118b5818561181b565b9350836020820285016118c78561182b565b805f5b8581101561190257848403895281516118e38582611882565b94506118ee83611895565b925060208a019950506001810190506118ca565b50829750879550505050505092915050565b5f6020820190508181035f83015261192c81846118a1565b905092915050565b5f60e0820190506119475f83018a6115f2565b81810360208301526119598189611639565b905061196860408301886116d5565b611975606083018761171b565b611982608083018661175a565b61198f60a08301856115f2565b61199c60c08301846115f2565b98975050505050505050565b5f5ffd5b5f5ffd5b5f5f83601f8401126119c5576119c46119a8565b5b8235905067ffffffffffffffff8111156119e2576119e16119ac565b5b6020830191508360018202830111156119fe576119fd6117c1565b5b9250929050565b5f5f5f60408486031215611a1c57611a1b611391565b5b5f611a29868287016114dd565b935050602084013567ffffffffffffffff811115611a4a57611a49611395565b5b611a56868287016119b0565b92509250509250925092565b5f602082019050611a755f8301846115f2565b92915050565b5f5f83601f840112611a9057611a8f6119a8565b5b8235905067ffffffffffffffff811115611aad57611aac6119ac565b5b602083019150836020820283011115611ac957611ac86117c1565b5b9250929050565b5f5f5f60408486031215611ae757611ae6611391565b5b5f611af4868287016114dd565b935050602084013567ffffffffffffffff811115611b1557611b14611395565b5b611b2186828701611a7b565b92509250509250925092565b5f81519050919050565b5f82825260208201905092915050565b5f819050602082019050919050565b611b5f81611749565b82525050565b5f611b708383611b56565b60208301905092915050565b5f602082019050919050565b5f611b9282611b2d565b611b9c8185611b37565b9350611ba783611b47565b805f5b83811015611bd7578151611bbe8882611b65565b9750611bc983611b7c565b925050600181019050611baa565b5085935050505092915050565b5f6020820190508181035f830152611bfc8184611b88565b905092915050565b60048110611c10575f5ffd5b50565b5f81359050611c2181611c04565b92915050565b5f5f5f60408486031215611c3e57611c3d611391565b5b5f84013567ffffffffffffffff811115611c5b57611c5a611395565b5b611c67868287016119b0565b93509350506020611c7a86828701611c13565b9150509250925092565b7f4e487b71000000000000000000000000000000000000000000000000000000005f52603260045260245ffd5b7f4e487b71000000000000000000000000000000000000000000000000000000005f52601160045260245ffd5b5f611ce882611410565b91507fffffffffffffffffffffffffffffffffffffffffffffffffffffffffffffffff8203611d1a57611d19611cb1565b5b600182019050919050565b7f4e487b71000000000000000000000000000000000000000000000000000000005f52604160045260245ffd5b7f69647820696e76616c69646f00000000000000000000000000000000000000005f82015250565b5f611d86600c8361160b565b9150611d9182611d52565b602082019050919050565b5f6020820190508181035f830152611db381611d7a565b9050919050565b5f602082019050611dcd5f83018461171b565b92915050565b7f73696e20746172656173000000000000000000000000000000000000000000005f82015250565b5f611e07600a8361160b565b9150611e1282611dd3565b602082019050919050565b5f6020820190508181035f830152611e3481611dfb565b9050919050565b7f4e487b71000000000000000000000000000000000000000000000000000000005f52603160045260245ffd5b7f4e487b71000000000000000000000000000000000000000000000000000000005f52602260045260245ffd5b5f6002820490506001821680611eac57607f821691505b602082108103611ebf57611ebe611e68565b5b50919050565b5f82905092915050565b5f819050815f5260205f209050919050565b5f6020601f8301049050919050565b5f82821b905092915050565b5f60088302611f2b7fffffffffffffffffffffffffffffffffffffffffffffffffffffffffffffffff82611ef0565b611f358683611ef0565b95508019841693508086168417925050509392505050565b5f819050919050565b5f611f70611f6b611f6684611410565b611f4d565b611410565b9050919050565b5f819050919050565b611f8983611f56565b611f9d611f9582611f77565b848454611efc565b825550505050565b5f5f905090565b611fb4611fa5565b611fbf818484611f80565b505050565b5b81811015611fe257611fd75f82611fac565b600181019050611fc5565b5050565b601f82111561202757611ff881611ecf565b61200184611ee1565b81016020851015612010578190505b61202461201c85611ee1565b830182611fc4565b50505b505050565b5f82821c905092915050565b5f6120475f198460080261202c565b1980831691505092915050565b5f61205f8383612038565b9150826002028217905092915050565b6120798383611ec5565b67ffffffffffffffff81111561209257612091611d25565b5b61209c8254611e95565b6120a7828285611fe6565b5f601f8311600181146120d4575f84156120c2578287013590505b6120cc8582612054565b865550612133565b601f1984166120e286611ecf565b5f5b82811015612109578489013582556001820191506020850194506020810190506120e4565b868310156121265784890135612122601f891682612038565b8355505b6001600288020188555050505b50505050505050565b828183375f83830152505050565b5f612155838561160b565b935061216283858461213c565b61216b83611629565b840190509392505050565b5f6020820190508181035f83015261218f81848661214a565b90509392505050565b6121a182611601565b67ffffffffffffffff8111156121ba576121b9611d25565b5b6121c48254611e95565b6121cf828285611fe6565b5f60209050601f831160018114612200575f84156121ee578287015190505b6121f88582612054565b86555061225f565b601f19841661220e86611ecf565b5f5b8281101561223557848901518255600182019150602085019450602081019050612210565b86831015612252578489015161224e601f891682612038565b8355505b6001600288020188555050505b505050505050565b5f61227182611410565b915061227c83611410565b925082820390508181111561229457612293611cb1565b5b92915050565b5f6060820190506122ad5f8301876115f2565b81810360208301526122c081858761214a565b90506122cf60408301846116d5565b9594505050505056fea2646970667358221220ff1f448849af4292ac72e2976ca25cbd8c3bff84ff371e502311eb5b8077e94a64736f6c634300081e0033",
					"opcodes": "PUSH1 0x80 PUSH1 0x40 MSTORE PUSH1 0x1 PUSH1 0x4 SSTORE CALLVALUE DUP1 ISZERO PUSH1 0x13 JUMPI PUSH0 PUSH0 REVERT JUMPDEST POP PUSH2 0x230E DUP1 PUSH2 0x21 PUSH0 CODECOPY PUSH0 RETURN INVALID PUSH1 0x80 PUSH1 0x40 MSTORE CALLVALUE DUP1 ISZERO PUSH2 0xF JUMPI PUSH0 PUSH0 REVERT JUMPDEST POP PUSH1 0x4 CALLDATASIZE LT PUSH2 0xF3 JUMPI PUSH0 CALLDATALOAD PUSH1 0xE0 SHR DUP1 PUSH4 0x68015829 GT PUSH2 0x95 JUMPI DUP1 PUSH4 0xC9BF5B15 GT PUSH2 0x64 JUMPI DUP1 PUSH4 0xC9BF5B15 EQ PUSH2 0x277 JUMPI DUP1 PUSH4 0xD65C4D25 EQ PUSH2 0x2A7 JUMPI DUP1 PUSH4 0xDA7ACAF6 EQ PUSH2 0x2D7 JUMPI DUP1 PUSH4 0xEBF90187 EQ PUSH2 0x307 JUMPI PUSH2 0xF3 JUMP JUMPDEST DUP1 PUSH4 0x68015829 EQ PUSH2 0x1EB JUMPI DUP1 PUSH4 0x792CE98F EQ PUSH2 0x221 JUMPI DUP1 PUSH4 0x9EB2A09E EQ PUSH2 0x23D JUMPI DUP1 PUSH4 0xAFF66E21 EQ PUSH2 0x25B JUMPI PUSH2 0xF3 JUMP JUMPDEST DUP1 PUSH4 0x46A8EC51 GT PUSH2 0xD1 JUMPI DUP1 PUSH4 0x46A8EC51 EQ PUSH2 0x161 JUMPI DUP1 PUSH4 0x52154BA9 EQ PUSH2 0x16B JUMPI DUP1 PUSH4 0x53439CAC EQ PUSH2 0x19F JUMPI DUP1 PUSH4 0x5CC12424 EQ PUSH2 0x1BB JUMPI PUSH2 0xF3 JUMP JUMPDEST DUP1 PUSH4 0x2B44869B EQ PUSH2 0xF7 JUMPI DUP1 PUSH4 0x352CBA35 EQ PUSH2 0x127 JUMPI DUP1 PUSH4 0x4061A5BF EQ PUSH2 0x143 JUMPI JUMPDEST PUSH0 PUSH0 REVERT JUMPDEST PUSH2 0x111 PUSH1 0x4 DUP1 CALLDATASIZE SUB DUP2 ADD SWAP1 PUSH2 0x10C SWAP2 SWAP1 PUSH2 0x13BC JUMP JUMPDEST PUSH2 0x323 JUMP JUMPDEST PUSH1 0x40 MLOAD PUSH2 0x11E SWAP2 SWAP1 PUSH2 0x14A7 JUMP JUMPDEST PUSH1 0x40 MLOAD DUP1 SWAP2 SUB SWAP1 RETURN JUMPDEST PUSH2 0x141 PUSH1 0x4 DUP1 CALLDATASIZE SUB DUP2 ADD SWAP1 PUSH2 0x13C SWAP2 SWAP1 PUSH2 0x14F1 JUMP JUMPDEST PUSH2 0x4B4 JUMP JUMPDEST STOP JUMPDEST PUSH2 0x14B PUSH2 0x580 JUMP JUMPDEST PUSH1 0x40 MLOAD PUSH2 0x158 SWAP2 SWAP1 PUSH2 0x15AE JUMP JUMPDEST PUSH1 0x40 MLOAD DUP1 SWAP2 SUB SWAP1 RETURN JUMPDEST PUSH2 0x169 PUSH2 0x5CB JUMP JUMPDEST STOP JUMPDEST PUSH2 0x185 PUSH1 0x4 DUP1 CALLDATASIZE SUB DUP2 ADD SWAP1 PUSH2 0x180 SWAP2 SWAP1 PUSH2 0x15C7 JUMP JUMPDEST PUSH2 0x6BC JUMP JUMPDEST PUSH1 0x40 MLOAD PUSH2 0x196 SWAP6 SWAP5 SWAP4 SWAP3 SWAP2 SWAP1 PUSH2 0x1769 JUMP JUMPDEST PUSH1 0x40 MLOAD DUP1 SWAP2 SUB SWAP1 RETURN JUMPDEST PUSH2 0x1B9 PUSH1 0x4 DUP1 CALLDATASIZE SUB DUP2 ADD SWAP1 PUSH2 0x1B4 SWAP2 SWAP1 PUSH2 0x17E6 JUMP JUMPDEST PUSH2 0x7BB JUMP JUMPDEST STOP JUMPDEST PUSH2 0x1D5 PUSH1 0x4 DUP1 CALLDATASIZE SUB DUP2 ADD SWAP1 PUSH2 0x1D0 SWAP2 SWAP1 PUSH2 0x15C7 JUMP JUMPDEST PUSH2 0x7D0 JUMP JUMPDEST PUSH1 0x40 MLOAD PUSH2 0x1E2 SWAP2 SWAP1 PUSH2 0x1914 JUMP JUMPDEST PUSH1 0x40 MLOAD DUP1 SWAP2 SUB SWAP1 RETURN JUMPDEST PUSH2 0x205 PUSH1 0x4 DUP1 CALLDATASIZE SUB DUP2 ADD SWAP1 PUSH2 0x200 SWAP2 SWAP1 PUSH2 0x15C7 JUMP JUMPDEST PUSH2 0x90C JUMP JUMPDEST PUSH1 0x40 MLOAD PUSH2 0x218 SWAP8 SWAP7 SWAP6 SWAP5 SWAP4 SWAP3 SWAP2 SWAP1 PUSH2 0x1934 JUMP JUMPDEST PUSH1 0x40 MLOAD DUP1 SWAP2 SUB SWAP1 RETURN JUMPDEST PUSH2 0x23B PUSH1 0x4 DUP1 CALLDATASIZE SUB DUP2 ADD SWAP1 PUSH2 0x236 SWAP2 SWAP1 PUSH2 0x1A05 JUMP JUMPDEST PUSH2 0xA80 JUMP JUMPDEST STOP JUMPDEST PUSH2 0x245 PUSH2 0xB60 JUMP JUMPDEST PUSH1 0x40 MLOAD PUSH2 0x252 SWAP2 SWAP1 PUSH2 0x1A62 JUMP JUMPDEST PUSH1 0x40 MLOAD DUP1 SWAP2 SUB SWAP1 RETURN JUMPDEST PUSH2 0x275 PUSH1 0x4 DUP1 CALLDATASIZE SUB DUP2 ADD SWAP1 PUSH2 0x270 SWAP2 SWAP1 PUSH2 0x1AD0 JUMP JUMPDEST PUSH2 0xB6B JUMP JUMPDEST STOP JUMPDEST PUSH2 0x291 PUSH1 0x4 DUP1 CALLDATASIZE SUB DUP2 ADD SWAP1 PUSH2 0x28C SWAP2 SWAP1 PUSH2 0x15C7 JUMP JUMPDEST PUSH2 0xC23 JUMP JUMPDEST PUSH1 0x40 MLOAD PUSH2 0x29E SWAP2 SWAP1 PUSH2 0x1A62 JUMP JUMPDEST PUSH1 0x40 MLOAD DUP1 SWAP2 SUB SWAP1 RETURN JUMPDEST PUSH2 0x2C1 PUSH1 0x4 DUP1 CALLDATASIZE SUB DUP2 ADD SWAP1 PUSH2 0x2BC SWAP2 SWAP1 PUSH2 0x15C7 JUMP JUMPDEST PUSH2 0xC3C JUMP JUMPDEST PUSH1 0x40 MLOAD PUSH2 0x2CE SWAP2 SWAP1 PUSH2 0x1BE4 JUMP JUMPDEST PUSH1 0x40 MLOAD DUP1 SWAP2 SUB SWAP1 RETURN JUMPDEST PUSH2 0x2F1 PUSH1 0x4 DUP1 CALLDATASIZE SUB DUP2 ADD SWAP1 PUSH2 0x2EC SWAP2 SWAP1 PUSH2 0x1C27 JUMP JUMPDEST PUSH2 0xD2F JUMP JUMPDEST PUSH1 0x40 MLOAD PUSH2 0x2FE SWAP2 SWAP1 PUSH2 0x1A62 JUMP JUMPDEST PUSH1 0x40 MLOAD DUP1 SWAP2 SUB SWAP1 RETURN JUMPDEST PUSH2 0x321 PUSH1 0x4 DUP1 CALLDATASIZE SUB DUP2 ADD SWAP1 PUSH2 0x31C SWAP2 SWAP1 PUSH2 0x15C7 JUMP JUMPDEST PUSH2 0x1011 JUMP JUMPDEST STOP JUMPDEST PUSH1 0x60 PUSH0 PUSH0 SWAP1 POP PUSH0 PUSH0 SWAP1 POP JUMPDEST PUSH0 DUP1 SLOAD SWAP1 POP DUP2 LT ISZERO PUSH2 0x3B0 JUMPI DUP4 PUSH1 0x3 DUP2 GT ISZERO PUSH2 0x34D JUMPI PUSH2 0x34C PUSH2 0x1671 JUMP JUMPDEST JUMPDEST PUSH0 DUP3 DUP2 SLOAD DUP2 LT PUSH2 0x360 JUMPI PUSH2 0x35F PUSH2 0x1C84 JUMP JUMPDEST JUMPDEST SWAP1 PUSH0 MSTORE PUSH1 0x20 PUSH0 KECCAK256 SWAP1 PUSH1 0x5 MUL ADD PUSH1 0x2 ADD PUSH1 0x1 SWAP1 SLOAD SWAP1 PUSH2 0x100 EXP SWAP1 DIV PUSH1 0xFF AND PUSH1 0x3 DUP2 GT ISZERO PUSH2 0x38F JUMPI PUSH2 0x38E PUSH2 0x1671 JUMP JUMPDEST JUMPDEST SUB PUSH2 0x3A3 JUMPI DUP2 DUP1 PUSH2 0x39F SWAP1 PUSH2 0x1CDE JUMP JUMPDEST SWAP3 POP POP JUMPDEST DUP1 DUP1 PUSH1 0x1 ADD SWAP2 POP POP PUSH2 0x32E JUMP JUMPDEST POP PUSH0 DUP2 PUSH8 0xFFFFFFFFFFFFFFFF DUP2 GT ISZERO PUSH2 0x3CC JUMPI PUSH2 0x3CB PUSH2 0x1D25 JUMP JUMPDEST JUMPDEST PUSH1 0x40 MLOAD SWAP1 DUP1 DUP3 MSTORE DUP1 PUSH1 0x20 MUL PUSH1 0x20 ADD DUP3 ADD PUSH1 0x40 MSTORE DUP1 ISZERO PUSH2 0x3FA JUMPI DUP2 PUSH1 0x20 ADD PUSH1 0x20 DUP3 MUL DUP1 CALLDATASIZE DUP4 CALLDATACOPY DUP1 DUP3 ADD SWAP2 POP POP SWAP1 POP JUMPDEST POP SWAP1 POP PUSH0 PUSH0 SWAP1 POP PUSH0 PUSH0 SWAP1 POP JUMPDEST PUSH0 DUP1 SLOAD SWAP1 POP DUP2 LT ISZERO PUSH2 0x4A8 JUMPI DUP6 PUSH1 0x3 DUP2 GT ISZERO PUSH2 0x425 JUMPI PUSH2 0x424 PUSH2 0x1671 JUMP JUMPDEST JUMPDEST PUSH0 DUP3 DUP2 SLOAD DUP2 LT PUSH2 0x438 JUMPI PUSH2 0x437 PUSH2 0x1C84 JUMP JUMPDEST JUMPDEST SWAP1 PUSH0 MSTORE PUSH1 0x20 PUSH0 KECCAK256 SWAP1 PUSH1 0x5 MUL ADD PUSH1 0x2 ADD PUSH1 0x1 SWAP1 SLOAD SWAP1 PUSH2 0x100 EXP SWAP1 DIV PUSH1 0xFF AND PUSH1 0x3 DUP2 GT ISZERO PUSH2 0x467 JUMPI PUSH2 0x466 PUSH2 0x1671 JUMP JUMPDEST JUMPDEST SUB PUSH2 0x49B JUMPI DUP1 DUP4 DUP4 DUP2 MLOAD DUP2 LT PUSH2 0x480 JUMPI PUSH2 0x47F PUSH2 0x1C84 JUMP JUMPDEST JUMPDEST PUSH1 0x20 MUL PUSH1 0x20 ADD ADD DUP2 DUP2 MSTORE POP POP DUP2 DUP1 PUSH2 0x497 SWAP1 PUSH2 0x1CDE JUMP JUMPDEST SWAP3 POP POP JUMPDEST DUP1 DUP1 PUSH1 0x1 ADD SWAP2 POP POP PUSH2 0x406 JUMP JUMPDEST POP DUP2 SWAP4 POP POP POP POP SWAP2 SWAP1 POP JUMP JUMPDEST PUSH0 DUP1 SLOAD SWAP1 POP DUP3 LT PUSH2 0x4FA JUMPI PUSH1 0x40 MLOAD PUSH32 0x8C379A000000000000000000000000000000000000000000000000000000000 DUP2 MSTORE PUSH1 0x4 ADD PUSH2 0x4F1 SWAP1 PUSH2 0x1D9C JUMP JUMPDEST PUSH1 0x40 MLOAD DUP1 SWAP2 SUB SWAP1 REVERT JUMPDEST DUP1 PUSH0 DUP4 DUP2 SLOAD DUP2 LT PUSH2 0x50E JUMPI PUSH2 0x50D PUSH2 0x1C84 JUMP JUMPDEST JUMPDEST SWAP1 PUSH0 MSTORE PUSH1 0x20 PUSH0 KECCAK256 SWAP1 PUSH1 0x5 MUL ADD PUSH1 0x2 ADD PUSH1 0x1 PUSH2 0x100 EXP DUP2 SLOAD DUP2 PUSH1 0xFF MUL NOT AND SWAP1 DUP4 PUSH1 0x3 DUP2 GT ISZERO PUSH2 0x53F JUMPI PUSH2 0x53E PUSH2 0x1671 JUMP JUMPDEST JUMPDEST MUL OR SWAP1 SSTORE POP DUP2 PUSH32 0xBC38D284BD0C98BE555B32FB56E3A5C0A385F6565212459CFA0074394571D01B DUP3 PUSH1 0x40 MLOAD PUSH2 0x574 SWAP2 SWAP1 PUSH2 0x1DBA JUMP JUMPDEST PUSH1 0x40 MLOAD DUP1 SWAP2 SUB SWAP1 LOG2 POP POP JUMP JUMPDEST PUSH2 0x588 PUSH2 0x10FD JUMP JUMPDEST PUSH1 0x1 PUSH1 0x3 DUP1 PUSH1 0x20 MUL PUSH1 0x40 MLOAD SWAP1 DUP2 ADD PUSH1 0x40 MSTORE DUP1 SWAP3 SWAP2 SWAP1 DUP3 PUSH1 0x3 DUP1 ISZERO PUSH2 0x5C1 JUMPI PUSH1 0x20 MUL DUP3 ADD SWAP2 JUMPDEST DUP2 SLOAD DUP2 MSTORE PUSH1 0x20 ADD SWAP1 PUSH1 0x1 ADD SWAP1 DUP1 DUP4 GT PUSH2 0x5AD JUMPI JUMPDEST POP POP POP POP POP SWAP1 POP SWAP1 JUMP JUMPDEST PUSH0 PUSH0 DUP1 SLOAD SWAP1 POP GT PUSH2 0x611 JUMPI PUSH1 0x40 MLOAD PUSH32 0x8C379A000000000000000000000000000000000000000000000000000000000 DUP2 MSTORE PUSH1 0x4 ADD PUSH2 0x608 SWAP1 PUSH2 0x1E1D JUMP JUMPDEST PUSH1 0x40 MLOAD DUP1 SWAP2 SUB SWAP1 REVERT JUMPDEST PUSH0 DUP1 SLOAD DUP1 PUSH2 0x622 JUMPI PUSH2 0x621 PUSH2 0x1E3B JUMP JUMPDEST JUMPDEST PUSH1 0x1 SWAP1 SUB DUP2 DUP2 SWAP1 PUSH0 MSTORE PUSH1 0x20 PUSH0 KECCAK256 SWAP1 PUSH1 0x5 MUL ADD PUSH0 PUSH0 DUP3 ADD PUSH0 SWAP1 SSTORE PUSH1 0x1 DUP3 ADD PUSH0 PUSH2 0x64A SWAP2 SWAP1 PUSH2 0x111F JUMP JUMPDEST PUSH1 0x2 DUP3 ADD PUSH0 PUSH2 0x100 EXP DUP2 SLOAD SWAP1 PUSH1 0xFF MUL NOT AND SWAP1 SSTORE PUSH1 0x2 DUP3 ADD PUSH1 0x1 PUSH2 0x100 EXP DUP2 SLOAD SWAP1 PUSH1 0xFF MUL NOT AND SWAP1 SSTORE PUSH1 0x2 DUP3 ADD PUSH1 0x2 PUSH2 0x100 EXP DUP2 SLOAD SWAP1 PUSH20 0xFFFFFFFFFFFFFFFFFFFFFFFFFFFFFFFFFFFFFFFF MUL NOT AND SWAP1 SSTORE PUSH1 0x3 DUP3 ADD PUSH0 PUSH2 0x6A7 SWAP2 SWAP1 PUSH2 0x115C JUMP JUMPDEST PUSH1 0x4 DUP3 ADD PUSH0 PUSH2 0x6B6 SWAP2 SWAP1 PUSH2 0x117A JUMP JUMPDEST POP POP SWAP1 SSTORE JUMP JUMPDEST PUSH0 DUP2 DUP2 SLOAD DUP2 LT PUSH2 0x6CA JUMPI PUSH0 DUP1 REVERT JUMPDEST SWAP1 PUSH0 MSTORE PUSH1 0x20 PUSH0 KECCAK256 SWAP1 PUSH1 0x5 MUL ADD PUSH0 SWAP2 POP SWAP1 POP DUP1 PUSH0 ADD SLOAD SWAP1 DUP1 PUSH1 0x1 ADD DUP1 SLOAD PUSH2 0x6EF SWAP1 PUSH2 0x1E95 JUMP JUMPDEST DUP1 PUSH1 0x1F ADD PUSH1 0x20 DUP1 SWAP2 DIV MUL PUSH1 0x20 ADD PUSH1 0x40 MLOAD SWAP1 DUP2 ADD PUSH1 0x40 MSTORE DUP1 SWAP3 SWAP2 SWAP1 DUP2 DUP2 MSTORE PUSH1 0x20 ADD DUP3 DUP1 SLOAD PUSH2 0x71B SWAP1 PUSH2 0x1E95 JUMP JUMPDEST DUP1 ISZERO PUSH2 0x766 JUMPI DUP1 PUSH1 0x1F LT PUSH2 0x73D JUMPI PUSH2 0x100 DUP1 DUP4 SLOAD DIV MUL DUP4 MSTORE SWAP2 PUSH1 0x20 ADD SWAP2 PUSH2 0x766 JUMP JUMPDEST DUP3 ADD SWAP2 SWAP1 PUSH0 MSTORE PUSH1 0x20 PUSH0 KECCAK256 SWAP1 JUMPDEST DUP2 SLOAD DUP2 MSTORE SWAP1 PUSH1 0x1 ADD SWAP1 PUSH1 0x20 ADD DUP1 DUP4 GT PUSH2 0x749 JUMPI DUP3 SWAP1 SUB PUSH1 0x1F AND DUP3 ADD SWAP2 JUMPDEST POP POP POP POP POP SWAP1 DUP1 PUSH1 0x2 ADD PUSH0 SWAP1 SLOAD SWAP1 PUSH2 0x100 EXP SWAP1 DIV PUSH1 0xFF AND SWAP1 DUP1 PUSH1 0x2 ADD PUSH1 0x1 SWAP1 SLOAD SWAP1 PUSH2 0x100 EXP SWAP1 DIV PUSH1 0xFF AND SWAP1 DUP1 PUSH1 0x2 ADD PUSH1 0x2 SWAP1 SLOAD SWAP1 PUSH2 0x100 EXP SWAP1 DIV PUSH20 0xFFFFFFFFFFFFFFFFFFFFFFFFFFFFFFFFFFFFFFFF AND SWAP1 POP DUP6 JUMP JUMPDEST DUP1 PUSH1 0x1 SWAP1 PUSH1 0x3 PUSH2 0x7CC SWAP3 SWAP2 SWAP1 PUSH2 0x1198 JUMP JUMPDEST POP POP JUMP JUMPDEST PUSH1 0x60 PUSH0 DUP1 SLOAD SWAP1 POP DUP3 LT PUSH2 0x818 JUMPI PUSH1 0x40 MLOAD PUSH32 0x8C379A000000000000000000000000000000000000000000000000000000000 DUP2 MSTORE PUSH1 0x4 ADD PUSH2 0x80F SWAP1 PUSH2 0x1D9C JUMP JUMPDEST PUSH1 0x40 MLOAD DUP1 SWAP2 SUB SWAP1 REVERT JUMPDEST PUSH0 DUP3 DUP2 SLOAD DUP2 LT PUSH2 0x82B JUMPI PUSH2 0x82A PUSH2 0x1C84 JUMP JUMPDEST JUMPDEST SWAP1 PUSH0 MSTORE PUSH1 0x20 PUSH0 KECCAK256 SWAP1 PUSH1 0x5 MUL ADD PUSH1 0x4 ADD DUP1 SLOAD DUP1 PUSH1 0x20 MUL PUSH1 0x20 ADD PUSH1 0x40 MLOAD SWAP1 DUP2 ADD PUSH1 0x40 MSTORE DUP1 SWAP3 SWAP2 SWAP1 DUP2 DUP2 MSTORE PUSH1 0x20 ADD PUSH0 SWAP1 JUMPDEST DUP3 DUP3 LT ISZERO PUSH2 0x901 JUMPI DUP4 DUP3 SWAP1 PUSH0 MSTORE PUSH1 0x20 PUSH0 KECCAK256 ADD DUP1 SLOAD PUSH2 0x876 SWAP1 PUSH2 0x1E95 JUMP JUMPDEST DUP1 PUSH1 0x1F ADD PUSH1 0x20 DUP1 SWAP2 DIV MUL PUSH1 0x20 ADD PUSH1 0x40 MLOAD SWAP1 DUP2 ADD PUSH1 0x40 MSTORE DUP1 SWAP3 SWAP2 SWAP1 DUP2 DUP2 MSTORE PUSH1 0x20 ADD DUP3 DUP1 SLOAD PUSH2 0x8A2 SWAP1 PUSH2 0x1E95 JUMP JUMPDEST DUP1 ISZERO PUSH2 0x8ED JUMPI DUP1 PUSH1 0x1F LT PUSH2 0x8C4 JUMPI PUSH2 0x100 DUP1 DUP4 SLOAD DIV MUL DUP4 MSTORE SWAP2 PUSH1 0x20 ADD SWAP2 PUSH2 0x8ED JUMP JUMPDEST DUP3 ADD SWAP2 SWAP1 PUSH0 MSTORE PUSH1 0x20 PUSH0 KECCAK256 SWAP1 JUMPDEST DUP2 SLOAD DUP2 MSTORE SWAP1 PUSH1 0x1 ADD SWAP1 PUSH1 0x20 ADD DUP1 DUP4 GT PUSH2 0x8D0 JUMPI DUP3 SWAP1 SUB PUSH1 0x1F AND DUP3 ADD SWAP2 JUMPDEST POP POP POP POP POP DUP2 MSTORE PUSH1 0x20 ADD SWAP1 PUSH1 0x1 ADD SWAP1 PUSH2 0x859 JUMP JUMPDEST POP POP POP POP SWAP1 POP SWAP2 SWAP1 POP JUMP JUMPDEST PUSH0 PUSH1 0x60 PUSH0 PUSH0 PUSH0 PUSH0 PUSH0 PUSH0 DUP1 SLOAD SWAP1 POP DUP9 LT PUSH2 0x95A JUMPI PUSH1 0x40 MLOAD PUSH32 0x8C379A000000000000000000000000000000000000000000000000000000000 DUP2 MSTORE PUSH1 0x4 ADD PUSH2 0x951 SWAP1 PUSH2 0x1D9C JUMP JUMPDEST PUSH1 0x40 MLOAD DUP1 SWAP2 SUB SWAP1 REVERT JUMPDEST PUSH0 PUSH0 DUP10 DUP2 SLOAD DUP2 LT PUSH2 0x96E JUMPI PUSH2 0x96D PUSH2 0x1C84 JUMP JUMPDEST JUMPDEST SWAP1 PUSH0 MSTORE PUSH1 0x20 PUSH0 KECCAK256 SWAP1 PUSH1 0x5 MUL ADD SWAP1 POP DUP1 PUSH0 ADD SLOAD DUP2 PUSH1 0x1 ADD DUP3 PUSH1 0x2 ADD PUSH0 SWAP1 SLOAD SWAP1 PUSH2 0x100 EXP SWAP1 DIV PUSH1 0xFF AND DUP4 PUSH1 0x2 ADD PUSH1 0x1 SWAP1 SLOAD SWAP1 PUSH2 0x100 EXP SWAP1 DIV PUSH1 0xFF AND DUP5 PUSH1 0x2 ADD PUSH1 0x2 SWAP1 SLOAD SWAP1 PUSH2 0x100 EXP SWAP1 DIV PUSH20 0xFFFFFFFFFFFFFFFFFFFFFFFFFFFFFFFFFFFFFFFF AND DUP6 PUSH1 0x3 ADD DUP1 SLOAD SWAP1 POP DUP7 PUSH1 0x4 ADD DUP1 SLOAD SWAP1 POP DUP6 DUP1 SLOAD PUSH2 0x9E8 SWAP1 PUSH2 0x1E95 JUMP JUMPDEST DUP1 PUSH1 0x1F ADD PUSH1 0x20 DUP1 SWAP2 DIV MUL PUSH1 0x20 ADD PUSH1 0x40 MLOAD SWAP1 DUP2 ADD PUSH1 0x40 MSTORE DUP1 SWAP3 SWAP2 SWAP1 DUP2 DUP2 MSTORE PUSH1 0x20 ADD DUP3 DUP1 SLOAD PUSH2 0xA14 SWAP1 PUSH2 0x1E95 JUMP JUMPDEST DUP1 ISZERO PUSH2 0xA5F JUMPI DUP1 PUSH1 0x1F LT PUSH2 0xA36 JUMPI PUSH2 0x100 DUP1 DUP4 SLOAD DIV MUL DUP4 MSTORE SWAP2 PUSH1 0x20 ADD SWAP2 PUSH2 0xA5F JUMP JUMPDEST DUP3 ADD SWAP2 SWAP1 PUSH0 MSTORE PUSH1 0x20 PUSH0 KECCAK256 SWAP1 JUMPDEST DUP2 SLOAD DUP2 MSTORE SWAP1 PUSH1 0x1 ADD SWAP1 PUSH1 0x20 ADD DUP1 DUP4 GT PUSH2 0xA42 JUMPI DUP3 SWAP1 SUB PUSH1 0x1F AND DUP3 ADD SWAP2 JUMPDEST POP POP POP POP POP SWAP6 POP SWAP8 POP SWAP8 POP SWAP8 POP SWAP8 POP SWAP8 POP SWAP8 POP SWAP8 POP POP SWAP2 SWAP4 SWAP6 SWAP8 SWAP1 SWAP3 SWAP5 SWAP7 POP JUMP JUMPDEST PUSH0 DUP1 SLOAD SWAP1 POP DUP4 LT PUSH2 0xAC6 JUMPI PUSH1 0x40 MLOAD PUSH32 0x8C379A000000000000000000000000000000000000000000000000000000000 DUP2 MSTORE PUSH1 0x4 ADD PUSH2 0xABD SWAP1 PUSH2 0x1D9C JUMP JUMPDEST PUSH1 0x40 MLOAD DUP1 SWAP2 SUB SWAP1 REVERT JUMPDEST PUSH0 DUP4 DUP2 SLOAD DUP2 LT PUSH2 0xAD9 JUMPI PUSH2 0xAD8 PUSH2 0x1C84 JUMP JUMPDEST JUMPDEST SWAP1 PUSH0 MSTORE PUSH1 0x20 PUSH0 KECCAK256 SWAP1 PUSH1 0x5 MUL ADD PUSH1 0x4 ADD DUP3 DUP3 SWAP1 SWAP2 DUP1 PUSH1 0x1 DUP2 SLOAD ADD DUP1 DUP3 SSTORE DUP1 SWAP2 POP POP PUSH1 0x1 SWAP1 SUB SWAP1 PUSH0 MSTORE PUSH1 0x20 PUSH0 KECCAK256 ADD PUSH0 SWAP1 SWAP2 SWAP3 SWAP1 SWAP2 SWAP3 SWAP1 SWAP2 SWAP3 SWAP1 SWAP2 SWAP3 POP SWAP2 DUP3 PUSH2 0xB20 SWAP3 SWAP2 SWAP1 PUSH2 0x206F JUMP JUMPDEST POP DUP3 PUSH32 0x34D506B3469A68B41269F288EBFF47E5BD8F74DFD8927A0D5646E33418A56117 DUP4 DUP4 PUSH1 0x40 MLOAD PUSH2 0xB53 SWAP3 SWAP2 SWAP1 PUSH2 0x2176 JUMP JUMPDEST PUSH1 0x40 MLOAD DUP1 SWAP2 SUB SWAP1 LOG2 POP POP POP JUMP JUMPDEST PUSH0 PUSH0 DUP1 SLOAD SWAP1 POP SWAP1 POP SWAP1 JUMP JUMPDEST PUSH0 DUP1 SLOAD SWAP1 POP DUP4 LT PUSH2 0xBB1 JUMPI PUSH1 0x40 MLOAD PUSH32 0x8C379A000000000000000000000000000000000000000000000000000000000 DUP2 MSTORE PUSH1 0x4 ADD PUSH2 0xBA8 SWAP1 PUSH2 0x1D9C JUMP JUMPDEST PUSH1 0x40 MLOAD DUP1 SWAP2 SUB SWAP1 REVERT JUMPDEST DUP2 DUP2 PUSH0 DUP6 DUP2 SLOAD DUP2 LT PUSH2 0xBC6 JUMPI PUSH2 0xBC5 PUSH2 0x1C84 JUMP JUMPDEST JUMPDEST SWAP1 PUSH0 MSTORE PUSH1 0x20 PUSH0 KECCAK256 SWAP1 PUSH1 0x5 MUL ADD PUSH1 0x3 ADD SWAP2 SWAP1 PUSH2 0xBE2 SWAP3 SWAP2 SWAP1 PUSH2 0x11D8 JUMP JUMPDEST POP DUP3 PUSH32 0xBB336CA598A8744D73FA12993A20F8F8B055165CA45A2876D68AB71206E72F88 DUP4 DUP4 SWAP1 POP PUSH1 0x40 MLOAD PUSH2 0xC16 SWAP2 SWAP1 PUSH2 0x1A62 JUMP JUMPDEST PUSH1 0x40 MLOAD DUP1 SWAP2 SUB SWAP1 LOG2 POP POP POP JUMP JUMPDEST PUSH1 0x1 DUP2 PUSH1 0x3 DUP2 LT PUSH2 0xC32 JUMPI PUSH0 DUP1 REVERT JUMPDEST ADD PUSH0 SWAP2 POP SWAP1 POP SLOAD DUP2 JUMP JUMPDEST PUSH1 0x60 PUSH0 DUP1 SLOAD SWAP1 POP DUP3 LT PUSH2 0xC84 JUMPI PUSH1 0x40 MLOAD PUSH32 0x8C379A000000000000000000000000000000000000000000000000000000000 DUP2 MSTORE PUSH1 0x4 ADD PUSH2 0xC7B SWAP1 PUSH2 0x1D9C JUMP JUMPDEST PUSH1 0x40 MLOAD DUP1 SWAP2 SUB SWAP1 REVERT JUMPDEST PUSH0 DUP3 DUP2 SLOAD DUP2 LT PUSH2 0xC97 JUMPI PUSH2 0xC96 PUSH2 0x1C84 JUMP JUMPDEST JUMPDEST SWAP1 PUSH0 MSTORE PUSH1 0x20 PUSH0 KECCAK256 SWAP1 PUSH1 0x5 MUL ADD PUSH1 0x3 ADD DUP1 SLOAD DUP1 PUSH1 0x20 MUL PUSH1 0x20 ADD PUSH1 0x40 MLOAD SWAP1 DUP2 ADD PUSH1 0x40 MSTORE DUP1 SWAP3 SWAP2 SWAP1 DUP2 DUP2 MSTORE PUSH1 0x20 ADD DUP3 DUP1 SLOAD DUP1 ISZERO PUSH2 0xD23 JUMPI PUSH1 0x20 MUL DUP3 ADD SWAP2 SWAP1 PUSH0 MSTORE PUSH1 0x20 PUSH0 KECCAK256 SWAP1 JUMPDEST DUP2 PUSH0 SWAP1 SLOAD SWAP1 PUSH2 0x100 EXP SWAP1 DIV PUSH20 0xFFFFFFFFFFFFFFFFFFFFFFFFFFFFFFFFFFFFFFFF AND PUSH20 0xFFFFFFFFFFFFFFFFFFFFFFFFFFFFFFFFFFFFFFFF AND DUP2 MSTORE PUSH1 0x20 ADD SWAP1 PUSH1 0x1 ADD SWAP1 DUP1 DUP4 GT PUSH2 0xCDA JUMPI JUMPDEST POP POP POP POP POP SWAP1 POP SWAP2 SWAP1 POP JUMP JUMPDEST PUSH0 PUSH0 PUSH1 0x40 MLOAD DUP1 PUSH1 0xE0 ADD PUSH1 0x40 MSTORE DUP1 PUSH1 0x4 PUSH0 DUP2 SLOAD DUP1 SWAP3 SWAP2 SWAP1 PUSH2 0xD4E SWAP1 PUSH2 0x1CDE JUMP JUMPDEST SWAP2 SWAP1 POP SSTORE DUP2 MSTORE PUSH1 0x20 ADD DUP7 DUP7 DUP1 DUP1 PUSH1 0x1F ADD PUSH1 0x20 DUP1 SWAP2 DIV MUL PUSH1 0x20 ADD PUSH1 0x40 MLOAD SWAP1 DUP2 ADD PUSH1 0x40 MSTORE DUP1 SWAP4 SWAP3 SWAP2 SWAP1 DUP2 DUP2 MSTORE PUSH1 0x20 ADD DUP4 DUP4 DUP1 DUP3 DUP5 CALLDATACOPY PUSH0 DUP2 DUP5 ADD MSTORE PUSH1 0x1F NOT PUSH1 0x1F DUP3 ADD AND SWAP1 POP DUP1 DUP4 ADD SWAP3 POP POP POP POP POP POP POP DUP2 MSTORE PUSH1 0x20 ADD DUP5 PUSH1 0x3 DUP2 GT ISZERO PUSH2 0xDB3 JUMPI PUSH2 0xDB2 PUSH2 0x1671 JUMP JUMPDEST JUMPDEST DUP2 MSTORE PUSH1 0x20 ADD PUSH0 PUSH1 0x3 DUP2 GT ISZERO PUSH2 0xDCB JUMPI PUSH2 0xDCA PUSH2 0x1671 JUMP JUMPDEST JUMPDEST DUP2 MSTORE PUSH1 0x20 ADD CALLER PUSH20 0xFFFFFFFFFFFFFFFFFFFFFFFFFFFFFFFFFFFFFFFF AND DUP2 MSTORE PUSH1 0x20 ADD PUSH0 PUSH8 0xFFFFFFFFFFFFFFFF DUP2 GT ISZERO PUSH2 0xE06 JUMPI PUSH2 0xE05 PUSH2 0x1D25 JUMP JUMPDEST JUMPDEST PUSH1 0x40 MLOAD SWAP1 DUP1 DUP3 MSTORE DUP1 PUSH1 0x20 MUL PUSH1 0x20 ADD DUP3 ADD PUSH1 0x40 MSTORE DUP1 ISZERO PUSH2 0xE34 JUMPI DUP2 PUSH1 0x20 ADD PUSH1 0x20 DUP3 MUL DUP1 CALLDATASIZE DUP4 CALLDATACOPY DUP1 DUP3 ADD SWAP2 POP POP SWAP1 POP JUMPDEST POP DUP2 MSTORE PUSH1 0x20 ADD PUSH0 PUSH8 0xFFFFFFFFFFFFFFFF DUP2 GT ISZERO PUSH2 0xE54 JUMPI PUSH2 0xE53 PUSH2 0x1D25 JUMP JUMPDEST JUMPDEST PUSH1 0x40 MLOAD SWAP1 DUP1 DUP3 MSTORE DUP1 PUSH1 0x20 MUL PUSH1 0x20 ADD DUP3 ADD PUSH1 0x40 MSTORE DUP1 ISZERO PUSH2 0xE87 JUMPI DUP2 PUSH1 0x20 ADD JUMPDEST PUSH1 0x60 DUP2 MSTORE PUSH1 0x20 ADD SWAP1 PUSH1 0x1 SWAP1 SUB SWAP1 DUP2 PUSH2 0xE72 JUMPI SWAP1 POP JUMPDEST POP DUP2 MSTORE POP SWAP1 POP PUSH0 DUP2 SWAP1 DUP1 PUSH1 0x1 DUP2 SLOAD ADD DUP1 DUP3 SSTORE DUP1 SWAP2 POP POP PUSH1 0x1 SWAP1 SUB SWAP1 PUSH0 MSTORE PUSH1 0x20 PUSH0 KECCAK256 SWAP1 PUSH1 0x5 MUL ADD PUSH0 SWAP1 SWAP2 SWAP1 SWAP2 SWAP1 SWAP2 POP PUSH0 DUP3 ADD MLOAD DUP2 PUSH0 ADD SSTORE PUSH1 0x20 DUP3 ADD MLOAD DUP2 PUSH1 0x1 ADD SWAP1 DUP2 PUSH2 0xED2 SWAP2 SWAP1 PUSH2 0x2198 JUMP JUMPDEST POP PUSH1 0x40 DUP3 ADD MLOAD DUP2 PUSH1 0x2 ADD PUSH0 PUSH2 0x100 EXP DUP2 SLOAD DUP2 PUSH1 0xFF MUL NOT AND SWAP1 DUP4 PUSH1 0x3 DUP2 GT ISZERO PUSH2 0xEFD JUMPI PUSH2 0xEFC PUSH2 0x1671 JUMP JUMPDEST JUMPDEST MUL OR SWAP1 SSTORE POP PUSH1 0x60 DUP3 ADD MLOAD DUP2 PUSH1 0x2 ADD PUSH1 0x1 PUSH2 0x100 EXP DUP2 SLOAD DUP2 PUSH1 0xFF MUL NOT AND SWAP1 DUP4 PUSH1 0x3 DUP2 GT ISZERO PUSH2 0xF2D JUMPI PUSH2 0xF2C PUSH2 0x1671 JUMP JUMPDEST JUMPDEST MUL OR SWAP1 SSTORE POP PUSH1 0x80 DUP3 ADD MLOAD DUP2 PUSH1 0x2 ADD PUSH1 0x2 PUSH2 0x100 EXP DUP2 SLOAD DUP2 PUSH20 0xFFFFFFFFFFFFFFFFFFFFFFFFFFFFFFFFFFFFFFFF MUL NOT AND SWAP1 DUP4 PUSH20 0xFFFFFFFFFFFFFFFFFFFFFFFFFFFFFFFFFFFFFFFF AND MUL OR SWAP1 SSTORE POP PUSH1 0xA0 DUP3 ADD MLOAD DUP2 PUSH1 0x3 ADD SWAP1 DUP1 MLOAD SWAP1 PUSH1 0x20 ADD SWAP1 PUSH2 0xF95 SWAP3 SWAP2 SWAP1 PUSH2 0x1275 JUMP JUMPDEST POP PUSH1 0xC0 DUP3 ADD MLOAD DUP2 PUSH1 0x4 ADD SWAP1 DUP1 MLOAD SWAP1 PUSH1 0x20 ADD SWAP1 PUSH2 0xFB2 SWAP3 SWAP2 SWAP1 PUSH2 0x12FC JUMP JUMPDEST POP POP POP PUSH1 0x1 PUSH0 DUP1 SLOAD SWAP1 POP PUSH2 0xFC6 SWAP2 SWAP1 PUSH2 0x2267 JUMP JUMPDEST SWAP2 POP DUP2 PUSH32 0x8FF9A332A7752FD6BC1EDF2506E125B6B53B6D1D2049DFFBA743455BE4F91EBD DUP3 PUSH0 ADD MLOAD DUP8 DUP8 DUP8 PUSH1 0x40 MLOAD PUSH2 0x1001 SWAP5 SWAP4 SWAP3 SWAP2 SWAP1 PUSH2 0x229A JUMP JUMPDEST PUSH1 0x40 MLOAD DUP1 SWAP2 SUB SWAP1 LOG2 POP SWAP4 SWAP3 POP POP POP JUMP JUMPDEST PUSH0 DUP1 SLOAD SWAP1 POP DUP2 LT PUSH2 0x1057 JUMPI PUSH1 0x40 MLOAD PUSH32 0x8C379A000000000000000000000000000000000000000000000000000000000 DUP2 MSTORE PUSH1 0x4 ADD PUSH2 0x104E SWAP1 PUSH2 0x1D9C JUMP JUMPDEST PUSH1 0x40 MLOAD DUP1 SWAP2 SUB SWAP1 REVERT JUMPDEST PUSH0 DUP2 DUP2 SLOAD DUP2 LT PUSH2 0x106A JUMPI PUSH2 0x1069 PUSH2 0x1C84 JUMP JUMPDEST JUMPDEST SWAP1 PUSH0 MSTORE PUSH1 0x20 PUSH0 KECCAK256 SWAP1 PUSH1 0x5 MUL ADD PUSH0 PUSH0 DUP3 ADD PUSH0 SWAP1 SSTORE PUSH1 0x1 DUP3 ADD PUSH0 PUSH2 0x108C SWAP2 SWAP1 PUSH2 0x111F JUMP JUMPDEST PUSH1 0x2 DUP3 ADD PUSH0 PUSH2 0x100 EXP DUP2 SLOAD SWAP1 PUSH1 0xFF MUL NOT AND SWAP1 SSTORE PUSH1 0x2 DUP3 ADD PUSH1 0x1 PUSH2 0x100 EXP DUP2 SLOAD SWAP1 PUSH1 0xFF MUL NOT AND SWAP1 SSTORE PUSH1 0x2 DUP3 ADD PUSH1 0x2 PUSH2 0x100 EXP DUP2 SLOAD SWAP1 PUSH20 0xFFFFFFFFFFFFFFFFFFFFFFFFFFFFFFFFFFFFFFFF MUL NOT AND SWAP1 SSTORE PUSH1 0x3 DUP3 ADD PUSH0 PUSH2 0x10E9 SWAP2 SWAP1 PUSH2 0x115C JUMP JUMPDEST PUSH1 0x4 DUP3 ADD PUSH0 PUSH2 0x10F8 SWAP2 SWAP1 PUSH2 0x117A JUMP JUMPDEST POP POP POP JUMP JUMPDEST PUSH1 0x40 MLOAD DUP1 PUSH1 0x60 ADD PUSH1 0x40 MSTORE DUP1 PUSH1 0x3 SWAP1 PUSH1 0x20 DUP3 MUL DUP1 CALLDATASIZE DUP4 CALLDATACOPY DUP1 DUP3 ADD SWAP2 POP POP SWAP1 POP POP SWAP1 JUMP JUMPDEST POP DUP1 SLOAD PUSH2 0x112B SWAP1 PUSH2 0x1E95 JUMP JUMPDEST PUSH0 DUP3 SSTORE DUP1 PUSH1 0x1F LT PUSH2 0x113C JUMPI POP PUSH2 0x1159 JUMP JUMPDEST PUSH1 0x1F ADD PUSH1 0x20 SWAP1 DIV SWAP1 PUSH0 MSTORE PUSH1 0x20 PUSH0 KECCAK256 SWAP1 DUP2 ADD SWAP1 PUSH2 0x1158 SWAP2 SWAP1 PUSH2 0x1353 JUMP JUMPDEST JUMPDEST POP JUMP JUMPDEST POP DUP1 SLOAD PUSH0 DUP3 SSTORE SWAP1 PUSH0 MSTORE PUSH1 0x20 PUSH0 KECCAK256 SWAP1 DUP2 ADD SWAP1 PUSH2 0x1177 SWAP2 SWAP1 PUSH2 0x1353 JUMP JUMPDEST POP JUMP JUMPDEST POP DUP1 SLOAD PUSH0 DUP3 SSTORE SWAP1 PUSH0 MSTORE PUSH1 0x20 PUSH0 KECCAK256 SWAP1 DUP2 ADD SWAP1 PUSH2 0x1195 SWAP2 SWAP1 PUSH2 0x136E JUMP JUMPDEST POP JUMP JUMPDEST DUP3 PUSH1 0x3 DUP2 ADD SWAP3 DUP3 ISZERO PUSH2 0x11C7 JUMPI SWAP2 PUSH1 0x20 MUL DUP3 ADD JUMPDEST DUP3 DUP2 GT ISZERO PUSH2 0x11C6 JUMPI DUP3 CALLDATALOAD DUP3 SSTORE SWAP2 PUSH1 0x20 ADD SWAP2 SWAP1 PUSH1 0x1 ADD SWAP1 PUSH2 0x11AB JUMP JUMPDEST JUMPDEST POP SWAP1 POP PUSH2 0x11D4 SWAP2 SWAP1 PUSH2 0x1353 JUMP JUMPDEST POP SWAP1 JUMP JUMPDEST DUP3 DUP1 SLOAD DUP3 DUP3 SSTORE SWAP1 PUSH0 MSTORE PUSH1 0x20 PUSH0 KECCAK256 SWAP1 DUP2 ADD SWAP3 DUP3 ISZERO PUSH2 0x1264 JUMPI SWAP2 PUSH1 0x20 MUL DUP3 ADD JUMPDEST DUP3 DUP2 GT ISZERO PUSH2 0x1263 JUMPI DUP3 CALLDATALOAD PUSH20 0xFFFFFFFFFFFFFFFFFFFFFFFFFFFFFFFFFFFFFFFF AND DUP3 PUSH0 PUSH2 0x100 EXP DUP2 SLOAD DUP2 PUSH20 0xFFFFFFFFFFFFFFFFFFFFFFFFFFFFFFFFFFFFFFFF MUL NOT AND SWAP1 DUP4 PUSH20 0xFFFFFFFFFFFFFFFFFFFFFFFFFFFFFFFFFFFFFFFF AND MUL OR SWAP1 SSTORE POP SWAP2 PUSH1 0x20 ADD SWAP2 SWAP1 PUSH1 0x1 ADD SWAP1 PUSH2 0x11F6 JUMP JUMPDEST JUMPDEST POP SWAP1 POP PUSH2 0x1271 SWAP2 SWAP1 PUSH2 0x1353 JUMP JUMPDEST POP SWAP1 JUMP JUMPDEST DUP3 DUP1 SLOAD DUP3 DUP3 SSTORE SWAP1 PUSH0 MSTORE PUSH1 0x20 PUSH0 KECCAK256 SWAP1 DUP2 ADD SWAP3 DUP3 ISZERO PUSH2 0x12EB JUMPI SWAP2 PUSH1 0x20 MUL DUP3 ADD JUMPDEST DUP3 DUP2 GT ISZERO PUSH2 0x12EA JUMPI DUP3 MLOAD DUP3 PUSH0 PUSH2 0x100 EXP DUP2 SLOAD DUP2 PUSH20 0xFFFFFFFFFFFFFFFFFFFFFFFFFFFFFFFFFFFFFFFF MUL NOT AND SWAP1 DUP4 PUSH20 0xFFFFFFFFFFFFFFFFFFFFFFFFFFFFFFFFFFFFFFFF AND MUL OR SWAP1 SSTORE POP SWAP2 PUSH1 0x20 ADD SWAP2 SWAP1 PUSH1 0x1 ADD SWAP1 PUSH2 0x1293 JUMP JUMPDEST JUMPDEST POP SWAP1 POP PUSH2 0x12F8 SWAP2 SWAP1 PUSH2 0x1353 JUMP JUMPDEST POP SWAP1 JUMP JUMPDEST DUP3 DUP1 SLOAD DUP3 DUP3 SSTORE SWAP1 PUSH0 MSTORE PUSH1 0x20 PUSH0 KECCAK256 SWAP1 DUP2 ADD SWAP3 DUP3 ISZERO PUSH2 0x1342 JUMPI SWAP2 PUSH1 0x20 MUL DUP3 ADD JUMPDEST DUP3 DUP2 GT ISZERO PUSH2 0x1341 JUMPI DUP3 MLOAD DUP3 SWAP1 DUP2 PUSH2 0x1331 SWAP2 SWAP1 PUSH2 0x2198 JUMP JUMPDEST POP SWAP2 PUSH1 0x20 ADD SWAP2 SWAP1 PUSH1 0x1 ADD SWAP1 PUSH2 0x131A JUMP JUMPDEST JUMPDEST POP SWAP1 POP PUSH2 0x134F SWAP2 SWAP1 PUSH2 0x136E JUMP JUMPDEST POP SWAP1 JUMP JUMPDEST JUMPDEST DUP1 DUP3 GT ISZERO PUSH2 0x136A JUMPI PUSH0 DUP2 PUSH0 SWAP1 SSTORE POP PUSH1 0x1 ADD PUSH2 0x1354 JUMP JUMPDEST POP SWAP1 JUMP JUMPDEST JUMPDEST DUP1 DUP3 GT ISZERO PUSH2 0x138D JUMPI PUSH0 DUP2 DUP2 PUSH2 0x1384 SWAP2 SWAP1 PUSH2 0x111F JUMP JUMPDEST POP PUSH1 0x1 ADD PUSH2 0x136F JUMP JUMPDEST POP SWAP1 JUMP JUMPDEST PUSH0 PUSH0 REVERT JUMPDEST PUSH0 PUSH0 REVERT JUMPDEST PUSH1 0x4 DUP2 LT PUSH2 0x13A5 JUMPI PUSH0 PUSH0 REVERT JUMPDEST POP JUMP JUMPDEST PUSH0 DUP2 CALLDATALOAD SWAP1 POP PUSH2 0x13B6 DUP2 PUSH2 0x1399 JUMP JUMPDEST SWAP3 SWAP2 POP POP JUMP JUMPDEST PUSH0 PUSH1 0x20 DUP3 DUP5 SUB SLT ISZERO PUSH2 0x13D1 JUMPI PUSH2 0x13D0 PUSH2 0x1391 JUMP JUMPDEST JUMPDEST PUSH0 PUSH2 0x13DE DUP5 DUP3 DUP6 ADD PUSH2 0x13A8 JUMP JUMPDEST SWAP2 POP POP SWAP3 SWAP2 POP POP JUMP JUMPDEST PUSH0 DUP2 MLOAD SWAP1 POP SWAP2 SWAP1 POP JUMP JUMPDEST PUSH0 DUP3 DUP3 MSTORE PUSH1 0x20 DUP3 ADD SWAP1 POP SWAP3 SWAP2 POP POP JUMP JUMPDEST PUSH0 DUP2 SWAP1 POP PUSH1 0x20 DUP3 ADD SWAP1 POP SWAP2 SWAP1 POP JUMP JUMPDEST PUSH0 DUP2 SWAP1 POP SWAP2 SWAP1 POP JUMP JUMPDEST PUSH2 0x1422 DUP2 PUSH2 0x1410 JUMP JUMPDEST DUP3 MSTORE POP POP JUMP JUMPDEST PUSH0 PUSH2 0x1433 DUP4 DUP4 PUSH2 0x1419 JUMP JUMPDEST PUSH1 0x20 DUP4 ADD SWAP1 POP SWAP3 SWAP2 POP POP JUMP JUMPDEST PUSH0 PUSH1 0x20 DUP3 ADD SWAP1 POP SWAP2 SWAP1 POP JUMP JUMPDEST PUSH0 PUSH2 0x1455 DUP3 PUSH2 0x13E7 JUMP JUMPDEST PUSH2 0x145F DUP2 DUP6 PUSH2 0x13F1 JUMP JUMPDEST SWAP4 POP PUSH2 0x146A DUP4 PUSH2 0x1401 JUMP JUMPDEST DUP1 PUSH0 JUMPDEST DUP4 DUP2 LT ISZERO PUSH2 0x149A JUMPI DUP2 MLOAD PUSH2 0x1481 DUP9 DUP3 PUSH2 0x1428 JUMP JUMPDEST SWAP8 POP PUSH2 0x148C DUP4 PUSH2 0x143F JUMP JUMPDEST SWAP3 POP POP PUSH1 0x1 DUP2 ADD SWAP1 POP PUSH2 0x146D JUMP JUMPDEST POP DUP6 SWAP4 POP POP POP POP SWAP3 SWAP2 POP POP JUMP JUMPDEST PUSH0 PUSH1 0x20 DUP3 ADD SWAP1 POP DUP2 DUP2 SUB PUSH0 DUP4 ADD MSTORE PUSH2 0x14BF DUP2 DUP5 PUSH2 0x144B JUMP JUMPDEST SWAP1 POP SWAP3 SWAP2 POP POP JUMP JUMPDEST PUSH2 0x14D0 DUP2 PUSH2 0x1410 JUMP JUMPDEST DUP2 EQ PUSH2 0x14DA JUMPI PUSH0 PUSH0 REVERT JUMPDEST POP JUMP JUMPDEST PUSH0 DUP2 CALLDATALOAD SWAP1 POP PUSH2 0x14EB DUP2 PUSH2 0x14C7 JUMP JUMPDEST SWAP3 SWAP2 POP POP JUMP JUMPDEST PUSH0 PUSH0 PUSH1 0x40 DUP4 DUP6 SUB SLT ISZERO PUSH2 0x1507 JUMPI PUSH2 0x1506 PUSH2 0x1391 JUMP JUMPDEST JUMPDEST PUSH0 PUSH2 0x1514 DUP6 DUP3 DUP7 ADD PUSH2 0x14DD JUMP JUMPDEST SWAP3 POP POP PUSH1 0x20 PUSH2 0x1525 DUP6 DUP3 DUP7 ADD PUSH2 0x13A8 JUMP JUMPDEST SWAP2 POP POP SWAP3 POP SWAP3 SWAP1 POP JUMP JUMPDEST PUSH0 PUSH1 0x3 SWAP1 POP SWAP2 SWAP1 POP JUMP JUMPDEST PUSH0 DUP2 SWAP1 POP SWAP3 SWAP2 POP POP JUMP JUMPDEST PUSH0 DUP2 SWAP1 POP SWAP2 SWAP1 POP JUMP JUMPDEST PUSH0 PUSH1 0x20 DUP3 ADD SWAP1 POP SWAP2 SWAP1 POP JUMP JUMPDEST PUSH2 0x1561 DUP2 PUSH2 0x152F JUMP JUMPDEST PUSH2 0x156B DUP2 DUP5 PUSH2 0x1539 JUMP JUMPDEST SWAP3 POP PUSH2 0x1576 DUP3 PUSH2 0x1543 JUMP JUMPDEST DUP1 PUSH0 JUMPDEST DUP4 DUP2 LT ISZERO PUSH2 0x15A6 JUMPI DUP2 MLOAD PUSH2 0x158D DUP8 DUP3 PUSH2 0x1428 JUMP JUMPDEST SWAP7 POP PUSH2 0x1598 DUP4 PUSH2 0x154C JUMP JUMPDEST SWAP3 POP POP PUSH1 0x1 DUP2 ADD SWAP1 POP PUSH2 0x1579 JUMP JUMPDEST POP POP POP POP POP POP JUMP JUMPDEST PUSH0 PUSH1 0x60 DUP3 ADD SWAP1 POP PUSH2 0x15C1 PUSH0 DUP4 ADD DUP5 PUSH2 0x1558 JUMP JUMPDEST SWAP3 SWAP2 POP POP JUMP JUMPDEST PUSH0 PUSH1 0x20 DUP3 DUP5 SUB SLT ISZERO PUSH2 0x15DC JUMPI PUSH2 0x15DB PUSH2 0x1391 JUMP JUMPDEST JUMPDEST PUSH0 PUSH2 0x15E9 DUP5 DUP3 DUP6 ADD PUSH2 0x14DD JUMP JUMPDEST SWAP2 POP POP SWAP3 SWAP2 POP POP JUMP JUMPDEST PUSH2 0x15FB DUP2 PUSH2 0x1410 JUMP JUMPDEST DUP3 MSTORE POP POP JUMP JUMPDEST PUSH0 DUP2 MLOAD SWAP1 POP SWAP2 SWAP1 POP JUMP JUMPDEST PUSH0 DUP3 DUP3 MSTORE PUSH1 0x20 DUP3 ADD SWAP1 POP SWAP3 SWAP2 POP POP JUMP JUMPDEST DUP3 DUP2 DUP4 MCOPY PUSH0 DUP4 DUP4 ADD MSTORE POP POP POP JUMP JUMPDEST PUSH0 PUSH1 0x1F NOT PUSH1 0x1F DUP4 ADD AND SWAP1 POP SWAP2 SWAP1 POP JUMP JUMPDEST PUSH0 PUSH2 0x1643 DUP3 PUSH2 0x1601 JUMP JUMPDEST PUSH2 0x164D DUP2 DUP6 PUSH2 0x160B JUMP JUMPDEST SWAP4 POP PUSH2 0x165D DUP2 DUP6 PUSH1 0x20 DUP7 ADD PUSH2 0x161B JUMP JUMPDEST PUSH2 0x1666 DUP2 PUSH2 0x1629 JUMP JUMPDEST DUP5 ADD SWAP2 POP POP SWAP3 SWAP2 POP POP JUMP JUMPDEST PUSH32 0x4E487B7100000000000000000000000000000000000000000000000000000000 PUSH0 MSTORE PUSH1 0x21 PUSH1 0x4 MSTORE PUSH1 0x24 PUSH0 REVERT JUMPDEST PUSH1 0x4 DUP2 LT PUSH2 0x16AF JUMPI PUSH2 0x16AE PUSH2 0x1671 JUMP JUMPDEST JUMPDEST POP JUMP JUMPDEST PUSH0 DUP2 SWAP1 POP PUSH2 0x16BF DUP3 PUSH2 0x169E JUMP JUMPDEST SWAP2 SWAP1 POP JUMP JUMPDEST PUSH0 PUSH2 0x16CE DUP3 PUSH2 0x16B2 JUMP JUMPDEST SWAP1 POP SWAP2 SWAP1 POP JUMP JUMPDEST PUSH2 0x16DE DUP2 PUSH2 0x16C4 JUMP JUMPDEST DUP3 MSTORE POP POP JUMP JUMPDEST PUSH1 0x4 DUP2 LT PUSH2 0x16F5 JUMPI PUSH2 0x16F4 PUSH2 0x1671 JUMP JUMPDEST JUMPDEST POP JUMP JUMPDEST PUSH0 DUP2 SWAP1 POP PUSH2 0x1705 DUP3 PUSH2 0x16E4 JUMP JUMPDEST SWAP2 SWAP1 POP JUMP JUMPDEST PUSH0 PUSH2 0x1714 DUP3 PUSH2 0x16F8 JUMP JUMPDEST SWAP1 POP SWAP2 SWAP1 POP JUMP JUMPDEST PUSH2 0x1724 DUP2 PUSH2 0x170A JUMP JUMPDEST DUP3 MSTORE POP POP JUMP JUMPDEST PUSH0 PUSH20 0xFFFFFFFFFFFFFFFFFFFFFFFFFFFFFFFFFFFFFFFF DUP3 AND SWAP1 POP SWAP2 SWAP1 POP JUMP JUMPDEST PUSH0 PUSH2 0x1753 DUP3 PUSH2 0x172A JUMP JUMPDEST SWAP1 POP SWAP2 SWAP1 POP JUMP JUMPDEST PUSH2 0x1763 DUP2 PUSH2 0x1749 JUMP JUMPDEST DUP3 MSTORE POP POP JUMP JUMPDEST PUSH0 PUSH1 0xA0 DUP3 ADD SWAP1 POP PUSH2 0x177C PUSH0 DUP4 ADD DUP9 PUSH2 0x15F2 JUMP JUMPDEST DUP2 DUP2 SUB PUSH1 0x20 DUP4 ADD MSTORE PUSH2 0x178E DUP2 DUP8 PUSH2 0x1639 JUMP JUMPDEST SWAP1 POP PUSH2 0x179D PUSH1 0x40 DUP4 ADD DUP7 PUSH2 0x16D5 JUMP JUMPDEST PUSH2 0x17AA PUSH1 0x60 DUP4 ADD DUP6 PUSH2 0x171B JUMP JUMPDEST PUSH2 0x17B7 PUSH1 0x80 DUP4 ADD DUP5 PUSH2 0x175A JUMP JUMPDEST SWAP7 SWAP6 POP POP POP POP POP POP JUMP JUMPDEST PUSH0 PUSH0 REVERT JUMPDEST PUSH0 DUP2 SWAP1 POP DUP3 PUSH1 0x20 PUSH1 0x3 MUL DUP3 ADD GT ISZERO PUSH2 0x17E0 JUMPI PUSH2 0x17DF PUSH2 0x17C1 JUMP JUMPDEST JUMPDEST SWAP3 SWAP2 POP POP JUMP JUMPDEST PUSH0 PUSH1 0x60 DUP3 DUP5 SUB SLT ISZERO PUSH2 0x17FB JUMPI PUSH2 0x17FA PUSH2 0x1391 JUMP JUMPDEST JUMPDEST PUSH0 PUSH2 0x1808 DUP5 DUP3 DUP6 ADD PUSH2 0x17C5 JUMP JUMPDEST SWAP2 POP POP SWAP3 SWAP2 POP POP JUMP JUMPDEST PUSH0 DUP2 MLOAD SWAP1 POP SWAP2 SWAP1 POP JUMP JUMPDEST PUSH0 DUP3 DUP3 MSTORE PUSH1 0x20 DUP3 ADD SWAP1 POP SWAP3 SWAP2 POP POP JUMP JUMPDEST PUSH0 DUP2 SWAP1 POP PUSH1 0x20 DUP3 ADD SWAP1 POP SWAP2 SWAP1 POP JUMP JUMPDEST PUSH0 DUP3 DUP3 MSTORE PUSH1 0x20 DUP3 ADD SWAP1 POP SWAP3 SWAP2 POP POP JUMP JUMPDEST PUSH0 PUSH2 0x1854 DUP3 PUSH2 0x1601 JUMP JUMPDEST PUSH2 0x185E DUP2 DUP6 PUSH2 0x183A JUMP JUMPDEST SWAP4 POP PUSH2 0x186E DUP2 DUP6 PUSH1 0x20 DUP7 ADD PUSH2 0x161B JUMP JUMPDEST PUSH2 0x1877 DUP2 PUSH2 0x1629 JUMP JUMPDEST DUP5 ADD SWAP2 POP POP SWAP3 SWAP2 POP POP JUMP JUMPDEST PUSH0 PUSH2 0x188D DUP4 DUP4 PUSH2 0x184A JUMP JUMPDEST SWAP1 POP SWAP3 SWAP2 POP POP JUMP JUMPDEST PUSH0 PUSH1 0x20 DUP3 ADD SWAP1 POP SWAP2 SWAP1 POP JUMP JUMPDEST PUSH0 PUSH2 0x18AB DUP3 PUSH2 0x1811 JUMP JUMPDEST PUSH2 0x18B5 DUP2 DUP6 PUSH2 0x181B JUMP JUMPDEST SWAP4 POP DUP4 PUSH1 0x20 DUP3 MUL DUP6 ADD PUSH2 0x18C7 DUP6 PUSH2 0x182B JUMP JUMPDEST DUP1 PUSH0 JUMPDEST DUP6 DUP2 LT ISZERO PUSH2 0x1902 JUMPI DUP5 DUP5 SUB DUP10 MSTORE DUP2 MLOAD PUSH2 0x18E3 DUP6 DUP3 PUSH2 0x1882 JUMP JUMPDEST SWAP5 POP PUSH2 0x18EE DUP4 PUSH2 0x1895 JUMP JUMPDEST SWAP3 POP PUSH1 0x20 DUP11 ADD SWAP10 POP POP PUSH1 0x1 DUP2 ADD SWAP1 POP PUSH2 0x18CA JUMP JUMPDEST POP DUP3 SWAP8 POP DUP8 SWAP6 POP POP POP POP POP POP SWAP3 SWAP2 POP POP JUMP JUMPDEST PUSH0 PUSH1 0x20 DUP3 ADD SWAP1 POP DUP2 DUP2 SUB PUSH0 DUP4 ADD MSTORE PUSH2 0x192C DUP2 DUP5 PUSH2 0x18A1 JUMP JUMPDEST SWAP1 POP SWAP3 SWAP2 POP POP JUMP JUMPDEST PUSH0 PUSH1 0xE0 DUP3 ADD SWAP1 POP PUSH2 0x1947 PUSH0 DUP4 ADD DUP11 PUSH2 0x15F2 JUMP JUMPDEST DUP2 DUP2 SUB PUSH1 0x20 DUP4 ADD MSTORE PUSH2 0x1959 DUP2 DUP10 PUSH2 0x1639 JUMP JUMPDEST SWAP1 POP PUSH2 0x1968 PUSH1 0x40 DUP4 ADD DUP9 PUSH2 0x16D5 JUMP JUMPDEST PUSH2 0x1975 PUSH1 0x60 DUP4 ADD DUP8 PUSH2 0x171B JUMP JUMPDEST PUSH2 0x1982 PUSH1 0x80 DUP4 ADD DUP7 PUSH2 0x175A JUMP JUMPDEST PUSH2 0x198F PUSH1 0xA0 DUP4 ADD DUP6 PUSH2 0x15F2 JUMP JUMPDEST PUSH2 0x199C PUSH1 0xC0 DUP4 ADD DUP5 PUSH2 0x15F2 JUMP JUMPDEST SWAP9 SWAP8 POP POP POP POP POP POP POP POP JUMP JUMPDEST PUSH0 PUSH0 REVERT JUMPDEST PUSH0 PUSH0 REVERT JUMPDEST PUSH0 PUSH0 DUP4 PUSH1 0x1F DUP5 ADD SLT PUSH2 0x19C5 JUMPI PUSH2 0x19C4 PUSH2 0x19A8 JUMP JUMPDEST JUMPDEST DUP3 CALLDATALOAD SWAP1 POP PUSH8 0xFFFFFFFFFFFFFFFF DUP2 GT ISZERO PUSH2 0x19E2 JUMPI PUSH2 0x19E1 PUSH2 0x19AC JUMP JUMPDEST JUMPDEST PUSH1 0x20 DUP4 ADD SWAP2 POP DUP4 PUSH1 0x1 DUP3 MUL DUP4 ADD GT ISZERO PUSH2 0x19FE JUMPI PUSH2 0x19FD PUSH2 0x17C1 JUMP JUMPDEST JUMPDEST SWAP3 POP SWAP3 SWAP1 POP JUMP JUMPDEST PUSH0 PUSH0 PUSH0 PUSH1 0x40 DUP5 DUP7 SUB SLT ISZERO PUSH2 0x1A1C JUMPI PUSH2 0x1A1B PUSH2 0x1391 JUMP JUMPDEST JUMPDEST PUSH0 PUSH2 0x1A29 DUP7 DUP3 DUP8 ADD PUSH2 0x14DD JUMP JUMPDEST SWAP4 POP POP PUSH1 0x20 DUP5 ADD CALLDATALOAD PUSH8 0xFFFFFFFFFFFFFFFF DUP2 GT ISZERO PUSH2 0x1A4A JUMPI PUSH2 0x1A49 PUSH2 0x1395 JUMP JUMPDEST JUMPDEST PUSH2 0x1A56 DUP7 DUP3 DUP8 ADD PUSH2 0x19B0 JUMP JUMPDEST SWAP3 POP SWAP3 POP POP SWAP3 POP SWAP3 POP SWAP3 JUMP JUMPDEST PUSH0 PUSH1 0x20 DUP3 ADD SWAP1 POP PUSH2 0x1A75 PUSH0 DUP4 ADD DUP5 PUSH2 0x15F2 JUMP JUMPDEST SWAP3 SWAP2 POP POP JUMP JUMPDEST PUSH0 PUSH0 DUP4 PUSH1 0x1F DUP5 ADD SLT PUSH2 0x1A90 JUMPI PUSH2 0x1A8F PUSH2 0x19A8 JUMP JUMPDEST JUMPDEST DUP3 CALLDATALOAD SWAP1 POP PUSH8 0xFFFFFFFFFFFFFFFF DUP2 GT ISZERO PUSH2 0x1AAD JUMPI PUSH2 0x1AAC PUSH2 0x19AC JUMP JUMPDEST JUMPDEST PUSH1 0x20 DUP4 ADD SWAP2 POP DUP4 PUSH1 0x20 DUP3 MUL DUP4 ADD GT ISZERO PUSH2 0x1AC9 JUMPI PUSH2 0x1AC8 PUSH2 0x17C1 JUMP JUMPDEST JUMPDEST SWAP3 POP SWAP3 SWAP1 POP JUMP JUMPDEST PUSH0 PUSH0 PUSH0 PUSH1 0x40 DUP5 DUP7 SUB SLT ISZERO PUSH2 0x1AE7 JUMPI PUSH2 0x1AE6 PUSH2 0x1391 JUMP JUMPDEST JUMPDEST PUSH0 PUSH2 0x1AF4 DUP7 DUP3 DUP8 ADD PUSH2 0x14DD JUMP JUMPDEST SWAP4 POP POP PUSH1 0x20 DUP5 ADD CALLDATALOAD PUSH8 0xFFFFFFFFFFFFFFFF DUP2 GT ISZERO PUSH2 0x1B15 JUMPI PUSH2 0x1B14 PUSH2 0x1395 JUMP JUMPDEST JUMPDEST PUSH2 0x1B21 DUP7 DUP3 DUP8 ADD PUSH2 0x1A7B JUMP JUMPDEST SWAP3 POP SWAP3 POP POP SWAP3 POP SWAP3 POP SWAP3 JUMP JUMPDEST PUSH0 DUP2 MLOAD SWAP1 POP SWAP2 SWAP1 POP JUMP JUMPDEST PUSH0 DUP3 DUP3 MSTORE PUSH1 0x20 DUP3 ADD SWAP1 POP SWAP3 SWAP2 POP POP JUMP JUMPDEST PUSH0 DUP2 SWAP1 POP PUSH1 0x20 DUP3 ADD SWAP1 POP SWAP2 SWAP1 POP JUMP JUMPDEST PUSH2 0x1B5F DUP2 PUSH2 0x1749 JUMP JUMPDEST DUP3 MSTORE POP POP JUMP JUMPDEST PUSH0 PUSH2 0x1B70 DUP4 DUP4 PUSH2 0x1B56 JUMP JUMPDEST PUSH1 0x20 DUP4 ADD SWAP1 POP SWAP3 SWAP2 POP POP JUMP JUMPDEST PUSH0 PUSH1 0x20 DUP3 ADD SWAP1 POP SWAP2 SWAP1 POP JUMP JUMPDEST PUSH0 PUSH2 0x1B92 DUP3 PUSH2 0x1B2D JUMP JUMPDEST PUSH2 0x1B9C DUP2 DUP6 PUSH2 0x1B37 JUMP JUMPDEST SWAP4 POP PUSH2 0x1BA7 DUP4 PUSH2 0x1B47 JUMP JUMPDEST DUP1 PUSH0 JUMPDEST DUP4 DUP2 LT ISZERO PUSH2 0x1BD7 JUMPI DUP2 MLOAD PUSH2 0x1BBE DUP9 DUP3 PUSH2 0x1B65 JUMP JUMPDEST SWAP8 POP PUSH2 0x1BC9 DUP4 PUSH2 0x1B7C JUMP JUMPDEST SWAP3 POP POP PUSH1 0x1 DUP2 ADD SWAP1 POP PUSH2 0x1BAA JUMP JUMPDEST POP DUP6 SWAP4 POP POP POP POP SWAP3 SWAP2 POP POP JUMP JUMPDEST PUSH0 PUSH1 0x20 DUP3 ADD SWAP1 POP DUP2 DUP2 SUB PUSH0 DUP4 ADD MSTORE PUSH2 0x1BFC DUP2 DUP5 PUSH2 0x1B88 JUMP JUMPDEST SWAP1 POP SWAP3 SWAP2 POP POP JUMP JUMPDEST PUSH1 0x4 DUP2 LT PUSH2 0x1C10 JUMPI PUSH0 PUSH0 REVERT JUMPDEST POP JUMP JUMPDEST PUSH0 DUP2 CALLDATALOAD SWAP1 POP PUSH2 0x1C21 DUP2 PUSH2 0x1C04 JUMP JUMPDEST SWAP3 SWAP2 POP POP JUMP JUMPDEST PUSH0 PUSH0 PUSH0 PUSH1 0x40 DUP5 DUP7 SUB SLT ISZERO PUSH2 0x1C3E JUMPI PUSH2 0x1C3D PUSH2 0x1391 JUMP JUMPDEST JUMPDEST PUSH0 DUP5 ADD CALLDATALOAD PUSH8 0xFFFFFFFFFFFFFFFF DUP2 GT ISZERO PUSH2 0x1C5B JUMPI PUSH2 0x1C5A PUSH2 0x1395 JUMP JUMPDEST JUMPDEST PUSH2 0x1C67 DUP7 DUP3 DUP8 ADD PUSH2 0x19B0 JUMP JUMPDEST SWAP4 POP SWAP4 POP POP PUSH1 0x20 PUSH2 0x1C7A DUP7 DUP3 DUP8 ADD PUSH2 0x1C13 JUMP JUMPDEST SWAP2 POP POP SWAP3 POP SWAP3 POP SWAP3 JUMP JUMPDEST PUSH32 0x4E487B7100000000000000000000000000000000000000000000000000000000 PUSH0 MSTORE PUSH1 0x32 PUSH1 0x4 MSTORE PUSH1 0x24 PUSH0 REVERT JUMPDEST PUSH32 0x4E487B7100000000000000000000000000000000000000000000000000000000 PUSH0 MSTORE PUSH1 0x11 PUSH1 0x4 MSTORE PUSH1 0x24 PUSH0 REVERT JUMPDEST PUSH0 PUSH2 0x1CE8 DUP3 PUSH2 0x1410 JUMP JUMPDEST SWAP2 POP PUSH32 0xFFFFFFFFFFFFFFFFFFFFFFFFFFFFFFFFFFFFFFFFFFFFFFFFFFFFFFFFFFFFFFFF DUP3 SUB PUSH2 0x1D1A JUMPI PUSH2 0x1D19 PUSH2 0x1CB1 JUMP JUMPDEST JUMPDEST PUSH1 0x1 DUP3 ADD SWAP1 POP SWAP2 SWAP1 POP JUMP JUMPDEST PUSH32 0x4E487B7100000000000000000000000000000000000000000000000000000000 PUSH0 MSTORE PUSH1 0x41 PUSH1 0x4 MSTORE PUSH1 0x24 PUSH0 REVERT JUMPDEST PUSH32 0x69647820696E76616C69646F0000000000000000000000000000000000000000 PUSH0 DUP3 ADD MSTORE POP JUMP JUMPDEST PUSH0 PUSH2 0x1D86 PUSH1 0xC DUP4 PUSH2 0x160B JUMP JUMPDEST SWAP2 POP PUSH2 0x1D91 DUP3 PUSH2 0x1D52 JUMP JUMPDEST PUSH1 0x20 DUP3 ADD SWAP1 POP SWAP2 SWAP1 POP JUMP JUMPDEST PUSH0 PUSH1 0x20 DUP3 ADD SWAP1 POP DUP2 DUP2 SUB PUSH0 DUP4 ADD MSTORE PUSH2 0x1DB3 DUP2 PUSH2 0x1D7A JUMP JUMPDEST SWAP1 POP SWAP2 SWAP1 POP JUMP JUMPDEST PUSH0 PUSH1 0x20 DUP3 ADD SWAP1 POP PUSH2 0x1DCD PUSH0 DUP4 ADD DUP5 PUSH2 0x171B JUMP JUMPDEST SWAP3 SWAP2 POP POP JUMP JUMPDEST PUSH32 0x73696E2074617265617300000000000000000000000000000000000000000000 PUSH0 DUP3 ADD MSTORE POP JUMP JUMPDEST PUSH0 PUSH2 0x1E07 PUSH1 0xA DUP4 PUSH2 0x160B JUMP JUMPDEST SWAP2 POP PUSH2 0x1E12 DUP3 PUSH2 0x1DD3 JUMP JUMPDEST PUSH1 0x20 DUP3 ADD SWAP1 POP SWAP2 SWAP1 POP JUMP JUMPDEST PUSH0 PUSH1 0x20 DUP3 ADD SWAP1 POP DUP2 DUP2 SUB PUSH0 DUP4 ADD MSTORE PUSH2 0x1E34 DUP2 PUSH2 0x1DFB JUMP JUMPDEST SWAP1 POP SWAP2 SWAP1 POP JUMP JUMPDEST PUSH32 0x4E487B7100000000000000000000000000000000000000000000000000000000 PUSH0 MSTORE PUSH1 0x31 PUSH1 0x4 MSTORE PUSH1 0x24 PUSH0 REVERT JUMPDEST PUSH32 0x4E487B7100000000000000000000000000000000000000000000000000000000 PUSH0 MSTORE PUSH1 0x22 PUSH1 0x4 MSTORE PUSH1 0x24 PUSH0 REVERT JUMPDEST PUSH0 PUSH1 0x2 DUP3 DIV SWAP1 POP PUSH1 0x1 DUP3 AND DUP1 PUSH2 0x1EAC JUMPI PUSH1 0x7F DUP3 AND SWAP2 POP JUMPDEST PUSH1 0x20 DUP3 LT DUP2 SUB PUSH2 0x1EBF JUMPI PUSH2 0x1EBE PUSH2 0x1E68 JUMP JUMPDEST JUMPDEST POP SWAP2 SWAP1 POP JUMP JUMPDEST PUSH0 DUP3 SWAP1 POP SWAP3 SWAP2 POP POP JUMP JUMPDEST PUSH0 DUP2 SWAP1 POP DUP2 PUSH0 MSTORE PUSH1 0x20 PUSH0 KECCAK256 SWAP1 POP SWAP2 SWAP1 POP JUMP JUMPDEST PUSH0 PUSH1 0x20 PUSH1 0x1F DUP4 ADD DIV SWAP1 POP SWAP2 SWAP1 POP JUMP JUMPDEST PUSH0 DUP3 DUP3 SHL SWAP1 POP SWAP3 SWAP2 POP POP JUMP JUMPDEST PUSH0 PUSH1 0x8 DUP4 MUL PUSH2 0x1F2B PUSH32 0xFFFFFFFFFFFFFFFFFFFFFFFFFFFFFFFFFFFFFFFFFFFFFFFFFFFFFFFFFFFFFFFF DUP3 PUSH2 0x1EF0 JUMP JUMPDEST PUSH2 0x1F35 DUP7 DUP4 PUSH2 0x1EF0 JUMP JUMPDEST SWAP6 POP DUP1 NOT DUP5 AND SWAP4 POP DUP1 DUP7 AND DUP5 OR SWAP3 POP POP POP SWAP4 SWAP3 POP POP POP JUMP JUMPDEST PUSH0 DUP2 SWAP1 POP SWAP2 SWAP1 POP JUMP JUMPDEST PUSH0 PUSH2 0x1F70 PUSH2 0x1F6B PUSH2 0x1F66 DUP5 PUSH2 0x1410 JUMP JUMPDEST PUSH2 0x1F4D JUMP JUMPDEST PUSH2 0x1410 JUMP JUMPDEST SWAP1 POP SWAP2 SWAP1 POP JUMP JUMPDEST PUSH0 DUP2 SWAP1 POP SWAP2 SWAP1 POP JUMP JUMPDEST PUSH2 0x1F89 DUP4 PUSH2 0x1F56 JUMP JUMPDEST PUSH2 0x1F9D PUSH2 0x1F95 DUP3 PUSH2 0x1F77 JUMP JUMPDEST DUP5 DUP5 SLOAD PUSH2 0x1EFC JUMP JUMPDEST DUP3 SSTORE POP POP POP POP JUMP JUMPDEST PUSH0 PUSH0 SWAP1 POP SWAP1 JUMP JUMPDEST PUSH2 0x1FB4 PUSH2 0x1FA5 JUMP JUMPDEST PUSH2 0x1FBF DUP2 DUP5 DUP5 PUSH2 0x1F80 JUMP JUMPDEST POP POP POP JUMP JUMPDEST JUMPDEST DUP2 DUP2 LT ISZERO PUSH2 0x1FE2 JUMPI PUSH2 0x1FD7 PUSH0 DUP3 PUSH2 0x1FAC JUMP JUMPDEST PUSH1 0x1 DUP2 ADD SWAP1 POP PUSH2 0x1FC5 JUMP JUMPDEST POP POP JUMP JUMPDEST PUSH1 0x1F DUP3 GT ISZERO PUSH2 0x2027 JUMPI PUSH2 0x1FF8 DUP2 PUSH2 0x1ECF JUMP JUMPDEST PUSH2 0x2001 DUP5 PUSH2 0x1EE1 JUMP JUMPDEST DUP2 ADD PUSH1 0x20 DUP6 LT ISZERO PUSH2 0x2010 JUMPI DUP2 SWAP1 POP JUMPDEST PUSH2 0x2024 PUSH2 0x201C DUP6 PUSH2 0x1EE1 JUMP JUMPDEST DUP4 ADD DUP3 PUSH2 0x1FC4 JUMP JUMPDEST POP POP JUMPDEST POP POP POP JUMP JUMPDEST PUSH0 DUP3 DUP3 SHR SWAP1 POP SWAP3 SWAP2 POP POP JUMP JUMPDEST PUSH0 PUSH2 0x2047 PUSH0 NOT DUP5 PUSH1 0x8 MUL PUSH2 0x202C JUMP JUMPDEST NOT DUP1 DUP4 AND SWAP2 POP POP SWAP3 SWAP2 POP POP JUMP JUMPDEST PUSH0 PUSH2 0x205F DUP4 DUP4 PUSH2 0x2038 JUMP JUMPDEST SWAP2 POP DUP3 PUSH1 0x2 MUL DUP3 OR SWAP1 POP SWAP3 SWAP2 POP POP JUMP JUMPDEST PUSH2 0x2079 DUP4 DUP4 PUSH2 0x1EC5 JUMP JUMPDEST PUSH8 0xFFFFFFFFFFFFFFFF DUP2 GT ISZERO PUSH2 0x2092 JUMPI PUSH2 0x2091 PUSH2 0x1D25 JUMP JUMPDEST JUMPDEST PUSH2 0x209C DUP3 SLOAD PUSH2 0x1E95 JUMP JUMPDEST PUSH2 0x20A7 DUP3 DUP3 DUP6 PUSH2 0x1FE6 JUMP JUMPDEST PUSH0 PUSH1 0x1F DUP4 GT PUSH1 0x1 DUP2 EQ PUSH2 0x20D4 JUMPI PUSH0 DUP5 ISZERO PUSH2 0x20C2 JUMPI DUP3 DUP8 ADD CALLDATALOAD SWAP1 POP JUMPDEST PUSH2 0x20CC DUP6 DUP3 PUSH2 0x2054 JUMP JUMPDEST DUP7 SSTORE POP PUSH2 0x2133 JUMP JUMPDEST PUSH1 0x1F NOT DUP5 AND PUSH2 0x20E2 DUP7 PUSH2 0x1ECF JUMP JUMPDEST PUSH0 JUMPDEST DUP3 DUP2 LT ISZERO PUSH2 0x2109 JUMPI DUP5 DUP10 ADD CALLDATALOAD DUP3 SSTORE PUSH1 0x1 DUP3 ADD SWAP2 POP PUSH1 0x20 DUP6 ADD SWAP5 POP PUSH1 0x20 DUP2 ADD SWAP1 POP PUSH2 0x20E4 JUMP JUMPDEST DUP7 DUP4 LT ISZERO PUSH2 0x2126 JUMPI DUP5 DUP10 ADD CALLDATALOAD PUSH2 0x2122 PUSH1 0x1F DUP10 AND DUP3 PUSH2 0x2038 JUMP JUMPDEST DUP4 SSTORE POP JUMPDEST PUSH1 0x1 PUSH1 0x2 DUP9 MUL ADD DUP9 SSTORE POP POP POP JUMPDEST POP POP POP POP POP POP POP JUMP JUMPDEST DUP3 DUP2 DUP4 CALLDATACOPY PUSH0 DUP4 DUP4 ADD MSTORE POP POP POP JUMP JUMPDEST PUSH0 PUSH2 0x2155 DUP4 DUP6 PUSH2 0x160B JUMP JUMPDEST SWAP4 POP PUSH2 0x2162 DUP4 DUP6 DUP5 PUSH2 0x213C JUMP JUMPDEST PUSH2 0x216B DUP4 PUSH2 0x1629 JUMP JUMPDEST DUP5 ADD SWAP1 POP SWAP4 SWAP3 POP POP POP JUMP JUMPDEST PUSH0 PUSH1 0x20 DUP3 ADD SWAP1 POP DUP2 DUP2 SUB PUSH0 DUP4 ADD MSTORE PUSH2 0x218F DUP2 DUP5 DUP7 PUSH2 0x214A JUMP JUMPDEST SWAP1 POP SWAP4 SWAP3 POP POP POP JUMP JUMPDEST PUSH2 0x21A1 DUP3 PUSH2 0x1601 JUMP JUMPDEST PUSH8 0xFFFFFFFFFFFFFFFF DUP2 GT ISZERO PUSH2 0x21BA JUMPI PUSH2 0x21B9 PUSH2 0x1D25 JUMP JUMPDEST JUMPDEST PUSH2 0x21C4 DUP3 SLOAD PUSH2 0x1E95 JUMP JUMPDEST PUSH2 0x21CF DUP3 DUP3 DUP6 PUSH2 0x1FE6 JUMP JUMPDEST PUSH0 PUSH1 0x20 SWAP1 POP PUSH1 0x1F DUP4 GT PUSH1 0x1 DUP2 EQ PUSH2 0x2200 JUMPI PUSH0 DUP5 ISZERO PUSH2 0x21EE JUMPI DUP3 DUP8 ADD MLOAD SWAP1 POP JUMPDEST PUSH2 0x21F8 DUP6 DUP3 PUSH2 0x2054 JUMP JUMPDEST DUP7 SSTORE POP PUSH2 0x225F JUMP JUMPDEST PUSH1 0x1F NOT DUP5 AND PUSH2 0x220E DUP7 PUSH2 0x1ECF JUMP JUMPDEST PUSH0 JUMPDEST DUP3 DUP2 LT ISZERO PUSH2 0x2235 JUMPI DUP5 DUP10 ADD MLOAD DUP3 SSTORE PUSH1 0x1 DUP3 ADD SWAP2 POP PUSH1 0x20 DUP6 ADD SWAP5 POP PUSH1 0x20 DUP2 ADD SWAP1 POP PUSH2 0x2210 JUMP JUMPDEST DUP7 DUP4 LT ISZERO PUSH2 0x2252 JUMPI DUP5 DUP10 ADD MLOAD PUSH2 0x224E PUSH1 0x1F DUP10 AND DUP3 PUSH2 0x2038 JUMP JUMPDEST DUP4 SSTORE POP JUMPDEST PUSH1 0x1 PUSH1 0x2 DUP9 MUL ADD DUP9 SSTORE POP POP POP JUMPDEST POP POP POP POP POP POP JUMP JUMPDEST PUSH0 PUSH2 0x2271 DUP3 PUSH2 0x1410 JUMP JUMPDEST SWAP2 POP PUSH2 0x227C DUP4 PUSH2 0x1410 JUMP JUMPDEST SWAP3 POP DUP3 DUP3 SUB SWAP1 POP DUP2 DUP2 GT ISZERO PUSH2 0x2294 JUMPI PUSH2 0x2293 PUSH2 0x1CB1 JUMP JUMPDEST JUMPDEST SWAP3 SWAP2 POP POP JUMP JUMPDEST PUSH0 PUSH1 0x60 DUP3 ADD SWAP1 POP PUSH2 0x22AD PUSH0 DUP4 ADD DUP8 PUSH2 0x15F2 JUMP JUMPDEST DUP2 DUP2 SUB PUSH1 0x20 DUP4 ADD MSTORE PUSH2 0x22C0 DUP2 DUP6 DUP8 PUSH2 0x214A JUMP JUMPDEST SWAP1 POP PUSH2 0x22CF PUSH1 0x40 DUP4 ADD DUP5 PUSH2 0x16D5 JUMP JUMPDEST SWAP6 SWAP5 POP POP POP POP POP JUMP INVALID LOG2 PUSH5 0x6970667358 0x22 SLT KECCAK256 SELFDESTRUCT 0x1F PREVRANDAO DUP9 BLOBHASH 0xAF TIMESTAMP SWAP3 0xAC PUSH19 0xE2976CA25CBD8C3BFF84FF371E502311EB5B80 PUSH24 0xE94A64736F6C634300081E00330000000000000000000000 "
				},
				"gasEstimates": {
					"creation": {
						"codeDepositCost": "1794800",
						"executionCost": "23995",
						"totalCost": "1818795"
					},
					"external": {
						"agregarEtiqueta(uint256,string)": "infinite",
						"asignarResponsables(uint256,address[])": "infinite",
						"borrar(uint256)": "infinite",
						"cambiarEstado(uint256,uint8)": "30896",
						"crearTarea(string,uint8)": "infinite",
						"eliminarUltima()": "infinite",
						"etiquetasDe(uint256)": "infinite",
						"getTop3()": "infinite",
						"listarIdsPorEstado(uint8)": "infinite",
						"responsablesDe(uint256)": "infinite",
						"setTop3(uint256[3])": "infinite",
						"tareas(uint256)": "infinite",
						"top3(uint256)": "infinite",
						"totalTareas()": "2506",
						"verTarea(uint256)": "infinite"
					}
				},
				"methodIdentifiers": {
					"agregarEtiqueta(uint256,string)": "792ce98f",
					"asignarResponsables(uint256,address[])": "aff66e21",
					"borrar(uint256)": "ebf90187",
					"cambiarEstado(uint256,uint8)": "352cba35",
					"crearTarea(string,uint8)": "da7acaf6",
					"eliminarUltima()": "46a8ec51",
					"etiquetasDe(uint256)": "5cc12424",
					"getTop3()": "4061a5bf",
					"listarIdsPorEstado(uint8)": "2b44869b",
					"responsablesDe(uint256)": "d65c4d25",
					"setTop3(uint256[3])": "53439cac",
					"tareas(uint256)": "52154ba9",
					"top3(uint256)": "c9bf5b15",
					"totalTareas()": "9eb2a09e",
					"verTarea(uint256)": "68015829"
				}
			},
			"storageLayout": {
				"storage": [
					{
						"astId": 35,
						"contract": "contracts/GestorDeTareas.sol:GestorDeTareas",
						"label": "tareas",
						"offset": 0,
						"slot": "0",
						"type": "t_array(t_struct(Tarea)31_storage)dyn_storage"
					},
					{
						"astId": 39,
						"contract": "contracts/GestorDeTareas.sol:GestorDeTareas",
						"label": "top3",
						"offset": 0,
						"slot": "1",
						"type": "t_array(t_uint256)3_storage"
					},
					{
						"astId": 42,
						"contract": "contracts/GestorDeTareas.sol:GestorDeTareas",
						"label": "nextId",
						"offset": 0,
						"slot": "4",
						"type": "t_uint256"
					}
				],
				"types": {
					"t_address": {
						"encoding": "inplace",
						"label": "address",
						"numberOfBytes": "20"
					},
					"t_array(t_address)dyn_storage": {
						"base": "t_address",
						"encoding": "dynamic_array",
						"label": "address[]",
						"numberOfBytes": "32"
					},
					"t_array(t_string_storage)dyn_storage": {
						"base": "t_string_storage",
						"encoding": "dynamic_array",
						"label": "string[]",
						"numberOfBytes": "32"
					},
					"t_array(t_struct(Tarea)31_storage)dyn_storage": {
						"base": "t_struct(Tarea)31_storage",
						"encoding": "dynamic_array",
						"label": "struct GestorDeTareas.Tarea[]",
						"numberOfBytes": "32"
					},
					"t_array(t_uint256)3_storage": {
						"base": "t_uint256",
						"encoding": "inplace",
						"label": "uint256[3]",
						"numberOfBytes": "96"
					},
					"t_enum(Estado)7": {
						"encoding": "inplace",
						"label": "enum GestorDeTareas.Estado",
						"numberOfBytes": "1"
					},
					"t_enum(Prioridad)12": {
						"encoding": "inplace",
						"label": "enum GestorDeTareas.Prioridad",
						"numberOfBytes": "1"
					},
					"t_string_storage": {
						"encoding": "bytes",
						"label": "string",
						"numberOfBytes": "32"
					},
					"t_struct(Tarea)31_storage": {
						"encoding": "inplace",
						"label": "struct GestorDeTareas.Tarea",
						"members": [
							{
								"astId": 14,
								"contract": "contracts/GestorDeTareas.sol:GestorDeTareas",
								"label": "id",
								"offset": 0,
								"slot": "0",
								"type": "t_uint256"
							},
							{
								"astId": 16,
								"contract": "contracts/GestorDeTareas.sol:GestorDeTareas",
								"label": "titulo",
								"offset": 0,
								"slot": "1",
								"type": "t_string_storage"
							},
							{
								"astId": 19,
								"contract": "contracts/GestorDeTareas.sol:GestorDeTareas",
								"label": "prioridad",
								"offset": 0,
								"slot": "2",
								"type": "t_enum(Prioridad)12"
							},
							{
								"astId": 22,
								"contract": "contracts/GestorDeTareas.sol:GestorDeTareas",
								"label": "estado",
								"offset": 1,
								"slot": "2",
								"type": "t_enum(Estado)7"
							},
							{
								"astId": 24,
								"contract": "contracts/GestorDeTareas.sol:GestorDeTareas",
								"label": "creador",
								"offset": 2,
								"slot": "2",
								"type": "t_address"
							},
							{
								"astId": 27,
								"contract": "contracts/GestorDeTareas.sol:GestorDeTareas",
								"label": "responsables",
								"offset": 0,
								"slot": "3",
								"type": "t_array(t_address)dyn_storage"
							},
							{
								"astId": 30,
								"contract": "contracts/GestorDeTareas.sol:GestorDeTareas",
								"label": "etiquetas",
								"offset": 0,
								"slot": "4",
								"type": "t_array(t_string_storage)dyn_storage"
							}
						],
						"numberOfBytes": "160"
					},
					"t_uint256": {
						"encoding": "inplace",
						"label": "uint256",
						"numberOfBytes": "32"
					}
				}
			},
			"userdoc": {
				"kind": "user",
				"methods": {},
				"version": 1
			}
		}
	}
}