{
	"contracts/IncaKolaNFT.sol": {
		"AgroToken": {
			"abi": [
				{
					"inputs": [
						{
							"internalType": "uint256",
							"name": "initialSupply",
							"type": "uint256"
						},
						{
							"internalType": "uint256",
							"name": "_cap",
							"type": "uint256"
						}
					],
					"stateMutability": "nonpayable",
					"type": "constructor"
				},
				{
					"anonymous": false,
					"inputs": [
						{
							"indexed": true,
							"internalType": "address",
							"name": "owner",
							"type": "address"
						},
						{
							"indexed": true,
							"internalType": "address",
							"name": "spender",
							"type": "address"
						},
						{
							"indexed": false,
							"internalType": "uint256",
							"name": "value",
							"type": "uint256"
						}
					],
					"name": "Approval",
					"type": "event"
				},
				{
					"anonymous": false,
					"inputs": [
						{
							"indexed": true,
							"internalType": "address",
							"name": "to",
							"type": "address"
						},
						{
							"indexed": false,
							"internalType": "uint256",
							"name": "amount",
							"type": "uint256"
						}
					],
					"name": "Minted",
					"type": "event"
				},
				{
					"anonymous": false,
					"inputs": [
						{
							"indexed": true,
							"internalType": "address",
							"name": "previousOwner",
							"type": "address"
						},
						{
							"indexed": true,
							"internalType": "address",
							"name": "newOwner",
							"type": "address"
						}
					],
					"name": "OwnershipTransferred",
					"type": "event"
				},
				{
					"anonymous": false,
					"inputs": [
						{
							"indexed": false,
							"internalType": "address",
							"name": "account",
							"type": "address"
						}
					],
					"name": "Paused",
					"type": "event"
				},
				{
					"anonymous": false,
					"inputs": [
						{
							"indexed": true,
							"internalType": "address",
							"name": "from",
							"type": "address"
						},
						{
							"indexed": true,
							"internalType": "address",
							"name": "to",
							"type": "address"
						},
						{
							"indexed": false,
							"internalType": "uint256",
							"name": "value",
							"type": "uint256"
						}
					],
					"name": "Transfer",
					"type": "event"
				},
				{
					"anonymous": false,
					"inputs": [
						{
							"indexed": false,
							"internalType": "address",
							"name": "account",
							"type": "address"
						}
					],
					"name": "Unpaused",
					"type": "event"
				},
				{
					"inputs": [
						{
							"internalType": "address",
							"name": "owner",
							"type": "address"
						},
						{
							"internalType": "address",
							"name": "spender",
							"type": "address"
						}
					],
					"name": "allowance",
					"outputs": [
						{
							"internalType": "uint256",
							"name": "",
							"type": "uint256"
						}
					],
					"stateMutability": "view",
					"type": "function"
				},
				{
					"inputs": [
						{
							"internalType": "address",
							"name": "spender",
							"type": "address"
						},
						{
							"internalType": "uint256",
							"name": "amount",
							"type": "uint256"
						}
					],
					"name": "approve",
					"outputs": [
						{
							"internalType": "bool",
							"name": "",
							"type": "bool"
						}
					],
					"stateMutability": "nonpayable",
					"type": "function"
				},
				{
					"inputs": [
						{
							"internalType": "address",
							"name": "account",
							"type": "address"
						}
					],
					"name": "balanceOf",
					"outputs": [
						{
							"internalType": "uint256",
							"name": "",
							"type": "uint256"
						}
					],
					"stateMutability": "view",
					"type": "function"
				},
				{
					"inputs": [
						{
							"internalType": "uint256",
							"name": "amount",
							"type": "uint256"
						}
					],
					"name": "burn",
					"outputs": [],
					"stateMutability": "nonpayable",
					"type": "function"
				},
				{
					"inputs": [
						{
							"internalType": "address",
							"name": "account",
							"type": "address"
						},
						{
							"internalType": "uint256",
							"name": "amount",
							"type": "uint256"
						}
					],
					"name": "burnFrom",
					"outputs": [],
					"stateMutability": "nonpayable",
					"type": "function"
				},
				{
					"inputs": [],
					"name": "cap",
					"outputs": [
						{
							"internalType": "uint256",
							"name": "",
							"type": "uint256"
						}
					],
					"stateMutability": "view",
					"type": "function"
				},
				{
					"inputs": [],
					"name": "decimals",
					"outputs": [
						{
							"internalType": "uint8",
							"name": "",
							"type": "uint8"
						}
					],
					"stateMutability": "view",
					"type": "function"
				},
				{
					"inputs": [
						{
							"internalType": "address",
							"name": "spender",
							"type": "address"
						},
						{
							"internalType": "uint256",
							"name": "subtractedValue",
							"type": "uint256"
						}
					],
					"name": "decreaseAllowance",
					"outputs": [
						{
							"internalType": "bool",
							"name": "",
							"type": "bool"
						}
					],
					"stateMutability": "nonpayable",
					"type": "function"
				},
				{
					"inputs": [
						{
							"internalType": "address",
							"name": "spender",
							"type": "address"
						},
						{
							"internalType": "uint256",
							"name": "addedValue",
							"type": "uint256"
						}
					],
					"name": "increaseAllowance",
					"outputs": [
						{
							"internalType": "bool",
							"name": "",
							"type": "bool"
						}
					],
					"stateMutability": "nonpayable",
					"type": "function"
				},
				{
					"inputs": [
						{
							"internalType": "address",
							"name": "to",
							"type": "address"
						},
						{
							"internalType": "uint256",
							"name": "amount",
							"type": "uint256"
						}
					],
					"name": "mint",
					"outputs": [],
					"stateMutability": "nonpayable",
					"type": "function"
				},
				{
					"inputs": [],
					"name": "name",
					"outputs": [
						{
							"internalType": "string",
							"name": "",
							"type": "string"
						}
					],
					"stateMutability": "view",
					"type": "function"
				},
				{
					"inputs": [],
					"name": "owner",
					"outputs": [
						{
							"internalType": "address",
							"name": "",
							"type": "address"
						}
					],
					"stateMutability": "view",
					"type": "function"
				},
				{
					"inputs": [],
					"name": "pause",
					"outputs": [],
					"stateMutability": "nonpayable",
					"type": "function"
				},
				{
					"inputs": [],
					"name": "paused",
					"outputs": [
						{
							"internalType": "bool",
							"name": "",
							"type": "bool"
						}
					],
					"stateMutability": "view",
					"type": "function"
				},
				{
					"inputs": [],
					"name": "renounceOwnership",
					"outputs": [],
					"stateMutability": "nonpayable",
					"type": "function"
				},
				{
					"inputs": [],
					"name": "symbol",
					"outputs": [
						{
							"internalType": "string",
							"name": "",
							"type": "string"
						}
					],
					"stateMutability": "view",
					"type": "function"
				},
				{
					"inputs": [],
					"name": "totalSupply",
					"outputs": [
						{
							"internalType": "uint256",
							"name": "",
							"type": "uint256"
						}
					],
					"stateMutability": "view",
					"type": "function"
				},
				{
					"inputs": [
						{
							"internalType": "address",
							"name": "to",
							"type": "address"
						},
						{
							"internalType": "uint256",
							"name": "amount",
							"type": "uint256"
						}
					],
					"name": "transfer",
					"outputs": [
						{
							"internalType": "bool",
							"name": "",
							"type": "bool"
						}
					],
					"stateMutability": "nonpayable",
					"type": "function"
				},
				{
					"inputs": [
						{
							"internalType": "address",
							"name": "from",
							"type": "address"
						},
						{
							"internalType": "address",
							"name": "to",
							"type": "address"
						},
						{
							"internalType": "uint256",
							"name": "amount",
							"type": "uint256"
						}
					],
					"name": "transferFrom",
					"outputs": [
						{
							"internalType": "bool",
							"name": "",
							"type": "bool"
						}
					],
					"stateMutability": "nonpayable",
					"type": "function"
				},
				{
					"inputs": [
						{
							"internalType": "address",
							"name": "newOwner",
							"type": "address"
						}
					],
					"name": "transferOwnership",
					"outputs": [],
					"stateMutability": "nonpayable",
					"type": "function"
				},
				{
					"inputs": [],
					"name": "unpause",
					"outputs": [],
					"stateMutability": "nonpayable",
					"type": "function"
				}
			],
			"devdoc": {
				"details": "Token ERC20 dise침ado para un marketplace agr칤cola. - Cumple con el est치ndar ERC20. - Solo el due침o (owner) puede emitir (mint) nuevos tokens. - Los tokens pueden ser quemados (burn). - El contrato puede ser pausado para bloquear transacciones.  Compatible y listo para usar en Remix.",
				"events": {
					"Approval(address,address,uint256)": {
						"details": "Emitted when the allowance of a `spender` for an `owner` is set by a call to {approve}. `value` is the new allowance."
					},
					"Paused(address)": {
						"details": "Emitted when the pause is triggered by `account`."
					},
					"Transfer(address,address,uint256)": {
						"details": "Emitted when `value` tokens are moved from one account (`from`) to another (`to`). Note that `value` may be zero."
					},
					"Unpaused(address)": {
						"details": "Emitted when the pause is lifted by `account`."
					}
				},
				"kind": "dev",
				"methods": {
					"allowance(address,address)": {
						"details": "See {IERC20-allowance}."
					},
					"approve(address,uint256)": {
						"details": "See {IERC20-approve}. NOTE: If `amount` is the maximum `uint256`, the allowance is not updated on `transferFrom`. This is semantically equivalent to an infinite approval. Requirements: - `spender` cannot be the zero address."
					},
					"balanceOf(address)": {
						"details": "See {IERC20-balanceOf}."
					},
					"burn(uint256)": {
						"details": "Destroys `amount` tokens from the caller. See {ERC20-_burn}."
					},
					"burnFrom(address,uint256)": {
						"details": "Destroys `amount` tokens from `account`, deducting from the caller's allowance. See {ERC20-_burn} and {ERC20-allowance}. Requirements: - the caller must have allowance for ``accounts``'s tokens of at least `amount`."
					},
					"constructor": {
						"params": {
							"_cap": "L칤mite m치ximo total de emisi칩n (usar 18 decimales)",
							"initialSupply": "Cantidad inicial de tokens emitidos al creador (usar 18 decimales)"
						}
					},
					"decimals()": {
						"details": "Returns the number of decimals used to get its user representation. For example, if `decimals` equals `2`, a balance of `505` tokens should be displayed to a user as `5.05` (`505 / 10 ** 2`). Tokens usually opt for a value of 18, imitating the relationship between Ether and Wei. This is the default value returned by this function, unless it's overridden. NOTE: This information is only used for _display_ purposes: it in no way affects any of the arithmetic of the contract, including {IERC20-balanceOf} and {IERC20-transfer}."
					},
					"decreaseAllowance(address,uint256)": {
						"details": "Atomically decreases the allowance granted to `spender` by the caller. This is an alternative to {approve} that can be used as a mitigation for problems described in {IERC20-approve}. Emits an {Approval} event indicating the updated allowance. Requirements: - `spender` cannot be the zero address. - `spender` must have allowance for the caller of at least `subtractedValue`."
					},
					"increaseAllowance(address,uint256)": {
						"details": "Atomically increases the allowance granted to `spender` by the caller. This is an alternative to {approve} that can be used as a mitigation for problems described in {IERC20-approve}. Emits an {Approval} event indicating the updated allowance. Requirements: - `spender` cannot be the zero address."
					},
					"mint(address,uint256)": {
						"params": {
							"amount": "Cantidad de tokens a emitir (usar 18 decimales). Valida que la nueva emisi칩n no supere el tope total (cap).",
							"to": "Direcci칩n que recibir치 los tokens."
						}
					},
					"name()": {
						"details": "Returns the name of the token."
					},
					"owner()": {
						"details": "Returns the address of the current owner."
					},
					"paused()": {
						"details": "Returns true if the contract is paused, and false otherwise."
					},
					"renounceOwnership()": {
						"details": "Leaves the contract without owner. It will not be possible to call `onlyOwner` functions. Can only be called by the current owner. NOTE: Renouncing ownership will leave the contract without an owner, thereby disabling any functionality that is only available to the owner."
					},
					"symbol()": {
						"details": "Returns the symbol of the token, usually a shorter version of the name."
					},
					"totalSupply()": {
						"details": "See {IERC20-totalSupply}."
					},
					"transfer(address,uint256)": {
						"details": "See {IERC20-transfer}. Requirements: - `to` cannot be the zero address. - the caller must have a balance of at least `amount`."
					},
					"transferFrom(address,address,uint256)": {
						"details": "See {IERC20-transferFrom}. Emits an {Approval} event indicating the updated allowance. This is not required by the EIP. See the note at the beginning of {ERC20}. NOTE: Does not update the allowance if the current allowance is the maximum `uint256`. Requirements: - `from` and `to` cannot be the zero address. - `from` must have a balance of at least `amount`. - the caller must have allowance for ``from``'s tokens of at least `amount`."
					},
					"transferOwnership(address)": {
						"details": "Transfers ownership of the contract to a new account (`newOwner`). Can only be called by the current owner."
					}
				},
				"title": "AgroToken (AGRO)",
				"version": 1
			},
			"evm": {
				"assembly": "    /* \"contracts/IncaKolaNFT.sol\":1417:4398  contract AgroToken is ERC20, ERC20Burnable, Ownable, Pausable {... */\n  mstore(0x40, 0xa0)\n    /* \"contracts/IncaKolaNFT.sol\":2006:2658  constructor(uint256 initialSupply, uint256 _cap) ERC20(\"AgroMarket Token\", \"AGRO\") {... */\n  callvalue\n  dup1\n  iszero\n  tag_1\n  jumpi\n  revert(0x00, 0x00)\ntag_1:\n  pop\n  mload(0x40)\n  sub(codesize, bytecodeSize)\n  dup1\n  bytecodeSize\n  dup4\n  codecopy\n  dup2\n  dup2\n  add\n  0x40\n  mstore\n  dup2\n  add\n  swap1\n  tag_2\n  swap2\n  swap1\n  tag_3\n  jump\t// in\ntag_2:\n    /* \"https://raw.githubusercontent.com/OpenZeppelin/openzeppelin-contracts/v4.9.0/contracts/token/ERC20/ERC20.sol\":1980:2093  constructor(string memory name_, string memory symbol_) {... */\n  mload(0x40)\n  dup1\n  0x40\n  add\n  0x40\n  mstore\n  dup1\n  0x10\n  dup2\n  mstore\n  0x20\n  add\n  0x4167726f4d61726b657420546f6b656e00000000000000000000000000000000\n  dup2\n  mstore\n  pop\n  mload(0x40)\n  dup1\n  0x40\n  add\n  0x40\n  mstore\n  dup1\n  0x04\n  dup2\n  mstore\n  0x20\n  add\n  0x4147524f00000000000000000000000000000000000000000000000000000000\n  dup2\n  mstore\n  pop\n    /* \"https://raw.githubusercontent.com/OpenZeppelin/openzeppelin-contracts/v4.9.0/contracts/token/ERC20/ERC20.sol\":2054:2059  name_ */\n  dup2\n    /* \"https://raw.githubusercontent.com/OpenZeppelin/openzeppelin-contracts/v4.9.0/contracts/token/ERC20/ERC20.sol\":2046:2051  _name */\n  0x03\n    /* \"https://raw.githubusercontent.com/OpenZeppelin/openzeppelin-contracts/v4.9.0/contracts/token/ERC20/ERC20.sol\":2046:2059  _name = name_ */\n  swap1\n  dup2\n  tag_9\n  swap2\n  swap1\n  tag_10\n  jump\t// in\ntag_9:\n  pop\n    /* \"https://raw.githubusercontent.com/OpenZeppelin/openzeppelin-contracts/v4.9.0/contracts/token/ERC20/ERC20.sol\":2079:2086  symbol_ */\n  dup1\n    /* \"https://raw.githubusercontent.com/OpenZeppelin/openzeppelin-contracts/v4.9.0/contracts/token/ERC20/ERC20.sol\":2069:2076  _symbol */\n  0x04\n    /* \"https://raw.githubusercontent.com/OpenZeppelin/openzeppelin-contracts/v4.9.0/contracts/token/ERC20/ERC20.sol\":2069:2086  _symbol = symbol_ */\n  swap1\n  dup2\n  tag_11\n  swap2\n  swap1\n  tag_10\n  jump\t// in\ntag_11:\n  pop\n    /* \"https://raw.githubusercontent.com/OpenZeppelin/openzeppelin-contracts/v4.9.0/contracts/token/ERC20/ERC20.sol\":1980:2093  constructor(string memory name_, string memory symbol_) {... */\n  pop\n  pop\n    /* \"https://raw.githubusercontent.com/OpenZeppelin/openzeppelin-contracts/v4.9.0/contracts/access/Ownable.sol\":936:968  _transferOwnership(_msgSender()) */\n  tag_13\n    /* \"https://raw.githubusercontent.com/OpenZeppelin/openzeppelin-contracts/v4.9.0/contracts/access/Ownable.sol\":955:967  _msgSender() */\n  tag_14\n    /* \"https://raw.githubusercontent.com/OpenZeppelin/openzeppelin-contracts/v4.9.0/contracts/access/Ownable.sol\":955:965  _msgSender */\n  shl(0x20, tag_15)\n    /* \"https://raw.githubusercontent.com/OpenZeppelin/openzeppelin-contracts/v4.9.0/contracts/access/Ownable.sol\":955:967  _msgSender() */\n  0x20\n  shr\n  jump\t// in\ntag_14:\n    /* \"https://raw.githubusercontent.com/OpenZeppelin/openzeppelin-contracts/v4.9.0/contracts/access/Ownable.sol\":936:954  _transferOwnership */\n  shl(0x20, tag_16)\n    /* \"https://raw.githubusercontent.com/OpenZeppelin/openzeppelin-contracts/v4.9.0/contracts/access/Ownable.sol\":936:968  _transferOwnership(_msgSender()) */\n  0x20\n  shr\n  jump\t// in\ntag_13:\n    /* \"https://raw.githubusercontent.com/OpenZeppelin/openzeppelin-contracts/v4.9.0/contracts/security/Pausable.sol\":1006:1011  false */\n  0x00\n    /* \"https://raw.githubusercontent.com/OpenZeppelin/openzeppelin-contracts/v4.9.0/contracts/security/Pausable.sol\":996:1003  _paused */\n  0x05\n  0x14\n    /* \"https://raw.githubusercontent.com/OpenZeppelin/openzeppelin-contracts/v4.9.0/contracts/security/Pausable.sol\":996:1011  _paused = false */\n  0x0100\n  exp\n  dup2\n  sload\n  dup2\n  0xff\n  mul\n  not\n  and\n  swap1\n  dup4\n  iszero\n  iszero\n  mul\n  or\n  swap1\n  sstore\n  pop\n    /* \"contracts/IncaKolaNFT.sol\":2176:2177  0 */\n  0x00\n    /* \"contracts/IncaKolaNFT.sol\":2169:2173  _cap */\n  dup2\n    /* \"contracts/IncaKolaNFT.sol\":2169:2177  _cap > 0 */\n  gt\n    /* \"contracts/IncaKolaNFT.sol\":2161:2187  require(_cap > 0, \"cap>0\") */\n  tag_19\n  jumpi\n  mload(0x40)\n  0x08c379a000000000000000000000000000000000000000000000000000000000\n  dup2\n  mstore\n  0x04\n  add\n  tag_20\n  swap1\n  tag_21\n  jump\t// in\ntag_20:\n  mload(0x40)\n  dup1\n  swap2\n  sub\n  swap1\n  revert\ntag_19:\n    /* \"contracts/IncaKolaNFT.sol\":2204:2208  _cap */\n  dup1\n    /* \"contracts/IncaKolaNFT.sol\":2198:2208  cap = _cap */\n  0x80\n  dup2\n  dup2\n  mstore\n  pop\n  pop\n    /* \"contracts/IncaKolaNFT.sol\":2310:2311  0 */\n  0x00\n    /* \"contracts/IncaKolaNFT.sol\":2294:2307  initialSupply */\n  dup3\n    /* \"contracts/IncaKolaNFT.sol\":2294:2311  initialSupply > 0 */\n  gt\n    /* \"contracts/IncaKolaNFT.sol\":2290:2651  if (initialSupply > 0) {... */\n  iszero\n  tag_22\n  jumpi\n    /* \"contracts/IncaKolaNFT.sol\":2429:2432  cap */\n  mload(0x80)\n    /* \"contracts/IncaKolaNFT.sol\":2412:2425  initialSupply */\n  dup3\n    /* \"contracts/IncaKolaNFT.sol\":2412:2432  initialSupply <= cap */\n  gt\n  iszero\n    /* \"contracts/IncaKolaNFT.sol\":2404:2454  require(initialSupply <= cap, \"initialSupply>cap\") */\n  tag_23\n  jumpi\n  mload(0x40)\n  0x08c379a000000000000000000000000000000000000000000000000000000000\n  dup2\n  mstore\n  0x04\n  add\n  tag_24\n  swap1\n  tag_25\n  jump\t// in\ntag_24:\n  mload(0x40)\n  dup1\n  swap2\n  sub\n  swap1\n  revert\ntag_23:\n    /* \"contracts/IncaKolaNFT.sol\":2469:2501  _mint(msg.sender, initialSupply) */\n  tag_26\n    /* \"contracts/IncaKolaNFT.sol\":2475:2485  msg.sender */\n  caller\n    /* \"contracts/IncaKolaNFT.sol\":2487:2500  initialSupply */\n  dup4\n    /* \"contracts/IncaKolaNFT.sol\":2469:2474  _mint */\n  shl(0x20, tag_27)\n    /* \"contracts/IncaKolaNFT.sol\":2469:2501  _mint(msg.sender, initialSupply) */\n  0x20\n  shr\n  jump\t// in\ntag_26:\n    /* \"contracts/IncaKolaNFT.sol\":2571:2581  msg.sender */\n  caller\n    /* \"contracts/IncaKolaNFT.sol\":2564:2597  Minted(msg.sender, initialSupply) */\n  0xffffffffffffffffffffffffffffffffffffffff\n  and\n  0x30385c845b448a36257a6a1716e6ad2e1bc2cbe333cde1e69fe849ad6511adfe\n    /* \"contracts/IncaKolaNFT.sol\":2583:2596  initialSupply */\n  dup4\n    /* \"contracts/IncaKolaNFT.sol\":2564:2597  Minted(msg.sender, initialSupply) */\n  mload(0x40)\n  tag_28\n  swap2\n  swap1\n  tag_29\n  jump\t// in\ntag_28:\n  mload(0x40)\n  dup1\n  swap2\n  sub\n  swap1\n  log2\n    /* \"contracts/IncaKolaNFT.sol\":2290:2651  if (initialSupply > 0) {... */\ntag_22:\n    /* \"contracts/IncaKolaNFT.sol\":2006:2658  constructor(uint256 initialSupply, uint256 _cap) ERC20(\"AgroMarket Token\", \"AGRO\") {... */\n  pop\n  pop\n    /* \"contracts/IncaKolaNFT.sol\":1417:4398  contract AgroToken is ERC20, ERC20Burnable, Ownable, Pausable {... */\n  jump(tag_30)\n    /* \"https://raw.githubusercontent.com/OpenZeppelin/openzeppelin-contracts/v4.9.0/contracts/utils/Context.sol\":640:736  function _msgSender() internal view virtual returns (address) {... */\ntag_15:\n    /* \"https://raw.githubusercontent.com/OpenZeppelin/openzeppelin-contracts/v4.9.0/contracts/utils/Context.sol\":693:700  address */\n  0x00\n    /* \"https://raw.githubusercontent.com/OpenZeppelin/openzeppelin-contracts/v4.9.0/contracts/utils/Context.sol\":719:729  msg.sender */\n  caller\n    /* \"https://raw.githubusercontent.com/OpenZeppelin/openzeppelin-contracts/v4.9.0/contracts/utils/Context.sol\":712:729  return msg.sender */\n  swap1\n  pop\n    /* \"https://raw.githubusercontent.com/OpenZeppelin/openzeppelin-contracts/v4.9.0/contracts/utils/Context.sol\":640:736  function _msgSender() internal view virtual returns (address) {... */\n  swap1\n  jump\t// out\n    /* \"https://raw.githubusercontent.com/OpenZeppelin/openzeppelin-contracts/v4.9.0/contracts/access/Ownable.sol\":2426:2613  function _transferOwnership(address newOwner) internal virtual {... */\ntag_16:\n    /* \"https://raw.githubusercontent.com/OpenZeppelin/openzeppelin-contracts/v4.9.0/contracts/access/Ownable.sol\":2499:2515  address oldOwner */\n  0x00\n    /* \"https://raw.githubusercontent.com/OpenZeppelin/openzeppelin-contracts/v4.9.0/contracts/access/Ownable.sol\":2518:2524  _owner */\n  0x05\n  0x00\n  swap1\n  sload\n  swap1\n  0x0100\n  exp\n  swap1\n  div\n  0xffffffffffffffffffffffffffffffffffffffff\n  and\n    /* \"https://raw.githubusercontent.com/OpenZeppelin/openzeppelin-contracts/v4.9.0/contracts/access/Ownable.sol\":2499:2524  address oldOwner = _owner */\n  swap1\n  pop\n    /* \"https://raw.githubusercontent.com/OpenZeppelin/openzeppelin-contracts/v4.9.0/contracts/access/Ownable.sol\":2543:2551  newOwner */\n  dup2\n    /* \"https://raw.githubusercontent.com/OpenZeppelin/openzeppelin-contracts/v4.9.0/contracts/access/Ownable.sol\":2534:2540  _owner */\n  0x05\n  0x00\n    /* \"https://raw.githubusercontent.com/OpenZeppelin/openzeppelin-contracts/v4.9.0/contracts/access/Ownable.sol\":2534:2551  _owner = newOwner */\n  0x0100\n  exp\n  dup2\n  sload\n  dup2\n  0xffffffffffffffffffffffffffffffffffffffff\n  mul\n  not\n  and\n  swap1\n  dup4\n  0xffffffffffffffffffffffffffffffffffffffff\n  and\n  mul\n  or\n  swap1\n  sstore\n  pop\n    /* \"https://raw.githubusercontent.com/OpenZeppelin/openzeppelin-contracts/v4.9.0/contracts/access/Ownable.sol\":2597:2605  newOwner */\n  dup2\n    /* \"https://raw.githubusercontent.com/OpenZeppelin/openzeppelin-contracts/v4.9.0/contracts/access/Ownable.sol\":2566:2606  OwnershipTransferred(oldOwner, newOwner) */\n  0xffffffffffffffffffffffffffffffffffffffff\n  and\n    /* \"https://raw.githubusercontent.com/OpenZeppelin/openzeppelin-contracts/v4.9.0/contracts/access/Ownable.sol\":2587:2595  oldOwner */\n  dup2\n    /* \"https://raw.githubusercontent.com/OpenZeppelin/openzeppelin-contracts/v4.9.0/contracts/access/Ownable.sol\":2566:2606  OwnershipTransferred(oldOwner, newOwner) */\n  0xffffffffffffffffffffffffffffffffffffffff\n  and\n  0x8be0079c531659141344cd1fd0a4f28419497f9722a3daafe3b4186f6b6457e0\n  mload(0x40)\n  mload(0x40)\n  dup1\n  swap2\n  sub\n  swap1\n  log3\n    /* \"https://raw.githubusercontent.com/OpenZeppelin/openzeppelin-contracts/v4.9.0/contracts/access/Ownable.sol\":2489:2613  {... */\n  pop\n    /* \"https://raw.githubusercontent.com/OpenZeppelin/openzeppelin-contracts/v4.9.0/contracts/access/Ownable.sol\":2426:2613  function _transferOwnership(address newOwner) internal virtual {... */\n  pop\n  jump\t// out\n    /* \"https://raw.githubusercontent.com/OpenZeppelin/openzeppelin-contracts/v4.9.0/contracts/token/ERC20/ERC20.sol\":8520:9055  function _mint(address account, uint256 amount) internal virtual {... */\ntag_27:\n    /* \"https://raw.githubusercontent.com/OpenZeppelin/openzeppelin-contracts/v4.9.0/contracts/token/ERC20/ERC20.sol\":8622:8623  0 */\n  0x00\n    /* \"https://raw.githubusercontent.com/OpenZeppelin/openzeppelin-contracts/v4.9.0/contracts/token/ERC20/ERC20.sol\":8603:8624  account != address(0) */\n  0xffffffffffffffffffffffffffffffffffffffff\n  and\n    /* \"https://raw.githubusercontent.com/OpenZeppelin/openzeppelin-contracts/v4.9.0/contracts/token/ERC20/ERC20.sol\":8603:8610  account */\n  dup3\n    /* \"https://raw.githubusercontent.com/OpenZeppelin/openzeppelin-contracts/v4.9.0/contracts/token/ERC20/ERC20.sol\":8603:8624  account != address(0) */\n  0xffffffffffffffffffffffffffffffffffffffff\n  and\n  sub\n    /* \"https://raw.githubusercontent.com/OpenZeppelin/openzeppelin-contracts/v4.9.0/contracts/token/ERC20/ERC20.sol\":8595:8660  require(account != address(0), \"ERC20: mint to the zero address\") */\n  tag_34\n  jumpi\n  mload(0x40)\n  0x08c379a000000000000000000000000000000000000000000000000000000000\n  dup2\n  mstore\n  0x04\n  add\n  tag_35\n  swap1\n  tag_36\n  jump\t// in\ntag_35:\n  mload(0x40)\n  dup1\n  swap2\n  sub\n  swap1\n  revert\ntag_34:\n    /* \"https://raw.githubusercontent.com/OpenZeppelin/openzeppelin-contracts/v4.9.0/contracts/token/ERC20/ERC20.sol\":8671:8720  _beforeTokenTransfer(address(0), account, amount) */\n  tag_37\n    /* \"https://raw.githubusercontent.com/OpenZeppelin/openzeppelin-contracts/v4.9.0/contracts/token/ERC20/ERC20.sol\":8700:8701  0 */\n  0x00\n    /* \"https://raw.githubusercontent.com/OpenZeppelin/openzeppelin-contracts/v4.9.0/contracts/token/ERC20/ERC20.sol\":8704:8711  account */\n  dup4\n    /* \"https://raw.githubusercontent.com/OpenZeppelin/openzeppelin-contracts/v4.9.0/contracts/token/ERC20/ERC20.sol\":8713:8719  amount */\n  dup4\n    /* \"https://raw.githubusercontent.com/OpenZeppelin/openzeppelin-contracts/v4.9.0/contracts/token/ERC20/ERC20.sol\":8671:8691  _beforeTokenTransfer */\n  shl(0x20, tag_38)\n    /* \"https://raw.githubusercontent.com/OpenZeppelin/openzeppelin-contracts/v4.9.0/contracts/token/ERC20/ERC20.sol\":8671:8720  _beforeTokenTransfer(address(0), account, amount) */\n  0x20\n  shr\n  jump\t// in\ntag_37:\n    /* \"https://raw.githubusercontent.com/OpenZeppelin/openzeppelin-contracts/v4.9.0/contracts/token/ERC20/ERC20.sol\":8747:8753  amount */\n  dup1\n    /* \"https://raw.githubusercontent.com/OpenZeppelin/openzeppelin-contracts/v4.9.0/contracts/token/ERC20/ERC20.sol\":8731:8743  _totalSupply */\n  0x02\n  0x00\n    /* \"https://raw.githubusercontent.com/OpenZeppelin/openzeppelin-contracts/v4.9.0/contracts/token/ERC20/ERC20.sol\":8731:8753  _totalSupply += amount */\n  dup3\n  dup3\n  sload\n  tag_39\n  swap2\n  swap1\n  tag_40\n  jump\t// in\ntag_39:\n  swap3\n  pop\n  pop\n  dup2\n  swap1\n  sstore\n  pop\n    /* \"https://raw.githubusercontent.com/OpenZeppelin/openzeppelin-contracts/v4.9.0/contracts/token/ERC20/ERC20.sol\":8921:8927  amount */\n  dup1\n    /* \"https://raw.githubusercontent.com/OpenZeppelin/openzeppelin-contracts/v4.9.0/contracts/token/ERC20/ERC20.sol\":8899:8908  _balances */\n  0x00\n    /* \"https://raw.githubusercontent.com/OpenZeppelin/openzeppelin-contracts/v4.9.0/contracts/token/ERC20/ERC20.sol\":8899:8917  _balances[account] */\n  0x00\n    /* \"https://raw.githubusercontent.com/OpenZeppelin/openzeppelin-contracts/v4.9.0/contracts/token/ERC20/ERC20.sol\":8909:8916  account */\n  dup5\n    /* \"https://raw.githubusercontent.com/OpenZeppelin/openzeppelin-contracts/v4.9.0/contracts/token/ERC20/ERC20.sol\":8899:8917  _balances[account] */\n  0xffffffffffffffffffffffffffffffffffffffff\n  and\n  0xffffffffffffffffffffffffffffffffffffffff\n  and\n  dup2\n  mstore\n  0x20\n  add\n  swap1\n  dup2\n  mstore\n  0x20\n  add\n  0x00\n  keccak256\n  0x00\n    /* \"https://raw.githubusercontent.com/OpenZeppelin/openzeppelin-contracts/v4.9.0/contracts/token/ERC20/ERC20.sol\":8899:8927  _balances[account] += amount */\n  dup3\n  dup3\n  sload\n  add\n  swap3\n  pop\n  pop\n  dup2\n  swap1\n  sstore\n  pop\n    /* \"https://raw.githubusercontent.com/OpenZeppelin/openzeppelin-contracts/v4.9.0/contracts/token/ERC20/ERC20.sol\":8973:8980  account */\n  dup2\n    /* \"https://raw.githubusercontent.com/OpenZeppelin/openzeppelin-contracts/v4.9.0/contracts/token/ERC20/ERC20.sol\":8952:8989  Transfer(address(0), account, amount) */\n  0xffffffffffffffffffffffffffffffffffffffff\n  and\n    /* \"https://raw.githubusercontent.com/OpenZeppelin/openzeppelin-contracts/v4.9.0/contracts/token/ERC20/ERC20.sol\":8969:8970  0 */\n  0x00\n    /* \"https://raw.githubusercontent.com/OpenZeppelin/openzeppelin-contracts/v4.9.0/contracts/token/ERC20/ERC20.sol\":8952:8989  Transfer(address(0), account, amount) */\n  0xffffffffffffffffffffffffffffffffffffffff\n  and\n  0xddf252ad1be2c89b69c2b068fc378daa952ba7f163c4a11628f55a4df523b3ef\n    /* \"https://raw.githubusercontent.com/OpenZeppelin/openzeppelin-contracts/v4.9.0/contracts/token/ERC20/ERC20.sol\":8982:8988  amount */\n  dup4\n    /* \"https://raw.githubusercontent.com/OpenZeppelin/openzeppelin-contracts/v4.9.0/contracts/token/ERC20/ERC20.sol\":8952:8989  Transfer(address(0), account, amount) */\n  mload(0x40)\n  tag_41\n  swap2\n  swap1\n  tag_29\n  jump\t// in\ntag_41:\n  mload(0x40)\n  dup1\n  swap2\n  sub\n  swap1\n  log3\n    /* \"https://raw.githubusercontent.com/OpenZeppelin/openzeppelin-contracts/v4.9.0/contracts/token/ERC20/ERC20.sol\":9000:9048  _afterTokenTransfer(address(0), account, amount) */\n  tag_42\n    /* \"https://raw.githubusercontent.com/OpenZeppelin/openzeppelin-contracts/v4.9.0/contracts/token/ERC20/ERC20.sol\":9028:9029  0 */\n  0x00\n    /* \"https://raw.githubusercontent.com/OpenZeppelin/openzeppelin-contracts/v4.9.0/contracts/token/ERC20/ERC20.sol\":9032:9039  account */\n  dup4\n    /* \"https://raw.githubusercontent.com/OpenZeppelin/openzeppelin-contracts/v4.9.0/contracts/token/ERC20/ERC20.sol\":9041:9047  amount */\n  dup4\n    /* \"https://raw.githubusercontent.com/OpenZeppelin/openzeppelin-contracts/v4.9.0/contracts/token/ERC20/ERC20.sol\":9000:9019  _afterTokenTransfer */\n  shl(0x20, tag_43)\n    /* \"https://raw.githubusercontent.com/OpenZeppelin/openzeppelin-contracts/v4.9.0/contracts/token/ERC20/ERC20.sol\":9000:9048  _afterTokenTransfer(address(0), account, amount) */\n  0x20\n  shr\n  jump\t// in\ntag_42:\n    /* \"https://raw.githubusercontent.com/OpenZeppelin/openzeppelin-contracts/v4.9.0/contracts/token/ERC20/ERC20.sol\":8520:9055  function _mint(address account, uint256 amount) internal virtual {... */\n  pop\n  pop\n  jump\t// out\n    /* \"contracts/IncaKolaNFT.sol\":4092:4395  function _beforeTokenTransfer(address from, address to, uint256 amount) internal override {... */\ntag_38:\n    /* \"contracts/IncaKolaNFT.sol\":4193:4237  super._beforeTokenTransfer(from, to, amount) */\n  tag_45\n    /* \"contracts/IncaKolaNFT.sol\":4220:4224  from */\n  dup4\n    /* \"contracts/IncaKolaNFT.sol\":4226:4228  to */\n  dup4\n    /* \"contracts/IncaKolaNFT.sol\":4230:4236  amount */\n  dup4\n    /* \"contracts/IncaKolaNFT.sol\":4193:4219  super._beforeTokenTransfer */\n  shl(0x20, tag_46)\n    /* \"contracts/IncaKolaNFT.sol\":4193:4237  super._beforeTokenTransfer(from, to, amount) */\n  0x20\n  shr\n  jump\t// in\ntag_45:\n    /* \"contracts/IncaKolaNFT.sol\":4297:4305  paused() */\n  tag_47\n    /* \"contracts/IncaKolaNFT.sol\":4297:4303  paused */\n  shl(0x20, tag_48)\n    /* \"contracts/IncaKolaNFT.sol\":4297:4305  paused() */\n  0x20\n  shr\n  jump\t// in\ntag_47:\n    /* \"contracts/IncaKolaNFT.sol\":4296:4305  !paused() */\n  iszero\n    /* \"contracts/IncaKolaNFT.sol\":4288:4337  require(!paused(), \"token transfer while paused\") */\n  tag_49\n  jumpi\n  mload(0x40)\n  0x08c379a000000000000000000000000000000000000000000000000000000000\n  dup2\n  mstore\n  0x04\n  add\n  tag_50\n  swap1\n  tag_51\n  jump\t// in\ntag_50:\n  mload(0x40)\n  dup1\n  swap2\n  sub\n  swap1\n  revert\ntag_49:\n    /* \"contracts/IncaKolaNFT.sol\":4092:4395  function _beforeTokenTransfer(address from, address to, uint256 amount) internal override {... */\n  pop\n  pop\n  pop\n  jump\t// out\n    /* \"https://raw.githubusercontent.com/OpenZeppelin/openzeppelin-contracts/v4.9.0/contracts/token/ERC20/ERC20.sol\":12752:12842  function _afterTokenTransfer(address from, address to, uint256 amount) internal virtual {} */\ntag_43:\n  pop\n  pop\n  pop\n  jump\t// out\n    /* \"https://raw.githubusercontent.com/OpenZeppelin/openzeppelin-contracts/v4.9.0/contracts/token/ERC20/ERC20.sol\":12073:12164  function _beforeTokenTransfer(address from, address to, uint256 amount) internal virtual {} */\ntag_46:\n  pop\n  pop\n  pop\n  jump\t// out\n    /* \"https://raw.githubusercontent.com/OpenZeppelin/openzeppelin-contracts/v4.9.0/contracts/security/Pausable.sol\":1615:1699  function paused() public view virtual returns (bool) {... */\ntag_48:\n    /* \"https://raw.githubusercontent.com/OpenZeppelin/openzeppelin-contracts/v4.9.0/contracts/security/Pausable.sol\":1662:1666  bool */\n  0x00\n    /* \"https://raw.githubusercontent.com/OpenZeppelin/openzeppelin-contracts/v4.9.0/contracts/security/Pausable.sol\":1685:1692  _paused */\n  0x05\n  0x14\n  swap1\n  sload\n  swap1\n  0x0100\n  exp\n  swap1\n  div\n  0xff\n  and\n    /* \"https://raw.githubusercontent.com/OpenZeppelin/openzeppelin-contracts/v4.9.0/contracts/security/Pausable.sol\":1678:1692  return _paused */\n  swap1\n  pop\n    /* \"https://raw.githubusercontent.com/OpenZeppelin/openzeppelin-contracts/v4.9.0/contracts/security/Pausable.sol\":1615:1699  function paused() public view virtual returns (bool) {... */\n  swap1\n  jump\t// out\n    /* \"#utility.yul\":88:205   */\ntag_56:\n    /* \"#utility.yul\":197:198   */\n  0x00\n    /* \"#utility.yul\":194:195   */\n  0x00\n    /* \"#utility.yul\":187:199   */\n  revert\n    /* \"#utility.yul\":334:411   */\ntag_58:\n    /* \"#utility.yul\":371:378   */\n  0x00\n    /* \"#utility.yul\":400:405   */\n  dup2\n    /* \"#utility.yul\":389:405   */\n  swap1\n  pop\n    /* \"#utility.yul\":334:411   */\n  swap2\n  swap1\n  pop\n  jump\t// out\n    /* \"#utility.yul\":417:539   */\ntag_59:\n    /* \"#utility.yul\":490:514   */\n  tag_97\n    /* \"#utility.yul\":508:513   */\n  dup2\n    /* \"#utility.yul\":490:514   */\n  tag_58\n  jump\t// in\ntag_97:\n    /* \"#utility.yul\":483:488   */\n  dup2\n    /* \"#utility.yul\":480:515   */\n  eq\n    /* \"#utility.yul\":470:533   */\n  tag_98\n  jumpi\n    /* \"#utility.yul\":529:530   */\n  0x00\n    /* \"#utility.yul\":526:527   */\n  0x00\n    /* \"#utility.yul\":519:531   */\n  revert\n    /* \"#utility.yul\":470:533   */\ntag_98:\n    /* \"#utility.yul\":417:539   */\n  pop\n  jump\t// out\n    /* \"#utility.yul\":545:688   */\ntag_60:\n    /* \"#utility.yul\":602:607   */\n  0x00\n    /* \"#utility.yul\":633:639   */\n  dup2\n    /* \"#utility.yul\":627:640   */\n  mload\n    /* \"#utility.yul\":618:640   */\n  swap1\n  pop\n    /* \"#utility.yul\":649:682   */\n  tag_100\n    /* \"#utility.yul\":676:681   */\n  dup2\n    /* \"#utility.yul\":649:682   */\n  tag_59\n  jump\t// in\ntag_100:\n    /* \"#utility.yul\":545:688   */\n  swap3\n  swap2\n  pop\n  pop\n  jump\t// out\n    /* \"#utility.yul\":694:1201   */\ntag_3:\n    /* \"#utility.yul\":773:779   */\n  0x00\n    /* \"#utility.yul\":781:787   */\n  0x00\n    /* \"#utility.yul\":830:832   */\n  0x40\n    /* \"#utility.yul\":818:827   */\n  dup4\n    /* \"#utility.yul\":809:816   */\n  dup6\n    /* \"#utility.yul\":805:828   */\n  sub\n    /* \"#utility.yul\":801:833   */\n  slt\n    /* \"#utility.yul\":798:917   */\n  iszero\n  tag_102\n  jumpi\n    /* \"#utility.yul\":836:915   */\n  tag_103\n  tag_56\n  jump\t// in\ntag_103:\n    /* \"#utility.yul\":798:917   */\ntag_102:\n    /* \"#utility.yul\":956:957   */\n  0x00\n    /* \"#utility.yul\":981:1045   */\n  tag_104\n    /* \"#utility.yul\":1037:1044   */\n  dup6\n    /* \"#utility.yul\":1028:1034   */\n  dup3\n    /* \"#utility.yul\":1017:1026   */\n  dup7\n    /* \"#utility.yul\":1013:1035   */\n  add\n    /* \"#utility.yul\":981:1045   */\n  tag_60\n  jump\t// in\ntag_104:\n    /* \"#utility.yul\":971:1045   */\n  swap3\n  pop\n    /* \"#utility.yul\":927:1055   */\n  pop\n    /* \"#utility.yul\":1094:1096   */\n  0x20\n    /* \"#utility.yul\":1120:1184   */\n  tag_105\n    /* \"#utility.yul\":1176:1183   */\n  dup6\n    /* \"#utility.yul\":1167:1173   */\n  dup3\n    /* \"#utility.yul\":1156:1165   */\n  dup7\n    /* \"#utility.yul\":1152:1174   */\n  add\n    /* \"#utility.yul\":1120:1184   */\n  tag_60\n  jump\t// in\ntag_105:\n    /* \"#utility.yul\":1110:1184   */\n  swap2\n  pop\n    /* \"#utility.yul\":1065:1194   */\n  pop\n    /* \"#utility.yul\":694:1201   */\n  swap3\n  pop\n  swap3\n  swap1\n  pop\n  jump\t// out\n    /* \"#utility.yul\":1207:1306   */\ntag_61:\n    /* \"#utility.yul\":1259:1265   */\n  0x00\n    /* \"#utility.yul\":1293:1298   */\n  dup2\n    /* \"#utility.yul\":1287:1299   */\n  mload\n    /* \"#utility.yul\":1277:1299   */\n  swap1\n  pop\n    /* \"#utility.yul\":1207:1306   */\n  swap2\n  swap1\n  pop\n  jump\t// out\n    /* \"#utility.yul\":1312:1492   */\ntag_62:\n    /* \"#utility.yul\":1360:1437   */\n  0x4e487b7100000000000000000000000000000000000000000000000000000000\n    /* \"#utility.yul\":1357:1358   */\n  0x00\n    /* \"#utility.yul\":1350:1438   */\n  mstore\n    /* \"#utility.yul\":1457:1461   */\n  0x41\n    /* \"#utility.yul\":1454:1455   */\n  0x04\n    /* \"#utility.yul\":1447:1462   */\n  mstore\n    /* \"#utility.yul\":1481:1485   */\n  0x24\n    /* \"#utility.yul\":1478:1479   */\n  0x00\n    /* \"#utility.yul\":1471:1486   */\n  revert\n    /* \"#utility.yul\":1498:1678   */\ntag_63:\n    /* \"#utility.yul\":1546:1623   */\n  0x4e487b7100000000000000000000000000000000000000000000000000000000\n    /* \"#utility.yul\":1543:1544   */\n  0x00\n    /* \"#utility.yul\":1536:1624   */\n  mstore\n    /* \"#utility.yul\":1643:1647   */\n  0x22\n    /* \"#utility.yul\":1640:1641   */\n  0x04\n    /* \"#utility.yul\":1633:1648   */\n  mstore\n    /* \"#utility.yul\":1667:1671   */\n  0x24\n    /* \"#utility.yul\":1664:1665   */\n  0x00\n    /* \"#utility.yul\":1657:1672   */\n  revert\n    /* \"#utility.yul\":1684:2004   */\ntag_64:\n    /* \"#utility.yul\":1728:1734   */\n  0x00\n    /* \"#utility.yul\":1765:1766   */\n  0x02\n    /* \"#utility.yul\":1759:1763   */\n  dup3\n    /* \"#utility.yul\":1755:1767   */\n  div\n    /* \"#utility.yul\":1745:1767   */\n  swap1\n  pop\n    /* \"#utility.yul\":1812:1813   */\n  0x01\n    /* \"#utility.yul\":1806:1810   */\n  dup3\n    /* \"#utility.yul\":1802:1814   */\n  and\n    /* \"#utility.yul\":1833:1851   */\n  dup1\n    /* \"#utility.yul\":1823:1904   */\n  tag_110\n  jumpi\n    /* \"#utility.yul\":1889:1893   */\n  0x7f\n    /* \"#utility.yul\":1881:1887   */\n  dup3\n    /* \"#utility.yul\":1877:1894   */\n  and\n    /* \"#utility.yul\":1867:1894   */\n  swap2\n  pop\n    /* \"#utility.yul\":1823:1904   */\ntag_110:\n    /* \"#utility.yul\":1951:1953   */\n  0x20\n    /* \"#utility.yul\":1943:1949   */\n  dup3\n    /* \"#utility.yul\":1940:1954   */\n  lt\n    /* \"#utility.yul\":1920:1938   */\n  dup2\n    /* \"#utility.yul\":1917:1955   */\n  sub\n    /* \"#utility.yul\":1914:1998   */\n  tag_111\n  jumpi\n    /* \"#utility.yul\":1970:1988   */\n  tag_112\n  tag_63\n  jump\t// in\ntag_112:\n    /* \"#utility.yul\":1914:1998   */\ntag_111:\n    /* \"#utility.yul\":1735:2004   */\n  pop\n    /* \"#utility.yul\":1684:2004   */\n  swap2\n  swap1\n  pop\n  jump\t// out\n    /* \"#utility.yul\":2010:2151   */\ntag_65:\n    /* \"#utility.yul\":2059:2063   */\n  0x00\n    /* \"#utility.yul\":2082:2085   */\n  dup2\n    /* \"#utility.yul\":2074:2085   */\n  swap1\n  pop\n    /* \"#utility.yul\":2105:2108   */\n  dup2\n    /* \"#utility.yul\":2102:2103   */\n  0x00\n    /* \"#utility.yul\":2095:2109   */\n  mstore\n    /* \"#utility.yul\":2139:2143   */\n  0x20\n    /* \"#utility.yul\":2136:2137   */\n  0x00\n    /* \"#utility.yul\":2126:2144   */\n  keccak256\n    /* \"#utility.yul\":2118:2144   */\n  swap1\n  pop\n    /* \"#utility.yul\":2010:2151   */\n  swap2\n  swap1\n  pop\n  jump\t// out\n    /* \"#utility.yul\":2157:2250   */\ntag_66:\n    /* \"#utility.yul\":2194:2200   */\n  0x00\n    /* \"#utility.yul\":2241:2243   */\n  0x20\n    /* \"#utility.yul\":2236:2238   */\n  0x1f\n    /* \"#utility.yul\":2229:2234   */\n  dup4\n    /* \"#utility.yul\":2225:2239   */\n  add\n    /* \"#utility.yul\":2221:2244   */\n  div\n    /* \"#utility.yul\":2211:2244   */\n  swap1\n  pop\n    /* \"#utility.yul\":2157:2250   */\n  swap2\n  swap1\n  pop\n  jump\t// out\n    /* \"#utility.yul\":2256:2363   */\ntag_67:\n    /* \"#utility.yul\":2300:2308   */\n  0x00\n    /* \"#utility.yul\":2350:2355   */\n  dup3\n    /* \"#utility.yul\":2344:2348   */\n  dup3\n    /* \"#utility.yul\":2340:2356   */\n  shl\n    /* \"#utility.yul\":2319:2356   */\n  swap1\n  pop\n    /* \"#utility.yul\":2256:2363   */\n  swap3\n  swap2\n  pop\n  pop\n  jump\t// out\n    /* \"#utility.yul\":2369:2762   */\ntag_68:\n    /* \"#utility.yul\":2438:2444   */\n  0x00\n    /* \"#utility.yul\":2488:2489   */\n  0x08\n    /* \"#utility.yul\":2476:2486   */\n  dup4\n    /* \"#utility.yul\":2472:2490   */\n  mul\n    /* \"#utility.yul\":2511:2608   */\n  tag_117\n    /* \"#utility.yul\":2541:2607   */\n  0xffffffffffffffffffffffffffffffffffffffffffffffffffffffffffffffff\n    /* \"#utility.yul\":2530:2539   */\n  dup3\n    /* \"#utility.yul\":2511:2608   */\n  tag_67\n  jump\t// in\ntag_117:\n    /* \"#utility.yul\":2629:2668   */\n  tag_118\n    /* \"#utility.yul\":2659:2667   */\n  dup7\n    /* \"#utility.yul\":2648:2657   */\n  dup4\n    /* \"#utility.yul\":2629:2668   */\n  tag_67\n  jump\t// in\ntag_118:\n    /* \"#utility.yul\":2617:2668   */\n  swap6\n  pop\n    /* \"#utility.yul\":2701:2705   */\n  dup1\n    /* \"#utility.yul\":2697:2706   */\n  not\n    /* \"#utility.yul\":2690:2695   */\n  dup5\n    /* \"#utility.yul\":2686:2707   */\n  and\n    /* \"#utility.yul\":2677:2707   */\n  swap4\n  pop\n    /* \"#utility.yul\":2750:2754   */\n  dup1\n    /* \"#utility.yul\":2740:2748   */\n  dup7\n    /* \"#utility.yul\":2736:2755   */\n  and\n    /* \"#utility.yul\":2729:2734   */\n  dup5\n    /* \"#utility.yul\":2726:2756   */\n  or\n    /* \"#utility.yul\":2716:2756   */\n  swap3\n  pop\n    /* \"#utility.yul\":2445:2762   */\n  pop\n  pop\n    /* \"#utility.yul\":2369:2762   */\n  swap4\n  swap3\n  pop\n  pop\n  pop\n  jump\t// out\n    /* \"#utility.yul\":2768:2828   */\ntag_69:\n    /* \"#utility.yul\":2796:2799   */\n  0x00\n    /* \"#utility.yul\":2817:2822   */\n  dup2\n    /* \"#utility.yul\":2810:2822   */\n  swap1\n  pop\n    /* \"#utility.yul\":2768:2828   */\n  swap2\n  swap1\n  pop\n  jump\t// out\n    /* \"#utility.yul\":2834:2976   */\ntag_70:\n    /* \"#utility.yul\":2884:2893   */\n  0x00\n    /* \"#utility.yul\":2917:2970   */\n  tag_121\n    /* \"#utility.yul\":2935:2969   */\n  tag_122\n    /* \"#utility.yul\":2944:2968   */\n  tag_123\n    /* \"#utility.yul\":2962:2967   */\n  dup5\n    /* \"#utility.yul\":2944:2968   */\n  tag_58\n  jump\t// in\ntag_123:\n    /* \"#utility.yul\":2935:2969   */\n  tag_69\n  jump\t// in\ntag_122:\n    /* \"#utility.yul\":2917:2970   */\n  tag_58\n  jump\t// in\ntag_121:\n    /* \"#utility.yul\":2904:2970   */\n  swap1\n  pop\n    /* \"#utility.yul\":2834:2976   */\n  swap2\n  swap1\n  pop\n  jump\t// out\n    /* \"#utility.yul\":2982:3057   */\ntag_71:\n    /* \"#utility.yul\":3025:3028   */\n  0x00\n    /* \"#utility.yul\":3046:3051   */\n  dup2\n    /* \"#utility.yul\":3039:3051   */\n  swap1\n  pop\n    /* \"#utility.yul\":2982:3057   */\n  swap2\n  swap1\n  pop\n  jump\t// out\n    /* \"#utility.yul\":3063:3332   */\ntag_72:\n    /* \"#utility.yul\":3173:3212   */\n  tag_126\n    /* \"#utility.yul\":3204:3211   */\n  dup4\n    /* \"#utility.yul\":3173:3212   */\n  tag_70\n  jump\t// in\ntag_126:\n    /* \"#utility.yul\":3234:3325   */\n  tag_127\n    /* \"#utility.yul\":3283:3324   */\n  tag_128\n    /* \"#utility.yul\":3307:3323   */\n  dup3\n    /* \"#utility.yul\":3283:3324   */\n  tag_71\n  jump\t// in\ntag_128:\n    /* \"#utility.yul\":3275:3281   */\n  dup5\n    /* \"#utility.yul\":3268:3272   */\n  dup5\n    /* \"#utility.yul\":3262:3273   */\n  sload\n    /* \"#utility.yul\":3234:3325   */\n  tag_68\n  jump\t// in\ntag_127:\n    /* \"#utility.yul\":3228:3232   */\n  dup3\n    /* \"#utility.yul\":3221:3326   */\n  sstore\n    /* \"#utility.yul\":3139:3332   */\n  pop\n    /* \"#utility.yul\":3063:3332   */\n  pop\n  pop\n  pop\n  jump\t// out\n    /* \"#utility.yul\":3338:3411   */\ntag_73:\n    /* \"#utility.yul\":3383:3386   */\n  0x00\n    /* \"#utility.yul\":3404:3405   */\n  0x00\n    /* \"#utility.yul\":3397:3405   */\n  swap1\n  pop\n    /* \"#utility.yul\":3338:3411   */\n  swap1\n  jump\t// out\n    /* \"#utility.yul\":3417:3606   */\ntag_74:\n    /* \"#utility.yul\":3494:3526   */\n  tag_131\n  tag_73\n  jump\t// in\ntag_131:\n    /* \"#utility.yul\":3535:3600   */\n  tag_132\n    /* \"#utility.yul\":3593:3599   */\n  dup2\n    /* \"#utility.yul\":3585:3591   */\n  dup5\n    /* \"#utility.yul\":3579:3583   */\n  dup5\n    /* \"#utility.yul\":3535:3600   */\n  tag_72\n  jump\t// in\ntag_132:\n    /* \"#utility.yul\":3470:3606   */\n  pop\n    /* \"#utility.yul\":3417:3606   */\n  pop\n  pop\n  jump\t// out\n    /* \"#utility.yul\":3612:3798   */\ntag_75:\n    /* \"#utility.yul\":3672:3792   */\ntag_134:\n    /* \"#utility.yul\":3689:3692   */\n  dup2\n    /* \"#utility.yul\":3682:3687   */\n  dup2\n    /* \"#utility.yul\":3679:3693   */\n  lt\n    /* \"#utility.yul\":3672:3792   */\n  iszero\n  tag_136\n  jumpi\n    /* \"#utility.yul\":3743:3782   */\n  tag_137\n    /* \"#utility.yul\":3780:3781   */\n  0x00\n    /* \"#utility.yul\":3773:3778   */\n  dup3\n    /* \"#utility.yul\":3743:3782   */\n  tag_74\n  jump\t// in\ntag_137:\n    /* \"#utility.yul\":3716:3717   */\n  0x01\n    /* \"#utility.yul\":3709:3714   */\n  dup2\n    /* \"#utility.yul\":3705:3718   */\n  add\n    /* \"#utility.yul\":3696:3718   */\n  swap1\n  pop\n    /* \"#utility.yul\":3672:3792   */\n  jump(tag_134)\ntag_136:\n    /* \"#utility.yul\":3612:3798   */\n  pop\n  pop\n  jump\t// out\n    /* \"#utility.yul\":3804:4347   */\ntag_76:\n    /* \"#utility.yul\":3905:3907   */\n  0x1f\n    /* \"#utility.yul\":3900:3903   */\n  dup3\n    /* \"#utility.yul\":3897:3908   */\n  gt\n    /* \"#utility.yul\":3894:4340   */\n  iszero\n  tag_139\n  jumpi\n    /* \"#utility.yul\":3939:3977   */\n  tag_140\n    /* \"#utility.yul\":3971:3976   */\n  dup2\n    /* \"#utility.yul\":3939:3977   */\n  tag_65\n  jump\t// in\ntag_140:\n    /* \"#utility.yul\":4023:4052   */\n  tag_141\n    /* \"#utility.yul\":4041:4051   */\n  dup5\n    /* \"#utility.yul\":4023:4052   */\n  tag_66\n  jump\t// in\ntag_141:\n    /* \"#utility.yul\":4013:4021   */\n  dup2\n    /* \"#utility.yul\":4009:4053   */\n  add\n    /* \"#utility.yul\":4206:4208   */\n  0x20\n    /* \"#utility.yul\":4194:4204   */\n  dup6\n    /* \"#utility.yul\":4191:4209   */\n  lt\n    /* \"#utility.yul\":4188:4237   */\n  iszero\n  tag_142\n  jumpi\n    /* \"#utility.yul\":4227:4235   */\n  dup2\n    /* \"#utility.yul\":4212:4235   */\n  swap1\n  pop\n    /* \"#utility.yul\":4188:4237   */\ntag_142:\n    /* \"#utility.yul\":4250:4330   */\n  tag_143\n    /* \"#utility.yul\":4306:4328   */\n  tag_144\n    /* \"#utility.yul\":4324:4327   */\n  dup6\n    /* \"#utility.yul\":4306:4328   */\n  tag_66\n  jump\t// in\ntag_144:\n    /* \"#utility.yul\":4296:4304   */\n  dup4\n    /* \"#utility.yul\":4292:4329   */\n  add\n    /* \"#utility.yul\":4279:4290   */\n  dup3\n    /* \"#utility.yul\":4250:4330   */\n  tag_75\n  jump\t// in\ntag_143:\n    /* \"#utility.yul\":3909:4340   */\n  pop\n  pop\n    /* \"#utility.yul\":3894:4340   */\ntag_139:\n    /* \"#utility.yul\":3804:4347   */\n  pop\n  pop\n  pop\n  jump\t// out\n    /* \"#utility.yul\":4353:4470   */\ntag_77:\n    /* \"#utility.yul\":4407:4415   */\n  0x00\n    /* \"#utility.yul\":4457:4462   */\n  dup3\n    /* \"#utility.yul\":4451:4455   */\n  dup3\n    /* \"#utility.yul\":4447:4463   */\n  shr\n    /* \"#utility.yul\":4426:4463   */\n  swap1\n  pop\n    /* \"#utility.yul\":4353:4470   */\n  swap3\n  swap2\n  pop\n  pop\n  jump\t// out\n    /* \"#utility.yul\":4476:4645   */\ntag_78:\n    /* \"#utility.yul\":4520:4526   */\n  0x00\n    /* \"#utility.yul\":4553:4604   */\n  tag_147\n    /* \"#utility.yul\":4601:4602   */\n  0x00\n    /* \"#utility.yul\":4597:4603   */\n  not\n    /* \"#utility.yul\":4589:4594   */\n  dup5\n    /* \"#utility.yul\":4586:4587   */\n  0x08\n    /* \"#utility.yul\":4582:4595   */\n  mul\n    /* \"#utility.yul\":4553:4604   */\n  tag_77\n  jump\t// in\ntag_147:\n    /* \"#utility.yul\":4549:4605   */\n  not\n    /* \"#utility.yul\":4634:4638   */\n  dup1\n    /* \"#utility.yul\":4628:4632   */\n  dup4\n    /* \"#utility.yul\":4624:4639   */\n  and\n    /* \"#utility.yul\":4614:4639   */\n  swap2\n  pop\n    /* \"#utility.yul\":4527:4645   */\n  pop\n    /* \"#utility.yul\":4476:4645   */\n  swap3\n  swap2\n  pop\n  pop\n  jump\t// out\n    /* \"#utility.yul\":4650:4945   */\ntag_79:\n    /* \"#utility.yul\":4726:4730   */\n  0x00\n    /* \"#utility.yul\":4872:4901   */\n  tag_149\n    /* \"#utility.yul\":4897:4900   */\n  dup4\n    /* \"#utility.yul\":4891:4895   */\n  dup4\n    /* \"#utility.yul\":4872:4901   */\n  tag_78\n  jump\t// in\ntag_149:\n    /* \"#utility.yul\":4864:4901   */\n  swap2\n  pop\n    /* \"#utility.yul\":4934:4937   */\n  dup3\n    /* \"#utility.yul\":4931:4932   */\n  0x02\n    /* \"#utility.yul\":4927:4938   */\n  mul\n    /* \"#utility.yul\":4921:4925   */\n  dup3\n    /* \"#utility.yul\":4918:4939   */\n  or\n    /* \"#utility.yul\":4910:4939   */\n  swap1\n  pop\n    /* \"#utility.yul\":4650:4945   */\n  swap3\n  swap2\n  pop\n  pop\n  jump\t// out\n    /* \"#utility.yul\":4950:6345   */\ntag_10:\n    /* \"#utility.yul\":5067:5104   */\n  tag_151\n    /* \"#utility.yul\":5100:5103   */\n  dup3\n    /* \"#utility.yul\":5067:5104   */\n  tag_61\n  jump\t// in\ntag_151:\n    /* \"#utility.yul\":5169:5187   */\n  0xffffffffffffffff\n    /* \"#utility.yul\":5161:5167   */\n  dup2\n    /* \"#utility.yul\":5158:5188   */\n  gt\n    /* \"#utility.yul\":5155:5211   */\n  iszero\n  tag_152\n  jumpi\n    /* \"#utility.yul\":5191:5209   */\n  tag_153\n  tag_62\n  jump\t// in\ntag_153:\n    /* \"#utility.yul\":5155:5211   */\ntag_152:\n    /* \"#utility.yul\":5235:5273   */\n  tag_154\n    /* \"#utility.yul\":5267:5271   */\n  dup3\n    /* \"#utility.yul\":5261:5272   */\n  sload\n    /* \"#utility.yul\":5235:5273   */\n  tag_64\n  jump\t// in\ntag_154:\n    /* \"#utility.yul\":5320:5387   */\n  tag_155\n    /* \"#utility.yul\":5380:5386   */\n  dup3\n    /* \"#utility.yul\":5372:5378   */\n  dup3\n    /* \"#utility.yul\":5366:5370   */\n  dup6\n    /* \"#utility.yul\":5320:5387   */\n  tag_76\n  jump\t// in\ntag_155:\n    /* \"#utility.yul\":5414:5415   */\n  0x00\n    /* \"#utility.yul\":5438:5442   */\n  0x20\n    /* \"#utility.yul\":5425:5442   */\n  swap1\n  pop\n    /* \"#utility.yul\":5470:5472   */\n  0x1f\n    /* \"#utility.yul\":5462:5468   */\n  dup4\n    /* \"#utility.yul\":5459:5473   */\n  gt\n    /* \"#utility.yul\":5487:5488   */\n  0x01\n    /* \"#utility.yul\":5482:6100   */\n  dup2\n  eq\n  tag_157\n  jumpi\n    /* \"#utility.yul\":6144:6145   */\n  0x00\n    /* \"#utility.yul\":6161:6167   */\n  dup5\n    /* \"#utility.yul\":6158:6235   */\n  iszero\n  tag_158\n  jumpi\n    /* \"#utility.yul\":6210:6219   */\n  dup3\n    /* \"#utility.yul\":6205:6208   */\n  dup8\n    /* \"#utility.yul\":6201:6220   */\n  add\n    /* \"#utility.yul\":6195:6221   */\n  mload\n    /* \"#utility.yul\":6186:6221   */\n  swap1\n  pop\n    /* \"#utility.yul\":6158:6235   */\ntag_158:\n    /* \"#utility.yul\":6261:6328   */\n  tag_159\n    /* \"#utility.yul\":6321:6327   */\n  dup6\n    /* \"#utility.yul\":6314:6319   */\n  dup3\n    /* \"#utility.yul\":6261:6328   */\n  tag_79\n  jump\t// in\ntag_159:\n    /* \"#utility.yul\":6255:6259   */\n  dup7\n    /* \"#utility.yul\":6248:6329   */\n  sstore\n    /* \"#utility.yul\":6117:6339   */\n  pop\n    /* \"#utility.yul\":5452:6339   */\n  jump(tag_156)\n    /* \"#utility.yul\":5482:6100   */\ntag_157:\n    /* \"#utility.yul\":5534:5538   */\n  0x1f\n    /* \"#utility.yul\":5530:5539   */\n  not\n    /* \"#utility.yul\":5522:5528   */\n  dup5\n    /* \"#utility.yul\":5518:5540   */\n  and\n    /* \"#utility.yul\":5568:5605   */\n  tag_160\n    /* \"#utility.yul\":5600:5604   */\n  dup7\n    /* \"#utility.yul\":5568:5605   */\n  tag_65\n  jump\t// in\ntag_160:\n    /* \"#utility.yul\":5627:5628   */\n  0x00\n    /* \"#utility.yul\":5641:5849   */\ntag_161:\n    /* \"#utility.yul\":5655:5662   */\n  dup3\n    /* \"#utility.yul\":5652:5653   */\n  dup2\n    /* \"#utility.yul\":5649:5663   */\n  lt\n    /* \"#utility.yul\":5641:5849   */\n  iszero\n  tag_163\n  jumpi\n    /* \"#utility.yul\":5734:5743   */\n  dup5\n    /* \"#utility.yul\":5729:5732   */\n  dup10\n    /* \"#utility.yul\":5725:5744   */\n  add\n    /* \"#utility.yul\":5719:5745   */\n  mload\n    /* \"#utility.yul\":5711:5717   */\n  dup3\n    /* \"#utility.yul\":5704:5746   */\n  sstore\n    /* \"#utility.yul\":5785:5786   */\n  0x01\n    /* \"#utility.yul\":5777:5783   */\n  dup3\n    /* \"#utility.yul\":5773:5787   */\n  add\n    /* \"#utility.yul\":5763:5787   */\n  swap2\n  pop\n    /* \"#utility.yul\":5832:5834   */\n  0x20\n    /* \"#utility.yul\":5821:5830   */\n  dup6\n    /* \"#utility.yul\":5817:5835   */\n  add\n    /* \"#utility.yul\":5804:5835   */\n  swap5\n  pop\n    /* \"#utility.yul\":5678:5682   */\n  0x20\n    /* \"#utility.yul\":5675:5676   */\n  dup2\n    /* \"#utility.yul\":5671:5683   */\n  add\n    /* \"#utility.yul\":5666:5683   */\n  swap1\n  pop\n    /* \"#utility.yul\":5641:5849   */\n  jump(tag_161)\ntag_163:\n    /* \"#utility.yul\":5877:5883   */\n  dup7\n    /* \"#utility.yul\":5868:5875   */\n  dup4\n    /* \"#utility.yul\":5865:5884   */\n  lt\n    /* \"#utility.yul\":5862:6041   */\n  iszero\n  tag_164\n  jumpi\n    /* \"#utility.yul\":5935:5944   */\n  dup5\n    /* \"#utility.yul\":5930:5933   */\n  dup10\n    /* \"#utility.yul\":5926:5945   */\n  add\n    /* \"#utility.yul\":5920:5946   */\n  mload\n    /* \"#utility.yul\":5978:6026   */\n  tag_165\n    /* \"#utility.yul\":6020:6024   */\n  0x1f\n    /* \"#utility.yul\":6012:6018   */\n  dup10\n    /* \"#utility.yul\":6008:6025   */\n  and\n    /* \"#utility.yul\":5997:6006   */\n  dup3\n    /* \"#utility.yul\":5978:6026   */\n  tag_78\n  jump\t// in\ntag_165:\n    /* \"#utility.yul\":5970:5976   */\n  dup4\n    /* \"#utility.yul\":5963:6027   */\n  sstore\n    /* \"#utility.yul\":5885:6041   */\n  pop\n    /* \"#utility.yul\":5862:6041   */\ntag_164:\n    /* \"#utility.yul\":6087:6088   */\n  0x01\n    /* \"#utility.yul\":6083:6084   */\n  0x02\n    /* \"#utility.yul\":6075:6081   */\n  dup9\n    /* \"#utility.yul\":6071:6085   */\n  mul\n    /* \"#utility.yul\":6067:6089   */\n  add\n    /* \"#utility.yul\":6061:6065   */\n  dup9\n    /* \"#utility.yul\":6054:6090   */\n  sstore\n    /* \"#utility.yul\":5489:6100   */\n  pop\n  pop\n  pop\n    /* \"#utility.yul\":5452:6339   */\ntag_156:\n  pop\n    /* \"#utility.yul\":5042:6345   */\n  pop\n  pop\n  pop\n    /* \"#utility.yul\":4950:6345   */\n  pop\n  pop\n  jump\t// out\n    /* \"#utility.yul\":6351:6520   */\ntag_80:\n    /* \"#utility.yul\":6435:6446   */\n  0x00\n    /* \"#utility.yul\":6469:6475   */\n  dup3\n    /* \"#utility.yul\":6464:6467   */\n  dup3\n    /* \"#utility.yul\":6457:6476   */\n  mstore\n    /* \"#utility.yul\":6509:6513   */\n  0x20\n    /* \"#utility.yul\":6504:6507   */\n  dup3\n    /* \"#utility.yul\":6500:6514   */\n  add\n    /* \"#utility.yul\":6485:6514   */\n  swap1\n  pop\n    /* \"#utility.yul\":6351:6520   */\n  swap3\n  swap2\n  pop\n  pop\n  jump\t// out\n    /* \"#utility.yul\":6526:6681   */\ntag_81:\n    /* \"#utility.yul\":6666:6673   */\n  0x6361703e30000000000000000000000000000000000000000000000000000000\n    /* \"#utility.yul\":6662:6663   */\n  0x00\n    /* \"#utility.yul\":6654:6660   */\n  dup3\n    /* \"#utility.yul\":6650:6664   */\n  add\n    /* \"#utility.yul\":6643:6674   */\n  mstore\n    /* \"#utility.yul\":6526:6681   */\n  pop\n  jump\t// out\n    /* \"#utility.yul\":6687:7052   */\ntag_82:\n    /* \"#utility.yul\":6829:6832   */\n  0x00\n    /* \"#utility.yul\":6850:6916   */\n  tag_169\n    /* \"#utility.yul\":6914:6915   */\n  0x05\n    /* \"#utility.yul\":6909:6912   */\n  dup4\n    /* \"#utility.yul\":6850:6916   */\n  tag_80\n  jump\t// in\ntag_169:\n    /* \"#utility.yul\":6843:6916   */\n  swap2\n  pop\n    /* \"#utility.yul\":6925:7018   */\n  tag_170\n    /* \"#utility.yul\":7014:7017   */\n  dup3\n    /* \"#utility.yul\":6925:7018   */\n  tag_81\n  jump\t// in\ntag_170:\n    /* \"#utility.yul\":7043:7045   */\n  0x20\n    /* \"#utility.yul\":7038:7041   */\n  dup3\n    /* \"#utility.yul\":7034:7046   */\n  add\n    /* \"#utility.yul\":7027:7046   */\n  swap1\n  pop\n    /* \"#utility.yul\":6687:7052   */\n  swap2\n  swap1\n  pop\n  jump\t// out\n    /* \"#utility.yul\":7058:7477   */\ntag_21:\n    /* \"#utility.yul\":7224:7228   */\n  0x00\n    /* \"#utility.yul\":7262:7264   */\n  0x20\n    /* \"#utility.yul\":7251:7260   */\n  dup3\n    /* \"#utility.yul\":7247:7265   */\n  add\n    /* \"#utility.yul\":7239:7265   */\n  swap1\n  pop\n    /* \"#utility.yul\":7311:7320   */\n  dup2\n    /* \"#utility.yul\":7305:7309   */\n  dup2\n    /* \"#utility.yul\":7301:7321   */\n  sub\n    /* \"#utility.yul\":7297:7298   */\n  0x00\n    /* \"#utility.yul\":7286:7295   */\n  dup4\n    /* \"#utility.yul\":7282:7299   */\n  add\n    /* \"#utility.yul\":7275:7322   */\n  mstore\n    /* \"#utility.yul\":7339:7470   */\n  tag_172\n    /* \"#utility.yul\":7465:7469   */\n  dup2\n    /* \"#utility.yul\":7339:7470   */\n  tag_82\n  jump\t// in\ntag_172:\n    /* \"#utility.yul\":7331:7470   */\n  swap1\n  pop\n    /* \"#utility.yul\":7058:7477   */\n  swap2\n  swap1\n  pop\n  jump\t// out\n    /* \"#utility.yul\":7483:7650   */\ntag_83:\n    /* \"#utility.yul\":7623:7642   */\n  0x696e697469616c537570706c793e636170000000000000000000000000000000\n    /* \"#utility.yul\":7619:7620   */\n  0x00\n    /* \"#utility.yul\":7611:7617   */\n  dup3\n    /* \"#utility.yul\":7607:7621   */\n  add\n    /* \"#utility.yul\":7600:7643   */\n  mstore\n    /* \"#utility.yul\":7483:7650   */\n  pop\n  jump\t// out\n    /* \"#utility.yul\":7656:8022   */\ntag_84:\n    /* \"#utility.yul\":7798:7801   */\n  0x00\n    /* \"#utility.yul\":7819:7886   */\n  tag_175\n    /* \"#utility.yul\":7883:7885   */\n  0x11\n    /* \"#utility.yul\":7878:7881   */\n  dup4\n    /* \"#utility.yul\":7819:7886   */\n  tag_80\n  jump\t// in\ntag_175:\n    /* \"#utility.yul\":7812:7886   */\n  swap2\n  pop\n    /* \"#utility.yul\":7895:7988   */\n  tag_176\n    /* \"#utility.yul\":7984:7987   */\n  dup3\n    /* \"#utility.yul\":7895:7988   */\n  tag_83\n  jump\t// in\ntag_176:\n    /* \"#utility.yul\":8013:8015   */\n  0x20\n    /* \"#utility.yul\":8008:8011   */\n  dup3\n    /* \"#utility.yul\":8004:8016   */\n  add\n    /* \"#utility.yul\":7997:8016   */\n  swap1\n  pop\n    /* \"#utility.yul\":7656:8022   */\n  swap2\n  swap1\n  pop\n  jump\t// out\n    /* \"#utility.yul\":8028:8447   */\ntag_25:\n    /* \"#utility.yul\":8194:8198   */\n  0x00\n    /* \"#utility.yul\":8232:8234   */\n  0x20\n    /* \"#utility.yul\":8221:8230   */\n  dup3\n    /* \"#utility.yul\":8217:8235   */\n  add\n    /* \"#utility.yul\":8209:8235   */\n  swap1\n  pop\n    /* \"#utility.yul\":8281:8290   */\n  dup2\n    /* \"#utility.yul\":8275:8279   */\n  dup2\n    /* \"#utility.yul\":8271:8291   */\n  sub\n    /* \"#utility.yul\":8267:8268   */\n  0x00\n    /* \"#utility.yul\":8256:8265   */\n  dup4\n    /* \"#utility.yul\":8252:8269   */\n  add\n    /* \"#utility.yul\":8245:8292   */\n  mstore\n    /* \"#utility.yul\":8309:8440   */\n  tag_178\n    /* \"#utility.yul\":8435:8439   */\n  dup2\n    /* \"#utility.yul\":8309:8440   */\n  tag_84\n  jump\t// in\ntag_178:\n    /* \"#utility.yul\":8301:8440   */\n  swap1\n  pop\n    /* \"#utility.yul\":8028:8447   */\n  swap2\n  swap1\n  pop\n  jump\t// out\n    /* \"#utility.yul\":8453:8571   */\ntag_85:\n    /* \"#utility.yul\":8540:8564   */\n  tag_180\n    /* \"#utility.yul\":8558:8563   */\n  dup2\n    /* \"#utility.yul\":8540:8564   */\n  tag_58\n  jump\t// in\ntag_180:\n    /* \"#utility.yul\":8535:8538   */\n  dup3\n    /* \"#utility.yul\":8528:8565   */\n  mstore\n    /* \"#utility.yul\":8453:8571   */\n  pop\n  pop\n  jump\t// out\n    /* \"#utility.yul\":8577:8799   */\ntag_29:\n    /* \"#utility.yul\":8670:8674   */\n  0x00\n    /* \"#utility.yul\":8708:8710   */\n  0x20\n    /* \"#utility.yul\":8697:8706   */\n  dup3\n    /* \"#utility.yul\":8693:8711   */\n  add\n    /* \"#utility.yul\":8685:8711   */\n  swap1\n  pop\n    /* \"#utility.yul\":8721:8792   */\n  tag_182\n    /* \"#utility.yul\":8789:8790   */\n  0x00\n    /* \"#utility.yul\":8778:8787   */\n  dup4\n    /* \"#utility.yul\":8774:8791   */\n  add\n    /* \"#utility.yul\":8765:8771   */\n  dup5\n    /* \"#utility.yul\":8721:8792   */\n  tag_85\n  jump\t// in\ntag_182:\n    /* \"#utility.yul\":8577:8799   */\n  swap3\n  swap2\n  pop\n  pop\n  jump\t// out\n    /* \"#utility.yul\":8805:8986   */\ntag_86:\n    /* \"#utility.yul\":8945:8978   */\n  0x45524332303a206d696e7420746f20746865207a65726f206164647265737300\n    /* \"#utility.yul\":8941:8942   */\n  0x00\n    /* \"#utility.yul\":8933:8939   */\n  dup3\n    /* \"#utility.yul\":8929:8943   */\n  add\n    /* \"#utility.yul\":8922:8979   */\n  mstore\n    /* \"#utility.yul\":8805:8986   */\n  pop\n  jump\t// out\n    /* \"#utility.yul\":8992:9358   */\ntag_87:\n    /* \"#utility.yul\":9134:9137   */\n  0x00\n    /* \"#utility.yul\":9155:9222   */\n  tag_185\n    /* \"#utility.yul\":9219:9221   */\n  0x1f\n    /* \"#utility.yul\":9214:9217   */\n  dup4\n    /* \"#utility.yul\":9155:9222   */\n  tag_80\n  jump\t// in\ntag_185:\n    /* \"#utility.yul\":9148:9222   */\n  swap2\n  pop\n    /* \"#utility.yul\":9231:9324   */\n  tag_186\n    /* \"#utility.yul\":9320:9323   */\n  dup3\n    /* \"#utility.yul\":9231:9324   */\n  tag_86\n  jump\t// in\ntag_186:\n    /* \"#utility.yul\":9349:9351   */\n  0x20\n    /* \"#utility.yul\":9344:9347   */\n  dup3\n    /* \"#utility.yul\":9340:9352   */\n  add\n    /* \"#utility.yul\":9333:9352   */\n  swap1\n  pop\n    /* \"#utility.yul\":8992:9358   */\n  swap2\n  swap1\n  pop\n  jump\t// out\n    /* \"#utility.yul\":9364:9783   */\ntag_36:\n    /* \"#utility.yul\":9530:9534   */\n  0x00\n    /* \"#utility.yul\":9568:9570   */\n  0x20\n    /* \"#utility.yul\":9557:9566   */\n  dup3\n    /* \"#utility.yul\":9553:9571   */\n  add\n    /* \"#utility.yul\":9545:9571   */\n  swap1\n  pop\n    /* \"#utility.yul\":9617:9626   */\n  dup2\n    /* \"#utility.yul\":9611:9615   */\n  dup2\n    /* \"#utility.yul\":9607:9627   */\n  sub\n    /* \"#utility.yul\":9603:9604   */\n  0x00\n    /* \"#utility.yul\":9592:9601   */\n  dup4\n    /* \"#utility.yul\":9588:9605   */\n  add\n    /* \"#utility.yul\":9581:9628   */\n  mstore\n    /* \"#utility.yul\":9645:9776   */\n  tag_188\n    /* \"#utility.yul\":9771:9775   */\n  dup2\n    /* \"#utility.yul\":9645:9776   */\n  tag_87\n  jump\t// in\ntag_188:\n    /* \"#utility.yul\":9637:9776   */\n  swap1\n  pop\n    /* \"#utility.yul\":9364:9783   */\n  swap2\n  swap1\n  pop\n  jump\t// out\n    /* \"#utility.yul\":9789:9969   */\ntag_88:\n    /* \"#utility.yul\":9837:9914   */\n  0x4e487b7100000000000000000000000000000000000000000000000000000000\n    /* \"#utility.yul\":9834:9835   */\n  0x00\n    /* \"#utility.yul\":9827:9915   */\n  mstore\n    /* \"#utility.yul\":9934:9938   */\n  0x11\n    /* \"#utility.yul\":9931:9932   */\n  0x04\n    /* \"#utility.yul\":9924:9939   */\n  mstore\n    /* \"#utility.yul\":9958:9962   */\n  0x24\n    /* \"#utility.yul\":9955:9956   */\n  0x00\n    /* \"#utility.yul\":9948:9963   */\n  revert\n    /* \"#utility.yul\":9975:10166   */\ntag_40:\n    /* \"#utility.yul\":10015:10018   */\n  0x00\n    /* \"#utility.yul\":10034:10054   */\n  tag_191\n    /* \"#utility.yul\":10052:10053   */\n  dup3\n    /* \"#utility.yul\":10034:10054   */\n  tag_58\n  jump\t// in\ntag_191:\n    /* \"#utility.yul\":10029:10054   */\n  swap2\n  pop\n    /* \"#utility.yul\":10068:10088   */\n  tag_192\n    /* \"#utility.yul\":10086:10087   */\n  dup4\n    /* \"#utility.yul\":10068:10088   */\n  tag_58\n  jump\t// in\ntag_192:\n    /* \"#utility.yul\":10063:10088   */\n  swap3\n  pop\n    /* \"#utility.yul\":10111:10112   */\n  dup3\n    /* \"#utility.yul\":10108:10109   */\n  dup3\n    /* \"#utility.yul\":10104:10113   */\n  add\n    /* \"#utility.yul\":10097:10113   */\n  swap1\n  pop\n    /* \"#utility.yul\":10132:10135   */\n  dup1\n    /* \"#utility.yul\":10129:10130   */\n  dup3\n    /* \"#utility.yul\":10126:10136   */\n  gt\n    /* \"#utility.yul\":10123:10159   */\n  iszero\n  tag_193\n  jumpi\n    /* \"#utility.yul\":10139:10157   */\n  tag_194\n  tag_88\n  jump\t// in\ntag_194:\n    /* \"#utility.yul\":10123:10159   */\ntag_193:\n    /* \"#utility.yul\":9975:10166   */\n  swap3\n  swap2\n  pop\n  pop\n  jump\t// out\n    /* \"#utility.yul\":10172:10349   */\ntag_89:\n    /* \"#utility.yul\":10312:10341   */\n  0x746f6b656e207472616e73666572207768696c65207061757365640000000000\n    /* \"#utility.yul\":10308:10309   */\n  0x00\n    /* \"#utility.yul\":10300:10306   */\n  dup3\n    /* \"#utility.yul\":10296:10310   */\n  add\n    /* \"#utility.yul\":10289:10342   */\n  mstore\n    /* \"#utility.yul\":10172:10349   */\n  pop\n  jump\t// out\n    /* \"#utility.yul\":10355:10721   */\ntag_90:\n    /* \"#utility.yul\":10497:10500   */\n  0x00\n    /* \"#utility.yul\":10518:10585   */\n  tag_197\n    /* \"#utility.yul\":10582:10584   */\n  0x1b\n    /* \"#utility.yul\":10577:10580   */\n  dup4\n    /* \"#utility.yul\":10518:10585   */\n  tag_80\n  jump\t// in\ntag_197:\n    /* \"#utility.yul\":10511:10585   */\n  swap2\n  pop\n    /* \"#utility.yul\":10594:10687   */\n  tag_198\n    /* \"#utility.yul\":10683:10686   */\n  dup3\n    /* \"#utility.yul\":10594:10687   */\n  tag_89\n  jump\t// in\ntag_198:\n    /* \"#utility.yul\":10712:10714   */\n  0x20\n    /* \"#utility.yul\":10707:10710   */\n  dup3\n    /* \"#utility.yul\":10703:10715   */\n  add\n    /* \"#utility.yul\":10696:10715   */\n  swap1\n  pop\n    /* \"#utility.yul\":10355:10721   */\n  swap2\n  swap1\n  pop\n  jump\t// out\n    /* \"#utility.yul\":10727:11146   */\ntag_51:\n    /* \"#utility.yul\":10893:10897   */\n  0x00\n    /* \"#utility.yul\":10931:10933   */\n  0x20\n    /* \"#utility.yul\":10920:10929   */\n  dup3\n    /* \"#utility.yul\":10916:10934   */\n  add\n    /* \"#utility.yul\":10908:10934   */\n  swap1\n  pop\n    /* \"#utility.yul\":10980:10989   */\n  dup2\n    /* \"#utility.yul\":10974:10978   */\n  dup2\n    /* \"#utility.yul\":10970:10990   */\n  sub\n    /* \"#utility.yul\":10966:10967   */\n  0x00\n    /* \"#utility.yul\":10955:10964   */\n  dup4\n    /* \"#utility.yul\":10951:10968   */\n  add\n    /* \"#utility.yul\":10944:10991   */\n  mstore\n    /* \"#utility.yul\":11008:11139   */\n  tag_200\n    /* \"#utility.yul\":11134:11138   */\n  dup2\n    /* \"#utility.yul\":11008:11139   */\n  tag_90\n  jump\t// in\ntag_200:\n    /* \"#utility.yul\":11000:11139   */\n  swap1\n  pop\n    /* \"#utility.yul\":10727:11146   */\n  swap2\n  swap1\n  pop\n  jump\t// out\n    /* \"contracts/IncaKolaNFT.sol\":1417:4398  contract AgroToken is ERC20, ERC20Burnable, Ownable, Pausable {... */\ntag_30:\n  mload(0x80)\n  codecopy(0x00, dataOffset(sub_0), dataSize(sub_0))\n  0x00\n  assignImmutable(\"0x277ab82e5a4641341820a4a2933a62c1de997e42e92548657ae21b3728d580fe\")\n  return(0x00, dataSize(sub_0))\nstop\n\nsub_0: assembly {\n        /* \"contracts/IncaKolaNFT.sol\":1417:4398  contract AgroToken is ERC20, ERC20Burnable, Ownable, Pausable {... */\n      mstore(0x40, 0x80)\n      callvalue\n      dup1\n      iszero\n      tag_1\n      jumpi\n      revert(0x00, 0x00)\n    tag_1:\n      pop\n      jumpi(tag_2, lt(calldatasize, 0x04))\n      shr(0xe0, calldataload(0x00))\n      dup1\n      0x5c975abb\n      gt\n      tag_24\n      jumpi\n      dup1\n      0x8da5cb5b\n      gt\n      tag_25\n      jumpi\n      dup1\n      0x8da5cb5b\n      eq\n      tag_18\n      jumpi\n      dup1\n      0x95d89b41\n      eq\n      tag_19\n      jumpi\n      dup1\n      0xa457c2d7\n      eq\n      tag_20\n      jumpi\n      dup1\n      0xa9059cbb\n      eq\n      tag_21\n      jumpi\n      dup1\n      0xdd62ed3e\n      eq\n      tag_22\n      jumpi\n      dup1\n      0xf2fde38b\n      eq\n      tag_23\n      jumpi\n      jump(tag_2)\n    tag_25:\n      dup1\n      0x5c975abb\n      eq\n      tag_13\n      jumpi\n      dup1\n      0x70a08231\n      eq\n      tag_14\n      jumpi\n      dup1\n      0x715018a6\n      eq\n      tag_15\n      jumpi\n      dup1\n      0x79cc6790\n      eq\n      tag_16\n      jumpi\n      dup1\n      0x8456cb59\n      eq\n      tag_17\n      jumpi\n      jump(tag_2)\n    tag_24:\n      dup1\n      0x355274ea\n      gt\n      tag_26\n      jumpi\n      dup1\n      0x355274ea\n      eq\n      tag_8\n      jumpi\n      dup1\n      0x39509351\n      eq\n      tag_9\n      jumpi\n      dup1\n      0x3f4ba83a\n      eq\n      tag_10\n      jumpi\n      dup1\n      0x40c10f19\n      eq\n      tag_11\n      jumpi\n      dup1\n      0x42966c68\n      eq\n      tag_12\n      jumpi\n      jump(tag_2)\n    tag_26:\n      dup1\n      0x06fdde03\n      eq\n      tag_3\n      jumpi\n      dup1\n      0x095ea7b3\n      eq\n      tag_4\n      jumpi\n      dup1\n      0x18160ddd\n      eq\n      tag_5\n      jumpi\n      dup1\n      0x23b872dd\n      eq\n      tag_6\n      jumpi\n      dup1\n      0x313ce567\n      eq\n      tag_7\n      jumpi\n    tag_2:\n      revert(0x00, 0x00)\n        /* \"https://raw.githubusercontent.com/OpenZeppelin/openzeppelin-contracts/v4.9.0/contracts/token/ERC20/ERC20.sol\":2158:2256  function name() public view virtual override returns (string memory) {... */\n    tag_3:\n      tag_27\n      tag_28\n      jump\t// in\n    tag_27:\n      mload(0x40)\n      tag_29\n      swap2\n      swap1\n      tag_30\n      jump\t// in\n    tag_29:\n      mload(0x40)\n      dup1\n      swap2\n      sub\n      swap1\n      return\n        /* \"https://raw.githubusercontent.com/OpenZeppelin/openzeppelin-contracts/v4.9.0/contracts/token/ERC20/ERC20.sol\":4444:4641  function approve(address spender, uint256 amount) public virtual override returns (bool) {... */\n    tag_4:\n      tag_31\n      0x04\n      dup1\n      calldatasize\n      sub\n      dup2\n      add\n      swap1\n      tag_32\n      swap2\n      swap1\n      tag_33\n      jump\t// in\n    tag_32:\n      tag_34\n      jump\t// in\n    tag_31:\n      mload(0x40)\n      tag_35\n      swap2\n      swap1\n      tag_36\n      jump\t// in\n    tag_35:\n      mload(0x40)\n      dup1\n      swap2\n      sub\n      swap1\n      return\n        /* \"https://raw.githubusercontent.com/OpenZeppelin/openzeppelin-contracts/v4.9.0/contracts/token/ERC20/ERC20.sol\":3255:3361  function totalSupply() public view virtual override returns (uint256) {... */\n    tag_5:\n      tag_37\n      tag_38\n      jump\t// in\n    tag_37:\n      mload(0x40)\n      tag_39\n      swap2\n      swap1\n      tag_40\n      jump\t// in\n    tag_39:\n      mload(0x40)\n      dup1\n      swap2\n      sub\n      swap1\n      return\n        /* \"https://raw.githubusercontent.com/OpenZeppelin/openzeppelin-contracts/v4.9.0/contracts/token/ERC20/ERC20.sol\":5203:5459  function transferFrom(address from, address to, uint256 amount) public virtual override returns (bool) {... */\n    tag_6:\n      tag_41\n      0x04\n      dup1\n      calldatasize\n      sub\n      dup2\n      add\n      swap1\n      tag_42\n      swap2\n      swap1\n      tag_43\n      jump\t// in\n    tag_42:\n      tag_44\n      jump\t// in\n    tag_41:\n      mload(0x40)\n      tag_45\n      swap2\n      swap1\n      tag_36\n      jump\t// in\n    tag_45:\n      mload(0x40)\n      dup1\n      swap2\n      sub\n      swap1\n      return\n        /* \"https://raw.githubusercontent.com/OpenZeppelin/openzeppelin-contracts/v4.9.0/contracts/token/ERC20/ERC20.sol\":3104:3195  function decimals() public view virtual override returns (uint8) {... */\n    tag_7:\n      tag_46\n      tag_47\n      jump\t// in\n    tag_46:\n      mload(0x40)\n      tag_48\n      swap2\n      swap1\n      tag_49\n      jump\t// in\n    tag_48:\n      mload(0x40)\n      dup1\n      swap2\n      sub\n      swap1\n      return\n        /* \"contracts/IncaKolaNFT.sol\":1559:1587  uint256 public immutable cap */\n    tag_8:\n      tag_50\n      tag_51\n      jump\t// in\n    tag_50:\n      mload(0x40)\n      tag_52\n      swap2\n      swap1\n      tag_40\n      jump\t// in\n    tag_52:\n      mload(0x40)\n      dup1\n      swap2\n      sub\n      swap1\n      return\n        /* \"https://raw.githubusercontent.com/OpenZeppelin/openzeppelin-contracts/v4.9.0/contracts/token/ERC20/ERC20.sol\":5854:6088  function increaseAllowance(address spender, uint256 addedValue) public virtual returns (bool) {... */\n    tag_9:\n      tag_53\n      0x04\n      dup1\n      calldatasize\n      sub\n      dup2\n      add\n      swap1\n      tag_54\n      swap2\n      swap1\n      tag_33\n      jump\t// in\n    tag_54:\n      tag_55\n      jump\t// in\n    tag_53:\n      mload(0x40)\n      tag_56\n      swap2\n      swap1\n      tag_36\n      jump\t// in\n    tag_56:\n      mload(0x40)\n      dup1\n      swap2\n      sub\n      swap1\n      return\n        /* \"contracts/IncaKolaNFT.sol\":3071:3169  function unpause() external onlyOwner {... */\n    tag_10:\n      tag_57\n      tag_58\n      jump\t// in\n    tag_57:\n      stop\n        /* \"contracts/IncaKolaNFT.sol\":3456:3816  function mint(address to, uint256 amount) external onlyOwner {... */\n    tag_11:\n      tag_59\n      0x04\n      dup1\n      calldatasize\n      sub\n      dup2\n      add\n      swap1\n      tag_60\n      swap2\n      swap1\n      tag_33\n      jump\t// in\n    tag_60:\n      tag_61\n      jump\t// in\n    tag_59:\n      stop\n        /* \"https://raw.githubusercontent.com/OpenZeppelin/openzeppelin-contracts/v4.9.0/contracts/token/ERC20/extensions/ERC20Burnable.sol\":578:667  function burn(uint256 amount) public virtual {... */\n    tag_12:\n      tag_62\n      0x04\n      dup1\n      calldatasize\n      sub\n      dup2\n      add\n      swap1\n      tag_63\n      swap2\n      swap1\n      tag_64\n      jump\t// in\n    tag_63:\n      tag_65\n      jump\t// in\n    tag_62:\n      stop\n        /* \"https://raw.githubusercontent.com/OpenZeppelin/openzeppelin-contracts/v4.9.0/contracts/security/Pausable.sol\":1615:1699  function paused() public view virtual returns (bool) {... */\n    tag_13:\n      tag_66\n      tag_67\n      jump\t// in\n    tag_66:\n      mload(0x40)\n      tag_68\n      swap2\n      swap1\n      tag_36\n      jump\t// in\n    tag_68:\n      mload(0x40)\n      dup1\n      swap2\n      sub\n      swap1\n      return\n        /* \"https://raw.githubusercontent.com/OpenZeppelin/openzeppelin-contracts/v4.9.0/contracts/token/ERC20/ERC20.sol\":3419:3544  function balanceOf(address account) public view virtual override returns (uint256) {... */\n    tag_14:\n      tag_69\n      0x04\n      dup1\n      calldatasize\n      sub\n      dup2\n      add\n      swap1\n      tag_70\n      swap2\n      swap1\n      tag_71\n      jump\t// in\n    tag_70:\n      tag_72\n      jump\t// in\n    tag_69:\n      mload(0x40)\n      tag_73\n      swap2\n      swap1\n      tag_40\n      jump\t// in\n    tag_73:\n      mload(0x40)\n      dup1\n      swap2\n      sub\n      swap1\n      return\n        /* \"https://raw.githubusercontent.com/OpenZeppelin/openzeppelin-contracts/v4.9.0/contracts/access/Ownable.sol\":1824:1925  function renounceOwnership() public virtual onlyOwner {... */\n    tag_15:\n      tag_74\n      tag_75\n      jump\t// in\n    tag_74:\n      stop\n        /* \"https://raw.githubusercontent.com/OpenZeppelin/openzeppelin-contracts/v4.9.0/contracts/token/ERC20/extensions/ERC20Burnable.sol\":973:1134  function burnFrom(address account, uint256 amount) public virtual {... */\n    tag_16:\n      tag_76\n      0x04\n      dup1\n      calldatasize\n      sub\n      dup2\n      add\n      swap1\n      tag_77\n      swap2\n      swap1\n      tag_33\n      jump\t// in\n    tag_77:\n      tag_78\n      jump\t// in\n    tag_76:\n      stop\n        /* \"contracts/IncaKolaNFT.sol\":2795:2938  function pause() external onlyOwner {... */\n    tag_17:\n      tag_79\n      tag_80\n      jump\t// in\n    tag_79:\n      stop\n        /* \"https://raw.githubusercontent.com/OpenZeppelin/openzeppelin-contracts/v4.9.0/contracts/access/Ownable.sol\":1201:1286  function owner() public view virtual returns (address) {... */\n    tag_18:\n      tag_81\n      tag_82\n      jump\t// in\n    tag_81:\n      mload(0x40)\n      tag_83\n      swap2\n      swap1\n      tag_84\n      jump\t// in\n    tag_83:\n      mload(0x40)\n      dup1\n      swap2\n      sub\n      swap1\n      return\n        /* \"https://raw.githubusercontent.com/OpenZeppelin/openzeppelin-contracts/v4.9.0/contracts/token/ERC20/ERC20.sol\":2369:2471  function symbol() public view virtual override returns (string memory) {... */\n    tag_19:\n      tag_85\n      tag_86\n      jump\t// in\n    tag_85:\n      mload(0x40)\n      tag_87\n      swap2\n      swap1\n      tag_30\n      jump\t// in\n    tag_87:\n      mload(0x40)\n      dup1\n      swap2\n      sub\n      swap1\n      return\n        /* \"https://raw.githubusercontent.com/OpenZeppelin/openzeppelin-contracts/v4.9.0/contracts/token/ERC20/ERC20.sol\":6575:7002  function decreaseAllowance(address spender, uint256 subtractedValue) public virtual returns (bool) {... */\n    tag_20:\n      tag_88\n      0x04\n      dup1\n      calldatasize\n      sub\n      dup2\n      add\n      swap1\n      tag_89\n      swap2\n      swap1\n      tag_33\n      jump\t// in\n    tag_89:\n      tag_90\n      jump\t// in\n    tag_88:\n      mload(0x40)\n      tag_91\n      swap2\n      swap1\n      tag_36\n      jump\t// in\n    tag_91:\n      mload(0x40)\n      dup1\n      swap2\n      sub\n      swap1\n      return\n        /* \"https://raw.githubusercontent.com/OpenZeppelin/openzeppelin-contracts/v4.9.0/contracts/token/ERC20/ERC20.sol\":3740:3929  function transfer(address to, uint256 amount) public virtual override returns (bool) {... */\n    tag_21:\n      tag_92\n      0x04\n      dup1\n      calldatasize\n      sub\n      dup2\n      add\n      swap1\n      tag_93\n      swap2\n      swap1\n      tag_33\n      jump\t// in\n    tag_93:\n      tag_94\n      jump\t// in\n    tag_92:\n      mload(0x40)\n      tag_95\n      swap2\n      swap1\n      tag_36\n      jump\t// in\n    tag_95:\n      mload(0x40)\n      dup1\n      swap2\n      sub\n      swap1\n      return\n        /* \"https://raw.githubusercontent.com/OpenZeppelin/openzeppelin-contracts/v4.9.0/contracts/token/ERC20/ERC20.sol\":3987:4136  function allowance(address owner, address spender) public view virtual override returns (uint256) {... */\n    tag_22:\n      tag_96\n      0x04\n      dup1\n      calldatasize\n      sub\n      dup2\n      add\n      swap1\n      tag_97\n      swap2\n      swap1\n      tag_98\n      jump\t// in\n    tag_97:\n      tag_99\n      jump\t// in\n    tag_96:\n      mload(0x40)\n      tag_100\n      swap2\n      swap1\n      tag_40\n      jump\t// in\n    tag_100:\n      mload(0x40)\n      dup1\n      swap2\n      sub\n      swap1\n      return\n        /* \"https://raw.githubusercontent.com/OpenZeppelin/openzeppelin-contracts/v4.9.0/contracts/access/Ownable.sol\":2074:2272  function transferOwnership(address newOwner) public virtual onlyOwner {... */\n    tag_23:\n      tag_101\n      0x04\n      dup1\n      calldatasize\n      sub\n      dup2\n      add\n      swap1\n      tag_102\n      swap2\n      swap1\n      tag_71\n      jump\t// in\n    tag_102:\n      tag_103\n      jump\t// in\n    tag_101:\n      stop\n        /* \"https://raw.githubusercontent.com/OpenZeppelin/openzeppelin-contracts/v4.9.0/contracts/token/ERC20/ERC20.sol\":2158:2256  function name() public view virtual override returns (string memory) {... */\n    tag_28:\n        /* \"https://raw.githubusercontent.com/OpenZeppelin/openzeppelin-contracts/v4.9.0/contracts/token/ERC20/ERC20.sol\":2212:2225  string memory */\n      0x60\n        /* \"https://raw.githubusercontent.com/OpenZeppelin/openzeppelin-contracts/v4.9.0/contracts/token/ERC20/ERC20.sol\":2244:2249  _name */\n      0x03\n        /* \"https://raw.githubusercontent.com/OpenZeppelin/openzeppelin-contracts/v4.9.0/contracts/token/ERC20/ERC20.sol\":2237:2249  return _name */\n      dup1\n      sload\n      tag_105\n      swap1\n      tag_106\n      jump\t// in\n    tag_105:\n      dup1\n      0x1f\n      add\n      0x20\n      dup1\n      swap2\n      div\n      mul\n      0x20\n      add\n      mload(0x40)\n      swap1\n      dup2\n      add\n      0x40\n      mstore\n      dup1\n      swap3\n      swap2\n      swap1\n      dup2\n      dup2\n      mstore\n      0x20\n      add\n      dup3\n      dup1\n      sload\n      tag_107\n      swap1\n      tag_106\n      jump\t// in\n    tag_107:\n      dup1\n      iszero\n      tag_108\n      jumpi\n      dup1\n      0x1f\n      lt\n      tag_109\n      jumpi\n      0x0100\n      dup1\n      dup4\n      sload\n      div\n      mul\n      dup4\n      mstore\n      swap2\n      0x20\n      add\n      swap2\n      jump(tag_108)\n    tag_109:\n      dup3\n      add\n      swap2\n      swap1\n      0x00\n      mstore\n      keccak256(0x00, 0x20)\n      swap1\n    tag_110:\n      dup2\n      sload\n      dup2\n      mstore\n      swap1\n      0x01\n      add\n      swap1\n      0x20\n      add\n      dup1\n      dup4\n      gt\n      tag_110\n      jumpi\n      dup3\n      swap1\n      sub\n      0x1f\n      and\n      dup3\n      add\n      swap2\n    tag_108:\n      pop\n      pop\n      pop\n      pop\n      pop\n      swap1\n      pop\n        /* \"https://raw.githubusercontent.com/OpenZeppelin/openzeppelin-contracts/v4.9.0/contracts/token/ERC20/ERC20.sol\":2158:2256  function name() public view virtual override returns (string memory) {... */\n      swap1\n      jump\t// out\n        /* \"https://raw.githubusercontent.com/OpenZeppelin/openzeppelin-contracts/v4.9.0/contracts/token/ERC20/ERC20.sol\":4444:4641  function approve(address spender, uint256 amount) public virtual override returns (bool) {... */\n    tag_34:\n        /* \"https://raw.githubusercontent.com/OpenZeppelin/openzeppelin-contracts/v4.9.0/contracts/token/ERC20/ERC20.sol\":4527:4531  bool */\n      0x00\n        /* \"https://raw.githubusercontent.com/OpenZeppelin/openzeppelin-contracts/v4.9.0/contracts/token/ERC20/ERC20.sol\":4543:4556  address owner */\n      0x00\n        /* \"https://raw.githubusercontent.com/OpenZeppelin/openzeppelin-contracts/v4.9.0/contracts/token/ERC20/ERC20.sol\":4559:4571  _msgSender() */\n      tag_112\n        /* \"https://raw.githubusercontent.com/OpenZeppelin/openzeppelin-contracts/v4.9.0/contracts/token/ERC20/ERC20.sol\":4559:4569  _msgSender */\n      tag_113\n        /* \"https://raw.githubusercontent.com/OpenZeppelin/openzeppelin-contracts/v4.9.0/contracts/token/ERC20/ERC20.sol\":4559:4571  _msgSender() */\n      jump\t// in\n    tag_112:\n        /* \"https://raw.githubusercontent.com/OpenZeppelin/openzeppelin-contracts/v4.9.0/contracts/token/ERC20/ERC20.sol\":4543:4571  address owner = _msgSender() */\n      swap1\n      pop\n        /* \"https://raw.githubusercontent.com/OpenZeppelin/openzeppelin-contracts/v4.9.0/contracts/token/ERC20/ERC20.sol\":4581:4613  _approve(owner, spender, amount) */\n      tag_114\n        /* \"https://raw.githubusercontent.com/OpenZeppelin/openzeppelin-contracts/v4.9.0/contracts/token/ERC20/ERC20.sol\":4590:4595  owner */\n      dup2\n        /* \"https://raw.githubusercontent.com/OpenZeppelin/openzeppelin-contracts/v4.9.0/contracts/token/ERC20/ERC20.sol\":4597:4604  spender */\n      dup6\n        /* \"https://raw.githubusercontent.com/OpenZeppelin/openzeppelin-contracts/v4.9.0/contracts/token/ERC20/ERC20.sol\":4606:4612  amount */\n      dup6\n        /* \"https://raw.githubusercontent.com/OpenZeppelin/openzeppelin-contracts/v4.9.0/contracts/token/ERC20/ERC20.sol\":4581:4589  _approve */\n      tag_115\n        /* \"https://raw.githubusercontent.com/OpenZeppelin/openzeppelin-contracts/v4.9.0/contracts/token/ERC20/ERC20.sol\":4581:4613  _approve(owner, spender, amount) */\n      jump\t// in\n    tag_114:\n        /* \"https://raw.githubusercontent.com/OpenZeppelin/openzeppelin-contracts/v4.9.0/contracts/token/ERC20/ERC20.sol\":4630:4634  true */\n      0x01\n        /* \"https://raw.githubusercontent.com/OpenZeppelin/openzeppelin-contracts/v4.9.0/contracts/token/ERC20/ERC20.sol\":4623:4634  return true */\n      swap2\n      pop\n      pop\n        /* \"https://raw.githubusercontent.com/OpenZeppelin/openzeppelin-contracts/v4.9.0/contracts/token/ERC20/ERC20.sol\":4444:4641  function approve(address spender, uint256 amount) public virtual override returns (bool) {... */\n      swap3\n      swap2\n      pop\n      pop\n      jump\t// out\n        /* \"https://raw.githubusercontent.com/OpenZeppelin/openzeppelin-contracts/v4.9.0/contracts/token/ERC20/ERC20.sol\":3255:3361  function totalSupply() public view virtual override returns (uint256) {... */\n    tag_38:\n        /* \"https://raw.githubusercontent.com/OpenZeppelin/openzeppelin-contracts/v4.9.0/contracts/token/ERC20/ERC20.sol\":3316:3323  uint256 */\n      0x00\n        /* \"https://raw.githubusercontent.com/OpenZeppelin/openzeppelin-contracts/v4.9.0/contracts/token/ERC20/ERC20.sol\":3342:3354  _totalSupply */\n      sload(0x02)\n        /* \"https://raw.githubusercontent.com/OpenZeppelin/openzeppelin-contracts/v4.9.0/contracts/token/ERC20/ERC20.sol\":3335:3354  return _totalSupply */\n      swap1\n      pop\n        /* \"https://raw.githubusercontent.com/OpenZeppelin/openzeppelin-contracts/v4.9.0/contracts/token/ERC20/ERC20.sol\":3255:3361  function totalSupply() public view virtual override returns (uint256) {... */\n      swap1\n      jump\t// out\n        /* \"https://raw.githubusercontent.com/OpenZeppelin/openzeppelin-contracts/v4.9.0/contracts/token/ERC20/ERC20.sol\":5203:5459  function transferFrom(address from, address to, uint256 amount) public virtual override returns (bool) {... */\n    tag_44:\n        /* \"https://raw.githubusercontent.com/OpenZeppelin/openzeppelin-contracts/v4.9.0/contracts/token/ERC20/ERC20.sol\":5300:5304  bool */\n      0x00\n        /* \"https://raw.githubusercontent.com/OpenZeppelin/openzeppelin-contracts/v4.9.0/contracts/token/ERC20/ERC20.sol\":5316:5331  address spender */\n      0x00\n        /* \"https://raw.githubusercontent.com/OpenZeppelin/openzeppelin-contracts/v4.9.0/contracts/token/ERC20/ERC20.sol\":5334:5346  _msgSender() */\n      tag_118\n        /* \"https://raw.githubusercontent.com/OpenZeppelin/openzeppelin-contracts/v4.9.0/contracts/token/ERC20/ERC20.sol\":5334:5344  _msgSender */\n      tag_113\n        /* \"https://raw.githubusercontent.com/OpenZeppelin/openzeppelin-contracts/v4.9.0/contracts/token/ERC20/ERC20.sol\":5334:5346  _msgSender() */\n      jump\t// in\n    tag_118:\n        /* \"https://raw.githubusercontent.com/OpenZeppelin/openzeppelin-contracts/v4.9.0/contracts/token/ERC20/ERC20.sol\":5316:5346  address spender = _msgSender() */\n      swap1\n      pop\n        /* \"https://raw.githubusercontent.com/OpenZeppelin/openzeppelin-contracts/v4.9.0/contracts/token/ERC20/ERC20.sol\":5356:5394  _spendAllowance(from, spender, amount) */\n      tag_119\n        /* \"https://raw.githubusercontent.com/OpenZeppelin/openzeppelin-contracts/v4.9.0/contracts/token/ERC20/ERC20.sol\":5372:5376  from */\n      dup6\n        /* \"https://raw.githubusercontent.com/OpenZeppelin/openzeppelin-contracts/v4.9.0/contracts/token/ERC20/ERC20.sol\":5378:5385  spender */\n      dup3\n        /* \"https://raw.githubusercontent.com/OpenZeppelin/openzeppelin-contracts/v4.9.0/contracts/token/ERC20/ERC20.sol\":5387:5393  amount */\n      dup6\n        /* \"https://raw.githubusercontent.com/OpenZeppelin/openzeppelin-contracts/v4.9.0/contracts/token/ERC20/ERC20.sol\":5356:5371  _spendAllowance */\n      tag_120\n        /* \"https://raw.githubusercontent.com/OpenZeppelin/openzeppelin-contracts/v4.9.0/contracts/token/ERC20/ERC20.sol\":5356:5394  _spendAllowance(from, spender, amount) */\n      jump\t// in\n    tag_119:\n        /* \"https://raw.githubusercontent.com/OpenZeppelin/openzeppelin-contracts/v4.9.0/contracts/token/ERC20/ERC20.sol\":5404:5431  _transfer(from, to, amount) */\n      tag_121\n        /* \"https://raw.githubusercontent.com/OpenZeppelin/openzeppelin-contracts/v4.9.0/contracts/token/ERC20/ERC20.sol\":5414:5418  from */\n      dup6\n        /* \"https://raw.githubusercontent.com/OpenZeppelin/openzeppelin-contracts/v4.9.0/contracts/token/ERC20/ERC20.sol\":5420:5422  to */\n      dup6\n        /* \"https://raw.githubusercontent.com/OpenZeppelin/openzeppelin-contracts/v4.9.0/contracts/token/ERC20/ERC20.sol\":5424:5430  amount */\n      dup6\n        /* \"https://raw.githubusercontent.com/OpenZeppelin/openzeppelin-contracts/v4.9.0/contracts/token/ERC20/ERC20.sol\":5404:5413  _transfer */\n      tag_122\n        /* \"https://raw.githubusercontent.com/OpenZeppelin/openzeppelin-contracts/v4.9.0/contracts/token/ERC20/ERC20.sol\":5404:5431  _transfer(from, to, amount) */\n      jump\t// in\n    tag_121:\n        /* \"https://raw.githubusercontent.com/OpenZeppelin/openzeppelin-contracts/v4.9.0/contracts/token/ERC20/ERC20.sol\":5448:5452  true */\n      0x01\n        /* \"https://raw.githubusercontent.com/OpenZeppelin/openzeppelin-contracts/v4.9.0/contracts/token/ERC20/ERC20.sol\":5441:5452  return true */\n      swap2\n      pop\n      pop\n        /* \"https://raw.githubusercontent.com/OpenZeppelin/openzeppelin-contracts/v4.9.0/contracts/token/ERC20/ERC20.sol\":5203:5459  function transferFrom(address from, address to, uint256 amount) public virtual override returns (bool) {... */\n      swap4\n      swap3\n      pop\n      pop\n      pop\n      jump\t// out\n        /* \"https://raw.githubusercontent.com/OpenZeppelin/openzeppelin-contracts/v4.9.0/contracts/token/ERC20/ERC20.sol\":3104:3195  function decimals() public view virtual override returns (uint8) {... */\n    tag_47:\n        /* \"https://raw.githubusercontent.com/OpenZeppelin/openzeppelin-contracts/v4.9.0/contracts/token/ERC20/ERC20.sol\":3162:3167  uint8 */\n      0x00\n        /* \"https://raw.githubusercontent.com/OpenZeppelin/openzeppelin-contracts/v4.9.0/contracts/token/ERC20/ERC20.sol\":3186:3188  18 */\n      0x12\n        /* \"https://raw.githubusercontent.com/OpenZeppelin/openzeppelin-contracts/v4.9.0/contracts/token/ERC20/ERC20.sol\":3179:3188  return 18 */\n      swap1\n      pop\n        /* \"https://raw.githubusercontent.com/OpenZeppelin/openzeppelin-contracts/v4.9.0/contracts/token/ERC20/ERC20.sol\":3104:3195  function decimals() public view virtual override returns (uint8) {... */\n      swap1\n      jump\t// out\n        /* \"contracts/IncaKolaNFT.sol\":1559:1587  uint256 public immutable cap */\n    tag_51:\n      immutable(\"0x277ab82e5a4641341820a4a2933a62c1de997e42e92548657ae21b3728d580fe\")\n      dup2\n      jump\t// out\n        /* \"https://raw.githubusercontent.com/OpenZeppelin/openzeppelin-contracts/v4.9.0/contracts/token/ERC20/ERC20.sol\":5854:6088  function increaseAllowance(address spender, uint256 addedValue) public virtual returns (bool) {... */\n    tag_55:\n        /* \"https://raw.githubusercontent.com/OpenZeppelin/openzeppelin-contracts/v4.9.0/contracts/token/ERC20/ERC20.sol\":5942:5946  bool */\n      0x00\n        /* \"https://raw.githubusercontent.com/OpenZeppelin/openzeppelin-contracts/v4.9.0/contracts/token/ERC20/ERC20.sol\":5958:5971  address owner */\n      0x00\n        /* \"https://raw.githubusercontent.com/OpenZeppelin/openzeppelin-contracts/v4.9.0/contracts/token/ERC20/ERC20.sol\":5974:5986  _msgSender() */\n      tag_125\n        /* \"https://raw.githubusercontent.com/OpenZeppelin/openzeppelin-contracts/v4.9.0/contracts/token/ERC20/ERC20.sol\":5974:5984  _msgSender */\n      tag_113\n        /* \"https://raw.githubusercontent.com/OpenZeppelin/openzeppelin-contracts/v4.9.0/contracts/token/ERC20/ERC20.sol\":5974:5986  _msgSender() */\n      jump\t// in\n    tag_125:\n        /* \"https://raw.githubusercontent.com/OpenZeppelin/openzeppelin-contracts/v4.9.0/contracts/token/ERC20/ERC20.sol\":5958:5986  address owner = _msgSender() */\n      swap1\n      pop\n        /* \"https://raw.githubusercontent.com/OpenZeppelin/openzeppelin-contracts/v4.9.0/contracts/token/ERC20/ERC20.sol\":5996:6060  _approve(owner, spender, allowance(owner, spender) + addedValue) */\n      tag_126\n        /* \"https://raw.githubusercontent.com/OpenZeppelin/openzeppelin-contracts/v4.9.0/contracts/token/ERC20/ERC20.sol\":6005:6010  owner */\n      dup2\n        /* \"https://raw.githubusercontent.com/OpenZeppelin/openzeppelin-contracts/v4.9.0/contracts/token/ERC20/ERC20.sol\":6012:6019  spender */\n      dup6\n        /* \"https://raw.githubusercontent.com/OpenZeppelin/openzeppelin-contracts/v4.9.0/contracts/token/ERC20/ERC20.sol\":6049:6059  addedValue */\n      dup6\n        /* \"https://raw.githubusercontent.com/OpenZeppelin/openzeppelin-contracts/v4.9.0/contracts/token/ERC20/ERC20.sol\":6021:6046  allowance(owner, spender) */\n      tag_127\n        /* \"https://raw.githubusercontent.com/OpenZeppelin/openzeppelin-contracts/v4.9.0/contracts/token/ERC20/ERC20.sol\":6031:6036  owner */\n      dup6\n        /* \"https://raw.githubusercontent.com/OpenZeppelin/openzeppelin-contracts/v4.9.0/contracts/token/ERC20/ERC20.sol\":6038:6045  spender */\n      dup10\n        /* \"https://raw.githubusercontent.com/OpenZeppelin/openzeppelin-contracts/v4.9.0/contracts/token/ERC20/ERC20.sol\":6021:6030  allowance */\n      tag_99\n        /* \"https://raw.githubusercontent.com/OpenZeppelin/openzeppelin-contracts/v4.9.0/contracts/token/ERC20/ERC20.sol\":6021:6046  allowance(owner, spender) */\n      jump\t// in\n    tag_127:\n        /* \"https://raw.githubusercontent.com/OpenZeppelin/openzeppelin-contracts/v4.9.0/contracts/token/ERC20/ERC20.sol\":6021:6059  allowance(owner, spender) + addedValue */\n      tag_128\n      swap2\n      swap1\n      tag_129\n      jump\t// in\n    tag_128:\n        /* \"https://raw.githubusercontent.com/OpenZeppelin/openzeppelin-contracts/v4.9.0/contracts/token/ERC20/ERC20.sol\":5996:6004  _approve */\n      tag_115\n        /* \"https://raw.githubusercontent.com/OpenZeppelin/openzeppelin-contracts/v4.9.0/contracts/token/ERC20/ERC20.sol\":5996:6060  _approve(owner, spender, allowance(owner, spender) + addedValue) */\n      jump\t// in\n    tag_126:\n        /* \"https://raw.githubusercontent.com/OpenZeppelin/openzeppelin-contracts/v4.9.0/contracts/token/ERC20/ERC20.sol\":6077:6081  true */\n      0x01\n        /* \"https://raw.githubusercontent.com/OpenZeppelin/openzeppelin-contracts/v4.9.0/contracts/token/ERC20/ERC20.sol\":6070:6081  return true */\n      swap2\n      pop\n      pop\n        /* \"https://raw.githubusercontent.com/OpenZeppelin/openzeppelin-contracts/v4.9.0/contracts/token/ERC20/ERC20.sol\":5854:6088  function increaseAllowance(address spender, uint256 addedValue) public virtual returns (bool) {... */\n      swap3\n      swap2\n      pop\n      pop\n      jump\t// out\n        /* \"contracts/IncaKolaNFT.sol\":3071:3169  function unpause() external onlyOwner {... */\n    tag_58:\n        /* \"https://raw.githubusercontent.com/OpenZeppelin/openzeppelin-contracts/v4.9.0/contracts/access/Ownable.sol\":1094:1107  _checkOwner() */\n      tag_131\n        /* \"https://raw.githubusercontent.com/OpenZeppelin/openzeppelin-contracts/v4.9.0/contracts/access/Ownable.sol\":1094:1105  _checkOwner */\n      tag_132\n        /* \"https://raw.githubusercontent.com/OpenZeppelin/openzeppelin-contracts/v4.9.0/contracts/access/Ownable.sol\":1094:1107  _checkOwner() */\n      jump\t// in\n    tag_131:\n        /* \"contracts/IncaKolaNFT.sol\":3120:3130  _unpause() */\n      tag_134\n        /* \"contracts/IncaKolaNFT.sol\":3120:3128  _unpause */\n      tag_135\n        /* \"contracts/IncaKolaNFT.sol\":3120:3130  _unpause() */\n      jump\t// in\n    tag_134:\n        /* \"contracts/IncaKolaNFT.sol\":3071:3169  function unpause() external onlyOwner {... */\n      jump\t// out\n        /* \"contracts/IncaKolaNFT.sol\":3456:3816  function mint(address to, uint256 amount) external onlyOwner {... */\n    tag_61:\n        /* \"https://raw.githubusercontent.com/OpenZeppelin/openzeppelin-contracts/v4.9.0/contracts/access/Ownable.sol\":1094:1107  _checkOwner() */\n      tag_137\n        /* \"https://raw.githubusercontent.com/OpenZeppelin/openzeppelin-contracts/v4.9.0/contracts/access/Ownable.sol\":1094:1105  _checkOwner */\n      tag_132\n        /* \"https://raw.githubusercontent.com/OpenZeppelin/openzeppelin-contracts/v4.9.0/contracts/access/Ownable.sol\":1094:1107  _checkOwner() */\n      jump\t// in\n    tag_137:\n        /* \"contracts/IncaKolaNFT.sol\":3637:3640  cap */\n      immutable(\"0x277ab82e5a4641341820a4a2933a62c1de997e42e92548657ae21b3728d580fe\")\n        /* \"contracts/IncaKolaNFT.sol\":3627:3633  amount */\n      dup2\n        /* \"contracts/IncaKolaNFT.sol\":3611:3624  totalSupply() */\n      tag_139\n        /* \"contracts/IncaKolaNFT.sol\":3611:3622  totalSupply */\n      tag_38\n        /* \"contracts/IncaKolaNFT.sol\":3611:3624  totalSupply() */\n      jump\t// in\n    tag_139:\n        /* \"contracts/IncaKolaNFT.sol\":3611:3633  totalSupply() + amount */\n      tag_140\n      swap2\n      swap1\n      tag_129\n      jump\t// in\n    tag_140:\n        /* \"contracts/IncaKolaNFT.sol\":3611:3640  totalSupply() + amount <= cap */\n      gt\n      iszero\n        /* \"contracts/IncaKolaNFT.sol\":3603:3657  require(totalSupply() + amount <= cap, \"cap exceeded\") */\n      tag_141\n      jumpi\n      mload(0x40)\n      0x08c379a000000000000000000000000000000000000000000000000000000000\n      dup2\n      mstore\n      0x04\n      add\n      tag_142\n      swap1\n      tag_143\n      jump\t// in\n    tag_142:\n      mload(0x40)\n      dup1\n      swap2\n      sub\n      swap1\n      revert\n    tag_141:\n        /* \"contracts/IncaKolaNFT.sol\":3668:3685  _mint(to, amount) */\n      tag_144\n        /* \"contracts/IncaKolaNFT.sol\":3674:3676  to */\n      dup3\n        /* \"contracts/IncaKolaNFT.sol\":3678:3684  amount */\n      dup3\n        /* \"contracts/IncaKolaNFT.sol\":3668:3673  _mint */\n      tag_145\n        /* \"contracts/IncaKolaNFT.sol\":3668:3685  _mint(to, amount) */\n      jump\t// in\n    tag_144:\n        /* \"contracts/IncaKolaNFT.sol\":3763:3765  to */\n      dup2\n        /* \"contracts/IncaKolaNFT.sol\":3756:3774  Minted(to, amount) */\n      0xffffffffffffffffffffffffffffffffffffffff\n      and\n      0x30385c845b448a36257a6a1716e6ad2e1bc2cbe333cde1e69fe849ad6511adfe\n        /* \"contracts/IncaKolaNFT.sol\":3767:3773  amount */\n      dup3\n        /* \"contracts/IncaKolaNFT.sol\":3756:3774  Minted(to, amount) */\n      mload(0x40)\n      tag_146\n      swap2\n      swap1\n      tag_40\n      jump\t// in\n    tag_146:\n      mload(0x40)\n      dup1\n      swap2\n      sub\n      swap1\n      log2\n        /* \"contracts/IncaKolaNFT.sol\":3456:3816  function mint(address to, uint256 amount) external onlyOwner {... */\n      pop\n      pop\n      jump\t// out\n        /* \"https://raw.githubusercontent.com/OpenZeppelin/openzeppelin-contracts/v4.9.0/contracts/token/ERC20/extensions/ERC20Burnable.sol\":578:667  function burn(uint256 amount) public virtual {... */\n    tag_65:\n        /* \"https://raw.githubusercontent.com/OpenZeppelin/openzeppelin-contracts/v4.9.0/contracts/token/ERC20/extensions/ERC20Burnable.sol\":633:660  _burn(_msgSender(), amount) */\n      tag_148\n        /* \"https://raw.githubusercontent.com/OpenZeppelin/openzeppelin-contracts/v4.9.0/contracts/token/ERC20/extensions/ERC20Burnable.sol\":639:651  _msgSender() */\n      tag_149\n        /* \"https://raw.githubusercontent.com/OpenZeppelin/openzeppelin-contracts/v4.9.0/contracts/token/ERC20/extensions/ERC20Burnable.sol\":639:649  _msgSender */\n      tag_113\n        /* \"https://raw.githubusercontent.com/OpenZeppelin/openzeppelin-contracts/v4.9.0/contracts/token/ERC20/extensions/ERC20Burnable.sol\":639:651  _msgSender() */\n      jump\t// in\n    tag_149:\n        /* \"https://raw.githubusercontent.com/OpenZeppelin/openzeppelin-contracts/v4.9.0/contracts/token/ERC20/extensions/ERC20Burnable.sol\":653:659  amount */\n      dup3\n        /* \"https://raw.githubusercontent.com/OpenZeppelin/openzeppelin-contracts/v4.9.0/contracts/token/ERC20/extensions/ERC20Burnable.sol\":633:638  _burn */\n      tag_150\n        /* \"https://raw.githubusercontent.com/OpenZeppelin/openzeppelin-contracts/v4.9.0/contracts/token/ERC20/extensions/ERC20Burnable.sol\":633:660  _burn(_msgSender(), amount) */\n      jump\t// in\n    tag_148:\n        /* \"https://raw.githubusercontent.com/OpenZeppelin/openzeppelin-contracts/v4.9.0/contracts/token/ERC20/extensions/ERC20Burnable.sol\":578:667  function burn(uint256 amount) public virtual {... */\n      pop\n      jump\t// out\n        /* \"https://raw.githubusercontent.com/OpenZeppelin/openzeppelin-contracts/v4.9.0/contracts/security/Pausable.sol\":1615:1699  function paused() public view virtual returns (bool) {... */\n    tag_67:\n        /* \"https://raw.githubusercontent.com/OpenZeppelin/openzeppelin-contracts/v4.9.0/contracts/security/Pausable.sol\":1662:1666  bool */\n      0x00\n        /* \"https://raw.githubusercontent.com/OpenZeppelin/openzeppelin-contracts/v4.9.0/contracts/security/Pausable.sol\":1685:1692  _paused */\n      0x05\n      0x14\n      swap1\n      sload\n      swap1\n      0x0100\n      exp\n      swap1\n      div\n      0xff\n      and\n        /* \"https://raw.githubusercontent.com/OpenZeppelin/openzeppelin-contracts/v4.9.0/contracts/security/Pausable.sol\":1678:1692  return _paused */\n      swap1\n      pop\n        /* \"https://raw.githubusercontent.com/OpenZeppelin/openzeppelin-contracts/v4.9.0/contracts/security/Pausable.sol\":1615:1699  function paused() public view virtual returns (bool) {... */\n      swap1\n      jump\t// out\n        /* \"https://raw.githubusercontent.com/OpenZeppelin/openzeppelin-contracts/v4.9.0/contracts/token/ERC20/ERC20.sol\":3419:3544  function balanceOf(address account) public view virtual override returns (uint256) {... */\n    tag_72:\n        /* \"https://raw.githubusercontent.com/OpenZeppelin/openzeppelin-contracts/v4.9.0/contracts/token/ERC20/ERC20.sol\":3493:3500  uint256 */\n      0x00\n        /* \"https://raw.githubusercontent.com/OpenZeppelin/openzeppelin-contracts/v4.9.0/contracts/token/ERC20/ERC20.sol\":3519:3528  _balances */\n      0x00\n        /* \"https://raw.githubusercontent.com/OpenZeppelin/openzeppelin-contracts/v4.9.0/contracts/token/ERC20/ERC20.sol\":3519:3537  _balances[account] */\n      0x00\n        /* \"https://raw.githubusercontent.com/OpenZeppelin/openzeppelin-contracts/v4.9.0/contracts/token/ERC20/ERC20.sol\":3529:3536  account */\n      dup4\n        /* \"https://raw.githubusercontent.com/OpenZeppelin/openzeppelin-contracts/v4.9.0/contracts/token/ERC20/ERC20.sol\":3519:3537  _balances[account] */\n      0xffffffffffffffffffffffffffffffffffffffff\n      and\n      0xffffffffffffffffffffffffffffffffffffffff\n      and\n      dup2\n      mstore\n      0x20\n      add\n      swap1\n      dup2\n      mstore\n      0x20\n      add\n      0x00\n      keccak256\n      sload\n        /* \"https://raw.githubusercontent.com/OpenZeppelin/openzeppelin-contracts/v4.9.0/contracts/token/ERC20/ERC20.sol\":3512:3537  return _balances[account] */\n      swap1\n      pop\n        /* \"https://raw.githubusercontent.com/OpenZeppelin/openzeppelin-contracts/v4.9.0/contracts/token/ERC20/ERC20.sol\":3419:3544  function balanceOf(address account) public view virtual override returns (uint256) {... */\n      swap2\n      swap1\n      pop\n      jump\t// out\n        /* \"https://raw.githubusercontent.com/OpenZeppelin/openzeppelin-contracts/v4.9.0/contracts/access/Ownable.sol\":1824:1925  function renounceOwnership() public virtual onlyOwner {... */\n    tag_75:\n        /* \"https://raw.githubusercontent.com/OpenZeppelin/openzeppelin-contracts/v4.9.0/contracts/access/Ownable.sol\":1094:1107  _checkOwner() */\n      tag_154\n        /* \"https://raw.githubusercontent.com/OpenZeppelin/openzeppelin-contracts/v4.9.0/contracts/access/Ownable.sol\":1094:1105  _checkOwner */\n      tag_132\n        /* \"https://raw.githubusercontent.com/OpenZeppelin/openzeppelin-contracts/v4.9.0/contracts/access/Ownable.sol\":1094:1107  _checkOwner() */\n      jump\t// in\n    tag_154:\n        /* \"https://raw.githubusercontent.com/OpenZeppelin/openzeppelin-contracts/v4.9.0/contracts/access/Ownable.sol\":1888:1918  _transferOwnership(address(0)) */\n      tag_156\n        /* \"https://raw.githubusercontent.com/OpenZeppelin/openzeppelin-contracts/v4.9.0/contracts/access/Ownable.sol\":1915:1916  0 */\n      0x00\n        /* \"https://raw.githubusercontent.com/OpenZeppelin/openzeppelin-contracts/v4.9.0/contracts/access/Ownable.sol\":1888:1906  _transferOwnership */\n      tag_157\n        /* \"https://raw.githubusercontent.com/OpenZeppelin/openzeppelin-contracts/v4.9.0/contracts/access/Ownable.sol\":1888:1918  _transferOwnership(address(0)) */\n      jump\t// in\n    tag_156:\n        /* \"https://raw.githubusercontent.com/OpenZeppelin/openzeppelin-contracts/v4.9.0/contracts/access/Ownable.sol\":1824:1925  function renounceOwnership() public virtual onlyOwner {... */\n      jump\t// out\n        /* \"https://raw.githubusercontent.com/OpenZeppelin/openzeppelin-contracts/v4.9.0/contracts/token/ERC20/extensions/ERC20Burnable.sol\":973:1134  function burnFrom(address account, uint256 amount) public virtual {... */\n    tag_78:\n        /* \"https://raw.githubusercontent.com/OpenZeppelin/openzeppelin-contracts/v4.9.0/contracts/token/ERC20/extensions/ERC20Burnable.sol\":1049:1095  _spendAllowance(account, _msgSender(), amount) */\n      tag_159\n        /* \"https://raw.githubusercontent.com/OpenZeppelin/openzeppelin-contracts/v4.9.0/contracts/token/ERC20/extensions/ERC20Burnable.sol\":1065:1072  account */\n      dup3\n        /* \"https://raw.githubusercontent.com/OpenZeppelin/openzeppelin-contracts/v4.9.0/contracts/token/ERC20/extensions/ERC20Burnable.sol\":1074:1086  _msgSender() */\n      tag_160\n        /* \"https://raw.githubusercontent.com/OpenZeppelin/openzeppelin-contracts/v4.9.0/contracts/token/ERC20/extensions/ERC20Burnable.sol\":1074:1084  _msgSender */\n      tag_113\n        /* \"https://raw.githubusercontent.com/OpenZeppelin/openzeppelin-contracts/v4.9.0/contracts/token/ERC20/extensions/ERC20Burnable.sol\":1074:1086  _msgSender() */\n      jump\t// in\n    tag_160:\n        /* \"https://raw.githubusercontent.com/OpenZeppelin/openzeppelin-contracts/v4.9.0/contracts/token/ERC20/extensions/ERC20Burnable.sol\":1088:1094  amount */\n      dup4\n        /* \"https://raw.githubusercontent.com/OpenZeppelin/openzeppelin-contracts/v4.9.0/contracts/token/ERC20/extensions/ERC20Burnable.sol\":1049:1064  _spendAllowance */\n      tag_120\n        /* \"https://raw.githubusercontent.com/OpenZeppelin/openzeppelin-contracts/v4.9.0/contracts/token/ERC20/extensions/ERC20Burnable.sol\":1049:1095  _spendAllowance(account, _msgSender(), amount) */\n      jump\t// in\n    tag_159:\n        /* \"https://raw.githubusercontent.com/OpenZeppelin/openzeppelin-contracts/v4.9.0/contracts/token/ERC20/extensions/ERC20Burnable.sol\":1105:1127  _burn(account, amount) */\n      tag_161\n        /* \"https://raw.githubusercontent.com/OpenZeppelin/openzeppelin-contracts/v4.9.0/contracts/token/ERC20/extensions/ERC20Burnable.sol\":1111:1118  account */\n      dup3\n        /* \"https://raw.githubusercontent.com/OpenZeppelin/openzeppelin-contracts/v4.9.0/contracts/token/ERC20/extensions/ERC20Burnable.sol\":1120:1126  amount */\n      dup3\n        /* \"https://raw.githubusercontent.com/OpenZeppelin/openzeppelin-contracts/v4.9.0/contracts/token/ERC20/extensions/ERC20Burnable.sol\":1105:1110  _burn */\n      tag_150\n        /* \"https://raw.githubusercontent.com/OpenZeppelin/openzeppelin-contracts/v4.9.0/contracts/token/ERC20/extensions/ERC20Burnable.sol\":1105:1127  _burn(account, amount) */\n      jump\t// in\n    tag_161:\n        /* \"https://raw.githubusercontent.com/OpenZeppelin/openzeppelin-contracts/v4.9.0/contracts/token/ERC20/extensions/ERC20Burnable.sol\":973:1134  function burnFrom(address account, uint256 amount) public virtual {... */\n      pop\n      pop\n      jump\t// out\n        /* \"contracts/IncaKolaNFT.sol\":2795:2938  function pause() external onlyOwner {... */\n    tag_80:\n        /* \"https://raw.githubusercontent.com/OpenZeppelin/openzeppelin-contracts/v4.9.0/contracts/access/Ownable.sol\":1094:1107  _checkOwner() */\n      tag_163\n        /* \"https://raw.githubusercontent.com/OpenZeppelin/openzeppelin-contracts/v4.9.0/contracts/access/Ownable.sol\":1094:1105  _checkOwner */\n      tag_132\n        /* \"https://raw.githubusercontent.com/OpenZeppelin/openzeppelin-contracts/v4.9.0/contracts/access/Ownable.sol\":1094:1107  _checkOwner() */\n      jump\t// in\n    tag_163:\n        /* \"contracts/IncaKolaNFT.sol\":2842:2850  _pause() */\n      tag_165\n        /* \"contracts/IncaKolaNFT.sol\":2842:2848  _pause */\n      tag_166\n        /* \"contracts/IncaKolaNFT.sol\":2842:2850  _pause() */\n      jump\t// in\n    tag_165:\n        /* \"contracts/IncaKolaNFT.sol\":2795:2938  function pause() external onlyOwner {... */\n      jump\t// out\n        /* \"https://raw.githubusercontent.com/OpenZeppelin/openzeppelin-contracts/v4.9.0/contracts/access/Ownable.sol\":1201:1286  function owner() public view virtual returns (address) {... */\n    tag_82:\n        /* \"https://raw.githubusercontent.com/OpenZeppelin/openzeppelin-contracts/v4.9.0/contracts/access/Ownable.sol\":1247:1254  address */\n      0x00\n        /* \"https://raw.githubusercontent.com/OpenZeppelin/openzeppelin-contracts/v4.9.0/contracts/access/Ownable.sol\":1273:1279  _owner */\n      0x05\n      0x00\n      swap1\n      sload\n      swap1\n      0x0100\n      exp\n      swap1\n      div\n      0xffffffffffffffffffffffffffffffffffffffff\n      and\n        /* \"https://raw.githubusercontent.com/OpenZeppelin/openzeppelin-contracts/v4.9.0/contracts/access/Ownable.sol\":1266:1279  return _owner */\n      swap1\n      pop\n        /* \"https://raw.githubusercontent.com/OpenZeppelin/openzeppelin-contracts/v4.9.0/contracts/access/Ownable.sol\":1201:1286  function owner() public view virtual returns (address) {... */\n      swap1\n      jump\t// out\n        /* \"https://raw.githubusercontent.com/OpenZeppelin/openzeppelin-contracts/v4.9.0/contracts/token/ERC20/ERC20.sol\":2369:2471  function symbol() public view virtual override returns (string memory) {... */\n    tag_86:\n        /* \"https://raw.githubusercontent.com/OpenZeppelin/openzeppelin-contracts/v4.9.0/contracts/token/ERC20/ERC20.sol\":2425:2438  string memory */\n      0x60\n        /* \"https://raw.githubusercontent.com/OpenZeppelin/openzeppelin-contracts/v4.9.0/contracts/token/ERC20/ERC20.sol\":2457:2464  _symbol */\n      0x04\n        /* \"https://raw.githubusercontent.com/OpenZeppelin/openzeppelin-contracts/v4.9.0/contracts/token/ERC20/ERC20.sol\":2450:2464  return _symbol */\n      dup1\n      sload\n      tag_169\n      swap1\n      tag_106\n      jump\t// in\n    tag_169:\n      dup1\n      0x1f\n      add\n      0x20\n      dup1\n      swap2\n      div\n      mul\n      0x20\n      add\n      mload(0x40)\n      swap1\n      dup2\n      add\n      0x40\n      mstore\n      dup1\n      swap3\n      swap2\n      swap1\n      dup2\n      dup2\n      mstore\n      0x20\n      add\n      dup3\n      dup1\n      sload\n      tag_170\n      swap1\n      tag_106\n      jump\t// in\n    tag_170:\n      dup1\n      iszero\n      tag_171\n      jumpi\n      dup1\n      0x1f\n      lt\n      tag_172\n      jumpi\n      0x0100\n      dup1\n      dup4\n      sload\n      div\n      mul\n      dup4\n      mstore\n      swap2\n      0x20\n      add\n      swap2\n      jump(tag_171)\n    tag_172:\n      dup3\n      add\n      swap2\n      swap1\n      0x00\n      mstore\n      keccak256(0x00, 0x20)\n      swap1\n    tag_173:\n      dup2\n      sload\n      dup2\n      mstore\n      swap1\n      0x01\n      add\n      swap1\n      0x20\n      add\n      dup1\n      dup4\n      gt\n      tag_173\n      jumpi\n      dup3\n      swap1\n      sub\n      0x1f\n      and\n      dup3\n      add\n      swap2\n    tag_171:\n      pop\n      pop\n      pop\n      pop\n      pop\n      swap1\n      pop\n        /* \"https://raw.githubusercontent.com/OpenZeppelin/openzeppelin-contracts/v4.9.0/contracts/token/ERC20/ERC20.sol\":2369:2471  function symbol() public view virtual override returns (string memory) {... */\n      swap1\n      jump\t// out\n        /* \"https://raw.githubusercontent.com/OpenZeppelin/openzeppelin-contracts/v4.9.0/contracts/token/ERC20/ERC20.sol\":6575:7002  function decreaseAllowance(address spender, uint256 subtractedValue) public virtual returns (bool) {... */\n    tag_90:\n        /* \"https://raw.githubusercontent.com/OpenZeppelin/openzeppelin-contracts/v4.9.0/contracts/token/ERC20/ERC20.sol\":6668:6672  bool */\n      0x00\n        /* \"https://raw.githubusercontent.com/OpenZeppelin/openzeppelin-contracts/v4.9.0/contracts/token/ERC20/ERC20.sol\":6684:6697  address owner */\n      0x00\n        /* \"https://raw.githubusercontent.com/OpenZeppelin/openzeppelin-contracts/v4.9.0/contracts/token/ERC20/ERC20.sol\":6700:6712  _msgSender() */\n      tag_175\n        /* \"https://raw.githubusercontent.com/OpenZeppelin/openzeppelin-contracts/v4.9.0/contracts/token/ERC20/ERC20.sol\":6700:6710  _msgSender */\n      tag_113\n        /* \"https://raw.githubusercontent.com/OpenZeppelin/openzeppelin-contracts/v4.9.0/contracts/token/ERC20/ERC20.sol\":6700:6712  _msgSender() */\n      jump\t// in\n    tag_175:\n        /* \"https://raw.githubusercontent.com/OpenZeppelin/openzeppelin-contracts/v4.9.0/contracts/token/ERC20/ERC20.sol\":6684:6712  address owner = _msgSender() */\n      swap1\n      pop\n        /* \"https://raw.githubusercontent.com/OpenZeppelin/openzeppelin-contracts/v4.9.0/contracts/token/ERC20/ERC20.sol\":6722:6746  uint256 currentAllowance */\n      0x00\n        /* \"https://raw.githubusercontent.com/OpenZeppelin/openzeppelin-contracts/v4.9.0/contracts/token/ERC20/ERC20.sol\":6749:6774  allowance(owner, spender) */\n      tag_176\n        /* \"https://raw.githubusercontent.com/OpenZeppelin/openzeppelin-contracts/v4.9.0/contracts/token/ERC20/ERC20.sol\":6759:6764  owner */\n      dup3\n        /* \"https://raw.githubusercontent.com/OpenZeppelin/openzeppelin-contracts/v4.9.0/contracts/token/ERC20/ERC20.sol\":6766:6773  spender */\n      dup7\n        /* \"https://raw.githubusercontent.com/OpenZeppelin/openzeppelin-contracts/v4.9.0/contracts/token/ERC20/ERC20.sol\":6749:6758  allowance */\n      tag_99\n        /* \"https://raw.githubusercontent.com/OpenZeppelin/openzeppelin-contracts/v4.9.0/contracts/token/ERC20/ERC20.sol\":6749:6774  allowance(owner, spender) */\n      jump\t// in\n    tag_176:\n        /* \"https://raw.githubusercontent.com/OpenZeppelin/openzeppelin-contracts/v4.9.0/contracts/token/ERC20/ERC20.sol\":6722:6774  uint256 currentAllowance = allowance(owner, spender) */\n      swap1\n      pop\n        /* \"https://raw.githubusercontent.com/OpenZeppelin/openzeppelin-contracts/v4.9.0/contracts/token/ERC20/ERC20.sol\":6812:6827  subtractedValue */\n      dup4\n        /* \"https://raw.githubusercontent.com/OpenZeppelin/openzeppelin-contracts/v4.9.0/contracts/token/ERC20/ERC20.sol\":6792:6808  currentAllowance */\n      dup2\n        /* \"https://raw.githubusercontent.com/OpenZeppelin/openzeppelin-contracts/v4.9.0/contracts/token/ERC20/ERC20.sol\":6792:6827  currentAllowance >= subtractedValue */\n      lt\n      iszero\n        /* \"https://raw.githubusercontent.com/OpenZeppelin/openzeppelin-contracts/v4.9.0/contracts/token/ERC20/ERC20.sol\":6784:6869  require(currentAllowance >= subtractedValue, \"ERC20: decreased allowance below zero\") */\n      tag_177\n      jumpi\n      mload(0x40)\n      0x08c379a000000000000000000000000000000000000000000000000000000000\n      dup2\n      mstore\n      0x04\n      add\n      tag_178\n      swap1\n      tag_179\n      jump\t// in\n    tag_178:\n      mload(0x40)\n      dup1\n      swap2\n      sub\n      swap1\n      revert\n    tag_177:\n        /* \"https://raw.githubusercontent.com/OpenZeppelin/openzeppelin-contracts/v4.9.0/contracts/token/ERC20/ERC20.sol\":6903:6963  _approve(owner, spender, currentAllowance - subtractedValue) */\n      tag_180\n        /* \"https://raw.githubusercontent.com/OpenZeppelin/openzeppelin-contracts/v4.9.0/contracts/token/ERC20/ERC20.sol\":6912:6917  owner */\n      dup3\n        /* \"https://raw.githubusercontent.com/OpenZeppelin/openzeppelin-contracts/v4.9.0/contracts/token/ERC20/ERC20.sol\":6919:6926  spender */\n      dup7\n        /* \"https://raw.githubusercontent.com/OpenZeppelin/openzeppelin-contracts/v4.9.0/contracts/token/ERC20/ERC20.sol\":6947:6962  subtractedValue */\n      dup7\n        /* \"https://raw.githubusercontent.com/OpenZeppelin/openzeppelin-contracts/v4.9.0/contracts/token/ERC20/ERC20.sol\":6928:6944  currentAllowance */\n      dup5\n        /* \"https://raw.githubusercontent.com/OpenZeppelin/openzeppelin-contracts/v4.9.0/contracts/token/ERC20/ERC20.sol\":6928:6962  currentAllowance - subtractedValue */\n      sub\n        /* \"https://raw.githubusercontent.com/OpenZeppelin/openzeppelin-contracts/v4.9.0/contracts/token/ERC20/ERC20.sol\":6903:6911  _approve */\n      tag_115\n        /* \"https://raw.githubusercontent.com/OpenZeppelin/openzeppelin-contracts/v4.9.0/contracts/token/ERC20/ERC20.sol\":6903:6963  _approve(owner, spender, currentAllowance - subtractedValue) */\n      jump\t// in\n    tag_180:\n        /* \"https://raw.githubusercontent.com/OpenZeppelin/openzeppelin-contracts/v4.9.0/contracts/token/ERC20/ERC20.sol\":6991:6995  true */\n      0x01\n        /* \"https://raw.githubusercontent.com/OpenZeppelin/openzeppelin-contracts/v4.9.0/contracts/token/ERC20/ERC20.sol\":6984:6995  return true */\n      swap3\n      pop\n      pop\n      pop\n        /* \"https://raw.githubusercontent.com/OpenZeppelin/openzeppelin-contracts/v4.9.0/contracts/token/ERC20/ERC20.sol\":6575:7002  function decreaseAllowance(address spender, uint256 subtractedValue) public virtual returns (bool) {... */\n      swap3\n      swap2\n      pop\n      pop\n      jump\t// out\n        /* \"https://raw.githubusercontent.com/OpenZeppelin/openzeppelin-contracts/v4.9.0/contracts/token/ERC20/ERC20.sol\":3740:3929  function transfer(address to, uint256 amount) public virtual override returns (bool) {... */\n    tag_94:\n        /* \"https://raw.githubusercontent.com/OpenZeppelin/openzeppelin-contracts/v4.9.0/contracts/token/ERC20/ERC20.sol\":3819:3823  bool */\n      0x00\n        /* \"https://raw.githubusercontent.com/OpenZeppelin/openzeppelin-contracts/v4.9.0/contracts/token/ERC20/ERC20.sol\":3835:3848  address owner */\n      0x00\n        /* \"https://raw.githubusercontent.com/OpenZeppelin/openzeppelin-contracts/v4.9.0/contracts/token/ERC20/ERC20.sol\":3851:3863  _msgSender() */\n      tag_182\n        /* \"https://raw.githubusercontent.com/OpenZeppelin/openzeppelin-contracts/v4.9.0/contracts/token/ERC20/ERC20.sol\":3851:3861  _msgSender */\n      tag_113\n        /* \"https://raw.githubusercontent.com/OpenZeppelin/openzeppelin-contracts/v4.9.0/contracts/token/ERC20/ERC20.sol\":3851:3863  _msgSender() */\n      jump\t// in\n    tag_182:\n        /* \"https://raw.githubusercontent.com/OpenZeppelin/openzeppelin-contracts/v4.9.0/contracts/token/ERC20/ERC20.sol\":3835:3863  address owner = _msgSender() */\n      swap1\n      pop\n        /* \"https://raw.githubusercontent.com/OpenZeppelin/openzeppelin-contracts/v4.9.0/contracts/token/ERC20/ERC20.sol\":3873:3901  _transfer(owner, to, amount) */\n      tag_183\n        /* \"https://raw.githubusercontent.com/OpenZeppelin/openzeppelin-contracts/v4.9.0/contracts/token/ERC20/ERC20.sol\":3883:3888  owner */\n      dup2\n        /* \"https://raw.githubusercontent.com/OpenZeppelin/openzeppelin-contracts/v4.9.0/contracts/token/ERC20/ERC20.sol\":3890:3892  to */\n      dup6\n        /* \"https://raw.githubusercontent.com/OpenZeppelin/openzeppelin-contracts/v4.9.0/contracts/token/ERC20/ERC20.sol\":3894:3900  amount */\n      dup6\n        /* \"https://raw.githubusercontent.com/OpenZeppelin/openzeppelin-contracts/v4.9.0/contracts/token/ERC20/ERC20.sol\":3873:3882  _transfer */\n      tag_122\n        /* \"https://raw.githubusercontent.com/OpenZeppelin/openzeppelin-contracts/v4.9.0/contracts/token/ERC20/ERC20.sol\":3873:3901  _transfer(owner, to, amount) */\n      jump\t// in\n    tag_183:\n        /* \"https://raw.githubusercontent.com/OpenZeppelin/openzeppelin-contracts/v4.9.0/contracts/token/ERC20/ERC20.sol\":3918:3922  true */\n      0x01\n        /* \"https://raw.githubusercontent.com/OpenZeppelin/openzeppelin-contracts/v4.9.0/contracts/token/ERC20/ERC20.sol\":3911:3922  return true */\n      swap2\n      pop\n      pop\n        /* \"https://raw.githubusercontent.com/OpenZeppelin/openzeppelin-contracts/v4.9.0/contracts/token/ERC20/ERC20.sol\":3740:3929  function transfer(address to, uint256 amount) public virtual override returns (bool) {... */\n      swap3\n      swap2\n      pop\n      pop\n      jump\t// out\n        /* \"https://raw.githubusercontent.com/OpenZeppelin/openzeppelin-contracts/v4.9.0/contracts/token/ERC20/ERC20.sol\":3987:4136  function allowance(address owner, address spender) public view virtual override returns (uint256) {... */\n    tag_99:\n        /* \"https://raw.githubusercontent.com/OpenZeppelin/openzeppelin-contracts/v4.9.0/contracts/token/ERC20/ERC20.sol\":4076:4083  uint256 */\n      0x00\n        /* \"https://raw.githubusercontent.com/OpenZeppelin/openzeppelin-contracts/v4.9.0/contracts/token/ERC20/ERC20.sol\":4102:4113  _allowances */\n      0x01\n        /* \"https://raw.githubusercontent.com/OpenZeppelin/openzeppelin-contracts/v4.9.0/contracts/token/ERC20/ERC20.sol\":4102:4120  _allowances[owner] */\n      0x00\n        /* \"https://raw.githubusercontent.com/OpenZeppelin/openzeppelin-contracts/v4.9.0/contracts/token/ERC20/ERC20.sol\":4114:4119  owner */\n      dup5\n        /* \"https://raw.githubusercontent.com/OpenZeppelin/openzeppelin-contracts/v4.9.0/contracts/token/ERC20/ERC20.sol\":4102:4120  _allowances[owner] */\n      0xffffffffffffffffffffffffffffffffffffffff\n      and\n      0xffffffffffffffffffffffffffffffffffffffff\n      and\n      dup2\n      mstore\n      0x20\n      add\n      swap1\n      dup2\n      mstore\n      0x20\n      add\n      0x00\n      keccak256\n        /* \"https://raw.githubusercontent.com/OpenZeppelin/openzeppelin-contracts/v4.9.0/contracts/token/ERC20/ERC20.sol\":4102:4129  _allowances[owner][spender] */\n      0x00\n        /* \"https://raw.githubusercontent.com/OpenZeppelin/openzeppelin-contracts/v4.9.0/contracts/token/ERC20/ERC20.sol\":4121:4128  spender */\n      dup4\n        /* \"https://raw.githubusercontent.com/OpenZeppelin/openzeppelin-contracts/v4.9.0/contracts/token/ERC20/ERC20.sol\":4102:4129  _allowances[owner][spender] */\n      0xffffffffffffffffffffffffffffffffffffffff\n      and\n      0xffffffffffffffffffffffffffffffffffffffff\n      and\n      dup2\n      mstore\n      0x20\n      add\n      swap1\n      dup2\n      mstore\n      0x20\n      add\n      0x00\n      keccak256\n      sload\n        /* \"https://raw.githubusercontent.com/OpenZeppelin/openzeppelin-contracts/v4.9.0/contracts/token/ERC20/ERC20.sol\":4095:4129  return _allowances[owner][spender] */\n      swap1\n      pop\n        /* \"https://raw.githubusercontent.com/OpenZeppelin/openzeppelin-contracts/v4.9.0/contracts/token/ERC20/ERC20.sol\":3987:4136  function allowance(address owner, address spender) public view virtual override returns (uint256) {... */\n      swap3\n      swap2\n      pop\n      pop\n      jump\t// out\n        /* \"https://raw.githubusercontent.com/OpenZeppelin/openzeppelin-contracts/v4.9.0/contracts/access/Ownable.sol\":2074:2272  function transferOwnership(address newOwner) public virtual onlyOwner {... */\n    tag_103:\n        /* \"https://raw.githubusercontent.com/OpenZeppelin/openzeppelin-contracts/v4.9.0/contracts/access/Ownable.sol\":1094:1107  _checkOwner() */\n      tag_186\n        /* \"https://raw.githubusercontent.com/OpenZeppelin/openzeppelin-contracts/v4.9.0/contracts/access/Ownable.sol\":1094:1105  _checkOwner */\n      tag_132\n        /* \"https://raw.githubusercontent.com/OpenZeppelin/openzeppelin-contracts/v4.9.0/contracts/access/Ownable.sol\":1094:1107  _checkOwner() */\n      jump\t// in\n    tag_186:\n        /* \"https://raw.githubusercontent.com/OpenZeppelin/openzeppelin-contracts/v4.9.0/contracts/access/Ownable.sol\":2182:2183  0 */\n      0x00\n        /* \"https://raw.githubusercontent.com/OpenZeppelin/openzeppelin-contracts/v4.9.0/contracts/access/Ownable.sol\":2162:2184  newOwner != address(0) */\n      0xffffffffffffffffffffffffffffffffffffffff\n      and\n        /* \"https://raw.githubusercontent.com/OpenZeppelin/openzeppelin-contracts/v4.9.0/contracts/access/Ownable.sol\":2162:2170  newOwner */\n      dup2\n        /* \"https://raw.githubusercontent.com/OpenZeppelin/openzeppelin-contracts/v4.9.0/contracts/access/Ownable.sol\":2162:2184  newOwner != address(0) */\n      0xffffffffffffffffffffffffffffffffffffffff\n      and\n      sub\n        /* \"https://raw.githubusercontent.com/OpenZeppelin/openzeppelin-contracts/v4.9.0/contracts/access/Ownable.sol\":2154:2227  require(newOwner != address(0), \"Ownable: new owner is the zero address\") */\n      tag_188\n      jumpi\n      mload(0x40)\n      0x08c379a000000000000000000000000000000000000000000000000000000000\n      dup2\n      mstore\n      0x04\n      add\n      tag_189\n      swap1\n      tag_190\n      jump\t// in\n    tag_189:\n      mload(0x40)\n      dup1\n      swap2\n      sub\n      swap1\n      revert\n    tag_188:\n        /* \"https://raw.githubusercontent.com/OpenZeppelin/openzeppelin-contracts/v4.9.0/contracts/access/Ownable.sol\":2237:2265  _transferOwnership(newOwner) */\n      tag_191\n        /* \"https://raw.githubusercontent.com/OpenZeppelin/openzeppelin-contracts/v4.9.0/contracts/access/Ownable.sol\":2256:2264  newOwner */\n      dup2\n        /* \"https://raw.githubusercontent.com/OpenZeppelin/openzeppelin-contracts/v4.9.0/contracts/access/Ownable.sol\":2237:2255  _transferOwnership */\n      tag_157\n        /* \"https://raw.githubusercontent.com/OpenZeppelin/openzeppelin-contracts/v4.9.0/contracts/access/Ownable.sol\":2237:2265  _transferOwnership(newOwner) */\n      jump\t// in\n    tag_191:\n        /* \"https://raw.githubusercontent.com/OpenZeppelin/openzeppelin-contracts/v4.9.0/contracts/access/Ownable.sol\":2074:2272  function transferOwnership(address newOwner) public virtual onlyOwner {... */\n      pop\n      jump\t// out\n        /* \"https://raw.githubusercontent.com/OpenZeppelin/openzeppelin-contracts/v4.9.0/contracts/utils/Context.sol\":640:736  function _msgSender() internal view virtual returns (address) {... */\n    tag_113:\n        /* \"https://raw.githubusercontent.com/OpenZeppelin/openzeppelin-contracts/v4.9.0/contracts/utils/Context.sol\":693:700  address */\n      0x00\n        /* \"https://raw.githubusercontent.com/OpenZeppelin/openzeppelin-contracts/v4.9.0/contracts/utils/Context.sol\":719:729  msg.sender */\n      caller\n        /* \"https://raw.githubusercontent.com/OpenZeppelin/openzeppelin-contracts/v4.9.0/contracts/utils/Context.sol\":712:729  return msg.sender */\n      swap1\n      pop\n        /* \"https://raw.githubusercontent.com/OpenZeppelin/openzeppelin-contracts/v4.9.0/contracts/utils/Context.sol\":640:736  function _msgSender() internal view virtual returns (address) {... */\n      swap1\n      jump\t// out\n        /* \"https://raw.githubusercontent.com/OpenZeppelin/openzeppelin-contracts/v4.9.0/contracts/token/ERC20/ERC20.sol\":10457:10797  function _approve(address owner, address spender, uint256 amount) internal virtual {... */\n    tag_115:\n        /* \"https://raw.githubusercontent.com/OpenZeppelin/openzeppelin-contracts/v4.9.0/contracts/token/ERC20/ERC20.sol\":10575:10576  0 */\n      0x00\n        /* \"https://raw.githubusercontent.com/OpenZeppelin/openzeppelin-contracts/v4.9.0/contracts/token/ERC20/ERC20.sol\":10558:10577  owner != address(0) */\n      0xffffffffffffffffffffffffffffffffffffffff\n      and\n        /* \"https://raw.githubusercontent.com/OpenZeppelin/openzeppelin-contracts/v4.9.0/contracts/token/ERC20/ERC20.sol\":10558:10563  owner */\n      dup4\n        /* \"https://raw.githubusercontent.com/OpenZeppelin/openzeppelin-contracts/v4.9.0/contracts/token/ERC20/ERC20.sol\":10558:10577  owner != address(0) */\n      0xffffffffffffffffffffffffffffffffffffffff\n      and\n      sub\n        /* \"https://raw.githubusercontent.com/OpenZeppelin/openzeppelin-contracts/v4.9.0/contracts/token/ERC20/ERC20.sol\":10550:10618  require(owner != address(0), \"ERC20: approve from the zero address\") */\n      tag_194\n      jumpi\n      mload(0x40)\n      0x08c379a000000000000000000000000000000000000000000000000000000000\n      dup2\n      mstore\n      0x04\n      add\n      tag_195\n      swap1\n      tag_196\n      jump\t// in\n    tag_195:\n      mload(0x40)\n      dup1\n      swap2\n      sub\n      swap1\n      revert\n    tag_194:\n        /* \"https://raw.githubusercontent.com/OpenZeppelin/openzeppelin-contracts/v4.9.0/contracts/token/ERC20/ERC20.sol\":10655:10656  0 */\n      0x00\n        /* \"https://raw.githubusercontent.com/OpenZeppelin/openzeppelin-contracts/v4.9.0/contracts/token/ERC20/ERC20.sol\":10636:10657  spender != address(0) */\n      0xffffffffffffffffffffffffffffffffffffffff\n      and\n        /* \"https://raw.githubusercontent.com/OpenZeppelin/openzeppelin-contracts/v4.9.0/contracts/token/ERC20/ERC20.sol\":10636:10643  spender */\n      dup3\n        /* \"https://raw.githubusercontent.com/OpenZeppelin/openzeppelin-contracts/v4.9.0/contracts/token/ERC20/ERC20.sol\":10636:10657  spender != address(0) */\n      0xffffffffffffffffffffffffffffffffffffffff\n      and\n      sub\n        /* \"https://raw.githubusercontent.com/OpenZeppelin/openzeppelin-contracts/v4.9.0/contracts/token/ERC20/ERC20.sol\":10628:10696  require(spender != address(0), \"ERC20: approve to the zero address\") */\n      tag_197\n      jumpi\n      mload(0x40)\n      0x08c379a000000000000000000000000000000000000000000000000000000000\n      dup2\n      mstore\n      0x04\n      add\n      tag_198\n      swap1\n      tag_199\n      jump\t// in\n    tag_198:\n      mload(0x40)\n      dup1\n      swap2\n      sub\n      swap1\n      revert\n    tag_197:\n        /* \"https://raw.githubusercontent.com/OpenZeppelin/openzeppelin-contracts/v4.9.0/contracts/token/ERC20/ERC20.sol\":10737:10743  amount */\n      dup1\n        /* \"https://raw.githubusercontent.com/OpenZeppelin/openzeppelin-contracts/v4.9.0/contracts/token/ERC20/ERC20.sol\":10707:10718  _allowances */\n      0x01\n        /* \"https://raw.githubusercontent.com/OpenZeppelin/openzeppelin-contracts/v4.9.0/contracts/token/ERC20/ERC20.sol\":10707:10725  _allowances[owner] */\n      0x00\n        /* \"https://raw.githubusercontent.com/OpenZeppelin/openzeppelin-contracts/v4.9.0/contracts/token/ERC20/ERC20.sol\":10719:10724  owner */\n      dup6\n        /* \"https://raw.githubusercontent.com/OpenZeppelin/openzeppelin-contracts/v4.9.0/contracts/token/ERC20/ERC20.sol\":10707:10725  _allowances[owner] */\n      0xffffffffffffffffffffffffffffffffffffffff\n      and\n      0xffffffffffffffffffffffffffffffffffffffff\n      and\n      dup2\n      mstore\n      0x20\n      add\n      swap1\n      dup2\n      mstore\n      0x20\n      add\n      0x00\n      keccak256\n        /* \"https://raw.githubusercontent.com/OpenZeppelin/openzeppelin-contracts/v4.9.0/contracts/token/ERC20/ERC20.sol\":10707:10734  _allowances[owner][spender] */\n      0x00\n        /* \"https://raw.githubusercontent.com/OpenZeppelin/openzeppelin-contracts/v4.9.0/contracts/token/ERC20/ERC20.sol\":10726:10733  spender */\n      dup5\n        /* \"https://raw.githubusercontent.com/OpenZeppelin/openzeppelin-contracts/v4.9.0/contracts/token/ERC20/ERC20.sol\":10707:10734  _allowances[owner][spender] */\n      0xffffffffffffffffffffffffffffffffffffffff\n      and\n      0xffffffffffffffffffffffffffffffffffffffff\n      and\n      dup2\n      mstore\n      0x20\n      add\n      swap1\n      dup2\n      mstore\n      0x20\n      add\n      0x00\n      keccak256\n        /* \"https://raw.githubusercontent.com/OpenZeppelin/openzeppelin-contracts/v4.9.0/contracts/token/ERC20/ERC20.sol\":10707:10743  _allowances[owner][spender] = amount */\n      dup2\n      swap1\n      sstore\n      pop\n        /* \"https://raw.githubusercontent.com/OpenZeppelin/openzeppelin-contracts/v4.9.0/contracts/token/ERC20/ERC20.sol\":10774:10781  spender */\n      dup2\n        /* \"https://raw.githubusercontent.com/OpenZeppelin/openzeppelin-contracts/v4.9.0/contracts/token/ERC20/ERC20.sol\":10758:10790  Approval(owner, spender, amount) */\n      0xffffffffffffffffffffffffffffffffffffffff\n      and\n        /* \"https://raw.githubusercontent.com/OpenZeppelin/openzeppelin-contracts/v4.9.0/contracts/token/ERC20/ERC20.sol\":10767:10772  owner */\n      dup4\n        /* \"https://raw.githubusercontent.com/OpenZeppelin/openzeppelin-contracts/v4.9.0/contracts/token/ERC20/ERC20.sol\":10758:10790  Approval(owner, spender, amount) */\n      0xffffffffffffffffffffffffffffffffffffffff\n      and\n      0x8c5be1e5ebec7d5bd14f71427d1e84f3dd0314c0f7b2291e5b200ac8c7c3b925\n        /* \"https://raw.githubusercontent.com/OpenZeppelin/openzeppelin-contracts/v4.9.0/contracts/token/ERC20/ERC20.sol\":10783:10789  amount */\n      dup4\n        /* \"https://raw.githubusercontent.com/OpenZeppelin/openzeppelin-contracts/v4.9.0/contracts/token/ERC20/ERC20.sol\":10758:10790  Approval(owner, spender, amount) */\n      mload(0x40)\n      tag_200\n      swap2\n      swap1\n      tag_40\n      jump\t// in\n    tag_200:\n      mload(0x40)\n      dup1\n      swap2\n      sub\n      swap1\n      log3\n        /* \"https://raw.githubusercontent.com/OpenZeppelin/openzeppelin-contracts/v4.9.0/contracts/token/ERC20/ERC20.sol\":10457:10797  function _approve(address owner, address spender, uint256 amount) internal virtual {... */\n      pop\n      pop\n      pop\n      jump\t// out\n        /* \"https://raw.githubusercontent.com/OpenZeppelin/openzeppelin-contracts/v4.9.0/contracts/token/ERC20/ERC20.sol\":11078:11489  function _spendAllowance(address owner, address spender, uint256 amount) internal virtual {... */\n    tag_120:\n        /* \"https://raw.githubusercontent.com/OpenZeppelin/openzeppelin-contracts/v4.9.0/contracts/token/ERC20/ERC20.sol\":11178:11202  uint256 currentAllowance */\n      0x00\n        /* \"https://raw.githubusercontent.com/OpenZeppelin/openzeppelin-contracts/v4.9.0/contracts/token/ERC20/ERC20.sol\":11205:11230  allowance(owner, spender) */\n      tag_202\n        /* \"https://raw.githubusercontent.com/OpenZeppelin/openzeppelin-contracts/v4.9.0/contracts/token/ERC20/ERC20.sol\":11215:11220  owner */\n      dup5\n        /* \"https://raw.githubusercontent.com/OpenZeppelin/openzeppelin-contracts/v4.9.0/contracts/token/ERC20/ERC20.sol\":11222:11229  spender */\n      dup5\n        /* \"https://raw.githubusercontent.com/OpenZeppelin/openzeppelin-contracts/v4.9.0/contracts/token/ERC20/ERC20.sol\":11205:11214  allowance */\n      tag_99\n        /* \"https://raw.githubusercontent.com/OpenZeppelin/openzeppelin-contracts/v4.9.0/contracts/token/ERC20/ERC20.sol\":11205:11230  allowance(owner, spender) */\n      jump\t// in\n    tag_202:\n        /* \"https://raw.githubusercontent.com/OpenZeppelin/openzeppelin-contracts/v4.9.0/contracts/token/ERC20/ERC20.sol\":11178:11230  uint256 currentAllowance = allowance(owner, spender) */\n      swap1\n      pop\n        /* \"https://raw.githubusercontent.com/OpenZeppelin/openzeppelin-contracts/v4.9.0/contracts/token/ERC20/ERC20.sol\":11264:11281  type(uint256).max */\n      0xffffffffffffffffffffffffffffffffffffffffffffffffffffffffffffffff\n        /* \"https://raw.githubusercontent.com/OpenZeppelin/openzeppelin-contracts/v4.9.0/contracts/token/ERC20/ERC20.sol\":11244:11260  currentAllowance */\n      dup2\n        /* \"https://raw.githubusercontent.com/OpenZeppelin/openzeppelin-contracts/v4.9.0/contracts/token/ERC20/ERC20.sol\":11244:11281  currentAllowance != type(uint256).max */\n      eq\n        /* \"https://raw.githubusercontent.com/OpenZeppelin/openzeppelin-contracts/v4.9.0/contracts/token/ERC20/ERC20.sol\":11240:11483  if (currentAllowance != type(uint256).max) {... */\n      tag_203\n      jumpi\n        /* \"https://raw.githubusercontent.com/OpenZeppelin/openzeppelin-contracts/v4.9.0/contracts/token/ERC20/ERC20.sol\":11325:11331  amount */\n      dup2\n        /* \"https://raw.githubusercontent.com/OpenZeppelin/openzeppelin-contracts/v4.9.0/contracts/token/ERC20/ERC20.sol\":11305:11321  currentAllowance */\n      dup2\n        /* \"https://raw.githubusercontent.com/OpenZeppelin/openzeppelin-contracts/v4.9.0/contracts/token/ERC20/ERC20.sol\":11305:11331  currentAllowance >= amount */\n      lt\n      iszero\n        /* \"https://raw.githubusercontent.com/OpenZeppelin/openzeppelin-contracts/v4.9.0/contracts/token/ERC20/ERC20.sol\":11297:11365  require(currentAllowance >= amount, \"ERC20: insufficient allowance\") */\n      tag_204\n      jumpi\n      mload(0x40)\n      0x08c379a000000000000000000000000000000000000000000000000000000000\n      dup2\n      mstore\n      0x04\n      add\n      tag_205\n      swap1\n      tag_206\n      jump\t// in\n    tag_205:\n      mload(0x40)\n      dup1\n      swap2\n      sub\n      swap1\n      revert\n    tag_204:\n        /* \"https://raw.githubusercontent.com/OpenZeppelin/openzeppelin-contracts/v4.9.0/contracts/token/ERC20/ERC20.sol\":11407:11458  _approve(owner, spender, currentAllowance - amount) */\n      tag_207\n        /* \"https://raw.githubusercontent.com/OpenZeppelin/openzeppelin-contracts/v4.9.0/contracts/token/ERC20/ERC20.sol\":11416:11421  owner */\n      dup5\n        /* \"https://raw.githubusercontent.com/OpenZeppelin/openzeppelin-contracts/v4.9.0/contracts/token/ERC20/ERC20.sol\":11423:11430  spender */\n      dup5\n        /* \"https://raw.githubusercontent.com/OpenZeppelin/openzeppelin-contracts/v4.9.0/contracts/token/ERC20/ERC20.sol\":11451:11457  amount */\n      dup5\n        /* \"https://raw.githubusercontent.com/OpenZeppelin/openzeppelin-contracts/v4.9.0/contracts/token/ERC20/ERC20.sol\":11432:11448  currentAllowance */\n      dup5\n        /* \"https://raw.githubusercontent.com/OpenZeppelin/openzeppelin-contracts/v4.9.0/contracts/token/ERC20/ERC20.sol\":11432:11457  currentAllowance - amount */\n      sub\n        /* \"https://raw.githubusercontent.com/OpenZeppelin/openzeppelin-contracts/v4.9.0/contracts/token/ERC20/ERC20.sol\":11407:11415  _approve */\n      tag_115\n        /* \"https://raw.githubusercontent.com/OpenZeppelin/openzeppelin-contracts/v4.9.0/contracts/token/ERC20/ERC20.sol\":11407:11458  _approve(owner, spender, currentAllowance - amount) */\n      jump\t// in\n    tag_207:\n        /* \"https://raw.githubusercontent.com/OpenZeppelin/openzeppelin-contracts/v4.9.0/contracts/token/ERC20/ERC20.sol\":11240:11483  if (currentAllowance != type(uint256).max) {... */\n    tag_203:\n        /* \"https://raw.githubusercontent.com/OpenZeppelin/openzeppelin-contracts/v4.9.0/contracts/token/ERC20/ERC20.sol\":11168:11489  {... */\n      pop\n        /* \"https://raw.githubusercontent.com/OpenZeppelin/openzeppelin-contracts/v4.9.0/contracts/token/ERC20/ERC20.sol\":11078:11489  function _spendAllowance(address owner, address spender, uint256 amount) internal virtual {... */\n      pop\n      pop\n      pop\n      jump\t// out\n        /* \"https://raw.githubusercontent.com/OpenZeppelin/openzeppelin-contracts/v4.9.0/contracts/token/ERC20/ERC20.sol\":7456:8244  function _transfer(address from, address to, uint256 amount) internal virtual {... */\n    tag_122:\n        /* \"https://raw.githubusercontent.com/OpenZeppelin/openzeppelin-contracts/v4.9.0/contracts/token/ERC20/ERC20.sol\":7568:7569  0 */\n      0x00\n        /* \"https://raw.githubusercontent.com/OpenZeppelin/openzeppelin-contracts/v4.9.0/contracts/token/ERC20/ERC20.sol\":7552:7570  from != address(0) */\n      0xffffffffffffffffffffffffffffffffffffffff\n      and\n        /* \"https://raw.githubusercontent.com/OpenZeppelin/openzeppelin-contracts/v4.9.0/contracts/token/ERC20/ERC20.sol\":7552:7556  from */\n      dup4\n        /* \"https://raw.githubusercontent.com/OpenZeppelin/openzeppelin-contracts/v4.9.0/contracts/token/ERC20/ERC20.sol\":7552:7570  from != address(0) */\n      0xffffffffffffffffffffffffffffffffffffffff\n      and\n      sub\n        /* \"https://raw.githubusercontent.com/OpenZeppelin/openzeppelin-contracts/v4.9.0/contracts/token/ERC20/ERC20.sol\":7544:7612  require(from != address(0), \"ERC20: transfer from the zero address\") */\n      tag_209\n      jumpi\n      mload(0x40)\n      0x08c379a000000000000000000000000000000000000000000000000000000000\n      dup2\n      mstore\n      0x04\n      add\n      tag_210\n      swap1\n      tag_211\n      jump\t// in\n    tag_210:\n      mload(0x40)\n      dup1\n      swap2\n      sub\n      swap1\n      revert\n    tag_209:\n        /* \"https://raw.githubusercontent.com/OpenZeppelin/openzeppelin-contracts/v4.9.0/contracts/token/ERC20/ERC20.sol\":7644:7645  0 */\n      0x00\n        /* \"https://raw.githubusercontent.com/OpenZeppelin/openzeppelin-contracts/v4.9.0/contracts/token/ERC20/ERC20.sol\":7630:7646  to != address(0) */\n      0xffffffffffffffffffffffffffffffffffffffff\n      and\n        /* \"https://raw.githubusercontent.com/OpenZeppelin/openzeppelin-contracts/v4.9.0/contracts/token/ERC20/ERC20.sol\":7630:7632  to */\n      dup3\n        /* \"https://raw.githubusercontent.com/OpenZeppelin/openzeppelin-contracts/v4.9.0/contracts/token/ERC20/ERC20.sol\":7630:7646  to != address(0) */\n      0xffffffffffffffffffffffffffffffffffffffff\n      and\n      sub\n        /* \"https://raw.githubusercontent.com/OpenZeppelin/openzeppelin-contracts/v4.9.0/contracts/token/ERC20/ERC20.sol\":7622:7686  require(to != address(0), \"ERC20: transfer to the zero address\") */\n      tag_212\n      jumpi\n      mload(0x40)\n      0x08c379a000000000000000000000000000000000000000000000000000000000\n      dup2\n      mstore\n      0x04\n      add\n      tag_213\n      swap1\n      tag_214\n      jump\t// in\n    tag_213:\n      mload(0x40)\n      dup1\n      swap2\n      sub\n      swap1\n      revert\n    tag_212:\n        /* \"https://raw.githubusercontent.com/OpenZeppelin/openzeppelin-contracts/v4.9.0/contracts/token/ERC20/ERC20.sol\":7697:7735  _beforeTokenTransfer(from, to, amount) */\n      tag_215\n        /* \"https://raw.githubusercontent.com/OpenZeppelin/openzeppelin-contracts/v4.9.0/contracts/token/ERC20/ERC20.sol\":7718:7722  from */\n      dup4\n        /* \"https://raw.githubusercontent.com/OpenZeppelin/openzeppelin-contracts/v4.9.0/contracts/token/ERC20/ERC20.sol\":7724:7726  to */\n      dup4\n        /* \"https://raw.githubusercontent.com/OpenZeppelin/openzeppelin-contracts/v4.9.0/contracts/token/ERC20/ERC20.sol\":7728:7734  amount */\n      dup4\n        /* \"https://raw.githubusercontent.com/OpenZeppelin/openzeppelin-contracts/v4.9.0/contracts/token/ERC20/ERC20.sol\":7697:7717  _beforeTokenTransfer */\n      tag_216\n        /* \"https://raw.githubusercontent.com/OpenZeppelin/openzeppelin-contracts/v4.9.0/contracts/token/ERC20/ERC20.sol\":7697:7735  _beforeTokenTransfer(from, to, amount) */\n      jump\t// in\n    tag_215:\n        /* \"https://raw.githubusercontent.com/OpenZeppelin/openzeppelin-contracts/v4.9.0/contracts/token/ERC20/ERC20.sol\":7746:7765  uint256 fromBalance */\n      0x00\n        /* \"https://raw.githubusercontent.com/OpenZeppelin/openzeppelin-contracts/v4.9.0/contracts/token/ERC20/ERC20.sol\":7768:7777  _balances */\n      0x00\n        /* \"https://raw.githubusercontent.com/OpenZeppelin/openzeppelin-contracts/v4.9.0/contracts/token/ERC20/ERC20.sol\":7768:7783  _balances[from] */\n      0x00\n        /* \"https://raw.githubusercontent.com/OpenZeppelin/openzeppelin-contracts/v4.9.0/contracts/token/ERC20/ERC20.sol\":7778:7782  from */\n      dup6\n        /* \"https://raw.githubusercontent.com/OpenZeppelin/openzeppelin-contracts/v4.9.0/contracts/token/ERC20/ERC20.sol\":7768:7783  _balances[from] */\n      0xffffffffffffffffffffffffffffffffffffffff\n      and\n      0xffffffffffffffffffffffffffffffffffffffff\n      and\n      dup2\n      mstore\n      0x20\n      add\n      swap1\n      dup2\n      mstore\n      0x20\n      add\n      0x00\n      keccak256\n      sload\n        /* \"https://raw.githubusercontent.com/OpenZeppelin/openzeppelin-contracts/v4.9.0/contracts/token/ERC20/ERC20.sol\":7746:7783  uint256 fromBalance = _balances[from] */\n      swap1\n      pop\n        /* \"https://raw.githubusercontent.com/OpenZeppelin/openzeppelin-contracts/v4.9.0/contracts/token/ERC20/ERC20.sol\":7816:7822  amount */\n      dup2\n        /* \"https://raw.githubusercontent.com/OpenZeppelin/openzeppelin-contracts/v4.9.0/contracts/token/ERC20/ERC20.sol\":7801:7812  fromBalance */\n      dup2\n        /* \"https://raw.githubusercontent.com/OpenZeppelin/openzeppelin-contracts/v4.9.0/contracts/token/ERC20/ERC20.sol\":7801:7822  fromBalance >= amount */\n      lt\n      iszero\n        /* \"https://raw.githubusercontent.com/OpenZeppelin/openzeppelin-contracts/v4.9.0/contracts/token/ERC20/ERC20.sol\":7793:7865  require(fromBalance >= amount, \"ERC20: transfer amount exceeds balance\") */\n      tag_217\n      jumpi\n      mload(0x40)\n      0x08c379a000000000000000000000000000000000000000000000000000000000\n      dup2\n      mstore\n      0x04\n      add\n      tag_218\n      swap1\n      tag_219\n      jump\t// in\n    tag_218:\n      mload(0x40)\n      dup1\n      swap2\n      sub\n      swap1\n      revert\n    tag_217:\n        /* \"https://raw.githubusercontent.com/OpenZeppelin/openzeppelin-contracts/v4.9.0/contracts/token/ERC20/ERC20.sol\":7931:7937  amount */\n      dup2\n        /* \"https://raw.githubusercontent.com/OpenZeppelin/openzeppelin-contracts/v4.9.0/contracts/token/ERC20/ERC20.sol\":7917:7928  fromBalance */\n      dup2\n        /* \"https://raw.githubusercontent.com/OpenZeppelin/openzeppelin-contracts/v4.9.0/contracts/token/ERC20/ERC20.sol\":7917:7937  fromBalance - amount */\n      sub\n        /* \"https://raw.githubusercontent.com/OpenZeppelin/openzeppelin-contracts/v4.9.0/contracts/token/ERC20/ERC20.sol\":7899:7908  _balances */\n      0x00\n        /* \"https://raw.githubusercontent.com/OpenZeppelin/openzeppelin-contracts/v4.9.0/contracts/token/ERC20/ERC20.sol\":7899:7914  _balances[from] */\n      0x00\n        /* \"https://raw.githubusercontent.com/OpenZeppelin/openzeppelin-contracts/v4.9.0/contracts/token/ERC20/ERC20.sol\":7909:7913  from */\n      dup7\n        /* \"https://raw.githubusercontent.com/OpenZeppelin/openzeppelin-contracts/v4.9.0/contracts/token/ERC20/ERC20.sol\":7899:7914  _balances[from] */\n      0xffffffffffffffffffffffffffffffffffffffff\n      and\n      0xffffffffffffffffffffffffffffffffffffffff\n      and\n      dup2\n      mstore\n      0x20\n      add\n      swap1\n      dup2\n      mstore\n      0x20\n      add\n      0x00\n      keccak256\n        /* \"https://raw.githubusercontent.com/OpenZeppelin/openzeppelin-contracts/v4.9.0/contracts/token/ERC20/ERC20.sol\":7899:7937  _balances[from] = fromBalance - amount */\n      dup2\n      swap1\n      sstore\n      pop\n        /* \"https://raw.githubusercontent.com/OpenZeppelin/openzeppelin-contracts/v4.9.0/contracts/token/ERC20/ERC20.sol\":8131:8137  amount */\n      dup2\n        /* \"https://raw.githubusercontent.com/OpenZeppelin/openzeppelin-contracts/v4.9.0/contracts/token/ERC20/ERC20.sol\":8114:8123  _balances */\n      0x00\n        /* \"https://raw.githubusercontent.com/OpenZeppelin/openzeppelin-contracts/v4.9.0/contracts/token/ERC20/ERC20.sol\":8114:8127  _balances[to] */\n      0x00\n        /* \"https://raw.githubusercontent.com/OpenZeppelin/openzeppelin-contracts/v4.9.0/contracts/token/ERC20/ERC20.sol\":8124:8126  to */\n      dup6\n        /* \"https://raw.githubusercontent.com/OpenZeppelin/openzeppelin-contracts/v4.9.0/contracts/token/ERC20/ERC20.sol\":8114:8127  _balances[to] */\n      0xffffffffffffffffffffffffffffffffffffffff\n      and\n      0xffffffffffffffffffffffffffffffffffffffff\n      and\n      dup2\n      mstore\n      0x20\n      add\n      swap1\n      dup2\n      mstore\n      0x20\n      add\n      0x00\n      keccak256\n      0x00\n        /* \"https://raw.githubusercontent.com/OpenZeppelin/openzeppelin-contracts/v4.9.0/contracts/token/ERC20/ERC20.sol\":8114:8137  _balances[to] += amount */\n      dup3\n      dup3\n      sload\n      add\n      swap3\n      pop\n      pop\n      dup2\n      swap1\n      sstore\n      pop\n        /* \"https://raw.githubusercontent.com/OpenZeppelin/openzeppelin-contracts/v4.9.0/contracts/token/ERC20/ERC20.sol\":8178:8180  to */\n      dup3\n        /* \"https://raw.githubusercontent.com/OpenZeppelin/openzeppelin-contracts/v4.9.0/contracts/token/ERC20/ERC20.sol\":8163:8189  Transfer(from, to, amount) */\n      0xffffffffffffffffffffffffffffffffffffffff\n      and\n        /* \"https://raw.githubusercontent.com/OpenZeppelin/openzeppelin-contracts/v4.9.0/contracts/token/ERC20/ERC20.sol\":8172:8176  from */\n      dup5\n        /* \"https://raw.githubusercontent.com/OpenZeppelin/openzeppelin-contracts/v4.9.0/contracts/token/ERC20/ERC20.sol\":8163:8189  Transfer(from, to, amount) */\n      0xffffffffffffffffffffffffffffffffffffffff\n      and\n      0xddf252ad1be2c89b69c2b068fc378daa952ba7f163c4a11628f55a4df523b3ef\n        /* \"https://raw.githubusercontent.com/OpenZeppelin/openzeppelin-contracts/v4.9.0/contracts/token/ERC20/ERC20.sol\":8182:8188  amount */\n      dup5\n        /* \"https://raw.githubusercontent.com/OpenZeppelin/openzeppelin-contracts/v4.9.0/contracts/token/ERC20/ERC20.sol\":8163:8189  Transfer(from, to, amount) */\n      mload(0x40)\n      tag_220\n      swap2\n      swap1\n      tag_40\n      jump\t// in\n    tag_220:\n      mload(0x40)\n      dup1\n      swap2\n      sub\n      swap1\n      log3\n        /* \"https://raw.githubusercontent.com/OpenZeppelin/openzeppelin-contracts/v4.9.0/contracts/token/ERC20/ERC20.sol\":8200:8237  _afterTokenTransfer(from, to, amount) */\n      tag_221\n        /* \"https://raw.githubusercontent.com/OpenZeppelin/openzeppelin-contracts/v4.9.0/contracts/token/ERC20/ERC20.sol\":8220:8224  from */\n      dup5\n        /* \"https://raw.githubusercontent.com/OpenZeppelin/openzeppelin-contracts/v4.9.0/contracts/token/ERC20/ERC20.sol\":8226:8228  to */\n      dup5\n        /* \"https://raw.githubusercontent.com/OpenZeppelin/openzeppelin-contracts/v4.9.0/contracts/token/ERC20/ERC20.sol\":8230:8236  amount */\n      dup5\n        /* \"https://raw.githubusercontent.com/OpenZeppelin/openzeppelin-contracts/v4.9.0/contracts/token/ERC20/ERC20.sol\":8200:8219  _afterTokenTransfer */\n      tag_222\n        /* \"https://raw.githubusercontent.com/OpenZeppelin/openzeppelin-contracts/v4.9.0/contracts/token/ERC20/ERC20.sol\":8200:8237  _afterTokenTransfer(from, to, amount) */\n      jump\t// in\n    tag_221:\n        /* \"https://raw.githubusercontent.com/OpenZeppelin/openzeppelin-contracts/v4.9.0/contracts/token/ERC20/ERC20.sol\":7534:8244  {... */\n      pop\n        /* \"https://raw.githubusercontent.com/OpenZeppelin/openzeppelin-contracts/v4.9.0/contracts/token/ERC20/ERC20.sol\":7456:8244  function _transfer(address from, address to, uint256 amount) internal virtual {... */\n      pop\n      pop\n      pop\n      jump\t// out\n        /* \"https://raw.githubusercontent.com/OpenZeppelin/openzeppelin-contracts/v4.9.0/contracts/access/Ownable.sol\":1359:1489  function _checkOwner() internal view virtual {... */\n    tag_132:\n        /* \"https://raw.githubusercontent.com/OpenZeppelin/openzeppelin-contracts/v4.9.0/contracts/access/Ownable.sol\":1433:1445  _msgSender() */\n      tag_224\n        /* \"https://raw.githubusercontent.com/OpenZeppelin/openzeppelin-contracts/v4.9.0/contracts/access/Ownable.sol\":1433:1443  _msgSender */\n      tag_113\n        /* \"https://raw.githubusercontent.com/OpenZeppelin/openzeppelin-contracts/v4.9.0/contracts/access/Ownable.sol\":1433:1445  _msgSender() */\n      jump\t// in\n    tag_224:\n        /* \"https://raw.githubusercontent.com/OpenZeppelin/openzeppelin-contracts/v4.9.0/contracts/access/Ownable.sol\":1422:1445  owner() == _msgSender() */\n      0xffffffffffffffffffffffffffffffffffffffff\n      and\n        /* \"https://raw.githubusercontent.com/OpenZeppelin/openzeppelin-contracts/v4.9.0/contracts/access/Ownable.sol\":1422:1429  owner() */\n      tag_225\n        /* \"https://raw.githubusercontent.com/OpenZeppelin/openzeppelin-contracts/v4.9.0/contracts/access/Ownable.sol\":1422:1427  owner */\n      tag_82\n        /* \"https://raw.githubusercontent.com/OpenZeppelin/openzeppelin-contracts/v4.9.0/contracts/access/Ownable.sol\":1422:1429  owner() */\n      jump\t// in\n    tag_225:\n        /* \"https://raw.githubusercontent.com/OpenZeppelin/openzeppelin-contracts/v4.9.0/contracts/access/Ownable.sol\":1422:1445  owner() == _msgSender() */\n      0xffffffffffffffffffffffffffffffffffffffff\n      and\n      eq\n        /* \"https://raw.githubusercontent.com/OpenZeppelin/openzeppelin-contracts/v4.9.0/contracts/access/Ownable.sol\":1414:1482  require(owner() == _msgSender(), \"Ownable: caller is not the owner\") */\n      tag_226\n      jumpi\n      mload(0x40)\n      0x08c379a000000000000000000000000000000000000000000000000000000000\n      dup2\n      mstore\n      0x04\n      add\n      tag_227\n      swap1\n      tag_228\n      jump\t// in\n    tag_227:\n      mload(0x40)\n      dup1\n      swap2\n      sub\n      swap1\n      revert\n    tag_226:\n        /* \"https://raw.githubusercontent.com/OpenZeppelin/openzeppelin-contracts/v4.9.0/contracts/access/Ownable.sol\":1359:1489  function _checkOwner() internal view virtual {... */\n      jump\t// out\n        /* \"https://raw.githubusercontent.com/OpenZeppelin/openzeppelin-contracts/v4.9.0/contracts/security/Pausable.sol\":2433:2550  function _unpause() internal virtual whenPaused {... */\n    tag_135:\n        /* \"https://raw.githubusercontent.com/OpenZeppelin/openzeppelin-contracts/v4.9.0/contracts/security/Pausable.sol\":1486:1502  _requirePaused() */\n      tag_230\n        /* \"https://raw.githubusercontent.com/OpenZeppelin/openzeppelin-contracts/v4.9.0/contracts/security/Pausable.sol\":1486:1500  _requirePaused */\n      tag_231\n        /* \"https://raw.githubusercontent.com/OpenZeppelin/openzeppelin-contracts/v4.9.0/contracts/security/Pausable.sol\":1486:1502  _requirePaused() */\n      jump\t// in\n    tag_230:\n        /* \"https://raw.githubusercontent.com/OpenZeppelin/openzeppelin-contracts/v4.9.0/contracts/security/Pausable.sol\":2501:2506  false */\n      0x00\n        /* \"https://raw.githubusercontent.com/OpenZeppelin/openzeppelin-contracts/v4.9.0/contracts/security/Pausable.sol\":2491:2498  _paused */\n      0x05\n      0x14\n        /* \"https://raw.githubusercontent.com/OpenZeppelin/openzeppelin-contracts/v4.9.0/contracts/security/Pausable.sol\":2491:2506  _paused = false */\n      0x0100\n      exp\n      dup2\n      sload\n      dup2\n      0xff\n      mul\n      not\n      and\n      swap1\n      dup4\n      iszero\n      iszero\n      mul\n      or\n      swap1\n      sstore\n      pop\n        /* \"https://raw.githubusercontent.com/OpenZeppelin/openzeppelin-contracts/v4.9.0/contracts/security/Pausable.sol\":2521:2543  Unpaused(_msgSender()) */\n      0x5db9ee0a495bf2e6ff9c91a7834c1ba4fdd244a5e8aa4e537bd38aeae4b073aa\n        /* \"https://raw.githubusercontent.com/OpenZeppelin/openzeppelin-contracts/v4.9.0/contracts/security/Pausable.sol\":2530:2542  _msgSender() */\n      tag_233\n        /* \"https://raw.githubusercontent.com/OpenZeppelin/openzeppelin-contracts/v4.9.0/contracts/security/Pausable.sol\":2530:2540  _msgSender */\n      tag_113\n        /* \"https://raw.githubusercontent.com/OpenZeppelin/openzeppelin-contracts/v4.9.0/contracts/security/Pausable.sol\":2530:2542  _msgSender() */\n      jump\t// in\n    tag_233:\n        /* \"https://raw.githubusercontent.com/OpenZeppelin/openzeppelin-contracts/v4.9.0/contracts/security/Pausable.sol\":2521:2543  Unpaused(_msgSender()) */\n      mload(0x40)\n      tag_234\n      swap2\n      swap1\n      tag_84\n      jump\t// in\n    tag_234:\n      mload(0x40)\n      dup1\n      swap2\n      sub\n      swap1\n      log1\n        /* \"https://raw.githubusercontent.com/OpenZeppelin/openzeppelin-contracts/v4.9.0/contracts/security/Pausable.sol\":2433:2550  function _unpause() internal virtual whenPaused {... */\n      jump\t// out\n        /* \"https://raw.githubusercontent.com/OpenZeppelin/openzeppelin-contracts/v4.9.0/contracts/token/ERC20/ERC20.sol\":8520:9055  function _mint(address account, uint256 amount) internal virtual {... */\n    tag_145:\n        /* \"https://raw.githubusercontent.com/OpenZeppelin/openzeppelin-contracts/v4.9.0/contracts/token/ERC20/ERC20.sol\":8622:8623  0 */\n      0x00\n        /* \"https://raw.githubusercontent.com/OpenZeppelin/openzeppelin-contracts/v4.9.0/contracts/token/ERC20/ERC20.sol\":8603:8624  account != address(0) */\n      0xffffffffffffffffffffffffffffffffffffffff\n      and\n        /* \"https://raw.githubusercontent.com/OpenZeppelin/openzeppelin-contracts/v4.9.0/contracts/token/ERC20/ERC20.sol\":8603:8610  account */\n      dup3\n        /* \"https://raw.githubusercontent.com/OpenZeppelin/openzeppelin-contracts/v4.9.0/contracts/token/ERC20/ERC20.sol\":8603:8624  account != address(0) */\n      0xffffffffffffffffffffffffffffffffffffffff\n      and\n      sub\n        /* \"https://raw.githubusercontent.com/OpenZeppelin/openzeppelin-contracts/v4.9.0/contracts/token/ERC20/ERC20.sol\":8595:8660  require(account != address(0), \"ERC20: mint to the zero address\") */\n      tag_236\n      jumpi\n      mload(0x40)\n      0x08c379a000000000000000000000000000000000000000000000000000000000\n      dup2\n      mstore\n      0x04\n      add\n      tag_237\n      swap1\n      tag_238\n      jump\t// in\n    tag_237:\n      mload(0x40)\n      dup1\n      swap2\n      sub\n      swap1\n      revert\n    tag_236:\n        /* \"https://raw.githubusercontent.com/OpenZeppelin/openzeppelin-contracts/v4.9.0/contracts/token/ERC20/ERC20.sol\":8671:8720  _beforeTokenTransfer(address(0), account, amount) */\n      tag_239\n        /* \"https://raw.githubusercontent.com/OpenZeppelin/openzeppelin-contracts/v4.9.0/contracts/token/ERC20/ERC20.sol\":8700:8701  0 */\n      0x00\n        /* \"https://raw.githubusercontent.com/OpenZeppelin/openzeppelin-contracts/v4.9.0/contracts/token/ERC20/ERC20.sol\":8704:8711  account */\n      dup4\n        /* \"https://raw.githubusercontent.com/OpenZeppelin/openzeppelin-contracts/v4.9.0/contracts/token/ERC20/ERC20.sol\":8713:8719  amount */\n      dup4\n        /* \"https://raw.githubusercontent.com/OpenZeppelin/openzeppelin-contracts/v4.9.0/contracts/token/ERC20/ERC20.sol\":8671:8691  _beforeTokenTransfer */\n      tag_216\n        /* \"https://raw.githubusercontent.com/OpenZeppelin/openzeppelin-contracts/v4.9.0/contracts/token/ERC20/ERC20.sol\":8671:8720  _beforeTokenTransfer(address(0), account, amount) */\n      jump\t// in\n    tag_239:\n        /* \"https://raw.githubusercontent.com/OpenZeppelin/openzeppelin-contracts/v4.9.0/contracts/token/ERC20/ERC20.sol\":8747:8753  amount */\n      dup1\n        /* \"https://raw.githubusercontent.com/OpenZeppelin/openzeppelin-contracts/v4.9.0/contracts/token/ERC20/ERC20.sol\":8731:8743  _totalSupply */\n      0x02\n      0x00\n        /* \"https://raw.githubusercontent.com/OpenZeppelin/openzeppelin-contracts/v4.9.0/contracts/token/ERC20/ERC20.sol\":8731:8753  _totalSupply += amount */\n      dup3\n      dup3\n      sload\n      tag_240\n      swap2\n      swap1\n      tag_129\n      jump\t// in\n    tag_240:\n      swap3\n      pop\n      pop\n      dup2\n      swap1\n      sstore\n      pop\n        /* \"https://raw.githubusercontent.com/OpenZeppelin/openzeppelin-contracts/v4.9.0/contracts/token/ERC20/ERC20.sol\":8921:8927  amount */\n      dup1\n        /* \"https://raw.githubusercontent.com/OpenZeppelin/openzeppelin-contracts/v4.9.0/contracts/token/ERC20/ERC20.sol\":8899:8908  _balances */\n      0x00\n        /* \"https://raw.githubusercontent.com/OpenZeppelin/openzeppelin-contracts/v4.9.0/contracts/token/ERC20/ERC20.sol\":8899:8917  _balances[account] */\n      0x00\n        /* \"https://raw.githubusercontent.com/OpenZeppelin/openzeppelin-contracts/v4.9.0/contracts/token/ERC20/ERC20.sol\":8909:8916  account */\n      dup5\n        /* \"https://raw.githubusercontent.com/OpenZeppelin/openzeppelin-contracts/v4.9.0/contracts/token/ERC20/ERC20.sol\":8899:8917  _balances[account] */\n      0xffffffffffffffffffffffffffffffffffffffff\n      and\n      0xffffffffffffffffffffffffffffffffffffffff\n      and\n      dup2\n      mstore\n      0x20\n      add\n      swap1\n      dup2\n      mstore\n      0x20\n      add\n      0x00\n      keccak256\n      0x00\n        /* \"https://raw.githubusercontent.com/OpenZeppelin/openzeppelin-contracts/v4.9.0/contracts/token/ERC20/ERC20.sol\":8899:8927  _balances[account] += amount */\n      dup3\n      dup3\n      sload\n      add\n      swap3\n      pop\n      pop\n      dup2\n      swap1\n      sstore\n      pop\n        /* \"https://raw.githubusercontent.com/OpenZeppelin/openzeppelin-contracts/v4.9.0/contracts/token/ERC20/ERC20.sol\":8973:8980  account */\n      dup2\n        /* \"https://raw.githubusercontent.com/OpenZeppelin/openzeppelin-contracts/v4.9.0/contracts/token/ERC20/ERC20.sol\":8952:8989  Transfer(address(0), account, amount) */\n      0xffffffffffffffffffffffffffffffffffffffff\n      and\n        /* \"https://raw.githubusercontent.com/OpenZeppelin/openzeppelin-contracts/v4.9.0/contracts/token/ERC20/ERC20.sol\":8969:8970  0 */\n      0x00\n        /* \"https://raw.githubusercontent.com/OpenZeppelin/openzeppelin-contracts/v4.9.0/contracts/token/ERC20/ERC20.sol\":8952:8989  Transfer(address(0), account, amount) */\n      0xffffffffffffffffffffffffffffffffffffffff\n      and\n      0xddf252ad1be2c89b69c2b068fc378daa952ba7f163c4a11628f55a4df523b3ef\n        /* \"https://raw.githubusercontent.com/OpenZeppelin/openzeppelin-contracts/v4.9.0/contracts/token/ERC20/ERC20.sol\":8982:8988  amount */\n      dup4\n        /* \"https://raw.githubusercontent.com/OpenZeppelin/openzeppelin-contracts/v4.9.0/contracts/token/ERC20/ERC20.sol\":8952:8989  Transfer(address(0), account, amount) */\n      mload(0x40)\n      tag_241\n      swap2\n      swap1\n      tag_40\n      jump\t// in\n    tag_241:\n      mload(0x40)\n      dup1\n      swap2\n      sub\n      swap1\n      log3\n        /* \"https://raw.githubusercontent.com/OpenZeppelin/openzeppelin-contracts/v4.9.0/contracts/token/ERC20/ERC20.sol\":9000:9048  _afterTokenTransfer(address(0), account, amount) */\n      tag_242\n        /* \"https://raw.githubusercontent.com/OpenZeppelin/openzeppelin-contracts/v4.9.0/contracts/token/ERC20/ERC20.sol\":9028:9029  0 */\n      0x00\n        /* \"https://raw.githubusercontent.com/OpenZeppelin/openzeppelin-contracts/v4.9.0/contracts/token/ERC20/ERC20.sol\":9032:9039  account */\n      dup4\n        /* \"https://raw.githubusercontent.com/OpenZeppelin/openzeppelin-contracts/v4.9.0/contracts/token/ERC20/ERC20.sol\":9041:9047  amount */\n      dup4\n        /* \"https://raw.githubusercontent.com/OpenZeppelin/openzeppelin-contracts/v4.9.0/contracts/token/ERC20/ERC20.sol\":9000:9019  _afterTokenTransfer */\n      tag_222\n        /* \"https://raw.githubusercontent.com/OpenZeppelin/openzeppelin-contracts/v4.9.0/contracts/token/ERC20/ERC20.sol\":9000:9048  _afterTokenTransfer(address(0), account, amount) */\n      jump\t// in\n    tag_242:\n        /* \"https://raw.githubusercontent.com/OpenZeppelin/openzeppelin-contracts/v4.9.0/contracts/token/ERC20/ERC20.sol\":8520:9055  function _mint(address account, uint256 amount) internal virtual {... */\n      pop\n      pop\n      jump\t// out\n        /* \"https://raw.githubusercontent.com/OpenZeppelin/openzeppelin-contracts/v4.9.0/contracts/token/ERC20/ERC20.sol\":9375:10034  function _burn(address account, uint256 amount) internal virtual {... */\n    tag_150:\n        /* \"https://raw.githubusercontent.com/OpenZeppelin/openzeppelin-contracts/v4.9.0/contracts/token/ERC20/ERC20.sol\":9477:9478  0 */\n      0x00\n        /* \"https://raw.githubusercontent.com/OpenZeppelin/openzeppelin-contracts/v4.9.0/contracts/token/ERC20/ERC20.sol\":9458:9479  account != address(0) */\n      0xffffffffffffffffffffffffffffffffffffffff\n      and\n        /* \"https://raw.githubusercontent.com/OpenZeppelin/openzeppelin-contracts/v4.9.0/contracts/token/ERC20/ERC20.sol\":9458:9465  account */\n      dup3\n        /* \"https://raw.githubusercontent.com/OpenZeppelin/openzeppelin-contracts/v4.9.0/contracts/token/ERC20/ERC20.sol\":9458:9479  account != address(0) */\n      0xffffffffffffffffffffffffffffffffffffffff\n      and\n      sub\n        /* \"https://raw.githubusercontent.com/OpenZeppelin/openzeppelin-contracts/v4.9.0/contracts/token/ERC20/ERC20.sol\":9450:9517  require(account != address(0), \"ERC20: burn from the zero address\") */\n      tag_244\n      jumpi\n      mload(0x40)\n      0x08c379a000000000000000000000000000000000000000000000000000000000\n      dup2\n      mstore\n      0x04\n      add\n      tag_245\n      swap1\n      tag_246\n      jump\t// in\n    tag_245:\n      mload(0x40)\n      dup1\n      swap2\n      sub\n      swap1\n      revert\n    tag_244:\n        /* \"https://raw.githubusercontent.com/OpenZeppelin/openzeppelin-contracts/v4.9.0/contracts/token/ERC20/ERC20.sol\":9528:9577  _beforeTokenTransfer(account, address(0), amount) */\n      tag_247\n        /* \"https://raw.githubusercontent.com/OpenZeppelin/openzeppelin-contracts/v4.9.0/contracts/token/ERC20/ERC20.sol\":9549:9556  account */\n      dup3\n        /* \"https://raw.githubusercontent.com/OpenZeppelin/openzeppelin-contracts/v4.9.0/contracts/token/ERC20/ERC20.sol\":9566:9567  0 */\n      0x00\n        /* \"https://raw.githubusercontent.com/OpenZeppelin/openzeppelin-contracts/v4.9.0/contracts/token/ERC20/ERC20.sol\":9570:9576  amount */\n      dup4\n        /* \"https://raw.githubusercontent.com/OpenZeppelin/openzeppelin-contracts/v4.9.0/contracts/token/ERC20/ERC20.sol\":9528:9548  _beforeTokenTransfer */\n      tag_216\n        /* \"https://raw.githubusercontent.com/OpenZeppelin/openzeppelin-contracts/v4.9.0/contracts/token/ERC20/ERC20.sol\":9528:9577  _beforeTokenTransfer(account, address(0), amount) */\n      jump\t// in\n    tag_247:\n        /* \"https://raw.githubusercontent.com/OpenZeppelin/openzeppelin-contracts/v4.9.0/contracts/token/ERC20/ERC20.sol\":9588:9610  uint256 accountBalance */\n      0x00\n        /* \"https://raw.githubusercontent.com/OpenZeppelin/openzeppelin-contracts/v4.9.0/contracts/token/ERC20/ERC20.sol\":9613:9622  _balances */\n      0x00\n        /* \"https://raw.githubusercontent.com/OpenZeppelin/openzeppelin-contracts/v4.9.0/contracts/token/ERC20/ERC20.sol\":9613:9631  _balances[account] */\n      0x00\n        /* \"https://raw.githubusercontent.com/OpenZeppelin/openzeppelin-contracts/v4.9.0/contracts/token/ERC20/ERC20.sol\":9623:9630  account */\n      dup5\n        /* \"https://raw.githubusercontent.com/OpenZeppelin/openzeppelin-contracts/v4.9.0/contracts/token/ERC20/ERC20.sol\":9613:9631  _balances[account] */\n      0xffffffffffffffffffffffffffffffffffffffff\n      and\n      0xffffffffffffffffffffffffffffffffffffffff\n      and\n      dup2\n      mstore\n      0x20\n      add\n      swap1\n      dup2\n      mstore\n      0x20\n      add\n      0x00\n      keccak256\n      sload\n        /* \"https://raw.githubusercontent.com/OpenZeppelin/openzeppelin-contracts/v4.9.0/contracts/token/ERC20/ERC20.sol\":9588:9631  uint256 accountBalance = _balances[account] */\n      swap1\n      pop\n        /* \"https://raw.githubusercontent.com/OpenZeppelin/openzeppelin-contracts/v4.9.0/contracts/token/ERC20/ERC20.sol\":9667:9673  amount */\n      dup2\n        /* \"https://raw.githubusercontent.com/OpenZeppelin/openzeppelin-contracts/v4.9.0/contracts/token/ERC20/ERC20.sol\":9649:9663  accountBalance */\n      dup2\n        /* \"https://raw.githubusercontent.com/OpenZeppelin/openzeppelin-contracts/v4.9.0/contracts/token/ERC20/ERC20.sol\":9649:9673  accountBalance >= amount */\n      lt\n      iszero\n        /* \"https://raw.githubusercontent.com/OpenZeppelin/openzeppelin-contracts/v4.9.0/contracts/token/ERC20/ERC20.sol\":9641:9712  require(accountBalance >= amount, \"ERC20: burn amount exceeds balance\") */\n      tag_248\n      jumpi\n      mload(0x40)\n      0x08c379a000000000000000000000000000000000000000000000000000000000\n      dup2\n      mstore\n      0x04\n      add\n      tag_249\n      swap1\n      tag_250\n      jump\t// in\n    tag_249:\n      mload(0x40)\n      dup1\n      swap2\n      sub\n      swap1\n      revert\n    tag_248:\n        /* \"https://raw.githubusercontent.com/OpenZeppelin/openzeppelin-contracts/v4.9.0/contracts/token/ERC20/ERC20.sol\":9784:9790  amount */\n      dup2\n        /* \"https://raw.githubusercontent.com/OpenZeppelin/openzeppelin-contracts/v4.9.0/contracts/token/ERC20/ERC20.sol\":9767:9781  accountBalance */\n      dup2\n        /* \"https://raw.githubusercontent.com/OpenZeppelin/openzeppelin-contracts/v4.9.0/contracts/token/ERC20/ERC20.sol\":9767:9790  accountBalance - amount */\n      sub\n        /* \"https://raw.githubusercontent.com/OpenZeppelin/openzeppelin-contracts/v4.9.0/contracts/token/ERC20/ERC20.sol\":9746:9755  _balances */\n      0x00\n        /* \"https://raw.githubusercontent.com/OpenZeppelin/openzeppelin-contracts/v4.9.0/contracts/token/ERC20/ERC20.sol\":9746:9764  _balances[account] */\n      0x00\n        /* \"https://raw.githubusercontent.com/OpenZeppelin/openzeppelin-contracts/v4.9.0/contracts/token/ERC20/ERC20.sol\":9756:9763  account */\n      dup6\n        /* \"https://raw.githubusercontent.com/OpenZeppelin/openzeppelin-contracts/v4.9.0/contracts/token/ERC20/ERC20.sol\":9746:9764  _balances[account] */\n      0xffffffffffffffffffffffffffffffffffffffff\n      and\n      0xffffffffffffffffffffffffffffffffffffffff\n      and\n      dup2\n      mstore\n      0x20\n      add\n      swap1\n      dup2\n      mstore\n      0x20\n      add\n      0x00\n      keccak256\n        /* \"https://raw.githubusercontent.com/OpenZeppelin/openzeppelin-contracts/v4.9.0/contracts/token/ERC20/ERC20.sol\":9746:9790  _balances[account] = accountBalance - amount */\n      dup2\n      swap1\n      sstore\n      pop\n        /* \"https://raw.githubusercontent.com/OpenZeppelin/openzeppelin-contracts/v4.9.0/contracts/token/ERC20/ERC20.sol\":9899:9905  amount */\n      dup2\n        /* \"https://raw.githubusercontent.com/OpenZeppelin/openzeppelin-contracts/v4.9.0/contracts/token/ERC20/ERC20.sol\":9883:9895  _totalSupply */\n      0x02\n      0x00\n        /* \"https://raw.githubusercontent.com/OpenZeppelin/openzeppelin-contracts/v4.9.0/contracts/token/ERC20/ERC20.sol\":9883:9905  _totalSupply -= amount */\n      dup3\n      dup3\n      sload\n      sub\n      swap3\n      pop\n      pop\n      dup2\n      swap1\n      sstore\n      pop\n        /* \"https://raw.githubusercontent.com/OpenZeppelin/openzeppelin-contracts/v4.9.0/contracts/token/ERC20/ERC20.sol\":9957:9958  0 */\n      0x00\n        /* \"https://raw.githubusercontent.com/OpenZeppelin/openzeppelin-contracts/v4.9.0/contracts/token/ERC20/ERC20.sol\":9931:9968  Transfer(account, address(0), amount) */\n      0xffffffffffffffffffffffffffffffffffffffff\n      and\n        /* \"https://raw.githubusercontent.com/OpenZeppelin/openzeppelin-contracts/v4.9.0/contracts/token/ERC20/ERC20.sol\":9940:9947  account */\n      dup4\n        /* \"https://raw.githubusercontent.com/OpenZeppelin/openzeppelin-contracts/v4.9.0/contracts/token/ERC20/ERC20.sol\":9931:9968  Transfer(account, address(0), amount) */\n      0xffffffffffffffffffffffffffffffffffffffff\n      and\n      0xddf252ad1be2c89b69c2b068fc378daa952ba7f163c4a11628f55a4df523b3ef\n        /* \"https://raw.githubusercontent.com/OpenZeppelin/openzeppelin-contracts/v4.9.0/contracts/token/ERC20/ERC20.sol\":9961:9967  amount */\n      dup5\n        /* \"https://raw.githubusercontent.com/OpenZeppelin/openzeppelin-contracts/v4.9.0/contracts/token/ERC20/ERC20.sol\":9931:9968  Transfer(account, address(0), amount) */\n      mload(0x40)\n      tag_251\n      swap2\n      swap1\n      tag_40\n      jump\t// in\n    tag_251:\n      mload(0x40)\n      dup1\n      swap2\n      sub\n      swap1\n      log3\n        /* \"https://raw.githubusercontent.com/OpenZeppelin/openzeppelin-contracts/v4.9.0/contracts/token/ERC20/ERC20.sol\":9979:10027  _afterTokenTransfer(account, address(0), amount) */\n      tag_252\n        /* \"https://raw.githubusercontent.com/OpenZeppelin/openzeppelin-contracts/v4.9.0/contracts/token/ERC20/ERC20.sol\":9999:10006  account */\n      dup4\n        /* \"https://raw.githubusercontent.com/OpenZeppelin/openzeppelin-contracts/v4.9.0/contracts/token/ERC20/ERC20.sol\":10016:10017  0 */\n      0x00\n        /* \"https://raw.githubusercontent.com/OpenZeppelin/openzeppelin-contracts/v4.9.0/contracts/token/ERC20/ERC20.sol\":10020:10026  amount */\n      dup5\n        /* \"https://raw.githubusercontent.com/OpenZeppelin/openzeppelin-contracts/v4.9.0/contracts/token/ERC20/ERC20.sol\":9979:9998  _afterTokenTransfer */\n      tag_222\n        /* \"https://raw.githubusercontent.com/OpenZeppelin/openzeppelin-contracts/v4.9.0/contracts/token/ERC20/ERC20.sol\":9979:10027  _afterTokenTransfer(account, address(0), amount) */\n      jump\t// in\n    tag_252:\n        /* \"https://raw.githubusercontent.com/OpenZeppelin/openzeppelin-contracts/v4.9.0/contracts/token/ERC20/ERC20.sol\":9440:10034  {... */\n      pop\n        /* \"https://raw.githubusercontent.com/OpenZeppelin/openzeppelin-contracts/v4.9.0/contracts/token/ERC20/ERC20.sol\":9375:10034  function _burn(address account, uint256 amount) internal virtual {... */\n      pop\n      pop\n      jump\t// out\n        /* \"https://raw.githubusercontent.com/OpenZeppelin/openzeppelin-contracts/v4.9.0/contracts/access/Ownable.sol\":2426:2613  function _transferOwnership(address newOwner) internal virtual {... */\n    tag_157:\n        /* \"https://raw.githubusercontent.com/OpenZeppelin/openzeppelin-contracts/v4.9.0/contracts/access/Ownable.sol\":2499:2515  address oldOwner */\n      0x00\n        /* \"https://raw.githubusercontent.com/OpenZeppelin/openzeppelin-contracts/v4.9.0/contracts/access/Ownable.sol\":2518:2524  _owner */\n      0x05\n      0x00\n      swap1\n      sload\n      swap1\n      0x0100\n      exp\n      swap1\n      div\n      0xffffffffffffffffffffffffffffffffffffffff\n      and\n        /* \"https://raw.githubusercontent.com/OpenZeppelin/openzeppelin-contracts/v4.9.0/contracts/access/Ownable.sol\":2499:2524  address oldOwner = _owner */\n      swap1\n      pop\n        /* \"https://raw.githubusercontent.com/OpenZeppelin/openzeppelin-contracts/v4.9.0/contracts/access/Ownable.sol\":2543:2551  newOwner */\n      dup2\n        /* \"https://raw.githubusercontent.com/OpenZeppelin/openzeppelin-contracts/v4.9.0/contracts/access/Ownable.sol\":2534:2540  _owner */\n      0x05\n      0x00\n        /* \"https://raw.githubusercontent.com/OpenZeppelin/openzeppelin-contracts/v4.9.0/contracts/access/Ownable.sol\":2534:2551  _owner = newOwner */\n      0x0100\n      exp\n      dup2\n      sload\n      dup2\n      0xffffffffffffffffffffffffffffffffffffffff\n      mul\n      not\n      and\n      swap1\n      dup4\n      0xffffffffffffffffffffffffffffffffffffffff\n      and\n      mul\n      or\n      swap1\n      sstore\n      pop\n        /* \"https://raw.githubusercontent.com/OpenZeppelin/openzeppelin-contracts/v4.9.0/contracts/access/Ownable.sol\":2597:2605  newOwner */\n      dup2\n        /* \"https://raw.githubusercontent.com/OpenZeppelin/openzeppelin-contracts/v4.9.0/contracts/access/Ownable.sol\":2566:2606  OwnershipTransferred(oldOwner, newOwner) */\n      0xffffffffffffffffffffffffffffffffffffffff\n      and\n        /* \"https://raw.githubusercontent.com/OpenZeppelin/openzeppelin-contracts/v4.9.0/contracts/access/Ownable.sol\":2587:2595  oldOwner */\n      dup2\n        /* \"https://raw.githubusercontent.com/OpenZeppelin/openzeppelin-contracts/v4.9.0/contracts/access/Ownable.sol\":2566:2606  OwnershipTransferred(oldOwner, newOwner) */\n      0xffffffffffffffffffffffffffffffffffffffff\n      and\n      0x8be0079c531659141344cd1fd0a4f28419497f9722a3daafe3b4186f6b6457e0\n      mload(0x40)\n      mload(0x40)\n      dup1\n      swap2\n      sub\n      swap1\n      log3\n        /* \"https://raw.githubusercontent.com/OpenZeppelin/openzeppelin-contracts/v4.9.0/contracts/access/Ownable.sol\":2489:2613  {... */\n      pop\n        /* \"https://raw.githubusercontent.com/OpenZeppelin/openzeppelin-contracts/v4.9.0/contracts/access/Ownable.sol\":2426:2613  function _transferOwnership(address newOwner) internal virtual {... */\n      pop\n      jump\t// out\n        /* \"https://raw.githubusercontent.com/OpenZeppelin/openzeppelin-contracts/v4.9.0/contracts/security/Pausable.sol\":2186:2301  function _pause() internal virtual whenNotPaused {... */\n    tag_166:\n        /* \"https://raw.githubusercontent.com/OpenZeppelin/openzeppelin-contracts/v4.9.0/contracts/security/Pausable.sol\":1239:1258  _requireNotPaused() */\n      tag_255\n        /* \"https://raw.githubusercontent.com/OpenZeppelin/openzeppelin-contracts/v4.9.0/contracts/security/Pausable.sol\":1239:1256  _requireNotPaused */\n      tag_256\n        /* \"https://raw.githubusercontent.com/OpenZeppelin/openzeppelin-contracts/v4.9.0/contracts/security/Pausable.sol\":1239:1258  _requireNotPaused() */\n      jump\t// in\n    tag_255:\n        /* \"https://raw.githubusercontent.com/OpenZeppelin/openzeppelin-contracts/v4.9.0/contracts/security/Pausable.sol\":2255:2259  true */\n      0x01\n        /* \"https://raw.githubusercontent.com/OpenZeppelin/openzeppelin-contracts/v4.9.0/contracts/security/Pausable.sol\":2245:2252  _paused */\n      0x05\n      0x14\n        /* \"https://raw.githubusercontent.com/OpenZeppelin/openzeppelin-contracts/v4.9.0/contracts/security/Pausable.sol\":2245:2259  _paused = true */\n      0x0100\n      exp\n      dup2\n      sload\n      dup2\n      0xff\n      mul\n      not\n      and\n      swap1\n      dup4\n      iszero\n      iszero\n      mul\n      or\n      swap1\n      sstore\n      pop\n        /* \"https://raw.githubusercontent.com/OpenZeppelin/openzeppelin-contracts/v4.9.0/contracts/security/Pausable.sol\":2274:2294  Paused(_msgSender()) */\n      0x62e78cea01bee320cd4e420270b5ea74000d11b0c9f74754ebdbfc544b05a258\n        /* \"https://raw.githubusercontent.com/OpenZeppelin/openzeppelin-contracts/v4.9.0/contracts/security/Pausable.sol\":2281:2293  _msgSender() */\n      tag_258\n        /* \"https://raw.githubusercontent.com/OpenZeppelin/openzeppelin-contracts/v4.9.0/contracts/security/Pausable.sol\":2281:2291  _msgSender */\n      tag_113\n        /* \"https://raw.githubusercontent.com/OpenZeppelin/openzeppelin-contracts/v4.9.0/contracts/security/Pausable.sol\":2281:2293  _msgSender() */\n      jump\t// in\n    tag_258:\n        /* \"https://raw.githubusercontent.com/OpenZeppelin/openzeppelin-contracts/v4.9.0/contracts/security/Pausable.sol\":2274:2294  Paused(_msgSender()) */\n      mload(0x40)\n      tag_259\n      swap2\n      swap1\n      tag_84\n      jump\t// in\n    tag_259:\n      mload(0x40)\n      dup1\n      swap2\n      sub\n      swap1\n      log1\n        /* \"https://raw.githubusercontent.com/OpenZeppelin/openzeppelin-contracts/v4.9.0/contracts/security/Pausable.sol\":2186:2301  function _pause() internal virtual whenNotPaused {... */\n      jump\t// out\n        /* \"contracts/IncaKolaNFT.sol\":4092:4395  function _beforeTokenTransfer(address from, address to, uint256 amount) internal override {... */\n    tag_216:\n        /* \"contracts/IncaKolaNFT.sol\":4193:4237  super._beforeTokenTransfer(from, to, amount) */\n      tag_261\n        /* \"contracts/IncaKolaNFT.sol\":4220:4224  from */\n      dup4\n        /* \"contracts/IncaKolaNFT.sol\":4226:4228  to */\n      dup4\n        /* \"contracts/IncaKolaNFT.sol\":4230:4236  amount */\n      dup4\n        /* \"contracts/IncaKolaNFT.sol\":4193:4219  super._beforeTokenTransfer */\n      tag_262\n        /* \"contracts/IncaKolaNFT.sol\":4193:4237  super._beforeTokenTransfer(from, to, amount) */\n      jump\t// in\n    tag_261:\n        /* \"contracts/IncaKolaNFT.sol\":4297:4305  paused() */\n      tag_263\n        /* \"contracts/IncaKolaNFT.sol\":4297:4303  paused */\n      tag_67\n        /* \"contracts/IncaKolaNFT.sol\":4297:4305  paused() */\n      jump\t// in\n    tag_263:\n        /* \"contracts/IncaKolaNFT.sol\":4296:4305  !paused() */\n      iszero\n        /* \"contracts/IncaKolaNFT.sol\":4288:4337  require(!paused(), \"token transfer while paused\") */\n      tag_264\n      jumpi\n      mload(0x40)\n      0x08c379a000000000000000000000000000000000000000000000000000000000\n      dup2\n      mstore\n      0x04\n      add\n      tag_265\n      swap1\n      tag_266\n      jump\t// in\n    tag_265:\n      mload(0x40)\n      dup1\n      swap2\n      sub\n      swap1\n      revert\n    tag_264:\n        /* \"contracts/IncaKolaNFT.sol\":4092:4395  function _beforeTokenTransfer(address from, address to, uint256 amount) internal override {... */\n      pop\n      pop\n      pop\n      jump\t// out\n        /* \"https://raw.githubusercontent.com/OpenZeppelin/openzeppelin-contracts/v4.9.0/contracts/token/ERC20/ERC20.sol\":12752:12842  function _afterTokenTransfer(address from, address to, uint256 amount) internal virtual {} */\n    tag_222:\n      pop\n      pop\n      pop\n      jump\t// out\n        /* \"https://raw.githubusercontent.com/OpenZeppelin/openzeppelin-contracts/v4.9.0/contracts/security/Pausable.sol\":1945:2051  function _requirePaused() internal view virtual {... */\n    tag_231:\n        /* \"https://raw.githubusercontent.com/OpenZeppelin/openzeppelin-contracts/v4.9.0/contracts/security/Pausable.sol\":2011:2019  paused() */\n      tag_269\n        /* \"https://raw.githubusercontent.com/OpenZeppelin/openzeppelin-contracts/v4.9.0/contracts/security/Pausable.sol\":2011:2017  paused */\n      tag_67\n        /* \"https://raw.githubusercontent.com/OpenZeppelin/openzeppelin-contracts/v4.9.0/contracts/security/Pausable.sol\":2011:2019  paused() */\n      jump\t// in\n    tag_269:\n        /* \"https://raw.githubusercontent.com/OpenZeppelin/openzeppelin-contracts/v4.9.0/contracts/security/Pausable.sol\":2003:2044  require(paused(), \"Pausable: not paused\") */\n      tag_270\n      jumpi\n      mload(0x40)\n      0x08c379a000000000000000000000000000000000000000000000000000000000\n      dup2\n      mstore\n      0x04\n      add\n      tag_271\n      swap1\n      tag_272\n      jump\t// in\n    tag_271:\n      mload(0x40)\n      dup1\n      swap2\n      sub\n      swap1\n      revert\n    tag_270:\n        /* \"https://raw.githubusercontent.com/OpenZeppelin/openzeppelin-contracts/v4.9.0/contracts/security/Pausable.sol\":1945:2051  function _requirePaused() internal view virtual {... */\n      jump\t// out\n        /* \"https://raw.githubusercontent.com/OpenZeppelin/openzeppelin-contracts/v4.9.0/contracts/security/Pausable.sol\":1767:1873  function _requireNotPaused() internal view virtual {... */\n    tag_256:\n        /* \"https://raw.githubusercontent.com/OpenZeppelin/openzeppelin-contracts/v4.9.0/contracts/security/Pausable.sol\":1837:1845  paused() */\n      tag_274\n        /* \"https://raw.githubusercontent.com/OpenZeppelin/openzeppelin-contracts/v4.9.0/contracts/security/Pausable.sol\":1837:1843  paused */\n      tag_67\n        /* \"https://raw.githubusercontent.com/OpenZeppelin/openzeppelin-contracts/v4.9.0/contracts/security/Pausable.sol\":1837:1845  paused() */\n      jump\t// in\n    tag_274:\n        /* \"https://raw.githubusercontent.com/OpenZeppelin/openzeppelin-contracts/v4.9.0/contracts/security/Pausable.sol\":1836:1845  !paused() */\n      iszero\n        /* \"https://raw.githubusercontent.com/OpenZeppelin/openzeppelin-contracts/v4.9.0/contracts/security/Pausable.sol\":1828:1866  require(!paused(), \"Pausable: paused\") */\n      tag_275\n      jumpi\n      mload(0x40)\n      0x08c379a000000000000000000000000000000000000000000000000000000000\n      dup2\n      mstore\n      0x04\n      add\n      tag_276\n      swap1\n      tag_277\n      jump\t// in\n    tag_276:\n      mload(0x40)\n      dup1\n      swap2\n      sub\n      swap1\n      revert\n    tag_275:\n        /* \"https://raw.githubusercontent.com/OpenZeppelin/openzeppelin-contracts/v4.9.0/contracts/security/Pausable.sol\":1767:1873  function _requireNotPaused() internal view virtual {... */\n      jump\t// out\n        /* \"https://raw.githubusercontent.com/OpenZeppelin/openzeppelin-contracts/v4.9.0/contracts/token/ERC20/ERC20.sol\":12073:12164  function _beforeTokenTransfer(address from, address to, uint256 amount) internal virtual {} */\n    tag_262:\n      pop\n      pop\n      pop\n      jump\t// out\n        /* \"#utility.yul\":7:106   */\n    tag_279:\n        /* \"#utility.yul\":59:65   */\n      0x00\n        /* \"#utility.yul\":93:98   */\n      dup2\n        /* \"#utility.yul\":87:99   */\n      mload\n        /* \"#utility.yul\":77:99   */\n      swap1\n      pop\n        /* \"#utility.yul\":7:106   */\n      swap2\n      swap1\n      pop\n      jump\t// out\n        /* \"#utility.yul\":112:281   */\n    tag_280:\n        /* \"#utility.yul\":196:207   */\n      0x00\n        /* \"#utility.yul\":230:236   */\n      dup3\n        /* \"#utility.yul\":225:228   */\n      dup3\n        /* \"#utility.yul\":218:237   */\n      mstore\n        /* \"#utility.yul\":270:274   */\n      0x20\n        /* \"#utility.yul\":265:268   */\n      dup3\n        /* \"#utility.yul\":261:275   */\n      add\n        /* \"#utility.yul\":246:275   */\n      swap1\n      pop\n        /* \"#utility.yul\":112:281   */\n      swap3\n      swap2\n      pop\n      pop\n      jump\t// out\n        /* \"#utility.yul\":287:426   */\n    tag_281:\n        /* \"#utility.yul\":376:382   */\n      dup3\n        /* \"#utility.yul\":371:374   */\n      dup2\n        /* \"#utility.yul\":366:369   */\n      dup4\n        /* \"#utility.yul\":360:383   */\n      mcopy\n        /* \"#utility.yul\":417:418   */\n      0x00\n        /* \"#utility.yul\":408:414   */\n      dup4\n        /* \"#utility.yul\":403:406   */\n      dup4\n        /* \"#utility.yul\":399:415   */\n      add\n        /* \"#utility.yul\":392:419   */\n      mstore\n        /* \"#utility.yul\":287:426   */\n      pop\n      pop\n      pop\n      jump\t// out\n        /* \"#utility.yul\":432:534   */\n    tag_282:\n        /* \"#utility.yul\":473:479   */\n      0x00\n        /* \"#utility.yul\":524:526   */\n      0x1f\n        /* \"#utility.yul\":520:527   */\n      not\n        /* \"#utility.yul\":515:517   */\n      0x1f\n        /* \"#utility.yul\":508:513   */\n      dup4\n        /* \"#utility.yul\":504:518   */\n      add\n        /* \"#utility.yul\":500:528   */\n      and\n        /* \"#utility.yul\":490:528   */\n      swap1\n      pop\n        /* \"#utility.yul\":432:534   */\n      swap2\n      swap1\n      pop\n      jump\t// out\n        /* \"#utility.yul\":540:917   */\n    tag_283:\n        /* \"#utility.yul\":628:631   */\n      0x00\n        /* \"#utility.yul\":656:695   */\n      tag_340\n        /* \"#utility.yul\":689:694   */\n      dup3\n        /* \"#utility.yul\":656:695   */\n      tag_279\n      jump\t// in\n    tag_340:\n        /* \"#utility.yul\":711:782   */\n      tag_341\n        /* \"#utility.yul\":775:781   */\n      dup2\n        /* \"#utility.yul\":770:773   */\n      dup6\n        /* \"#utility.yul\":711:782   */\n      tag_280\n      jump\t// in\n    tag_341:\n        /* \"#utility.yul\":704:782   */\n      swap4\n      pop\n        /* \"#utility.yul\":791:856   */\n      tag_342\n        /* \"#utility.yul\":849:855   */\n      dup2\n        /* \"#utility.yul\":844:847   */\n      dup6\n        /* \"#utility.yul\":837:841   */\n      0x20\n        /* \"#utility.yul\":830:835   */\n      dup7\n        /* \"#utility.yul\":826:842   */\n      add\n        /* \"#utility.yul\":791:856   */\n      tag_281\n      jump\t// in\n    tag_342:\n        /* \"#utility.yul\":881:910   */\n      tag_343\n        /* \"#utility.yul\":903:909   */\n      dup2\n        /* \"#utility.yul\":881:910   */\n      tag_282\n      jump\t// in\n    tag_343:\n        /* \"#utility.yul\":876:879   */\n      dup5\n        /* \"#utility.yul\":872:911   */\n      add\n        /* \"#utility.yul\":865:911   */\n      swap2\n      pop\n        /* \"#utility.yul\":632:917   */\n      pop\n        /* \"#utility.yul\":540:917   */\n      swap3\n      swap2\n      pop\n      pop\n      jump\t// out\n        /* \"#utility.yul\":923:1236   */\n    tag_30:\n        /* \"#utility.yul\":1036:1040   */\n      0x00\n        /* \"#utility.yul\":1074:1076   */\n      0x20\n        /* \"#utility.yul\":1063:1072   */\n      dup3\n        /* \"#utility.yul\":1059:1077   */\n      add\n        /* \"#utility.yul\":1051:1077   */\n      swap1\n      pop\n        /* \"#utility.yul\":1123:1132   */\n      dup2\n        /* \"#utility.yul\":1117:1121   */\n      dup2\n        /* \"#utility.yul\":1113:1133   */\n      sub\n        /* \"#utility.yul\":1109:1110   */\n      0x00\n        /* \"#utility.yul\":1098:1107   */\n      dup4\n        /* \"#utility.yul\":1094:1111   */\n      add\n        /* \"#utility.yul\":1087:1134   */\n      mstore\n        /* \"#utility.yul\":1151:1229   */\n      tag_345\n        /* \"#utility.yul\":1224:1228   */\n      dup2\n        /* \"#utility.yul\":1215:1221   */\n      dup5\n        /* \"#utility.yul\":1151:1229   */\n      tag_283\n      jump\t// in\n    tag_345:\n        /* \"#utility.yul\":1143:1229   */\n      swap1\n      pop\n        /* \"#utility.yul\":923:1236   */\n      swap3\n      swap2\n      pop\n      pop\n      jump\t// out\n        /* \"#utility.yul\":1323:1440   */\n    tag_285:\n        /* \"#utility.yul\":1432:1433   */\n      0x00\n        /* \"#utility.yul\":1429:1430   */\n      0x00\n        /* \"#utility.yul\":1422:1434   */\n      revert\n        /* \"#utility.yul\":1569:1695   */\n    tag_287:\n        /* \"#utility.yul\":1606:1613   */\n      0x00\n        /* \"#utility.yul\":1646:1688   */\n      0xffffffffffffffffffffffffffffffffffffffff\n        /* \"#utility.yul\":1639:1644   */\n      dup3\n        /* \"#utility.yul\":1635:1689   */\n      and\n        /* \"#utility.yul\":1624:1689   */\n      swap1\n      pop\n        /* \"#utility.yul\":1569:1695   */\n      swap2\n      swap1\n      pop\n      jump\t// out\n        /* \"#utility.yul\":1701:1797   */\n    tag_288:\n        /* \"#utility.yul\":1738:1745   */\n      0x00\n        /* \"#utility.yul\":1767:1791   */\n      tag_351\n        /* \"#utility.yul\":1785:1790   */\n      dup3\n        /* \"#utility.yul\":1767:1791   */\n      tag_287\n      jump\t// in\n    tag_351:\n        /* \"#utility.yul\":1756:1791   */\n      swap1\n      pop\n        /* \"#utility.yul\":1701:1797   */\n      swap2\n      swap1\n      pop\n      jump\t// out\n        /* \"#utility.yul\":1803:1925   */\n    tag_289:\n        /* \"#utility.yul\":1876:1900   */\n      tag_353\n        /* \"#utility.yul\":1894:1899   */\n      dup2\n        /* \"#utility.yul\":1876:1900   */\n      tag_288\n      jump\t// in\n    tag_353:\n        /* \"#utility.yul\":1869:1874   */\n      dup2\n        /* \"#utility.yul\":1866:1901   */\n      eq\n        /* \"#utility.yul\":1856:1919   */\n      tag_354\n      jumpi\n        /* \"#utility.yul\":1915:1916   */\n      0x00\n        /* \"#utility.yul\":1912:1913   */\n      0x00\n        /* \"#utility.yul\":1905:1917   */\n      revert\n        /* \"#utility.yul\":1856:1919   */\n    tag_354:\n        /* \"#utility.yul\":1803:1925   */\n      pop\n      jump\t// out\n        /* \"#utility.yul\":1931:2070   */\n    tag_290:\n        /* \"#utility.yul\":1977:1982   */\n      0x00\n        /* \"#utility.yul\":2015:2021   */\n      dup2\n        /* \"#utility.yul\":2002:2022   */\n      calldataload\n        /* \"#utility.yul\":1993:2022   */\n      swap1\n      pop\n        /* \"#utility.yul\":2031:2064   */\n      tag_356\n        /* \"#utility.yul\":2058:2063   */\n      dup2\n        /* \"#utility.yul\":2031:2064   */\n      tag_289\n      jump\t// in\n    tag_356:\n        /* \"#utility.yul\":1931:2070   */\n      swap3\n      swap2\n      pop\n      pop\n      jump\t// out\n        /* \"#utility.yul\":2076:2153   */\n    tag_291:\n        /* \"#utility.yul\":2113:2120   */\n      0x00\n        /* \"#utility.yul\":2142:2147   */\n      dup2\n        /* \"#utility.yul\":2131:2147   */\n      swap1\n      pop\n        /* \"#utility.yul\":2076:2153   */\n      swap2\n      swap1\n      pop\n      jump\t// out\n        /* \"#utility.yul\":2159:2281   */\n    tag_292:\n        /* \"#utility.yul\":2232:2256   */\n      tag_359\n        /* \"#utility.yul\":2250:2255   */\n      dup2\n        /* \"#utility.yul\":2232:2256   */\n      tag_291\n      jump\t// in\n    tag_359:\n        /* \"#utility.yul\":2225:2230   */\n      dup2\n        /* \"#utility.yul\":2222:2257   */\n      eq\n        /* \"#utility.yul\":2212:2275   */\n      tag_360\n      jumpi\n        /* \"#utility.yul\":2271:2272   */\n      0x00\n        /* \"#utility.yul\":2268:2269   */\n      0x00\n        /* \"#utility.yul\":2261:2273   */\n      revert\n        /* \"#utility.yul\":2212:2275   */\n    tag_360:\n        /* \"#utility.yul\":2159:2281   */\n      pop\n      jump\t// out\n        /* \"#utility.yul\":2287:2426   */\n    tag_293:\n        /* \"#utility.yul\":2333:2338   */\n      0x00\n        /* \"#utility.yul\":2371:2377   */\n      dup2\n        /* \"#utility.yul\":2358:2378   */\n      calldataload\n        /* \"#utility.yul\":2349:2378   */\n      swap1\n      pop\n        /* \"#utility.yul\":2387:2420   */\n      tag_362\n        /* \"#utility.yul\":2414:2419   */\n      dup2\n        /* \"#utility.yul\":2387:2420   */\n      tag_292\n      jump\t// in\n    tag_362:\n        /* \"#utility.yul\":2287:2426   */\n      swap3\n      swap2\n      pop\n      pop\n      jump\t// out\n        /* \"#utility.yul\":2432:2906   */\n    tag_33:\n        /* \"#utility.yul\":2500:2506   */\n      0x00\n        /* \"#utility.yul\":2508:2514   */\n      0x00\n        /* \"#utility.yul\":2557:2559   */\n      0x40\n        /* \"#utility.yul\":2545:2554   */\n      dup4\n        /* \"#utility.yul\":2536:2543   */\n      dup6\n        /* \"#utility.yul\":2532:2555   */\n      sub\n        /* \"#utility.yul\":2528:2560   */\n      slt\n        /* \"#utility.yul\":2525:2644   */\n      iszero\n      tag_364\n      jumpi\n        /* \"#utility.yul\":2563:2642   */\n      tag_365\n      tag_285\n      jump\t// in\n    tag_365:\n        /* \"#utility.yul\":2525:2644   */\n    tag_364:\n        /* \"#utility.yul\":2683:2684   */\n      0x00\n        /* \"#utility.yul\":2708:2761   */\n      tag_366\n        /* \"#utility.yul\":2753:2760   */\n      dup6\n        /* \"#utility.yul\":2744:2750   */\n      dup3\n        /* \"#utility.yul\":2733:2742   */\n      dup7\n        /* \"#utility.yul\":2729:2751   */\n      add\n        /* \"#utility.yul\":2708:2761   */\n      tag_290\n      jump\t// in\n    tag_366:\n        /* \"#utility.yul\":2698:2761   */\n      swap3\n      pop\n        /* \"#utility.yul\":2654:2771   */\n      pop\n        /* \"#utility.yul\":2810:2812   */\n      0x20\n        /* \"#utility.yul\":2836:2889   */\n      tag_367\n        /* \"#utility.yul\":2881:2888   */\n      dup6\n        /* \"#utility.yul\":2872:2878   */\n      dup3\n        /* \"#utility.yul\":2861:2870   */\n      dup7\n        /* \"#utility.yul\":2857:2879   */\n      add\n        /* \"#utility.yul\":2836:2889   */\n      tag_293\n      jump\t// in\n    tag_367:\n        /* \"#utility.yul\":2826:2889   */\n      swap2\n      pop\n        /* \"#utility.yul\":2781:2899   */\n      pop\n        /* \"#utility.yul\":2432:2906   */\n      swap3\n      pop\n      swap3\n      swap1\n      pop\n      jump\t// out\n        /* \"#utility.yul\":2912:3002   */\n    tag_294:\n        /* \"#utility.yul\":2946:2953   */\n      0x00\n        /* \"#utility.yul\":2989:2994   */\n      dup2\n        /* \"#utility.yul\":2982:2995   */\n      iszero\n        /* \"#utility.yul\":2975:2996   */\n      iszero\n        /* \"#utility.yul\":2964:2996   */\n      swap1\n      pop\n        /* \"#utility.yul\":2912:3002   */\n      swap2\n      swap1\n      pop\n      jump\t// out\n        /* \"#utility.yul\":3008:3117   */\n    tag_295:\n        /* \"#utility.yul\":3089:3110   */\n      tag_370\n        /* \"#utility.yul\":3104:3109   */\n      dup2\n        /* \"#utility.yul\":3089:3110   */\n      tag_294\n      jump\t// in\n    tag_370:\n        /* \"#utility.yul\":3084:3087   */\n      dup3\n        /* \"#utility.yul\":3077:3111   */\n      mstore\n        /* \"#utility.yul\":3008:3117   */\n      pop\n      pop\n      jump\t// out\n        /* \"#utility.yul\":3123:3333   */\n    tag_36:\n        /* \"#utility.yul\":3210:3214   */\n      0x00\n        /* \"#utility.yul\":3248:3250   */\n      0x20\n        /* \"#utility.yul\":3237:3246   */\n      dup3\n        /* \"#utility.yul\":3233:3251   */\n      add\n        /* \"#utility.yul\":3225:3251   */\n      swap1\n      pop\n        /* \"#utility.yul\":3261:3326   */\n      tag_372\n        /* \"#utility.yul\":3323:3324   */\n      0x00\n        /* \"#utility.yul\":3312:3321   */\n      dup4\n        /* \"#utility.yul\":3308:3325   */\n      add\n        /* \"#utility.yul\":3299:3305   */\n      dup5\n        /* \"#utility.yul\":3261:3326   */\n      tag_295\n      jump\t// in\n    tag_372:\n        /* \"#utility.yul\":3123:3333   */\n      swap3\n      swap2\n      pop\n      pop\n      jump\t// out\n        /* \"#utility.yul\":3339:3457   */\n    tag_296:\n        /* \"#utility.yul\":3426:3450   */\n      tag_374\n        /* \"#utility.yul\":3444:3449   */\n      dup2\n        /* \"#utility.yul\":3426:3450   */\n      tag_291\n      jump\t// in\n    tag_374:\n        /* \"#utility.yul\":3421:3424   */\n      dup3\n        /* \"#utility.yul\":3414:3451   */\n      mstore\n        /* \"#utility.yul\":3339:3457   */\n      pop\n      pop\n      jump\t// out\n        /* \"#utility.yul\":3463:3685   */\n    tag_40:\n        /* \"#utility.yul\":3556:3560   */\n      0x00\n        /* \"#utility.yul\":3594:3596   */\n      0x20\n        /* \"#utility.yul\":3583:3592   */\n      dup3\n        /* \"#utility.yul\":3579:3597   */\n      add\n        /* \"#utility.yul\":3571:3597   */\n      swap1\n      pop\n        /* \"#utility.yul\":3607:3678   */\n      tag_376\n        /* \"#utility.yul\":3675:3676   */\n      0x00\n        /* \"#utility.yul\":3664:3673   */\n      dup4\n        /* \"#utility.yul\":3660:3677   */\n      add\n        /* \"#utility.yul\":3651:3657   */\n      dup5\n        /* \"#utility.yul\":3607:3678   */\n      tag_296\n      jump\t// in\n    tag_376:\n        /* \"#utility.yul\":3463:3685   */\n      swap3\n      swap2\n      pop\n      pop\n      jump\t// out\n        /* \"#utility.yul\":3691:4310   */\n    tag_43:\n        /* \"#utility.yul\":3768:3774   */\n      0x00\n        /* \"#utility.yul\":3776:3782   */\n      0x00\n        /* \"#utility.yul\":3784:3790   */\n      0x00\n        /* \"#utility.yul\":3833:3835   */\n      0x60\n        /* \"#utility.yul\":3821:3830   */\n      dup5\n        /* \"#utility.yul\":3812:3819   */\n      dup7\n        /* \"#utility.yul\":3808:3831   */\n      sub\n        /* \"#utility.yul\":3804:3836   */\n      slt\n        /* \"#utility.yul\":3801:3920   */\n      iszero\n      tag_378\n      jumpi\n        /* \"#utility.yul\":3839:3918   */\n      tag_379\n      tag_285\n      jump\t// in\n    tag_379:\n        /* \"#utility.yul\":3801:3920   */\n    tag_378:\n        /* \"#utility.yul\":3959:3960   */\n      0x00\n        /* \"#utility.yul\":3984:4037   */\n      tag_380\n        /* \"#utility.yul\":4029:4036   */\n      dup7\n        /* \"#utility.yul\":4020:4026   */\n      dup3\n        /* \"#utility.yul\":4009:4018   */\n      dup8\n        /* \"#utility.yul\":4005:4027   */\n      add\n        /* \"#utility.yul\":3984:4037   */\n      tag_290\n      jump\t// in\n    tag_380:\n        /* \"#utility.yul\":3974:4037   */\n      swap4\n      pop\n        /* \"#utility.yul\":3930:4047   */\n      pop\n        /* \"#utility.yul\":4086:4088   */\n      0x20\n        /* \"#utility.yul\":4112:4165   */\n      tag_381\n        /* \"#utility.yul\":4157:4164   */\n      dup7\n        /* \"#utility.yul\":4148:4154   */\n      dup3\n        /* \"#utility.yul\":4137:4146   */\n      dup8\n        /* \"#utility.yul\":4133:4155   */\n      add\n        /* \"#utility.yul\":4112:4165   */\n      tag_290\n      jump\t// in\n    tag_381:\n        /* \"#utility.yul\":4102:4165   */\n      swap3\n      pop\n        /* \"#utility.yul\":4057:4175   */\n      pop\n        /* \"#utility.yul\":4214:4216   */\n      0x40\n        /* \"#utility.yul\":4240:4293   */\n      tag_382\n        /* \"#utility.yul\":4285:4292   */\n      dup7\n        /* \"#utility.yul\":4276:4282   */\n      dup3\n        /* \"#utility.yul\":4265:4274   */\n      dup8\n        /* \"#utility.yul\":4261:4283   */\n      add\n        /* \"#utility.yul\":4240:4293   */\n      tag_293\n      jump\t// in\n    tag_382:\n        /* \"#utility.yul\":4230:4293   */\n      swap2\n      pop\n        /* \"#utility.yul\":4185:4303   */\n      pop\n        /* \"#utility.yul\":3691:4310   */\n      swap3\n      pop\n      swap3\n      pop\n      swap3\n      jump\t// out\n        /* \"#utility.yul\":4316:4402   */\n    tag_297:\n        /* \"#utility.yul\":4351:4358   */\n      0x00\n        /* \"#utility.yul\":4391:4395   */\n      0xff\n        /* \"#utility.yul\":4384:4389   */\n      dup3\n        /* \"#utility.yul\":4380:4396   */\n      and\n        /* \"#utility.yul\":4369:4396   */\n      swap1\n      pop\n        /* \"#utility.yul\":4316:4402   */\n      swap2\n      swap1\n      pop\n      jump\t// out\n        /* \"#utility.yul\":4408:4520   */\n    tag_298:\n        /* \"#utility.yul\":4491:4513   */\n      tag_385\n        /* \"#utility.yul\":4507:4512   */\n      dup2\n        /* \"#utility.yul\":4491:4513   */\n      tag_297\n      jump\t// in\n    tag_385:\n        /* \"#utility.yul\":4486:4489   */\n      dup3\n        /* \"#utility.yul\":4479:4514   */\n      mstore\n        /* \"#utility.yul\":4408:4520   */\n      pop\n      pop\n      jump\t// out\n        /* \"#utility.yul\":4526:4740   */\n    tag_49:\n        /* \"#utility.yul\":4615:4619   */\n      0x00\n        /* \"#utility.yul\":4653:4655   */\n      0x20\n        /* \"#utility.yul\":4642:4651   */\n      dup3\n        /* \"#utility.yul\":4638:4656   */\n      add\n        /* \"#utility.yul\":4630:4656   */\n      swap1\n      pop\n        /* \"#utility.yul\":4666:4733   */\n      tag_387\n        /* \"#utility.yul\":4730:4731   */\n      0x00\n        /* \"#utility.yul\":4719:4728   */\n      dup4\n        /* \"#utility.yul\":4715:4732   */\n      add\n        /* \"#utility.yul\":4706:4712   */\n      dup5\n        /* \"#utility.yul\":4666:4733   */\n      tag_298\n      jump\t// in\n    tag_387:\n        /* \"#utility.yul\":4526:4740   */\n      swap3\n      swap2\n      pop\n      pop\n      jump\t// out\n        /* \"#utility.yul\":4746:5075   */\n    tag_64:\n        /* \"#utility.yul\":4805:4811   */\n      0x00\n        /* \"#utility.yul\":4854:4856   */\n      0x20\n        /* \"#utility.yul\":4842:4851   */\n      dup3\n        /* \"#utility.yul\":4833:4840   */\n      dup5\n        /* \"#utility.yul\":4829:4852   */\n      sub\n        /* \"#utility.yul\":4825:4857   */\n      slt\n        /* \"#utility.yul\":4822:4941   */\n      iszero\n      tag_389\n      jumpi\n        /* \"#utility.yul\":4860:4939   */\n      tag_390\n      tag_285\n      jump\t// in\n    tag_390:\n        /* \"#utility.yul\":4822:4941   */\n    tag_389:\n        /* \"#utility.yul\":4980:4981   */\n      0x00\n        /* \"#utility.yul\":5005:5058   */\n      tag_391\n        /* \"#utility.yul\":5050:5057   */\n      dup5\n        /* \"#utility.yul\":5041:5047   */\n      dup3\n        /* \"#utility.yul\":5030:5039   */\n      dup6\n        /* \"#utility.yul\":5026:5048   */\n      add\n        /* \"#utility.yul\":5005:5058   */\n      tag_293\n      jump\t// in\n    tag_391:\n        /* \"#utility.yul\":4995:5058   */\n      swap2\n      pop\n        /* \"#utility.yul\":4951:5068   */\n      pop\n        /* \"#utility.yul\":4746:5075   */\n      swap3\n      swap2\n      pop\n      pop\n      jump\t// out\n        /* \"#utility.yul\":5081:5410   */\n    tag_71:\n        /* \"#utility.yul\":5140:5146   */\n      0x00\n        /* \"#utility.yul\":5189:5191   */\n      0x20\n        /* \"#utility.yul\":5177:5186   */\n      dup3\n        /* \"#utility.yul\":5168:5175   */\n      dup5\n        /* \"#utility.yul\":5164:5187   */\n      sub\n        /* \"#utility.yul\":5160:5192   */\n      slt\n        /* \"#utility.yul\":5157:5276   */\n      iszero\n      tag_393\n      jumpi\n        /* \"#utility.yul\":5195:5274   */\n      tag_394\n      tag_285\n      jump\t// in\n    tag_394:\n        /* \"#utility.yul\":5157:5276   */\n    tag_393:\n        /* \"#utility.yul\":5315:5316   */\n      0x00\n        /* \"#utility.yul\":5340:5393   */\n      tag_395\n        /* \"#utility.yul\":5385:5392   */\n      dup5\n        /* \"#utility.yul\":5376:5382   */\n      dup3\n        /* \"#utility.yul\":5365:5374   */\n      dup6\n        /* \"#utility.yul\":5361:5383   */\n      add\n        /* \"#utility.yul\":5340:5393   */\n      tag_290\n      jump\t// in\n    tag_395:\n        /* \"#utility.yul\":5330:5393   */\n      swap2\n      pop\n        /* \"#utility.yul\":5286:5403   */\n      pop\n        /* \"#utility.yul\":5081:5410   */\n      swap3\n      swap2\n      pop\n      pop\n      jump\t// out\n        /* \"#utility.yul\":5416:5534   */\n    tag_299:\n        /* \"#utility.yul\":5503:5527   */\n      tag_397\n        /* \"#utility.yul\":5521:5526   */\n      dup2\n        /* \"#utility.yul\":5503:5527   */\n      tag_288\n      jump\t// in\n    tag_397:\n        /* \"#utility.yul\":5498:5501   */\n      dup3\n        /* \"#utility.yul\":5491:5528   */\n      mstore\n        /* \"#utility.yul\":5416:5534   */\n      pop\n      pop\n      jump\t// out\n        /* \"#utility.yul\":5540:5762   */\n    tag_84:\n        /* \"#utility.yul\":5633:5637   */\n      0x00\n        /* \"#utility.yul\":5671:5673   */\n      0x20\n        /* \"#utility.yul\":5660:5669   */\n      dup3\n        /* \"#utility.yul\":5656:5674   */\n      add\n        /* \"#utility.yul\":5648:5674   */\n      swap1\n      pop\n        /* \"#utility.yul\":5684:5755   */\n      tag_399\n        /* \"#utility.yul\":5752:5753   */\n      0x00\n        /* \"#utility.yul\":5741:5750   */\n      dup4\n        /* \"#utility.yul\":5737:5754   */\n      add\n        /* \"#utility.yul\":5728:5734   */\n      dup5\n        /* \"#utility.yul\":5684:5755   */\n      tag_299\n      jump\t// in\n    tag_399:\n        /* \"#utility.yul\":5540:5762   */\n      swap3\n      swap2\n      pop\n      pop\n      jump\t// out\n        /* \"#utility.yul\":5768:6242   */\n    tag_98:\n        /* \"#utility.yul\":5836:5842   */\n      0x00\n        /* \"#utility.yul\":5844:5850   */\n      0x00\n        /* \"#utility.yul\":5893:5895   */\n      0x40\n        /* \"#utility.yul\":5881:5890   */\n      dup4\n        /* \"#utility.yul\":5872:5879   */\n      dup6\n        /* \"#utility.yul\":5868:5891   */\n      sub\n        /* \"#utility.yul\":5864:5896   */\n      slt\n        /* \"#utility.yul\":5861:5980   */\n      iszero\n      tag_401\n      jumpi\n        /* \"#utility.yul\":5899:5978   */\n      tag_402\n      tag_285\n      jump\t// in\n    tag_402:\n        /* \"#utility.yul\":5861:5980   */\n    tag_401:\n        /* \"#utility.yul\":6019:6020   */\n      0x00\n        /* \"#utility.yul\":6044:6097   */\n      tag_403\n        /* \"#utility.yul\":6089:6096   */\n      dup6\n        /* \"#utility.yul\":6080:6086   */\n      dup3\n        /* \"#utility.yul\":6069:6078   */\n      dup7\n        /* \"#utility.yul\":6065:6087   */\n      add\n        /* \"#utility.yul\":6044:6097   */\n      tag_290\n      jump\t// in\n    tag_403:\n        /* \"#utility.yul\":6034:6097   */\n      swap3\n      pop\n        /* \"#utility.yul\":5990:6107   */\n      pop\n        /* \"#utility.yul\":6146:6148   */\n      0x20\n        /* \"#utility.yul\":6172:6225   */\n      tag_404\n        /* \"#utility.yul\":6217:6224   */\n      dup6\n        /* \"#utility.yul\":6208:6214   */\n      dup3\n        /* \"#utility.yul\":6197:6206   */\n      dup7\n        /* \"#utility.yul\":6193:6215   */\n      add\n        /* \"#utility.yul\":6172:6225   */\n      tag_290\n      jump\t// in\n    tag_404:\n        /* \"#utility.yul\":6162:6225   */\n      swap2\n      pop\n        /* \"#utility.yul\":6117:6235   */\n      pop\n        /* \"#utility.yul\":5768:6242   */\n      swap3\n      pop\n      swap3\n      swap1\n      pop\n      jump\t// out\n        /* \"#utility.yul\":6248:6428   */\n    tag_300:\n        /* \"#utility.yul\":6296:6373   */\n      0x4e487b7100000000000000000000000000000000000000000000000000000000\n        /* \"#utility.yul\":6293:6294   */\n      0x00\n        /* \"#utility.yul\":6286:6374   */\n      mstore\n        /* \"#utility.yul\":6393:6397   */\n      0x22\n        /* \"#utility.yul\":6390:6391   */\n      0x04\n        /* \"#utility.yul\":6383:6398   */\n      mstore\n        /* \"#utility.yul\":6417:6421   */\n      0x24\n        /* \"#utility.yul\":6414:6415   */\n      0x00\n        /* \"#utility.yul\":6407:6422   */\n      revert\n        /* \"#utility.yul\":6434:6754   */\n    tag_106:\n        /* \"#utility.yul\":6478:6484   */\n      0x00\n        /* \"#utility.yul\":6515:6516   */\n      0x02\n        /* \"#utility.yul\":6509:6513   */\n      dup3\n        /* \"#utility.yul\":6505:6517   */\n      div\n        /* \"#utility.yul\":6495:6517   */\n      swap1\n      pop\n        /* \"#utility.yul\":6562:6563   */\n      0x01\n        /* \"#utility.yul\":6556:6560   */\n      dup3\n        /* \"#utility.yul\":6552:6564   */\n      and\n        /* \"#utility.yul\":6583:6601   */\n      dup1\n        /* \"#utility.yul\":6573:6654   */\n      tag_407\n      jumpi\n        /* \"#utility.yul\":6639:6643   */\n      0x7f\n        /* \"#utility.yul\":6631:6637   */\n      dup3\n        /* \"#utility.yul\":6627:6644   */\n      and\n        /* \"#utility.yul\":6617:6644   */\n      swap2\n      pop\n        /* \"#utility.yul\":6573:6654   */\n    tag_407:\n        /* \"#utility.yul\":6701:6703   */\n      0x20\n        /* \"#utility.yul\":6693:6699   */\n      dup3\n        /* \"#utility.yul\":6690:6704   */\n      lt\n        /* \"#utility.yul\":6670:6688   */\n      dup2\n        /* \"#utility.yul\":6667:6705   */\n      sub\n        /* \"#utility.yul\":6664:6748   */\n      tag_408\n      jumpi\n        /* \"#utility.yul\":6720:6738   */\n      tag_409\n      tag_300\n      jump\t// in\n    tag_409:\n        /* \"#utility.yul\":6664:6748   */\n    tag_408:\n        /* \"#utility.yul\":6485:6754   */\n      pop\n        /* \"#utility.yul\":6434:6754   */\n      swap2\n      swap1\n      pop\n      jump\t// out\n        /* \"#utility.yul\":6760:6940   */\n    tag_301:\n        /* \"#utility.yul\":6808:6885   */\n      0x4e487b7100000000000000000000000000000000000000000000000000000000\n        /* \"#utility.yul\":6805:6806   */\n      0x00\n        /* \"#utility.yul\":6798:6886   */\n      mstore\n        /* \"#utility.yul\":6905:6909   */\n      0x11\n        /* \"#utility.yul\":6902:6903   */\n      0x04\n        /* \"#utility.yul\":6895:6910   */\n      mstore\n        /* \"#utility.yul\":6929:6933   */\n      0x24\n        /* \"#utility.yul\":6926:6927   */\n      0x00\n        /* \"#utility.yul\":6919:6934   */\n      revert\n        /* \"#utility.yul\":6946:7137   */\n    tag_129:\n        /* \"#utility.yul\":6986:6989   */\n      0x00\n        /* \"#utility.yul\":7005:7025   */\n      tag_412\n        /* \"#utility.yul\":7023:7024   */\n      dup3\n        /* \"#utility.yul\":7005:7025   */\n      tag_291\n      jump\t// in\n    tag_412:\n        /* \"#utility.yul\":7000:7025   */\n      swap2\n      pop\n        /* \"#utility.yul\":7039:7059   */\n      tag_413\n        /* \"#utility.yul\":7057:7058   */\n      dup4\n        /* \"#utility.yul\":7039:7059   */\n      tag_291\n      jump\t// in\n    tag_413:\n        /* \"#utility.yul\":7034:7059   */\n      swap3\n      pop\n        /* \"#utility.yul\":7082:7083   */\n      dup3\n        /* \"#utility.yul\":7079:7080   */\n      dup3\n        /* \"#utility.yul\":7075:7084   */\n      add\n        /* \"#utility.yul\":7068:7084   */\n      swap1\n      pop\n        /* \"#utility.yul\":7103:7106   */\n      dup1\n        /* \"#utility.yul\":7100:7101   */\n      dup3\n        /* \"#utility.yul\":7097:7107   */\n      gt\n        /* \"#utility.yul\":7094:7130   */\n      iszero\n      tag_414\n      jumpi\n        /* \"#utility.yul\":7110:7128   */\n      tag_415\n      tag_301\n      jump\t// in\n    tag_415:\n        /* \"#utility.yul\":7094:7130   */\n    tag_414:\n        /* \"#utility.yul\":6946:7137   */\n      swap3\n      swap2\n      pop\n      pop\n      jump\t// out\n        /* \"#utility.yul\":7143:7305   */\n    tag_302:\n        /* \"#utility.yul\":7283:7297   */\n      0x6361702065786365656465640000000000000000000000000000000000000000\n        /* \"#utility.yul\":7279:7280   */\n      0x00\n        /* \"#utility.yul\":7271:7277   */\n      dup3\n        /* \"#utility.yul\":7267:7281   */\n      add\n        /* \"#utility.yul\":7260:7298   */\n      mstore\n        /* \"#utility.yul\":7143:7305   */\n      pop\n      jump\t// out\n        /* \"#utility.yul\":7311:7677   */\n    tag_303:\n        /* \"#utility.yul\":7453:7456   */\n      0x00\n        /* \"#utility.yul\":7474:7541   */\n      tag_418\n        /* \"#utility.yul\":7538:7540   */\n      0x0c\n        /* \"#utility.yul\":7533:7536   */\n      dup4\n        /* \"#utility.yul\":7474:7541   */\n      tag_280\n      jump\t// in\n    tag_418:\n        /* \"#utility.yul\":7467:7541   */\n      swap2\n      pop\n        /* \"#utility.yul\":7550:7643   */\n      tag_419\n        /* \"#utility.yul\":7639:7642   */\n      dup3\n        /* \"#utility.yul\":7550:7643   */\n      tag_302\n      jump\t// in\n    tag_419:\n        /* \"#utility.yul\":7668:7670   */\n      0x20\n        /* \"#utility.yul\":7663:7666   */\n      dup3\n        /* \"#utility.yul\":7659:7671   */\n      add\n        /* \"#utility.yul\":7652:7671   */\n      swap1\n      pop\n        /* \"#utility.yul\":7311:7677   */\n      swap2\n      swap1\n      pop\n      jump\t// out\n        /* \"#utility.yul\":7683:8102   */\n    tag_143:\n        /* \"#utility.yul\":7849:7853   */\n      0x00\n        /* \"#utility.yul\":7887:7889   */\n      0x20\n        /* \"#utility.yul\":7876:7885   */\n      dup3\n        /* \"#utility.yul\":7872:7890   */\n      add\n        /* \"#utility.yul\":7864:7890   */\n      swap1\n      pop\n        /* \"#utility.yul\":7936:7945   */\n      dup2\n        /* \"#utility.yul\":7930:7934   */\n      dup2\n        /* \"#utility.yul\":7926:7946   */\n      sub\n        /* \"#utility.yul\":7922:7923   */\n      0x00\n        /* \"#utility.yul\":7911:7920   */\n      dup4\n        /* \"#utility.yul\":7907:7924   */\n      add\n        /* \"#utility.yul\":7900:7947   */\n      mstore\n        /* \"#utility.yul\":7964:8095   */\n      tag_421\n        /* \"#utility.yul\":8090:8094   */\n      dup2\n        /* \"#utility.yul\":7964:8095   */\n      tag_303\n      jump\t// in\n    tag_421:\n        /* \"#utility.yul\":7956:8095   */\n      swap1\n      pop\n        /* \"#utility.yul\":7683:8102   */\n      swap2\n      swap1\n      pop\n      jump\t// out\n        /* \"#utility.yul\":8108:8332   */\n    tag_304:\n        /* \"#utility.yul\":8248:8282   */\n      0x45524332303a2064656372656173656420616c6c6f77616e63652062656c6f77\n        /* \"#utility.yul\":8244:8245   */\n      0x00\n        /* \"#utility.yul\":8236:8242   */\n      dup3\n        /* \"#utility.yul\":8232:8246   */\n      add\n        /* \"#utility.yul\":8225:8283   */\n      mstore\n        /* \"#utility.yul\":8317:8324   */\n      0x207a65726f000000000000000000000000000000000000000000000000000000\n        /* \"#utility.yul\":8312:8314   */\n      0x20\n        /* \"#utility.yul\":8304:8310   */\n      dup3\n        /* \"#utility.yul\":8300:8315   */\n      add\n        /* \"#utility.yul\":8293:8325   */\n      mstore\n        /* \"#utility.yul\":8108:8332   */\n      pop\n      jump\t// out\n        /* \"#utility.yul\":8338:8704   */\n    tag_305:\n        /* \"#utility.yul\":8480:8483   */\n      0x00\n        /* \"#utility.yul\":8501:8568   */\n      tag_424\n        /* \"#utility.yul\":8565:8567   */\n      0x25\n        /* \"#utility.yul\":8560:8563   */\n      dup4\n        /* \"#utility.yul\":8501:8568   */\n      tag_280\n      jump\t// in\n    tag_424:\n        /* \"#utility.yul\":8494:8568   */\n      swap2\n      pop\n        /* \"#utility.yul\":8577:8670   */\n      tag_425\n        /* \"#utility.yul\":8666:8669   */\n      dup3\n        /* \"#utility.yul\":8577:8670   */\n      tag_304\n      jump\t// in\n    tag_425:\n        /* \"#utility.yul\":8695:8697   */\n      0x40\n        /* \"#utility.yul\":8690:8693   */\n      dup3\n        /* \"#utility.yul\":8686:8698   */\n      add\n        /* \"#utility.yul\":8679:8698   */\n      swap1\n      pop\n        /* \"#utility.yul\":8338:8704   */\n      swap2\n      swap1\n      pop\n      jump\t// out\n        /* \"#utility.yul\":8710:9129   */\n    tag_179:\n        /* \"#utility.yul\":8876:8880   */\n      0x00\n        /* \"#utility.yul\":8914:8916   */\n      0x20\n        /* \"#utility.yul\":8903:8912   */\n      dup3\n        /* \"#utility.yul\":8899:8917   */\n      add\n        /* \"#utility.yul\":8891:8917   */\n      swap1\n      pop\n        /* \"#utility.yul\":8963:8972   */\n      dup2\n        /* \"#utility.yul\":8957:8961   */\n      dup2\n        /* \"#utility.yul\":8953:8973   */\n      sub\n        /* \"#utility.yul\":8949:8950   */\n      0x00\n        /* \"#utility.yul\":8938:8947   */\n      dup4\n        /* \"#utility.yul\":8934:8951   */\n      add\n        /* \"#utility.yul\":8927:8974   */\n      mstore\n        /* \"#utility.yul\":8991:9122   */\n      tag_427\n        /* \"#utility.yul\":9117:9121   */\n      dup2\n        /* \"#utility.yul\":8991:9122   */\n      tag_305\n      jump\t// in\n    tag_427:\n        /* \"#utility.yul\":8983:9122   */\n      swap1\n      pop\n        /* \"#utility.yul\":8710:9129   */\n      swap2\n      swap1\n      pop\n      jump\t// out\n        /* \"#utility.yul\":9135:9360   */\n    tag_306:\n        /* \"#utility.yul\":9275:9309   */\n      0x4f776e61626c653a206e6577206f776e657220697320746865207a65726f2061\n        /* \"#utility.yul\":9271:9272   */\n      0x00\n        /* \"#utility.yul\":9263:9269   */\n      dup3\n        /* \"#utility.yul\":9259:9273   */\n      add\n        /* \"#utility.yul\":9252:9310   */\n      mstore\n        /* \"#utility.yul\":9344:9352   */\n      0x6464726573730000000000000000000000000000000000000000000000000000\n        /* \"#utility.yul\":9339:9341   */\n      0x20\n        /* \"#utility.yul\":9331:9337   */\n      dup3\n        /* \"#utility.yul\":9327:9342   */\n      add\n        /* \"#utility.yul\":9320:9353   */\n      mstore\n        /* \"#utility.yul\":9135:9360   */\n      pop\n      jump\t// out\n        /* \"#utility.yul\":9366:9732   */\n    tag_307:\n        /* \"#utility.yul\":9508:9511   */\n      0x00\n        /* \"#utility.yul\":9529:9596   */\n      tag_430\n        /* \"#utility.yul\":9593:9595   */\n      0x26\n        /* \"#utility.yul\":9588:9591   */\n      dup4\n        /* \"#utility.yul\":9529:9596   */\n      tag_280\n      jump\t// in\n    tag_430:\n        /* \"#utility.yul\":9522:9596   */\n      swap2\n      pop\n        /* \"#utility.yul\":9605:9698   */\n      tag_431\n        /* \"#utility.yul\":9694:9697   */\n      dup3\n        /* \"#utility.yul\":9605:9698   */\n      tag_306\n      jump\t// in\n    tag_431:\n        /* \"#utility.yul\":9723:9725   */\n      0x40\n        /* \"#utility.yul\":9718:9721   */\n      dup3\n        /* \"#utility.yul\":9714:9726   */\n      add\n        /* \"#utility.yul\":9707:9726   */\n      swap1\n      pop\n        /* \"#utility.yul\":9366:9732   */\n      swap2\n      swap1\n      pop\n      jump\t// out\n        /* \"#utility.yul\":9738:10157   */\n    tag_190:\n        /* \"#utility.yul\":9904:9908   */\n      0x00\n        /* \"#utility.yul\":9942:9944   */\n      0x20\n        /* \"#utility.yul\":9931:9940   */\n      dup3\n        /* \"#utility.yul\":9927:9945   */\n      add\n        /* \"#utility.yul\":9919:9945   */\n      swap1\n      pop\n        /* \"#utility.yul\":9991:10000   */\n      dup2\n        /* \"#utility.yul\":9985:9989   */\n      dup2\n        /* \"#utility.yul\":9981:10001   */\n      sub\n        /* \"#utility.yul\":9977:9978   */\n      0x00\n        /* \"#utility.yul\":9966:9975   */\n      dup4\n        /* \"#utility.yul\":9962:9979   */\n      add\n        /* \"#utility.yul\":9955:10002   */\n      mstore\n        /* \"#utility.yul\":10019:10150   */\n      tag_433\n        /* \"#utility.yul\":10145:10149   */\n      dup2\n        /* \"#utility.yul\":10019:10150   */\n      tag_307\n      jump\t// in\n    tag_433:\n        /* \"#utility.yul\":10011:10150   */\n      swap1\n      pop\n        /* \"#utility.yul\":9738:10157   */\n      swap2\n      swap1\n      pop\n      jump\t// out\n        /* \"#utility.yul\":10163:10386   */\n    tag_308:\n        /* \"#utility.yul\":10303:10337   */\n      0x45524332303a20617070726f76652066726f6d20746865207a65726f20616464\n        /* \"#utility.yul\":10299:10300   */\n      0x00\n        /* \"#utility.yul\":10291:10297   */\n      dup3\n        /* \"#utility.yul\":10287:10301   */\n      add\n        /* \"#utility.yul\":10280:10338   */\n      mstore\n        /* \"#utility.yul\":10372:10378   */\n      0x7265737300000000000000000000000000000000000000000000000000000000\n        /* \"#utility.yul\":10367:10369   */\n      0x20\n        /* \"#utility.yul\":10359:10365   */\n      dup3\n        /* \"#utility.yul\":10355:10370   */\n      add\n        /* \"#utility.yul\":10348:10379   */\n      mstore\n        /* \"#utility.yul\":10163:10386   */\n      pop\n      jump\t// out\n        /* \"#utility.yul\":10392:10758   */\n    tag_309:\n        /* \"#utility.yul\":10534:10537   */\n      0x00\n        /* \"#utility.yul\":10555:10622   */\n      tag_436\n        /* \"#utility.yul\":10619:10621   */\n      0x24\n        /* \"#utility.yul\":10614:10617   */\n      dup4\n        /* \"#utility.yul\":10555:10622   */\n      tag_280\n      jump\t// in\n    tag_436:\n        /* \"#utility.yul\":10548:10622   */\n      swap2\n      pop\n        /* \"#utility.yul\":10631:10724   */\n      tag_437\n        /* \"#utility.yul\":10720:10723   */\n      dup3\n        /* \"#utility.yul\":10631:10724   */\n      tag_308\n      jump\t// in\n    tag_437:\n        /* \"#utility.yul\":10749:10751   */\n      0x40\n        /* \"#utility.yul\":10744:10747   */\n      dup3\n        /* \"#utility.yul\":10740:10752   */\n      add\n        /* \"#utility.yul\":10733:10752   */\n      swap1\n      pop\n        /* \"#utility.yul\":10392:10758   */\n      swap2\n      swap1\n      pop\n      jump\t// out\n        /* \"#utility.yul\":10764:11183   */\n    tag_196:\n        /* \"#utility.yul\":10930:10934   */\n      0x00\n        /* \"#utility.yul\":10968:10970   */\n      0x20\n        /* \"#utility.yul\":10957:10966   */\n      dup3\n        /* \"#utility.yul\":10953:10971   */\n      add\n        /* \"#utility.yul\":10945:10971   */\n      swap1\n      pop\n        /* \"#utility.yul\":11017:11026   */\n      dup2\n        /* \"#utility.yul\":11011:11015   */\n      dup2\n        /* \"#utility.yul\":11007:11027   */\n      sub\n        /* \"#utility.yul\":11003:11004   */\n      0x00\n        /* \"#utility.yul\":10992:11001   */\n      dup4\n        /* \"#utility.yul\":10988:11005   */\n      add\n        /* \"#utility.yul\":10981:11028   */\n      mstore\n        /* \"#utility.yul\":11045:11176   */\n      tag_439\n        /* \"#utility.yul\":11171:11175   */\n      dup2\n        /* \"#utility.yul\":11045:11176   */\n      tag_309\n      jump\t// in\n    tag_439:\n        /* \"#utility.yul\":11037:11176   */\n      swap1\n      pop\n        /* \"#utility.yul\":10764:11183   */\n      swap2\n      swap1\n      pop\n      jump\t// out\n        /* \"#utility.yul\":11189:11410   */\n    tag_310:\n        /* \"#utility.yul\":11329:11363   */\n      0x45524332303a20617070726f766520746f20746865207a65726f206164647265\n        /* \"#utility.yul\":11325:11326   */\n      0x00\n        /* \"#utility.yul\":11317:11323   */\n      dup3\n        /* \"#utility.yul\":11313:11327   */\n      add\n        /* \"#utility.yul\":11306:11364   */\n      mstore\n        /* \"#utility.yul\":11398:11402   */\n      0x7373000000000000000000000000000000000000000000000000000000000000\n        /* \"#utility.yul\":11393:11395   */\n      0x20\n        /* \"#utility.yul\":11385:11391   */\n      dup3\n        /* \"#utility.yul\":11381:11396   */\n      add\n        /* \"#utility.yul\":11374:11403   */\n      mstore\n        /* \"#utility.yul\":11189:11410   */\n      pop\n      jump\t// out\n        /* \"#utility.yul\":11416:11782   */\n    tag_311:\n        /* \"#utility.yul\":11558:11561   */\n      0x00\n        /* \"#utility.yul\":11579:11646   */\n      tag_442\n        /* \"#utility.yul\":11643:11645   */\n      0x22\n        /* \"#utility.yul\":11638:11641   */\n      dup4\n        /* \"#utility.yul\":11579:11646   */\n      tag_280\n      jump\t// in\n    tag_442:\n        /* \"#utility.yul\":11572:11646   */\n      swap2\n      pop\n        /* \"#utility.yul\":11655:11748   */\n      tag_443\n        /* \"#utility.yul\":11744:11747   */\n      dup3\n        /* \"#utility.yul\":11655:11748   */\n      tag_310\n      jump\t// in\n    tag_443:\n        /* \"#utility.yul\":11773:11775   */\n      0x40\n        /* \"#utility.yul\":11768:11771   */\n      dup3\n        /* \"#utility.yul\":11764:11776   */\n      add\n        /* \"#utility.yul\":11757:11776   */\n      swap1\n      pop\n        /* \"#utility.yul\":11416:11782   */\n      swap2\n      swap1\n      pop\n      jump\t// out\n        /* \"#utility.yul\":11788:12207   */\n    tag_199:\n        /* \"#utility.yul\":11954:11958   */\n      0x00\n        /* \"#utility.yul\":11992:11994   */\n      0x20\n        /* \"#utility.yul\":11981:11990   */\n      dup3\n        /* \"#utility.yul\":11977:11995   */\n      add\n        /* \"#utility.yul\":11969:11995   */\n      swap1\n      pop\n        /* \"#utility.yul\":12041:12050   */\n      dup2\n        /* \"#utility.yul\":12035:12039   */\n      dup2\n        /* \"#utility.yul\":12031:12051   */\n      sub\n        /* \"#utility.yul\":12027:12028   */\n      0x00\n        /* \"#utility.yul\":12016:12025   */\n      dup4\n        /* \"#utility.yul\":12012:12029   */\n      add\n        /* \"#utility.yul\":12005:12052   */\n      mstore\n        /* \"#utility.yul\":12069:12200   */\n      tag_445\n        /* \"#utility.yul\":12195:12199   */\n      dup2\n        /* \"#utility.yul\":12069:12200   */\n      tag_311\n      jump\t// in\n    tag_445:\n        /* \"#utility.yul\":12061:12200   */\n      swap1\n      pop\n        /* \"#utility.yul\":11788:12207   */\n      swap2\n      swap1\n      pop\n      jump\t// out\n        /* \"#utility.yul\":12213:12392   */\n    tag_312:\n        /* \"#utility.yul\":12353:12384   */\n      0x45524332303a20696e73756666696369656e7420616c6c6f77616e6365000000\n        /* \"#utility.yul\":12349:12350   */\n      0x00\n        /* \"#utility.yul\":12341:12347   */\n      dup3\n        /* \"#utility.yul\":12337:12351   */\n      add\n        /* \"#utility.yul\":12330:12385   */\n      mstore\n        /* \"#utility.yul\":12213:12392   */\n      pop\n      jump\t// out\n        /* \"#utility.yul\":12398:12764   */\n    tag_313:\n        /* \"#utility.yul\":12540:12543   */\n      0x00\n        /* \"#utility.yul\":12561:12628   */\n      tag_448\n        /* \"#utility.yul\":12625:12627   */\n      0x1d\n        /* \"#utility.yul\":12620:12623   */\n      dup4\n        /* \"#utility.yul\":12561:12628   */\n      tag_280\n      jump\t// in\n    tag_448:\n        /* \"#utility.yul\":12554:12628   */\n      swap2\n      pop\n        /* \"#utility.yul\":12637:12730   */\n      tag_449\n        /* \"#utility.yul\":12726:12729   */\n      dup3\n        /* \"#utility.yul\":12637:12730   */\n      tag_312\n      jump\t// in\n    tag_449:\n        /* \"#utility.yul\":12755:12757   */\n      0x20\n        /* \"#utility.yul\":12750:12753   */\n      dup3\n        /* \"#utility.yul\":12746:12758   */\n      add\n        /* \"#utility.yul\":12739:12758   */\n      swap1\n      pop\n        /* \"#utility.yul\":12398:12764   */\n      swap2\n      swap1\n      pop\n      jump\t// out\n        /* \"#utility.yul\":12770:13189   */\n    tag_206:\n        /* \"#utility.yul\":12936:12940   */\n      0x00\n        /* \"#utility.yul\":12974:12976   */\n      0x20\n        /* \"#utility.yul\":12963:12972   */\n      dup3\n        /* \"#utility.yul\":12959:12977   */\n      add\n        /* \"#utility.yul\":12951:12977   */\n      swap1\n      pop\n        /* \"#utility.yul\":13023:13032   */\n      dup2\n        /* \"#utility.yul\":13017:13021   */\n      dup2\n        /* \"#utility.yul\":13013:13033   */\n      sub\n        /* \"#utility.yul\":13009:13010   */\n      0x00\n        /* \"#utility.yul\":12998:13007   */\n      dup4\n        /* \"#utility.yul\":12994:13011   */\n      add\n        /* \"#utility.yul\":12987:13034   */\n      mstore\n        /* \"#utility.yul\":13051:13182   */\n      tag_451\n        /* \"#utility.yul\":13177:13181   */\n      dup2\n        /* \"#utility.yul\":13051:13182   */\n      tag_313\n      jump\t// in\n    tag_451:\n        /* \"#utility.yul\":13043:13182   */\n      swap1\n      pop\n        /* \"#utility.yul\":12770:13189   */\n      swap2\n      swap1\n      pop\n      jump\t// out\n        /* \"#utility.yul\":13195:13419   */\n    tag_314:\n        /* \"#utility.yul\":13335:13369   */\n      0x45524332303a207472616e736665722066726f6d20746865207a65726f206164\n        /* \"#utility.yul\":13331:13332   */\n      0x00\n        /* \"#utility.yul\":13323:13329   */\n      dup3\n        /* \"#utility.yul\":13319:13333   */\n      add\n        /* \"#utility.yul\":13312:13370   */\n      mstore\n        /* \"#utility.yul\":13404:13411   */\n      0x6472657373000000000000000000000000000000000000000000000000000000\n        /* \"#utility.yul\":13399:13401   */\n      0x20\n        /* \"#utility.yul\":13391:13397   */\n      dup3\n        /* \"#utility.yul\":13387:13402   */\n      add\n        /* \"#utility.yul\":13380:13412   */\n      mstore\n        /* \"#utility.yul\":13195:13419   */\n      pop\n      jump\t// out\n        /* \"#utility.yul\":13425:13791   */\n    tag_315:\n        /* \"#utility.yul\":13567:13570   */\n      0x00\n        /* \"#utility.yul\":13588:13655   */\n      tag_454\n        /* \"#utility.yul\":13652:13654   */\n      0x25\n        /* \"#utility.yul\":13647:13650   */\n      dup4\n        /* \"#utility.yul\":13588:13655   */\n      tag_280\n      jump\t// in\n    tag_454:\n        /* \"#utility.yul\":13581:13655   */\n      swap2\n      pop\n        /* \"#utility.yul\":13664:13757   */\n      tag_455\n        /* \"#utility.yul\":13753:13756   */\n      dup3\n        /* \"#utility.yul\":13664:13757   */\n      tag_314\n      jump\t// in\n    tag_455:\n        /* \"#utility.yul\":13782:13784   */\n      0x40\n        /* \"#utility.yul\":13777:13780   */\n      dup3\n        /* \"#utility.yul\":13773:13785   */\n      add\n        /* \"#utility.yul\":13766:13785   */\n      swap1\n      pop\n        /* \"#utility.yul\":13425:13791   */\n      swap2\n      swap1\n      pop\n      jump\t// out\n        /* \"#utility.yul\":13797:14216   */\n    tag_211:\n        /* \"#utility.yul\":13963:13967   */\n      0x00\n        /* \"#utility.yul\":14001:14003   */\n      0x20\n        /* \"#utility.yul\":13990:13999   */\n      dup3\n        /* \"#utility.yul\":13986:14004   */\n      add\n        /* \"#utility.yul\":13978:14004   */\n      swap1\n      pop\n        /* \"#utility.yul\":14050:14059   */\n      dup2\n        /* \"#utility.yul\":14044:14048   */\n      dup2\n        /* \"#utility.yul\":14040:14060   */\n      sub\n        /* \"#utility.yul\":14036:14037   */\n      0x00\n        /* \"#utility.yul\":14025:14034   */\n      dup4\n        /* \"#utility.yul\":14021:14038   */\n      add\n        /* \"#utility.yul\":14014:14061   */\n      mstore\n        /* \"#utility.yul\":14078:14209   */\n      tag_457\n        /* \"#utility.yul\":14204:14208   */\n      dup2\n        /* \"#utility.yul\":14078:14209   */\n      tag_315\n      jump\t// in\n    tag_457:\n        /* \"#utility.yul\":14070:14209   */\n      swap1\n      pop\n        /* \"#utility.yul\":13797:14216   */\n      swap2\n      swap1\n      pop\n      jump\t// out\n        /* \"#utility.yul\":14222:14444   */\n    tag_316:\n        /* \"#utility.yul\":14362:14396   */\n      0x45524332303a207472616e7366657220746f20746865207a65726f2061646472\n        /* \"#utility.yul\":14358:14359   */\n      0x00\n        /* \"#utility.yul\":14350:14356   */\n      dup3\n        /* \"#utility.yul\":14346:14360   */\n      add\n        /* \"#utility.yul\":14339:14397   */\n      mstore\n        /* \"#utility.yul\":14431:14436   */\n      0x6573730000000000000000000000000000000000000000000000000000000000\n        /* \"#utility.yul\":14426:14428   */\n      0x20\n        /* \"#utility.yul\":14418:14424   */\n      dup3\n        /* \"#utility.yul\":14414:14429   */\n      add\n        /* \"#utility.yul\":14407:14437   */\n      mstore\n        /* \"#utility.yul\":14222:14444   */\n      pop\n      jump\t// out\n        /* \"#utility.yul\":14450:14816   */\n    tag_317:\n        /* \"#utility.yul\":14592:14595   */\n      0x00\n        /* \"#utility.yul\":14613:14680   */\n      tag_460\n        /* \"#utility.yul\":14677:14679   */\n      0x23\n        /* \"#utility.yul\":14672:14675   */\n      dup4\n        /* \"#utility.yul\":14613:14680   */\n      tag_280\n      jump\t// in\n    tag_460:\n        /* \"#utility.yul\":14606:14680   */\n      swap2\n      pop\n        /* \"#utility.yul\":14689:14782   */\n      tag_461\n        /* \"#utility.yul\":14778:14781   */\n      dup3\n        /* \"#utility.yul\":14689:14782   */\n      tag_316\n      jump\t// in\n    tag_461:\n        /* \"#utility.yul\":14807:14809   */\n      0x40\n        /* \"#utility.yul\":14802:14805   */\n      dup3\n        /* \"#utility.yul\":14798:14810   */\n      add\n        /* \"#utility.yul\":14791:14810   */\n      swap1\n      pop\n        /* \"#utility.yul\":14450:14816   */\n      swap2\n      swap1\n      pop\n      jump\t// out\n        /* \"#utility.yul\":14822:15241   */\n    tag_214:\n        /* \"#utility.yul\":14988:14992   */\n      0x00\n        /* \"#utility.yul\":15026:15028   */\n      0x20\n        /* \"#utility.yul\":15015:15024   */\n      dup3\n        /* \"#utility.yul\":15011:15029   */\n      add\n        /* \"#utility.yul\":15003:15029   */\n      swap1\n      pop\n        /* \"#utility.yul\":15075:15084   */\n      dup2\n        /* \"#utility.yul\":15069:15073   */\n      dup2\n        /* \"#utility.yul\":15065:15085   */\n      sub\n        /* \"#utility.yul\":15061:15062   */\n      0x00\n        /* \"#utility.yul\":15050:15059   */\n      dup4\n        /* \"#utility.yul\":15046:15063   */\n      add\n        /* \"#utility.yul\":15039:15086   */\n      mstore\n        /* \"#utility.yul\":15103:15234   */\n      tag_463\n        /* \"#utility.yul\":15229:15233   */\n      dup2\n        /* \"#utility.yul\":15103:15234   */\n      tag_317\n      jump\t// in\n    tag_463:\n        /* \"#utility.yul\":15095:15234   */\n      swap1\n      pop\n        /* \"#utility.yul\":14822:15241   */\n      swap2\n      swap1\n      pop\n      jump\t// out\n        /* \"#utility.yul\":15247:15472   */\n    tag_318:\n        /* \"#utility.yul\":15387:15421   */\n      0x45524332303a207472616e7366657220616d6f756e7420657863656564732062\n        /* \"#utility.yul\":15383:15384   */\n      0x00\n        /* \"#utility.yul\":15375:15381   */\n      dup3\n        /* \"#utility.yul\":15371:15385   */\n      add\n        /* \"#utility.yul\":15364:15422   */\n      mstore\n        /* \"#utility.yul\":15456:15464   */\n      0x616c616e63650000000000000000000000000000000000000000000000000000\n        /* \"#utility.yul\":15451:15453   */\n      0x20\n        /* \"#utility.yul\":15443:15449   */\n      dup3\n        /* \"#utility.yul\":15439:15454   */\n      add\n        /* \"#utility.yul\":15432:15465   */\n      mstore\n        /* \"#utility.yul\":15247:15472   */\n      pop\n      jump\t// out\n        /* \"#utility.yul\":15478:15844   */\n    tag_319:\n        /* \"#utility.yul\":15620:15623   */\n      0x00\n        /* \"#utility.yul\":15641:15708   */\n      tag_466\n        /* \"#utility.yul\":15705:15707   */\n      0x26\n        /* \"#utility.yul\":15700:15703   */\n      dup4\n        /* \"#utility.yul\":15641:15708   */\n      tag_280\n      jump\t// in\n    tag_466:\n        /* \"#utility.yul\":15634:15708   */\n      swap2\n      pop\n        /* \"#utility.yul\":15717:15810   */\n      tag_467\n        /* \"#utility.yul\":15806:15809   */\n      dup3\n        /* \"#utility.yul\":15717:15810   */\n      tag_318\n      jump\t// in\n    tag_467:\n        /* \"#utility.yul\":15835:15837   */\n      0x40\n        /* \"#utility.yul\":15830:15833   */\n      dup3\n        /* \"#utility.yul\":15826:15838   */\n      add\n        /* \"#utility.yul\":15819:15838   */\n      swap1\n      pop\n        /* \"#utility.yul\":15478:15844   */\n      swap2\n      swap1\n      pop\n      jump\t// out\n        /* \"#utility.yul\":15850:16269   */\n    tag_219:\n        /* \"#utility.yul\":16016:16020   */\n      0x00\n        /* \"#utility.yul\":16054:16056   */\n      0x20\n        /* \"#utility.yul\":16043:16052   */\n      dup3\n        /* \"#utility.yul\":16039:16057   */\n      add\n        /* \"#utility.yul\":16031:16057   */\n      swap1\n      pop\n        /* \"#utility.yul\":16103:16112   */\n      dup2\n        /* \"#utility.yul\":16097:16101   */\n      dup2\n        /* \"#utility.yul\":16093:16113   */\n      sub\n        /* \"#utility.yul\":16089:16090   */\n      0x00\n        /* \"#utility.yul\":16078:16087   */\n      dup4\n        /* \"#utility.yul\":16074:16091   */\n      add\n        /* \"#utility.yul\":16067:16114   */\n      mstore\n        /* \"#utility.yul\":16131:16262   */\n      tag_469\n        /* \"#utility.yul\":16257:16261   */\n      dup2\n        /* \"#utility.yul\":16131:16262   */\n      tag_319\n      jump\t// in\n    tag_469:\n        /* \"#utility.yul\":16123:16262   */\n      swap1\n      pop\n        /* \"#utility.yul\":15850:16269   */\n      swap2\n      swap1\n      pop\n      jump\t// out\n        /* \"#utility.yul\":16275:16457   */\n    tag_320:\n        /* \"#utility.yul\":16415:16449   */\n      0x4f776e61626c653a2063616c6c6572206973206e6f7420746865206f776e6572\n        /* \"#utility.yul\":16411:16412   */\n      0x00\n        /* \"#utility.yul\":16403:16409   */\n      dup3\n        /* \"#utility.yul\":16399:16413   */\n      add\n        /* \"#utility.yul\":16392:16450   */\n      mstore\n        /* \"#utility.yul\":16275:16457   */\n      pop\n      jump\t// out\n        /* \"#utility.yul\":16463:16829   */\n    tag_321:\n        /* \"#utility.yul\":16605:16608   */\n      0x00\n        /* \"#utility.yul\":16626:16693   */\n      tag_472\n        /* \"#utility.yul\":16690:16692   */\n      0x20\n        /* \"#utility.yul\":16685:16688   */\n      dup4\n        /* \"#utility.yul\":16626:16693   */\n      tag_280\n      jump\t// in\n    tag_472:\n        /* \"#utility.yul\":16619:16693   */\n      swap2\n      pop\n        /* \"#utility.yul\":16702:16795   */\n      tag_473\n        /* \"#utility.yul\":16791:16794   */\n      dup3\n        /* \"#utility.yul\":16702:16795   */\n      tag_320\n      jump\t// in\n    tag_473:\n        /* \"#utility.yul\":16820:16822   */\n      0x20\n        /* \"#utility.yul\":16815:16818   */\n      dup3\n        /* \"#utility.yul\":16811:16823   */\n      add\n        /* \"#utility.yul\":16804:16823   */\n      swap1\n      pop\n        /* \"#utility.yul\":16463:16829   */\n      swap2\n      swap1\n      pop\n      jump\t// out\n        /* \"#utility.yul\":16835:17254   */\n    tag_228:\n        /* \"#utility.yul\":17001:17005   */\n      0x00\n        /* \"#utility.yul\":17039:17041   */\n      0x20\n        /* \"#utility.yul\":17028:17037   */\n      dup3\n        /* \"#utility.yul\":17024:17042   */\n      add\n        /* \"#utility.yul\":17016:17042   */\n      swap1\n      pop\n        /* \"#utility.yul\":17088:17097   */\n      dup2\n        /* \"#utility.yul\":17082:17086   */\n      dup2\n        /* \"#utility.yul\":17078:17098   */\n      sub\n        /* \"#utility.yul\":17074:17075   */\n      0x00\n        /* \"#utility.yul\":17063:17072   */\n      dup4\n        /* \"#utility.yul\":17059:17076   */\n      add\n        /* \"#utility.yul\":17052:17099   */\n      mstore\n        /* \"#utility.yul\":17116:17247   */\n      tag_475\n        /* \"#utility.yul\":17242:17246   */\n      dup2\n        /* \"#utility.yul\":17116:17247   */\n      tag_321\n      jump\t// in\n    tag_475:\n        /* \"#utility.yul\":17108:17247   */\n      swap1\n      pop\n        /* \"#utility.yul\":16835:17254   */\n      swap2\n      swap1\n      pop\n      jump\t// out\n        /* \"#utility.yul\":17260:17441   */\n    tag_322:\n        /* \"#utility.yul\":17400:17433   */\n      0x45524332303a206d696e7420746f20746865207a65726f206164647265737300\n        /* \"#utility.yul\":17396:17397   */\n      0x00\n        /* \"#utility.yul\":17388:17394   */\n      dup3\n        /* \"#utility.yul\":17384:17398   */\n      add\n        /* \"#utility.yul\":17377:17434   */\n      mstore\n        /* \"#utility.yul\":17260:17441   */\n      pop\n      jump\t// out\n        /* \"#utility.yul\":17447:17813   */\n    tag_323:\n        /* \"#utility.yul\":17589:17592   */\n      0x00\n        /* \"#utility.yul\":17610:17677   */\n      tag_478\n        /* \"#utility.yul\":17674:17676   */\n      0x1f\n        /* \"#utility.yul\":17669:17672   */\n      dup4\n        /* \"#utility.yul\":17610:17677   */\n      tag_280\n      jump\t// in\n    tag_478:\n        /* \"#utility.yul\":17603:17677   */\n      swap2\n      pop\n        /* \"#utility.yul\":17686:17779   */\n      tag_479\n        /* \"#utility.yul\":17775:17778   */\n      dup3\n        /* \"#utility.yul\":17686:17779   */\n      tag_322\n      jump\t// in\n    tag_479:\n        /* \"#utility.yul\":17804:17806   */\n      0x20\n        /* \"#utility.yul\":17799:17802   */\n      dup3\n        /* \"#utility.yul\":17795:17807   */\n      add\n        /* \"#utility.yul\":17788:17807   */\n      swap1\n      pop\n        /* \"#utility.yul\":17447:17813   */\n      swap2\n      swap1\n      pop\n      jump\t// out\n        /* \"#utility.yul\":17819:18238   */\n    tag_238:\n        /* \"#utility.yul\":17985:17989   */\n      0x00\n        /* \"#utility.yul\":18023:18025   */\n      0x20\n        /* \"#utility.yul\":18012:18021   */\n      dup3\n        /* \"#utility.yul\":18008:18026   */\n      add\n        /* \"#utility.yul\":18000:18026   */\n      swap1\n      pop\n        /* \"#utility.yul\":18072:18081   */\n      dup2\n        /* \"#utility.yul\":18066:18070   */\n      dup2\n        /* \"#utility.yul\":18062:18082   */\n      sub\n        /* \"#utility.yul\":18058:18059   */\n      0x00\n        /* \"#utility.yul\":18047:18056   */\n      dup4\n        /* \"#utility.yul\":18043:18060   */\n      add\n        /* \"#utility.yul\":18036:18083   */\n      mstore\n        /* \"#utility.yul\":18100:18231   */\n      tag_481\n        /* \"#utility.yul\":18226:18230   */\n      dup2\n        /* \"#utility.yul\":18100:18231   */\n      tag_323\n      jump\t// in\n    tag_481:\n        /* \"#utility.yul\":18092:18231   */\n      swap1\n      pop\n        /* \"#utility.yul\":17819:18238   */\n      swap2\n      swap1\n      pop\n      jump\t// out\n        /* \"#utility.yul\":18244:18464   */\n    tag_324:\n        /* \"#utility.yul\":18384:18418   */\n      0x45524332303a206275726e2066726f6d20746865207a65726f20616464726573\n        /* \"#utility.yul\":18380:18381   */\n      0x00\n        /* \"#utility.yul\":18372:18378   */\n      dup3\n        /* \"#utility.yul\":18368:18382   */\n      add\n        /* \"#utility.yul\":18361:18419   */\n      mstore\n        /* \"#utility.yul\":18453:18456   */\n      0x7300000000000000000000000000000000000000000000000000000000000000\n        /* \"#utility.yul\":18448:18450   */\n      0x20\n        /* \"#utility.yul\":18440:18446   */\n      dup3\n        /* \"#utility.yul\":18436:18451   */\n      add\n        /* \"#utility.yul\":18429:18457   */\n      mstore\n        /* \"#utility.yul\":18244:18464   */\n      pop\n      jump\t// out\n        /* \"#utility.yul\":18470:18836   */\n    tag_325:\n        /* \"#utility.yul\":18612:18615   */\n      0x00\n        /* \"#utility.yul\":18633:18700   */\n      tag_484\n        /* \"#utility.yul\":18697:18699   */\n      0x21\n        /* \"#utility.yul\":18692:18695   */\n      dup4\n        /* \"#utility.yul\":18633:18700   */\n      tag_280\n      jump\t// in\n    tag_484:\n        /* \"#utility.yul\":18626:18700   */\n      swap2\n      pop\n        /* \"#utility.yul\":18709:18802   */\n      tag_485\n        /* \"#utility.yul\":18798:18801   */\n      dup3\n        /* \"#utility.yul\":18709:18802   */\n      tag_324\n      jump\t// in\n    tag_485:\n        /* \"#utility.yul\":18827:18829   */\n      0x40\n        /* \"#utility.yul\":18822:18825   */\n      dup3\n        /* \"#utility.yul\":18818:18830   */\n      add\n        /* \"#utility.yul\":18811:18830   */\n      swap1\n      pop\n        /* \"#utility.yul\":18470:18836   */\n      swap2\n      swap1\n      pop\n      jump\t// out\n        /* \"#utility.yul\":18842:19261   */\n    tag_246:\n        /* \"#utility.yul\":19008:19012   */\n      0x00\n        /* \"#utility.yul\":19046:19048   */\n      0x20\n        /* \"#utility.yul\":19035:19044   */\n      dup3\n        /* \"#utility.yul\":19031:19049   */\n      add\n        /* \"#utility.yul\":19023:19049   */\n      swap1\n      pop\n        /* \"#utility.yul\":19095:19104   */\n      dup2\n        /* \"#utility.yul\":19089:19093   */\n      dup2\n        /* \"#utility.yul\":19085:19105   */\n      sub\n        /* \"#utility.yul\":19081:19082   */\n      0x00\n        /* \"#utility.yul\":19070:19079   */\n      dup4\n        /* \"#utility.yul\":19066:19083   */\n      add\n        /* \"#utility.yul\":19059:19106   */\n      mstore\n        /* \"#utility.yul\":19123:19254   */\n      tag_487\n        /* \"#utility.yul\":19249:19253   */\n      dup2\n        /* \"#utility.yul\":19123:19254   */\n      tag_325\n      jump\t// in\n    tag_487:\n        /* \"#utility.yul\":19115:19254   */\n      swap1\n      pop\n        /* \"#utility.yul\":18842:19261   */\n      swap2\n      swap1\n      pop\n      jump\t// out\n        /* \"#utility.yul\":19267:19488   */\n    tag_326:\n        /* \"#utility.yul\":19407:19441   */\n      0x45524332303a206275726e20616d6f756e7420657863656564732062616c616e\n        /* \"#utility.yul\":19403:19404   */\n      0x00\n        /* \"#utility.yul\":19395:19401   */\n      dup3\n        /* \"#utility.yul\":19391:19405   */\n      add\n        /* \"#utility.yul\":19384:19442   */\n      mstore\n        /* \"#utility.yul\":19476:19480   */\n      0x6365000000000000000000000000000000000000000000000000000000000000\n        /* \"#utility.yul\":19471:19473   */\n      0x20\n        /* \"#utility.yul\":19463:19469   */\n      dup3\n        /* \"#utility.yul\":19459:19474   */\n      add\n        /* \"#utility.yul\":19452:19481   */\n      mstore\n        /* \"#utility.yul\":19267:19488   */\n      pop\n      jump\t// out\n        /* \"#utility.yul\":19494:19860   */\n    tag_327:\n        /* \"#utility.yul\":19636:19639   */\n      0x00\n        /* \"#utility.yul\":19657:19724   */\n      tag_490\n        /* \"#utility.yul\":19721:19723   */\n      0x22\n        /* \"#utility.yul\":19716:19719   */\n      dup4\n        /* \"#utility.yul\":19657:19724   */\n      tag_280\n      jump\t// in\n    tag_490:\n        /* \"#utility.yul\":19650:19724   */\n      swap2\n      pop\n        /* \"#utility.yul\":19733:19826   */\n      tag_491\n        /* \"#utility.yul\":19822:19825   */\n      dup3\n        /* \"#utility.yul\":19733:19826   */\n      tag_326\n      jump\t// in\n    tag_491:\n        /* \"#utility.yul\":19851:19853   */\n      0x40\n        /* \"#utility.yul\":19846:19849   */\n      dup3\n        /* \"#utility.yul\":19842:19854   */\n      add\n        /* \"#utility.yul\":19835:19854   */\n      swap1\n      pop\n        /* \"#utility.yul\":19494:19860   */\n      swap2\n      swap1\n      pop\n      jump\t// out\n        /* \"#utility.yul\":19866:20285   */\n    tag_250:\n        /* \"#utility.yul\":20032:20036   */\n      0x00\n        /* \"#utility.yul\":20070:20072   */\n      0x20\n        /* \"#utility.yul\":20059:20068   */\n      dup3\n        /* \"#utility.yul\":20055:20073   */\n      add\n        /* \"#utility.yul\":20047:20073   */\n      swap1\n      pop\n        /* \"#utility.yul\":20119:20128   */\n      dup2\n        /* \"#utility.yul\":20113:20117   */\n      dup2\n        /* \"#utility.yul\":20109:20129   */\n      sub\n        /* \"#utility.yul\":20105:20106   */\n      0x00\n        /* \"#utility.yul\":20094:20103   */\n      dup4\n        /* \"#utility.yul\":20090:20107   */\n      add\n        /* \"#utility.yul\":20083:20130   */\n      mstore\n        /* \"#utility.yul\":20147:20278   */\n      tag_493\n        /* \"#utility.yul\":20273:20277   */\n      dup2\n        /* \"#utility.yul\":20147:20278   */\n      tag_327\n      jump\t// in\n    tag_493:\n        /* \"#utility.yul\":20139:20278   */\n      swap1\n      pop\n        /* \"#utility.yul\":19866:20285   */\n      swap2\n      swap1\n      pop\n      jump\t// out\n        /* \"#utility.yul\":20291:20468   */\n    tag_328:\n        /* \"#utility.yul\":20431:20460   */\n      0x746f6b656e207472616e73666572207768696c65207061757365640000000000\n        /* \"#utility.yul\":20427:20428   */\n      0x00\n        /* \"#utility.yul\":20419:20425   */\n      dup3\n        /* \"#utility.yul\":20415:20429   */\n      add\n        /* \"#utility.yul\":20408:20461   */\n      mstore\n        /* \"#utility.yul\":20291:20468   */\n      pop\n      jump\t// out\n        /* \"#utility.yul\":20474:20840   */\n    tag_329:\n        /* \"#utility.yul\":20616:20619   */\n      0x00\n        /* \"#utility.yul\":20637:20704   */\n      tag_496\n        /* \"#utility.yul\":20701:20703   */\n      0x1b\n        /* \"#utility.yul\":20696:20699   */\n      dup4\n        /* \"#utility.yul\":20637:20704   */\n      tag_280\n      jump\t// in\n    tag_496:\n        /* \"#utility.yul\":20630:20704   */\n      swap2\n      pop\n        /* \"#utility.yul\":20713:20806   */\n      tag_497\n        /* \"#utility.yul\":20802:20805   */\n      dup3\n        /* \"#utility.yul\":20713:20806   */\n      tag_328\n      jump\t// in\n    tag_497:\n        /* \"#utility.yul\":20831:20833   */\n      0x20\n        /* \"#utility.yul\":20826:20829   */\n      dup3\n        /* \"#utility.yul\":20822:20834   */\n      add\n        /* \"#utility.yul\":20815:20834   */\n      swap1\n      pop\n        /* \"#utility.yul\":20474:20840   */\n      swap2\n      swap1\n      pop\n      jump\t// out\n        /* \"#utility.yul\":20846:21265   */\n    tag_266:\n        /* \"#utility.yul\":21012:21016   */\n      0x00\n        /* \"#utility.yul\":21050:21052   */\n      0x20\n        /* \"#utility.yul\":21039:21048   */\n      dup3\n        /* \"#utility.yul\":21035:21053   */\n      add\n        /* \"#utility.yul\":21027:21053   */\n      swap1\n      pop\n        /* \"#utility.yul\":21099:21108   */\n      dup2\n        /* \"#utility.yul\":21093:21097   */\n      dup2\n        /* \"#utility.yul\":21089:21109   */\n      sub\n        /* \"#utility.yul\":21085:21086   */\n      0x00\n        /* \"#utility.yul\":21074:21083   */\n      dup4\n        /* \"#utility.yul\":21070:21087   */\n      add\n        /* \"#utility.yul\":21063:21110   */\n      mstore\n        /* \"#utility.yul\":21127:21258   */\n      tag_499\n        /* \"#utility.yul\":21253:21257   */\n      dup2\n        /* \"#utility.yul\":21127:21258   */\n      tag_329\n      jump\t// in\n    tag_499:\n        /* \"#utility.yul\":21119:21258   */\n      swap1\n      pop\n        /* \"#utility.yul\":20846:21265   */\n      swap2\n      swap1\n      pop\n      jump\t// out\n        /* \"#utility.yul\":21271:21441   */\n    tag_330:\n        /* \"#utility.yul\":21411:21433   */\n      0x5061757361626c653a206e6f7420706175736564000000000000000000000000\n        /* \"#utility.yul\":21407:21408   */\n      0x00\n        /* \"#utility.yul\":21399:21405   */\n      dup3\n        /* \"#utility.yul\":21395:21409   */\n      add\n        /* \"#utility.yul\":21388:21434   */\n      mstore\n        /* \"#utility.yul\":21271:21441   */\n      pop\n      jump\t// out\n        /* \"#utility.yul\":21447:21813   */\n    tag_331:\n        /* \"#utility.yul\":21589:21592   */\n      0x00\n        /* \"#utility.yul\":21610:21677   */\n      tag_502\n        /* \"#utility.yul\":21674:21676   */\n      0x14\n        /* \"#utility.yul\":21669:21672   */\n      dup4\n        /* \"#utility.yul\":21610:21677   */\n      tag_280\n      jump\t// in\n    tag_502:\n        /* \"#utility.yul\":21603:21677   */\n      swap2\n      pop\n        /* \"#utility.yul\":21686:21779   */\n      tag_503\n        /* \"#utility.yul\":21775:21778   */\n      dup3\n        /* \"#utility.yul\":21686:21779   */\n      tag_330\n      jump\t// in\n    tag_503:\n        /* \"#utility.yul\":21804:21806   */\n      0x20\n        /* \"#utility.yul\":21799:21802   */\n      dup3\n        /* \"#utility.yul\":21795:21807   */\n      add\n        /* \"#utility.yul\":21788:21807   */\n      swap1\n      pop\n        /* \"#utility.yul\":21447:21813   */\n      swap2\n      swap1\n      pop\n      jump\t// out\n        /* \"#utility.yul\":21819:22238   */\n    tag_272:\n        /* \"#utility.yul\":21985:21989   */\n      0x00\n        /* \"#utility.yul\":22023:22025   */\n      0x20\n        /* \"#utility.yul\":22012:22021   */\n      dup3\n        /* \"#utility.yul\":22008:22026   */\n      add\n        /* \"#utility.yul\":22000:22026   */\n      swap1\n      pop\n        /* \"#utility.yul\":22072:22081   */\n      dup2\n        /* \"#utility.yul\":22066:22070   */\n      dup2\n        /* \"#utility.yul\":22062:22082   */\n      sub\n        /* \"#utility.yul\":22058:22059   */\n      0x00\n        /* \"#utility.yul\":22047:22056   */\n      dup4\n        /* \"#utility.yul\":22043:22060   */\n      add\n        /* \"#utility.yul\":22036:22083   */\n      mstore\n        /* \"#utility.yul\":22100:22231   */\n      tag_505\n        /* \"#utility.yul\":22226:22230   */\n      dup2\n        /* \"#utility.yul\":22100:22231   */\n      tag_331\n      jump\t// in\n    tag_505:\n        /* \"#utility.yul\":22092:22231   */\n      swap1\n      pop\n        /* \"#utility.yul\":21819:22238   */\n      swap2\n      swap1\n      pop\n      jump\t// out\n        /* \"#utility.yul\":22244:22410   */\n    tag_332:\n        /* \"#utility.yul\":22384:22402   */\n      0x5061757361626c653a2070617573656400000000000000000000000000000000\n        /* \"#utility.yul\":22380:22381   */\n      0x00\n        /* \"#utility.yul\":22372:22378   */\n      dup3\n        /* \"#utility.yul\":22368:22382   */\n      add\n        /* \"#utility.yul\":22361:22403   */\n      mstore\n        /* \"#utility.yul\":22244:22410   */\n      pop\n      jump\t// out\n        /* \"#utility.yul\":22416:22782   */\n    tag_333:\n        /* \"#utility.yul\":22558:22561   */\n      0x00\n        /* \"#utility.yul\":22579:22646   */\n      tag_508\n        /* \"#utility.yul\":22643:22645   */\n      0x10\n        /* \"#utility.yul\":22638:22641   */\n      dup4\n        /* \"#utility.yul\":22579:22646   */\n      tag_280\n      jump\t// in\n    tag_508:\n        /* \"#utility.yul\":22572:22646   */\n      swap2\n      pop\n        /* \"#utility.yul\":22655:22748   */\n      tag_509\n        /* \"#utility.yul\":22744:22747   */\n      dup3\n        /* \"#utility.yul\":22655:22748   */\n      tag_332\n      jump\t// in\n    tag_509:\n        /* \"#utility.yul\":22773:22775   */\n      0x20\n        /* \"#utility.yul\":22768:22771   */\n      dup3\n        /* \"#utility.yul\":22764:22776   */\n      add\n        /* \"#utility.yul\":22757:22776   */\n      swap1\n      pop\n        /* \"#utility.yul\":22416:22782   */\n      swap2\n      swap1\n      pop\n      jump\t// out\n        /* \"#utility.yul\":22788:23207   */\n    tag_277:\n        /* \"#utility.yul\":22954:22958   */\n      0x00\n        /* \"#utility.yul\":22992:22994   */\n      0x20\n        /* \"#utility.yul\":22981:22990   */\n      dup3\n        /* \"#utility.yul\":22977:22995   */\n      add\n        /* \"#utility.yul\":22969:22995   */\n      swap1\n      pop\n        /* \"#utility.yul\":23041:23050   */\n      dup2\n        /* \"#utility.yul\":23035:23039   */\n      dup2\n        /* \"#utility.yul\":23031:23051   */\n      sub\n        /* \"#utility.yul\":23027:23028   */\n      0x00\n        /* \"#utility.yul\":23016:23025   */\n      dup4\n        /* \"#utility.yul\":23012:23029   */\n      add\n        /* \"#utility.yul\":23005:23052   */\n      mstore\n        /* \"#utility.yul\":23069:23200   */\n      tag_511\n        /* \"#utility.yul\":23195:23199   */\n      dup2\n        /* \"#utility.yul\":23069:23200   */\n      tag_333\n      jump\t// in\n    tag_511:\n        /* \"#utility.yul\":23061:23200   */\n      swap1\n      pop\n        /* \"#utility.yul\":22788:23207   */\n      swap2\n      swap1\n      pop\n      jump\t// out\n\n    auxdata: 0xa26469706673582212200a9477463507c8efb244d79f64ee3f4d041aa2bd1f903884b13103192df7eec164736f6c634300081e0033\n}\n",
				"bytecode": {
					"linkReferences": {},
					"object": "60a060405234801561000f575f5ffd5b50604051612a1f380380612a1f833981810160405281019061003191906104d1565b6040518060400160405280601081526020017f4167726f4d61726b657420546f6b656e000000000000000000000000000000008152506040518060400160405280600481526020017f4147524f0000000000000000000000000000000000000000000000000000000081525081600390816100ac9190610743565b5080600490816100bc9190610743565b5050506100db6100d06101f260201b60201c565b6101f960201b60201c565b5f600560146101000a81548160ff0219169083151502179055505f8111610137576040517f08c379a000000000000000000000000000000000000000000000000000000000815260040161012e9061086c565b60405180910390fd5b80608081815250505f8211156101eb5760805182111561018c576040517f08c379a0000000000000000000000000000000000000000000000000000000008152600401610183906108d4565b60405180910390fd5b61019c33836102bc60201b60201c565b3373ffffffffffffffffffffffffffffffffffffffff167f30385c845b448a36257a6a1716e6ad2e1bc2cbe333cde1e69fe849ad6511adfe836040516101e29190610901565b60405180910390a25b5050610a4a565b5f33905090565b5f60055f9054906101000a900473ffffffffffffffffffffffffffffffffffffffff1690508160055f6101000a81548173ffffffffffffffffffffffffffffffffffffffff021916908373ffffffffffffffffffffffffffffffffffffffff1602179055508173ffffffffffffffffffffffffffffffffffffffff168173ffffffffffffffffffffffffffffffffffffffff167f8be0079c531659141344cd1fd0a4f28419497f9722a3daafe3b4186f6b6457e060405160405180910390a35050565b5f73ffffffffffffffffffffffffffffffffffffffff168273ffffffffffffffffffffffffffffffffffffffff160361032a576040517f08c379a000000000000000000000000000000000000000000000000000000000815260040161032190610964565b60405180910390fd5b61033b5f838361041660201b60201c565b8060025f82825461034c91906109af565b92505081905550805f5f8473ffffffffffffffffffffffffffffffffffffffff1673ffffffffffffffffffffffffffffffffffffffff1681526020019081526020015f205f82825401925050819055508173ffffffffffffffffffffffffffffffffffffffff165f73ffffffffffffffffffffffffffffffffffffffff167fddf252ad1be2c89b69c2b068fc378daa952ba7f163c4a11628f55a4df523b3ef836040516103f99190610901565b60405180910390a36104125f838361047a60201b60201c565b5050565b61042783838361047f60201b60201c565b61043561048460201b60201c565b15610475576040517f08c379a000000000000000000000000000000000000000000000000000000000815260040161046c90610a2c565b60405180910390fd5b505050565b505050565b505050565b5f600560149054906101000a900460ff16905090565b5f5ffd5b5f819050919050565b6104b08161049e565b81146104ba575f5ffd5b50565b5f815190506104cb816104a7565b92915050565b5f5f604083850312156104e7576104e661049a565b5b5f6104f4858286016104bd565b9250506020610505858286016104bd565b9150509250929050565b5f81519050919050565b7f4e487b71000000000000000000000000000000000000000000000000000000005f52604160045260245ffd5b7f4e487b71000000000000000000000000000000000000000000000000000000005f52602260045260245ffd5b5f600282049050600182168061058a57607f821691505b60208210810361059d5761059c610546565b5b50919050565b5f819050815f5260205f209050919050565b5f6020601f8301049050919050565b5f82821b905092915050565b5f600883026105ff7fffffffffffffffffffffffffffffffffffffffffffffffffffffffffffffffff826105c4565b61060986836105c4565b95508019841693508086168417925050509392505050565b5f819050919050565b5f61064461063f61063a8461049e565b610621565b61049e565b9050919050565b5f819050919050565b61065d8361062a565b6106716106698261064b565b8484546105d0565b825550505050565b5f5f905090565b610688610679565b610693818484610654565b505050565b5b818110156106b6576106ab5f82610680565b600181019050610699565b5050565b601f8211156106fb576106cc816105a3565b6106d5846105b5565b810160208510156106e4578190505b6106f86106f0856105b5565b830182610698565b50505b505050565b5f82821c905092915050565b5f61071b5f1984600802610700565b1980831691505092915050565b5f610733838361070c565b9150826002028217905092915050565b61074c8261050f565b67ffffffffffffffff81111561076557610764610519565b5b61076f8254610573565b61077a8282856106ba565b5f60209050601f8311600181146107ab575f8415610799578287015190505b6107a38582610728565b86555061080a565b601f1984166107b9866105a3565b5f5b828110156107e0578489015182556001820191506020850194506020810190506107bb565b868310156107fd57848901516107f9601f89168261070c565b8355505b6001600288020188555050505b505050505050565b5f82825260208201905092915050565b7f6361703e300000000000000000000000000000000000000000000000000000005f82015250565b5f610856600583610812565b915061086182610822565b602082019050919050565b5f6020820190508181035f8301526108838161084a565b9050919050565b7f696e697469616c537570706c793e6361700000000000000000000000000000005f82015250565b5f6108be601183610812565b91506108c98261088a565b602082019050919050565b5f6020820190508181035f8301526108eb816108b2565b9050919050565b6108fb8161049e565b82525050565b5f6020820190506109145f8301846108f2565b92915050565b7f45524332303a206d696e7420746f20746865207a65726f2061646472657373005f82015250565b5f61094e601f83610812565b91506109598261091a565b602082019050919050565b5f6020820190508181035f83015261097b81610942565b9050919050565b7f4e487b71000000000000000000000000000000000000000000000000000000005f52601160045260245ffd5b5f6109b98261049e565b91506109c48361049e565b92508282019050808211156109dc576109db610982565b5b92915050565b7f746f6b656e207472616e73666572207768696c652070617573656400000000005f82015250565b5f610a16601b83610812565b9150610a21826109e2565b602082019050919050565b5f6020820190508181035f830152610a4381610a0a565b9050919050565b608051611fb6610a695f395f81816104dc01526105500152611fb65ff3fe608060405234801561000f575f5ffd5b5060043610610135575f3560e01c80635c975abb116100b65780638da5cb5b1161007a5780638da5cb5b1461030157806395d89b411461031f578063a457c2d71461033d578063a9059cbb1461036d578063dd62ed3e1461039d578063f2fde38b146103cd57610135565b80635c975abb1461028357806370a08231146102a1578063715018a6146102d157806379cc6790146102db5780638456cb59146102f757610135565b8063355274ea116100fd578063355274ea146101f357806339509351146102115780633f4ba83a1461024157806340c10f191461024b57806342966c681461026757610135565b806306fdde0314610139578063095ea7b31461015757806318160ddd1461018757806323b872dd146101a5578063313ce567146101d5575b5f5ffd5b6101416103e9565b60405161014e9190611463565b60405180910390f35b610171600480360381019061016c9190611514565b610479565b60405161017e919061156c565b60405180910390f35b61018f61049b565b60405161019c9190611594565b60405180910390f35b6101bf60048036038101906101ba91906115ad565b6104a4565b6040516101cc919061156c565b60405180910390f35b6101dd6104d2565b6040516101ea9190611618565b60405180910390f35b6101fb6104da565b6040516102089190611594565b60405180910390f35b61022b60048036038101906102269190611514565b6104fe565b604051610238919061156c565b60405180910390f35b610249610534565b005b61026560048036038101906102609190611514565b610546565b005b610281600480360381019061027c9190611631565b61061f565b005b61028b610633565b604051610298919061156c565b60405180910390f35b6102bb60048036038101906102b6919061165c565b610649565b6040516102c89190611594565b60405180910390f35b6102d961068e565b005b6102f560048036038101906102f09190611514565b6106a1565b005b6102ff6106c1565b005b6103096106d3565b6040516103169190611696565b60405180910390f35b6103276106fb565b6040516103349190611463565b60405180910390f35b61035760048036038101906103529190611514565b61078b565b604051610364919061156c565b60405180910390f35b61038760048036038101906103829190611514565b610800565b604051610394919061156c565b60405180910390f35b6103b760048036038101906103b291906116af565b610822565b6040516103c49190611594565b60405180910390f35b6103e760048036038101906103e2919061165c565b6108a4565b005b6060600380546103f89061171a565b80601f01602080910402602001604051908101604052809291908181526020018280546104249061171a565b801561046f5780601f106104465761010080835404028352916020019161046f565b820191905f5260205f20905b81548152906001019060200180831161045257829003601f168201915b5050505050905090565b5f5f610483610926565b905061049081858561092d565b600191505092915050565b5f600254905090565b5f5f6104ae610926565b90506104bb858285610af0565b6104c6858585610b7b565b60019150509392505050565b5f6012905090565b7f000000000000000000000000000000000000000000000000000000000000000081565b5f5f610508610926565b905061052981858561051a8589610822565b6105249190611777565b61092d565b600191505092915050565b61053c610de7565b610544610e65565b565b61054e610de7565b7f00000000000000000000000000000000000000000000000000000000000000008161057861049b565b6105829190611777565b11156105c3576040517f08c379a00000000000000000000000000000000000000000000000000000000081526004016105ba906117f4565b60405180910390fd5b6105cd8282610ec7565b8173ffffffffffffffffffffffffffffffffffffffff167f30385c845b448a36257a6a1716e6ad2e1bc2cbe333cde1e69fe849ad6511adfe826040516106139190611594565b60405180910390a25050565b61063061062a610926565b82611015565b50565b5f600560149054906101000a900460ff16905090565b5f5f5f8373ffffffffffffffffffffffffffffffffffffffff1673ffffffffffffffffffffffffffffffffffffffff1681526020019081526020015f20549050919050565b610696610de7565b61069f5f6111d8565b565b6106b3826106ad610926565b83610af0565b6106bd8282611015565b5050565b6106c9610de7565b6106d161129b565b565b5f60055f9054906101000a900473ffffffffffffffffffffffffffffffffffffffff16905090565b60606004805461070a9061171a565b80601f01602080910402602001604051908101604052809291908181526020018280546107369061171a565b80156107815780601f1061075857610100808354040283529160200191610781565b820191905f5260205f20905b81548152906001019060200180831161076457829003601f168201915b5050505050905090565b5f5f610795610926565b90505f6107a28286610822565b9050838110156107e7576040517f08c379a00000000000000000000000000000000000000000000000000000000081526004016107de90611882565b60405180910390fd5b6107f4828686840361092d565b60019250505092915050565b5f5f61080a610926565b9050610817818585610b7b565b600191505092915050565b5f60015f8473ffffffffffffffffffffffffffffffffffffffff1673ffffffffffffffffffffffffffffffffffffffff1681526020019081526020015f205f8373ffffffffffffffffffffffffffffffffffffffff1673ffffffffffffffffffffffffffffffffffffffff1681526020019081526020015f2054905092915050565b6108ac610de7565b5f73ffffffffffffffffffffffffffffffffffffffff168173ffffffffffffffffffffffffffffffffffffffff160361091a576040517f08c379a000000000000000000000000000000000000000000000000000000000815260040161091190611910565b60405180910390fd5b610923816111d8565b50565b5f33905090565b5f73ffffffffffffffffffffffffffffffffffffffff168373ffffffffffffffffffffffffffffffffffffffff160361099b576040517f08c379a00000000000000000000000000000000000000000000000000000000081526004016109929061199e565b60405180910390fd5b5f73ffffffffffffffffffffffffffffffffffffffff168273ffffffffffffffffffffffffffffffffffffffff1603610a09576040517f08c379a0000000000000000000000000000000000000000000000000000000008152600401610a0090611a2c565b60405180910390fd5b8060015f8573ffffffffffffffffffffffffffffffffffffffff1673ffffffffffffffffffffffffffffffffffffffff1681526020019081526020015f205f8473ffffffffffffffffffffffffffffffffffffffff1673ffffffffffffffffffffffffffffffffffffffff1681526020019081526020015f20819055508173ffffffffffffffffffffffffffffffffffffffff168373ffffffffffffffffffffffffffffffffffffffff167f8c5be1e5ebec7d5bd14f71427d1e84f3dd0314c0f7b2291e5b200ac8c7c3b92583604051610ae39190611594565b60405180910390a3505050565b5f610afb8484610822565b90507fffffffffffffffffffffffffffffffffffffffffffffffffffffffffffffffff8114610b755781811015610b67576040517f08c379a0000000000000000000000000000000000000000000000000000000008152600401610b5e90611a94565b60405180910390fd5b610b74848484840361092d565b5b50505050565b5f73ffffffffffffffffffffffffffffffffffffffff168373ffffffffffffffffffffffffffffffffffffffff1603610be9576040517f08c379a0000000000000000000000000000000000000000000000000000000008152600401610be090611b22565b60405180910390fd5b5f73ffffffffffffffffffffffffffffffffffffffff168273ffffffffffffffffffffffffffffffffffffffff1603610c57576040517f08c379a0000000000000000000000000000000000000000000000000000000008152600401610c4e90611bb0565b60405180910390fd5b610c628383836112fe565b5f5f5f8573ffffffffffffffffffffffffffffffffffffffff1673ffffffffffffffffffffffffffffffffffffffff1681526020019081526020015f2054905081811015610ce5576040517f08c379a0000000000000000000000000000000000000000000000000000000008152600401610cdc90611c3e565b60405180910390fd5b8181035f5f8673ffffffffffffffffffffffffffffffffffffffff1673ffffffffffffffffffffffffffffffffffffffff1681526020019081526020015f2081905550815f5f8573ffffffffffffffffffffffffffffffffffffffff1673ffffffffffffffffffffffffffffffffffffffff1681526020019081526020015f205f82825401925050819055508273ffffffffffffffffffffffffffffffffffffffff168473ffffffffffffffffffffffffffffffffffffffff167fddf252ad1be2c89b69c2b068fc378daa952ba7f163c4a11628f55a4df523b3ef84604051610dce9190611594565b60405180910390a3610de1848484611356565b50505050565b610def610926565b73ffffffffffffffffffffffffffffffffffffffff16610e0d6106d3565b73ffffffffffffffffffffffffffffffffffffffff1614610e63576040517f08c379a0000000000000000000000000000000000000000000000000000000008152600401610e5a90611ca6565b60405180910390fd5b565b610e6d61135b565b5f600560146101000a81548160ff0219169083151502179055507f5db9ee0a495bf2e6ff9c91a7834c1ba4fdd244a5e8aa4e537bd38aeae4b073aa610eb0610926565b604051610ebd9190611696565b60405180910390a1565b5f73ffffffffffffffffffffffffffffffffffffffff168273ffffffffffffffffffffffffffffffffffffffff1603610f35576040517f08c379a0000000000000000000000000000000000000000000000000000000008152600401610f2c90611d0e565b60405180910390fd5b610f405f83836112fe565b8060025f828254610f519190611777565b92505081905550805f5f8473ffffffffffffffffffffffffffffffffffffffff1673ffffffffffffffffffffffffffffffffffffffff1681526020019081526020015f205f82825401925050819055508173ffffffffffffffffffffffffffffffffffffffff165f73ffffffffffffffffffffffffffffffffffffffff167fddf252ad1be2c89b69c2b068fc378daa952ba7f163c4a11628f55a4df523b3ef83604051610ffe9190611594565b60405180910390a36110115f8383611356565b5050565b5f73ffffffffffffffffffffffffffffffffffffffff168273ffffffffffffffffffffffffffffffffffffffff1603611083576040517f08c379a000000000000000000000000000000000000000000000000000000000815260040161107a90611d9c565b60405180910390fd5b61108e825f836112fe565b5f5f5f8473ffffffffffffffffffffffffffffffffffffffff1673ffffffffffffffffffffffffffffffffffffffff1681526020019081526020015f2054905081811015611111576040517f08c379a000000000000000000000000000000000000000000000000000000000815260040161110890611e2a565b60405180910390fd5b8181035f5f8573ffffffffffffffffffffffffffffffffffffffff1673ffffffffffffffffffffffffffffffffffffffff1681526020019081526020015f20819055508160025f82825403925050819055505f73ffffffffffffffffffffffffffffffffffffffff168373ffffffffffffffffffffffffffffffffffffffff167fddf252ad1be2c89b69c2b068fc378daa952ba7f163c4a11628f55a4df523b3ef846040516111c09190611594565b60405180910390a36111d3835f84611356565b505050565b5f60055f9054906101000a900473ffffffffffffffffffffffffffffffffffffffff1690508160055f6101000a81548173ffffffffffffffffffffffffffffffffffffffff021916908373ffffffffffffffffffffffffffffffffffffffff1602179055508173ffffffffffffffffffffffffffffffffffffffff168173ffffffffffffffffffffffffffffffffffffffff167f8be0079c531659141344cd1fd0a4f28419497f9722a3daafe3b4186f6b6457e060405160405180910390a35050565b6112a36113a4565b6001600560146101000a81548160ff0219169083151502179055507f62e78cea01bee320cd4e420270b5ea74000d11b0c9f74754ebdbfc544b05a2586112e7610926565b6040516112f49190611696565b60405180910390a1565b6113098383836113ee565b611311610633565b15611351576040517f08c379a000000000000000000000000000000000000000000000000000000000815260040161134890611e92565b60405180910390fd5b505050565b505050565b611363610633565b6113a2576040517f08c379a000000000000000000000000000000000000000000000000000000000815260040161139990611efa565b60405180910390fd5b565b6113ac610633565b156113ec576040517f08c379a00000000000000000000000000000000000000000000000000000000081526004016113e390611f62565b60405180910390fd5b565b505050565b5f81519050919050565b5f82825260208201905092915050565b8281835e5f83830152505050565b5f601f19601f8301169050919050565b5f611435826113f3565b61143f81856113fd565b935061144f81856020860161140d565b6114588161141b565b840191505092915050565b5f6020820190508181035f83015261147b818461142b565b905092915050565b5f5ffd5b5f73ffffffffffffffffffffffffffffffffffffffff82169050919050565b5f6114b082611487565b9050919050565b6114c0816114a6565b81146114ca575f5ffd5b50565b5f813590506114db816114b7565b92915050565b5f819050919050565b6114f3816114e1565b81146114fd575f5ffd5b50565b5f8135905061150e816114ea565b92915050565b5f5f6040838503121561152a57611529611483565b5b5f611537858286016114cd565b925050602061154885828601611500565b9150509250929050565b5f8115159050919050565b61156681611552565b82525050565b5f60208201905061157f5f83018461155d565b92915050565b61158e816114e1565b82525050565b5f6020820190506115a75f830184611585565b92915050565b5f5f5f606084860312156115c4576115c3611483565b5b5f6115d1868287016114cd565b93505060206115e2868287016114cd565b92505060406115f386828701611500565b9150509250925092565b5f60ff82169050919050565b611612816115fd565b82525050565b5f60208201905061162b5f830184611609565b92915050565b5f6020828403121561164657611645611483565b5b5f61165384828501611500565b91505092915050565b5f6020828403121561167157611670611483565b5b5f61167e848285016114cd565b91505092915050565b611690816114a6565b82525050565b5f6020820190506116a95f830184611687565b92915050565b5f5f604083850312156116c5576116c4611483565b5b5f6116d2858286016114cd565b92505060206116e3858286016114cd565b9150509250929050565b7f4e487b71000000000000000000000000000000000000000000000000000000005f52602260045260245ffd5b5f600282049050600182168061173157607f821691505b602082108103611744576117436116ed565b5b50919050565b7f4e487b71000000000000000000000000000000000000000000000000000000005f52601160045260245ffd5b5f611781826114e1565b915061178c836114e1565b92508282019050808211156117a4576117a361174a565b5b92915050565b7f63617020657863656564656400000000000000000000000000000000000000005f82015250565b5f6117de600c836113fd565b91506117e9826117aa565b602082019050919050565b5f6020820190508181035f83015261180b816117d2565b9050919050565b7f45524332303a2064656372656173656420616c6c6f77616e63652062656c6f775f8201527f207a65726f000000000000000000000000000000000000000000000000000000602082015250565b5f61186c6025836113fd565b915061187782611812565b604082019050919050565b5f6020820190508181035f83015261189981611860565b9050919050565b7f4f776e61626c653a206e6577206f776e657220697320746865207a65726f20615f8201527f6464726573730000000000000000000000000000000000000000000000000000602082015250565b5f6118fa6026836113fd565b9150611905826118a0565b604082019050919050565b5f6020820190508181035f830152611927816118ee565b9050919050565b7f45524332303a20617070726f76652066726f6d20746865207a65726f206164645f8201527f7265737300000000000000000000000000000000000000000000000000000000602082015250565b5f6119886024836113fd565b91506119938261192e565b604082019050919050565b5f6020820190508181035f8301526119b58161197c565b9050919050565b7f45524332303a20617070726f766520746f20746865207a65726f2061646472655f8201527f7373000000000000000000000000000000000000000000000000000000000000602082015250565b5f611a166022836113fd565b9150611a21826119bc565b604082019050919050565b5f6020820190508181035f830152611a4381611a0a565b9050919050565b7f45524332303a20696e73756666696369656e7420616c6c6f77616e63650000005f82015250565b5f611a7e601d836113fd565b9150611a8982611a4a565b602082019050919050565b5f6020820190508181035f830152611aab81611a72565b9050919050565b7f45524332303a207472616e736665722066726f6d20746865207a65726f2061645f8201527f6472657373000000000000000000000000000000000000000000000000000000602082015250565b5f611b0c6025836113fd565b9150611b1782611ab2565b604082019050919050565b5f6020820190508181035f830152611b3981611b00565b9050919050565b7f45524332303a207472616e7366657220746f20746865207a65726f20616464725f8201527f6573730000000000000000000000000000000000000000000000000000000000602082015250565b5f611b9a6023836113fd565b9150611ba582611b40565b604082019050919050565b5f6020820190508181035f830152611bc781611b8e565b9050919050565b7f45524332303a207472616e7366657220616d6f756e74206578636565647320625f8201527f616c616e63650000000000000000000000000000000000000000000000000000602082015250565b5f611c286026836113fd565b9150611c3382611bce565b604082019050919050565b5f6020820190508181035f830152611c5581611c1c565b9050919050565b7f4f776e61626c653a2063616c6c6572206973206e6f7420746865206f776e65725f82015250565b5f611c906020836113fd565b9150611c9b82611c5c565b602082019050919050565b5f6020820190508181035f830152611cbd81611c84565b9050919050565b7f45524332303a206d696e7420746f20746865207a65726f2061646472657373005f82015250565b5f611cf8601f836113fd565b9150611d0382611cc4565b602082019050919050565b5f6020820190508181035f830152611d2581611cec565b9050919050565b7f45524332303a206275726e2066726f6d20746865207a65726f206164647265735f8201527f7300000000000000000000000000000000000000000000000000000000000000602082015250565b5f611d866021836113fd565b9150611d9182611d2c565b604082019050919050565b5f6020820190508181035f830152611db381611d7a565b9050919050565b7f45524332303a206275726e20616d6f756e7420657863656564732062616c616e5f8201527f6365000000000000000000000000000000000000000000000000000000000000602082015250565b5f611e146022836113fd565b9150611e1f82611dba565b604082019050919050565b5f6020820190508181035f830152611e4181611e08565b9050919050565b7f746f6b656e207472616e73666572207768696c652070617573656400000000005f82015250565b5f611e7c601b836113fd565b9150611e8782611e48565b602082019050919050565b5f6020820190508181035f830152611ea981611e70565b9050919050565b7f5061757361626c653a206e6f74207061757365640000000000000000000000005f82015250565b5f611ee46014836113fd565b9150611eef82611eb0565b602082019050919050565b5f6020820190508181035f830152611f1181611ed8565b9050919050565b7f5061757361626c653a20706175736564000000000000000000000000000000005f82015250565b5f611f4c6010836113fd565b9150611f5782611f18565b602082019050919050565b5f6020820190508181035f830152611f7981611f40565b905091905056fea26469706673582212200a9477463507c8efb244d79f64ee3f4d041aa2bd1f903884b13103192df7eec164736f6c634300081e0033",
					"opcodes": "PUSH1 0xA0 PUSH1 0x40 MSTORE CALLVALUE DUP1 ISZERO PUSH2 0xF JUMPI PUSH0 PUSH0 REVERT JUMPDEST POP PUSH1 0x40 MLOAD PUSH2 0x2A1F CODESIZE SUB DUP1 PUSH2 0x2A1F DUP4 CODECOPY DUP2 DUP2 ADD PUSH1 0x40 MSTORE DUP2 ADD SWAP1 PUSH2 0x31 SWAP2 SWAP1 PUSH2 0x4D1 JUMP JUMPDEST PUSH1 0x40 MLOAD DUP1 PUSH1 0x40 ADD PUSH1 0x40 MSTORE DUP1 PUSH1 0x10 DUP2 MSTORE PUSH1 0x20 ADD PUSH32 0x4167726F4D61726B657420546F6B656E00000000000000000000000000000000 DUP2 MSTORE POP PUSH1 0x40 MLOAD DUP1 PUSH1 0x40 ADD PUSH1 0x40 MSTORE DUP1 PUSH1 0x4 DUP2 MSTORE PUSH1 0x20 ADD PUSH32 0x4147524F00000000000000000000000000000000000000000000000000000000 DUP2 MSTORE POP DUP2 PUSH1 0x3 SWAP1 DUP2 PUSH2 0xAC SWAP2 SWAP1 PUSH2 0x743 JUMP JUMPDEST POP DUP1 PUSH1 0x4 SWAP1 DUP2 PUSH2 0xBC SWAP2 SWAP1 PUSH2 0x743 JUMP JUMPDEST POP POP POP PUSH2 0xDB PUSH2 0xD0 PUSH2 0x1F2 PUSH1 0x20 SHL PUSH1 0x20 SHR JUMP JUMPDEST PUSH2 0x1F9 PUSH1 0x20 SHL PUSH1 0x20 SHR JUMP JUMPDEST PUSH0 PUSH1 0x5 PUSH1 0x14 PUSH2 0x100 EXP DUP2 SLOAD DUP2 PUSH1 0xFF MUL NOT AND SWAP1 DUP4 ISZERO ISZERO MUL OR SWAP1 SSTORE POP PUSH0 DUP2 GT PUSH2 0x137 JUMPI PUSH1 0x40 MLOAD PUSH32 0x8C379A000000000000000000000000000000000000000000000000000000000 DUP2 MSTORE PUSH1 0x4 ADD PUSH2 0x12E SWAP1 PUSH2 0x86C JUMP JUMPDEST PUSH1 0x40 MLOAD DUP1 SWAP2 SUB SWAP1 REVERT JUMPDEST DUP1 PUSH1 0x80 DUP2 DUP2 MSTORE POP POP PUSH0 DUP3 GT ISZERO PUSH2 0x1EB JUMPI PUSH1 0x80 MLOAD DUP3 GT ISZERO PUSH2 0x18C JUMPI PUSH1 0x40 MLOAD PUSH32 0x8C379A000000000000000000000000000000000000000000000000000000000 DUP2 MSTORE PUSH1 0x4 ADD PUSH2 0x183 SWAP1 PUSH2 0x8D4 JUMP JUMPDEST PUSH1 0x40 MLOAD DUP1 SWAP2 SUB SWAP1 REVERT JUMPDEST PUSH2 0x19C CALLER DUP4 PUSH2 0x2BC PUSH1 0x20 SHL PUSH1 0x20 SHR JUMP JUMPDEST CALLER PUSH20 0xFFFFFFFFFFFFFFFFFFFFFFFFFFFFFFFFFFFFFFFF AND PUSH32 0x30385C845B448A36257A6A1716E6AD2E1BC2CBE333CDE1E69FE849AD6511ADFE DUP4 PUSH1 0x40 MLOAD PUSH2 0x1E2 SWAP2 SWAP1 PUSH2 0x901 JUMP JUMPDEST PUSH1 0x40 MLOAD DUP1 SWAP2 SUB SWAP1 LOG2 JUMPDEST POP POP PUSH2 0xA4A JUMP JUMPDEST PUSH0 CALLER SWAP1 POP SWAP1 JUMP JUMPDEST PUSH0 PUSH1 0x5 PUSH0 SWAP1 SLOAD SWAP1 PUSH2 0x100 EXP SWAP1 DIV PUSH20 0xFFFFFFFFFFFFFFFFFFFFFFFFFFFFFFFFFFFFFFFF AND SWAP1 POP DUP2 PUSH1 0x5 PUSH0 PUSH2 0x100 EXP DUP2 SLOAD DUP2 PUSH20 0xFFFFFFFFFFFFFFFFFFFFFFFFFFFFFFFFFFFFFFFF MUL NOT AND SWAP1 DUP4 PUSH20 0xFFFFFFFFFFFFFFFFFFFFFFFFFFFFFFFFFFFFFFFF AND MUL OR SWAP1 SSTORE POP DUP2 PUSH20 0xFFFFFFFFFFFFFFFFFFFFFFFFFFFFFFFFFFFFFFFF AND DUP2 PUSH20 0xFFFFFFFFFFFFFFFFFFFFFFFFFFFFFFFFFFFFFFFF AND PUSH32 0x8BE0079C531659141344CD1FD0A4F28419497F9722A3DAAFE3B4186F6B6457E0 PUSH1 0x40 MLOAD PUSH1 0x40 MLOAD DUP1 SWAP2 SUB SWAP1 LOG3 POP POP JUMP JUMPDEST PUSH0 PUSH20 0xFFFFFFFFFFFFFFFFFFFFFFFFFFFFFFFFFFFFFFFF AND DUP3 PUSH20 0xFFFFFFFFFFFFFFFFFFFFFFFFFFFFFFFFFFFFFFFF AND SUB PUSH2 0x32A JUMPI PUSH1 0x40 MLOAD PUSH32 0x8C379A000000000000000000000000000000000000000000000000000000000 DUP2 MSTORE PUSH1 0x4 ADD PUSH2 0x321 SWAP1 PUSH2 0x964 JUMP JUMPDEST PUSH1 0x40 MLOAD DUP1 SWAP2 SUB SWAP1 REVERT JUMPDEST PUSH2 0x33B PUSH0 DUP4 DUP4 PUSH2 0x416 PUSH1 0x20 SHL PUSH1 0x20 SHR JUMP JUMPDEST DUP1 PUSH1 0x2 PUSH0 DUP3 DUP3 SLOAD PUSH2 0x34C SWAP2 SWAP1 PUSH2 0x9AF JUMP JUMPDEST SWAP3 POP POP DUP2 SWAP1 SSTORE POP DUP1 PUSH0 PUSH0 DUP5 PUSH20 0xFFFFFFFFFFFFFFFFFFFFFFFFFFFFFFFFFFFFFFFF AND PUSH20 0xFFFFFFFFFFFFFFFFFFFFFFFFFFFFFFFFFFFFFFFF AND DUP2 MSTORE PUSH1 0x20 ADD SWAP1 DUP2 MSTORE PUSH1 0x20 ADD PUSH0 KECCAK256 PUSH0 DUP3 DUP3 SLOAD ADD SWAP3 POP POP DUP2 SWAP1 SSTORE POP DUP2 PUSH20 0xFFFFFFFFFFFFFFFFFFFFFFFFFFFFFFFFFFFFFFFF AND PUSH0 PUSH20 0xFFFFFFFFFFFFFFFFFFFFFFFFFFFFFFFFFFFFFFFF AND PUSH32 0xDDF252AD1BE2C89B69C2B068FC378DAA952BA7F163C4A11628F55A4DF523B3EF DUP4 PUSH1 0x40 MLOAD PUSH2 0x3F9 SWAP2 SWAP1 PUSH2 0x901 JUMP JUMPDEST PUSH1 0x40 MLOAD DUP1 SWAP2 SUB SWAP1 LOG3 PUSH2 0x412 PUSH0 DUP4 DUP4 PUSH2 0x47A PUSH1 0x20 SHL PUSH1 0x20 SHR JUMP JUMPDEST POP POP JUMP JUMPDEST PUSH2 0x427 DUP4 DUP4 DUP4 PUSH2 0x47F PUSH1 0x20 SHL PUSH1 0x20 SHR JUMP JUMPDEST PUSH2 0x435 PUSH2 0x484 PUSH1 0x20 SHL PUSH1 0x20 SHR JUMP JUMPDEST ISZERO PUSH2 0x475 JUMPI PUSH1 0x40 MLOAD PUSH32 0x8C379A000000000000000000000000000000000000000000000000000000000 DUP2 MSTORE PUSH1 0x4 ADD PUSH2 0x46C SWAP1 PUSH2 0xA2C JUMP JUMPDEST PUSH1 0x40 MLOAD DUP1 SWAP2 SUB SWAP1 REVERT JUMPDEST POP POP POP JUMP JUMPDEST POP POP POP JUMP JUMPDEST POP POP POP JUMP JUMPDEST PUSH0 PUSH1 0x5 PUSH1 0x14 SWAP1 SLOAD SWAP1 PUSH2 0x100 EXP SWAP1 DIV PUSH1 0xFF AND SWAP1 POP SWAP1 JUMP JUMPDEST PUSH0 PUSH0 REVERT JUMPDEST PUSH0 DUP2 SWAP1 POP SWAP2 SWAP1 POP JUMP JUMPDEST PUSH2 0x4B0 DUP2 PUSH2 0x49E JUMP JUMPDEST DUP2 EQ PUSH2 0x4BA JUMPI PUSH0 PUSH0 REVERT JUMPDEST POP JUMP JUMPDEST PUSH0 DUP2 MLOAD SWAP1 POP PUSH2 0x4CB DUP2 PUSH2 0x4A7 JUMP JUMPDEST SWAP3 SWAP2 POP POP JUMP JUMPDEST PUSH0 PUSH0 PUSH1 0x40 DUP4 DUP6 SUB SLT ISZERO PUSH2 0x4E7 JUMPI PUSH2 0x4E6 PUSH2 0x49A JUMP JUMPDEST JUMPDEST PUSH0 PUSH2 0x4F4 DUP6 DUP3 DUP7 ADD PUSH2 0x4BD JUMP JUMPDEST SWAP3 POP POP PUSH1 0x20 PUSH2 0x505 DUP6 DUP3 DUP7 ADD PUSH2 0x4BD JUMP JUMPDEST SWAP2 POP POP SWAP3 POP SWAP3 SWAP1 POP JUMP JUMPDEST PUSH0 DUP2 MLOAD SWAP1 POP SWAP2 SWAP1 POP JUMP JUMPDEST PUSH32 0x4E487B7100000000000000000000000000000000000000000000000000000000 PUSH0 MSTORE PUSH1 0x41 PUSH1 0x4 MSTORE PUSH1 0x24 PUSH0 REVERT JUMPDEST PUSH32 0x4E487B7100000000000000000000000000000000000000000000000000000000 PUSH0 MSTORE PUSH1 0x22 PUSH1 0x4 MSTORE PUSH1 0x24 PUSH0 REVERT JUMPDEST PUSH0 PUSH1 0x2 DUP3 DIV SWAP1 POP PUSH1 0x1 DUP3 AND DUP1 PUSH2 0x58A JUMPI PUSH1 0x7F DUP3 AND SWAP2 POP JUMPDEST PUSH1 0x20 DUP3 LT DUP2 SUB PUSH2 0x59D JUMPI PUSH2 0x59C PUSH2 0x546 JUMP JUMPDEST JUMPDEST POP SWAP2 SWAP1 POP JUMP JUMPDEST PUSH0 DUP2 SWAP1 POP DUP2 PUSH0 MSTORE PUSH1 0x20 PUSH0 KECCAK256 SWAP1 POP SWAP2 SWAP1 POP JUMP JUMPDEST PUSH0 PUSH1 0x20 PUSH1 0x1F DUP4 ADD DIV SWAP1 POP SWAP2 SWAP1 POP JUMP JUMPDEST PUSH0 DUP3 DUP3 SHL SWAP1 POP SWAP3 SWAP2 POP POP JUMP JUMPDEST PUSH0 PUSH1 0x8 DUP4 MUL PUSH2 0x5FF PUSH32 0xFFFFFFFFFFFFFFFFFFFFFFFFFFFFFFFFFFFFFFFFFFFFFFFFFFFFFFFFFFFFFFFF DUP3 PUSH2 0x5C4 JUMP JUMPDEST PUSH2 0x609 DUP7 DUP4 PUSH2 0x5C4 JUMP JUMPDEST SWAP6 POP DUP1 NOT DUP5 AND SWAP4 POP DUP1 DUP7 AND DUP5 OR SWAP3 POP POP POP SWAP4 SWAP3 POP POP POP JUMP JUMPDEST PUSH0 DUP2 SWAP1 POP SWAP2 SWAP1 POP JUMP JUMPDEST PUSH0 PUSH2 0x644 PUSH2 0x63F PUSH2 0x63A DUP5 PUSH2 0x49E JUMP JUMPDEST PUSH2 0x621 JUMP JUMPDEST PUSH2 0x49E JUMP JUMPDEST SWAP1 POP SWAP2 SWAP1 POP JUMP JUMPDEST PUSH0 DUP2 SWAP1 POP SWAP2 SWAP1 POP JUMP JUMPDEST PUSH2 0x65D DUP4 PUSH2 0x62A JUMP JUMPDEST PUSH2 0x671 PUSH2 0x669 DUP3 PUSH2 0x64B JUMP JUMPDEST DUP5 DUP5 SLOAD PUSH2 0x5D0 JUMP JUMPDEST DUP3 SSTORE POP POP POP POP JUMP JUMPDEST PUSH0 PUSH0 SWAP1 POP SWAP1 JUMP JUMPDEST PUSH2 0x688 PUSH2 0x679 JUMP JUMPDEST PUSH2 0x693 DUP2 DUP5 DUP5 PUSH2 0x654 JUMP JUMPDEST POP POP POP JUMP JUMPDEST JUMPDEST DUP2 DUP2 LT ISZERO PUSH2 0x6B6 JUMPI PUSH2 0x6AB PUSH0 DUP3 PUSH2 0x680 JUMP JUMPDEST PUSH1 0x1 DUP2 ADD SWAP1 POP PUSH2 0x699 JUMP JUMPDEST POP POP JUMP JUMPDEST PUSH1 0x1F DUP3 GT ISZERO PUSH2 0x6FB JUMPI PUSH2 0x6CC DUP2 PUSH2 0x5A3 JUMP JUMPDEST PUSH2 0x6D5 DUP5 PUSH2 0x5B5 JUMP JUMPDEST DUP2 ADD PUSH1 0x20 DUP6 LT ISZERO PUSH2 0x6E4 JUMPI DUP2 SWAP1 POP JUMPDEST PUSH2 0x6F8 PUSH2 0x6F0 DUP6 PUSH2 0x5B5 JUMP JUMPDEST DUP4 ADD DUP3 PUSH2 0x698 JUMP JUMPDEST POP POP JUMPDEST POP POP POP JUMP JUMPDEST PUSH0 DUP3 DUP3 SHR SWAP1 POP SWAP3 SWAP2 POP POP JUMP JUMPDEST PUSH0 PUSH2 0x71B PUSH0 NOT DUP5 PUSH1 0x8 MUL PUSH2 0x700 JUMP JUMPDEST NOT DUP1 DUP4 AND SWAP2 POP POP SWAP3 SWAP2 POP POP JUMP JUMPDEST PUSH0 PUSH2 0x733 DUP4 DUP4 PUSH2 0x70C JUMP JUMPDEST SWAP2 POP DUP3 PUSH1 0x2 MUL DUP3 OR SWAP1 POP SWAP3 SWAP2 POP POP JUMP JUMPDEST PUSH2 0x74C DUP3 PUSH2 0x50F JUMP JUMPDEST PUSH8 0xFFFFFFFFFFFFFFFF DUP2 GT ISZERO PUSH2 0x765 JUMPI PUSH2 0x764 PUSH2 0x519 JUMP JUMPDEST JUMPDEST PUSH2 0x76F DUP3 SLOAD PUSH2 0x573 JUMP JUMPDEST PUSH2 0x77A DUP3 DUP3 DUP6 PUSH2 0x6BA JUMP JUMPDEST PUSH0 PUSH1 0x20 SWAP1 POP PUSH1 0x1F DUP4 GT PUSH1 0x1 DUP2 EQ PUSH2 0x7AB JUMPI PUSH0 DUP5 ISZERO PUSH2 0x799 JUMPI DUP3 DUP8 ADD MLOAD SWAP1 POP JUMPDEST PUSH2 0x7A3 DUP6 DUP3 PUSH2 0x728 JUMP JUMPDEST DUP7 SSTORE POP PUSH2 0x80A JUMP JUMPDEST PUSH1 0x1F NOT DUP5 AND PUSH2 0x7B9 DUP7 PUSH2 0x5A3 JUMP JUMPDEST PUSH0 JUMPDEST DUP3 DUP2 LT ISZERO PUSH2 0x7E0 JUMPI DUP5 DUP10 ADD MLOAD DUP3 SSTORE PUSH1 0x1 DUP3 ADD SWAP2 POP PUSH1 0x20 DUP6 ADD SWAP5 POP PUSH1 0x20 DUP2 ADD SWAP1 POP PUSH2 0x7BB JUMP JUMPDEST DUP7 DUP4 LT ISZERO PUSH2 0x7FD JUMPI DUP5 DUP10 ADD MLOAD PUSH2 0x7F9 PUSH1 0x1F DUP10 AND DUP3 PUSH2 0x70C JUMP JUMPDEST DUP4 SSTORE POP JUMPDEST PUSH1 0x1 PUSH1 0x2 DUP9 MUL ADD DUP9 SSTORE POP POP POP JUMPDEST POP POP POP POP POP POP JUMP JUMPDEST PUSH0 DUP3 DUP3 MSTORE PUSH1 0x20 DUP3 ADD SWAP1 POP SWAP3 SWAP2 POP POP JUMP JUMPDEST PUSH32 0x6361703E30000000000000000000000000000000000000000000000000000000 PUSH0 DUP3 ADD MSTORE POP JUMP JUMPDEST PUSH0 PUSH2 0x856 PUSH1 0x5 DUP4 PUSH2 0x812 JUMP JUMPDEST SWAP2 POP PUSH2 0x861 DUP3 PUSH2 0x822 JUMP JUMPDEST PUSH1 0x20 DUP3 ADD SWAP1 POP SWAP2 SWAP1 POP JUMP JUMPDEST PUSH0 PUSH1 0x20 DUP3 ADD SWAP1 POP DUP2 DUP2 SUB PUSH0 DUP4 ADD MSTORE PUSH2 0x883 DUP2 PUSH2 0x84A JUMP JUMPDEST SWAP1 POP SWAP2 SWAP1 POP JUMP JUMPDEST PUSH32 0x696E697469616C537570706C793E636170000000000000000000000000000000 PUSH0 DUP3 ADD MSTORE POP JUMP JUMPDEST PUSH0 PUSH2 0x8BE PUSH1 0x11 DUP4 PUSH2 0x812 JUMP JUMPDEST SWAP2 POP PUSH2 0x8C9 DUP3 PUSH2 0x88A JUMP JUMPDEST PUSH1 0x20 DUP3 ADD SWAP1 POP SWAP2 SWAP1 POP JUMP JUMPDEST PUSH0 PUSH1 0x20 DUP3 ADD SWAP1 POP DUP2 DUP2 SUB PUSH0 DUP4 ADD MSTORE PUSH2 0x8EB DUP2 PUSH2 0x8B2 JUMP JUMPDEST SWAP1 POP SWAP2 SWAP1 POP JUMP JUMPDEST PUSH2 0x8FB DUP2 PUSH2 0x49E JUMP JUMPDEST DUP3 MSTORE POP POP JUMP JUMPDEST PUSH0 PUSH1 0x20 DUP3 ADD SWAP1 POP PUSH2 0x914 PUSH0 DUP4 ADD DUP5 PUSH2 0x8F2 JUMP JUMPDEST SWAP3 SWAP2 POP POP JUMP JUMPDEST PUSH32 0x45524332303A206D696E7420746F20746865207A65726F206164647265737300 PUSH0 DUP3 ADD MSTORE POP JUMP JUMPDEST PUSH0 PUSH2 0x94E PUSH1 0x1F DUP4 PUSH2 0x812 JUMP JUMPDEST SWAP2 POP PUSH2 0x959 DUP3 PUSH2 0x91A JUMP JUMPDEST PUSH1 0x20 DUP3 ADD SWAP1 POP SWAP2 SWAP1 POP JUMP JUMPDEST PUSH0 PUSH1 0x20 DUP3 ADD SWAP1 POP DUP2 DUP2 SUB PUSH0 DUP4 ADD MSTORE PUSH2 0x97B DUP2 PUSH2 0x942 JUMP JUMPDEST SWAP1 POP SWAP2 SWAP1 POP JUMP JUMPDEST PUSH32 0x4E487B7100000000000000000000000000000000000000000000000000000000 PUSH0 MSTORE PUSH1 0x11 PUSH1 0x4 MSTORE PUSH1 0x24 PUSH0 REVERT JUMPDEST PUSH0 PUSH2 0x9B9 DUP3 PUSH2 0x49E JUMP JUMPDEST SWAP2 POP PUSH2 0x9C4 DUP4 PUSH2 0x49E JUMP JUMPDEST SWAP3 POP DUP3 DUP3 ADD SWAP1 POP DUP1 DUP3 GT ISZERO PUSH2 0x9DC JUMPI PUSH2 0x9DB PUSH2 0x982 JUMP JUMPDEST JUMPDEST SWAP3 SWAP2 POP POP JUMP JUMPDEST PUSH32 0x746F6B656E207472616E73666572207768696C65207061757365640000000000 PUSH0 DUP3 ADD MSTORE POP JUMP JUMPDEST PUSH0 PUSH2 0xA16 PUSH1 0x1B DUP4 PUSH2 0x812 JUMP JUMPDEST SWAP2 POP PUSH2 0xA21 DUP3 PUSH2 0x9E2 JUMP JUMPDEST PUSH1 0x20 DUP3 ADD SWAP1 POP SWAP2 SWAP1 POP JUMP JUMPDEST PUSH0 PUSH1 0x20 DUP3 ADD SWAP1 POP DUP2 DUP2 SUB PUSH0 DUP4 ADD MSTORE PUSH2 0xA43 DUP2 PUSH2 0xA0A JUMP JUMPDEST SWAP1 POP SWAP2 SWAP1 POP JUMP JUMPDEST PUSH1 0x80 MLOAD PUSH2 0x1FB6 PUSH2 0xA69 PUSH0 CODECOPY PUSH0 DUP2 DUP2 PUSH2 0x4DC ADD MSTORE PUSH2 0x550 ADD MSTORE PUSH2 0x1FB6 PUSH0 RETURN INVALID PUSH1 0x80 PUSH1 0x40 MSTORE CALLVALUE DUP1 ISZERO PUSH2 0xF JUMPI PUSH0 PUSH0 REVERT JUMPDEST POP PUSH1 0x4 CALLDATASIZE LT PUSH2 0x135 JUMPI PUSH0 CALLDATALOAD PUSH1 0xE0 SHR DUP1 PUSH4 0x5C975ABB GT PUSH2 0xB6 JUMPI DUP1 PUSH4 0x8DA5CB5B GT PUSH2 0x7A JUMPI DUP1 PUSH4 0x8DA5CB5B EQ PUSH2 0x301 JUMPI DUP1 PUSH4 0x95D89B41 EQ PUSH2 0x31F JUMPI DUP1 PUSH4 0xA457C2D7 EQ PUSH2 0x33D JUMPI DUP1 PUSH4 0xA9059CBB EQ PUSH2 0x36D JUMPI DUP1 PUSH4 0xDD62ED3E EQ PUSH2 0x39D JUMPI DUP1 PUSH4 0xF2FDE38B EQ PUSH2 0x3CD JUMPI PUSH2 0x135 JUMP JUMPDEST DUP1 PUSH4 0x5C975ABB EQ PUSH2 0x283 JUMPI DUP1 PUSH4 0x70A08231 EQ PUSH2 0x2A1 JUMPI DUP1 PUSH4 0x715018A6 EQ PUSH2 0x2D1 JUMPI DUP1 PUSH4 0x79CC6790 EQ PUSH2 0x2DB JUMPI DUP1 PUSH4 0x8456CB59 EQ PUSH2 0x2F7 JUMPI PUSH2 0x135 JUMP JUMPDEST DUP1 PUSH4 0x355274EA GT PUSH2 0xFD JUMPI DUP1 PUSH4 0x355274EA EQ PUSH2 0x1F3 JUMPI DUP1 PUSH4 0x39509351 EQ PUSH2 0x211 JUMPI DUP1 PUSH4 0x3F4BA83A EQ PUSH2 0x241 JUMPI DUP1 PUSH4 0x40C10F19 EQ PUSH2 0x24B JUMPI DUP1 PUSH4 0x42966C68 EQ PUSH2 0x267 JUMPI PUSH2 0x135 JUMP JUMPDEST DUP1 PUSH4 0x6FDDE03 EQ PUSH2 0x139 JUMPI DUP1 PUSH4 0x95EA7B3 EQ PUSH2 0x157 JUMPI DUP1 PUSH4 0x18160DDD EQ PUSH2 0x187 JUMPI DUP1 PUSH4 0x23B872DD EQ PUSH2 0x1A5 JUMPI DUP1 PUSH4 0x313CE567 EQ PUSH2 0x1D5 JUMPI JUMPDEST PUSH0 PUSH0 REVERT JUMPDEST PUSH2 0x141 PUSH2 0x3E9 JUMP JUMPDEST PUSH1 0x40 MLOAD PUSH2 0x14E SWAP2 SWAP1 PUSH2 0x1463 JUMP JUMPDEST PUSH1 0x40 MLOAD DUP1 SWAP2 SUB SWAP1 RETURN JUMPDEST PUSH2 0x171 PUSH1 0x4 DUP1 CALLDATASIZE SUB DUP2 ADD SWAP1 PUSH2 0x16C SWAP2 SWAP1 PUSH2 0x1514 JUMP JUMPDEST PUSH2 0x479 JUMP JUMPDEST PUSH1 0x40 MLOAD PUSH2 0x17E SWAP2 SWAP1 PUSH2 0x156C JUMP JUMPDEST PUSH1 0x40 MLOAD DUP1 SWAP2 SUB SWAP1 RETURN JUMPDEST PUSH2 0x18F PUSH2 0x49B JUMP JUMPDEST PUSH1 0x40 MLOAD PUSH2 0x19C SWAP2 SWAP1 PUSH2 0x1594 JUMP JUMPDEST PUSH1 0x40 MLOAD DUP1 SWAP2 SUB SWAP1 RETURN JUMPDEST PUSH2 0x1BF PUSH1 0x4 DUP1 CALLDATASIZE SUB DUP2 ADD SWAP1 PUSH2 0x1BA SWAP2 SWAP1 PUSH2 0x15AD JUMP JUMPDEST PUSH2 0x4A4 JUMP JUMPDEST PUSH1 0x40 MLOAD PUSH2 0x1CC SWAP2 SWAP1 PUSH2 0x156C JUMP JUMPDEST PUSH1 0x40 MLOAD DUP1 SWAP2 SUB SWAP1 RETURN JUMPDEST PUSH2 0x1DD PUSH2 0x4D2 JUMP JUMPDEST PUSH1 0x40 MLOAD PUSH2 0x1EA SWAP2 SWAP1 PUSH2 0x1618 JUMP JUMPDEST PUSH1 0x40 MLOAD DUP1 SWAP2 SUB SWAP1 RETURN JUMPDEST PUSH2 0x1FB PUSH2 0x4DA JUMP JUMPDEST PUSH1 0x40 MLOAD PUSH2 0x208 SWAP2 SWAP1 PUSH2 0x1594 JUMP JUMPDEST PUSH1 0x40 MLOAD DUP1 SWAP2 SUB SWAP1 RETURN JUMPDEST PUSH2 0x22B PUSH1 0x4 DUP1 CALLDATASIZE SUB DUP2 ADD SWAP1 PUSH2 0x226 SWAP2 SWAP1 PUSH2 0x1514 JUMP JUMPDEST PUSH2 0x4FE JUMP JUMPDEST PUSH1 0x40 MLOAD PUSH2 0x238 SWAP2 SWAP1 PUSH2 0x156C JUMP JUMPDEST PUSH1 0x40 MLOAD DUP1 SWAP2 SUB SWAP1 RETURN JUMPDEST PUSH2 0x249 PUSH2 0x534 JUMP JUMPDEST STOP JUMPDEST PUSH2 0x265 PUSH1 0x4 DUP1 CALLDATASIZE SUB DUP2 ADD SWAP1 PUSH2 0x260 SWAP2 SWAP1 PUSH2 0x1514 JUMP JUMPDEST PUSH2 0x546 JUMP JUMPDEST STOP JUMPDEST PUSH2 0x281 PUSH1 0x4 DUP1 CALLDATASIZE SUB DUP2 ADD SWAP1 PUSH2 0x27C SWAP2 SWAP1 PUSH2 0x1631 JUMP JUMPDEST PUSH2 0x61F JUMP JUMPDEST STOP JUMPDEST PUSH2 0x28B PUSH2 0x633 JUMP JUMPDEST PUSH1 0x40 MLOAD PUSH2 0x298 SWAP2 SWAP1 PUSH2 0x156C JUMP JUMPDEST PUSH1 0x40 MLOAD DUP1 SWAP2 SUB SWAP1 RETURN JUMPDEST PUSH2 0x2BB PUSH1 0x4 DUP1 CALLDATASIZE SUB DUP2 ADD SWAP1 PUSH2 0x2B6 SWAP2 SWAP1 PUSH2 0x165C JUMP JUMPDEST PUSH2 0x649 JUMP JUMPDEST PUSH1 0x40 MLOAD PUSH2 0x2C8 SWAP2 SWAP1 PUSH2 0x1594 JUMP JUMPDEST PUSH1 0x40 MLOAD DUP1 SWAP2 SUB SWAP1 RETURN JUMPDEST PUSH2 0x2D9 PUSH2 0x68E JUMP JUMPDEST STOP JUMPDEST PUSH2 0x2F5 PUSH1 0x4 DUP1 CALLDATASIZE SUB DUP2 ADD SWAP1 PUSH2 0x2F0 SWAP2 SWAP1 PUSH2 0x1514 JUMP JUMPDEST PUSH2 0x6A1 JUMP JUMPDEST STOP JUMPDEST PUSH2 0x2FF PUSH2 0x6C1 JUMP JUMPDEST STOP JUMPDEST PUSH2 0x309 PUSH2 0x6D3 JUMP JUMPDEST PUSH1 0x40 MLOAD PUSH2 0x316 SWAP2 SWAP1 PUSH2 0x1696 JUMP JUMPDEST PUSH1 0x40 MLOAD DUP1 SWAP2 SUB SWAP1 RETURN JUMPDEST PUSH2 0x327 PUSH2 0x6FB JUMP JUMPDEST PUSH1 0x40 MLOAD PUSH2 0x334 SWAP2 SWAP1 PUSH2 0x1463 JUMP JUMPDEST PUSH1 0x40 MLOAD DUP1 SWAP2 SUB SWAP1 RETURN JUMPDEST PUSH2 0x357 PUSH1 0x4 DUP1 CALLDATASIZE SUB DUP2 ADD SWAP1 PUSH2 0x352 SWAP2 SWAP1 PUSH2 0x1514 JUMP JUMPDEST PUSH2 0x78B JUMP JUMPDEST PUSH1 0x40 MLOAD PUSH2 0x364 SWAP2 SWAP1 PUSH2 0x156C JUMP JUMPDEST PUSH1 0x40 MLOAD DUP1 SWAP2 SUB SWAP1 RETURN JUMPDEST PUSH2 0x387 PUSH1 0x4 DUP1 CALLDATASIZE SUB DUP2 ADD SWAP1 PUSH2 0x382 SWAP2 SWAP1 PUSH2 0x1514 JUMP JUMPDEST PUSH2 0x800 JUMP JUMPDEST PUSH1 0x40 MLOAD PUSH2 0x394 SWAP2 SWAP1 PUSH2 0x156C JUMP JUMPDEST PUSH1 0x40 MLOAD DUP1 SWAP2 SUB SWAP1 RETURN JUMPDEST PUSH2 0x3B7 PUSH1 0x4 DUP1 CALLDATASIZE SUB DUP2 ADD SWAP1 PUSH2 0x3B2 SWAP2 SWAP1 PUSH2 0x16AF JUMP JUMPDEST PUSH2 0x822 JUMP JUMPDEST PUSH1 0x40 MLOAD PUSH2 0x3C4 SWAP2 SWAP1 PUSH2 0x1594 JUMP JUMPDEST PUSH1 0x40 MLOAD DUP1 SWAP2 SUB SWAP1 RETURN JUMPDEST PUSH2 0x3E7 PUSH1 0x4 DUP1 CALLDATASIZE SUB DUP2 ADD SWAP1 PUSH2 0x3E2 SWAP2 SWAP1 PUSH2 0x165C JUMP JUMPDEST PUSH2 0x8A4 JUMP JUMPDEST STOP JUMPDEST PUSH1 0x60 PUSH1 0x3 DUP1 SLOAD PUSH2 0x3F8 SWAP1 PUSH2 0x171A JUMP JUMPDEST DUP1 PUSH1 0x1F ADD PUSH1 0x20 DUP1 SWAP2 DIV MUL PUSH1 0x20 ADD PUSH1 0x40 MLOAD SWAP1 DUP2 ADD PUSH1 0x40 MSTORE DUP1 SWAP3 SWAP2 SWAP1 DUP2 DUP2 MSTORE PUSH1 0x20 ADD DUP3 DUP1 SLOAD PUSH2 0x424 SWAP1 PUSH2 0x171A JUMP JUMPDEST DUP1 ISZERO PUSH2 0x46F JUMPI DUP1 PUSH1 0x1F LT PUSH2 0x446 JUMPI PUSH2 0x100 DUP1 DUP4 SLOAD DIV MUL DUP4 MSTORE SWAP2 PUSH1 0x20 ADD SWAP2 PUSH2 0x46F JUMP JUMPDEST DUP3 ADD SWAP2 SWAP1 PUSH0 MSTORE PUSH1 0x20 PUSH0 KECCAK256 SWAP1 JUMPDEST DUP2 SLOAD DUP2 MSTORE SWAP1 PUSH1 0x1 ADD SWAP1 PUSH1 0x20 ADD DUP1 DUP4 GT PUSH2 0x452 JUMPI DUP3 SWAP1 SUB PUSH1 0x1F AND DUP3 ADD SWAP2 JUMPDEST POP POP POP POP POP SWAP1 POP SWAP1 JUMP JUMPDEST PUSH0 PUSH0 PUSH2 0x483 PUSH2 0x926 JUMP JUMPDEST SWAP1 POP PUSH2 0x490 DUP2 DUP6 DUP6 PUSH2 0x92D JUMP JUMPDEST PUSH1 0x1 SWAP2 POP POP SWAP3 SWAP2 POP POP JUMP JUMPDEST PUSH0 PUSH1 0x2 SLOAD SWAP1 POP SWAP1 JUMP JUMPDEST PUSH0 PUSH0 PUSH2 0x4AE PUSH2 0x926 JUMP JUMPDEST SWAP1 POP PUSH2 0x4BB DUP6 DUP3 DUP6 PUSH2 0xAF0 JUMP JUMPDEST PUSH2 0x4C6 DUP6 DUP6 DUP6 PUSH2 0xB7B JUMP JUMPDEST PUSH1 0x1 SWAP2 POP POP SWAP4 SWAP3 POP POP POP JUMP JUMPDEST PUSH0 PUSH1 0x12 SWAP1 POP SWAP1 JUMP JUMPDEST PUSH32 0x0 DUP2 JUMP JUMPDEST PUSH0 PUSH0 PUSH2 0x508 PUSH2 0x926 JUMP JUMPDEST SWAP1 POP PUSH2 0x529 DUP2 DUP6 DUP6 PUSH2 0x51A DUP6 DUP10 PUSH2 0x822 JUMP JUMPDEST PUSH2 0x524 SWAP2 SWAP1 PUSH2 0x1777 JUMP JUMPDEST PUSH2 0x92D JUMP JUMPDEST PUSH1 0x1 SWAP2 POP POP SWAP3 SWAP2 POP POP JUMP JUMPDEST PUSH2 0x53C PUSH2 0xDE7 JUMP JUMPDEST PUSH2 0x544 PUSH2 0xE65 JUMP JUMPDEST JUMP JUMPDEST PUSH2 0x54E PUSH2 0xDE7 JUMP JUMPDEST PUSH32 0x0 DUP2 PUSH2 0x578 PUSH2 0x49B JUMP JUMPDEST PUSH2 0x582 SWAP2 SWAP1 PUSH2 0x1777 JUMP JUMPDEST GT ISZERO PUSH2 0x5C3 JUMPI PUSH1 0x40 MLOAD PUSH32 0x8C379A000000000000000000000000000000000000000000000000000000000 DUP2 MSTORE PUSH1 0x4 ADD PUSH2 0x5BA SWAP1 PUSH2 0x17F4 JUMP JUMPDEST PUSH1 0x40 MLOAD DUP1 SWAP2 SUB SWAP1 REVERT JUMPDEST PUSH2 0x5CD DUP3 DUP3 PUSH2 0xEC7 JUMP JUMPDEST DUP2 PUSH20 0xFFFFFFFFFFFFFFFFFFFFFFFFFFFFFFFFFFFFFFFF AND PUSH32 0x30385C845B448A36257A6A1716E6AD2E1BC2CBE333CDE1E69FE849AD6511ADFE DUP3 PUSH1 0x40 MLOAD PUSH2 0x613 SWAP2 SWAP1 PUSH2 0x1594 JUMP JUMPDEST PUSH1 0x40 MLOAD DUP1 SWAP2 SUB SWAP1 LOG2 POP POP JUMP JUMPDEST PUSH2 0x630 PUSH2 0x62A PUSH2 0x926 JUMP JUMPDEST DUP3 PUSH2 0x1015 JUMP JUMPDEST POP JUMP JUMPDEST PUSH0 PUSH1 0x5 PUSH1 0x14 SWAP1 SLOAD SWAP1 PUSH2 0x100 EXP SWAP1 DIV PUSH1 0xFF AND SWAP1 POP SWAP1 JUMP JUMPDEST PUSH0 PUSH0 PUSH0 DUP4 PUSH20 0xFFFFFFFFFFFFFFFFFFFFFFFFFFFFFFFFFFFFFFFF AND PUSH20 0xFFFFFFFFFFFFFFFFFFFFFFFFFFFFFFFFFFFFFFFF AND DUP2 MSTORE PUSH1 0x20 ADD SWAP1 DUP2 MSTORE PUSH1 0x20 ADD PUSH0 KECCAK256 SLOAD SWAP1 POP SWAP2 SWAP1 POP JUMP JUMPDEST PUSH2 0x696 PUSH2 0xDE7 JUMP JUMPDEST PUSH2 0x69F PUSH0 PUSH2 0x11D8 JUMP JUMPDEST JUMP JUMPDEST PUSH2 0x6B3 DUP3 PUSH2 0x6AD PUSH2 0x926 JUMP JUMPDEST DUP4 PUSH2 0xAF0 JUMP JUMPDEST PUSH2 0x6BD DUP3 DUP3 PUSH2 0x1015 JUMP JUMPDEST POP POP JUMP JUMPDEST PUSH2 0x6C9 PUSH2 0xDE7 JUMP JUMPDEST PUSH2 0x6D1 PUSH2 0x129B JUMP JUMPDEST JUMP JUMPDEST PUSH0 PUSH1 0x5 PUSH0 SWAP1 SLOAD SWAP1 PUSH2 0x100 EXP SWAP1 DIV PUSH20 0xFFFFFFFFFFFFFFFFFFFFFFFFFFFFFFFFFFFFFFFF AND SWAP1 POP SWAP1 JUMP JUMPDEST PUSH1 0x60 PUSH1 0x4 DUP1 SLOAD PUSH2 0x70A SWAP1 PUSH2 0x171A JUMP JUMPDEST DUP1 PUSH1 0x1F ADD PUSH1 0x20 DUP1 SWAP2 DIV MUL PUSH1 0x20 ADD PUSH1 0x40 MLOAD SWAP1 DUP2 ADD PUSH1 0x40 MSTORE DUP1 SWAP3 SWAP2 SWAP1 DUP2 DUP2 MSTORE PUSH1 0x20 ADD DUP3 DUP1 SLOAD PUSH2 0x736 SWAP1 PUSH2 0x171A JUMP JUMPDEST DUP1 ISZERO PUSH2 0x781 JUMPI DUP1 PUSH1 0x1F LT PUSH2 0x758 JUMPI PUSH2 0x100 DUP1 DUP4 SLOAD DIV MUL DUP4 MSTORE SWAP2 PUSH1 0x20 ADD SWAP2 PUSH2 0x781 JUMP JUMPDEST DUP3 ADD SWAP2 SWAP1 PUSH0 MSTORE PUSH1 0x20 PUSH0 KECCAK256 SWAP1 JUMPDEST DUP2 SLOAD DUP2 MSTORE SWAP1 PUSH1 0x1 ADD SWAP1 PUSH1 0x20 ADD DUP1 DUP4 GT PUSH2 0x764 JUMPI DUP3 SWAP1 SUB PUSH1 0x1F AND DUP3 ADD SWAP2 JUMPDEST POP POP POP POP POP SWAP1 POP SWAP1 JUMP JUMPDEST PUSH0 PUSH0 PUSH2 0x795 PUSH2 0x926 JUMP JUMPDEST SWAP1 POP PUSH0 PUSH2 0x7A2 DUP3 DUP7 PUSH2 0x822 JUMP JUMPDEST SWAP1 POP DUP4 DUP2 LT ISZERO PUSH2 0x7E7 JUMPI PUSH1 0x40 MLOAD PUSH32 0x8C379A000000000000000000000000000000000000000000000000000000000 DUP2 MSTORE PUSH1 0x4 ADD PUSH2 0x7DE SWAP1 PUSH2 0x1882 JUMP JUMPDEST PUSH1 0x40 MLOAD DUP1 SWAP2 SUB SWAP1 REVERT JUMPDEST PUSH2 0x7F4 DUP3 DUP7 DUP7 DUP5 SUB PUSH2 0x92D JUMP JUMPDEST PUSH1 0x1 SWAP3 POP POP POP SWAP3 SWAP2 POP POP JUMP JUMPDEST PUSH0 PUSH0 PUSH2 0x80A PUSH2 0x926 JUMP JUMPDEST SWAP1 POP PUSH2 0x817 DUP2 DUP6 DUP6 PUSH2 0xB7B JUMP JUMPDEST PUSH1 0x1 SWAP2 POP POP SWAP3 SWAP2 POP POP JUMP JUMPDEST PUSH0 PUSH1 0x1 PUSH0 DUP5 PUSH20 0xFFFFFFFFFFFFFFFFFFFFFFFFFFFFFFFFFFFFFFFF AND PUSH20 0xFFFFFFFFFFFFFFFFFFFFFFFFFFFFFFFFFFFFFFFF AND DUP2 MSTORE PUSH1 0x20 ADD SWAP1 DUP2 MSTORE PUSH1 0x20 ADD PUSH0 KECCAK256 PUSH0 DUP4 PUSH20 0xFFFFFFFFFFFFFFFFFFFFFFFFFFFFFFFFFFFFFFFF AND PUSH20 0xFFFFFFFFFFFFFFFFFFFFFFFFFFFFFFFFFFFFFFFF AND DUP2 MSTORE PUSH1 0x20 ADD SWAP1 DUP2 MSTORE PUSH1 0x20 ADD PUSH0 KECCAK256 SLOAD SWAP1 POP SWAP3 SWAP2 POP POP JUMP JUMPDEST PUSH2 0x8AC PUSH2 0xDE7 JUMP JUMPDEST PUSH0 PUSH20 0xFFFFFFFFFFFFFFFFFFFFFFFFFFFFFFFFFFFFFFFF AND DUP2 PUSH20 0xFFFFFFFFFFFFFFFFFFFFFFFFFFFFFFFFFFFFFFFF AND SUB PUSH2 0x91A JUMPI PUSH1 0x40 MLOAD PUSH32 0x8C379A000000000000000000000000000000000000000000000000000000000 DUP2 MSTORE PUSH1 0x4 ADD PUSH2 0x911 SWAP1 PUSH2 0x1910 JUMP JUMPDEST PUSH1 0x40 MLOAD DUP1 SWAP2 SUB SWAP1 REVERT JUMPDEST PUSH2 0x923 DUP2 PUSH2 0x11D8 JUMP JUMPDEST POP JUMP JUMPDEST PUSH0 CALLER SWAP1 POP SWAP1 JUMP JUMPDEST PUSH0 PUSH20 0xFFFFFFFFFFFFFFFFFFFFFFFFFFFFFFFFFFFFFFFF AND DUP4 PUSH20 0xFFFFFFFFFFFFFFFFFFFFFFFFFFFFFFFFFFFFFFFF AND SUB PUSH2 0x99B JUMPI PUSH1 0x40 MLOAD PUSH32 0x8C379A000000000000000000000000000000000000000000000000000000000 DUP2 MSTORE PUSH1 0x4 ADD PUSH2 0x992 SWAP1 PUSH2 0x199E JUMP JUMPDEST PUSH1 0x40 MLOAD DUP1 SWAP2 SUB SWAP1 REVERT JUMPDEST PUSH0 PUSH20 0xFFFFFFFFFFFFFFFFFFFFFFFFFFFFFFFFFFFFFFFF AND DUP3 PUSH20 0xFFFFFFFFFFFFFFFFFFFFFFFFFFFFFFFFFFFFFFFF AND SUB PUSH2 0xA09 JUMPI PUSH1 0x40 MLOAD PUSH32 0x8C379A000000000000000000000000000000000000000000000000000000000 DUP2 MSTORE PUSH1 0x4 ADD PUSH2 0xA00 SWAP1 PUSH2 0x1A2C JUMP JUMPDEST PUSH1 0x40 MLOAD DUP1 SWAP2 SUB SWAP1 REVERT JUMPDEST DUP1 PUSH1 0x1 PUSH0 DUP6 PUSH20 0xFFFFFFFFFFFFFFFFFFFFFFFFFFFFFFFFFFFFFFFF AND PUSH20 0xFFFFFFFFFFFFFFFFFFFFFFFFFFFFFFFFFFFFFFFF AND DUP2 MSTORE PUSH1 0x20 ADD SWAP1 DUP2 MSTORE PUSH1 0x20 ADD PUSH0 KECCAK256 PUSH0 DUP5 PUSH20 0xFFFFFFFFFFFFFFFFFFFFFFFFFFFFFFFFFFFFFFFF AND PUSH20 0xFFFFFFFFFFFFFFFFFFFFFFFFFFFFFFFFFFFFFFFF AND DUP2 MSTORE PUSH1 0x20 ADD SWAP1 DUP2 MSTORE PUSH1 0x20 ADD PUSH0 KECCAK256 DUP2 SWAP1 SSTORE POP DUP2 PUSH20 0xFFFFFFFFFFFFFFFFFFFFFFFFFFFFFFFFFFFFFFFF AND DUP4 PUSH20 0xFFFFFFFFFFFFFFFFFFFFFFFFFFFFFFFFFFFFFFFF AND PUSH32 0x8C5BE1E5EBEC7D5BD14F71427D1E84F3DD0314C0F7B2291E5B200AC8C7C3B925 DUP4 PUSH1 0x40 MLOAD PUSH2 0xAE3 SWAP2 SWAP1 PUSH2 0x1594 JUMP JUMPDEST PUSH1 0x40 MLOAD DUP1 SWAP2 SUB SWAP1 LOG3 POP POP POP JUMP JUMPDEST PUSH0 PUSH2 0xAFB DUP5 DUP5 PUSH2 0x822 JUMP JUMPDEST SWAP1 POP PUSH32 0xFFFFFFFFFFFFFFFFFFFFFFFFFFFFFFFFFFFFFFFFFFFFFFFFFFFFFFFFFFFFFFFF DUP2 EQ PUSH2 0xB75 JUMPI DUP2 DUP2 LT ISZERO PUSH2 0xB67 JUMPI PUSH1 0x40 MLOAD PUSH32 0x8C379A000000000000000000000000000000000000000000000000000000000 DUP2 MSTORE PUSH1 0x4 ADD PUSH2 0xB5E SWAP1 PUSH2 0x1A94 JUMP JUMPDEST PUSH1 0x40 MLOAD DUP1 SWAP2 SUB SWAP1 REVERT JUMPDEST PUSH2 0xB74 DUP5 DUP5 DUP5 DUP5 SUB PUSH2 0x92D JUMP JUMPDEST JUMPDEST POP POP POP POP JUMP JUMPDEST PUSH0 PUSH20 0xFFFFFFFFFFFFFFFFFFFFFFFFFFFFFFFFFFFFFFFF AND DUP4 PUSH20 0xFFFFFFFFFFFFFFFFFFFFFFFFFFFFFFFFFFFFFFFF AND SUB PUSH2 0xBE9 JUMPI PUSH1 0x40 MLOAD PUSH32 0x8C379A000000000000000000000000000000000000000000000000000000000 DUP2 MSTORE PUSH1 0x4 ADD PUSH2 0xBE0 SWAP1 PUSH2 0x1B22 JUMP JUMPDEST PUSH1 0x40 MLOAD DUP1 SWAP2 SUB SWAP1 REVERT JUMPDEST PUSH0 PUSH20 0xFFFFFFFFFFFFFFFFFFFFFFFFFFFFFFFFFFFFFFFF AND DUP3 PUSH20 0xFFFFFFFFFFFFFFFFFFFFFFFFFFFFFFFFFFFFFFFF AND SUB PUSH2 0xC57 JUMPI PUSH1 0x40 MLOAD PUSH32 0x8C379A000000000000000000000000000000000000000000000000000000000 DUP2 MSTORE PUSH1 0x4 ADD PUSH2 0xC4E SWAP1 PUSH2 0x1BB0 JUMP JUMPDEST PUSH1 0x40 MLOAD DUP1 SWAP2 SUB SWAP1 REVERT JUMPDEST PUSH2 0xC62 DUP4 DUP4 DUP4 PUSH2 0x12FE JUMP JUMPDEST PUSH0 PUSH0 PUSH0 DUP6 PUSH20 0xFFFFFFFFFFFFFFFFFFFFFFFFFFFFFFFFFFFFFFFF AND PUSH20 0xFFFFFFFFFFFFFFFFFFFFFFFFFFFFFFFFFFFFFFFF AND DUP2 MSTORE PUSH1 0x20 ADD SWAP1 DUP2 MSTORE PUSH1 0x20 ADD PUSH0 KECCAK256 SLOAD SWAP1 POP DUP2 DUP2 LT ISZERO PUSH2 0xCE5 JUMPI PUSH1 0x40 MLOAD PUSH32 0x8C379A000000000000000000000000000000000000000000000000000000000 DUP2 MSTORE PUSH1 0x4 ADD PUSH2 0xCDC SWAP1 PUSH2 0x1C3E JUMP JUMPDEST PUSH1 0x40 MLOAD DUP1 SWAP2 SUB SWAP1 REVERT JUMPDEST DUP2 DUP2 SUB PUSH0 PUSH0 DUP7 PUSH20 0xFFFFFFFFFFFFFFFFFFFFFFFFFFFFFFFFFFFFFFFF AND PUSH20 0xFFFFFFFFFFFFFFFFFFFFFFFFFFFFFFFFFFFFFFFF AND DUP2 MSTORE PUSH1 0x20 ADD SWAP1 DUP2 MSTORE PUSH1 0x20 ADD PUSH0 KECCAK256 DUP2 SWAP1 SSTORE POP DUP2 PUSH0 PUSH0 DUP6 PUSH20 0xFFFFFFFFFFFFFFFFFFFFFFFFFFFFFFFFFFFFFFFF AND PUSH20 0xFFFFFFFFFFFFFFFFFFFFFFFFFFFFFFFFFFFFFFFF AND DUP2 MSTORE PUSH1 0x20 ADD SWAP1 DUP2 MSTORE PUSH1 0x20 ADD PUSH0 KECCAK256 PUSH0 DUP3 DUP3 SLOAD ADD SWAP3 POP POP DUP2 SWAP1 SSTORE POP DUP3 PUSH20 0xFFFFFFFFFFFFFFFFFFFFFFFFFFFFFFFFFFFFFFFF AND DUP5 PUSH20 0xFFFFFFFFFFFFFFFFFFFFFFFFFFFFFFFFFFFFFFFF AND PUSH32 0xDDF252AD1BE2C89B69C2B068FC378DAA952BA7F163C4A11628F55A4DF523B3EF DUP5 PUSH1 0x40 MLOAD PUSH2 0xDCE SWAP2 SWAP1 PUSH2 0x1594 JUMP JUMPDEST PUSH1 0x40 MLOAD DUP1 SWAP2 SUB SWAP1 LOG3 PUSH2 0xDE1 DUP5 DUP5 DUP5 PUSH2 0x1356 JUMP JUMPDEST POP POP POP POP JUMP JUMPDEST PUSH2 0xDEF PUSH2 0x926 JUMP JUMPDEST PUSH20 0xFFFFFFFFFFFFFFFFFFFFFFFFFFFFFFFFFFFFFFFF AND PUSH2 0xE0D PUSH2 0x6D3 JUMP JUMPDEST PUSH20 0xFFFFFFFFFFFFFFFFFFFFFFFFFFFFFFFFFFFFFFFF AND EQ PUSH2 0xE63 JUMPI PUSH1 0x40 MLOAD PUSH32 0x8C379A000000000000000000000000000000000000000000000000000000000 DUP2 MSTORE PUSH1 0x4 ADD PUSH2 0xE5A SWAP1 PUSH2 0x1CA6 JUMP JUMPDEST PUSH1 0x40 MLOAD DUP1 SWAP2 SUB SWAP1 REVERT JUMPDEST JUMP JUMPDEST PUSH2 0xE6D PUSH2 0x135B JUMP JUMPDEST PUSH0 PUSH1 0x5 PUSH1 0x14 PUSH2 0x100 EXP DUP2 SLOAD DUP2 PUSH1 0xFF MUL NOT AND SWAP1 DUP4 ISZERO ISZERO MUL OR SWAP1 SSTORE POP PUSH32 0x5DB9EE0A495BF2E6FF9C91A7834C1BA4FDD244A5E8AA4E537BD38AEAE4B073AA PUSH2 0xEB0 PUSH2 0x926 JUMP JUMPDEST PUSH1 0x40 MLOAD PUSH2 0xEBD SWAP2 SWAP1 PUSH2 0x1696 JUMP JUMPDEST PUSH1 0x40 MLOAD DUP1 SWAP2 SUB SWAP1 LOG1 JUMP JUMPDEST PUSH0 PUSH20 0xFFFFFFFFFFFFFFFFFFFFFFFFFFFFFFFFFFFFFFFF AND DUP3 PUSH20 0xFFFFFFFFFFFFFFFFFFFFFFFFFFFFFFFFFFFFFFFF AND SUB PUSH2 0xF35 JUMPI PUSH1 0x40 MLOAD PUSH32 0x8C379A000000000000000000000000000000000000000000000000000000000 DUP2 MSTORE PUSH1 0x4 ADD PUSH2 0xF2C SWAP1 PUSH2 0x1D0E JUMP JUMPDEST PUSH1 0x40 MLOAD DUP1 SWAP2 SUB SWAP1 REVERT JUMPDEST PUSH2 0xF40 PUSH0 DUP4 DUP4 PUSH2 0x12FE JUMP JUMPDEST DUP1 PUSH1 0x2 PUSH0 DUP3 DUP3 SLOAD PUSH2 0xF51 SWAP2 SWAP1 PUSH2 0x1777 JUMP JUMPDEST SWAP3 POP POP DUP2 SWAP1 SSTORE POP DUP1 PUSH0 PUSH0 DUP5 PUSH20 0xFFFFFFFFFFFFFFFFFFFFFFFFFFFFFFFFFFFFFFFF AND PUSH20 0xFFFFFFFFFFFFFFFFFFFFFFFFFFFFFFFFFFFFFFFF AND DUP2 MSTORE PUSH1 0x20 ADD SWAP1 DUP2 MSTORE PUSH1 0x20 ADD PUSH0 KECCAK256 PUSH0 DUP3 DUP3 SLOAD ADD SWAP3 POP POP DUP2 SWAP1 SSTORE POP DUP2 PUSH20 0xFFFFFFFFFFFFFFFFFFFFFFFFFFFFFFFFFFFFFFFF AND PUSH0 PUSH20 0xFFFFFFFFFFFFFFFFFFFFFFFFFFFFFFFFFFFFFFFF AND PUSH32 0xDDF252AD1BE2C89B69C2B068FC378DAA952BA7F163C4A11628F55A4DF523B3EF DUP4 PUSH1 0x40 MLOAD PUSH2 0xFFE SWAP2 SWAP1 PUSH2 0x1594 JUMP JUMPDEST PUSH1 0x40 MLOAD DUP1 SWAP2 SUB SWAP1 LOG3 PUSH2 0x1011 PUSH0 DUP4 DUP4 PUSH2 0x1356 JUMP JUMPDEST POP POP JUMP JUMPDEST PUSH0 PUSH20 0xFFFFFFFFFFFFFFFFFFFFFFFFFFFFFFFFFFFFFFFF AND DUP3 PUSH20 0xFFFFFFFFFFFFFFFFFFFFFFFFFFFFFFFFFFFFFFFF AND SUB PUSH2 0x1083 JUMPI PUSH1 0x40 MLOAD PUSH32 0x8C379A000000000000000000000000000000000000000000000000000000000 DUP2 MSTORE PUSH1 0x4 ADD PUSH2 0x107A SWAP1 PUSH2 0x1D9C JUMP JUMPDEST PUSH1 0x40 MLOAD DUP1 SWAP2 SUB SWAP1 REVERT JUMPDEST PUSH2 0x108E DUP3 PUSH0 DUP4 PUSH2 0x12FE JUMP JUMPDEST PUSH0 PUSH0 PUSH0 DUP5 PUSH20 0xFFFFFFFFFFFFFFFFFFFFFFFFFFFFFFFFFFFFFFFF AND PUSH20 0xFFFFFFFFFFFFFFFFFFFFFFFFFFFFFFFFFFFFFFFF AND DUP2 MSTORE PUSH1 0x20 ADD SWAP1 DUP2 MSTORE PUSH1 0x20 ADD PUSH0 KECCAK256 SLOAD SWAP1 POP DUP2 DUP2 LT ISZERO PUSH2 0x1111 JUMPI PUSH1 0x40 MLOAD PUSH32 0x8C379A000000000000000000000000000000000000000000000000000000000 DUP2 MSTORE PUSH1 0x4 ADD PUSH2 0x1108 SWAP1 PUSH2 0x1E2A JUMP JUMPDEST PUSH1 0x40 MLOAD DUP1 SWAP2 SUB SWAP1 REVERT JUMPDEST DUP2 DUP2 SUB PUSH0 PUSH0 DUP6 PUSH20 0xFFFFFFFFFFFFFFFFFFFFFFFFFFFFFFFFFFFFFFFF AND PUSH20 0xFFFFFFFFFFFFFFFFFFFFFFFFFFFFFFFFFFFFFFFF AND DUP2 MSTORE PUSH1 0x20 ADD SWAP1 DUP2 MSTORE PUSH1 0x20 ADD PUSH0 KECCAK256 DUP2 SWAP1 SSTORE POP DUP2 PUSH1 0x2 PUSH0 DUP3 DUP3 SLOAD SUB SWAP3 POP POP DUP2 SWAP1 SSTORE POP PUSH0 PUSH20 0xFFFFFFFFFFFFFFFFFFFFFFFFFFFFFFFFFFFFFFFF AND DUP4 PUSH20 0xFFFFFFFFFFFFFFFFFFFFFFFFFFFFFFFFFFFFFFFF AND PUSH32 0xDDF252AD1BE2C89B69C2B068FC378DAA952BA7F163C4A11628F55A4DF523B3EF DUP5 PUSH1 0x40 MLOAD PUSH2 0x11C0 SWAP2 SWAP1 PUSH2 0x1594 JUMP JUMPDEST PUSH1 0x40 MLOAD DUP1 SWAP2 SUB SWAP1 LOG3 PUSH2 0x11D3 DUP4 PUSH0 DUP5 PUSH2 0x1356 JUMP JUMPDEST POP POP POP JUMP JUMPDEST PUSH0 PUSH1 0x5 PUSH0 SWAP1 SLOAD SWAP1 PUSH2 0x100 EXP SWAP1 DIV PUSH20 0xFFFFFFFFFFFFFFFFFFFFFFFFFFFFFFFFFFFFFFFF AND SWAP1 POP DUP2 PUSH1 0x5 PUSH0 PUSH2 0x100 EXP DUP2 SLOAD DUP2 PUSH20 0xFFFFFFFFFFFFFFFFFFFFFFFFFFFFFFFFFFFFFFFF MUL NOT AND SWAP1 DUP4 PUSH20 0xFFFFFFFFFFFFFFFFFFFFFFFFFFFFFFFFFFFFFFFF AND MUL OR SWAP1 SSTORE POP DUP2 PUSH20 0xFFFFFFFFFFFFFFFFFFFFFFFFFFFFFFFFFFFFFFFF AND DUP2 PUSH20 0xFFFFFFFFFFFFFFFFFFFFFFFFFFFFFFFFFFFFFFFF AND PUSH32 0x8BE0079C531659141344CD1FD0A4F28419497F9722A3DAAFE3B4186F6B6457E0 PUSH1 0x40 MLOAD PUSH1 0x40 MLOAD DUP1 SWAP2 SUB SWAP1 LOG3 POP POP JUMP JUMPDEST PUSH2 0x12A3 PUSH2 0x13A4 JUMP JUMPDEST PUSH1 0x1 PUSH1 0x5 PUSH1 0x14 PUSH2 0x100 EXP DUP2 SLOAD DUP2 PUSH1 0xFF MUL NOT AND SWAP1 DUP4 ISZERO ISZERO MUL OR SWAP1 SSTORE POP PUSH32 0x62E78CEA01BEE320CD4E420270B5EA74000D11B0C9F74754EBDBFC544B05A258 PUSH2 0x12E7 PUSH2 0x926 JUMP JUMPDEST PUSH1 0x40 MLOAD PUSH2 0x12F4 SWAP2 SWAP1 PUSH2 0x1696 JUMP JUMPDEST PUSH1 0x40 MLOAD DUP1 SWAP2 SUB SWAP1 LOG1 JUMP JUMPDEST PUSH2 0x1309 DUP4 DUP4 DUP4 PUSH2 0x13EE JUMP JUMPDEST PUSH2 0x1311 PUSH2 0x633 JUMP JUMPDEST ISZERO PUSH2 0x1351 JUMPI PUSH1 0x40 MLOAD PUSH32 0x8C379A000000000000000000000000000000000000000000000000000000000 DUP2 MSTORE PUSH1 0x4 ADD PUSH2 0x1348 SWAP1 PUSH2 0x1E92 JUMP JUMPDEST PUSH1 0x40 MLOAD DUP1 SWAP2 SUB SWAP1 REVERT JUMPDEST POP POP POP JUMP JUMPDEST POP POP POP JUMP JUMPDEST PUSH2 0x1363 PUSH2 0x633 JUMP JUMPDEST PUSH2 0x13A2 JUMPI PUSH1 0x40 MLOAD PUSH32 0x8C379A000000000000000000000000000000000000000000000000000000000 DUP2 MSTORE PUSH1 0x4 ADD PUSH2 0x1399 SWAP1 PUSH2 0x1EFA JUMP JUMPDEST PUSH1 0x40 MLOAD DUP1 SWAP2 SUB SWAP1 REVERT JUMPDEST JUMP JUMPDEST PUSH2 0x13AC PUSH2 0x633 JUMP JUMPDEST ISZERO PUSH2 0x13EC JUMPI PUSH1 0x40 MLOAD PUSH32 0x8C379A000000000000000000000000000000000000000000000000000000000 DUP2 MSTORE PUSH1 0x4 ADD PUSH2 0x13E3 SWAP1 PUSH2 0x1F62 JUMP JUMPDEST PUSH1 0x40 MLOAD DUP1 SWAP2 SUB SWAP1 REVERT JUMPDEST JUMP JUMPDEST POP POP POP JUMP JUMPDEST PUSH0 DUP2 MLOAD SWAP1 POP SWAP2 SWAP1 POP JUMP JUMPDEST PUSH0 DUP3 DUP3 MSTORE PUSH1 0x20 DUP3 ADD SWAP1 POP SWAP3 SWAP2 POP POP JUMP JUMPDEST DUP3 DUP2 DUP4 MCOPY PUSH0 DUP4 DUP4 ADD MSTORE POP POP POP JUMP JUMPDEST PUSH0 PUSH1 0x1F NOT PUSH1 0x1F DUP4 ADD AND SWAP1 POP SWAP2 SWAP1 POP JUMP JUMPDEST PUSH0 PUSH2 0x1435 DUP3 PUSH2 0x13F3 JUMP JUMPDEST PUSH2 0x143F DUP2 DUP6 PUSH2 0x13FD JUMP JUMPDEST SWAP4 POP PUSH2 0x144F DUP2 DUP6 PUSH1 0x20 DUP7 ADD PUSH2 0x140D JUMP JUMPDEST PUSH2 0x1458 DUP2 PUSH2 0x141B JUMP JUMPDEST DUP5 ADD SWAP2 POP POP SWAP3 SWAP2 POP POP JUMP JUMPDEST PUSH0 PUSH1 0x20 DUP3 ADD SWAP1 POP DUP2 DUP2 SUB PUSH0 DUP4 ADD MSTORE PUSH2 0x147B DUP2 DUP5 PUSH2 0x142B JUMP JUMPDEST SWAP1 POP SWAP3 SWAP2 POP POP JUMP JUMPDEST PUSH0 PUSH0 REVERT JUMPDEST PUSH0 PUSH20 0xFFFFFFFFFFFFFFFFFFFFFFFFFFFFFFFFFFFFFFFF DUP3 AND SWAP1 POP SWAP2 SWAP1 POP JUMP JUMPDEST PUSH0 PUSH2 0x14B0 DUP3 PUSH2 0x1487 JUMP JUMPDEST SWAP1 POP SWAP2 SWAP1 POP JUMP JUMPDEST PUSH2 0x14C0 DUP2 PUSH2 0x14A6 JUMP JUMPDEST DUP2 EQ PUSH2 0x14CA JUMPI PUSH0 PUSH0 REVERT JUMPDEST POP JUMP JUMPDEST PUSH0 DUP2 CALLDATALOAD SWAP1 POP PUSH2 0x14DB DUP2 PUSH2 0x14B7 JUMP JUMPDEST SWAP3 SWAP2 POP POP JUMP JUMPDEST PUSH0 DUP2 SWAP1 POP SWAP2 SWAP1 POP JUMP JUMPDEST PUSH2 0x14F3 DUP2 PUSH2 0x14E1 JUMP JUMPDEST DUP2 EQ PUSH2 0x14FD JUMPI PUSH0 PUSH0 REVERT JUMPDEST POP JUMP JUMPDEST PUSH0 DUP2 CALLDATALOAD SWAP1 POP PUSH2 0x150E DUP2 PUSH2 0x14EA JUMP JUMPDEST SWAP3 SWAP2 POP POP JUMP JUMPDEST PUSH0 PUSH0 PUSH1 0x40 DUP4 DUP6 SUB SLT ISZERO PUSH2 0x152A JUMPI PUSH2 0x1529 PUSH2 0x1483 JUMP JUMPDEST JUMPDEST PUSH0 PUSH2 0x1537 DUP6 DUP3 DUP7 ADD PUSH2 0x14CD JUMP JUMPDEST SWAP3 POP POP PUSH1 0x20 PUSH2 0x1548 DUP6 DUP3 DUP7 ADD PUSH2 0x1500 JUMP JUMPDEST SWAP2 POP POP SWAP3 POP SWAP3 SWAP1 POP JUMP JUMPDEST PUSH0 DUP2 ISZERO ISZERO SWAP1 POP SWAP2 SWAP1 POP JUMP JUMPDEST PUSH2 0x1566 DUP2 PUSH2 0x1552 JUMP JUMPDEST DUP3 MSTORE POP POP JUMP JUMPDEST PUSH0 PUSH1 0x20 DUP3 ADD SWAP1 POP PUSH2 0x157F PUSH0 DUP4 ADD DUP5 PUSH2 0x155D JUMP JUMPDEST SWAP3 SWAP2 POP POP JUMP JUMPDEST PUSH2 0x158E DUP2 PUSH2 0x14E1 JUMP JUMPDEST DUP3 MSTORE POP POP JUMP JUMPDEST PUSH0 PUSH1 0x20 DUP3 ADD SWAP1 POP PUSH2 0x15A7 PUSH0 DUP4 ADD DUP5 PUSH2 0x1585 JUMP JUMPDEST SWAP3 SWAP2 POP POP JUMP JUMPDEST PUSH0 PUSH0 PUSH0 PUSH1 0x60 DUP5 DUP7 SUB SLT ISZERO PUSH2 0x15C4 JUMPI PUSH2 0x15C3 PUSH2 0x1483 JUMP JUMPDEST JUMPDEST PUSH0 PUSH2 0x15D1 DUP7 DUP3 DUP8 ADD PUSH2 0x14CD JUMP JUMPDEST SWAP4 POP POP PUSH1 0x20 PUSH2 0x15E2 DUP7 DUP3 DUP8 ADD PUSH2 0x14CD JUMP JUMPDEST SWAP3 POP POP PUSH1 0x40 PUSH2 0x15F3 DUP7 DUP3 DUP8 ADD PUSH2 0x1500 JUMP JUMPDEST SWAP2 POP POP SWAP3 POP SWAP3 POP SWAP3 JUMP JUMPDEST PUSH0 PUSH1 0xFF DUP3 AND SWAP1 POP SWAP2 SWAP1 POP JUMP JUMPDEST PUSH2 0x1612 DUP2 PUSH2 0x15FD JUMP JUMPDEST DUP3 MSTORE POP POP JUMP JUMPDEST PUSH0 PUSH1 0x20 DUP3 ADD SWAP1 POP PUSH2 0x162B PUSH0 DUP4 ADD DUP5 PUSH2 0x1609 JUMP JUMPDEST SWAP3 SWAP2 POP POP JUMP JUMPDEST PUSH0 PUSH1 0x20 DUP3 DUP5 SUB SLT ISZERO PUSH2 0x1646 JUMPI PUSH2 0x1645 PUSH2 0x1483 JUMP JUMPDEST JUMPDEST PUSH0 PUSH2 0x1653 DUP5 DUP3 DUP6 ADD PUSH2 0x1500 JUMP JUMPDEST SWAP2 POP POP SWAP3 SWAP2 POP POP JUMP JUMPDEST PUSH0 PUSH1 0x20 DUP3 DUP5 SUB SLT ISZERO PUSH2 0x1671 JUMPI PUSH2 0x1670 PUSH2 0x1483 JUMP JUMPDEST JUMPDEST PUSH0 PUSH2 0x167E DUP5 DUP3 DUP6 ADD PUSH2 0x14CD JUMP JUMPDEST SWAP2 POP POP SWAP3 SWAP2 POP POP JUMP JUMPDEST PUSH2 0x1690 DUP2 PUSH2 0x14A6 JUMP JUMPDEST DUP3 MSTORE POP POP JUMP JUMPDEST PUSH0 PUSH1 0x20 DUP3 ADD SWAP1 POP PUSH2 0x16A9 PUSH0 DUP4 ADD DUP5 PUSH2 0x1687 JUMP JUMPDEST SWAP3 SWAP2 POP POP JUMP JUMPDEST PUSH0 PUSH0 PUSH1 0x40 DUP4 DUP6 SUB SLT ISZERO PUSH2 0x16C5 JUMPI PUSH2 0x16C4 PUSH2 0x1483 JUMP JUMPDEST JUMPDEST PUSH0 PUSH2 0x16D2 DUP6 DUP3 DUP7 ADD PUSH2 0x14CD JUMP JUMPDEST SWAP3 POP POP PUSH1 0x20 PUSH2 0x16E3 DUP6 DUP3 DUP7 ADD PUSH2 0x14CD JUMP JUMPDEST SWAP2 POP POP SWAP3 POP SWAP3 SWAP1 POP JUMP JUMPDEST PUSH32 0x4E487B7100000000000000000000000000000000000000000000000000000000 PUSH0 MSTORE PUSH1 0x22 PUSH1 0x4 MSTORE PUSH1 0x24 PUSH0 REVERT JUMPDEST PUSH0 PUSH1 0x2 DUP3 DIV SWAP1 POP PUSH1 0x1 DUP3 AND DUP1 PUSH2 0x1731 JUMPI PUSH1 0x7F DUP3 AND SWAP2 POP JUMPDEST PUSH1 0x20 DUP3 LT DUP2 SUB PUSH2 0x1744 JUMPI PUSH2 0x1743 PUSH2 0x16ED JUMP JUMPDEST JUMPDEST POP SWAP2 SWAP1 POP JUMP JUMPDEST PUSH32 0x4E487B7100000000000000000000000000000000000000000000000000000000 PUSH0 MSTORE PUSH1 0x11 PUSH1 0x4 MSTORE PUSH1 0x24 PUSH0 REVERT JUMPDEST PUSH0 PUSH2 0x1781 DUP3 PUSH2 0x14E1 JUMP JUMPDEST SWAP2 POP PUSH2 0x178C DUP4 PUSH2 0x14E1 JUMP JUMPDEST SWAP3 POP DUP3 DUP3 ADD SWAP1 POP DUP1 DUP3 GT ISZERO PUSH2 0x17A4 JUMPI PUSH2 0x17A3 PUSH2 0x174A JUMP JUMPDEST JUMPDEST SWAP3 SWAP2 POP POP JUMP JUMPDEST PUSH32 0x6361702065786365656465640000000000000000000000000000000000000000 PUSH0 DUP3 ADD MSTORE POP JUMP JUMPDEST PUSH0 PUSH2 0x17DE PUSH1 0xC DUP4 PUSH2 0x13FD JUMP JUMPDEST SWAP2 POP PUSH2 0x17E9 DUP3 PUSH2 0x17AA JUMP JUMPDEST PUSH1 0x20 DUP3 ADD SWAP1 POP SWAP2 SWAP1 POP JUMP JUMPDEST PUSH0 PUSH1 0x20 DUP3 ADD SWAP1 POP DUP2 DUP2 SUB PUSH0 DUP4 ADD MSTORE PUSH2 0x180B DUP2 PUSH2 0x17D2 JUMP JUMPDEST SWAP1 POP SWAP2 SWAP1 POP JUMP JUMPDEST PUSH32 0x45524332303A2064656372656173656420616C6C6F77616E63652062656C6F77 PUSH0 DUP3 ADD MSTORE PUSH32 0x207A65726F000000000000000000000000000000000000000000000000000000 PUSH1 0x20 DUP3 ADD MSTORE POP JUMP JUMPDEST PUSH0 PUSH2 0x186C PUSH1 0x25 DUP4 PUSH2 0x13FD JUMP JUMPDEST SWAP2 POP PUSH2 0x1877 DUP3 PUSH2 0x1812 JUMP JUMPDEST PUSH1 0x40 DUP3 ADD SWAP1 POP SWAP2 SWAP1 POP JUMP JUMPDEST PUSH0 PUSH1 0x20 DUP3 ADD SWAP1 POP DUP2 DUP2 SUB PUSH0 DUP4 ADD MSTORE PUSH2 0x1899 DUP2 PUSH2 0x1860 JUMP JUMPDEST SWAP1 POP SWAP2 SWAP1 POP JUMP JUMPDEST PUSH32 0x4F776E61626C653A206E6577206F776E657220697320746865207A65726F2061 PUSH0 DUP3 ADD MSTORE PUSH32 0x6464726573730000000000000000000000000000000000000000000000000000 PUSH1 0x20 DUP3 ADD MSTORE POP JUMP JUMPDEST PUSH0 PUSH2 0x18FA PUSH1 0x26 DUP4 PUSH2 0x13FD JUMP JUMPDEST SWAP2 POP PUSH2 0x1905 DUP3 PUSH2 0x18A0 JUMP JUMPDEST PUSH1 0x40 DUP3 ADD SWAP1 POP SWAP2 SWAP1 POP JUMP JUMPDEST PUSH0 PUSH1 0x20 DUP3 ADD SWAP1 POP DUP2 DUP2 SUB PUSH0 DUP4 ADD MSTORE PUSH2 0x1927 DUP2 PUSH2 0x18EE JUMP JUMPDEST SWAP1 POP SWAP2 SWAP1 POP JUMP JUMPDEST PUSH32 0x45524332303A20617070726F76652066726F6D20746865207A65726F20616464 PUSH0 DUP3 ADD MSTORE PUSH32 0x7265737300000000000000000000000000000000000000000000000000000000 PUSH1 0x20 DUP3 ADD MSTORE POP JUMP JUMPDEST PUSH0 PUSH2 0x1988 PUSH1 0x24 DUP4 PUSH2 0x13FD JUMP JUMPDEST SWAP2 POP PUSH2 0x1993 DUP3 PUSH2 0x192E JUMP JUMPDEST PUSH1 0x40 DUP3 ADD SWAP1 POP SWAP2 SWAP1 POP JUMP JUMPDEST PUSH0 PUSH1 0x20 DUP3 ADD SWAP1 POP DUP2 DUP2 SUB PUSH0 DUP4 ADD MSTORE PUSH2 0x19B5 DUP2 PUSH2 0x197C JUMP JUMPDEST SWAP1 POP SWAP2 SWAP1 POP JUMP JUMPDEST PUSH32 0x45524332303A20617070726F766520746F20746865207A65726F206164647265 PUSH0 DUP3 ADD MSTORE PUSH32 0x7373000000000000000000000000000000000000000000000000000000000000 PUSH1 0x20 DUP3 ADD MSTORE POP JUMP JUMPDEST PUSH0 PUSH2 0x1A16 PUSH1 0x22 DUP4 PUSH2 0x13FD JUMP JUMPDEST SWAP2 POP PUSH2 0x1A21 DUP3 PUSH2 0x19BC JUMP JUMPDEST PUSH1 0x40 DUP3 ADD SWAP1 POP SWAP2 SWAP1 POP JUMP JUMPDEST PUSH0 PUSH1 0x20 DUP3 ADD SWAP1 POP DUP2 DUP2 SUB PUSH0 DUP4 ADD MSTORE PUSH2 0x1A43 DUP2 PUSH2 0x1A0A JUMP JUMPDEST SWAP1 POP SWAP2 SWAP1 POP JUMP JUMPDEST PUSH32 0x45524332303A20696E73756666696369656E7420616C6C6F77616E6365000000 PUSH0 DUP3 ADD MSTORE POP JUMP JUMPDEST PUSH0 PUSH2 0x1A7E PUSH1 0x1D DUP4 PUSH2 0x13FD JUMP JUMPDEST SWAP2 POP PUSH2 0x1A89 DUP3 PUSH2 0x1A4A JUMP JUMPDEST PUSH1 0x20 DUP3 ADD SWAP1 POP SWAP2 SWAP1 POP JUMP JUMPDEST PUSH0 PUSH1 0x20 DUP3 ADD SWAP1 POP DUP2 DUP2 SUB PUSH0 DUP4 ADD MSTORE PUSH2 0x1AAB DUP2 PUSH2 0x1A72 JUMP JUMPDEST SWAP1 POP SWAP2 SWAP1 POP JUMP JUMPDEST PUSH32 0x45524332303A207472616E736665722066726F6D20746865207A65726F206164 PUSH0 DUP3 ADD MSTORE PUSH32 0x6472657373000000000000000000000000000000000000000000000000000000 PUSH1 0x20 DUP3 ADD MSTORE POP JUMP JUMPDEST PUSH0 PUSH2 0x1B0C PUSH1 0x25 DUP4 PUSH2 0x13FD JUMP JUMPDEST SWAP2 POP PUSH2 0x1B17 DUP3 PUSH2 0x1AB2 JUMP JUMPDEST PUSH1 0x40 DUP3 ADD SWAP1 POP SWAP2 SWAP1 POP JUMP JUMPDEST PUSH0 PUSH1 0x20 DUP3 ADD SWAP1 POP DUP2 DUP2 SUB PUSH0 DUP4 ADD MSTORE PUSH2 0x1B39 DUP2 PUSH2 0x1B00 JUMP JUMPDEST SWAP1 POP SWAP2 SWAP1 POP JUMP JUMPDEST PUSH32 0x45524332303A207472616E7366657220746F20746865207A65726F2061646472 PUSH0 DUP3 ADD MSTORE PUSH32 0x6573730000000000000000000000000000000000000000000000000000000000 PUSH1 0x20 DUP3 ADD MSTORE POP JUMP JUMPDEST PUSH0 PUSH2 0x1B9A PUSH1 0x23 DUP4 PUSH2 0x13FD JUMP JUMPDEST SWAP2 POP PUSH2 0x1BA5 DUP3 PUSH2 0x1B40 JUMP JUMPDEST PUSH1 0x40 DUP3 ADD SWAP1 POP SWAP2 SWAP1 POP JUMP JUMPDEST PUSH0 PUSH1 0x20 DUP3 ADD SWAP1 POP DUP2 DUP2 SUB PUSH0 DUP4 ADD MSTORE PUSH2 0x1BC7 DUP2 PUSH2 0x1B8E JUMP JUMPDEST SWAP1 POP SWAP2 SWAP1 POP JUMP JUMPDEST PUSH32 0x45524332303A207472616E7366657220616D6F756E7420657863656564732062 PUSH0 DUP3 ADD MSTORE PUSH32 0x616C616E63650000000000000000000000000000000000000000000000000000 PUSH1 0x20 DUP3 ADD MSTORE POP JUMP JUMPDEST PUSH0 PUSH2 0x1C28 PUSH1 0x26 DUP4 PUSH2 0x13FD JUMP JUMPDEST SWAP2 POP PUSH2 0x1C33 DUP3 PUSH2 0x1BCE JUMP JUMPDEST PUSH1 0x40 DUP3 ADD SWAP1 POP SWAP2 SWAP1 POP JUMP JUMPDEST PUSH0 PUSH1 0x20 DUP3 ADD SWAP1 POP DUP2 DUP2 SUB PUSH0 DUP4 ADD MSTORE PUSH2 0x1C55 DUP2 PUSH2 0x1C1C JUMP JUMPDEST SWAP1 POP SWAP2 SWAP1 POP JUMP JUMPDEST PUSH32 0x4F776E61626C653A2063616C6C6572206973206E6F7420746865206F776E6572 PUSH0 DUP3 ADD MSTORE POP JUMP JUMPDEST PUSH0 PUSH2 0x1C90 PUSH1 0x20 DUP4 PUSH2 0x13FD JUMP JUMPDEST SWAP2 POP PUSH2 0x1C9B DUP3 PUSH2 0x1C5C JUMP JUMPDEST PUSH1 0x20 DUP3 ADD SWAP1 POP SWAP2 SWAP1 POP JUMP JUMPDEST PUSH0 PUSH1 0x20 DUP3 ADD SWAP1 POP DUP2 DUP2 SUB PUSH0 DUP4 ADD MSTORE PUSH2 0x1CBD DUP2 PUSH2 0x1C84 JUMP JUMPDEST SWAP1 POP SWAP2 SWAP1 POP JUMP JUMPDEST PUSH32 0x45524332303A206D696E7420746F20746865207A65726F206164647265737300 PUSH0 DUP3 ADD MSTORE POP JUMP JUMPDEST PUSH0 PUSH2 0x1CF8 PUSH1 0x1F DUP4 PUSH2 0x13FD JUMP JUMPDEST SWAP2 POP PUSH2 0x1D03 DUP3 PUSH2 0x1CC4 JUMP JUMPDEST PUSH1 0x20 DUP3 ADD SWAP1 POP SWAP2 SWAP1 POP JUMP JUMPDEST PUSH0 PUSH1 0x20 DUP3 ADD SWAP1 POP DUP2 DUP2 SUB PUSH0 DUP4 ADD MSTORE PUSH2 0x1D25 DUP2 PUSH2 0x1CEC JUMP JUMPDEST SWAP1 POP SWAP2 SWAP1 POP JUMP JUMPDEST PUSH32 0x45524332303A206275726E2066726F6D20746865207A65726F20616464726573 PUSH0 DUP3 ADD MSTORE PUSH32 0x7300000000000000000000000000000000000000000000000000000000000000 PUSH1 0x20 DUP3 ADD MSTORE POP JUMP JUMPDEST PUSH0 PUSH2 0x1D86 PUSH1 0x21 DUP4 PUSH2 0x13FD JUMP JUMPDEST SWAP2 POP PUSH2 0x1D91 DUP3 PUSH2 0x1D2C JUMP JUMPDEST PUSH1 0x40 DUP3 ADD SWAP1 POP SWAP2 SWAP1 POP JUMP JUMPDEST PUSH0 PUSH1 0x20 DUP3 ADD SWAP1 POP DUP2 DUP2 SUB PUSH0 DUP4 ADD MSTORE PUSH2 0x1DB3 DUP2 PUSH2 0x1D7A JUMP JUMPDEST SWAP1 POP SWAP2 SWAP1 POP JUMP JUMPDEST PUSH32 0x45524332303A206275726E20616D6F756E7420657863656564732062616C616E PUSH0 DUP3 ADD MSTORE PUSH32 0x6365000000000000000000000000000000000000000000000000000000000000 PUSH1 0x20 DUP3 ADD MSTORE POP JUMP JUMPDEST PUSH0 PUSH2 0x1E14 PUSH1 0x22 DUP4 PUSH2 0x13FD JUMP JUMPDEST SWAP2 POP PUSH2 0x1E1F DUP3 PUSH2 0x1DBA JUMP JUMPDEST PUSH1 0x40 DUP3 ADD SWAP1 POP SWAP2 SWAP1 POP JUMP JUMPDEST PUSH0 PUSH1 0x20 DUP3 ADD SWAP1 POP DUP2 DUP2 SUB PUSH0 DUP4 ADD MSTORE PUSH2 0x1E41 DUP2 PUSH2 0x1E08 JUMP JUMPDEST SWAP1 POP SWAP2 SWAP1 POP JUMP JUMPDEST PUSH32 0x746F6B656E207472616E73666572207768696C65207061757365640000000000 PUSH0 DUP3 ADD MSTORE POP JUMP JUMPDEST PUSH0 PUSH2 0x1E7C PUSH1 0x1B DUP4 PUSH2 0x13FD JUMP JUMPDEST SWAP2 POP PUSH2 0x1E87 DUP3 PUSH2 0x1E48 JUMP JUMPDEST PUSH1 0x20 DUP3 ADD SWAP1 POP SWAP2 SWAP1 POP JUMP JUMPDEST PUSH0 PUSH1 0x20 DUP3 ADD SWAP1 POP DUP2 DUP2 SUB PUSH0 DUP4 ADD MSTORE PUSH2 0x1EA9 DUP2 PUSH2 0x1E70 JUMP JUMPDEST SWAP1 POP SWAP2 SWAP1 POP JUMP JUMPDEST PUSH32 0x5061757361626C653A206E6F7420706175736564000000000000000000000000 PUSH0 DUP3 ADD MSTORE POP JUMP JUMPDEST PUSH0 PUSH2 0x1EE4 PUSH1 0x14 DUP4 PUSH2 0x13FD JUMP JUMPDEST SWAP2 POP PUSH2 0x1EEF DUP3 PUSH2 0x1EB0 JUMP JUMPDEST PUSH1 0x20 DUP3 ADD SWAP1 POP SWAP2 SWAP1 POP JUMP JUMPDEST PUSH0 PUSH1 0x20 DUP3 ADD SWAP1 POP DUP2 DUP2 SUB PUSH0 DUP4 ADD MSTORE PUSH2 0x1F11 DUP2 PUSH2 0x1ED8 JUMP JUMPDEST SWAP1 POP SWAP2 SWAP1 POP JUMP JUMPDEST PUSH32 0x5061757361626C653A2070617573656400000000000000000000000000000000 PUSH0 DUP3 ADD MSTORE POP JUMP JUMPDEST PUSH0 PUSH2 0x1F4C PUSH1 0x10 DUP4 PUSH2 0x13FD JUMP JUMPDEST SWAP2 POP PUSH2 0x1F57 DUP3 PUSH2 0x1F18 JUMP JUMPDEST PUSH1 0x20 DUP3 ADD SWAP1 POP SWAP2 SWAP1 POP JUMP JUMPDEST PUSH0 PUSH1 0x20 DUP3 ADD SWAP1 POP DUP2 DUP2 SUB PUSH0 DUP4 ADD MSTORE PUSH2 0x1F79 DUP2 PUSH2 0x1F40 JUMP JUMPDEST SWAP1 POP SWAP2 SWAP1 POP JUMP INVALID LOG2 PUSH5 0x6970667358 0x22 SLT KECCAK256 EXP SWAP5 PUSH24 0x463507C8EFB244D79F64EE3F4D041AA2BD1F903884B13103 NOT 0x2D 0xF7 RETURNCONTRACT 0xC1 PUSH5 0x736F6C6343 STOP ADDMOD 0x1E STOP CALLER "
				},
				"gasEstimates": {
					"creation": {
						"codeDepositCost": "1623600",
						"executionCost": "infinite",
						"totalCost": "infinite"
					},
					"external": {
						"allowance(address,address)": "infinite",
						"approve(address,uint256)": "infinite",
						"balanceOf(address)": "2873",
						"burn(uint256)": "infinite",
						"burnFrom(address,uint256)": "infinite",
						"cap()": "infinite",
						"decimals()": "450",
						"decreaseAllowance(address,uint256)": "infinite",
						"increaseAllowance(address,uint256)": "infinite",
						"mint(address,uint256)": "infinite",
						"name()": "infinite",
						"owner()": "2537",
						"pause()": "infinite",
						"paused()": "2547",
						"renounceOwnership()": "30457",
						"symbol()": "infinite",
						"totalSupply()": "2500",
						"transfer(address,uint256)": "infinite",
						"transferFrom(address,address,uint256)": "infinite",
						"transferOwnership(address)": "30863",
						"unpause()": "infinite"
					},
					"internal": {
						"_beforeTokenTransfer(address,address,uint256)": "infinite"
					}
				},
				"methodIdentifiers": {
					"allowance(address,address)": "dd62ed3e",
					"approve(address,uint256)": "095ea7b3",
					"balanceOf(address)": "70a08231",
					"burn(uint256)": "42966c68",
					"burnFrom(address,uint256)": "79cc6790",
					"cap()": "355274ea",
					"decimals()": "313ce567",
					"decreaseAllowance(address,uint256)": "a457c2d7",
					"increaseAllowance(address,uint256)": "39509351",
					"mint(address,uint256)": "40c10f19",
					"name()": "06fdde03",
					"owner()": "8da5cb5b",
					"pause()": "8456cb59",
					"paused()": "5c975abb",
					"renounceOwnership()": "715018a6",
					"symbol()": "95d89b41",
					"totalSupply()": "18160ddd",
					"transfer(address,uint256)": "a9059cbb",
					"transferFrom(address,address,uint256)": "23b872dd",
					"transferOwnership(address)": "f2fde38b",
					"unpause()": "3f4ba83a"
				}
			},
			"storageLayout": {
				"storage": [
					{
						"astId": 386,
						"contract": "contracts/IncaKolaNFT.sol:AgroToken",
						"label": "_balances",
						"offset": 0,
						"slot": "0",
						"type": "t_mapping(t_address,t_uint256)"
					},
					{
						"astId": 392,
						"contract": "contracts/IncaKolaNFT.sol:AgroToken",
						"label": "_allowances",
						"offset": 0,
						"slot": "1",
						"type": "t_mapping(t_address,t_mapping(t_address,t_uint256))"
					},
					{
						"astId": 394,
						"contract": "contracts/IncaKolaNFT.sol:AgroToken",
						"label": "_totalSupply",
						"offset": 0,
						"slot": "2",
						"type": "t_uint256"
					},
					{
						"astId": 396,
						"contract": "contracts/IncaKolaNFT.sol:AgroToken",
						"label": "_name",
						"offset": 0,
						"slot": "3",
						"type": "t_string_storage"
					},
					{
						"astId": 398,
						"contract": "contracts/IncaKolaNFT.sol:AgroToken",
						"label": "_symbol",
						"offset": 0,
						"slot": "4",
						"type": "t_string_storage"
					},
					{
						"astId": 157,
						"contract": "contracts/IncaKolaNFT.sol:AgroToken",
						"label": "_owner",
						"offset": 0,
						"slot": "5",
						"type": "t_address"
					},
					{
						"astId": 280,
						"contract": "contracts/IncaKolaNFT.sol:AgroToken",
						"label": "_paused",
						"offset": 20,
						"slot": "5",
						"type": "t_bool"
					}
				],
				"types": {
					"t_address": {
						"encoding": "inplace",
						"label": "address",
						"numberOfBytes": "20"
					},
					"t_bool": {
						"encoding": "inplace",
						"label": "bool",
						"numberOfBytes": "1"
					},
					"t_mapping(t_address,t_mapping(t_address,t_uint256))": {
						"encoding": "mapping",
						"key": "t_address",
						"label": "mapping(address => mapping(address => uint256))",
						"numberOfBytes": "32",
						"value": "t_mapping(t_address,t_uint256)"
					},
					"t_mapping(t_address,t_uint256)": {
						"encoding": "mapping",
						"key": "t_address",
						"label": "mapping(address => uint256)",
						"numberOfBytes": "32",
						"value": "t_uint256"
					},
					"t_string_storage": {
						"encoding": "bytes",
						"label": "string",
						"numberOfBytes": "32"
					},
					"t_uint256": {
						"encoding": "inplace",
						"label": "uint256",
						"numberOfBytes": "32"
					}
				}
			},
			"userdoc": {
				"kind": "user",
				"methods": {
					"constructor": {
						"notice": "Constructor del token. Se ejecuta una sola vez al desplegar el contrato."
					},
					"mint(address,uint256)": {
						"notice": "Crea nuevos tokens (solo el due침o puede hacerlo)."
					},
					"pause()": {
						"notice": "Pausa todas las transferencias del token. Solo el due침o puede ejecutar esta funci칩n."
					},
					"unpause()": {
						"notice": "Reactiva las transferencias pausadas. Solo el due침o puede ejecutar esta funci칩n."
					}
				},
				"version": 1
			}
		}
	}
}