{
	"data": {
		"bytecode": {
			"linkReferences": {},
			"object": "6080604052348015600e575f5ffd5b5061090a8061001c5f395ff3fe608060405234801561000f575f5ffd5b5060043610610060575f3560e01c806308e364e81461006457806337bc51ef1461009457806346ffd482146100c55780637dbfe9b5146100f5578063958c838d14610125578063fafd55c614610155575b5f5ffd5b61007e600480360381019061007991906104e6565b610185565b60405161008b919061053c565b60405180910390f35b6100ae60048036038101906100a99190610555565b6101e1565b6040516100bc9291906105c9565b60405180910390f35b6100df60048036038101906100da91906105f0565b610239565b6040516100ec919061053c565b60405180910390f35b61010f600480360381019061010a919061062e565b610253565b60405161011c919061053c565b60405180910390f35b61013f600480360381019061013a919061062e565b6102d3565b60405161014c919061053c565b60405180910390f35b61016f600480360381019061016a919061068c565b610308565b60405161017c91906106d1565b60405180910390f35b5f5f5f90505f5f90505b83518110156101d7575f60028583815181106101ae576101ad6106ea565b5b60200260200101516101c09190610744565b036101cc578160010191505b80600101905061018f565b5080915050919050565b5f5f5f5f90505b845181101561022a5783858281518110610205576102046106ea565b5b60200260200101510361021f576001819250925050610232565b8060010190506101e8565b505f5f915091505b9250929050565b5f8183106102495782905061024d565b8190505b92915050565b5f6014821115610298576040517f08c379a000000000000000000000000000000000000000000000000000000000815260040161028f906107ce565b60405180910390fd5b5f600190505f600290505b8381116102c95780826102b69190610819565b9150806102c29061085a565b90506102a3565b5080915050919050565b5f5f600190505f5f90505b8382116102fe5781816102f191906108a1565b90508160010191506102de565b8092505050919050565b5f5f821215610339577fffffffffffffffffffffffffffffffffffffffffffffffffffffffffffffffff905061034d565b5f8203610348575f905061034d565b600190505b919050565b5f604051905090565b5f5ffd5b5f5ffd5b5f5ffd5b5f601f19601f8301169050919050565b7f4e487b71000000000000000000000000000000000000000000000000000000005f52604160045260245ffd5b6103ad82610367565b810181811067ffffffffffffffff821117156103cc576103cb610377565b5b80604052505050565b5f6103de610352565b90506103ea82826103a4565b919050565b5f67ffffffffffffffff82111561040957610408610377565b5b602082029050602081019050919050565b5f5ffd5b5f819050919050565b6104308161041e565b811461043a575f5ffd5b50565b5f8135905061044b81610427565b92915050565b5f61046361045e846103ef565b6103d5565b905080838252602082019050602084028301858111156104865761048561041a565b5b835b818110156104af578061049b888261043d565b845260208401935050602081019050610488565b5050509392505050565b5f82601f8301126104cd576104cc610363565b5b81356104dd848260208601610451565b91505092915050565b5f602082840312156104fb576104fa61035b565b5b5f82013567ffffffffffffffff8111156105185761051761035f565b5b610524848285016104b9565b91505092915050565b6105368161041e565b82525050565b5f60208201905061054f5f83018461052d565b92915050565b5f5f6040838503121561056b5761056a61035b565b5b5f83013567ffffffffffffffff8111156105885761058761035f565b5b610594858286016104b9565b92505060206105a58582860161043d565b9150509250929050565b5f8115159050919050565b6105c3816105af565b82525050565b5f6040820190506105dc5f8301856105ba565b6105e9602083018461052d565b9392505050565b5f5f604083850312156106065761060561035b565b5b5f6106138582860161043d565b92505060206106248582860161043d565b9150509250929050565b5f602082840312156106435761064261035b565b5b5f6106508482850161043d565b91505092915050565b5f819050919050565b61066b81610659565b8114610675575f5ffd5b50565b5f8135905061068681610662565b92915050565b5f602082840312156106a1576106a061035b565b5b5f6106ae84828501610678565b91505092915050565b5f815f0b9050919050565b6106cb816106b7565b82525050565b5f6020820190506106e45f8301846106c2565b92915050565b7f4e487b71000000000000000000000000000000000000000000000000000000005f52603260045260245ffd5b7f4e487b71000000000000000000000000000000000000000000000000000000005f52601260045260245ffd5b5f61074e8261041e565b91506107598361041e565b92508261076957610768610717565b5b828206905092915050565b5f82825260208201905092915050565b7f6e206d7579206772616e646500000000000000000000000000000000000000005f82015250565b5f6107b8600c83610774565b91506107c382610784565b602082019050919050565b5f6020820190508181035f8301526107e5816107ac565b9050919050565b7f4e487b71000000000000000000000000000000000000000000000000000000005f52601160045260245ffd5b5f6108238261041e565b915061082e8361041e565b925082820261083c8161041e565b91508282048414831517610853576108526107ec565b5b5092915050565b5f6108648261041e565b91507fffffffffffffffffffffffffffffffffffffffffffffffffffffffffffffffff8203610896576108956107ec565b5b600182019050919050565b5f6108ab8261041e565b91506108b68361041e565b92508282019050808211156108ce576108cd6107ec565b5b9291505056fea2646970667358221220487267f5487490a262b3865a689b47f1a2f5d63a0a566d3de3977f426ef78a5d64736f6c634300081e0033",
			"opcodes": "PUSH1 0x80 PUSH1 0x40 MSTORE CALLVALUE DUP1 ISZERO PUSH1 0xE JUMPI PUSH0 PUSH0 REVERT JUMPDEST POP PUSH2 0x90A DUP1 PUSH2 0x1C PUSH0 CODECOPY PUSH0 RETURN INVALID PUSH1 0x80 PUSH1 0x40 MSTORE CALLVALUE DUP1 ISZERO PUSH2 0xF JUMPI PUSH0 PUSH0 REVERT JUMPDEST POP PUSH1 0x4 CALLDATASIZE LT PUSH2 0x60 JUMPI PUSH0 CALLDATALOAD PUSH1 0xE0 SHR DUP1 PUSH4 0x8E364E8 EQ PUSH2 0x64 JUMPI DUP1 PUSH4 0x37BC51EF EQ PUSH2 0x94 JUMPI DUP1 PUSH4 0x46FFD482 EQ PUSH2 0xC5 JUMPI DUP1 PUSH4 0x7DBFE9B5 EQ PUSH2 0xF5 JUMPI DUP1 PUSH4 0x958C838D EQ PUSH2 0x125 JUMPI DUP1 PUSH4 0xFAFD55C6 EQ PUSH2 0x155 JUMPI JUMPDEST PUSH0 PUSH0 REVERT JUMPDEST PUSH2 0x7E PUSH1 0x4 DUP1 CALLDATASIZE SUB DUP2 ADD SWAP1 PUSH2 0x79 SWAP2 SWAP1 PUSH2 0x4E6 JUMP JUMPDEST PUSH2 0x185 JUMP JUMPDEST PUSH1 0x40 MLOAD PUSH2 0x8B SWAP2 SWAP1 PUSH2 0x53C JUMP JUMPDEST PUSH1 0x40 MLOAD DUP1 SWAP2 SUB SWAP1 RETURN JUMPDEST PUSH2 0xAE PUSH1 0x4 DUP1 CALLDATASIZE SUB DUP2 ADD SWAP1 PUSH2 0xA9 SWAP2 SWAP1 PUSH2 0x555 JUMP JUMPDEST PUSH2 0x1E1 JUMP JUMPDEST PUSH1 0x40 MLOAD PUSH2 0xBC SWAP3 SWAP2 SWAP1 PUSH2 0x5C9 JUMP JUMPDEST PUSH1 0x40 MLOAD DUP1 SWAP2 SUB SWAP1 RETURN JUMPDEST PUSH2 0xDF PUSH1 0x4 DUP1 CALLDATASIZE SUB DUP2 ADD SWAP1 PUSH2 0xDA SWAP2 SWAP1 PUSH2 0x5F0 JUMP JUMPDEST PUSH2 0x239 JUMP JUMPDEST PUSH1 0x40 MLOAD PUSH2 0xEC SWAP2 SWAP1 PUSH2 0x53C JUMP JUMPDEST PUSH1 0x40 MLOAD DUP1 SWAP2 SUB SWAP1 RETURN JUMPDEST PUSH2 0x10F PUSH1 0x4 DUP1 CALLDATASIZE SUB DUP2 ADD SWAP1 PUSH2 0x10A SWAP2 SWAP1 PUSH2 0x62E JUMP JUMPDEST PUSH2 0x253 JUMP JUMPDEST PUSH1 0x40 MLOAD PUSH2 0x11C SWAP2 SWAP1 PUSH2 0x53C JUMP JUMPDEST PUSH1 0x40 MLOAD DUP1 SWAP2 SUB SWAP1 RETURN JUMPDEST PUSH2 0x13F PUSH1 0x4 DUP1 CALLDATASIZE SUB DUP2 ADD SWAP1 PUSH2 0x13A SWAP2 SWAP1 PUSH2 0x62E JUMP JUMPDEST PUSH2 0x2D3 JUMP JUMPDEST PUSH1 0x40 MLOAD PUSH2 0x14C SWAP2 SWAP1 PUSH2 0x53C JUMP JUMPDEST PUSH1 0x40 MLOAD DUP1 SWAP2 SUB SWAP1 RETURN JUMPDEST PUSH2 0x16F PUSH1 0x4 DUP1 CALLDATASIZE SUB DUP2 ADD SWAP1 PUSH2 0x16A SWAP2 SWAP1 PUSH2 0x68C JUMP JUMPDEST PUSH2 0x308 JUMP JUMPDEST PUSH1 0x40 MLOAD PUSH2 0x17C SWAP2 SWAP1 PUSH2 0x6D1 JUMP JUMPDEST PUSH1 0x40 MLOAD DUP1 SWAP2 SUB SWAP1 RETURN JUMPDEST PUSH0 PUSH0 PUSH0 SWAP1 POP PUSH0 PUSH0 SWAP1 POP JUMPDEST DUP4 MLOAD DUP2 LT ISZERO PUSH2 0x1D7 JUMPI PUSH0 PUSH1 0x2 DUP6 DUP4 DUP2 MLOAD DUP2 LT PUSH2 0x1AE JUMPI PUSH2 0x1AD PUSH2 0x6EA JUMP JUMPDEST JUMPDEST PUSH1 0x20 MUL PUSH1 0x20 ADD ADD MLOAD PUSH2 0x1C0 SWAP2 SWAP1 PUSH2 0x744 JUMP JUMPDEST SUB PUSH2 0x1CC JUMPI DUP2 PUSH1 0x1 ADD SWAP2 POP JUMPDEST DUP1 PUSH1 0x1 ADD SWAP1 POP PUSH2 0x18F JUMP JUMPDEST POP DUP1 SWAP2 POP POP SWAP2 SWAP1 POP JUMP JUMPDEST PUSH0 PUSH0 PUSH0 PUSH0 SWAP1 POP JUMPDEST DUP5 MLOAD DUP2 LT ISZERO PUSH2 0x22A JUMPI DUP4 DUP6 DUP3 DUP2 MLOAD DUP2 LT PUSH2 0x205 JUMPI PUSH2 0x204 PUSH2 0x6EA JUMP JUMPDEST JUMPDEST PUSH1 0x20 MUL PUSH1 0x20 ADD ADD MLOAD SUB PUSH2 0x21F JUMPI PUSH1 0x1 DUP2 SWAP3 POP SWAP3 POP POP PUSH2 0x232 JUMP JUMPDEST DUP1 PUSH1 0x1 ADD SWAP1 POP PUSH2 0x1E8 JUMP JUMPDEST POP PUSH0 PUSH0 SWAP2 POP SWAP2 POP JUMPDEST SWAP3 POP SWAP3 SWAP1 POP JUMP JUMPDEST PUSH0 DUP2 DUP4 LT PUSH2 0x249 JUMPI DUP3 SWAP1 POP PUSH2 0x24D JUMP JUMPDEST DUP2 SWAP1 POP JUMPDEST SWAP3 SWAP2 POP POP JUMP JUMPDEST PUSH0 PUSH1 0x14 DUP3 GT ISZERO PUSH2 0x298 JUMPI PUSH1 0x40 MLOAD PUSH32 0x8C379A000000000000000000000000000000000000000000000000000000000 DUP2 MSTORE PUSH1 0x4 ADD PUSH2 0x28F SWAP1 PUSH2 0x7CE JUMP JUMPDEST PUSH1 0x40 MLOAD DUP1 SWAP2 SUB SWAP1 REVERT JUMPDEST PUSH0 PUSH1 0x1 SWAP1 POP PUSH0 PUSH1 0x2 SWAP1 POP JUMPDEST DUP4 DUP2 GT PUSH2 0x2C9 JUMPI DUP1 DUP3 PUSH2 0x2B6 SWAP2 SWAP1 PUSH2 0x819 JUMP JUMPDEST SWAP2 POP DUP1 PUSH2 0x2C2 SWAP1 PUSH2 0x85A JUMP JUMPDEST SWAP1 POP PUSH2 0x2A3 JUMP JUMPDEST POP DUP1 SWAP2 POP POP SWAP2 SWAP1 POP JUMP JUMPDEST PUSH0 PUSH0 PUSH1 0x1 SWAP1 POP PUSH0 PUSH0 SWAP1 POP JUMPDEST DUP4 DUP3 GT PUSH2 0x2FE JUMPI DUP2 DUP2 PUSH2 0x2F1 SWAP2 SWAP1 PUSH2 0x8A1 JUMP JUMPDEST SWAP1 POP DUP2 PUSH1 0x1 ADD SWAP2 POP PUSH2 0x2DE JUMP JUMPDEST DUP1 SWAP3 POP POP POP SWAP2 SWAP1 POP JUMP JUMPDEST PUSH0 PUSH0 DUP3 SLT ISZERO PUSH2 0x339 JUMPI PUSH32 0xFFFFFFFFFFFFFFFFFFFFFFFFFFFFFFFFFFFFFFFFFFFFFFFFFFFFFFFFFFFFFFFF SWAP1 POP PUSH2 0x34D JUMP JUMPDEST PUSH0 DUP3 SUB PUSH2 0x348 JUMPI PUSH0 SWAP1 POP PUSH2 0x34D JUMP JUMPDEST PUSH1 0x1 SWAP1 POP JUMPDEST SWAP2 SWAP1 POP JUMP JUMPDEST PUSH0 PUSH1 0x40 MLOAD SWAP1 POP SWAP1 JUMP JUMPDEST PUSH0 PUSH0 REVERT JUMPDEST PUSH0 PUSH0 REVERT JUMPDEST PUSH0 PUSH0 REVERT JUMPDEST PUSH0 PUSH1 0x1F NOT PUSH1 0x1F DUP4 ADD AND SWAP1 POP SWAP2 SWAP1 POP JUMP JUMPDEST PUSH32 0x4E487B7100000000000000000000000000000000000000000000000000000000 PUSH0 MSTORE PUSH1 0x41 PUSH1 0x4 MSTORE PUSH1 0x24 PUSH0 REVERT JUMPDEST PUSH2 0x3AD DUP3 PUSH2 0x367 JUMP JUMPDEST DUP2 ADD DUP2 DUP2 LT PUSH8 0xFFFFFFFFFFFFFFFF DUP3 GT OR ISZERO PUSH2 0x3CC JUMPI PUSH2 0x3CB PUSH2 0x377 JUMP JUMPDEST JUMPDEST DUP1 PUSH1 0x40 MSTORE POP POP POP JUMP JUMPDEST PUSH0 PUSH2 0x3DE PUSH2 0x352 JUMP JUMPDEST SWAP1 POP PUSH2 0x3EA DUP3 DUP3 PUSH2 0x3A4 JUMP JUMPDEST SWAP2 SWAP1 POP JUMP JUMPDEST PUSH0 PUSH8 0xFFFFFFFFFFFFFFFF DUP3 GT ISZERO PUSH2 0x409 JUMPI PUSH2 0x408 PUSH2 0x377 JUMP JUMPDEST JUMPDEST PUSH1 0x20 DUP3 MUL SWAP1 POP PUSH1 0x20 DUP2 ADD SWAP1 POP SWAP2 SWAP1 POP JUMP JUMPDEST PUSH0 PUSH0 REVERT JUMPDEST PUSH0 DUP2 SWAP1 POP SWAP2 SWAP1 POP JUMP JUMPDEST PUSH2 0x430 DUP2 PUSH2 0x41E JUMP JUMPDEST DUP2 EQ PUSH2 0x43A JUMPI PUSH0 PUSH0 REVERT JUMPDEST POP JUMP JUMPDEST PUSH0 DUP2 CALLDATALOAD SWAP1 POP PUSH2 0x44B DUP2 PUSH2 0x427 JUMP JUMPDEST SWAP3 SWAP2 POP POP JUMP JUMPDEST PUSH0 PUSH2 0x463 PUSH2 0x45E DUP5 PUSH2 0x3EF JUMP JUMPDEST PUSH2 0x3D5 JUMP JUMPDEST SWAP1 POP DUP1 DUP4 DUP3 MSTORE PUSH1 0x20 DUP3 ADD SWAP1 POP PUSH1 0x20 DUP5 MUL DUP4 ADD DUP6 DUP2 GT ISZERO PUSH2 0x486 JUMPI PUSH2 0x485 PUSH2 0x41A JUMP JUMPDEST JUMPDEST DUP4 JUMPDEST DUP2 DUP2 LT ISZERO PUSH2 0x4AF JUMPI DUP1 PUSH2 0x49B DUP9 DUP3 PUSH2 0x43D JUMP JUMPDEST DUP5 MSTORE PUSH1 0x20 DUP5 ADD SWAP4 POP POP PUSH1 0x20 DUP2 ADD SWAP1 POP PUSH2 0x488 JUMP JUMPDEST POP POP POP SWAP4 SWAP3 POP POP POP JUMP JUMPDEST PUSH0 DUP3 PUSH1 0x1F DUP4 ADD SLT PUSH2 0x4CD JUMPI PUSH2 0x4CC PUSH2 0x363 JUMP JUMPDEST JUMPDEST DUP2 CALLDATALOAD PUSH2 0x4DD DUP5 DUP3 PUSH1 0x20 DUP7 ADD PUSH2 0x451 JUMP JUMPDEST SWAP2 POP POP SWAP3 SWAP2 POP POP JUMP JUMPDEST PUSH0 PUSH1 0x20 DUP3 DUP5 SUB SLT ISZERO PUSH2 0x4FB JUMPI PUSH2 0x4FA PUSH2 0x35B JUMP JUMPDEST JUMPDEST PUSH0 DUP3 ADD CALLDATALOAD PUSH8 0xFFFFFFFFFFFFFFFF DUP2 GT ISZERO PUSH2 0x518 JUMPI PUSH2 0x517 PUSH2 0x35F JUMP JUMPDEST JUMPDEST PUSH2 0x524 DUP5 DUP3 DUP6 ADD PUSH2 0x4B9 JUMP JUMPDEST SWAP2 POP POP SWAP3 SWAP2 POP POP JUMP JUMPDEST PUSH2 0x536 DUP2 PUSH2 0x41E JUMP JUMPDEST DUP3 MSTORE POP POP JUMP JUMPDEST PUSH0 PUSH1 0x20 DUP3 ADD SWAP1 POP PUSH2 0x54F PUSH0 DUP4 ADD DUP5 PUSH2 0x52D JUMP JUMPDEST SWAP3 SWAP2 POP POP JUMP JUMPDEST PUSH0 PUSH0 PUSH1 0x40 DUP4 DUP6 SUB SLT ISZERO PUSH2 0x56B JUMPI PUSH2 0x56A PUSH2 0x35B JUMP JUMPDEST JUMPDEST PUSH0 DUP4 ADD CALLDATALOAD PUSH8 0xFFFFFFFFFFFFFFFF DUP2 GT ISZERO PUSH2 0x588 JUMPI PUSH2 0x587 PUSH2 0x35F JUMP JUMPDEST JUMPDEST PUSH2 0x594 DUP6 DUP3 DUP7 ADD PUSH2 0x4B9 JUMP JUMPDEST SWAP3 POP POP PUSH1 0x20 PUSH2 0x5A5 DUP6 DUP3 DUP7 ADD PUSH2 0x43D JUMP JUMPDEST SWAP2 POP POP SWAP3 POP SWAP3 SWAP1 POP JUMP JUMPDEST PUSH0 DUP2 ISZERO ISZERO SWAP1 POP SWAP2 SWAP1 POP JUMP JUMPDEST PUSH2 0x5C3 DUP2 PUSH2 0x5AF JUMP JUMPDEST DUP3 MSTORE POP POP JUMP JUMPDEST PUSH0 PUSH1 0x40 DUP3 ADD SWAP1 POP PUSH2 0x5DC PUSH0 DUP4 ADD DUP6 PUSH2 0x5BA JUMP JUMPDEST PUSH2 0x5E9 PUSH1 0x20 DUP4 ADD DUP5 PUSH2 0x52D JUMP JUMPDEST SWAP4 SWAP3 POP POP POP JUMP JUMPDEST PUSH0 PUSH0 PUSH1 0x40 DUP4 DUP6 SUB SLT ISZERO PUSH2 0x606 JUMPI PUSH2 0x605 PUSH2 0x35B JUMP JUMPDEST JUMPDEST PUSH0 PUSH2 0x613 DUP6 DUP3 DUP7 ADD PUSH2 0x43D JUMP JUMPDEST SWAP3 POP POP PUSH1 0x20 PUSH2 0x624 DUP6 DUP3 DUP7 ADD PUSH2 0x43D JUMP JUMPDEST SWAP2 POP POP SWAP3 POP SWAP3 SWAP1 POP JUMP JUMPDEST PUSH0 PUSH1 0x20 DUP3 DUP5 SUB SLT ISZERO PUSH2 0x643 JUMPI PUSH2 0x642 PUSH2 0x35B JUMP JUMPDEST JUMPDEST PUSH0 PUSH2 0x650 DUP5 DUP3 DUP6 ADD PUSH2 0x43D JUMP JUMPDEST SWAP2 POP POP SWAP3 SWAP2 POP POP JUMP JUMPDEST PUSH0 DUP2 SWAP1 POP SWAP2 SWAP1 POP JUMP JUMPDEST PUSH2 0x66B DUP2 PUSH2 0x659 JUMP JUMPDEST DUP2 EQ PUSH2 0x675 JUMPI PUSH0 PUSH0 REVERT JUMPDEST POP JUMP JUMPDEST PUSH0 DUP2 CALLDATALOAD SWAP1 POP PUSH2 0x686 DUP2 PUSH2 0x662 JUMP JUMPDEST SWAP3 SWAP2 POP POP JUMP JUMPDEST PUSH0 PUSH1 0x20 DUP3 DUP5 SUB SLT ISZERO PUSH2 0x6A1 JUMPI PUSH2 0x6A0 PUSH2 0x35B JUMP JUMPDEST JUMPDEST PUSH0 PUSH2 0x6AE DUP5 DUP3 DUP6 ADD PUSH2 0x678 JUMP JUMPDEST SWAP2 POP POP SWAP3 SWAP2 POP POP JUMP JUMPDEST PUSH0 DUP2 PUSH0 SIGNEXTEND SWAP1 POP SWAP2 SWAP1 POP JUMP JUMPDEST PUSH2 0x6CB DUP2 PUSH2 0x6B7 JUMP JUMPDEST DUP3 MSTORE POP POP JUMP JUMPDEST PUSH0 PUSH1 0x20 DUP3 ADD SWAP1 POP PUSH2 0x6E4 PUSH0 DUP4 ADD DUP5 PUSH2 0x6C2 JUMP JUMPDEST SWAP3 SWAP2 POP POP JUMP JUMPDEST PUSH32 0x4E487B7100000000000000000000000000000000000000000000000000000000 PUSH0 MSTORE PUSH1 0x32 PUSH1 0x4 MSTORE PUSH1 0x24 PUSH0 REVERT JUMPDEST PUSH32 0x4E487B7100000000000000000000000000000000000000000000000000000000 PUSH0 MSTORE PUSH1 0x12 PUSH1 0x4 MSTORE PUSH1 0x24 PUSH0 REVERT JUMPDEST PUSH0 PUSH2 0x74E DUP3 PUSH2 0x41E JUMP JUMPDEST SWAP2 POP PUSH2 0x759 DUP4 PUSH2 0x41E JUMP JUMPDEST SWAP3 POP DUP3 PUSH2 0x769 JUMPI PUSH2 0x768 PUSH2 0x717 JUMP JUMPDEST JUMPDEST DUP3 DUP3 MOD SWAP1 POP SWAP3 SWAP2 POP POP JUMP JUMPDEST PUSH0 DUP3 DUP3 MSTORE PUSH1 0x20 DUP3 ADD SWAP1 POP SWAP3 SWAP2 POP POP JUMP JUMPDEST PUSH32 0x6E206D7579206772616E64650000000000000000000000000000000000000000 PUSH0 DUP3 ADD MSTORE POP JUMP JUMPDEST PUSH0 PUSH2 0x7B8 PUSH1 0xC DUP4 PUSH2 0x774 JUMP JUMPDEST SWAP2 POP PUSH2 0x7C3 DUP3 PUSH2 0x784 JUMP JUMPDEST PUSH1 0x20 DUP3 ADD SWAP1 POP SWAP2 SWAP1 POP JUMP JUMPDEST PUSH0 PUSH1 0x20 DUP3 ADD SWAP1 POP DUP2 DUP2 SUB PUSH0 DUP4 ADD MSTORE PUSH2 0x7E5 DUP2 PUSH2 0x7AC JUMP JUMPDEST SWAP1 POP SWAP2 SWAP1 POP JUMP JUMPDEST PUSH32 0x4E487B7100000000000000000000000000000000000000000000000000000000 PUSH0 MSTORE PUSH1 0x11 PUSH1 0x4 MSTORE PUSH1 0x24 PUSH0 REVERT JUMPDEST PUSH0 PUSH2 0x823 DUP3 PUSH2 0x41E JUMP JUMPDEST SWAP2 POP PUSH2 0x82E DUP4 PUSH2 0x41E JUMP JUMPDEST SWAP3 POP DUP3 DUP3 MUL PUSH2 0x83C DUP2 PUSH2 0x41E JUMP JUMPDEST SWAP2 POP DUP3 DUP3 DIV DUP5 EQ DUP4 ISZERO OR PUSH2 0x853 JUMPI PUSH2 0x852 PUSH2 0x7EC JUMP JUMPDEST JUMPDEST POP SWAP3 SWAP2 POP POP JUMP JUMPDEST PUSH0 PUSH2 0x864 DUP3 PUSH2 0x41E JUMP JUMPDEST SWAP2 POP PUSH32 0xFFFFFFFFFFFFFFFFFFFFFFFFFFFFFFFFFFFFFFFFFFFFFFFFFFFFFFFFFFFFFFFF DUP3 SUB PUSH2 0x896 JUMPI PUSH2 0x895 PUSH2 0x7EC JUMP JUMPDEST JUMPDEST PUSH1 0x1 DUP3 ADD SWAP1 POP SWAP2 SWAP1 POP JUMP JUMPDEST PUSH0 PUSH2 0x8AB DUP3 PUSH2 0x41E JUMP JUMPDEST SWAP2 POP PUSH2 0x8B6 DUP4 PUSH2 0x41E JUMP JUMPDEST SWAP3 POP DUP3 DUP3 ADD SWAP1 POP DUP1 DUP3 GT ISZERO PUSH2 0x8CE JUMPI PUSH2 0x8CD PUSH2 0x7EC JUMP JUMPDEST JUMPDEST SWAP3 SWAP2 POP POP JUMP INVALID LOG2 PUSH5 0x6970667358 0x22 SLT KECCAK256 BASEFEE PUSH19 0x67F5487490A262B3865A689B47F1A2F5D63A0A JUMP PUSH14 0x3DE3977F426EF78A5D64736F6C63 NUMBER STOP ADDMOD 0x1E STOP CALLER "
		},
		"gasEstimates": {
			"creation": {
				"codeDepositCost": "462800",
				"executionCost": "497",
				"totalCost": "463297"
			},
			"external": {
				"clasificar(int256)": "745",
				"contarParesFor(uint256[])": "infinite",
				"factorialFor(uint256)": "infinite",
				"maxDe(uint256,uint256)": "infinite",
				"primeraCoincidencia(uint256[],uint256)": "infinite",
				"sumatoriaWhile(uint256)": "infinite"
			}
		},
		"methodIdentifiers": {
			"clasificar(int256)": "fafd55c6",
			"contarParesFor(uint256[])": "08e364e8",
			"factorialFor(uint256)": "7dbfe9b5",
			"maxDe(uint256,uint256)": "46ffd482",
			"primeraCoincidencia(uint256[],uint256)": "37bc51ef",
			"sumatoriaWhile(uint256)": "958c838d"
		}
	},
	"abi": [
		{
			"inputs": [
				{
					"internalType": "int256",
					"name": "x",
					"type": "int256"
				}
			],
			"name": "clasificar",
			"outputs": [
				{
					"internalType": "int8",
					"name": "",
					"type": "int8"
				}
			],
			"stateMutability": "pure",
			"type": "function"
		},
		{
			"inputs": [
				{
					"internalType": "uint256[]",
					"name": "arr",
					"type": "uint256[]"
				}
			],
			"name": "contarParesFor",
			"outputs": [
				{
					"internalType": "uint256",
					"name": "",
					"type": "uint256"
				}
			],
			"stateMutability": "pure",
			"type": "function"
		},
		{
			"inputs": [
				{
					"internalType": "uint256",
					"name": "n",
					"type": "uint256"
				}
			],
			"name": "factorialFor",
			"outputs": [
				{
					"internalType": "uint256",
					"name": "",
					"type": "uint256"
				}
			],
			"stateMutability": "pure",
			"type": "function"
		},
		{
			"inputs": [
				{
					"internalType": "uint256",
					"name": "a",
					"type": "uint256"
				},
				{
					"internalType": "uint256",
					"name": "b",
					"type": "uint256"
				}
			],
			"name": "maxDe",
			"outputs": [
				{
					"internalType": "uint256",
					"name": "",
					"type": "uint256"
				}
			],
			"stateMutability": "pure",
			"type": "function"
		},
		{
			"inputs": [
				{
					"internalType": "uint256[]",
					"name": "arr",
					"type": "uint256[]"
				},
				{
					"internalType": "uint256",
					"name": "objetivo",
					"type": "uint256"
				}
			],
			"name": "primeraCoincidencia",
			"outputs": [
				{
					"internalType": "bool",
					"name": "encontrado",
					"type": "bool"
				},
				{
					"internalType": "uint256",
					"name": "indice",
					"type": "uint256"
				}
			],
			"stateMutability": "pure",
			"type": "function"
		},
		{
			"inputs": [
				{
					"internalType": "uint256",
					"name": "n",
					"type": "uint256"
				}
			],
			"name": "sumatoriaWhile",
			"outputs": [
				{
					"internalType": "uint256",
					"name": "",
					"type": "uint256"
				}
			],
			"stateMutability": "pure",
			"type": "function"
		}
	]
}